{"abi":[{"type":"constructor","inputs":[{"name":"_asset","type":"address","internalType":"contract IERC20"},{"name":"_name","type":"string","internalType":"string"},{"name":"_symbol","type":"string","internalType":"string"},{"name":"initialAdmin","type":"address","internalType":"address"},{"name":"_lendingManagerAddress","type":"address","internalType":"address"},{"name":"_collectionRegistryAddress","type":"address","internalType":"address"}],"stateMutability":"nonpayable"},{"type":"function","name":"ADMIN_ROLE","inputs":[],"outputs":[{"name":"","type":"bytes32","internalType":"bytes32"}],"stateMutability":"view"},{"type":"function","name":"DEBT_SUBSIDIZER_ROLE","inputs":[],"outputs":[{"name":"","type":"bytes32","internalType":"bytes32"}],"stateMutability":"view"},{"type":"function","name":"DEFAULT_ADMIN_ROLE","inputs":[],"outputs":[{"name":"","type":"bytes32","internalType":"bytes32"}],"stateMutability":"view"},{"type":"function","name":"GLOBAL_DEPOSIT_INDEX_PRECISION","inputs":[],"outputs":[{"name":"","type":"uint256","internalType":"uint256"}],"stateMutability":"view"},{"type":"function","name":"allocateEpochYield","inputs":[{"name":"amount","type":"uint256","internalType":"uint256"}],"outputs":[],"stateMutability":"nonpayable"},{"type":"function","name":"allocateYieldToEpoch","inputs":[{"name":"epochId","type":"uint256","internalType":"uint256"}],"outputs":[],"stateMutability":"nonpayable"},{"type":"function","name":"allowance","inputs":[{"name":"owner","type":"address","internalType":"address"},{"name":"spender","type":"address","internalType":"address"}],"outputs":[{"name":"","type":"uint256","internalType":"uint256"}],"stateMutability":"view"},{"type":"function","name":"applyCollectionYieldForEpoch","inputs":[{"name":"collectionAddress","type":"address","internalType":"address"},{"name":"epochId","type":"uint256","internalType":"uint256"}],"outputs":[],"stateMutability":"nonpayable"},{"type":"function","name":"approve","inputs":[{"name":"spender","type":"address","internalType":"address"},{"name":"value","type":"uint256","internalType":"uint256"}],"outputs":[{"name":"","type":"bool","internalType":"bool"}],"stateMutability":"nonpayable"},{"type":"function","name":"asset","inputs":[],"outputs":[{"name":"","type":"address","internalType":"address"}],"stateMutability":"view"},{"type":"function","name":"balanceOf","inputs":[{"name":"account","type":"address","internalType":"address"}],"outputs":[{"name":"","type":"uint256","internalType":"uint256"}],"stateMutability":"view"},{"type":"function","name":"collectionPerformanceScore","inputs":[{"name":"","type":"address","internalType":"address"}],"outputs":[{"name":"","type":"uint256","internalType":"uint256"}],"stateMutability":"view"},{"type":"function","name":"collectionRegistry","inputs":[],"outputs":[{"name":"","type":"address","internalType":"contract ICollectionRegistry"}],"stateMutability":"view"},{"type":"function","name":"collectionTotalAssetsDeposited","inputs":[{"name":"collectionAddress","type":"address","internalType":"address"}],"outputs":[{"name":"","type":"uint256","internalType":"uint256"}],"stateMutability":"view"},{"type":"function","name":"collectionTotalBorrowVolume","inputs":[{"name":"","type":"address","internalType":"address"}],"outputs":[{"name":"","type":"uint256","internalType":"uint256"}],"stateMutability":"view"},{"type":"function","name":"collectionTotalYieldGenerated","inputs":[{"name":"","type":"address","internalType":"address"}],"outputs":[{"name":"","type":"uint256","internalType":"uint256"}],"stateMutability":"view"},{"type":"function","name":"collectionVaultsData","inputs":[{"name":"","type":"address","internalType":"address"}],"outputs":[{"name":"totalAssetsDeposited","type":"uint256","internalType":"uint256"},{"name":"totalSharesMinted","type":"uint256","internalType":"uint256"},{"name":"totalCTokensMinted","type":"uint256","internalType":"uint256"},{"name":"lastGlobalDepositIndex","type":"uint256","internalType":"uint256"}],"stateMutability":"view"},{"type":"function","name":"convertToAssets","inputs":[{"name":"shares","type":"uint256","internalType":"uint256"}],"outputs":[{"name":"","type":"uint256","internalType":"uint256"}],"stateMutability":"view"},{"type":"function","name":"convertToShares","inputs":[{"name":"assets","type":"uint256","internalType":"uint256"}],"outputs":[{"name":"","type":"uint256","internalType":"uint256"}],"stateMutability":"view"},{"type":"function","name":"decimals","inputs":[],"outputs":[{"name":"","type":"uint8","internalType":"uint8"}],"stateMutability":"view"},{"type":"function","name":"deposit","inputs":[{"name":"","type":"uint256","internalType":"uint256"},{"name":"","type":"address","internalType":"address"}],"outputs":[{"name":"","type":"uint256","internalType":"uint256"}],"stateMutability":"nonpayable"},{"type":"function","name":"depositForCollection","inputs":[{"name":"assets","type":"uint256","internalType":"uint256"},{"name":"receiver","type":"address","internalType":"address"},{"name":"collectionAddress","type":"address","internalType":"address"}],"outputs":[{"name":"shares","type":"uint256","internalType":"uint256"}],"stateMutability":"nonpayable"},{"type":"function","name":"epochCollectionYieldApplied","inputs":[{"name":"","type":"uint256","internalType":"uint256"},{"name":"","type":"address","internalType":"address"}],"outputs":[{"name":"","type":"bool","internalType":"bool"}],"stateMutability":"view"},{"type":"function","name":"epochManager","inputs":[],"outputs":[{"name":"","type":"address","internalType":"contract IEpochManager"}],"stateMutability":"view"},{"type":"function","name":"epochYieldAllocations","inputs":[{"name":"","type":"uint256","internalType":"uint256"}],"outputs":[{"name":"","type":"uint256","internalType":"uint256"}],"stateMutability":"view"},{"type":"function","name":"getCollectionPerformanceScore","inputs":[{"name":"collectionAddress","type":"address","internalType":"address"}],"outputs":[{"name":"","type":"uint256","internalType":"uint256"}],"stateMutability":"view"},{"type":"function","name":"getCollectionTotalBorrowVolume","inputs":[{"name":"collectionAddress","type":"address","internalType":"address"}],"outputs":[{"name":"","type":"uint256","internalType":"uint256"}],"stateMutability":"view"},{"type":"function","name":"getCollectionTotalYieldGenerated","inputs":[{"name":"collectionAddress","type":"address","internalType":"address"}],"outputs":[{"name":"","type":"uint256","internalType":"uint256"}],"stateMutability":"view"},{"type":"function","name":"getCurrentEpochYield","inputs":[{"name":"includeNonShared","type":"bool","internalType":"bool"}],"outputs":[{"name":"availableYield","type":"uint256","internalType":"uint256"}],"stateMutability":"view"},{"type":"function","name":"getEpochYieldAllocated","inputs":[{"name":"epochId","type":"uint256","internalType":"uint256"}],"outputs":[{"name":"amount","type":"uint256","internalType":"uint256"}],"stateMutability":"view"},{"type":"function","name":"getRoleAdmin","inputs":[{"name":"role","type":"bytes32","internalType":"bytes32"}],"outputs":[{"name":"","type":"bytes32","internalType":"bytes32"}],"stateMutability":"view"},{"type":"function","name":"globalDepositIndex","inputs":[],"outputs":[{"name":"","type":"uint256","internalType":"uint256"}],"stateMutability":"view"},{"type":"function","name":"grantCollectionAccess","inputs":[{"name":"collectionAddress","type":"address","internalType":"address"},{"name":"operator","type":"address","internalType":"address"}],"outputs":[],"stateMutability":"nonpayable"},{"type":"function","name":"grantRole","inputs":[{"name":"role","type":"bytes32","internalType":"bytes32"},{"name":"account","type":"address","internalType":"address"}],"outputs":[],"stateMutability":"nonpayable"},{"type":"function","name":"hasRole","inputs":[{"name":"role","type":"bytes32","internalType":"bytes32"},{"name":"account","type":"address","internalType":"address"}],"outputs":[{"name":"","type":"bool","internalType":"bool"}],"stateMutability":"view"},{"type":"function","name":"indexCollectionsDeposits","inputs":[],"outputs":[],"stateMutability":"nonpayable"},{"type":"function","name":"isCollectionOperator","inputs":[{"name":"collectionAddress","type":"address","internalType":"address"},{"name":"operator","type":"address","internalType":"address"}],"outputs":[{"name":"","type":"bool","internalType":"bool"}],"stateMutability":"view"},{"type":"function","name":"lendingManager","inputs":[],"outputs":[{"name":"","type":"address","internalType":"contract ILendingManager"}],"stateMutability":"view"},{"type":"function","name":"maxDeposit","inputs":[{"name":"","type":"address","internalType":"address"}],"outputs":[{"name":"","type":"uint256","internalType":"uint256"}],"stateMutability":"view"},{"type":"function","name":"maxMint","inputs":[{"name":"","type":"address","internalType":"address"}],"outputs":[{"name":"","type":"uint256","internalType":"uint256"}],"stateMutability":"view"},{"type":"function","name":"maxRedeem","inputs":[{"name":"owner","type":"address","internalType":"address"}],"outputs":[{"name":"","type":"uint256","internalType":"uint256"}],"stateMutability":"view"},{"type":"function","name":"maxWithdraw","inputs":[{"name":"owner","type":"address","internalType":"address"}],"outputs":[{"name":"","type":"uint256","internalType":"uint256"}],"stateMutability":"view"},{"type":"function","name":"mint","inputs":[{"name":"","type":"uint256","internalType":"uint256"},{"name":"","type":"address","internalType":"address"}],"outputs":[{"name":"","type":"uint256","internalType":"uint256"}],"stateMutability":"nonpayable"},{"type":"function","name":"mintForCollection","inputs":[{"name":"shares","type":"uint256","internalType":"uint256"},{"name":"receiver","type":"address","internalType":"address"},{"name":"collectionAddress","type":"address","internalType":"address"}],"outputs":[{"name":"assets","type":"uint256","internalType":"uint256"}],"stateMutability":"nonpayable"},{"type":"function","name":"name","inputs":[],"outputs":[{"name":"","type":"string","internalType":"string"}],"stateMutability":"view"},{"type":"function","name":"pause","inputs":[],"outputs":[],"stateMutability":"nonpayable"},{"type":"function","name":"paused","inputs":[],"outputs":[{"name":"","type":"bool","internalType":"bool"}],"stateMutability":"view"},{"type":"function","name":"previewDeposit","inputs":[{"name":"assets","type":"uint256","internalType":"uint256"}],"outputs":[{"name":"","type":"uint256","internalType":"uint256"}],"stateMutability":"view"},{"type":"function","name":"previewMint","inputs":[{"name":"shares","type":"uint256","internalType":"uint256"}],"outputs":[{"name":"","type":"uint256","internalType":"uint256"}],"stateMutability":"view"},{"type":"function","name":"previewRedeem","inputs":[{"name":"shares","type":"uint256","internalType":"uint256"}],"outputs":[{"name":"","type":"uint256","internalType":"uint256"}],"stateMutability":"view"},{"type":"function","name":"previewWithdraw","inputs":[{"name":"assets","type":"uint256","internalType":"uint256"}],"outputs":[{"name":"","type":"uint256","internalType":"uint256"}],"stateMutability":"view"},{"type":"function","name":"recordCollectionBorrowVolume","inputs":[{"name":"collectionAddress","type":"address","internalType":"address"},{"name":"borrowAmount","type":"uint256","internalType":"uint256"}],"outputs":[],"stateMutability":"nonpayable"},{"type":"function","name":"redeem","inputs":[{"name":"","type":"uint256","internalType":"uint256"},{"name":"","type":"address","internalType":"address"},{"name":"","type":"address","internalType":"address"}],"outputs":[{"name":"","type":"uint256","internalType":"uint256"}],"stateMutability":"nonpayable"},{"type":"function","name":"redeemForCollection","inputs":[{"name":"shares","type":"uint256","internalType":"uint256"},{"name":"receiver","type":"address","internalType":"address"},{"name":"owner","type":"address","internalType":"address"},{"name":"collectionAddress","type":"address","internalType":"address"}],"outputs":[{"name":"assets","type":"uint256","internalType":"uint256"}],"stateMutability":"nonpayable"},{"type":"function","name":"renounceRole","inputs":[{"name":"role","type":"bytes32","internalType":"bytes32"},{"name":"callerConfirmation","type":"address","internalType":"address"}],"outputs":[],"stateMutability":"nonpayable"},{"type":"function","name":"repayBorrowBehalf","inputs":[{"name":"amount","type":"uint256","internalType":"uint256"},{"name":"borrower","type":"address","internalType":"address"}],"outputs":[],"stateMutability":"nonpayable"},{"type":"function","name":"repayBorrowBehalfBatch","inputs":[{"name":"amounts","type":"uint256[]","internalType":"uint256[]"},{"name":"borrowers","type":"address[]","internalType":"address[]"},{"name":"totalAmount","type":"uint256","internalType":"uint256"}],"outputs":[],"stateMutability":"nonpayable"},{"type":"function","name":"resetEpochCollectionYieldFlags","inputs":[{"name":"epochId","type":"uint256","internalType":"uint256"},{"name":"collectionsToReset","type":"address[]","internalType":"address[]"}],"outputs":[],"stateMutability":"nonpayable"},{"type":"function","name":"revokeCollectionAccess","inputs":[{"name":"collectionAddress","type":"address","internalType":"address"},{"name":"operator","type":"address","internalType":"address"}],"outputs":[],"stateMutability":"nonpayable"},{"type":"function","name":"revokeRole","inputs":[{"name":"role","type":"bytes32","internalType":"bytes32"},{"name":"account","type":"address","internalType":"address"}],"outputs":[],"stateMutability":"nonpayable"},{"type":"function","name":"setDebtSubsidizer","inputs":[{"name":"_debtSubsidizerAddress","type":"address","internalType":"address"}],"outputs":[],"stateMutability":"nonpayable"},{"type":"function","name":"setEpochManager","inputs":[{"name":"_epochManagerAddress","type":"address","internalType":"address"}],"outputs":[],"stateMutability":"nonpayable"},{"type":"function","name":"setLendingManager","inputs":[{"name":"_lendingManagerAddress","type":"address","internalType":"address"}],"outputs":[],"stateMutability":"nonpayable"},{"type":"function","name":"supportsInterface","inputs":[{"name":"interfaceId","type":"bytes4","internalType":"bytes4"}],"outputs":[{"name":"","type":"bool","internalType":"bool"}],"stateMutability":"view"},{"type":"function","name":"symbol","inputs":[],"outputs":[{"name":"","type":"string","internalType":"string"}],"stateMutability":"view"},{"type":"function","name":"totalAssets","inputs":[],"outputs":[{"name":"","type":"uint256","internalType":"uint256"}],"stateMutability":"view"},{"type":"function","name":"totalAssetsDepositedAllCollections","inputs":[],"outputs":[{"name":"","type":"uint256","internalType":"uint256"}],"stateMutability":"view"},{"type":"function","name":"totalCollectionYieldShareBps","inputs":[],"outputs":[{"name":"totalBps","type":"uint16","internalType":"uint16"}],"stateMutability":"view"},{"type":"function","name":"totalSupply","inputs":[],"outputs":[{"name":"","type":"uint256","internalType":"uint256"}],"stateMutability":"view"},{"type":"function","name":"totalYieldReserved","inputs":[],"outputs":[{"name":"","type":"uint256","internalType":"uint256"}],"stateMutability":"view"},{"type":"function","name":"transfer","inputs":[{"name":"","type":"address","internalType":"address"},{"name":"","type":"uint256","internalType":"uint256"}],"outputs":[{"name":"","type":"bool","internalType":"bool"}],"stateMutability":"pure"},{"type":"function","name":"transferForCollection","inputs":[{"name":"collectionAddress","type":"address","internalType":"address"},{"name":"to","type":"address","internalType":"address"},{"name":"assets","type":"uint256","internalType":"uint256"}],"outputs":[{"name":"shares","type":"uint256","internalType":"uint256"}],"stateMutability":"nonpayable"},{"type":"function","name":"transferForCollection","inputs":[{"name":"to","type":"address","internalType":"address"},{"name":"amount","type":"uint256","internalType":"uint256"},{"name":"collectionAddress","type":"address","internalType":"address"}],"outputs":[{"name":"","type":"bool","internalType":"bool"}],"stateMutability":"nonpayable"},{"type":"function","name":"transferFrom","inputs":[{"name":"","type":"address","internalType":"address"},{"name":"","type":"address","internalType":"address"},{"name":"","type":"uint256","internalType":"uint256"}],"outputs":[{"name":"","type":"bool","internalType":"bool"}],"stateMutability":"pure"},{"type":"function","name":"unpause","inputs":[],"outputs":[],"stateMutability":"nonpayable"},{"type":"function","name":"updateCollectionPerformanceScore","inputs":[{"name":"collectionAddress","type":"address","internalType":"address"},{"name":"score","type":"uint256","internalType":"uint256"}],"outputs":[],"stateMutability":"nonpayable"},{"type":"function","name":"withdraw","inputs":[{"name":"","type":"uint256","internalType":"uint256"},{"name":"","type":"address","internalType":"address"},{"name":"","type":"address","internalType":"address"}],"outputs":[{"name":"","type":"uint256","internalType":"uint256"}],"stateMutability":"nonpayable"},{"type":"function","name":"withdrawForCollection","inputs":[{"name":"assets","type":"uint256","internalType":"uint256"},{"name":"receiver","type":"address","internalType":"address"},{"name":"owner","type":"address","internalType":"address"},{"name":"collectionAddress","type":"address","internalType":"address"}],"outputs":[{"name":"shares","type":"uint256","internalType":"uint256"}],"stateMutability":"nonpayable"},{"type":"event","name":"Approval","inputs":[{"name":"owner","type":"address","indexed":true,"internalType":"address"},{"name":"spender","type":"address","indexed":true,"internalType":"address"},{"name":"value","type":"uint256","indexed":false,"internalType":"uint256"}],"anonymous":false},{"type":"event","name":"CollectionAccessGranted","inputs":[{"name":"collection","type":"address","indexed":true,"internalType":"address"},{"name":"operator","type":"address","indexed":true,"internalType":"address"}],"anonymous":false},{"type":"event","name":"CollectionAccessRevoked","inputs":[{"name":"collection","type":"address","indexed":true,"internalType":"address"},{"name":"operator","type":"address","indexed":true,"internalType":"address"}],"anonymous":false},{"type":"event","name":"CollectionBorrowVolumeUpdated","inputs":[{"name":"collectionAddress","type":"address","indexed":true,"internalType":"address"},{"name":"totalVolume","type":"uint256","indexed":true,"internalType":"uint256"},{"name":"incrementAmount","type":"uint256","indexed":true,"internalType":"uint256"},{"name":"timestamp","type":"uint256","indexed":false,"internalType":"uint256"}],"anonymous":false},{"type":"event","name":"CollectionDeposit","inputs":[{"name":"collectionAddress","type":"address","indexed":true,"internalType":"address"},{"name":"caller","type":"address","indexed":true,"internalType":"address"},{"name":"receiver","type":"address","indexed":true,"internalType":"address"},{"name":"assets","type":"uint256","indexed":false,"internalType":"uint256"},{"name":"shares","type":"uint256","indexed":false,"internalType":"uint256"},{"name":"cTokenAmount","type":"uint256","indexed":false,"internalType":"uint256"}],"anonymous":false},{"type":"event","name":"CollectionPerformanceUpdated","inputs":[{"name":"collectionAddress","type":"address","indexed":true,"internalType":"address"},{"name":"performanceScore","type":"uint256","indexed":true,"internalType":"uint256"},{"name":"timestamp","type":"uint256","indexed":false,"internalType":"uint256"}],"anonymous":false},{"type":"event","name":"CollectionTransfer","inputs":[{"name":"collectionAddress","type":"address","indexed":true,"internalType":"address"},{"name":"from","type":"address","indexed":true,"internalType":"address"},{"name":"to","type":"address","indexed":true,"internalType":"address"},{"name":"assets","type":"uint256","indexed":false,"internalType":"uint256"}],"anonymous":false},{"type":"event","name":"CollectionWithdraw","inputs":[{"name":"collectionAddress","type":"address","indexed":true,"internalType":"address"},{"name":"caller","type":"address","indexed":true,"internalType":"address"},{"name":"receiver","type":"address","indexed":true,"internalType":"address"},{"name":"assets","type":"uint256","indexed":false,"internalType":"uint256"},{"name":"shares","type":"uint256","indexed":false,"internalType":"uint256"},{"name":"cTokenAmount","type":"uint256","indexed":false,"internalType":"uint256"}],"anonymous":false},{"type":"event","name":"CollectionYieldAccrued","inputs":[{"name":"collectionAddress","type":"address","indexed":true,"internalType":"address"},{"name":"yieldAccrued","type":"uint256","indexed":false,"internalType":"uint256"},{"name":"newTotalDeposits","type":"uint256","indexed":false,"internalType":"uint256"},{"name":"globalIndex","type":"uint256","indexed":false,"internalType":"uint256"},{"name":"previousCollectionIndex","type":"uint256","indexed":false,"internalType":"uint256"}],"anonymous":false},{"type":"event","name":"CollectionYieldAppliedForEpoch","inputs":[{"name":"epochId","type":"uint256","indexed":true,"internalType":"uint256"},{"name":"collection","type":"address","indexed":true,"internalType":"address"},{"name":"yieldSharePercentage","type":"uint16","indexed":false,"internalType":"uint16"},{"name":"yieldAdded","type":"uint256","indexed":false,"internalType":"uint256"},{"name":"newTotalDeposits","type":"uint256","indexed":false,"internalType":"uint256"}],"anonymous":false},{"type":"event","name":"CollectionYieldGenerated","inputs":[{"name":"collectionAddress","type":"address","indexed":true,"internalType":"address"},{"name":"yieldAmount","type":"uint256","indexed":true,"internalType":"uint256"},{"name":"timestamp","type":"uint256","indexed":true,"internalType":"uint256"}],"anonymous":false},{"type":"event","name":"CollectionYieldIndexed","inputs":[{"name":"collectionAddress","type":"address","indexed":true,"internalType":"address"},{"name":"epochId","type":"uint256","indexed":true,"internalType":"uint256"},{"name":"assets","type":"uint256","indexed":false,"internalType":"uint256"},{"name":"shares","type":"uint256","indexed":false,"internalType":"uint256"},{"name":"cTokenAmount","type":"uint256","indexed":false,"internalType":"uint256"}],"anonymous":false},{"type":"event","name":"Deposit","inputs":[{"name":"sender","type":"address","indexed":true,"internalType":"address"},{"name":"owner","type":"address","indexed":true,"internalType":"address"},{"name":"assets","type":"uint256","indexed":false,"internalType":"uint256"},{"name":"shares","type":"uint256","indexed":false,"internalType":"uint256"}],"anonymous":false},{"type":"event","name":"LendingManagerChanged","inputs":[{"name":"oldLendingManager","type":"address","indexed":true,"internalType":"address"},{"name":"newLendingManager","type":"address","indexed":true,"internalType":"address"},{"name":"changedBy","type":"address","indexed":true,"internalType":"address"}],"anonymous":false},{"type":"event","name":"Paused","inputs":[{"name":"account","type":"address","indexed":false,"internalType":"address"}],"anonymous":false},{"type":"event","name":"RoleAdminChanged","inputs":[{"name":"role","type":"bytes32","indexed":true,"internalType":"bytes32"},{"name":"previousAdminRole","type":"bytes32","indexed":true,"internalType":"bytes32"},{"name":"newAdminRole","type":"bytes32","indexed":true,"internalType":"bytes32"}],"anonymous":false},{"type":"event","name":"RoleGranted","inputs":[{"name":"role","type":"bytes32","indexed":true,"internalType":"bytes32"},{"name":"account","type":"address","indexed":true,"internalType":"address"},{"name":"sender","type":"address","indexed":true,"internalType":"address"}],"anonymous":false},{"type":"event","name":"RoleRevoked","inputs":[{"name":"role","type":"bytes32","indexed":true,"internalType":"bytes32"},{"name":"account","type":"address","indexed":true,"internalType":"address"},{"name":"sender","type":"address","indexed":true,"internalType":"address"}],"anonymous":false},{"type":"event","name":"Transfer","inputs":[{"name":"from","type":"address","indexed":true,"internalType":"address"},{"name":"to","type":"address","indexed":true,"internalType":"address"},{"name":"value","type":"uint256","indexed":false,"internalType":"uint256"}],"anonymous":false},{"type":"event","name":"Unpaused","inputs":[{"name":"account","type":"address","indexed":false,"internalType":"address"}],"anonymous":false},{"type":"event","name":"VaultYieldAllocatedToEpoch","inputs":[{"name":"epochId","type":"uint256","indexed":true,"internalType":"uint256"},{"name":"amount","type":"uint256","indexed":false,"internalType":"uint256"}],"anonymous":false},{"type":"event","name":"Withdraw","inputs":[{"name":"sender","type":"address","indexed":true,"internalType":"address"},{"name":"receiver","type":"address","indexed":true,"internalType":"address"},{"name":"owner","type":"address","indexed":true,"internalType":"address"},{"name":"assets","type":"uint256","indexed":false,"internalType":"uint256"},{"name":"shares","type":"uint256","indexed":false,"internalType":"uint256"}],"anonymous":false},{"type":"event","name":"YieldBatchRepaid","inputs":[{"name":"totalAmount","type":"uint256","indexed":false,"internalType":"uint256"},{"name":"recipient","type":"address","indexed":true,"internalType":"address"}],"anonymous":false},{"type":"error","name":"AccessControlBadConfirmation","inputs":[]},{"type":"error","name":"AccessControlUnauthorizedAccount","inputs":[{"name":"account","type":"address","internalType":"address"},{"name":"neededRole","type":"bytes32","internalType":"bytes32"}]},{"type":"error","name":"AddressZero","inputs":[]},{"type":"error","name":"CollectionInsufficientBalance","inputs":[{"name":"collectionAddress","type":"address","internalType":"address"},{"name":"requested","type":"uint256","internalType":"uint256"},{"name":"available","type":"uint256","internalType":"uint256"}]},{"type":"error","name":"CollectionNotRegistered","inputs":[{"name":"collectionAddress","type":"address","internalType":"address"}]},{"type":"error","name":"ERC20InsufficientAllowance","inputs":[{"name":"spender","type":"address","internalType":"address"},{"name":"allowance","type":"uint256","internalType":"uint256"},{"name":"needed","type":"uint256","internalType":"uint256"}]},{"type":"error","name":"ERC20InsufficientBalance","inputs":[{"name":"sender","type":"address","internalType":"address"},{"name":"balance","type":"uint256","internalType":"uint256"},{"name":"needed","type":"uint256","internalType":"uint256"}]},{"type":"error","name":"ERC20InvalidApprover","inputs":[{"name":"approver","type":"address","internalType":"address"}]},{"type":"error","name":"ERC20InvalidReceiver","inputs":[{"name":"receiver","type":"address","internalType":"address"}]},{"type":"error","name":"ERC20InvalidSender","inputs":[{"name":"sender","type":"address","internalType":"address"}]},{"type":"error","name":"ERC20InvalidSpender","inputs":[{"name":"spender","type":"address","internalType":"address"}]},{"type":"error","name":"ERC4626ExceededMaxDeposit","inputs":[{"name":"receiver","type":"address","internalType":"address"},{"name":"assets","type":"uint256","internalType":"uint256"},{"name":"max","type":"uint256","internalType":"uint256"}]},{"type":"error","name":"ERC4626ExceededMaxMint","inputs":[{"name":"receiver","type":"address","internalType":"address"},{"name":"shares","type":"uint256","internalType":"uint256"},{"name":"max","type":"uint256","internalType":"uint256"}]},{"type":"error","name":"ERC4626ExceededMaxRedeem","inputs":[{"name":"owner","type":"address","internalType":"address"},{"name":"shares","type":"uint256","internalType":"uint256"},{"name":"max","type":"uint256","internalType":"uint256"}]},{"type":"error","name":"ERC4626ExceededMaxWithdraw","inputs":[{"name":"owner","type":"address","internalType":"address"},{"name":"assets","type":"uint256","internalType":"uint256"},{"name":"max","type":"uint256","internalType":"uint256"}]},{"type":"error","name":"EnforcedPause","inputs":[]},{"type":"error","name":"ExcessiveYieldAmount","inputs":[{"name":"collection","type":"address","internalType":"address"},{"name":"requested","type":"uint256","internalType":"uint256"},{"name":"maxAllowed","type":"uint256","internalType":"uint256"}]},{"type":"error","name":"ExpectedPause","inputs":[]},{"type":"error","name":"FunctionDisabledUse","inputs":[{"name":"functionName","type":"string","internalType":"string"}]},{"type":"error","name":"InsufficientBalanceInProtocol","inputs":[]},{"type":"error","name":"LendingManagerDepositFailed","inputs":[]},{"type":"error","name":"LendingManagerMismatch","inputs":[]},{"type":"error","name":"LendingManagerWithdrawFailed","inputs":[]},{"type":"error","name":"ReentrancyGuardReentrantCall","inputs":[]},{"type":"error","name":"SafeERC20FailedOperation","inputs":[{"name":"token","type":"address","internalType":"address"}]},{"type":"error","name":"ShareBalanceUnderflow","inputs":[]},{"type":"error","name":"UnauthorizedCollectionAccess","inputs":[{"name":"collectionAddress","type":"address","internalType":"address"},{"name":"operator","type":"address","internalType":"address"}]},{"type":"error","name":"Vault_InsufficientBalancePostLMWithdraw","inputs":[]}],"bytecode":{"object":"0x60c0806040523461038c576154ad803803809161001c82856105b4565b8339810160c08282031261038c57610033826105d7565b60208301519091906001600160401b03811161038c5781610055918501610606565b604084015190916001600160401b03821161038c57610075918501610606565b91610082606085016105d7565b9261009b60a0610094608088016105d7565b96016105d7565b835190936001600160401b0382116104b75760035490600182811c921680156105aa575b60208310146104995781601f84931161053c575b50602090601f83116001146104d6575f926104cb575b50508160011b915f199060031b1c1916176003555b8051906001600160401b0382116104b75760045490600182811c921680156104ad575b60208310146104995781601f84931161042b575b50602090601f83116001146103c5575f926103ba575b50508160011b915f199060031b1c1916176004555b61016981610755565b90156103b2575b60a052608081905260016006556001600160a01b0381169182156103a3576001600160a01b038416156103a3576001600160a01b03169182156103a3576001600160a01b0385169182610242575b670de0b6b3a7640000600d55600980546001600160a01b031916851790556101ef856101e98161064c565b506106c2565b50604051614bfc9081610851823960805181818161098c01528181610cb4015281816110c5015281816121990152818161299201528181613a6801528181613f8001526147ac015260a051816122220152f35b6040516338d52e0f60e01b8152602081600481875afa80156103985783915f91610358575b506001600160a01b031603610349576101ef9560075490610100600160a81b039060081b1690610100600160a81b031916176007556040519160205f81850163095ea7b360e01b815286602487015281196044870152604486526102cc6064876105b4565b85519082865af1903d5f51908361032a575b5050506101be5761031d610322936040519063095ea7b360e01b602083015260248201525f6044820152604481526103176064826105b4565b826107f8565b6107f8565b5f80806101be565b9192509061033f57503b15155b5f80806102de565b6001915014610337565b630ebbc86b60e31b5f5260045ffd5b9150506020813d602011610390575b81610374602093836105b4565b8101031261038c5761038683916105d7565b5f610267565b5f80fd5b3d9150610367565b6040513d5f823e3d90fd5b639fabe1c160e01b5f5260045ffd5b506012610170565b015190505f8061014b565b60045f9081528281209350601f198516905b81811061041357509084600195949392106103fb575b505050811b01600455610160565b01515f1960f88460031b161c191690555f80806103ed565b929360206001819287860151815501950193016103d7565b60045f529091507f8a35acfbc15ff81a39ae7d344fd709f28e8600b4aa8c65c6b64bfe7fe36bd19b601f840160051c8101916020851061048f575b90601f859493920160051c01905b8181106104815750610135565b5f8155849350600101610474565b9091508190610466565b634e487b7160e01b5f52602260045260245ffd5b91607f1691610121565b634e487b7160e01b5f52604160045260245ffd5b015190505f806100e9565b60035f9081528281209350601f198516905b818110610524575090846001959493921061050c575b505050811b016003556100fe565b01515f1960f88460031b161c191690555f80806104fe565b929360206001819287860151815501950193016104e8565b60035f529091507fc2575a0e9e593c00f959f8c92f12db2869c3395a3b0502d05e2516446f71f85b601f840160051c810191602085106105a0575b90601f859493920160051c01905b81811061059257506100d3565b5f8155849350600101610585565b9091508190610577565b91607f16916100bf565b601f909101601f19168101906001600160401b038211908210176104b757604052565b51906001600160a01b038216820361038c57565b6001600160401b0381116104b757601f01601f191660200190565b81601f8201121561038c5780519061061d826105eb565b9261062b60405194856105b4565b8284526020838301011161038c57815f9260208093018386015e8301015290565b6001600160a01b0381165f9081525f51602061548d5f395f51905f52602052604090205460ff166106bd576001600160a01b03165f8181525f51602061548d5f395f51905f5260205260408120805460ff191660011790553391905f51602061544d5f395f51905f528180a4600190565b505f90565b6001600160a01b0381165f9081525f51602061546d5f395f51905f52602052604090205460ff166106bd576001600160a01b03165f8181525f51602061546d5f395f51905f5260205260408120805460ff191660011790553391907fa49807205ce4d355092ef5a8a18f56e8913cf4a201fbe287825b095693c21775905f51602061544d5f395f51905f529080a4600190565b5f8091604051602081019063313ce56760e01b8252600481526107796024826105b4565b51916001600160a01b03165afa3d156107f0573d90610797826105eb565b916107a560405193846105b4565b82523d5f602084013e5b806107e4575b6107c1575b505f905f90565b60208180518101031261038c576020015160ff81116107ba579060ff6001921690565b506020815110156107b5565b6060906107af565b905f602091828151910182855af115610398575f513d61084757506001600160a01b0381163b155b6108275750565b635274afe760e01b5f9081526001600160a01b0391909116600452602490fd5b6001141561082056fe6080806040526004361015610012575f80fd5b5f905f3560e01c908163017c3e60146127165750806301e1d1141461250757806301ffc9a7146126c057806306fdde03146125cc57806307a2d13a14611e00578063095ea7b31461252457806309f14f6d146125075780630a28a477146124e9578063105804b11461246057806311104786146123db578063118394511461235c57806318160ddd1461233f57806323b872dd14612329578063248a9ca3146122fe57806327205380146122a75780632f2ff15d14612269578063313ce5671461220e57806336568abe146121c857806338d52e0f146121845780633c73ecfd1461214c5780633f4ba83a146120e6578063402d267d14610e2957806344061d901461205c5780634507ff6b14612024578063476f484014611e235780634b2373f514611e055780634cdad50614611e0057806352577d8f14611dc757806354d703bd14611da45780635780b96314611d665780635c975abb14611d4357806365e76bd7146119a25780636aebd97314611d195780636cc8427d14611ccf5780636e553f6514611c775780636fd298f414611be657806370a0823114610aec578063755dc28314611bad57806375b238fc14611b725780638456cb5914611b1757806384f1bc6214611a045780638c7cc5e3146119db5780638ec4ceff146119a257806391d148541461195857806394bf804d1461190357806395d89b41146117fe57806396a86a0c146117c35780639e3b77af14611796578063a071036f1461166e578063a217fddf14611652578063a29be14a146115bd578063a40589f814611599578063a9059cbb14611579578063aa553b6114611534578063aeb7be9c1461148b578063af44c255146113f2578063b3d7f6b91461146c578063b460af941461141c578063b777451c146113f2578063b839eaf814610fd5578063b94305aa14610f93578063ba08765214610f45578063bf36daf514610e99578063c5a2239514610e2e578063c63d75b614610e29578063c6e6f5921461075f578063c869d0ed14610c11578063ce96cb7714610bd8578063d4d59edb14610b75578063d547741f14610b2d578063d905777e14610aec578063da721076146108d7578063dd62ed3e14610884578063e2d2bfe31461085b578063e5890f2014610764578063ef8b30f71461075f578063f30bd63f1461045f5763fbc0d70614610378575f80fd5b3461045c578060031936011261045c57600e54600954829182916001600160a01b03165b8183106103b25760208461ffff60405191168152f35b9091926103be84613c41565b905460405163e40de88760e01b815260039290921b1c6001600160a01b031660048201528581602481865afa80156104515760a061ffff92918392899161042f575b5001511691160161ffff811161041b5792600101919061039c565b634e487b7160e01b85526011600452602485fd5b61044b91503d808b833e61044381836128da565b810190612cce565b5f610400565b6040513d88823e3d90fd5b80fd5b503461045c57602036600319011261045c5760043561047c613e1b565b610484613e00565b61048c613cfb565b6008546001600160a01b031690811561070b5780156106ab576104ad613280565b81116106405760405163a29a839f60e01b815291602083600481845afa9283156106355784936105fd575b50821561059e578084913b1561059a57604051633c172a4560e21b8152306004820152602481018490529082908290604490829084905af1801561058f57610576575b507f0e5c870408c6d8d0c00d7196a26cb06543f82789b6957194b02bdff50684d8b79183602092526011825260408520610556828254612948565b905561056481600c54612948565b600c55604051908152a2600160065580f35b81610580916128da565b61058b57825f61051b565b8280fd5b6040513d84823e3d90fd5b5080fd5b60405162461bcd60e51b815260206004820152603160248201527f436f6c6c656374696f6e735661756c743a204e6f206163746976652065706f63604482015270341034b71022b837b1b426b0b730b3b2b960791b6064820152608490fd5b9092506020813d60201161062d575b81610619602093836128da565b810103126106295751915f6104d8565b5f80fd5b3d915061060c565b6040513d86823e3d90fd5b60405162461bcd60e51b815260206004820152603b60248201527f436f6c6c656374696f6e735661756c743a20416c6c6f636174696f6e20616d6f60448201527f756e74206578636565647320617661696c61626c65207969656c6400000000006064820152608490fd5b60405162461bcd60e51b815260206004820152603260248201527f436f6c6c656374696f6e735661756c743a20416c6c6f636174696f6e20616d6f604482015271756e742063616e6e6f74206265207a65726f60701b6064820152608490fd5b60405162461bcd60e51b815260206004820152602660248201527f436f6c6c656374696f6e735661756c743a2045706f63684d616e61676572206e6044820152651bdd081cd95d60d21b6064820152608490fd5b6128bc565b503461045c578060031936011261045c5761077d613cfb565b610785613e00565b61078d613e1b565b610795613e3b565b60405180816020600e549283815201600e85527fbb7b4a454dc3493923482f07822329ed19e8244eff582cc204f8554c3620c3fd92855b8181106108395750506107e1925003826128da565b8051825b8181106107f55783600160065580f35b825181101561082557600581901b8301602001516001919061081f906001600160a01b03166145be565b016107e5565b634e487b7160e01b84526032600452602484fd5b84546001600160a01b03168352600194850194869450602090930192016107cc565b503461045c578060031936011261045c576008546040516001600160a01b039091168152602090f35b503461045c57604036600319011261045c5760406108a0612778565b916108a961278e565b9260018060a01b031681526001602052209060018060a01b03165f52602052602060405f2054604051908152f35b503461045c576108e63661286e565b6108f293919293613e1b565b6108fa613e00565b6001600160a01b038116808652601060209081526040808820335f908152925290205490919060ff1615610ad45761093990610934613e3b565b6145be565b808552600a60205260408520948554808411610abb57836109fa9161095d82613caa565b9761096783613f65565b6001600160a01b03881697610985908a90338b9003610aab57614985565b6109b983827f00000000000000000000000000000000000000000000000000000000000000006001600160a01b03166149f6565b60018060a01b031696876040518481528a60208201527ffbde797d201c681b91056529119e0b02407c7bb96a4a2c75c01fc9667232c8db60403392a4612955565b8655610a0883600b54612955565b600b5560018601908154908682108015610a9e575b610a8f575095600291610a3287602099612955565b905501610a40858254612955565b90556040805192835260208301859052820184905233917f7d04be3758d1ab0d8d44adf00e750a53c23ceec5e52516e2f8a99402b06ea4f79080606081015b0390a46001600655604051908152f35b63cf26439b60e01b8152600490fd5b5086600289015410610a1d565b610ab68233836148e3565b614985565b8360649363ae86887160e01b8452600452602452604452fd5b63533d2ab560e01b8652600482905233602452604486fd5b503461045c57602036600319011261045c576020610b25610b0b612778565b6001600160a01b03165f9081526020819052604090205490565b604051908152f35b503461045c57604036600319011261045c57610b71600435610b4d61278e565b90610b6c610b67825f526005602052600160405f20015490565b613dc6565b614442565b5080f35b503461045c57602036600319011261045c57610b8f612778565b610b97613cfb565b610b9f613e00565b6001600160a01b03168015610bc9576bffffffffffffffffffffffff60a01b600854161760085580f35b639fabe1c160e01b8252600482fd5b503461045c57602036600319011261045c57602090610b25906040906001600160a01b03610c04612778565b1681528084522054613c82565b503461045c57602036600319011261045c57610c2b612778565b610c33613cfb565b610c3b613e00565b6001600160a01b0381168015610e1a5760078054610100600160a81b03198116600894851b610100600160a81b031617918290556040516338d52e0f60e01b815290841c6001600160a01b03908116949192602092849260049284921c165afa908115610635578491610dd4575b506001600160a01b037f000000000000000000000000000000000000000000000000000000000000000081169116819003610dc55782610db6575b60405160208581830163095ea7b360e01b81528560248501525f19604485015260448452610d136064856128da565b83519082865af185513d82610d9a575b505015610d56575b505033917fed72d72871e2bd0cdb042dca939ba7543ae2b81b0cc3cd751a82265665aadccb8480a480f35b610d9391610d8e60405163095ea7b360e01b602082015285602482015287604482015260448152610d886064826128da565b82614a90565b614a90565b5f80610d2b565b909150610dae5750813b15155b5f80610d23565b600114610da7565b610dc083826141ab565b610ce4565b630ebbc86b60e31b8452600484fd5b90506020813d602011610e12575b81610def602093836128da565b81010312610e0e57516001600160a01b0381168103610e0e575f610ca9565b8380fd5b3d9150610de2565b639fabe1c160e01b8352600483fd5b61280f565b503461045c57602036600319011261045c576040906001600160a01b03610e53612778565b168152600a602052208054610e956001830154926003600282015491015490604051948594859094939260609260808301968352602083015260408201520152565b0390f35b503461045c57604036600319011261045c57610eb3612778565b610ebb61278e565b90610ec4613cfb565b6001600160a01b03169081158015610f34575b610e1a578183526010602090815260408085206001600160a01b03939093165f81815293909252909120805460ff19166001179055907f4d08c49e970b3c449f76e8946bc63451871e4f633bf41d9022f692119433ec5a8380a380f35b506001600160a01b03811615610ed7565b503461045c57610f5436612834565b50506040516378c721c760e11b81526020600482015260136024820152723932b232b2b6a337b921b7b63632b1ba34b7b760691b604482015260649150fd5b503461045c57602036600319011261045c57610fad612778565b610fb5613cfb565b610fbd613e00565b6001600160a01b03811615610bc957610b7190614316565b503461045c57610fe43661286e565b610ff2949394929192613e1b565b610ffa613e00565b6001600160a01b038116808552601060209081526040808720335f908152925290205490919060ff16156113da5761103d90611034613e3b565b610934816144c6565b808452600a602052604084208054946002549561105988613c82565b94851561137c575b61106a86613f65565b6001600160a01b03871696611088908a90338a9003610aab57614985565b82875f516020614ba75f395f51905f5260206040518d8152a38597891480611373575b61125a575b6040516370a0823160e01b81523060048201527f00000000000000000000000000000000000000000000000000000000000000006001600160a01b031690602081602481855afa90811561124f57908a91869161121a575b501061120b578882611119926149f6565b60018060a01b031695866040518981528a60208201527ffbde797d201c681b91056529119e0b02407c7bb96a4a2c75c01fc9667232c8db60403392a4848181116111fe5761116691612955565b8255611175845b600b54612955565b600b55600182019081549088821080156111f1575b610a8f57509660027f7d04be3758d1ab0d8d44adf00e750a53c23ceec5e52516e2f8a99402b06ea4f793610a7f936111c48460209c612955565b9055016111d2828254612955565b9055604080519586526020860182905285015233939081906060820190565b508860028501541061118a565b506111759082845561116d565b63724da00760e01b8452600484fd5b9150506020813d602011611247575b81611236602093836128da565b81010312610629578990515f611108565b3d9150611229565b6040513d87823e3d90fd5b6007546040516278744560e21b815260089190911c6001600160a01b031690602081600481855afa90811561124f578591611341575b50600c548082116112a4575b5050506110b0565b6112ad91612955565b90816112ba575b8061129c565b849192995060209060246040518094819363684a169760e11b83528760048401525af1908115610635578491611312575b5015611303576112fb9086612948565b965f806112b4565b638b78daf760e01b8352600483fd5b611334915060203d60201161133a575b61132c81836128da565b810190613c29565b5f6112eb565b503d611322565b90506020813d60201161136b575b8161135c602093836128da565b8101031261062957515f611290565b3d915061134f565b508815156110ab565b88156110615760405162461bcd60e51b815260206004820152602a60248201527f455243343632363a2072656465656d20726f756e647320646f776e20746f207a60448201526965726f2061737365747360b01b6064820152608490fd5b63533d2ab560e01b8552600482905233602452604485fd5b503461045c57602036600319011261045c5760406020916004358152601183522054604051908152f35b503461045c5761142b36612834565b50506040516378c721c760e11b81526020600482015260156024820152743bb4ba34323930bba337b921b7b63632b1ba34b7b760591b604482015260649150fd5b503461045c57602036600319011261045c576020610b25600435613c59565b503461045c57604036600319011261045c576114a5612778565b6114ad61278e565b906114b6613cfb565b6001600160a01b03169081158015611523575b610e1a578183526010602090815260408085206001600160a01b03939093165f81815293909252909120805460ff19169055907f5739350cbdeb4e6227ceabe630c17d3f7e8353ae6ad8140031764fcd14e64c2c8380a380f35b506001600160a01b038116156114c9565b503461045c57604036600319011261045c5761157161155161278e565b611559613d6a565b611561613e00565b611569613e1b565b600435613a43565b600160065580f35b503461045c57604036600319011261045c57611593612778565b50612c7c565b503461045c57602036600319011261045c576020610b256115b8612778565b613895565b503461045c57606036600319011261045c576115d7612778565b604435916001600160a01b03831680840361059a576115f4613e1b565b6115fc613e00565b808252601060209081526040808420335f908152925290205460ff161561163b57602061162c85602435866136a6565b60016006556040519015158152f35b63533d2ab560e01b82526004523360245260449150fd5b503461045c578060031936011261045c57602090604051908152f35b503461045c5761167d366127d5565b611685613e1b565b61168d613e00565b6001600160a01b038316808552601060209081526040808720335f908152925290205490939060ff161561177e576020946116cc604092611034613e3b565b848152600a8652209260026116e083613cd3565b946116ed86858733614766565b6116f684614865565b611701848254612948565b815561170f84600b54612948565b600b5560018101611721878254612948565b90550161172f858254612948565b9055604080519283526020830185905282018490526001600160a01b039092169133917fe619f47e82caeee4ee7f64588a6c7eca209f646fce7a915293151653db58442e908060608101610a7f565b63533d2ab560e01b8552600484905233602452604485fd5b503461045c578060031936011261045c5760075460405160089190911c6001600160a01b03168152602090f35b503461045c578060031936011261045c5760206040517fbcdd9bf55569a395cd79025821af7c971a1601b69479f021adc1b67f548673f38152f35b503461045c578060031936011261045c576040519080600454908160011c916001811680156118f9575b6020841081146118e5578386529081156118be5750600114611861575b610e9584611855818603826128da565b60405191829182612730565b600481527f8a35acfbc15ff81a39ae7d344fd709f28e8600b4aa8c65c6b64bfe7fe36bd19b939250905b8082106118a45750909150810160200161185582611845565b91926001816020925483858801015201910190929161188b565b60ff191660208087019190915292151560051b850190920192506118559150839050611845565b634e487b7160e01b83526022600452602483fd5b92607f1692611828565b503461045c57604036600319011261045c5761191d61278e565b506040516378c721c760e11b815260206004820152601160248201527036b4b73a2337b921b7b63632b1ba34b7b760791b6044820152606490fd5b503461045c57604036600319011261045c57604061197461278e565b9160043581526005602052209060018060a01b03165f52602052602060ff60405f2054166040519015158152f35b503461045c57602036600319011261045c576020906040906001600160a01b036119ca612778565b168152601383522054604051908152f35b503461045c578060031936011261045c576009546040516001600160a01b039091168152602090f35b503461045c57611a1336612834565b91611a1c613e1b565b611a24613e00565b6001600160a01b038316808552601060209081526040808720335f908152925290205490939060ff161561177e57602094611a63604092611034613e3b565b848152600a865220926002611a7783613c59565b94611a8484878733614766565b611a8d86614865565b611a98868254612948565b8155611aa686600b54612948565b600b5560018101611ab8858254612948565b905501611ac6838254612948565b90556040805185815260208101849052908101929092526001600160a01b039092169133917fe619f47e82caeee4ee7f64588a6c7eca209f646fce7a915293151653db58442e908060608101610a7f565b503461045c578060031936011261045c57611b30613cfb565b611b38613e00565b600160ff1960075416176007557f62e78cea01bee320cd4e420270b5ea74000d11b0c9f74754ebdbfc544b05a2586020604051338152a180f35b503461045c578060031936011261045c5760206040517fa49807205ce4d355092ef5a8a18f56e8913cf4a201fbe287825b095693c217758152f35b503461045c57602036600319011261045c576020906040906001600160a01b03611bd5612778565b168152601583522054604051908152f35b503461045c57604036600319011261045c57611c00612778565b60243590611c0c613cfb565b611c14613e00565b6001600160a01b03168015610e1a57808352601360205260408320611c3a838254612948565b905580835260136020526040832054907f245fd4e7382c2e9761b75bca26eea9c61b763fd2eb3dea0df7fa4a259c1c4f376020604051428152a480f35b503461045c57604036600319011261045c57611c9161278e565b506040516378c721c760e11b81526020600482015260146024820152733232b837b9b4ba2337b921b7b63632b1ba34b7b760611b6044820152606490fd5b503461045c57604036600319011261045c576040611ceb61278e565b9160043581526012602052209060018060a01b03165f52602052602060ff60405f2054166040519015158152f35b503461045c57602036600319011261045c5760043590811515820361045c576020610b25836134b0565b503461045c578060031936011261045c57602060ff600754166040519015158152f35b503461045c57604036600319011261045c57611571611d83612778565b611d8b613e1b565b611d93613e00565b611d9b613cfb565b60243590612e6e565b503461045c578060031936011261045c576020604051670de0b6b3a76400008152f35b503461045c57602036600319011261045c576020906040906001600160a01b03611def612778565b168152601483522054604051908152f35b61275a565b503461045c578060031936011261045c576020600c54604051908152f35b503461062957602036600319011261062957600435611e40613e1b565b611e48613e00565b611e50613cfb565b6008546001600160a01b0316801561070b5760405163a29a839f60e01b8152602081600481855afa908115611f2f575f91611ff2575b508214801590611fea575b611f9b57611e9d613280565b908115611f3a57803b1561062957604051633c172a4560e21b815230600482015260248101839052905f908290604490829084905af18015611f2f57611f19575b5060207f0e5c870408c6d8d0c00d7196a26cb06543f82789b6957194b02bdff50684d8b7918385526011825260408520610556828254612948565b611f269193505f906128da565b5f916020611ede565b6040513d5f823e3d90fd5b60405162461bcd60e51b815260206004820152603360248201527f436f6c6c656374696f6e735661756c743a204e6f207969656c6420617661696c60448201527230b13632903337b91030b63637b1b0ba34b7b760691b6064820152608490fd5b60405162461bcd60e51b815260206004820152602160248201527f436f6c6c656374696f6e735661756c743a20496e76616c69642065706f6368496044820152601960fa1b6064820152608490fd5b508115611e91565b90506020813d60201161201c575b8161200d602093836128da565b8101031261062957515f611e86565b3d9150612000565b34610629576020366003190112610629576001600160a01b03612045612778565b165f526015602052602060405f2054604051908152f35b346106295761206a36612834565b9190612074613e1b565b61207c613e00565b6001600160a01b0383165f81815260106020908152604080832033845290915290205490929060ff16156120cf576120b8602094611034613e3b565b825f52600a845260405f209260026116e083613cd3565b8263533d2ab560e01b5f526004523360245260445ffd5b34610629575f366003190112610629576120fe613cfb565b60075460ff81161561213d5760ff19166007557f5db9ee0a495bf2e6ff9c91a7834c1ba4fdd244a5e8aa4e537bd38aeae4b073aa6020604051338152a1005b638dfc202b60e01b5f5260045ffd5b34610629576020366003190112610629576001600160a01b0361216d612778565b165f526014602052602060405f2054604051908152f35b34610629575f366003190112610629576040517f00000000000000000000000000000000000000000000000000000000000000006001600160a01b03168152602090f35b34610629576040366003190112610629576121e161278e565b336001600160a01b038216036121ff576121fd90600435614442565b005b63334bd91960e11b5f5260045ffd5b34610629575f3660031901126106295760ff7f00000000000000000000000000000000000000000000000000000000000000001660ff811161225557602090604051908152f35b634e487b7160e01b5f52601160045260245ffd5b34610629576040366003190112610629576121fd60043561228861278e565b906122a2610b67825f526005602052600160405f20015490565b6143bc565b34610629576040366003190112610629576122c0612778565b6122c861278e565b9060018060a01b03165f52601060205260405f209060018060a01b03165f52602052602060ff60405f2054166040519015158152f35b34610629576020366003190112610629576020610b256004355f526005602052600160405f20015490565b3461062957612337366127d5565b505050612c7c565b34610629575f366003190112610629576020600254604051908152f35b346106295760603660031901126106295760043567ffffffffffffffff81116106295761238d9036906004016127a4565b906024359167ffffffffffffffff8311610629576123b26123d49336906004016127a4565b916123bb613d6a565b6123c3613e00565b6123cb613e1b565b60443593612962565b6001600655005b34610629576040366003190112610629576123f4612778565b60243590612400613cfb565b612408613e00565b6001600160a01b0316801561245157805f5260156020528160405f20557f86a7ca23d7adc44a96c8e646f861b2519e171e8c36d70c056a20d98c869e83256020604051428152a3005b639fabe1c160e01b5f5260045ffd5b346106295760403660031901126106295760043560243567ffffffffffffffff8111610629576124949036906004016127a4565b919061249e613cfb565b5f5b8381106124a957005b600190835f52601260205260405f206124cb6124c6838887612910565b612934565b838060a01b03165f5260205260405f2060ff198154169055016124a0565b34610629576020366003190112610629576020610b25600435613caa565b34610629575f366003190112610629576020600b54604051908152f35b346106295760403660031901126106295761253d612778565b6024359033156125b9576001600160a01b03169081156125a657335f52600160205260405f20825f526020528060405f20556040519081527f8c5be1e5ebec7d5bd14f71427d1e84f3dd0314c0f7b2291e5b200ac8c7c3b92560203392a3602060405160018152f35b634a1406b160e11b5f525f60045260245ffd5b63e602df0560e01b5f525f60045260245ffd5b34610629575f366003190112610629576040515f6003548060011c906001811680156126b6575b6020831081146126a25782855290811561267e5750600114612620575b610e9583611855818503826128da565b91905060035f527fc2575a0e9e593c00f959f8c92f12db2869c3395a3b0502d05e2516446f71f85b915f905b80821061266457509091508101602001611855612610565b91926001816020925483858801015201910190929161264c565b60ff191660208086019190915291151560051b840190910191506118559050612610565b634e487b7160e01b5f52602260045260245ffd5b91607f16916125f3565b346106295760203660031901126106295760043563ffffffff60e01b811680910361062957602090637965db0b60e01b8114908115612705575b506040519015158152f35b6301ffc9a760e01b149050826126fa565b34610629575f36600319011261062957602090600d548152f35b602060409281835280519182918282860152018484015e5f828201840152601f01601f1916010190565b34610629576020366003190112610629576020610b25600435613c82565b600435906001600160a01b038216820361062957565b602435906001600160a01b038216820361062957565b9181601f840112156106295782359167ffffffffffffffff8311610629576020808501948460051b01011161062957565b6060906003190112610629576004356001600160a01b038116810361062957906024356001600160a01b0381168103610629579060443590565b3461062957602036600319011261062957612828612778565b5060206040515f198152f35b606090600319011261062957600435906024356001600160a01b038116810361062957906044356001600160a01b03811681036106295790565b608090600319011261062957600435906024356001600160a01b038116810361062957906044356001600160a01b038116810361062957906064356001600160a01b03811681036106295790565b34610629576020366003190112610629576020610b25600435613cd3565b90601f8019910116810190811067ffffffffffffffff8211176128fc57604052565b634e487b7160e01b5f52604160045260245ffd5b91908110156129205760051b0190565b634e487b7160e01b5f52603260045260245ffd5b356001600160a01b03811681036106295790565b9190820180921161225557565b9190820391821161225557565b9493919094858403612c26578215612c1e5761297c613e3b565b61298583613f65565b6007546001600160a01b037f00000000000000000000000000000000000000000000000000000000000000008116946129c792909160089190911c1685614257565b5f935f5b818110612af357505060075494955092936129f5935060081c6001600160a01b03169190506141ab565b6008546001600160a01b031680612a58575b50600c548111612a4f57612a1d81600c54612955565b600c555b6040519081527faf55a1278d05b25a81718352502b10bbece77cee463633323b8e92d2d5ad009560203392a2565b5f600c55612a21565b60206004916040519283809263a29a839f60e01b82525afa908115611f2f575f91612ac1575b5080151580612aab575b15612a07575f52601160205260405f20612aa3828254612955565b90555f612a07565b50805f5260116020528160405f20541015612a88565b90506020813d602011612aeb575b81612adc602093836128da565b8101031261062957515f612a7e565b3d9150612acf565b612afe818985612910565b35612b0d6124c6838588612910565b81612b1d575b50506001016129cb565b6007546040516304c11f0360e31b81526001600160a01b039283166004820152602481018490529398929391602091839160449183915f9160081c165af1908115611f2f575f91612bed575b50612b8257600191612b7a91612948565b95905f612b13565b60405162461bcd60e51b815260206004820152603f60248201527f436f6c6c656374696f6e735661756c743a20526570617920626f72726f77206260448201527f6568616c66206661696c656420766961204c656e64696e674d616e61676572006064820152608490fd5b90506020813d8211612c16575b81612c07602093836128da565b8101031261062957515f612b69565b3d9150612bfa565b505050509050565b60405162461bcd60e51b815260206004820152602860248201527f436f6c6c656374696f6e735661756c743a204172726179206c656e67746873206044820152670dad2e6dac2e8c6d60c31b6064820152608490fd5b6040516378c721c760e11b81526020600482015260156024820152743a3930b739b332b92337b921b7b63632b1ba34b7b760591b6044820152606490fd5b51906001600160a01b038216820361062957565b6020818303126106295780519067ffffffffffffffff8211610629570190818103916101208312610629576040519260e0840184811067ffffffffffffffff8211176128fc57604052612d2082612cba565b84526020820151906002821015610629576060916020860152603f190112610629576040516060810181811067ffffffffffffffff8211176128fc57604052604082015160028110156106295781526060820151602082015260808201516040820152604084015260a0810151606084015260c0810151608084015260e081015161ffff811681036106295760a08401526101008101519067ffffffffffffffff821161062957019080601f830112156106295781519167ffffffffffffffff83116128fc578260051b9060405193612dfc60208401866128da565b845260208085019282010192831161062957602001905b828210612e255750505060c082015290565b60208091612e3284612cba565b815201910190612e13565b8181029291811591840414171561225557565b8115612e5a570490565b634e487b7160e01b5f52601260045260245ffd5b6008549091906001600160a01b03161561070b576001600160a01b03821691821561245157825f52600f60205260ff60405f2054161561322757815f52601260205260405f20835f5260205260ff60405f2054166131ae57815f52601160205260405f20549081156130ed57612ee690610934613e3b565b825f52600a60205260405f209060245f60018060a01b03600954166040519283809263e40de88760e01b82528960048301525afa8015611f2f5760a0915f916130d3575b50019061ffff8251161561307657612f4b6127109161ffff84511690612e3d565b0491835f52601160205260405f20548311613022578261ffff6060937f22b754fbff211f5e23ae31958825e104905fb1b8de65180b45d0b93342a8c3d195612fc7575b865f52601260205260405f20885f5260205260405f20600160ff19825416179055511691549060405192835260208301526040820152a3565b612fd2838554612948565b8455612fe083600b54612948565b600b55865f52601160205260405f20612ffa848254612955565b9055600c5483116130195761301183600c54612955565b600c55612f8e565b5f600c55612f8e565b60405162461bcd60e51b815260206004820152602660248201527f436f6c6c656374696f6e735661756c743a20416c6c6f636174696f6e20756e646044820152656572666c6f7760d01b6064820152608490fd5b505060607f22b754fbff211f5e23ae31958825e104905fb1b8de65180b45d0b93342a8c3d191835f52601260205260405f20855f5260205260405f20600160ff1982541617905554604051905f82525f60208301526040820152a3565b6130e791503d805f833e61044381836128da565b5f612f2a565b5050805f52601260205260405f20825f5260205260405f20600160ff1982541617905560245f60018060a01b03600954166040519283809263e40de88760e01b82528760048301525afa908115611f2f5761ffff60a07f22b754fbff211f5e23ae31958825e104905fb1b8de65180b45d0b93342a8c3d1936060935f91613194575b50015116845f52600a60205260405f20546040519182525f60208301526040820152a3565b6131a891503d805f833e61044381836128da565b5f61316f565b60405162461bcd60e51b815260206004820152604560248201527f436f6c6c656374696f6e735661756c743a205969656c6420616c72656164792060448201527f6170706c69656420666f72207468697320636f6c6c656374696f6e20616e64206064820152640cae0dec6d60db1b608482015260a490fd5b60405162461bcd60e51b815260206004820152602b60248201527f436f6c6c656374696f6e735661756c743a20436f6c6c656374696f6e206e6f7460448201526a081c9959da5cdd195c995960aa1b6064820152608490fd5b60075460081c6001600160a01b031680156134ab576040516278744560e21b8152602081600481855afa908115611f2f575f91613479575b5060405163100e176560e31b815290602082600481865afa918215611f2f575f92613445575b50111561343e576040516278744560e21b815290602082600481845afa918215611f2f575f92613409575b509060206004926040519384809263100e176560e31b82525afa908115611f2f575f916133d3575b61333b9250612955565b6008546001600160a01b0316801561339b5760206004916040519283809263a29a839f60e01b82525afa908115611f2f575f916133a1575b50801561339b575f52601160205260405f20548082115f1461339b5761339891612955565b90565b50505f90565b90506020813d6020116133cb575b816133bc602093836128da565b8101031261062957515f613373565b3d91506133af565b90506020823d602011613401575b816133ee602093836128da565b810103126106295761333b915190613331565b3d91506133e1565b91506020823d602011613436575b81613424602093836128da565b81010312610629579051906020613309565b3d9150613417565b505f61333b565b9091506020813d602011613471575b81613461602093836128da565b810103126106295751905f6132de565b3d9150613454565b90506020813d6020116134a3575b81613494602093836128da565b8101031261062957515f6132b8565b3d9150613487565b505f90565b60075460081c6001600160a01b0316801561339b576040516278744560e21b8152602081600481855afa908115611f2f575f91613674575b5060405163100e176560e31b815290602082600481865afa918215611f2f575f92613640575b501115613638576040516278744560e21b815290602082600481845afa918215611f2f575f92613603575b509060206004926040519384809263100e176560e31b82525afa908115611f2f575f916135cd575b61356b9250612955565b905b613398576008546001600160a01b0316801561339b5760206004916040519283809263a29a839f60e01b82525afa908115611f2f575f916133a15750801561339b575f52601160205260405f20548082115f1461339b5761339891612955565b90506020823d6020116135fb575b816135e8602093836128da565b810103126106295761356b915190613561565b3d91506135db565b91506020823d602011613630575b8161361e602093836128da565b81010312610629579051906020613539565b3d9150613611565b505f9061356d565b9091506020813d60201161366c575b8161365c602093836128da565b810103126106295751905f61350e565b3d915061364f565b90506020813d60201161369e575b8161368f602093836128da565b8101031261062957515f6134e8565b3d9150613682565b6001600160a01b031691821561245157811561388d576136c4613e3b565b6136cd816145be565b60018060a01b03811690815f52600a60205260405f2090825f52600f60205260ff60405f2054161561387a5761370290613895565b808411613860575080548084116138605750331561384d57335f525f60205260405f2054838110613832578390335f525f6020520360405f205583155f1461381c5782600254036002555b836040518481525f516020614ba75f395f51905f5260203392a3836040518481525f516020614ba75f395f51905f5260203392a361378c838254612955565b815561379a83600b54612955565b600b556001810190815491848310801561380f575b613800576137bf85600294612955565b9055016137cd838254612955565b90556040519182527f993b66b6962861213ca84e497f99b1a7f93b83156c08dd5bfadd73608596017360203393a4600190565b63cf26439b60e01b5f5260045ffd5b50846002830154106137af565b835f525f60205260405f2083815401905561374d565b839063391434e360e21b5f523360045260245260445260645ffd5b634b637e8f60e11b5f525f60045260245ffd5b838363ae86887160e01b5f5260045260245260445260645ffd5b826358ab08b160e11b5f5260045260245ffd5b505050600190565b6001600160a01b03165f818152600f602052604090205460ff16156139db575b805f52600a60205260405f209060405191608083019083821067ffffffffffffffff8311176128fc576003916040528054845260018101546020850152600281015460408501520154606083019081525f60018060a01b03600954169260246040518095819363e40de88760e01b835260048301525afa918215611f2f575f926139bf575b5081516001600160a01b03161580156139af575b80156139a2575b61399c57613994613398939261ffff60a061398a61398369021e19e0c9bab240000096600d54905190612955565b8751612e3d565b9201511690612e3d565b049051612948565b50505190565b50600d5481511015613955565b5061ffff60a0830151161561394e565b6139d49192503d805f833e61044381836128da565b905f61393a565b60095460405163e40de88760e01b815260048101839052905f90829060249082906001600160a01b03165afa908115611f2f575f91613a29575b50516001600160a01b03166138b557505f90565b613a3d91503d805f833e61044381836128da565b5f613a15565b908115613c2557613a52613e3b565b613a5b82613f65565b6007546001600160a01b037f0000000000000000000000000000000000000000000000000000000000000000811692613ae492602092869291613aa491849160081c1687614257565b6007546040516304c11f0360e31b81526001600160a01b03928316600482015260248101939093529193849260081c9091169082905f9082906044820190565b03925af1908115611f2f575f91613bf3575b50612b82576008546001600160a01b03169182613b4d575b600c54613b4193508111613b4357613b2890600c54612955565b600c555b60075460081c6001600160a01b0316906141ab565b565b505f600c55613b2c565b60206004936040519485809263a29a839f60e01b82525afa8015611f2f575f90613bbf575b613b41935080151580613ba9575b613b8b575b50613b0e565b5f52601160205260405f20613ba1828254612955565b90555f613b85565b50805f5260116020528160405f20541015613b80565b506020833d602011613beb575b81613bd9602093836128da565b8101031261062957613b419251613b72565b3d9150613bcc565b90506020813d602011613c1d575b81613c0e602093836128da565b8101031261062957515f613af6565b3d9150613c01565b5050565b90816020910312610629575180151581036106295790565b600e5481101561292057600e5f5260205f2001905f90565b600b54906001820180921161225557600254600181018091116122555761339892600192614a32565b600b549060018201809211612255576002546001810180911161225557613398925f92614a32565b600254906001820180921161225557600b54600181018091116122555761339892600192614a32565b600254906001820180921161225557600b546001810180911161225557613398925f92614a32565b335f9081527fd8ef4509105c3edb0b04658b4528edc5ddd30ea5a81e623a2623c88db1eb54b6602052604090205460ff1615613d3357565b63e2517d3f60e01b5f52336004527fa49807205ce4d355092ef5a8a18f56e8913cf4a201fbe287825b095693c2177560245260445ffd5b335f9081525f516020614b875f395f51905f52602052604090205460ff1615613d8f57565b63e2517d3f60e01b5f52336004527fbcdd9bf55569a395cd79025821af7c971a1601b69479f021adc1b67f548673f360245260445ffd5b5f81815260056020908152604080832033845290915290205460ff1615613dea5750565b63e2517d3f60e01b5f523360045260245260445ffd5b60ff60075416613e0c57565b63d93c066560e01b5f5260045ffd5b600260065414613e2c576002600655565b633ee5aeb560e01b5f5260045ffd5b60075460081c6001600160a01b03168015613f625760405163100e176560e31b815290602082600481845afa918215611f2f575f92613f2e575b508115613c25576020600491604051928380926278744560e21b82525afa908115611f2f575f91613efc575b50600c5480821115613ef357613eb691612955565b905b670de0b6b3a7640000820291808304670de0b6b3a7640000149015171561225557613ee291612e50565b600d548111613eee5750565b600d55565b50505f90613eb8565b90506020813d602011613f26575b81613f17602093836128da565b8101031261062957515f613ea1565b3d9150613f0a565b9091506020813d602011613f5a575b81613f4a602093836128da565b810103126106295751905f613e75565b3d9150613f3d565b50565b8015613f62576040516370a0823160e01b81523060048201527f00000000000000000000000000000000000000000000000000000000000000006001600160a01b031690602081602481855afa908115611f2f575f91614179575b50828110613fcd57505050565b613fd79083612955565b6007546040516278744560e21b815260089190911c6001600160a01b03169190602081600481865afa908115611f2f575f91614147575b50600c54335f9081525f516020614b875f395f51905f52602052604090205460ff161561412957505b811115614045575b50505050565b801561403f575f916024602092604051948593849263684a169760e11b845260048401525af1908115611f2f575f9161410a575b50156140fb576020602491604051928380926370a0823160e01b82523060048301525afa908115611f2f575f916140c9575b50106140ba575f80808061403f565b63724da00760e01b5f5260045ffd5b90506020813d6020116140f3575b816140e4602093836128da565b8101031261062957515f6140ab565b3d91506140d7565b638b78daf760e01b5f5260045ffd5b614123915060203d60201161133a5761132c81836128da565b5f614079565b8082111561413f5761413a91612955565b614037565b50505f614037565b90506020813d602011614171575b81614162602093836128da565b8101031261062957515f61400e565b3d9150614155565b90506020813d6020116141a3575b81614194602093836128da565b8101031261062957515f613fc0565b3d9150614187565b6040519060205f8184019463095ea7b360e01b865260018060a01b031694856024860152816044860152604485526141e46064866128da565b84519082855af15f513d82614232575b50501561420057505050565b610d8e613b41936040519063095ea7b360e01b602083015260248201525f604482015260448152610d886064826128da565b90915061424f57506001600160a01b0381163b15155b5f806141f4565b600114614248565b60405163095ea7b360e01b60208083019182526001600160a01b0385166024840152604480840196909652948252929390925f906142966064866128da565b84519082855af15f513d826142f1575b5050156142b257505050565b60405163095ea7b360e01b60208201526001600160a01b0390931660248401525f6044808501919091528352613b4192610d8e90610d886064826128da565b90915061430e57506001600160a01b0381163b15155b5f806142a6565b600114614307565b6001600160a01b0381165f9081525f516020614b875f395f51905f52602052604090205460ff166134ab576001600160a01b03165f8181525f516020614b875f395f51905f5260205260408120805460ff191660011790553391907fbcdd9bf55569a395cd79025821af7c971a1601b69479f021adc1b67f548673f3907f2f8788117e7eff1d82e926ec794901d17c78024a50270940304540a733656f0d9080a4600190565b5f8181526005602090815260408083206001600160a01b038616845290915290205460ff1661339b575f8181526005602090815260408083206001600160a01b0395909516808452949091528120805460ff19166001179055339291907f2f8788117e7eff1d82e926ec794901d17c78024a50270940304540a733656f0d9080a4600190565b5f8181526005602090815260408083206001600160a01b038616845290915290205460ff161561339b575f8181526005602090815260408083206001600160a01b0395909516808452949091528120805460ff19169055339291907ff6391f5c32d9c69d2a47ea670b442974b53935d1edc7fd64eb21e047a839171b9080a4600190565b60095460405163c3c5a54760e01b81526001600160a01b039283166004820181905292909160209183916024918391165afa908115611f2f575f9161459f575b501561458d57805f52600f60205260ff60405f205416156145245750565b805f52600f60205260405f20600160ff19825416179055600e54680100000000000000008110156128fc5780600161455f9201600e55613c41565b81549060031b9083821b9160018060a01b03901b1916179055600d54905f52600a602052600360405f200155565b6358ab08b160e11b5f5260045260245ffd5b6145b8915060203d60201161133a5761132c81836128da565b5f614506565b6001600160a01b03165f818152600f602052604090205460ff1615613f625760095460405163e40de88760e01b81526004810183905291905f90839060249082906001600160a01b03165afa918215611f2f575f9261474a575b50805f52600a60205260a060405f2092019161ffff8351161561473d576003810192835491600d54838111614654575b5050505050600d549055565b61468561466c8569021e19e0c9bab240000093612955565b9361ffff61467c85549687612e3d565b91511690612e3d565b04918215614648577fe7d7ea8aa11ec2e18d67e00de2b5dce7b65f8a032d8496015263d4217582e7c3936146bc8461473093612948565b83556146ca84600b54612948565b600b55855f52601460205260405f206146e4858254612948565b90556040519384934282897f904236e80a12ebc2f7c3aa8cc54fb6f25716334791ce053291edf5230b5b5b0e5f80a454600d549185526020850152604084015260608301526080820190565b0390a25f80808080614648565b9150506003600d54910155565b61475f9192503d805f833e61044381836128da565b905f614618565b6040516323b872dd60e01b60208201526001600160a01b0390911660248201819052306044830152606480830185905282529291906147d9906147aa6084826128da565b7f00000000000000000000000000000000000000000000000000000000000000006001600160a01b0316614a90565b6001600160a01b0316928315614852577fdcbc1c05240f31ff3ad067ef1ee35ce4997762752e3a095284754544f4c709d7918161481a604093600254612948565b600255855f525f602052825f20818154019055855f5f516020614ba75f395f51905f5260208651858152a382519182526020820152a3565b63ec442f0560e01b5f525f60045260245ffd5b8061486d5750565b60075460405163690c42c160e11b81526004810192909252602090829060249082905f9060081c6001600160a01b03165af1908115611f2f575f916148c4575b50156148b557565b63d8449a5960e01b5f5260045ffd5b6148dd915060203d60201161133a5761132c81836128da565b5f6148ad565b6001600160a01b039081165f818152600160209081526040808320948616835293905291909120549291905f19841061491c5750505050565b8284106149625780156125b9576001600160a01b038216156125a6575f52600160205260405f209060018060a01b03165f5260205260405f20910390555f80808061403f565b508290637dc7a0d960e11b5f5260018060a01b031660045260245260445260645ffd5b9091906001600160a01b0316801561384d57805f525f60205260405f20548381106149dc576020845f94955f516020614ba75f395f51905f52938587528684520360408620558060025403600255604051908152a3565b915063391434e360e21b5f5260045260245260445260645ffd5b60405163a9059cbb60e01b60208201526001600160a01b03929092166024830152604480830193909352918152613b4191610d8e6064836128da565b9291614a3f818386614ae8565b926004811015614a7c576001809116149182614a65575b50506133989250151590612948565b9080925015612e5a57613398930915155f80614a56565b634e487b7160e01b5f52602160045260245ffd5b905f602091828151910182855af115611f2f575f513d614adf57506001600160a01b0381163b155b614abf5750565b635274afe760e01b5f9081526001600160a01b0391909116600452602490fd5b60011415614ab8565b90915f198383099280830292838086109503948086039514614b795784831115614b615790829109815f0382168092046002816003021880820260020302808202600203028082026002030280820260020302808202600203028091026002030293600183805f03040190848311900302920304170290565b82634e487b715f52156003026011186020526024601cfd5b5050906133989250612e5056fea01c6dab41afbaf71f77b0ec32e349ced011741063524fbddf6b7ae0dcdc3889ddf252ad1be2c89b69c2b068fc378daa952ba7f163c4a11628f55a4df523b3efa2646970667358221220123e434e8ace2a16102ece29f5aca30276fd3412c0d0af4e6bcc54dea9ece97e64736f6c634300081e00332f8788117e7eff1d82e926ec794901d17c78024a50270940304540a733656f0dd8ef4509105c3edb0b04658b4528edc5ddd30ea5a81e623a2623c88db1eb54b605b8ccbb9d4d8fb16ea74ce3c29a41f1b461fbdaff4714a0d9a8eb05499746bc","linkReferences":{}},"methodIdentifiers":{"ADMIN_ROLE()":"75b238fc","DEBT_SUBSIDIZER_ROLE()":"96a86a0c","DEFAULT_ADMIN_ROLE()":"a217fddf","GLOBAL_DEPOSIT_INDEX_PRECISION()":"54d703bd","allocateEpochYield(uint256)":"f30bd63f","allocateYieldToEpoch(uint256)":"476f4840","allowance(address,address)":"dd62ed3e","applyCollectionYieldForEpoch(address,uint256)":"5780b963","approve(address,uint256)":"095ea7b3","asset()":"38d52e0f","balanceOf(address)":"70a08231","collectionPerformanceScore(address)":"755dc283","collectionRegistry()":"8c7cc5e3","collectionTotalAssetsDeposited(address)":"a40589f8","collectionTotalBorrowVolume(address)":"65e76bd7","collectionTotalYieldGenerated(address)":"52577d8f","collectionVaultsData(address)":"c5a22395","convertToAssets(uint256)":"07a2d13a","convertToShares(uint256)":"c6e6f592","decimals()":"313ce567","deposit(uint256,address)":"6e553f65","depositForCollection(uint256,address,address)":"44061d90","epochCollectionYieldApplied(uint256,address)":"6cc8427d","epochManager()":"e2d2bfe3","epochYieldAllocations(uint256)":"af44c255","getCollectionPerformanceScore(address)":"4507ff6b","getCollectionTotalBorrowVolume(address)":"8ec4ceff","getCollectionTotalYieldGenerated(address)":"3c73ecfd","getCurrentEpochYield(bool)":"6aebd973","getEpochYieldAllocated(uint256)":"b777451c","getRoleAdmin(bytes32)":"248a9ca3","globalDepositIndex()":"017c3e60","grantCollectionAccess(address,address)":"bf36daf5","grantRole(bytes32,address)":"2f2ff15d","hasRole(bytes32,address)":"91d14854","indexCollectionsDeposits()":"e5890f20","isCollectionOperator(address,address)":"27205380","lendingManager()":"9e3b77af","maxDeposit(address)":"402d267d","maxMint(address)":"c63d75b6","maxRedeem(address)":"d905777e","maxWithdraw(address)":"ce96cb77","mint(uint256,address)":"94bf804d","mintForCollection(uint256,address,address)":"84f1bc62","name()":"06fdde03","pause()":"8456cb59","paused()":"5c975abb","previewDeposit(uint256)":"ef8b30f7","previewMint(uint256)":"b3d7f6b9","previewRedeem(uint256)":"4cdad506","previewWithdraw(uint256)":"0a28a477","recordCollectionBorrowVolume(address,uint256)":"6fd298f4","redeem(uint256,address,address)":"ba087652","redeemForCollection(uint256,address,address,address)":"b839eaf8","renounceRole(bytes32,address)":"36568abe","repayBorrowBehalf(uint256,address)":"aa553b61","repayBorrowBehalfBatch(uint256[],address[],uint256)":"11839451","resetEpochCollectionYieldFlags(uint256,address[])":"105804b1","revokeCollectionAccess(address,address)":"aeb7be9c","revokeRole(bytes32,address)":"d547741f","setDebtSubsidizer(address)":"b94305aa","setEpochManager(address)":"d4d59edb","setLendingManager(address)":"c869d0ed","supportsInterface(bytes4)":"01ffc9a7","symbol()":"95d89b41","totalAssets()":"01e1d114","totalAssetsDepositedAllCollections()":"09f14f6d","totalCollectionYieldShareBps()":"fbc0d706","totalSupply()":"18160ddd","totalYieldReserved()":"4b2373f5","transfer(address,uint256)":"a9059cbb","transferForCollection(address,address,uint256)":"a071036f","transferForCollection(address,uint256,address)":"a29be14a","transferFrom(address,address,uint256)":"23b872dd","unpause()":"3f4ba83a","updateCollectionPerformanceScore(address,uint256)":"11104786","withdraw(uint256,address,address)":"b460af94","withdrawForCollection(uint256,address,address,address)":"da721076"},"id":83}