{"abi":[{"type":"constructor","inputs":[{"name":"admin","type":"address","internalType":"address"}],"stateMutability":"nonpayable"},{"type":"function","name":"DEFAULT_ADMIN_ROLE","inputs":[],"outputs":[{"name":"","type":"bytes32","internalType":"bytes32"}],"stateMutability":"view"},{"type":"function","name":"MANAGER_ROLE","inputs":[],"outputs":[{"name":"","type":"bytes32","internalType":"bytes32"}],"stateMutability":"view"},{"type":"function","name":"addVaultToCollection","inputs":[{"name":"collection","type":"address","internalType":"address"},{"name":"vault","type":"address","internalType":"address"}],"outputs":[],"stateMutability":"nonpayable"},{"type":"function","name":"allCollections","inputs":[],"outputs":[{"name":"","type":"address[]","internalType":"address[]"}],"stateMutability":"view"},{"type":"function","name":"getCollection","inputs":[{"name":"collection","type":"address","internalType":"address"}],"outputs":[{"name":"","type":"tuple","internalType":"struct ICollectionRegistry.Collection","components":[{"name":"collectionAddress","type":"address","internalType":"address"},{"name":"collectionType","type":"uint8","internalType":"enum ICollectionRegistry.CollectionType"},{"name":"weightFunction","type":"tuple","internalType":"struct ICollectionRegistry.WeightFunction","components":[{"name":"fnType","type":"uint8","internalType":"enum ICollectionRegistry.WeightFunctionType"},{"name":"p1","type":"int256","internalType":"int256"},{"name":"p2","type":"int256","internalType":"int256"}]},{"name":"p1","type":"int256","internalType":"int256"},{"name":"p2","type":"int256","internalType":"int256"},{"name":"yieldSharePercentage","type":"uint16","internalType":"uint16"},{"name":"vaults","type":"address[]","internalType":"address[]"}]}],"stateMutability":"view"},{"type":"function","name":"getRoleAdmin","inputs":[{"name":"role","type":"bytes32","internalType":"bytes32"}],"outputs":[{"name":"","type":"bytes32","internalType":"bytes32"}],"stateMutability":"view"},{"type":"function","name":"grantRole","inputs":[{"name":"role","type":"bytes32","internalType":"bytes32"},{"name":"account","type":"address","internalType":"address"}],"outputs":[],"stateMutability":"nonpayable"},{"type":"function","name":"hasRole","inputs":[{"name":"role","type":"bytes32","internalType":"bytes32"},{"name":"account","type":"address","internalType":"address"}],"outputs":[{"name":"","type":"bool","internalType":"bool"}],"stateMutability":"view"},{"type":"function","name":"isRegistered","inputs":[{"name":"collection","type":"address","internalType":"address"}],"outputs":[{"name":"","type":"bool","internalType":"bool"}],"stateMutability":"view"},{"type":"function","name":"registerCollection","inputs":[{"name":"collectionData","type":"tuple","internalType":"struct ICollectionRegistry.Collection","components":[{"name":"collectionAddress","type":"address","internalType":"address"},{"name":"collectionType","type":"uint8","internalType":"enum ICollectionRegistry.CollectionType"},{"name":"weightFunction","type":"tuple","internalType":"struct ICollectionRegistry.WeightFunction","components":[{"name":"fnType","type":"uint8","internalType":"enum ICollectionRegistry.WeightFunctionType"},{"name":"p1","type":"int256","internalType":"int256"},{"name":"p2","type":"int256","internalType":"int256"}]},{"name":"p1","type":"int256","internalType":"int256"},{"name":"p2","type":"int256","internalType":"int256"},{"name":"yieldSharePercentage","type":"uint16","internalType":"uint16"},{"name":"vaults","type":"address[]","internalType":"address[]"}]}],"outputs":[],"stateMutability":"nonpayable"},{"type":"function","name":"removeVaultFromCollection","inputs":[{"name":"collection","type":"address","internalType":"address"},{"name":"vault","type":"address","internalType":"address"}],"outputs":[],"stateMutability":"nonpayable"},{"type":"function","name":"renounceRole","inputs":[{"name":"role","type":"bytes32","internalType":"bytes32"},{"name":"callerConfirmation","type":"address","internalType":"address"}],"outputs":[],"stateMutability":"nonpayable"},{"type":"function","name":"revokeRole","inputs":[{"name":"role","type":"bytes32","internalType":"bytes32"},{"name":"account","type":"address","internalType":"address"}],"outputs":[],"stateMutability":"nonpayable"},{"type":"function","name":"setWeightFunction","inputs":[{"name":"collection","type":"address","internalType":"address"},{"name":"weightFunction","type":"tuple","internalType":"struct ICollectionRegistry.WeightFunction","components":[{"name":"fnType","type":"uint8","internalType":"enum ICollectionRegistry.WeightFunctionType"},{"name":"p1","type":"int256","internalType":"int256"},{"name":"p2","type":"int256","internalType":"int256"}]},{"name":"p1","type":"int256","internalType":"int256"},{"name":"p2","type":"int256","internalType":"int256"}],"outputs":[],"stateMutability":"nonpayable"},{"type":"function","name":"setYieldShare","inputs":[{"name":"collection","type":"address","internalType":"address"},{"name":"share","type":"uint16","internalType":"uint16"}],"outputs":[],"stateMutability":"nonpayable"},{"type":"function","name":"supportsInterface","inputs":[{"name":"interfaceId","type":"bytes4","internalType":"bytes4"}],"outputs":[{"name":"","type":"bool","internalType":"bool"}],"stateMutability":"view"},{"type":"event","name":"RoleAdminChanged","inputs":[{"name":"role","type":"bytes32","indexed":true,"internalType":"bytes32"},{"name":"previousAdminRole","type":"bytes32","indexed":true,"internalType":"bytes32"},{"name":"newAdminRole","type":"bytes32","indexed":true,"internalType":"bytes32"}],"anonymous":false},{"type":"event","name":"RoleGranted","inputs":[{"name":"role","type":"bytes32","indexed":true,"internalType":"bytes32"},{"name":"account","type":"address","indexed":true,"internalType":"address"},{"name":"sender","type":"address","indexed":true,"internalType":"address"}],"anonymous":false},{"type":"event","name":"RoleRevoked","inputs":[{"name":"role","type":"bytes32","indexed":true,"internalType":"bytes32"},{"name":"account","type":"address","indexed":true,"internalType":"address"},{"name":"sender","type":"address","indexed":true,"internalType":"address"}],"anonymous":false},{"type":"error","name":"AccessControlBadConfirmation","inputs":[]},{"type":"error","name":"AccessControlUnauthorizedAccount","inputs":[{"name":"account","type":"address","internalType":"address"},{"name":"neededRole","type":"bytes32","internalType":"bytes32"}]}],"bytecode":{"object":"0x60803461007257601f6111cf38819003918201601f19168301916001600160401b038311848410176100765780849260209460405283398101031261007257516001600160a01b0381168103610072578061005c6100629261008a565b50610100565b50604051610fdb90816101948239f35b5f80fd5b634e487b7160e01b5f52604160045260245ffd5b6001600160a01b0381165f9081525f5160206111af5f395f51905f52602052604090205460ff166100fb576001600160a01b03165f8181525f5160206111af5f395f51905f5260205260408120805460ff191660011790553391905f51602061116f5f395f51905f528180a4600190565b505f90565b6001600160a01b0381165f9081525f51602061118f5f395f51905f52602052604090205460ff166100fb576001600160a01b03165f8181525f51602061118f5f395f51905f5260205260408120805460ff191660011790553391907f241ecf16d79d0f8dbfb92cbc07fe17840425976cf0667f022fe9877caa831b08905f51602061116f5f395f51905f529080a460019056fe6080806040526004361015610012575f80fd5b5f3560e01c90816301ffc9a714610c20575080630546fb1714610b6b578063189f2859146109b55780631a68399f1461084d578063248a9ca31461081b5780632f2ff15d146107de57806336568abe1461079a5780634ebd66111461072657806391d14854146106de578063a217fddf146106c4578063c3c5a54714610687578063d547741f14610643578063df9b8794146103e6578063e40d45441461033b578063e40de8871461010a5763ec87621c146100cc575f80fd5b34610106575f3660031901126101065760206040517f241ecf16d79d0f8dbfb92cbc07fe17840425976cf0667f022fe9877caa831b088152f35b5f80fd5b3461010657602036600319011261010657610123610c73565b606060c060405161013381610d9c565b5f81525f602082015260405161014881610db8565b5f81525f60208201525f604082015260408201525f838201525f60808201525f60a0820152015260018060a01b0316805f52600360205261018f60ff60405f205416610cbd565b5f52600160205260405f206040516101a681610d9c565b81546001600160a01b038116825260208201919060a01c60ff166101c981610c9f565b8252604051926101d884610db8565b60ff6001820154166101e981610c9f565b845260028101546020850152600381015460408501526040820193845260048101549060608301918252600581015460808401908152600761ffff6006840154169260a08601938452019260405193805480865260208601915f5260205f20905f5b81811061031c57505050906102678561ffff9594930386610dd4565b60c086019485526040805198899860208a526101408a019860018060a01b0390511660208b01525161029881610c9f565b828a01525180516102a881610c9f565b60608a0152602081015160808a0152015160a08801525160c08701525160e086015251166101008401525190610120808401528151809152602061016084019201905f5b8181106102fa575050500390f35b82516001600160a01b03168452859450602093840193909201916001016102ec565b82546001600160a01b031684526020909301926001928301920161024b565b34610106575f366003190112610106576040516002549081815260208101809260025f5260205f20905f5b8181106103c7575050508161037c910382610dd4565b604051918291602083019060208452518091526040830191905f5b8181106103a5575050500390f35b82516001600160a01b0316845285945060209384019390920191600101610397565b82546001600160a01b0316845260209093019260019283019201610366565b346101065760203660031901126101065760043567ffffffffffffffff811161010657368190036004820161012060031983011261010657610426610df6565b61042f81610d88565b6001600160a01b03811690610445821515610d3d565b815f52600360205260ff60405f2054161561045c57005b815f52600360205260405f20600160ff1982541617905560025490600160401b82101561062f576104988260016104bc94016002556002610d14565b81546001600160a01b0393841660039290921b91821b9390911b1916919091179055565b5f908152600160205260409020906001600160a01b03906104dc90610d88565b1681549060248501356002811015610106576104f781610c9f565b6001600160a81b03199092161760a09190911b60ff60a01b1617815560018101604484013560028110156101065761052e81610c9f565b60ff80198354169116179055606483013560028201556084830135600382015560a4830135600482015560c4830135600582015560e48301359061ffff821682036101065760079161ffff60068301911661ffff1982541617905501916101048101359160221901821215610106570160048101359067ffffffffffffffff8211610106576024018160051b3603811361010657600160401b821161062f578254828455808310610609575b50915f5260205f20915f5b8281106105ee57005b60019060206105fc84610d88565b93019281860155016105e5565b835f528260205f2091820191015b81811061062457506105da565b5f8155600101610617565b634e487b7160e01b5f52604160045260245ffd5b3461010657604036600319011261010657610685600435610662610c89565b9061068061067b825f525f602052600160405f20015490565b610e65565b610f25565b005b34610106576020366003190112610106576001600160a01b036106a8610c73565b165f526003602052602060ff60405f2054166040519015158152f35b34610106575f3660031901126101065760206040515f8152f35b34610106576040366003190112610106576106f7610c89565b6004355f525f60205260405f209060018060a01b03165f52602052602060ff60405f2054166040519015158152f35b346101065760403660031901126101065761073f610c73565b6024359061ffff8216820361010657610756610df6565b6001600160a01b03165f818152600360205260409020546107799060ff16610cbd565b5f52600160205261ffff600660405f2001911661ffff198254161790555f80f35b34610106576040366003190112610106576107b3610c89565b336001600160a01b038216036107cf5761068590600435610f25565b63334bd91960e11b5f5260045ffd5b34610106576040366003190112610106576106856004356107fd610c89565b9061081661067b825f525f602052600160405f20015490565b610e9d565b346101065760203660031901126101065760206108456004355f525f602052600160405f20015490565b604051908152f35b3461010657604036600319011261010657610866610c73565b61086e610c89565b90610877610df6565b6001600160a01b03165f8181526003602052604090205461089a9060ff16610cbd565b6001600160a01b038216916108b0831515610d3d565b815f52600460205260405f20835f5260205260ff60405f20541661096057815f526001602052600760405f200190815491600160401b83101561062f578261049891600161090095018155610d14565b805f52600460205260405f20825f5260205260405f20600160ff198254161790555f526001602052600760405f200154905f19820191821161094c575f52600560205260405f20555f80f35b634e487b7160e01b5f52601160045260245ffd5b60405162461bcd60e51b815260206004820152602760248201527f436f6c6c656374696f6e52656769737472793a205661756c7420616c726561646044820152661e48185919195960ca1b6064820152608490fd5b34610106576040366003190112610106576109ce610c73565b6109d6610c89565b906109df610df6565b60018060a01b031690815f526003602052610a0060ff60405f205416610cbd565b815f52600460205260405f2060018060a01b0382165f5260205260ff60405f20541615610b1a576001600160a01b03165f81815260056020908152604080832054858452600190925290912060070180549293925f19810190811161094c57610a6891610d14565b60018060a01b0391549060031b1c16825f526001602052610a938161049884600760405f2001610d14565b5f52600560205260405f2055805f526001602052600760405f200180548015610b06575f190190610ac48282610d14565b81549060018060a01b039060031b1b19169055555f52600460205260405f20815f5260205260405f2060ff1981541690555f5260056020525f60408120555f80f35b634e487b7160e01b5f52603160045260245ffd5b60405162461bcd60e51b815260206004820152602360248201527f436f6c6c656374696f6e52656769737472793a205661756c74206e6f7420666f6044820152621d5b9960ea1b6064820152608490fd5b346101065760c036600319011261010657610b84610c73565b606036602319011261010657610b98610df6565b6001600160a01b03165f81815260036020526040902054610bbb9060ff16610cbd565b805f52600160205260405f2060018101602435600281101561010657610be081610c9f565b815460ff191660ff9190911617905560443560028201556064356003909101555f908152600160205260409020608435600482015560a435600590910155005b34610106576020366003190112610106576004359063ffffffff60e01b821680920361010657602091637965db0b60e01b8114908115610c62575b5015158152f35b6301ffc9a760e01b14905083610c5b565b600435906001600160a01b038216820361010657565b602435906001600160a01b038216820361010657565b60021115610ca957565b634e487b7160e01b5f52602160045260245ffd5b15610cc457565b60405162461bcd60e51b815260206004820152602260248201527f436f6c6c656374696f6e52656769737472793a204e6f74207265676973746572604482015261195960f21b6064820152608490fd5b8054821015610d29575f5260205f2001905f90565b634e487b7160e01b5f52603260045260245ffd5b15610d4457565b606460405162461bcd60e51b815260206004820152602060248201527f436f6c6c656374696f6e52656769737472793a205a65726f20616464726573736044820152fd5b356001600160a01b03811681036101065790565b60e0810190811067ffffffffffffffff82111761062f57604052565b6060810190811067ffffffffffffffff82111761062f57604052565b90601f8019910116810190811067ffffffffffffffff82111761062f57604052565b335f9081527fe84508f2c7fa9c351146748b3025cb78b45df37d868e48c6a75102fecdeee645602052604090205460ff1615610e2e57565b63e2517d3f60e01b5f52336004527f241ecf16d79d0f8dbfb92cbc07fe17840425976cf0667f022fe9877caa831b0860245260445ffd5b5f8181526020818152604080832033845290915290205460ff1615610e875750565b63e2517d3f60e01b5f523360045260245260445ffd5b5f818152602081815260408083206001600160a01b038616845290915290205460ff16610f1f575f818152602081815260408083206001600160a01b0395909516808452949091528120805460ff19166001179055339291907f2f8788117e7eff1d82e926ec794901d17c78024a50270940304540a733656f0d9080a4600190565b50505f90565b5f818152602081815260408083206001600160a01b038616845290915290205460ff1615610f1f575f818152602081815260408083206001600160a01b0395909516808452949091528120805460ff19169055339291907ff6391f5c32d9c69d2a47ea670b442974b53935d1edc7fd64eb21e047a839171b9080a460019056fea2646970667358221220dcce02c31f5e67d67c1cdbbdf8e6bd69c32da329bec51c6199f4e204b0075c5264736f6c634300081e00332f8788117e7eff1d82e926ec794901d17c78024a50270940304540a733656f0de84508f2c7fa9c351146748b3025cb78b45df37d868e48c6a75102fecdeee645ad3228b676f7d3cd4284a5443f17f1962b36e491b30a40b2405849e597ba5fb5","linkReferences":{}},"methodIdentifiers":{"DEFAULT_ADMIN_ROLE()":"a217fddf","MANAGER_ROLE()":"ec87621c","addVaultToCollection(address,address)":"1a68399f","allCollections()":"e40d4544","getCollection(address)":"e40de887","getRoleAdmin(bytes32)":"248a9ca3","grantRole(bytes32,address)":"2f2ff15d","hasRole(bytes32,address)":"91d14854","isRegistered(address)":"c3c5a547","registerCollection((address,uint8,(uint8,int256,int256),int256,int256,uint16,address[]))":"df9b8794","removeVaultFromCollection(address,address)":"189f2859","renounceRole(bytes32,address)":"36568abe","revokeRole(bytes32,address)":"d547741f","setWeightFunction(address,(uint8,int256,int256),int256,int256)":"0546fb17","setYieldShare(address,uint16)":"4ebd6611","supportsInterface(bytes4)":"01ffc9a7"},"id":82}