{"abi":[{"type":"constructor","inputs":[{"name":"_asset","type":"address","internalType":"contract IERC20"},{"name":"_name","type":"string","internalType":"string"},{"name":"_symbol","type":"string","internalType":"string"},{"name":"initialAdmin","type":"address","internalType":"address"},{"name":"_lendingManagerAddress","type":"address","internalType":"address"}],"stateMutability":"nonpayable"},{"type":"function","name":"ADMIN_ROLE","inputs":[],"outputs":[{"name":"","type":"bytes32","internalType":"bytes32"}],"stateMutability":"view"},{"type":"function","name":"DEBT_SUBSIDIZER_ROLE","inputs":[],"outputs":[{"name":"","type":"bytes32","internalType":"bytes32"}],"stateMutability":"view"},{"type":"function","name":"DEFAULT_ADMIN_ROLE","inputs":[],"outputs":[{"name":"","type":"bytes32","internalType":"bytes32"}],"stateMutability":"view"},{"type":"function","name":"GLOBAL_DEPOSIT_INDEX_PRECISION","inputs":[],"outputs":[{"name":"","type":"uint256","internalType":"uint256"}],"stateMutability":"view"},{"type":"function","name":"allocateEpochYield","inputs":[{"name":"amount","type":"uint256","internalType":"uint256"}],"outputs":[],"stateMutability":"nonpayable"},{"type":"function","name":"allocateYieldToEpoch","inputs":[{"name":"epochId","type":"uint256","internalType":"uint256"}],"outputs":[],"stateMutability":"nonpayable"},{"type":"function","name":"allowance","inputs":[{"name":"owner","type":"address","internalType":"address"},{"name":"spender","type":"address","internalType":"address"}],"outputs":[{"name":"","type":"uint256","internalType":"uint256"}],"stateMutability":"view"},{"type":"function","name":"applyCollectionYieldForEpoch","inputs":[{"name":"collectionAddress","type":"address","internalType":"address"},{"name":"epochId","type":"uint256","internalType":"uint256"}],"outputs":[],"stateMutability":"nonpayable"},{"type":"function","name":"approve","inputs":[{"name":"spender","type":"address","internalType":"address"},{"name":"value","type":"uint256","internalType":"uint256"}],"outputs":[{"name":"","type":"bool","internalType":"bool"}],"stateMutability":"nonpayable"},{"type":"function","name":"asset","inputs":[],"outputs":[{"name":"","type":"address","internalType":"address"}],"stateMutability":"view"},{"type":"function","name":"balanceOf","inputs":[{"name":"account","type":"address","internalType":"address"}],"outputs":[{"name":"","type":"uint256","internalType":"uint256"}],"stateMutability":"view"},{"type":"function","name":"collectionTotalAssetsDeposited","inputs":[{"name":"collectionAddress","type":"address","internalType":"address"}],"outputs":[{"name":"","type":"uint256","internalType":"uint256"}],"stateMutability":"view"},{"type":"function","name":"collectionYieldTransferred","inputs":[{"name":"collectionAddress","type":"address","internalType":"address"}],"outputs":[{"name":"","type":"uint256","internalType":"uint256"}],"stateMutability":"view"},{"type":"function","name":"collections","inputs":[{"name":"","type":"address","internalType":"address"}],"outputs":[{"name":"collectionAddress","type":"address","internalType":"address"},{"name":"totalAssetsDeposited","type":"uint256","internalType":"uint256"},{"name":"totalSharesMinted","type":"uint256","internalType":"uint256"},{"name":"totalCTokensMinted","type":"uint256","internalType":"uint256"},{"name":"yieldSharePercentage","type":"uint16","internalType":"uint16"},{"name":"totalYieldTransferred","type":"uint256","internalType":"uint256"},{"name":"lastGlobalDepositIndex","type":"uint256","internalType":"uint256"}],"stateMutability":"view"},{"type":"function","name":"convertToAssets","inputs":[{"name":"shares","type":"uint256","internalType":"uint256"}],"outputs":[{"name":"","type":"uint256","internalType":"uint256"}],"stateMutability":"view"},{"type":"function","name":"convertToShares","inputs":[{"name":"assets","type":"uint256","internalType":"uint256"}],"outputs":[{"name":"","type":"uint256","internalType":"uint256"}],"stateMutability":"view"},{"type":"function","name":"decimals","inputs":[],"outputs":[{"name":"","type":"uint8","internalType":"uint8"}],"stateMutability":"view"},{"type":"function","name":"deposit","inputs":[{"name":"","type":"uint256","internalType":"uint256"},{"name":"","type":"address","internalType":"address"}],"outputs":[{"name":"","type":"uint256","internalType":"uint256"}],"stateMutability":"nonpayable"},{"type":"function","name":"depositForCollection","inputs":[{"name":"assets","type":"uint256","internalType":"uint256"},{"name":"receiver","type":"address","internalType":"address"},{"name":"collectionAddress","type":"address","internalType":"address"}],"outputs":[{"name":"shares","type":"uint256","internalType":"uint256"}],"stateMutability":"nonpayable"},{"type":"function","name":"epochCollectionYieldApplied","inputs":[{"name":"","type":"uint256","internalType":"uint256"},{"name":"","type":"address","internalType":"address"}],"outputs":[{"name":"","type":"bool","internalType":"bool"}],"stateMutability":"view"},{"type":"function","name":"epochManager","inputs":[],"outputs":[{"name":"","type":"address","internalType":"contract IEpochManager"}],"stateMutability":"view"},{"type":"function","name":"epochYieldAllocations","inputs":[{"name":"","type":"uint256","internalType":"uint256"}],"outputs":[{"name":"","type":"uint256","internalType":"uint256"}],"stateMutability":"view"},{"type":"function","name":"getCurrentEpochYield","inputs":[{"name":"includeNonShared","type":"bool","internalType":"bool"}],"outputs":[{"name":"availableYield","type":"uint256","internalType":"uint256"}],"stateMutability":"view"},{"type":"function","name":"getEpochYieldAllocated","inputs":[{"name":"epochId","type":"uint256","internalType":"uint256"}],"outputs":[{"name":"amount","type":"uint256","internalType":"uint256"}],"stateMutability":"view"},{"type":"function","name":"getRoleAdmin","inputs":[{"name":"role","type":"bytes32","internalType":"bytes32"}],"outputs":[{"name":"","type":"bytes32","internalType":"bytes32"}],"stateMutability":"view"},{"type":"function","name":"globalDepositIndex","inputs":[],"outputs":[{"name":"","type":"uint256","internalType":"uint256"}],"stateMutability":"view"},{"type":"function","name":"grantRole","inputs":[{"name":"role","type":"bytes32","internalType":"bytes32"},{"name":"account","type":"address","internalType":"address"}],"outputs":[],"stateMutability":"nonpayable"},{"type":"function","name":"hasRole","inputs":[{"name":"role","type":"bytes32","internalType":"bytes32"},{"name":"account","type":"address","internalType":"address"}],"outputs":[{"name":"","type":"bool","internalType":"bool"}],"stateMutability":"view"},{"type":"function","name":"indexCollectionsDeposits","inputs":[],"outputs":[],"stateMutability":"nonpayable"},{"type":"function","name":"lendingManager","inputs":[],"outputs":[{"name":"","type":"address","internalType":"contract ILendingManager"}],"stateMutability":"view"},{"type":"function","name":"maxDeposit","inputs":[{"name":"","type":"address","internalType":"address"}],"outputs":[{"name":"","type":"uint256","internalType":"uint256"}],"stateMutability":"view"},{"type":"function","name":"maxMint","inputs":[{"name":"","type":"address","internalType":"address"}],"outputs":[{"name":"","type":"uint256","internalType":"uint256"}],"stateMutability":"view"},{"type":"function","name":"maxRedeem","inputs":[{"name":"owner","type":"address","internalType":"address"}],"outputs":[{"name":"","type":"uint256","internalType":"uint256"}],"stateMutability":"view"},{"type":"function","name":"maxWithdraw","inputs":[{"name":"owner","type":"address","internalType":"address"}],"outputs":[{"name":"","type":"uint256","internalType":"uint256"}],"stateMutability":"view"},{"type":"function","name":"mint","inputs":[{"name":"","type":"uint256","internalType":"uint256"},{"name":"","type":"address","internalType":"address"}],"outputs":[{"name":"","type":"uint256","internalType":"uint256"}],"stateMutability":"nonpayable"},{"type":"function","name":"mintForCollection","inputs":[{"name":"shares","type":"uint256","internalType":"uint256"},{"name":"receiver","type":"address","internalType":"address"},{"name":"collectionAddress","type":"address","internalType":"address"}],"outputs":[{"name":"assets","type":"uint256","internalType":"uint256"}],"stateMutability":"nonpayable"},{"type":"function","name":"name","inputs":[],"outputs":[{"name":"","type":"string","internalType":"string"}],"stateMutability":"view"},{"type":"function","name":"pause","inputs":[],"outputs":[],"stateMutability":"nonpayable"},{"type":"function","name":"paused","inputs":[],"outputs":[{"name":"","type":"bool","internalType":"bool"}],"stateMutability":"view"},{"type":"function","name":"previewDeposit","inputs":[{"name":"assets","type":"uint256","internalType":"uint256"}],"outputs":[{"name":"","type":"uint256","internalType":"uint256"}],"stateMutability":"view"},{"type":"function","name":"previewMint","inputs":[{"name":"shares","type":"uint256","internalType":"uint256"}],"outputs":[{"name":"","type":"uint256","internalType":"uint256"}],"stateMutability":"view"},{"type":"function","name":"previewRedeem","inputs":[{"name":"shares","type":"uint256","internalType":"uint256"}],"outputs":[{"name":"","type":"uint256","internalType":"uint256"}],"stateMutability":"view"},{"type":"function","name":"previewWithdraw","inputs":[{"name":"assets","type":"uint256","internalType":"uint256"}],"outputs":[{"name":"","type":"uint256","internalType":"uint256"}],"stateMutability":"view"},{"type":"function","name":"redeem","inputs":[{"name":"","type":"uint256","internalType":"uint256"},{"name":"","type":"address","internalType":"address"},{"name":"","type":"address","internalType":"address"}],"outputs":[{"name":"","type":"uint256","internalType":"uint256"}],"stateMutability":"nonpayable"},{"type":"function","name":"redeemForCollection","inputs":[{"name":"shares","type":"uint256","internalType":"uint256"},{"name":"receiver","type":"address","internalType":"address"},{"name":"owner","type":"address","internalType":"address"},{"name":"collectionAddress","type":"address","internalType":"address"}],"outputs":[{"name":"assets","type":"uint256","internalType":"uint256"}],"stateMutability":"nonpayable"},{"type":"function","name":"renounceRole","inputs":[{"name":"role","type":"bytes32","internalType":"bytes32"},{"name":"callerConfirmation","type":"address","internalType":"address"}],"outputs":[],"stateMutability":"nonpayable"},{"type":"function","name":"repayBorrowBehalfBatch","inputs":[{"name":"collectionAddresses","type":"address[]","internalType":"address[]"},{"name":"amounts","type":"uint256[]","internalType":"uint256[]"},{"name":"borrowers","type":"address[]","internalType":"address[]"},{"name":"totalAmount","type":"uint256","internalType":"uint256"}],"outputs":[],"stateMutability":"nonpayable"},{"type":"function","name":"revokeRole","inputs":[{"name":"role","type":"bytes32","internalType":"bytes32"},{"name":"account","type":"address","internalType":"address"}],"outputs":[],"stateMutability":"nonpayable"},{"type":"function","name":"setCollectionYieldSharePercentage","inputs":[{"name":"collectionAddress","type":"address","internalType":"address"},{"name":"percentage","type":"uint16","internalType":"uint16"}],"outputs":[],"stateMutability":"nonpayable"},{"type":"function","name":"setDebtSubsidizer","inputs":[{"name":"_debtSubsidizerAddress","type":"address","internalType":"address"}],"outputs":[],"stateMutability":"nonpayable"},{"type":"function","name":"setEpochManager","inputs":[{"name":"_epochManagerAddress","type":"address","internalType":"address"}],"outputs":[],"stateMutability":"nonpayable"},{"type":"function","name":"setLendingManager","inputs":[{"name":"_lendingManagerAddress","type":"address","internalType":"address"}],"outputs":[],"stateMutability":"nonpayable"},{"type":"function","name":"supportsInterface","inputs":[{"name":"interfaceId","type":"bytes4","internalType":"bytes4"}],"outputs":[{"name":"","type":"bool","internalType":"bool"}],"stateMutability":"view"},{"type":"function","name":"symbol","inputs":[],"outputs":[{"name":"","type":"string","internalType":"string"}],"stateMutability":"view"},{"type":"function","name":"totalAssets","inputs":[],"outputs":[{"name":"","type":"uint256","internalType":"uint256"}],"stateMutability":"view"},{"type":"function","name":"totalCollectionYieldShareBps","inputs":[],"outputs":[{"name":"totalBps","type":"uint16","internalType":"uint16"}],"stateMutability":"view"},{"type":"function","name":"totalSupply","inputs":[],"outputs":[{"name":"","type":"uint256","internalType":"uint256"}],"stateMutability":"view"},{"type":"function","name":"transfer","inputs":[{"name":"to","type":"address","internalType":"address"},{"name":"amount","type":"uint256","internalType":"uint256"}],"outputs":[{"name":"","type":"bool","internalType":"bool"}],"stateMutability":"nonpayable"},{"type":"function","name":"transferFrom","inputs":[{"name":"from","type":"address","internalType":"address"},{"name":"to","type":"address","internalType":"address"},{"name":"amount","type":"uint256","internalType":"uint256"}],"outputs":[{"name":"","type":"bool","internalType":"bool"}],"stateMutability":"nonpayable"},{"type":"function","name":"unpause","inputs":[],"outputs":[],"stateMutability":"nonpayable"},{"type":"function","name":"withdraw","inputs":[{"name":"","type":"uint256","internalType":"uint256"},{"name":"","type":"address","internalType":"address"},{"name":"","type":"address","internalType":"address"}],"outputs":[{"name":"","type":"uint256","internalType":"uint256"}],"stateMutability":"nonpayable"},{"type":"function","name":"withdrawForCollection","inputs":[{"name":"assets","type":"uint256","internalType":"uint256"},{"name":"receiver","type":"address","internalType":"address"},{"name":"owner","type":"address","internalType":"address"},{"name":"collectionAddress","type":"address","internalType":"address"}],"outputs":[{"name":"shares","type":"uint256","internalType":"uint256"}],"stateMutability":"nonpayable"},{"type":"event","name":"Approval","inputs":[{"name":"owner","type":"address","indexed":true,"internalType":"address"},{"name":"spender","type":"address","indexed":true,"internalType":"address"},{"name":"value","type":"uint256","indexed":false,"internalType":"uint256"}],"anonymous":false},{"type":"event","name":"CollectionDeposit","inputs":[{"name":"collectionAddress","type":"address","indexed":true,"internalType":"address"},{"name":"caller","type":"address","indexed":true,"internalType":"address"},{"name":"receiver","type":"address","indexed":true,"internalType":"address"},{"name":"assets","type":"uint256","indexed":false,"internalType":"uint256"},{"name":"shares","type":"uint256","indexed":false,"internalType":"uint256"},{"name":"cTokenAmount","type":"uint256","indexed":false,"internalType":"uint256"}],"anonymous":false},{"type":"event","name":"CollectionWithdraw","inputs":[{"name":"collectionAddress","type":"address","indexed":true,"internalType":"address"},{"name":"caller","type":"address","indexed":true,"internalType":"address"},{"name":"receiver","type":"address","indexed":true,"internalType":"address"},{"name":"assets","type":"uint256","indexed":false,"internalType":"uint256"},{"name":"shares","type":"uint256","indexed":false,"internalType":"uint256"},{"name":"cTokenAmount","type":"uint256","indexed":false,"internalType":"uint256"}],"anonymous":false},{"type":"event","name":"CollectionYieldAccrued","inputs":[{"name":"collectionAddress","type":"address","indexed":true,"internalType":"address"},{"name":"yieldAccrued","type":"uint256","indexed":false,"internalType":"uint256"},{"name":"newTotalDeposits","type":"uint256","indexed":false,"internalType":"uint256"},{"name":"globalIndex","type":"uint256","indexed":false,"internalType":"uint256"},{"name":"previousCollectionIndex","type":"uint256","indexed":false,"internalType":"uint256"}],"anonymous":false},{"type":"event","name":"CollectionYieldAppliedForEpoch","inputs":[{"name":"epochId","type":"uint256","indexed":true,"internalType":"uint256"},{"name":"collection","type":"address","indexed":true,"internalType":"address"},{"name":"yieldSharePercentage","type":"uint16","indexed":false,"internalType":"uint16"},{"name":"yieldAdded","type":"uint256","indexed":false,"internalType":"uint256"},{"name":"newTotalDeposits","type":"uint256","indexed":false,"internalType":"uint256"}],"anonymous":false},{"type":"event","name":"CollectionYieldIndexed","inputs":[{"name":"collectionAddress","type":"address","indexed":true,"internalType":"address"},{"name":"epochId","type":"uint256","indexed":true,"internalType":"uint256"},{"name":"assets","type":"uint256","indexed":false,"internalType":"uint256"},{"name":"shares","type":"uint256","indexed":false,"internalType":"uint256"},{"name":"cTokenAmount","type":"uint256","indexed":false,"internalType":"uint256"}],"anonymous":false},{"type":"event","name":"Deposit","inputs":[{"name":"sender","type":"address","indexed":true,"internalType":"address"},{"name":"owner","type":"address","indexed":true,"internalType":"address"},{"name":"assets","type":"uint256","indexed":false,"internalType":"uint256"},{"name":"shares","type":"uint256","indexed":false,"internalType":"uint256"}],"anonymous":false},{"type":"event","name":"LendingManagerChanged","inputs":[{"name":"oldLendingManager","type":"address","indexed":true,"internalType":"address"},{"name":"newLendingManager","type":"address","indexed":true,"internalType":"address"},{"name":"changedBy","type":"address","indexed":true,"internalType":"address"}],"anonymous":false},{"type":"event","name":"Paused","inputs":[{"name":"account","type":"address","indexed":false,"internalType":"address"}],"anonymous":false},{"type":"event","name":"RoleAdminChanged","inputs":[{"name":"role","type":"bytes32","indexed":true,"internalType":"bytes32"},{"name":"previousAdminRole","type":"bytes32","indexed":true,"internalType":"bytes32"},{"name":"newAdminRole","type":"bytes32","indexed":true,"internalType":"bytes32"}],"anonymous":false},{"type":"event","name":"RoleGranted","inputs":[{"name":"role","type":"bytes32","indexed":true,"internalType":"bytes32"},{"name":"account","type":"address","indexed":true,"internalType":"address"},{"name":"sender","type":"address","indexed":true,"internalType":"address"}],"anonymous":false},{"type":"event","name":"RoleRevoked","inputs":[{"name":"role","type":"bytes32","indexed":true,"internalType":"bytes32"},{"name":"account","type":"address","indexed":true,"internalType":"address"},{"name":"sender","type":"address","indexed":true,"internalType":"address"}],"anonymous":false},{"type":"event","name":"Transfer","inputs":[{"name":"from","type":"address","indexed":true,"internalType":"address"},{"name":"to","type":"address","indexed":true,"internalType":"address"},{"name":"value","type":"uint256","indexed":false,"internalType":"uint256"}],"anonymous":false},{"type":"event","name":"Unpaused","inputs":[{"name":"account","type":"address","indexed":false,"internalType":"address"}],"anonymous":false},{"type":"event","name":"VaultYieldAllocatedToEpoch","inputs":[{"name":"epochId","type":"uint256","indexed":true,"internalType":"uint256"},{"name":"amount","type":"uint256","indexed":false,"internalType":"uint256"}],"anonymous":false},{"type":"event","name":"Withdraw","inputs":[{"name":"sender","type":"address","indexed":true,"internalType":"address"},{"name":"receiver","type":"address","indexed":true,"internalType":"address"},{"name":"owner","type":"address","indexed":true,"internalType":"address"},{"name":"assets","type":"uint256","indexed":false,"internalType":"uint256"},{"name":"shares","type":"uint256","indexed":false,"internalType":"uint256"}],"anonymous":false},{"type":"event","name":"YieldBatchRepaid","inputs":[{"name":"totalAmount","type":"uint256","indexed":false,"internalType":"uint256"},{"name":"recipient","type":"address","indexed":true,"internalType":"address"}],"anonymous":false},{"type":"error","name":"AccessControlBadConfirmation","inputs":[]},{"type":"error","name":"AccessControlUnauthorizedAccount","inputs":[{"name":"account","type":"address","internalType":"address"},{"name":"neededRole","type":"bytes32","internalType":"bytes32"}]},{"type":"error","name":"AddressZero","inputs":[]},{"type":"error","name":"CollectionInsufficientBalance","inputs":[{"name":"collectionAddress","type":"address","internalType":"address"},{"name":"requested","type":"uint256","internalType":"uint256"},{"name":"available","type":"uint256","internalType":"uint256"}]},{"type":"error","name":"ERC20InsufficientAllowance","inputs":[{"name":"spender","type":"address","internalType":"address"},{"name":"allowance","type":"uint256","internalType":"uint256"},{"name":"needed","type":"uint256","internalType":"uint256"}]},{"type":"error","name":"ERC20InsufficientBalance","inputs":[{"name":"sender","type":"address","internalType":"address"},{"name":"balance","type":"uint256","internalType":"uint256"},{"name":"needed","type":"uint256","internalType":"uint256"}]},{"type":"error","name":"ERC20InvalidApprover","inputs":[{"name":"approver","type":"address","internalType":"address"}]},{"type":"error","name":"ERC20InvalidReceiver","inputs":[{"name":"receiver","type":"address","internalType":"address"}]},{"type":"error","name":"ERC20InvalidSender","inputs":[{"name":"sender","type":"address","internalType":"address"}]},{"type":"error","name":"ERC20InvalidSpender","inputs":[{"name":"spender","type":"address","internalType":"address"}]},{"type":"error","name":"ERC4626ExceededMaxDeposit","inputs":[{"name":"receiver","type":"address","internalType":"address"},{"name":"assets","type":"uint256","internalType":"uint256"},{"name":"max","type":"uint256","internalType":"uint256"}]},{"type":"error","name":"ERC4626ExceededMaxMint","inputs":[{"name":"receiver","type":"address","internalType":"address"},{"name":"shares","type":"uint256","internalType":"uint256"},{"name":"max","type":"uint256","internalType":"uint256"}]},{"type":"error","name":"ERC4626ExceededMaxRedeem","inputs":[{"name":"owner","type":"address","internalType":"address"},{"name":"shares","type":"uint256","internalType":"uint256"},{"name":"max","type":"uint256","internalType":"uint256"}]},{"type":"error","name":"ERC4626ExceededMaxWithdraw","inputs":[{"name":"owner","type":"address","internalType":"address"},{"name":"assets","type":"uint256","internalType":"uint256"},{"name":"max","type":"uint256","internalType":"uint256"}]},{"type":"error","name":"EnforcedPause","inputs":[]},{"type":"error","name":"ExcessiveYieldAmount","inputs":[{"name":"collection","type":"address","internalType":"address"},{"name":"requested","type":"uint256","internalType":"uint256"},{"name":"maxAllowed","type":"uint256","internalType":"uint256"}]},{"type":"error","name":"ExpectedPause","inputs":[]},{"type":"error","name":"FunctionDisabledUse","inputs":[{"name":"functionName","type":"string","internalType":"string"}]},{"type":"error","name":"InsufficientBalanceInProtocol","inputs":[]},{"type":"error","name":"LendingManagerDepositFailed","inputs":[]},{"type":"error","name":"LendingManagerMismatch","inputs":[]},{"type":"error","name":"LendingManagerWithdrawFailed","inputs":[]},{"type":"error","name":"ReentrancyGuardReentrantCall","inputs":[]},{"type":"error","name":"SafeERC20FailedOperation","inputs":[{"name":"token","type":"address","internalType":"address"}]},{"type":"error","name":"ShareBalanceUnderflow","inputs":[]},{"type":"error","name":"Vault_InsufficientBalancePostLMWithdraw","inputs":[]}],"bytecode":{"object":"0x60c0806040523461035e57614901803803809161001c8285610578565b8339810160a08282031261035e576100338261059b565b60208301519092906001600160401b03811161035e57826100559183016105ca565b604082015190926001600160401b03821161035e576100759183016105ca565b9261008e60806100876060850161059b565b930161059b565b835190936001600160401b03821161047b5760035490600182811c9216801561056e575b602083101461045d5781601f849311610500575b50602090601f831160011461049a575f9261048f575b50508160011b915f199060031b1c1916176003555b83516001600160401b03811161047b57600454600181811c91168015610471575b602082101461045d57601f81116103fa575b50602094601f8211600114610397579481929394955f9261038c575b50508160011b915f199060031b1c1916176004555b61015e81610719565b9015610384575b60a052608081905260016006556001600160a01b0381168015610375576001600160a01b03831615610375576001600160a01b0384169182610214575b6101c184670de0b6b3a7640000600a556101bb81610610565b50610686565b5060405161408c9081610815823960805181818161088601528181610ba301528181610e8901528181611cdf015281816122c001528181612cb80152818161387a0152613ada015260a05181611d680152f35b6040516338d52e0f60e01b8152602081600481875afa801561036a5783915f9161032a575b506001600160a01b03160361031b576101c19460075490610100600160a81b039060081b1690610100600160a81b031916176007556040519160205f81850163095ea7b360e01b8152866024870152811960448701526044865261029e606487610578565b85519082865af1903d5f5190836102fc575b5050506101a2576102ef6102f4936040519063095ea7b360e01b602083015260248201525f6044820152604481526102e9606482610578565b826107bc565b6107bc565b5f80806101a2565b9192509061031157503b15155b5f80806102b0565b6001915014610309565b630ebbc86b60e31b5f5260045ffd5b9150506020813d602011610362575b8161034660209383610578565b8101031261035e57610358839161059b565b5f610239565b5f80fd5b3d9150610339565b6040513d5f823e3d90fd5b639fabe1c160e01b5f5260045ffd5b506012610165565b015190505f80610140565b601f1982169560045f52805f20915f5b8881106103e2575083600195969798106103ca575b505050811b01600455610155565b01515f1960f88460031b161c191690555f80806103bc565b919260206001819286850151815501940192016103a7565b60045f527f8a35acfbc15ff81a39ae7d344fd709f28e8600b4aa8c65c6b64bfe7fe36bd19b601f830160051c81019160208410610453575b601f0160051c01905b8181106104485750610124565b5f815560010161043b565b9091508190610432565b634e487b7160e01b5f52602260045260245ffd5b90607f1690610112565b634e487b7160e01b5f52604160045260245ffd5b015190505f806100dc565b60035f9081528281209350601f198516905b8181106104e857509084600195949392106104d0575b505050811b016003556100f1565b01515f1960f88460031b161c191690555f80806104c2565b929360206001819287860151815501950193016104ac565b60035f529091507fc2575a0e9e593c00f959f8c92f12db2869c3395a3b0502d05e2516446f71f85b601f840160051c81019160208510610564575b90601f859493920160051c01905b81811061055657506100c6565b5f8155849350600101610549565b909150819061053b565b91607f16916100b2565b601f909101601f19168101906001600160401b0382119082101761047b57604052565b51906001600160a01b038216820361035e57565b6001600160401b03811161047b57601f01601f191660200190565b81601f8201121561035e578051906105e1826105af565b926105ef6040519485610578565b8284526020838301011161035e57815f9260208093018386015e8301015290565b6001600160a01b0381165f9081525f5160206148e15f395f51905f52602052604090205460ff16610681576001600160a01b03165f8181525f5160206148e15f395f51905f5260205260408120805460ff191660011790553391905f5160206148a15f395f51905f528180a4600190565b505f90565b6001600160a01b0381165f9081525f5160206148c15f395f51905f52602052604090205460ff16610681576001600160a01b03165f8181525f5160206148c15f395f51905f5260205260408120805460ff191660011790553391907fa49807205ce4d355092ef5a8a18f56e8913cf4a201fbe287825b095693c21775905f5160206148a15f395f51905f529080a4600190565b5f8091604051602081019063313ce56760e01b82526004815261073d602482610578565b51916001600160a01b03165afa3d156107b4573d9061075b826105af565b916107696040519384610578565b82523d5f602084013e5b806107a8575b610785575b505f905f90565b60208180518101031261035e576020015160ff811161077e579060ff6001921690565b50602081511015610779565b606090610773565b905f602091828151910182855af11561036a575f513d61080b57506001600160a01b0381163b155b6107eb5750565b635274afe760e01b5f9081526001600160a01b0391909116600452602490fd5b600114156107e456fe6080806040526004361015610012575f80fd5b5f905f3560e01c908163017c3e60146120bc5750806301e1d114146120a257806301ffc9a71461204c57806306fdde0314611f5857806307a2d13a146118ea578063095ea7b314611eb05780630a28a47714611e9257806318160ddd14611e755780631e62a02d14611e3a57806323b872dd14611e18578063248a9ca314611ded5780632f2ff15d14611daf578063313ce56714611d5457806336568abe14611d0e57806338d52e0f14611cca5780633f4ba83a14611c64578063402d267d14610d1857806343add2e614611bdf57806344061d9014611af0578063476f4840146118ef5780634cdad506146118ea57806354d703bd146118c75780635780b963146118895780635c975abb146118665780636aebd9731461183c5780636cc8427d146117f25780636e553f651461179a57806370a08231146109db57806375b238fc1461175f5780638456cb591461170457806384f1bc62146116105780638f6fbf091461151657806391d14854146114cc57806394bf804d1461147757806395d89b411461136e57806396a86a0c146113465780639bfdf2f7146112b65780639e3b77af14611289578063a217fddf1461126d578063a40589f814611249578063a9059cbb14611229578063af44c25514611190578063b3d7f6b91461120a578063b460af94146111ba578063b777451c14611190578063b839eaf814610dad578063b94305aa14610d6b578063ba08765214610d1d578063c63d75b614610d18578063c6e6f5921461067d578063c869d0ed14610b00578063ce96cb7714610ac7578063d4d59edb14610a64578063d547741f14610a1c578063d905777e146109db578063da721076146107f5578063dd62ed3e146107a2578063e2d2bfe314610779578063e5890f2014610682578063ef8b30f71461067d578063f30bd63f1461038c5763fbc0d706146102c8575f80fd5b3461038957806003193601126103895780600b548290600b545b8183106102f85760208461ffff60405191168152f35b90919281841015610375577f0175b7a638427703f0dbe7bb9bbf987a2551717b34e79f33b5b1008d1fa01db9840154600386901b1c6001600160a01b031685526009602052604085206004015461ffff91821690821601908111610361579260010191906102e2565b634e487b7160e01b85526011600452602485fd5b634e487b7160e01b85526032600452602485fd5b80fd5b5034610389576020366003190112610389576004356103a961352b565b6103b161354b565b6103b96132bf565b6008546001600160a01b03169081156106295780156105c9576103da612786565b811161055e5760405163a29a839f60e01b815291602083600481845afa92831561055357849361051b575b5082156104bc578084913b156104b857604051633c172a4560e21b8152306004820152602481018490529082908290604490829084905af180156104ad57610494575b507f0e5c870408c6d8d0c00d7196a26cb06543f82789b6957194b02bdff50684d8b7918360209252600d825260408520610483828254612298565b9055604051908152a2600160065580f35b8161049e91612276565b6104a957825f610448565b8280fd5b6040513d84823e3d90fd5b5080fd5b60405162461bcd60e51b815260206004820152603160248201527f436f6c6c656374696f6e735661756c743a204e6f206163746976652065706f63604482015270341034b71022b837b1b426b0b730b3b2b960791b6064820152608490fd5b9092506020813d60201161054b575b8161053760209383612276565b810103126105475751915f610405565b5f80fd5b3d915061052a565b6040513d86823e3d90fd5b60405162461bcd60e51b815260206004820152603b60248201527f436f6c6c656374696f6e735661756c743a20416c6c6f636174696f6e20616d6f60448201527f756e74206578636565647320617661696c61626c65207969656c6400000000006064820152608490fd5b60405162461bcd60e51b815260206004820152603260248201527f436f6c6c656374696f6e735661756c743a20416c6c6f636174696f6e20616d6f604482015271756e742063616e6e6f74206265207a65726f60701b6064820152608490fd5b60405162461bcd60e51b815260206004820152602660248201527f436f6c6c656374696f6e735661756c743a2045706f63684d616e61676572206e6044820152651bdd081cd95d60d21b6064820152608490fd5b612228565b503461038957806003193601126103895761069b6132bf565b6106a361354b565b6106ab61352b565b6106b3613566565b60405180816020600b549283815201600b85527f0175b7a638427703f0dbe7bb9bbf987a2551717b34e79f33b5b1008d1fa01db992855b8181106107575750506106ff92500382612276565b8051825b8181106107135783600160065580f35b825181101561074357600581901b8301602001516001919061073d906001600160a01b031661372d565b01610703565b634e487b7160e01b84526032600452602484fd5b84546001600160a01b03168352600194850194869450602090930192016106ea565b50346103895780600319360112610389576008546040516001600160a01b039091168152602090f35b50346103895760403660031901126103895760406107be61211e565b916107c7612134565b9260018060a01b031681526001602052209060018060a01b03165f52602052602060405f2054604051908152f35b503461038957610804366121da565b6108109391929361352b565b61081861354b565b610820613566565b6108298161372d565b6001600160a01b0316808552600960205260408520600101548083116109c157826108f49161085782613264565b9661086183613abf565b6001600160a01b0387169661087f908990338a90036109b157613e0f565b6108b383827f00000000000000000000000000000000000000000000000000000000000000006001600160a01b0316613ea6565b60018060a01b031695866040518481528960208201527ffbde797d201c681b91056529119e0b02407c7bb96a4a2c75c01fc9667232c8db60403392a4612413565b8186526009602052600160408720015580855260096020526040852094600286019081549086821080156109a4575b61099557509560039161093887602099612413565b905501610946858254612413565b90556040805192835260208301859052820184905233917f7d04be3758d1ab0d8d44adf00e750a53c23ceec5e52516e2f8a99402b06ea4f79080606081015b0390a46001600655604051908152f35b63cf26439b60e01b8152600490fd5b5086600389015410610923565b6109bc823383613d6d565b613e0f565b606492869263ae86887160e01b8452600452602452604452fd5b5034610389576020366003190112610389576020610a146109fa61211e565b6001600160a01b03165f9081526020819052604090205490565b604051908152f35b503461038957604036600319011261038957610a60600435610a3c612134565b90610a5b610a56825f526005602052600160405f20015490565b61332e565b6134a7565b5080f35b503461038957602036600319011261038957610a7e61211e565b610a866132bf565b610a8e61354b565b6001600160a01b03168015610ab8576bffffffffffffffffffffffff60a01b600854161760085580f35b639fabe1c160e01b8252600482fd5b503461038957602036600319011261038957602090610a14906040906001600160a01b03610af361211e565b1681528084522054613237565b503461038957602036600319011261038957610b1a61211e565b610b226132bf565b610b2a61354b565b6001600160a01b0381168015610d095760078054610100600160a81b03198116600894851b610100600160a81b031617918290556040516338d52e0f60e01b815290841c6001600160a01b03908116949192602092849260049284921c165afa908115610553578491610cc3575b506001600160a01b037f000000000000000000000000000000000000000000000000000000000000000081169116819003610cb45782610ca5575b60405160208581830163095ea7b360e01b81528560248501525f19604485015260448452610c02606485612276565b83519082865af185513d82610c89575b505015610c45575b505033917fed72d72871e2bd0cdb042dca939ba7543ae2b81b0cc3cd751a82265665aadccb8480a480f35b610c8291610c7d60405163095ea7b360e01b602082015285602482015287604482015260448152610c77606482612276565b82613f40565b613f40565b5f80610c1a565b909150610c9d5750813b15155b5f80610c12565b600114610c96565b610caf8382613cbf565b610bd3565b630ebbc86b60e31b8452600484fd5b90506020813d602011610d01575b81610cde60209383612276565b81010312610cfd57516001600160a01b0381168103610cfd575f610b98565b8380fd5b3d9150610cd1565b639fabe1c160e01b8352600483fd5b61214a565b503461038957610d2c3661216f565b50506040516378c721c760e11b81526020600482015260136024820152723932b232b2b6a337b921b7b63632b1ba34b7b760691b604482015260649150fd5b503461038957602036600319011261038957610d8561211e565b610d8d6132bf565b610d9561354b565b6001600160a01b03811615610ab857610a6090613368565b503461038957610dbc366121da565b610dca94939492919261352b565b610dd261354b565b610dda613566565b610de38161372d565b6001600160a01b0316808452600960205260408420600101546002549490610e0a87613237565b938415611132575b610e1b85613abf565b6001600160a01b03861695610e39908990338990036109b157613e0f565b82867fddf252ad1be2c89b69c2b068fc378daa952ba7f163c4a11628f55a4df523b3ef60206040518c8152a38496881480611129575b611035575b6040516370a0823160e01b81523060048201527f00000000000000000000000000000000000000000000000000000000000000006001600160a01b031690602081602481855afa90811561102a579089918691610ff5575b5010610fe6578782610edd92613ea6565b60018060a01b031694856040518881528960208201527ffbde797d201c681b91056529119e0b02407c7bb96a4a2c75c01fc9667232c8db60403392a483818111610fce57610f2a91612413565b828252600960205260016040832001555b8181526009602052604081209060028201908154908882108015610fc1575b61099557509660037f7d04be3758d1ab0d8d44adf00e750a53c23ceec5e52516e2f8a99402b06ea4f79361098593610f948460209c612413565b905501610fa2828254612413565b9055604080519586526020860182905285015233939081906060820190565b5088600385015410610f5a565b50508181526009602052806001604082200155610f3b565b63724da00760e01b8452600484fd5b9150506020813d602011611022575b8161101160209383612276565b81010312610547578890515f610ecc565b3d9150611004565b6040513d87823e3d90fd5b6007546040516278744560e21b815260089190911c6001600160a01b031690602081600481855afa90811561102a5785916110f7575b50611077575b50610e74565b83919750602090602460405180948193635eb8fa6f60e01b83523060048401525af180156110ec5783906110b8575b6110b1915085612298565b955f611071565b506020813d6020116110e4575b816110d260209383612276565b81010312610547576110b190516110a6565b3d91506110c5565b6040513d85823e3d90fd5b90506020813d602011611121575b8161111260209383612276565b8101031261054757515f61106b565b3d9150611105565b50871515610e6f565b8715610e125760405162461bcd60e51b815260206004820152602a60248201527f455243343632363a2072656465656d20726f756e647320646f776e20746f207a60448201526965726f2061737365747360b01b6064820152608490fd5b50346103895760203660031901126103895760406020916004358152600d83522054604051908152f35b5034610389576111c93661216f565b50506040516378c721c760e11b81526020600482015260156024820152743bb4ba34323930bba337b921b7b63632b1ba34b7b760591b604482015260649150fd5b5034610389576020366003190112610389576020610a14600435613209565b50346103895760403660031901126103895761124361211e565b506123a4565b5034610389576020366003190112610389576020610a1461126861211e565b613123565b5034610389578060031936011261038957602090604051908152f35b503461038957806003193601126103895760075460405160089190911c6001600160a01b03168152602090f35b5034610389576040366003190112610389576112d061211e565b6024359061ffff82168092036104a9576112e86132bf565b6112f061354b565b6001600160a01b0381169081156113375761131b9061130d613566565b61131681613674565b61372d565b82526009602052600460408320019061ffff1982541617905580f35b639fabe1c160e01b8452600484fd5b503461038957806003193601126103895760206040515f5160206140375f395f51905f528152f35b50346103895780600319360112610389576040519080600454908160011c9160018116801561146d575b6020841081146114595783865290811561143257506001146113d5575b6113d1846113c581860382612276565b604051918291826120d6565b0390f35b600481527f8a35acfbc15ff81a39ae7d344fd709f28e8600b4aa8c65c6b64bfe7fe36bd19b939250905b808210611418575090915081016020016113c5826113b5565b9192600181602092548385880101520191019092916113ff565b60ff191660208087019190915292151560051b850190920192506113c591508390506113b5565b634e487b7160e01b83526022600452602483fd5b92607f1692611398565b503461038957604036600319011261038957611491612134565b506040516378c721c760e11b815260206004820152601160248201527036b4b73a2337b921b7b63632b1ba34b7b760791b6044820152606490fd5b50346103895760403660031901126103895760406114e8612134565b9160043581526005602052209060018060a01b03165f52602052602060ff60405f2054166040519015158152f35b50346103895760803660031901126103895760043567ffffffffffffffff81116104b8576115489036906004016121a9565b919060243567ffffffffffffffff81116104a95761156a9036906004016121a9565b9060443567ffffffffffffffff811161160c5761158b9036906004016121a9565b9290915f5160206140375f395f51905f52865260056020526040862060018060a01b0333165f5260205260ff60405f205416156115e8576115e095966115cf61354b565b6115d761352b565b60643595612c45565b600160065580f35b63e2517d3f60e01b8652336004525f5160206140375f395f51905f52602452604486fd5b8480fd5b50346103895760209060406116243661216f565b61162f93919361352b565b61163761354b565b61163f613566565b61164881613674565b6116518161372d565b6001600160a01b031680855260098652932092600361166f83613209565b9461167c84878733613834565b6116858661395e565b60018101611694878254612298565b9055600281016116a5858254612298565b9055016116b3838254612298565b90556040805185815260208101849052908101929092526001600160a01b039092169133917fe619f47e82caeee4ee7f64588a6c7eca209f646fce7a915293151653db58442e908060608101610985565b503461038957806003193601126103895761171d6132bf565b61172561354b565b600160ff1960075416176007557f62e78cea01bee320cd4e420270b5ea74000d11b0c9f74754ebdbfc544b05a2586020604051338152a180f35b503461038957806003193601126103895760206040517fa49807205ce4d355092ef5a8a18f56e8913cf4a201fbe287825b095693c217758152f35b5034610389576040366003190112610389576117b4612134565b506040516378c721c760e11b81526020600482015260146024820152733232b837b9b4ba2337b921b7b63632b1ba34b7b760611b6044820152606490fd5b503461038957604036600319011261038957604061180e612134565b916004358152600e602052209060018060a01b03165f52602052602060ff60405f2054166040519015158152f35b503461038957602036600319011261038957600435908115158203610389576020610a14836129b3565b5034610389578060031936011261038957602060ff600754166040519015158152f35b5034610389576040366003190112610389576115e06118a661211e565b6118ae61352b565b6118b661354b565b6118be6132bf565b60243590612420565b50346103895780600319360112610389576020604051670de0b6b3a76400008152f35b612100565b50346105475760203660031901126105475760043561190c61352b565b61191461354b565b61191c6132bf565b6008546001600160a01b031680156106295760405163a29a839f60e01b8152602081600481855afa9081156119fb575f91611abe575b508214801590611ab6575b611a6757611969612786565b908115611a0657803b1561054757604051633c172a4560e21b815230600482015260248101839052905f908290604490829084905af180156119fb576119e5575b5060207f0e5c870408c6d8d0c00d7196a26cb06543f82789b6957194b02bdff50684d8b791838552600d825260408520610483828254612298565b6119f29193505f90612276565b5f9160206119aa565b6040513d5f823e3d90fd5b60405162461bcd60e51b815260206004820152603360248201527f436f6c6c656374696f6e735661756c743a204e6f207969656c6420617661696c60448201527230b13632903337b91030b63637b1b0ba34b7b760691b6064820152608490fd5b60405162461bcd60e51b815260206004820152602160248201527f436f6c6c656374696f6e735661756c743a20496e76616c69642065706f6368496044820152601960fa1b6064820152608490fd5b50811561195d565b90506020813d602011611ae8575b81611ad960209383612276565b8101031261054757515f611952565b3d9150611acc565b34610547576020611b003661216f565b611b0861352b565b611b1061354b565b611b18613566565b611b2181613674565b611b2a8161372d565b6001600160a01b03165f818152600985526040902092906003611b4c83613292565b94611b5986858733613834565b611b628461395e565b60018101611b71858254612298565b905560028101611b82878254612298565b905501611b90858254612298565b9055604080519283526020830185905282018490526001600160a01b039092169133917fe619f47e82caeee4ee7f64588a6c7eca209f646fce7a915293151653db58442e908060608101610985565b34610547576020366003190112610547576001600160a01b03611c0061211e565b165f52600960205260e060405f2060018060a01b03815416906001810154906002810154600382015461ffff600484015416916006600585015494015494604051968752602087015260408601526060850152608084015260a083015260c0820152f35b34610547575f36600319011261054757611c7c6132bf565b60075460ff811615611cbb5760ff19166007557f5db9ee0a495bf2e6ff9c91a7834c1ba4fdd244a5e8aa4e537bd38aeae4b073aa6020604051338152a1005b638dfc202b60e01b5f5260045ffd5b34610547575f366003190112610547576040517f00000000000000000000000000000000000000000000000000000000000000006001600160a01b03168152602090f35b3461054757604036600319011261054757611d27612134565b336001600160a01b03821603611d4557611d43906004356134a7565b005b63334bd91960e11b5f5260045ffd5b34610547575f3660031901126105475760ff7f00000000000000000000000000000000000000000000000000000000000000001660ff8111611d9b57602090604051908152f35b634e487b7160e01b5f52601160045260245ffd5b3461054757604036600319011261054757611d43600435611dce612134565b90611de8610a56825f526005602052600160405f20015490565b613421565b34610547576020366003190112610547576020610a146004355f526005602052600160405f20015490565b3461054757606036600319011261054757611e3161211e565b50611243612134565b34610547576020366003190112610547576001600160a01b03611e5b61211e565b165f5260096020526020600560405f200154604051908152f35b34610547575f366003190112610547576020600254604051908152f35b34610547576020366003190112610547576020610a14600435613264565b3461054757604036600319011261054757611ec961211e565b602435903315611f45576001600160a01b0316908115611f3257335f52600160205260405f20825f526020528060405f20556040519081527f8c5be1e5ebec7d5bd14f71427d1e84f3dd0314c0f7b2291e5b200ac8c7c3b92560203392a3602060405160018152f35b634a1406b160e11b5f525f60045260245ffd5b63e602df0560e01b5f525f60045260245ffd5b34610547575f366003190112610547576040515f6003548060011c90600181168015612042575b60208310811461202e5782855290811561200a5750600114611fac575b6113d1836113c581850382612276565b91905060035f527fc2575a0e9e593c00f959f8c92f12db2869c3395a3b0502d05e2516446f71f85b915f905b808210611ff0575090915081016020016113c5611f9c565b919260018160209254838588010152019101909291611fd8565b60ff191660208086019190915291151560051b840190910191506113c59050611f9c565b634e487b7160e01b5f52602260045260245ffd5b91607f1691611f7f565b346105475760203660031901126105475760043563ffffffff60e01b811680910361054757602090637965db0b60e01b8114908115612091575b506040519015158152f35b6301ffc9a760e01b14905082612086565b34610547575f366003190112610547576020610a146122a5565b34610547575f36600319011261054757602090600a548152f35b602060409281835280519182918282860152018484015e5f828201840152601f01601f1916010190565b34610547576020366003190112610547576020610a14600435613237565b600435906001600160a01b038216820361054757565b602435906001600160a01b038216820361054757565b346105475760203660031901126105475761216361211e565b5060206040515f198152f35b606090600319011261054757600435906024356001600160a01b038116810361054757906044356001600160a01b03811681036105475790565b9181601f840112156105475782359167ffffffffffffffff8311610547576020808501948460051b01011161054757565b608090600319011261054757600435906024356001600160a01b038116810361054757906044356001600160a01b038116810361054757906064356001600160a01b03811681036105475790565b34610547576020366003190112610547576020610a14600435613292565b60e0810190811067ffffffffffffffff82111761226257604052565b634e487b7160e01b5f52604160045260245ffd5b90601f8019910116810190811067ffffffffffffffff82111761226257604052565b91908201809211611d9b57565b6040516370a0823160e01b81523060048201526020816024817f00000000000000000000000000000000000000000000000000000000000000006001600160a01b03165afa80156119fb575f90612371575b6007546040516278744560e21b815292506020908390600490829060081c6001600160a01b03165afa9081156119fb575f9161233b575b6123389250612298565b90565b90506020823d602011612369575b8161235660209383612276565b810103126105475761233891519061232e565b3d9150612349565b506020813d60201161239c575b8161238b60209383612276565b8101031261054757600490516122f7565b3d915061237e565b6040516378c721c760e11b81526020600482015260156024820152743a3930b739b332b92337b921b7b63632b1ba34b7b760591b6044820152606490fd5b81810292918115918404141715611d9b57565b81156123ff570490565b634e487b7160e01b5f52601260045260245ffd5b91908203918211611d9b57565b6008549091906001600160a01b031615610629576001600160a01b03821691821561277757825f52600c60205260ff60405f2054161561271e57815f52600e60205260405f20835f5260205260ff60405f2054166126a557815f52600d60205260405f20549081156126275761249890611316613566565b825f52600960205260405f2090600482019061ffff825416156125c8576124c86127109161ffff845416906123e2565b0491835f52600d60205260405f205483116125745782600161ffff6060947f22b754fbff211f5e23ae31958825e104905fb1b8de65180b45d0b93342a8c3d196612546575b875f52600e60205260405f20895f5260205260405f208360ff1982541617905554169201549060405192835260208301526040820152a3565b828501612554858254612298565b9055875f52600d60205260405f2061256d858254612413565b905561250d565b60405162461bcd60e51b815260206004820152602660248201527f436f6c6c656374696f6e735661756c743a20416c6c6f636174696f6e20756e646044820152656572666c6f7760d01b6064820152608490fd5b5050606060017f22b754fbff211f5e23ae31958825e104905fb1b8de65180b45d0b93342a8c3d192845f52600e60205260405f20865f5260205260405f208260ff198254161790550154604051905f82525f60208301526040820152a3565b5050805f52600e60205260405f20825f5260205260405f20600160ff19825416179055815f5260096020527f22b754fbff211f5e23ae31958825e104905fb1b8de65180b45d0b93342a8c3d1606061ffff600460405f20015416845f526009602052600160405f2001546040519182525f60208301526040820152a3565b60405162461bcd60e51b815260206004820152604560248201527f436f6c6c656374696f6e735661756c743a205969656c6420616c72656164792060448201527f6170706c69656420666f72207468697320636f6c6c656374696f6e20616e64206064820152640cae0dec6d60db1b608482015260a490fd5b60405162461bcd60e51b815260206004820152602b60248201527f436f6c6c656374696f6e735661756c743a20436f6c6c656374696f6e206e6f7460448201526a081c9959da5cdd195c995960aa1b6064820152608490fd5b639fabe1c160e01b5f5260045ffd5b60075460081c6001600160a01b031680156129ae576040516278744560e21b8152602081600481855afa9081156119fb575f9161297c575b5060405163100e176560e31b815290602082600481865afa9182156119fb575f92612948575b501115612941576040516278744560e21b815290602082600481845afa9182156119fb575f9261290c575b509060206004926040519384809263100e176560e31b82525afa9081156119fb575f916128d6575b6128419250612413565b6008546001600160a01b0316801561289e5760206004916040519283809263a29a839f60e01b82525afa9081156119fb575f916128a4575b50801561289e575f52600d60205260405f20548082115f1461289e5761233891612413565b50505f90565b90506020813d6020116128ce575b816128bf60209383612276565b8101031261054757515f612879565b3d91506128b2565b90506020823d602011612904575b816128f160209383612276565b8101031261054757612841915190612837565b3d91506128e4565b91506020823d602011612939575b8161292760209383612276565b8101031261054757905190602061280f565b3d915061291a565b505f612841565b9091506020813d602011612974575b8161296460209383612276565b810103126105475751905f6127e4565b3d9150612957565b90506020813d6020116129a6575b8161299760209383612276565b8101031261054757515f6127be565b3d915061298a565b505f90565b60075460081c6001600160a01b0316801561289e576040516278744560e21b8152602081600481855afa9081156119fb575f91612b77575b5060405163100e176560e31b815290602082600481865afa9182156119fb575f92612b43575b501115612b3b576040516278744560e21b815290602082600481845afa9182156119fb575f92612b06575b509060206004926040519384809263100e176560e31b82525afa9081156119fb575f91612ad0575b612a6e9250612413565b905b612338576008546001600160a01b0316801561289e5760206004916040519283809263a29a839f60e01b82525afa9081156119fb575f916128a45750801561289e575f52600d60205260405f20548082115f1461289e5761233891612413565b90506020823d602011612afe575b81612aeb60209383612276565b8101031261054757612a6e915190612a64565b3d9150612ade565b91506020823d602011612b33575b81612b2160209383612276565b81010312610547579051906020612a3c565b3d9150612b14565b505f90612a70565b9091506020813d602011612b6f575b81612b5f60209383612276565b810103126105475751905f612a11565b3d9150612b52565b90506020813d602011612ba1575b81612b9260209383612276565b8101031261054757515f6129eb565b3d9150612b85565b9190811015612bb95760051b0190565b634e487b7160e01b5f52603260045260245ffd5b356001600160a01b03811681036105475790565b6010545f60105580612bf05750565b60105f527f1b6847dc741a1b0cd08d278845f9d819d87b734759afb55fe2de5cb82a9ae672908101905b818110612c25575050565b5f8155600101612c1a565b8054821015612bb9575f5260205f2001905f90565b95949392909192818514801590613119575b6130c35785156130ba57612c69613566565b5f5b8581106130405750612c7c86613abf565b60075460405163095ea7b360e01b602080830191825260089390931c6001600160a01b039081166024840181905260448085019b909b529983527f0000000000000000000000000000000000000000000000000000000000000000169892905f90612ce8606485612276565b835190828c5af15f513d82613024575b505015612fdf575b5050612d0a612be1565b5f5b858110612f355750505f956010545f905b808210612de5575050612d2e612be1565b5f5b858110612d8357505050505050612d559060018060a01b0360075460081c1690613cbf565b6040519081527faf55a1278d05b25a81718352502b10bbece77cee463633323b8e92d2d5ad009560203392a2565b80612d916001928588612ba9565b3515612de057612daa612da5828786612ba9565b612bcd565b612db5828689612ba9565b3590838060a01b03165f526009602052612dd7600560405f2001918254612298565b90555b01612d30565b612dda565b9097601054891015612bb9577f1b6847dc741a1b0cd08d278845f9d819d87b734759afb55fe2de5cb82a9ae6728901546001600160a01b039081165f818152600f602090815260408083205460075491516304c11f0360e31b81526004810186905260248101829052949e90969095909493849260449284929160081c165af19081156119fb575f91612f04575b50612e9957600192612e8491612298565b995f52600f6020525f60408120550190612d1d565b60405162461bcd60e51b815260206004820152603f60248201527f436f6c6c656374696f6e735661756c743a20526570617920626f72726f77206260448201527f6568616c66206661696c656420766961204c656e64696e674d616e61676572006064820152608490fd5b90506020813d8211612f2d575b81612f1e60209383612276565b8101031261054757515f612e73565b3d9150612f11565b612f40818487612ba9565b359081612f52575b6001915001612d0c565b6001600160a01b03612f68612da5838a87612ba9565b1691825f52600f60205260405f205415612f9d575b6001925f52600f602052612f9660405f20918254612298565b9055612f48565b60105492600160401b84101561226257612fc08460018096016010556010612c30565b81549060031b9083821b91878060a01b03901b19161790559250612f7d565b61301761301d926040519063095ea7b360e01b602083015260248201525f604482015260448152613011606482612276565b89613f40565b87613f40565b5f80612d00565b9091506130385750873b15155b5f80612cf8565b600114613031565b61304b818487612ba9565b35156130b25761305f612da582868b612ba9565b61306a828588612ba9565b356130748261372d565b61307e81836139ec565b929015613092575050506001905b01612c6b565b6335a9aa2f60e11b5f5260018060a01b031660045260245260445260645ffd5b60019061308c565b50505050505050565b60405162461bcd60e51b815260206004820152602860248201527f436f6c6c656374696f6e735661756c743a204172726179206c656e67746873206044820152670dad2e6dac2e8c6d60c31b6064820152608490fd5b5082851415612c57565b60018060a01b03165f52600960205260405f2060405161314281612246565b81546001600160a01b03168082526001830154602083018181526002850154604085015260038501546060850152600485015461ffff1660808501818152600587015460a087015260069096015460c090950185905290939215908115613200575b5080156131f4575b6131ed57506131e56123389361ffff6131dc6131d569021e19e0c9bab240000095600a54612413565b86516123e2565b915116906123e2565b049051612298565b9250505090565b5081600a5411156131ac565b9050155f6131a4565b6132116122a5565b9060018201809211611d9b5760025460018101809111611d9b5761233892600192613ee2565b61323f6122a5565b9060018201809211611d9b5760025460018101809111611d9b57612338925f92613ee2565b6002549060018201809211611d9b5761327b6122a5565b60018101809111611d9b5761233892600192613ee2565b6002549060018201809211611d9b576132a96122a5565b60018101809111611d9b57612338925f92613ee2565b335f9081527fd8ef4509105c3edb0b04658b4528edc5ddd30ea5a81e623a2623c88db1eb54b6602052604090205460ff16156132f757565b63e2517d3f60e01b5f52336004527fa49807205ce4d355092ef5a8a18f56e8913cf4a201fbe287825b095693c2177560245260445ffd5b5f81815260056020908152604080832033845290915290205460ff16156133525750565b63e2517d3f60e01b5f523360045260245260445ffd5b6001600160a01b0381165f9081527fa01c6dab41afbaf71f77b0ec32e349ced011741063524fbddf6b7ae0dcdc3889602052604090205460ff166129ae576001600160a01b03165f8181527fa01c6dab41afbaf71f77b0ec32e349ced011741063524fbddf6b7ae0dcdc388960205260408120805460ff191660011790553391905f5160206140375f395f51905f52907f2f8788117e7eff1d82e926ec794901d17c78024a50270940304540a733656f0d9080a4600190565b5f8181526005602090815260408083206001600160a01b038616845290915290205460ff1661289e575f8181526005602090815260408083206001600160a01b0395909516808452949091528120805460ff19166001179055339291907f2f8788117e7eff1d82e926ec794901d17c78024a50270940304540a733656f0d9080a4600190565b5f8181526005602090815260408083206001600160a01b038616845290915290205460ff161561289e575f8181526005602090815260408083206001600160a01b0395909516808452949091528120805460ff19169055339291907ff6391f5c32d9c69d2a47ea670b442974b53935d1edc7fd64eb21e047a839171b9080a4600190565b60026006541461353c576002600655565b633ee5aeb560e01b5f5260045ffd5b60ff6007541661355757565b63d93c066560e01b5f5260045ffd5b60075460081c6001600160a01b031680156136715760405163100e176560e31b8152602081600481855afa9081156119fb575f9161363f575b50801561363b576020600492604051938480926278744560e21b82525afa9182156119fb575f92613607575b50670de0b6b3a7640000820291808304670de0b6b3a76400001490151715611d9b576135f6916123f5565b600a5481116136025750565b600a55565b9091506020813d602011613633575b8161362360209383612276565b810103126105475751905f6135cb565b3d9150613616565b5050565b90506020813d602011613669575b8161365a60209383612276565b8101031261054757515f61359f565b3d915061364d565b50565b6001600160a01b03165f818152600c602052604090205460ff16156136965750565b805f52600c60205260405f20600160ff19825416179055600b54600160401b811015612262578060016136ce9201600b55600b612c30565b81546001600160a01b0360039290921b82811b199091169084901b179091555f828152600960205260409020805490911615613708575050565b80546001600160a01b03191690911781556006018054156137265750565b600a549055565b60018060a01b0316805f52600960205260405f2090805f52600c60205260ff60405f205416158015613822575b61363b5761ffff60048301541680156138165760068301928354600a5481811161378b575b5050505050600a549055565b6137b960016137a58469021e19e0c9bab240000094612413565b9401946137b4865495866123e2565b6123e2565b0490811561377f577fe7d7ea8aa11ec2e18d67e00de2b5dce7b65f8a032d8496015263d4217582e7c3936137ef83608095612298565b809155600a5490604051938452602084015260408301526060820152a25f8080808061377f565b50506006600a54910155565b5081546001600160a01b03161561375a565b6040516323b872dd60e01b60208201526001600160a01b0390911660248201819052306044830152606480830185905282529291906138a790613878608482612276565b7f00000000000000000000000000000000000000000000000000000000000000006001600160a01b0316613f40565b6001600160a01b0316928315613933577fdcbc1c05240f31ff3ad067ef1ee35ce4997762752e3a095284754544f4c709d791816138e8604093600254612298565b600255855f525f602052825f20818154019055855f7fddf252ad1be2c89b69c2b068fc378daa952ba7f163c4a11628f55a4df523b3ef60208651858152a382519182526020820152a3565b63ec442f0560e01b5f525f60045260245ffd5b90816020910312610547575180151581036105475790565b806139665750565b60075460405163690c42c160e11b81526004810192909252602090829060249082905f9060081c6001600160a01b03165af19081156119fb575f916139bd575b50156139ae57565b63d8449a5960e01b5f5260045ffd5b6139df915060203d6020116139e5575b6139d78183612276565b810190613946565b5f6139a6565b503d6139cd565b91909160018060a01b0381165f52600960205260405f209060405190613a1182612246565b60018060a01b03835416825260018301549160208101928352600284015460408201526003840154606082015261ffff6004850154169081608082015260c0600660058701549660a08401978852015491015215613ab557613a7290613123565b905180821115613aac57613a8591612413565b905b5180821115613aa257613a9991612413565b80925b11159190565b50505f8092613a9c565b50505f90613a87565b5050509015905f90565b8015613671576040516370a0823160e01b81523060048201527f00000000000000000000000000000000000000000000000000000000000000006001600160a01b031690602081602481855afa9081156119fb575f91613c8d575b50828110613b2757505050565b613b319083612413565b6007546040516278744560e21b815260089190911c6001600160a01b03169190602081600481865afa9081156119fb575f91613c5b575b50811115613b77575b50505050565b8015613b71575f916024602092604051948593849263684a169760e11b845260048401525af19081156119fb575f91613c3c575b5015613c2d576020602491604051928380926370a0823160e01b82523060048301525afa9081156119fb575f91613bfb575b5010613bec575f808080613b71565b63724da00760e01b5f5260045ffd5b90506020813d602011613c25575b81613c1660209383612276565b8101031261054757515f613bdd565b3d9150613c09565b638b78daf760e01b5f5260045ffd5b613c55915060203d6020116139e5576139d78183612276565b5f613bab565b90506020813d602011613c85575b81613c7660209383612276565b8101031261054757515f613b68565b3d9150613c69565b90506020813d602011613cb7575b81613ca860209383612276565b8101031261054757515f613b1a565b3d9150613c9b565b6040519060205f8184019463095ea7b360e01b865260018060a01b03169485602486015281604486015260448552613cf8606486612276565b84519082855af15f513d82613d48575b505015613d1457505050565b610c7d613d46936040519063095ea7b360e01b602083015260248201525f604482015260448152610c77606482612276565b565b909150613d6557506001600160a01b0381163b15155b5f80613d08565b600114613d5e565b6001600160a01b039081165f818152600160209081526040808320948616835293905291909120549291905f198410613da65750505050565b828410613dec578015611f45576001600160a01b03821615611f32575f52600160205260405f209060018060a01b03165f5260205260405f20910390555f808080613b71565b508290637dc7a0d960e11b5f5260018060a01b031660045260245260445260645ffd5b9091906001600160a01b03168015613e9357805f525f60205260405f2054838110613e79576020845f94957fddf252ad1be2c89b69c2b068fc378daa952ba7f163c4a11628f55a4df523b3ef938587528684520360408620558060025403600255604051908152a3565b915063391434e360e21b5f5260045260245260445260645ffd5b634b637e8f60e11b5f525f60045260245ffd5b60405163a9059cbb60e01b60208201526001600160a01b03929092166024830152604480830193909352918152613d4691610c7d606483612276565b9291613eef818386613f98565b926004811015613f2c576001809116149182613f15575b50506123389250151590612298565b90809250156123ff57612338930915155f80613f06565b634e487b7160e01b5f52602160045260245ffd5b905f602091828151910182855af1156119fb575f513d613f8f57506001600160a01b0381163b155b613f6f5750565b635274afe760e01b5f9081526001600160a01b0391909116600452602490fd5b60011415613f68565b90915f19838309928083029283808610950394808603951461402957848311156140115790829109815f0382168092046002816003021880820260020302808202600203028082026002030280820260020302808202600203028091026002030293600183805f03040190848311900302920304170290565b82634e487b715f52156003026011186020526024601cfd5b50509061233892506123f556febcdd9bf55569a395cd79025821af7c971a1601b69479f021adc1b67f548673f3a26469706673582212203fc66554469ab08ac39d7ca96f8fafb84ee0e22b7261fc13078dcd011b7b14aa64736f6c634300081e00332f8788117e7eff1d82e926ec794901d17c78024a50270940304540a733656f0dd8ef4509105c3edb0b04658b4528edc5ddd30ea5a81e623a2623c88db1eb54b605b8ccbb9d4d8fb16ea74ce3c29a41f1b461fbdaff4714a0d9a8eb05499746bc","linkReferences":{}},"methodIdentifiers":{"ADMIN_ROLE()":"75b238fc","DEBT_SUBSIDIZER_ROLE()":"96a86a0c","DEFAULT_ADMIN_ROLE()":"a217fddf","GLOBAL_DEPOSIT_INDEX_PRECISION()":"54d703bd","allocateEpochYield(uint256)":"f30bd63f","allocateYieldToEpoch(uint256)":"476f4840","allowance(address,address)":"dd62ed3e","applyCollectionYieldForEpoch(address,uint256)":"5780b963","approve(address,uint256)":"095ea7b3","asset()":"38d52e0f","balanceOf(address)":"70a08231","collectionTotalAssetsDeposited(address)":"a40589f8","collectionYieldTransferred(address)":"1e62a02d","collections(address)":"43add2e6","convertToAssets(uint256)":"07a2d13a","convertToShares(uint256)":"c6e6f592","decimals()":"313ce567","deposit(uint256,address)":"6e553f65","depositForCollection(uint256,address,address)":"44061d90","epochCollectionYieldApplied(uint256,address)":"6cc8427d","epochManager()":"e2d2bfe3","epochYieldAllocations(uint256)":"af44c255","getCurrentEpochYield(bool)":"6aebd973","getEpochYieldAllocated(uint256)":"b777451c","getRoleAdmin(bytes32)":"248a9ca3","globalDepositIndex()":"017c3e60","grantRole(bytes32,address)":"2f2ff15d","hasRole(bytes32,address)":"91d14854","indexCollectionsDeposits()":"e5890f20","lendingManager()":"9e3b77af","maxDeposit(address)":"402d267d","maxMint(address)":"c63d75b6","maxRedeem(address)":"d905777e","maxWithdraw(address)":"ce96cb77","mint(uint256,address)":"94bf804d","mintForCollection(uint256,address,address)":"84f1bc62","name()":"06fdde03","pause()":"8456cb59","paused()":"5c975abb","previewDeposit(uint256)":"ef8b30f7","previewMint(uint256)":"b3d7f6b9","previewRedeem(uint256)":"4cdad506","previewWithdraw(uint256)":"0a28a477","redeem(uint256,address,address)":"ba087652","redeemForCollection(uint256,address,address,address)":"b839eaf8","renounceRole(bytes32,address)":"36568abe","repayBorrowBehalfBatch(address[],uint256[],address[],uint256)":"8f6fbf09","revokeRole(bytes32,address)":"d547741f","setCollectionYieldSharePercentage(address,uint16)":"9bfdf2f7","setDebtSubsidizer(address)":"b94305aa","setEpochManager(address)":"d4d59edb","setLendingManager(address)":"c869d0ed","supportsInterface(bytes4)":"01ffc9a7","symbol()":"95d89b41","totalAssets()":"01e1d114","totalCollectionYieldShareBps()":"fbc0d706","totalSupply()":"18160ddd","transfer(address,uint256)":"a9059cbb","transferFrom(address,address,uint256)":"23b872dd","unpause()":"3f4ba83a","withdraw(uint256,address,address)":"b460af94","withdrawForCollection(uint256,address,address,address)":"da721076"},"id":48}