{"abi":[{"type":"constructor","inputs":[{"name":"_asset","type":"address","internalType":"contract IERC20"},{"name":"_name","type":"string","internalType":"string"},{"name":"_symbol","type":"string","internalType":"string"},{"name":"initialAdmin","type":"address","internalType":"address"},{"name":"_lendingManagerAddress","type":"address","internalType":"address"}],"stateMutability":"nonpayable"},{"type":"function","name":"ADMIN_ROLE","inputs":[],"outputs":[{"name":"","type":"bytes32","internalType":"bytes32"}],"stateMutability":"view"},{"type":"function","name":"DEFAULT_ADMIN_ROLE","inputs":[],"outputs":[{"name":"","type":"bytes32","internalType":"bytes32"}],"stateMutability":"view"},{"type":"function","name":"REWARDS_CONTROLLER_ROLE","inputs":[],"outputs":[{"name":"","type":"bytes32","internalType":"bytes32"}],"stateMutability":"view"},{"type":"function","name":"allocateEpochYield","inputs":[{"name":"amount","type":"uint256","internalType":"uint256"}],"outputs":[],"stateMutability":"nonpayable"},{"type":"function","name":"allowance","inputs":[{"name":"owner","type":"address","internalType":"address"},{"name":"spender","type":"address","internalType":"address"}],"outputs":[{"name":"","type":"uint256","internalType":"uint256"}],"stateMutability":"view"},{"type":"function","name":"approve","inputs":[{"name":"spender","type":"address","internalType":"address"},{"name":"value","type":"uint256","internalType":"uint256"}],"outputs":[{"name":"","type":"bool","internalType":"bool"}],"stateMutability":"nonpayable"},{"type":"function","name":"asset","inputs":[],"outputs":[{"name":"","type":"address","internalType":"address"}],"stateMutability":"view"},{"type":"function","name":"balanceOf","inputs":[{"name":"account","type":"address","internalType":"address"}],"outputs":[{"name":"","type":"uint256","internalType":"uint256"}],"stateMutability":"view"},{"type":"function","name":"collectionRewardSharePercentage","inputs":[{"name":"","type":"address","internalType":"address"}],"outputs":[{"name":"","type":"uint16","internalType":"uint16"}],"stateMutability":"view"},{"type":"function","name":"collectionTotalAssetsDeposited","inputs":[{"name":"","type":"address","internalType":"address"}],"outputs":[{"name":"","type":"uint256","internalType":"uint256"}],"stateMutability":"view"},{"type":"function","name":"collectionYieldTransferred","inputs":[{"name":"","type":"address","internalType":"address"}],"outputs":[{"name":"","type":"uint256","internalType":"uint256"}],"stateMutability":"view"},{"type":"function","name":"convertToAssets","inputs":[{"name":"shares","type":"uint256","internalType":"uint256"}],"outputs":[{"name":"","type":"uint256","internalType":"uint256"}],"stateMutability":"view"},{"type":"function","name":"convertToShares","inputs":[{"name":"assets","type":"uint256","internalType":"uint256"}],"outputs":[{"name":"","type":"uint256","internalType":"uint256"}],"stateMutability":"view"},{"type":"function","name":"decimals","inputs":[],"outputs":[{"name":"","type":"uint8","internalType":"uint8"}],"stateMutability":"view"},{"type":"function","name":"deposit","inputs":[{"name":"assets","type":"uint256","internalType":"uint256"},{"name":"receiver","type":"address","internalType":"address"}],"outputs":[{"name":"shares","type":"uint256","internalType":"uint256"}],"stateMutability":"nonpayable"},{"type":"function","name":"depositForCollection","inputs":[{"name":"assets","type":"uint256","internalType":"uint256"},{"name":"receiver","type":"address","internalType":"address"},{"name":"collectionAddress","type":"address","internalType":"address"}],"outputs":[{"name":"shares","type":"uint256","internalType":"uint256"}],"stateMutability":"nonpayable"},{"type":"function","name":"epochManager","inputs":[],"outputs":[{"name":"","type":"address","internalType":"contract EpochManager"}],"stateMutability":"view"},{"type":"function","name":"epochYieldAllocations","inputs":[{"name":"","type":"uint256","internalType":"uint256"}],"outputs":[{"name":"","type":"uint256","internalType":"uint256"}],"stateMutability":"view"},{"type":"function","name":"getCurrentEpochYield","inputs":[],"outputs":[{"name":"availableYield","type":"uint256","internalType":"uint256"}],"stateMutability":"view"},{"type":"function","name":"getEpochYieldAllocated","inputs":[{"name":"epochId","type":"uint256","internalType":"uint256"}],"outputs":[{"name":"amount","type":"uint256","internalType":"uint256"}],"stateMutability":"view"},{"type":"function","name":"getRoleAdmin","inputs":[{"name":"role","type":"bytes32","internalType":"bytes32"}],"outputs":[{"name":"","type":"bytes32","internalType":"bytes32"}],"stateMutability":"view"},{"type":"function","name":"grantRole","inputs":[{"name":"role","type":"bytes32","internalType":"bytes32"},{"name":"account","type":"address","internalType":"address"}],"outputs":[],"stateMutability":"nonpayable"},{"type":"function","name":"hasRole","inputs":[{"name":"role","type":"bytes32","internalType":"bytes32"},{"name":"account","type":"address","internalType":"address"}],"outputs":[{"name":"","type":"bool","internalType":"bool"}],"stateMutability":"view"},{"type":"function","name":"lendingManager","inputs":[],"outputs":[{"name":"","type":"address","internalType":"contract ILendingManager"}],"stateMutability":"view"},{"type":"function","name":"maxDeposit","inputs":[{"name":"","type":"address","internalType":"address"}],"outputs":[{"name":"","type":"uint256","internalType":"uint256"}],"stateMutability":"view"},{"type":"function","name":"maxMint","inputs":[{"name":"","type":"address","internalType":"address"}],"outputs":[{"name":"","type":"uint256","internalType":"uint256"}],"stateMutability":"view"},{"type":"function","name":"maxRedeem","inputs":[{"name":"owner","type":"address","internalType":"address"}],"outputs":[{"name":"","type":"uint256","internalType":"uint256"}],"stateMutability":"view"},{"type":"function","name":"maxWithdraw","inputs":[{"name":"owner","type":"address","internalType":"address"}],"outputs":[{"name":"","type":"uint256","internalType":"uint256"}],"stateMutability":"view"},{"type":"function","name":"mint","inputs":[{"name":"shares","type":"uint256","internalType":"uint256"},{"name":"receiver","type":"address","internalType":"address"}],"outputs":[{"name":"assets","type":"uint256","internalType":"uint256"}],"stateMutability":"nonpayable"},{"type":"function","name":"mintForCollection","inputs":[{"name":"shares","type":"uint256","internalType":"uint256"},{"name":"receiver","type":"address","internalType":"address"},{"name":"collectionAddress","type":"address","internalType":"address"}],"outputs":[{"name":"assets","type":"uint256","internalType":"uint256"}],"stateMutability":"nonpayable"},{"type":"function","name":"name","inputs":[],"outputs":[{"name":"","type":"string","internalType":"string"}],"stateMutability":"view"},{"type":"function","name":"pause","inputs":[],"outputs":[],"stateMutability":"nonpayable"},{"type":"function","name":"paused","inputs":[],"outputs":[{"name":"","type":"bool","internalType":"bool"}],"stateMutability":"view"},{"type":"function","name":"previewDeposit","inputs":[{"name":"assets","type":"uint256","internalType":"uint256"}],"outputs":[{"name":"","type":"uint256","internalType":"uint256"}],"stateMutability":"view"},{"type":"function","name":"previewMint","inputs":[{"name":"shares","type":"uint256","internalType":"uint256"}],"outputs":[{"name":"","type":"uint256","internalType":"uint256"}],"stateMutability":"view"},{"type":"function","name":"previewRedeem","inputs":[{"name":"shares","type":"uint256","internalType":"uint256"}],"outputs":[{"name":"","type":"uint256","internalType":"uint256"}],"stateMutability":"view"},{"type":"function","name":"previewWithdraw","inputs":[{"name":"assets","type":"uint256","internalType":"uint256"}],"outputs":[{"name":"","type":"uint256","internalType":"uint256"}],"stateMutability":"view"},{"type":"function","name":"redeem","inputs":[{"name":"shares","type":"uint256","internalType":"uint256"},{"name":"receiver","type":"address","internalType":"address"},{"name":"owner","type":"address","internalType":"address"}],"outputs":[{"name":"assets","type":"uint256","internalType":"uint256"}],"stateMutability":"nonpayable"},{"type":"function","name":"redeemForCollection","inputs":[{"name":"shares","type":"uint256","internalType":"uint256"},{"name":"receiver","type":"address","internalType":"address"},{"name":"owner","type":"address","internalType":"address"},{"name":"collectionAddress","type":"address","internalType":"address"}],"outputs":[{"name":"assets","type":"uint256","internalType":"uint256"}],"stateMutability":"nonpayable"},{"type":"function","name":"renounceRole","inputs":[{"name":"role","type":"bytes32","internalType":"bytes32"},{"name":"callerConfirmation","type":"address","internalType":"address"}],"outputs":[],"stateMutability":"nonpayable"},{"type":"function","name":"revokeRole","inputs":[{"name":"role","type":"bytes32","internalType":"bytes32"},{"name":"account","type":"address","internalType":"address"}],"outputs":[],"stateMutability":"nonpayable"},{"type":"function","name":"setCollectionRewardSharePercentage","inputs":[{"name":"collectionAddress","type":"address","internalType":"address"},{"name":"percentage","type":"uint16","internalType":"uint16"}],"outputs":[],"stateMutability":"nonpayable"},{"type":"function","name":"setEpochManager","inputs":[{"name":"_epochManagerAddress","type":"address","internalType":"address"}],"outputs":[],"stateMutability":"nonpayable"},{"type":"function","name":"setLendingManager","inputs":[{"name":"_lendingManagerAddress","type":"address","internalType":"address"}],"outputs":[],"stateMutability":"nonpayable"},{"type":"function","name":"setRewardsControllerRole","inputs":[{"name":"newRewardsController","type":"address","internalType":"address"}],"outputs":[],"stateMutability":"nonpayable"},{"type":"function","name":"supportsInterface","inputs":[{"name":"interfaceId","type":"bytes4","internalType":"bytes4"}],"outputs":[{"name":"","type":"bool","internalType":"bool"}],"stateMutability":"view"},{"type":"function","name":"symbol","inputs":[],"outputs":[{"name":"","type":"string","internalType":"string"}],"stateMutability":"view"},{"type":"function","name":"totalAssets","inputs":[],"outputs":[{"name":"","type":"uint256","internalType":"uint256"}],"stateMutability":"view"},{"type":"function","name":"totalSupply","inputs":[],"outputs":[{"name":"","type":"uint256","internalType":"uint256"}],"stateMutability":"view"},{"type":"function","name":"transfer","inputs":[{"name":"to","type":"address","internalType":"address"},{"name":"value","type":"uint256","internalType":"uint256"}],"outputs":[{"name":"","type":"bool","internalType":"bool"}],"stateMutability":"nonpayable"},{"type":"function","name":"transferFrom","inputs":[{"name":"from","type":"address","internalType":"address"},{"name":"to","type":"address","internalType":"address"},{"name":"value","type":"uint256","internalType":"uint256"}],"outputs":[{"name":"","type":"bool","internalType":"bool"}],"stateMutability":"nonpayable"},{"type":"function","name":"transferYieldBatch","inputs":[{"name":"collections","type":"address[]","internalType":"address[]"},{"name":"amounts","type":"uint256[]","internalType":"uint256[]"},{"name":"totalAmount","type":"uint256","internalType":"uint256"},{"name":"recipient","type":"address","internalType":"address"}],"outputs":[],"stateMutability":"nonpayable"},{"type":"function","name":"unpause","inputs":[],"outputs":[],"stateMutability":"nonpayable"},{"type":"function","name":"withdraw","inputs":[{"name":"assets","type":"uint256","internalType":"uint256"},{"name":"receiver","type":"address","internalType":"address"},{"name":"owner","type":"address","internalType":"address"}],"outputs":[{"name":"shares","type":"uint256","internalType":"uint256"}],"stateMutability":"nonpayable"},{"type":"function","name":"withdrawForCollection","inputs":[{"name":"assets","type":"uint256","internalType":"uint256"},{"name":"receiver","type":"address","internalType":"address"},{"name":"owner","type":"address","internalType":"address"},{"name":"collectionAddress","type":"address","internalType":"address"}],"outputs":[{"name":"shares","type":"uint256","internalType":"uint256"}],"stateMutability":"nonpayable"},{"type":"event","name":"Approval","inputs":[{"name":"owner","type":"address","indexed":true,"internalType":"address"},{"name":"spender","type":"address","indexed":true,"internalType":"address"},{"name":"value","type":"uint256","indexed":false,"internalType":"uint256"}],"anonymous":false},{"type":"event","name":"CollectionDeposit","inputs":[{"name":"collectionAddress","type":"address","indexed":true,"internalType":"address"},{"name":"caller","type":"address","indexed":true,"internalType":"address"},{"name":"receiver","type":"address","indexed":true,"internalType":"address"},{"name":"assets","type":"uint256","indexed":false,"internalType":"uint256"},{"name":"shares","type":"uint256","indexed":false,"internalType":"uint256"},{"name":"cTokenAmount","type":"uint256","indexed":false,"internalType":"uint256"}],"anonymous":false},{"type":"event","name":"CollectionWithdraw","inputs":[{"name":"collectionAddress","type":"address","indexed":true,"internalType":"address"},{"name":"caller","type":"address","indexed":true,"internalType":"address"},{"name":"receiver","type":"address","indexed":true,"internalType":"address"},{"name":"assets","type":"uint256","indexed":false,"internalType":"uint256"},{"name":"shares","type":"uint256","indexed":false,"internalType":"uint256"},{"name":"cTokenAmount","type":"uint256","indexed":false,"internalType":"uint256"}],"anonymous":false},{"type":"event","name":"CollectionYieldTransferred","inputs":[{"name":"collection","type":"address","indexed":true,"internalType":"address"},{"name":"amount","type":"uint256","indexed":false,"internalType":"uint256"}],"anonymous":false},{"type":"event","name":"Deposit","inputs":[{"name":"sender","type":"address","indexed":true,"internalType":"address"},{"name":"owner","type":"address","indexed":true,"internalType":"address"},{"name":"assets","type":"uint256","indexed":false,"internalType":"uint256"},{"name":"shares","type":"uint256","indexed":false,"internalType":"uint256"}],"anonymous":false},{"type":"event","name":"LendingManagerChanged","inputs":[{"name":"oldLendingManager","type":"address","indexed":true,"internalType":"address"},{"name":"newLendingManager","type":"address","indexed":true,"internalType":"address"},{"name":"changedBy","type":"address","indexed":true,"internalType":"address"}],"anonymous":false},{"type":"event","name":"Paused","inputs":[{"name":"account","type":"address","indexed":false,"internalType":"address"}],"anonymous":false},{"type":"event","name":"RoleAdminChanged","inputs":[{"name":"role","type":"bytes32","indexed":true,"internalType":"bytes32"},{"name":"previousAdminRole","type":"bytes32","indexed":true,"internalType":"bytes32"},{"name":"newAdminRole","type":"bytes32","indexed":true,"internalType":"bytes32"}],"anonymous":false},{"type":"event","name":"RoleGranted","inputs":[{"name":"role","type":"bytes32","indexed":true,"internalType":"bytes32"},{"name":"account","type":"address","indexed":true,"internalType":"address"},{"name":"sender","type":"address","indexed":true,"internalType":"address"}],"anonymous":false},{"type":"event","name":"RoleRevoked","inputs":[{"name":"role","type":"bytes32","indexed":true,"internalType":"bytes32"},{"name":"account","type":"address","indexed":true,"internalType":"address"},{"name":"sender","type":"address","indexed":true,"internalType":"address"}],"anonymous":false},{"type":"event","name":"Transfer","inputs":[{"name":"from","type":"address","indexed":true,"internalType":"address"},{"name":"to","type":"address","indexed":true,"internalType":"address"},{"name":"value","type":"uint256","indexed":false,"internalType":"uint256"}],"anonymous":false},{"type":"event","name":"Unpaused","inputs":[{"name":"account","type":"address","indexed":false,"internalType":"address"}],"anonymous":false},{"type":"event","name":"VaultYieldAllocatedToEpoch","inputs":[{"name":"epochId","type":"uint256","indexed":true,"internalType":"uint256"},{"name":"amount","type":"uint256","indexed":false,"internalType":"uint256"}],"anonymous":false},{"type":"event","name":"Withdraw","inputs":[{"name":"sender","type":"address","indexed":true,"internalType":"address"},{"name":"receiver","type":"address","indexed":true,"internalType":"address"},{"name":"owner","type":"address","indexed":true,"internalType":"address"},{"name":"assets","type":"uint256","indexed":false,"internalType":"uint256"},{"name":"shares","type":"uint256","indexed":false,"internalType":"uint256"}],"anonymous":false},{"type":"event","name":"YieldBatchTransferred","inputs":[{"name":"totalAmount","type":"uint256","indexed":false,"internalType":"uint256"},{"name":"recipient","type":"address","indexed":true,"internalType":"address"}],"anonymous":false},{"type":"error","name":"AccessControlBadConfirmation","inputs":[]},{"type":"error","name":"AccessControlUnauthorizedAccount","inputs":[{"name":"account","type":"address","internalType":"address"},{"name":"neededRole","type":"bytes32","internalType":"bytes32"}]},{"type":"error","name":"AddressZero","inputs":[]},{"type":"error","name":"CollectionInsufficientBalance","inputs":[{"name":"collectionAddress","type":"address","internalType":"address"},{"name":"requested","type":"uint256","internalType":"uint256"},{"name":"available","type":"uint256","internalType":"uint256"}]},{"type":"error","name":"ERC20InsufficientAllowance","inputs":[{"name":"spender","type":"address","internalType":"address"},{"name":"allowance","type":"uint256","internalType":"uint256"},{"name":"needed","type":"uint256","internalType":"uint256"}]},{"type":"error","name":"ERC20InsufficientBalance","inputs":[{"name":"sender","type":"address","internalType":"address"},{"name":"balance","type":"uint256","internalType":"uint256"},{"name":"needed","type":"uint256","internalType":"uint256"}]},{"type":"error","name":"ERC20InvalidApprover","inputs":[{"name":"approver","type":"address","internalType":"address"}]},{"type":"error","name":"ERC20InvalidReceiver","inputs":[{"name":"receiver","type":"address","internalType":"address"}]},{"type":"error","name":"ERC20InvalidSender","inputs":[{"name":"sender","type":"address","internalType":"address"}]},{"type":"error","name":"ERC20InvalidSpender","inputs":[{"name":"spender","type":"address","internalType":"address"}]},{"type":"error","name":"ERC4626ExceededMaxDeposit","inputs":[{"name":"receiver","type":"address","internalType":"address"},{"name":"assets","type":"uint256","internalType":"uint256"},{"name":"max","type":"uint256","internalType":"uint256"}]},{"type":"error","name":"ERC4626ExceededMaxMint","inputs":[{"name":"receiver","type":"address","internalType":"address"},{"name":"shares","type":"uint256","internalType":"uint256"},{"name":"max","type":"uint256","internalType":"uint256"}]},{"type":"error","name":"ERC4626ExceededMaxRedeem","inputs":[{"name":"owner","type":"address","internalType":"address"},{"name":"shares","type":"uint256","internalType":"uint256"},{"name":"max","type":"uint256","internalType":"uint256"}]},{"type":"error","name":"ERC4626ExceededMaxWithdraw","inputs":[{"name":"owner","type":"address","internalType":"address"},{"name":"assets","type":"uint256","internalType":"uint256"},{"name":"max","type":"uint256","internalType":"uint256"}]},{"type":"error","name":"EnforcedPause","inputs":[]},{"type":"error","name":"ExcessiveYieldAmount","inputs":[{"name":"collection","type":"address","internalType":"address"},{"name":"requested","type":"uint256","internalType":"uint256"},{"name":"maxAllowed","type":"uint256","internalType":"uint256"}]},{"type":"error","name":"ExpectedPause","inputs":[]},{"type":"error","name":"FunctionDisabledUse","inputs":[{"name":"functionName","type":"string","internalType":"string"}]},{"type":"error","name":"InsufficientBalanceInProtocol","inputs":[]},{"type":"error","name":"LendingManagerDepositFailed","inputs":[]},{"type":"error","name":"LendingManagerMismatch","inputs":[]},{"type":"error","name":"LendingManagerWithdrawFailed","inputs":[]},{"type":"error","name":"ReentrancyGuardReentrantCall","inputs":[]},{"type":"error","name":"SafeERC20FailedOperation","inputs":[{"name":"token","type":"address","internalType":"address"}]},{"type":"error","name":"Vault_InsufficientBalancePostLMWithdraw","inputs":[]}],"bytecode":{"object":"0x60c080604052346102bb5761370e803803809161001c82856104d5565b8339810160a0828203126102bb57610033826104f8565b60208301519092906001600160401b0381116102bb5782610055918301610527565b604082015190926001600160401b0382116102bb57610075918301610527565b9261008e6080610087606085016104f8565b93016104f8565b835190936001600160401b0382116103d85760035490600182811c921680156104cb575b60208310146103ba5781601f84931161045d575b50602090601f83116001146103f7575f926103ec575b50508160011b915f199060031b1c1916176003555b83516001600160401b0381116103d857600454600181811c911680156103ce575b60208210146103ba57601f8111610357575b50602094601f82116001146102f4579481929394955f926102e9575b50508160011b915f199060031b1c1916176004555b61015e81610676565b90156102e1575b60a052608081905260016006556001600160a01b031680156102d2576001600160a01b038216156102d2576001600160a01b03831680610214575b6101b3836101ad8161056d565b506105e3565b50604051612f94908161071a823960805181818161064d015281816109ae01528181610d3801528181610fa50152818161184f01528181611dd2015281816124d1015281816125d2015281816127480152612c00015260a051816118d60152f35b6020600491604051928380926338d52e0f60e01b82525afa9081156102c7575f91610289575b506001600160a01b03160361027a5760078054610100600160a81b03191660089390931b610100600160a81b0316929092179091556101b3905f806101a0565b630ebbc86b60e31b5f5260045ffd5b90506020813d6020116102bf575b816102a4602093836104d5565b810103126102bb576102b5906104f8565b5f61023a565b5f80fd5b3d9150610297565b6040513d5f823e3d90fd5b639fabe1c160e01b5f5260045ffd5b506012610165565b015190505f80610140565b601f1982169560045f52805f20915f5b88811061033f57508360019596979810610327575b505050811b01600455610155565b01515f1960f88460031b161c191690555f8080610319565b91926020600181928685015181550194019201610304565b60045f527f8a35acfbc15ff81a39ae7d344fd709f28e8600b4aa8c65c6b64bfe7fe36bd19b601f830160051c810191602084106103b0575b601f0160051c01905b8181106103a55750610124565b5f8155600101610398565b909150819061038f565b634e487b7160e01b5f52602260045260245ffd5b90607f1690610112565b634e487b7160e01b5f52604160045260245ffd5b015190505f806100dc565b60035f9081528281209350601f198516905b818110610445575090846001959493921061042d575b505050811b016003556100f1565b01515f1960f88460031b161c191690555f808061041f565b92936020600181928786015181550195019301610409565b60035f529091507fc2575a0e9e593c00f959f8c92f12db2869c3395a3b0502d05e2516446f71f85b601f840160051c810191602085106104c1575b90601f859493920160051c01905b8181106104b357506100c6565b5f81558493506001016104a6565b9091508190610498565b91607f16916100b2565b601f909101601f19168101906001600160401b038211908210176103d857604052565b51906001600160a01b03821682036102bb57565b6001600160401b0381116103d857601f01601f191660200190565b81601f820112156102bb5780519061053e8261050c565b9261054c60405194856104d5565b828452602083830101116102bb57815f9260208093018386015e8301015290565b6001600160a01b0381165f9081525f5160206136ee5f395f51905f52602052604090205460ff166105de576001600160a01b03165f8181525f5160206136ee5f395f51905f5260205260408120805460ff191660011790553391905f5160206136ae5f395f51905f528180a4600190565b505f90565b6001600160a01b0381165f9081525f5160206136ce5f395f51905f52602052604090205460ff166105de576001600160a01b03165f8181525f5160206136ce5f395f51905f5260205260408120805460ff191660011790553391907fa49807205ce4d355092ef5a8a18f56e8913cf4a201fbe287825b095693c21775905f5160206136ae5f395f51905f529080a4600190565b5f8091604051602081019063313ce56760e01b82526004815261069a6024826104d5565b51916001600160a01b03165afa3d15610711573d906106b88261050c565b916106c660405193846104d5565b82523d5f602084013e5b80610705575b6106e2575b505f905f90565b6020818051810103126102bb576020015160ff81116106db579060ff6001921690565b506020815110156106d6565b6060906106d056fe60806040526004361015610011575f80fd5b5f5f3560e01c806301e1d11414611bea57806301ffc9a714611b9457806306fdde0314611ad957806307a2d13a14611704578063095ea7b314611a315780630a28a47714611a1357806318160ddd146119f65780631e62a02d146119be57806323b872dd14611986578063248a9ca31461195b5780632f2ff15d1461191d578063313ce567146118c257806336568abe1461187e57806338d52e0f1461183a5780633f4ba83a146117d4578063402d267d14610e9f5780634049ca35146117ba57806344061d90146117095780634cdad506146117045780635c975abb146116e25780636e553f651461168b57806370a082311461074457806375b238fc146116515780638456cb59146115f857806384f1bc62146115455780638ad9c5111461150b57806391d14854146114c257806394bf804d1461146e57806395d89b411461136a5780639e3b77af1461133e578063a217fddf14611324578063a40589f8146112ec578063a9059cbb146112bb578063af44c25514611224578063b3d7f6b91461129d578063b460af941461124e578063b777451c14611224578063b839eaf814610ef1578063ba08765214610ea4578063c63d75b614610e9f578063c6e6f59214610553578063c869d0ed14610c96578063c8a9136b14610c34578063c9eafc82146108e0578063ce96cb77146108a9578063d1d2587314610868578063d4d59edb14610805578063d547741f146107c0578063d8ca4e9114610784578063d905777e14610744578063da721076146105d0578063dd62ed3e14610580578063e2d2bfe314610558578063ef8b30f7146105535763f30bd63f14610277575f80fd5b3461039d57602036600319011261039d57600435610293612450565b61029b612470565b6102a36121d1565b600b546001600160a01b03169081156104ff57801561049f576102c4611ec3565b81116104345760405163a29a839f60e01b815291602083600481845afa928315610392575f93610400575b5082156103a157803b1561039d57604051633c172a4560e21b815230600482015260248101839052905f908290604490829084905af180156103925761037c575b5060207f0e5c870408c6d8d0c00d7196a26cb06543f82789b6957194b02bdff50684d8b791838552600c82526040852061036b828254611daa565b9055604051908152a2600160065580f35b6103899193505f90611d74565b5f916020610330565b6040513d5f823e3d90fd5b5f80fd5b60405162461bcd60e51b815260206004820152603160248201527f436f6c6c656374696f6e735661756c743a204e6f206163746976652065706f63604482015270341034b71022b837b1b426b0b730b3b2b960791b6064820152608490fd5b9092506020813d60201161042c575b8161041c60209383611d74565b8101031261039d5751915f6102ef565b3d915061040f565b60405162461bcd60e51b815260206004820152603b60248201527f436f6c6c656374696f6e735661756c743a20416c6c6f636174696f6e20616d6f60448201527f756e74206578636565647320617661696c61626c65207969656c6400000000006064820152608490fd5b60405162461bcd60e51b815260206004820152603260248201527f436f6c6c656374696f6e735661756c743a20416c6c6f636174696f6e20616d6f604482015271756e742063616e6e6f74206265207a65726f60701b6064820152608490fd5b60405162461bcd60e51b815260206004820152602660248201527f436f6c6c656374696f6e735661756c743a2045706f63684d616e61676572206e6044820152651bdd081cd95d60d21b6064820152608490fd5b611d25565b3461039d575f36600319011261039d57600b546040516001600160a01b039091168152602090f35b3461039d57604036600319011261039d57610599611c4c565b6105a1611c62565b6001600160a01b039182165f908152600160209081526040808320949093168252928352819020549051908152f35b3461039d576105de36611cd7565b6105e6612450565b6105ee612470565b6001600160a01b03165f818152600860205260409020549390848211610729576106ba8260209661061e82612029565b966106288361272d565b6001600160a01b03871696610646908990338a900361071957612920565b61067a83827f00000000000000000000000000000000000000000000000000000000000000006001600160a01b0316612991565b60018060a01b03169586604051848152898b8201527ffbde797d201c681b91056529119e0b02407c7bb96a4a2c75c01fc9667232c8db60403392a4611eb6565b815f526008865260405f20557f7d04be3758d1ab0d8d44adf00e750a53c23ceec5e52516e2f8a99402b06ea4f76040518061070987803397846040919493926060820195825260208201520152565b0390a46001600655604051908152f35b610724823383612084565b612920565b84925063ae86887160e01b5f5260045260245260445260645ffd5b3461039d57602036600319011261039d57602061077c610762611c4c565b6001600160a01b03165f9081526020819052604090205490565b604051908152f35b3461039d57602036600319011261039d576001600160a01b036107a5611c4c565b165f52600a602052602061ffff60405f205416604051908152f35b3461039d57604036600319011261039d576108036004356107df611c62565b906107fe6107f9825f526005602052600160405f20015490565b612240565b6123cc565b005b3461039d57602036600319011261039d5761081e611c4c565b6108266121d1565b61082e612470565b6001600160a01b03168015610859576bffffffffffffffffffffffff60a01b600b541617600b555f80f35b639fabe1c160e01b5f5260045ffd5b3461039d57602036600319011261039d57610881611c4c565b6108896121d1565b610891612470565b6001600160a01b03811615610859576108039061227a565b3461039d57602036600319011261039d576001600160a01b036108ca611c4c565b165f525f602052602061077c60405f2054611ffc565b3461039d57608036600319011261039d5760043567ffffffffffffffff811161039d57610911903690600401611d43565b9060243567ffffffffffffffff811161039d57610932903690600401611d43565b6064356001600160a01b038116946044359491939086850361039d57335f9081527f531c83bd540f4ce4cbe82f0a75c944c93224e60e88fb04a32a0faf0029e563cf602052604090205460ff1615610bfd5761098c612470565b838103610bc2576040516370a0823160e01b81523060048201526020816024817f00000000000000000000000000000000000000000000000000000000000000006001600160a01b03165afa908115610392575f91610b90575b50868110610b765750855f5f5b868110610b52575003610b16575f5b818110610a4a5787878781610a1357005b81610a417fbef094aa5524d89f4c3ac7797fc1d3250659c03e1d2c5f3ca466527fce9b699993602093612bd5565b604051908152a2005b610a55818386611faa565b356001600160a01b0381169081810361039d57610a73838887611faa565b35908115610b0b5781610a8591612a83565b9015610af25750907fa109f2fe7506179302268dc101837f249e819a76ae976e1a4a49fa92b3c1458f602060019493835f526009825260405f20610aca828254611daa565b9055835f526008825260405f20610ae2828254611eb6565b9055604051908152a25b01610a02565b916335a9aa2f60e11b5f5260045260245260445260645ffd5b505050600190610aec565b60405162461bcd60e51b8152602060048201526014602482015273082dadeeadce8e640e6eada40dad2e6dac2e8c6d60631b6044820152606490fd5b9150610b6c600191610b65848988611faa565b3590611daa565b91019087916109f3565b8663ae86887160e01b5f525f60045260245260445260645ffd5b90506020813d602011610bba575b81610bab60209383611d74565b8101031261039d5751886109e6565b3d9150610b9e565b6040516378c721c760e11b81526020600482015260126024820152710e8e4c2dce6cccae4b2d2cad8c884c2e8c6d60731b6044820152606490fd5b63e2517d3f60e01b5f52336004527fff073d0dcf74639a8d3c1c189ac3a527293f2fbae27f12acbfdaabd420f2a5f360245260445ffd5b3461039d57604036600319011261039d57610c4d611c4c565b6024359061ffff821680920361039d57610c656121d1565b610c6d612470565b6001600160a01b03168015610859575f52600a60205260405f209061ffff198254161790555f80f35b3461039d57602036600319011261039d57610caf611c4c565b610cb76121d1565b610cbf612470565b6001600160a01b03811680156108595760078054610100600160a81b03198116600894851b610100600160a81b031617918290556040516338d52e0f60e01b815290841c6001600160a01b03908116949192602092849260049284921c165afa908115610392575f91610e5d575b506001600160a01b037f000000000000000000000000000000000000000000000000000000000000000081169116819003610e4e5782610e3f575b60405163095ea7b360e01b6020808301918252602483018590525f196044808501919091528352905f90610d9d606485611d74565b83519082865af15f513d82610e23575b505015610ddf575b505033917fed72d72871e2bd0cdb042dca939ba7543ae2b81b0cc3cd751a82265665aadccb5f80a4005b610e1c91610e1760405163095ea7b360e01b60208201528560248201525f604482015260448152610e11606482611d74565b82612e47565b612e47565b8280610db5565b909150610e375750813b15155b8580610dad565b600114610e30565b610e4983826129cf565b610d68565b630ebbc86b60e31b5f5260045ffd5b90506020813d602011610e97575b81610e7860209383611d74565b8101031261039d57516001600160a01b038116810361039d5783610d2d565b3d9150610e6b565b611c78565b3461039d57610eb236611c9d565b50506040516378c721c760e11b81526020600482015260136024820152723932b232b2b6a337b921b7b63632b1ba34b7b760691b604482015260649150fd5b3461039d57610eff36611cd7565b610f0a939293612450565b610f12612470565b60025492610f1f81611ffc565b9182156111c6575b6001600160a01b03165f81815260086020526040902054909190610f4a8461272d565b6001600160a01b03851694610f689083903388900361071957612920565b5f855f516020612f3f5f395f51905f526020604051868152a383958214806111bd575b6110d4575b6040516370a0823160e01b81523060048201527f00000000000000000000000000000000000000000000000000000000000000006001600160a01b03169290602081602481875afa80156103925788915f9161109f575b50106110905761106485610709938a6110248b60209d7f7d04be3758d1ab0d8d44adf00e750a53c23ceec5e52516e2f8a99402b06ea4f799612991565b60018060a01b031698896040518c8152868e8201527ffbde797d201c681b91056529119e0b02407c7bb96a4a2c75c01fc9667232c8db60403392a4611eb6565b845f526008895260405f2055604051918183923397846040919493926060820195825260208201520152565b63724da00760e01b5f5260045ffd5b9150506020813d6020116110cc575b816110bb60209383611d74565b8101031261039d578790518a610fe7565b3d91506110ae565b6007546040516278744560e21b815260089190911c6001600160a01b031690602081600481855afa908115610392575f9161118b575b50611116575b50610f90565b5f919650602090602460405180948193635eb8fa6f60e01b83523060048401525af18015610392575f90611157575b611150915084611daa565b9487611110565b506020813d602011611183575b8161117160209383611d74565b8101031261039d576111509051611145565b3d9150611164565b90506020813d6020116111b5575b816111a660209383611d74565b8101031261039d57518961110a565b3d9150611199565b50811515610f8b565b8115610f275760405162461bcd60e51b815260206004820152602a60248201527f455243343632363a2072656465656d20726f756e647320646f776e20746f207a60448201526965726f2061737365747360b01b6064820152608490fd5b3461039d57602036600319011261039d576004355f52600c602052602060405f2054604051908152f35b3461039d5761125c36611c9d565b50506040516378c721c760e11b81526020600482015260156024820152743bb4ba34323930bba337b921b7b63632b1ba34b7b760591b604482015260649150fd5b3461039d57602036600319011261039d57602061077c600435611fce565b3461039d57604036600319011261039d576112e16112d7611c4c565b6024359033612127565b602060405160018152f35b3461039d57602036600319011261039d576001600160a01b0361130d611c4c565b165f526008602052602060405f2054604051908152f35b3461039d575f36600319011261039d5760206040515f8152f35b3461039d575f36600319011261039d5760075460405160089190911c6001600160a01b03168152602090f35b3461039d575f36600319011261039d576040515f6004548060011c90600181168015611464575b6020831081146114505782855290811561142c57506001146113ce575b6113ca836113be81850382611d74565b60405191829182611c04565b0390f35b91905060045f527f8a35acfbc15ff81a39ae7d344fd709f28e8600b4aa8c65c6b64bfe7fe36bd19b915f905b808210611412575090915081016020016113be6113ae565b9192600181602092548385880101520191019092916113fa565b60ff191660208086019190915291151560051b840190910191506113be90506113ae565b634e487b7160e01b5f52602260045260245ffd5b91607f1691611391565b3461039d57604036600319011261039d57611487611c62565b506040516378c721c760e11b815260206004820152601160248201527036b4b73a2337b921b7b63632b1ba34b7b760791b6044820152606490fd5b3461039d57604036600319011261039d576114db611c62565b6004355f52600560205260405f209060018060a01b03165f52602052602060ff60405f2054166040519015158152f35b3461039d575f36600319011261039d5760206040517fff073d0dcf74639a8d3c1c189ac3a527293f2fbae27f12acbfdaabd420f2a5f38152f35b3461039d57602061155536611c9d565b9161155e612450565b611566612470565b61156f81611fce565b9261157c8285853361248b565b6115858461258f565b6001600160a01b03165f818152600886526040902080546115a7908690611daa565b90556040805185815260208101849052908101929092526001600160a01b039092169133917fe619f47e82caeee4ee7f64588a6c7eca209f646fce7a915293151653db58442e908060608101610709565b3461039d575f36600319011261039d576116106121d1565b611618612470565b600160ff1960075416176007557f62e78cea01bee320cd4e420270b5ea74000d11b0c9f74754ebdbfc544b05a2586020604051338152a1005b3461039d575f36600319011261039d5760206040517fa49807205ce4d355092ef5a8a18f56e8913cf4a201fbe287825b095693c217758152f35b3461039d57604036600319011261039d576116a4611c62565b506040516378c721c760e11b81526020600482015260146024820152733232b837b9b4ba2337b921b7b63632b1ba34b7b760611b6044820152606490fd5b3461039d575f36600319011261039d57602060ff600754166040519015158152f35b611c2e565b3461039d57602061171936611c9d565b91611722612450565b61172a612470565b61173381612057565b926117408483853361248b565b6117498261258f565b6001600160a01b03165f8181526008865260409020805461176b908490611daa565b9055604080519283526020830185905282018490526001600160a01b039092169133917fe619f47e82caeee4ee7f64588a6c7eca209f646fce7a915293151653db58442e908060608101610709565b3461039d575f36600319011261039d57602061077c611ec3565b3461039d575f36600319011261039d576117ec6121d1565b60075460ff81161561182b5760ff19166007557f5db9ee0a495bf2e6ff9c91a7834c1ba4fdd244a5e8aa4e537bd38aeae4b073aa6020604051338152a1005b638dfc202b60e01b5f5260045ffd5b3461039d575f36600319011261039d576040517f00000000000000000000000000000000000000000000000000000000000000006001600160a01b03168152602090f35b3461039d57604036600319011261039d57611897611c62565b336001600160a01b038216036118b357610803906004356123cc565b63334bd91960e11b5f5260045ffd5b3461039d575f36600319011261039d5760ff7f00000000000000000000000000000000000000000000000000000000000000001660ff811161190957602090604051908152f35b634e487b7160e01b5f52601160045260245ffd5b3461039d57604036600319011261039d5761080360043561193c611c62565b906119566107f9825f526005602052600160405f20015490565b612346565b3461039d57602036600319011261039d57602061077c6004355f526005602052600160405f20015490565b3461039d57606036600319011261039d576112e16119a2611c4c565b6119aa611c62565b604435916119b9833383612084565b612127565b3461039d57602036600319011261039d576001600160a01b036119df611c4c565b165f526009602052602060405f2054604051908152f35b3461039d575f36600319011261039d576020600254604051908152f35b3461039d57602036600319011261039d57602061077c600435612029565b3461039d57604036600319011261039d57611a4a611c4c565b602435903315611ac6576001600160a01b0316908115611ab357335f52600160205260405f20825f526020528060405f20556040519081527f8c5be1e5ebec7d5bd14f71427d1e84f3dd0314c0f7b2291e5b200ac8c7c3b92560203392a3602060405160018152f35b634a1406b160e11b5f525f60045260245ffd5b63e602df0560e01b5f525f60045260245ffd5b3461039d575f36600319011261039d576040515f6003548060011c90600181168015611b8a575b6020831081146114505782855290811561142c5750600114611b2c576113ca836113be81850382611d74565b91905060035f527fc2575a0e9e593c00f959f8c92f12db2869c3395a3b0502d05e2516446f71f85b915f905b808210611b70575090915081016020016113be6113ae565b919260018160209254838588010152019101909291611b58565b91607f1691611b00565b3461039d57602036600319011261039d5760043563ffffffff60e01b811680910361039d57602090637965db0b60e01b8114908115611bd9575b506040519015158152f35b6301ffc9a760e01b14905082611bce565b3461039d575f36600319011261039d57602061077c611db7565b602060409281835280519182918282860152018484015e5f828201840152601f01601f1916010190565b3461039d57602036600319011261039d57602061077c600435611ffc565b600435906001600160a01b038216820361039d57565b602435906001600160a01b038216820361039d57565b3461039d57602036600319011261039d57611c91611c4c565b5060206040515f198152f35b606090600319011261039d57600435906024356001600160a01b038116810361039d57906044356001600160a01b038116810361039d5790565b608090600319011261039d57600435906024356001600160a01b038116810361039d57906044356001600160a01b038116810361039d57906064356001600160a01b038116810361039d5790565b3461039d57602036600319011261039d57602061077c600435612057565b9181601f8401121561039d5782359167ffffffffffffffff831161039d576020808501948460051b01011161039d57565b90601f8019910116810190811067ffffffffffffffff821117611d9657604052565b634e487b7160e01b5f52604160045260245ffd5b9190820180921161190957565b6040516370a0823160e01b81523060048201526020816024817f00000000000000000000000000000000000000000000000000000000000000006001600160a01b03165afa8015610392575f90611e83575b6007546040516278744560e21b815292506020908390600490829060081c6001600160a01b03165afa908115610392575f91611e4d575b611e4a9250611daa565b90565b90506020823d602011611e7b575b81611e6860209383611d74565b8101031261039d57611e4a915190611e40565b3d9150611e5b565b506020813d602011611eae575b81611e9d60209383611d74565b8101031261039d5760049051611e09565b3d9150611e90565b9190820391821161190957565b60075460081c6001600160a01b03168015611fa55760405163100e176560e31b815290602082600481845afa918215610392575f92611f70575b50906020600492604051938480926278744560e21b82525afa918215610392575f92611f3c575b5080821115611f3657611e4a91611eb6565b50505f90565b9091506020813d602011611f68575b81611f5860209383611d74565b8101031261039d5751905f611f24565b3d9150611f4b565b91506020823d602011611f9d575b81611f8b60209383611d74565b8101031261039d579051906020611efd565b3d9150611f7e565b505f90565b9190811015611fba5760051b0190565b634e487b7160e01b5f52603260045260245ffd5b611fd6611db7565b9060018201809211611909576002546001810180911161190957611e4a92600192612dd5565b612004611db7565b9060018201809211611909576002546001810180911161190957611e4a925f92612dd5565b600254906001820180921161190957612040611db7565b6001810180911161190957611e4a92600192612dd5565b60025490600182018092116119095761206e611db7565b6001810180911161190957611e4a925f92612dd5565b6001600160a01b039081165f818152600160209081526040808320948616835293905291909120549291905f1984106120be575b50505050565b828410612104578015611ac6576001600160a01b03821615611ab3575f52600160205260405f209060018060a01b03165f5260205260405f20910390555f8080806120b8565b508290637dc7a0d960e11b5f5260018060a01b031660045260245260445260645ffd5b6001600160a01b03169081156121be576001600160a01b03169182156121ab57815f525f60205260405f205481811061219257815f516020612f3f5f395f51905f5292602092855f525f84520360405f2055845f525f825260405f20818154019055604051908152a3565b8263391434e360e21b5f5260045260245260445260645ffd5b63ec442f0560e01b5f525f60045260245ffd5b634b637e8f60e11b5f525f60045260245ffd5b335f9081527fd8ef4509105c3edb0b04658b4528edc5ddd30ea5a81e623a2623c88db1eb54b6602052604090205460ff161561220957565b63e2517d3f60e01b5f52336004527fa49807205ce4d355092ef5a8a18f56e8913cf4a201fbe287825b095693c2177560245260445ffd5b5f81815260056020908152604080832033845290915290205460ff16156122645750565b63e2517d3f60e01b5f523360045260245260445ffd5b6001600160a01b0381165f9081527f531c83bd540f4ce4cbe82f0a75c944c93224e60e88fb04a32a0faf0029e563cf602052604090205460ff16611fa5576001600160a01b03165f8181527f531c83bd540f4ce4cbe82f0a75c944c93224e60e88fb04a32a0faf0029e563cf60205260408120805460ff191660011790553391907fff073d0dcf74639a8d3c1c189ac3a527293f2fbae27f12acbfdaabd420f2a5f3907f2f8788117e7eff1d82e926ec794901d17c78024a50270940304540a733656f0d9080a4600190565b5f8181526005602090815260408083206001600160a01b038616845290915290205460ff16611f36575f8181526005602090815260408083206001600160a01b0395909516808452949091528120805460ff19166001179055339291907f2f8788117e7eff1d82e926ec794901d17c78024a50270940304540a733656f0d9080a4600190565b5f8181526005602090815260408083206001600160a01b038616845290915290205460ff1615611f36575f8181526005602090815260408083206001600160a01b0395909516808452949091528120805460ff19169055339291907ff6391f5c32d9c69d2a47ea670b442974b53935d1edc7fd64eb21e047a839171b9080a4600190565b600260065414612461576002600655565b633ee5aeb560e01b5f5260045ffd5b60ff6007541661247c57565b63d93c066560e01b5f5260045ffd5b6040516323b872dd60e01b60208201526001600160a01b0390911660248201819052306044830152606480830185905282529291906124fe906124cf608482611d74565b7f00000000000000000000000000000000000000000000000000000000000000006001600160a01b0316612e47565b6001600160a01b03169283156121ab577fdcbc1c05240f31ff3ad067ef1ee35ce4997762752e3a095284754544f4c709d7918161253f604093600254611daa565b600255855f525f602052825f20818154019055855f5f516020612f3f5f395f51905f5260208651858152a382519182526020820152a3565b9081602091031261039d5751801515810361039d5790565b806125975750565b60075460405163095ea7b360e01b60208083019182526001600160a01b0360089490941c841660248401819052604480850187905284525f957f000000000000000000000000000000000000000000000000000000000000000090951694919391929091908490879061260b606485611d74565b83519082895af186513d8261270e575b5050156126ca575b505060075460405163690c42c160e11b8152600481019290925290938491602491839160081c6001600160a01b03165af1918215610392575f92612695575b5060075461267f9160089190911c6001600160a01b0316906129cf565b1561268657565b63d8449a5960e01b5f5260045ffd5b61267f9192506126bc9060203d6020116126c3575b6126b48183611d74565b810190612577565b9190612662565b503d6126aa565b612701612707926040519063095ea7b360e01b878301526024820152876044820152604481526126fb606482611d74565b86612e47565b84612e47565b5f80612623565b9091501587146127255750843b15155b5f8061261b565b60011461271e565b801561291d576040516370a0823160e01b81523060048201527f00000000000000000000000000000000000000000000000000000000000000006001600160a01b031690602081602481855afa908115610392575f916128eb575b5082811061279557505050565b61279f9083611eb6565b6007546040516278744560e21b815260089190911c6001600160a01b03169190602081600481865afa908115610392575f916128b9575b508111156127e45750505050565b80156120b8575f916024602092604051948593849263684a169760e11b845260048401525af1908115610392575f9161289a575b501561288b576020602491604051928380926370a0823160e01b82523060048301525afa908115610392575f91612859575b5010611090575f8080806120b8565b90506020813d602011612883575b8161287460209383611d74565b8101031261039d57515f61284a565b3d9150612867565b638b78daf760e01b5f5260045ffd5b6128b3915060203d6020116126c3576126b48183611d74565b5f612818565b90506020813d6020116128e3575b816128d460209383611d74565b8101031261039d57515f6127d6565b3d91506128c7565b90506020813d602011612915575b8161290660209383611d74565b8101031261039d57515f612788565b3d91506128f9565b50565b9091906001600160a01b031680156121be57805f525f60205260405f2054838110612977576020845f94955f516020612f3f5f395f51905f52938587528684520360408620558060025403600255604051908152a3565b915063391434e360e21b5f5260045260245260445260645ffd5b60405163a9059cbb60e01b60208201526001600160a01b039290921660248301526044808301939093529181526129cd91610e17606483611d74565b565b60405163095ea7b360e01b60208083019182526001600160a01b03909416602483018190525f60448085018290528452909492939291612a10606486611d74565b84519082855af15f513d82612a5e575b505015612a2c57505050565b610e176129cd936040519063095ea7b360e01b602083015260248201525f604482015260448152610e11606482611d74565b909150612a7b57506001600160a01b0381163b15155b5f80612a20565b600114612a74565b6001600160a01b03165f818152600a602052604090205491929161ffff168015612bcc5760075460405163100e176560e31b81529060081c6001600160a01b0316602082600481845afa918215610392575f92612b97575b50906020600492604051938480926278744560e21b82525afa918215610392575f92612b63575b5080821115612b5b57612b1491611eb6565b818102918183041490151715611909576127109004905f52600960205260405f20548082115f14612b5157612b4891611eb6565b80925b11159190565b50505f8092612b4b565b50505f612b14565b9091506020813d602011612b8f575b81612b7f60209383611d74565b8101031261039d5751905f612b02565b3d9150612b72565b91506020823d602011612bc4575b81612bb260209383611d74565b8101031261039d579051906020612adb565b3d9150612ba5565b50509015905f90565b906001600160a01b03821615610859578015612dd1576040516370a0823160e01b81523060048201527f00000000000000000000000000000000000000000000000000000000000000006001600160a01b03169290602081602481875afa908115610392575f91612d9f575b50828110612c54575b506129cd92612991565b612c5e9083611eb6565b6007546040516278744560e21b815260089190911c6001600160a01b03169190602081600481865afa80156103925782915f91612d6a575b5010612d5b575f916024602092604051948593849263684a169760e11b845260048401525af1908115610392575f91612d3c575b501561288b576040516370a0823160e01b8152306004820152602081602481875afa80156103925783915f91612d07575b5010611090575f612c4a565b9150506020813d602011612d34575b81612d2360209383611d74565b8101031261039d578290515f612cfb565b3d9150612d16565b612d55915060203d6020116126c3576126b48183611d74565b5f612cca565b631f996b4b60e21b5f5260045ffd5b9150506020813d602011612d97575b81612d8660209383611d74565b8101031261039d578190515f612c96565b3d9150612d79565b90506020813d602011612dc9575b81612dba60209383611d74565b8101031261039d57515f612c41565b3d9150612dad565b5050565b9291612de2818386612e9f565b926004811015612e33576001809116149182612e08575b5050611e4a9250151590611daa565b9080925015612e1f57611e4a930915155f80612df9565b634e487b7160e01b5f52601260045260245ffd5b634e487b7160e01b5f52602160045260245ffd5b905f602091828151910182855af115610392575f513d612e9657506001600160a01b0381163b155b612e765750565b635274afe760e01b5f9081526001600160a01b0391909116600452602490fd5b60011415612e6f565b90915f198383099280830292838086109503948086039514612f305784831115612f185790829109815f0382168092046002816003021880820260020302808202600203028082026002030280820260020302808202600203028091026002030293600183805f03040190848311900302920304170290565b82634e487b715f52156003026011186020526024601cfd5b505091508115612e1f57049056feddf252ad1be2c89b69c2b068fc378daa952ba7f163c4a11628f55a4df523b3efa2646970667358221220873c530b9e0c38dd3d1a8d65472b063e5e9523b51a75a86518248d780e28907a64736f6c634300081e00332f8788117e7eff1d82e926ec794901d17c78024a50270940304540a733656f0dd8ef4509105c3edb0b04658b4528edc5ddd30ea5a81e623a2623c88db1eb54b605b8ccbb9d4d8fb16ea74ce3c29a41f1b461fbdaff4714a0d9a8eb05499746bc","linkReferences":{}},"methodIdentifiers":{"ADMIN_ROLE()":"75b238fc","DEFAULT_ADMIN_ROLE()":"a217fddf","REWARDS_CONTROLLER_ROLE()":"8ad9c511","allocateEpochYield(uint256)":"f30bd63f","allowance(address,address)":"dd62ed3e","approve(address,uint256)":"095ea7b3","asset()":"38d52e0f","balanceOf(address)":"70a08231","collectionRewardSharePercentage(address)":"d8ca4e91","collectionTotalAssetsDeposited(address)":"a40589f8","collectionYieldTransferred(address)":"1e62a02d","convertToAssets(uint256)":"07a2d13a","convertToShares(uint256)":"c6e6f592","decimals()":"313ce567","deposit(uint256,address)":"6e553f65","depositForCollection(uint256,address,address)":"44061d90","epochManager()":"e2d2bfe3","epochYieldAllocations(uint256)":"af44c255","getCurrentEpochYield()":"4049ca35","getEpochYieldAllocated(uint256)":"b777451c","getRoleAdmin(bytes32)":"248a9ca3","grantRole(bytes32,address)":"2f2ff15d","hasRole(bytes32,address)":"91d14854","lendingManager()":"9e3b77af","maxDeposit(address)":"402d267d","maxMint(address)":"c63d75b6","maxRedeem(address)":"d905777e","maxWithdraw(address)":"ce96cb77","mint(uint256,address)":"94bf804d","mintForCollection(uint256,address,address)":"84f1bc62","name()":"06fdde03","pause()":"8456cb59","paused()":"5c975abb","previewDeposit(uint256)":"ef8b30f7","previewMint(uint256)":"b3d7f6b9","previewRedeem(uint256)":"4cdad506","previewWithdraw(uint256)":"0a28a477","redeem(uint256,address,address)":"ba087652","redeemForCollection(uint256,address,address,address)":"b839eaf8","renounceRole(bytes32,address)":"36568abe","revokeRole(bytes32,address)":"d547741f","setCollectionRewardSharePercentage(address,uint16)":"c8a9136b","setEpochManager(address)":"d4d59edb","setLendingManager(address)":"c869d0ed","setRewardsControllerRole(address)":"d1d25873","supportsInterface(bytes4)":"01ffc9a7","symbol()":"95d89b41","totalAssets()":"01e1d114","totalSupply()":"18160ddd","transfer(address,uint256)":"a9059cbb","transferFrom(address,address,uint256)":"23b872dd","transferYieldBatch(address[],uint256[],uint256,address)":"c9eafc82","unpause()":"3f4ba83a","withdraw(uint256,address,address)":"b460af94","withdrawForCollection(uint256,address,address,address)":"da721076"},"id":74}