{"abi":[{"type":"constructor","inputs":[{"name":"_asset","type":"address","internalType":"contract IERC20"},{"name":"_name","type":"string","internalType":"string"},{"name":"_symbol","type":"string","internalType":"string"},{"name":"initialAdmin","type":"address","internalType":"address"},{"name":"_lendingManagerAddress","type":"address","internalType":"address"}],"stateMutability":"nonpayable"},{"type":"function","name":"ADMIN_ROLE","inputs":[],"outputs":[{"name":"","type":"bytes32","internalType":"bytes32"}],"stateMutability":"view"},{"type":"function","name":"DEBT_SUBSIDIZER_ROLE","inputs":[],"outputs":[{"name":"","type":"bytes32","internalType":"bytes32"}],"stateMutability":"view"},{"type":"function","name":"DEFAULT_ADMIN_ROLE","inputs":[],"outputs":[{"name":"","type":"bytes32","internalType":"bytes32"}],"stateMutability":"view"},{"type":"function","name":"GLOBAL_DEPOSIT_INDEX_PRECISION","inputs":[],"outputs":[{"name":"","type":"uint256","internalType":"uint256"}],"stateMutability":"view"},{"type":"function","name":"allocateEpochYield","inputs":[{"name":"amount","type":"uint256","internalType":"uint256"}],"outputs":[],"stateMutability":"nonpayable"},{"type":"function","name":"allowance","inputs":[{"name":"owner","type":"address","internalType":"address"},{"name":"spender","type":"address","internalType":"address"}],"outputs":[{"name":"","type":"uint256","internalType":"uint256"}],"stateMutability":"view"},{"type":"function","name":"approve","inputs":[{"name":"spender","type":"address","internalType":"address"},{"name":"value","type":"uint256","internalType":"uint256"}],"outputs":[{"name":"","type":"bool","internalType":"bool"}],"stateMutability":"nonpayable"},{"type":"function","name":"asset","inputs":[],"outputs":[{"name":"","type":"address","internalType":"address"}],"stateMutability":"view"},{"type":"function","name":"balanceOf","inputs":[{"name":"account","type":"address","internalType":"address"}],"outputs":[{"name":"","type":"uint256","internalType":"uint256"}],"stateMutability":"view"},{"type":"function","name":"collectionTotalAssetsDeposited","inputs":[{"name":"collectionAddress","type":"address","internalType":"address"}],"outputs":[{"name":"","type":"uint256","internalType":"uint256"}],"stateMutability":"view"},{"type":"function","name":"collectionYieldTransferred","inputs":[{"name":"collectionAddress","type":"address","internalType":"address"}],"outputs":[{"name":"","type":"uint256","internalType":"uint256"}],"stateMutability":"view"},{"type":"function","name":"collections","inputs":[{"name":"","type":"address","internalType":"address"}],"outputs":[{"name":"collectionAddress","type":"address","internalType":"address"},{"name":"totalAssetsDeposited","type":"uint256","internalType":"uint256"},{"name":"totalSharesMinted","type":"uint256","internalType":"uint256"},{"name":"totalCTokensMinted","type":"uint256","internalType":"uint256"},{"name":"yieldSharePercentage","type":"uint16","internalType":"uint16"},{"name":"totalYieldTransferred","type":"uint256","internalType":"uint256"},{"name":"lastGlobalDepositIndex","type":"uint256","internalType":"uint256"}],"stateMutability":"view"},{"type":"function","name":"convertToAssets","inputs":[{"name":"shares","type":"uint256","internalType":"uint256"}],"outputs":[{"name":"","type":"uint256","internalType":"uint256"}],"stateMutability":"view"},{"type":"function","name":"convertToShares","inputs":[{"name":"assets","type":"uint256","internalType":"uint256"}],"outputs":[{"name":"","type":"uint256","internalType":"uint256"}],"stateMutability":"view"},{"type":"function","name":"decimals","inputs":[],"outputs":[{"name":"","type":"uint8","internalType":"uint8"}],"stateMutability":"view"},{"type":"function","name":"deposit","inputs":[{"name":"","type":"uint256","internalType":"uint256"},{"name":"","type":"address","internalType":"address"}],"outputs":[{"name":"","type":"uint256","internalType":"uint256"}],"stateMutability":"nonpayable"},{"type":"function","name":"depositForCollection","inputs":[{"name":"assets","type":"uint256","internalType":"uint256"},{"name":"receiver","type":"address","internalType":"address"},{"name":"collectionAddress","type":"address","internalType":"address"}],"outputs":[{"name":"shares","type":"uint256","internalType":"uint256"}],"stateMutability":"nonpayable"},{"type":"function","name":"epochCollectionYieldApplied","inputs":[{"name":"","type":"uint256","internalType":"uint256"},{"name":"","type":"address","internalType":"address"}],"outputs":[{"name":"","type":"bool","internalType":"bool"}],"stateMutability":"view"},{"type":"function","name":"epochManager","inputs":[],"outputs":[{"name":"","type":"address","internalType":"contract IEpochManager"}],"stateMutability":"view"},{"type":"function","name":"epochYieldAllocations","inputs":[{"name":"","type":"uint256","internalType":"uint256"}],"outputs":[{"name":"","type":"uint256","internalType":"uint256"}],"stateMutability":"view"},{"type":"function","name":"getCurrentEpochYield","inputs":[{"name":"includeNonShared","type":"bool","internalType":"bool"}],"outputs":[{"name":"availableYield","type":"uint256","internalType":"uint256"}],"stateMutability":"view"},{"type":"function","name":"getEpochYieldAllocated","inputs":[{"name":"epochId","type":"uint256","internalType":"uint256"}],"outputs":[{"name":"amount","type":"uint256","internalType":"uint256"}],"stateMutability":"view"},{"type":"function","name":"getRoleAdmin","inputs":[{"name":"role","type":"bytes32","internalType":"bytes32"}],"outputs":[{"name":"","type":"bytes32","internalType":"bytes32"}],"stateMutability":"view"},{"type":"function","name":"globalDepositIndex","inputs":[],"outputs":[{"name":"","type":"uint256","internalType":"uint256"}],"stateMutability":"view"},{"type":"function","name":"grantRole","inputs":[{"name":"role","type":"bytes32","internalType":"bytes32"},{"name":"account","type":"address","internalType":"address"}],"outputs":[],"stateMutability":"nonpayable"},{"type":"function","name":"hasRole","inputs":[{"name":"role","type":"bytes32","internalType":"bytes32"},{"name":"account","type":"address","internalType":"address"}],"outputs":[{"name":"","type":"bool","internalType":"bool"}],"stateMutability":"view"},{"type":"function","name":"indexCollectionsDeposits","inputs":[],"outputs":[],"stateMutability":"nonpayable"},{"type":"function","name":"lendingManager","inputs":[],"outputs":[{"name":"","type":"address","internalType":"contract ILendingManager"}],"stateMutability":"view"},{"type":"function","name":"maxDeposit","inputs":[{"name":"","type":"address","internalType":"address"}],"outputs":[{"name":"","type":"uint256","internalType":"uint256"}],"stateMutability":"view"},{"type":"function","name":"maxMint","inputs":[{"name":"","type":"address","internalType":"address"}],"outputs":[{"name":"","type":"uint256","internalType":"uint256"}],"stateMutability":"view"},{"type":"function","name":"maxRedeem","inputs":[{"name":"owner","type":"address","internalType":"address"}],"outputs":[{"name":"","type":"uint256","internalType":"uint256"}],"stateMutability":"view"},{"type":"function","name":"maxWithdraw","inputs":[{"name":"owner","type":"address","internalType":"address"}],"outputs":[{"name":"","type":"uint256","internalType":"uint256"}],"stateMutability":"view"},{"type":"function","name":"mint","inputs":[{"name":"","type":"uint256","internalType":"uint256"},{"name":"","type":"address","internalType":"address"}],"outputs":[{"name":"","type":"uint256","internalType":"uint256"}],"stateMutability":"nonpayable"},{"type":"function","name":"mintForCollection","inputs":[{"name":"shares","type":"uint256","internalType":"uint256"},{"name":"receiver","type":"address","internalType":"address"},{"name":"collectionAddress","type":"address","internalType":"address"}],"outputs":[{"name":"assets","type":"uint256","internalType":"uint256"}],"stateMutability":"nonpayable"},{"type":"function","name":"name","inputs":[],"outputs":[{"name":"","type":"string","internalType":"string"}],"stateMutability":"view"},{"type":"function","name":"pause","inputs":[],"outputs":[],"stateMutability":"nonpayable"},{"type":"function","name":"paused","inputs":[],"outputs":[{"name":"","type":"bool","internalType":"bool"}],"stateMutability":"view"},{"type":"function","name":"previewDeposit","inputs":[{"name":"assets","type":"uint256","internalType":"uint256"}],"outputs":[{"name":"","type":"uint256","internalType":"uint256"}],"stateMutability":"view"},{"type":"function","name":"previewMint","inputs":[{"name":"shares","type":"uint256","internalType":"uint256"}],"outputs":[{"name":"","type":"uint256","internalType":"uint256"}],"stateMutability":"view"},{"type":"function","name":"previewRedeem","inputs":[{"name":"shares","type":"uint256","internalType":"uint256"}],"outputs":[{"name":"","type":"uint256","internalType":"uint256"}],"stateMutability":"view"},{"type":"function","name":"previewWithdraw","inputs":[{"name":"assets","type":"uint256","internalType":"uint256"}],"outputs":[{"name":"","type":"uint256","internalType":"uint256"}],"stateMutability":"view"},{"type":"function","name":"redeem","inputs":[{"name":"","type":"uint256","internalType":"uint256"},{"name":"","type":"address","internalType":"address"},{"name":"","type":"address","internalType":"address"}],"outputs":[{"name":"","type":"uint256","internalType":"uint256"}],"stateMutability":"nonpayable"},{"type":"function","name":"redeemForCollection","inputs":[{"name":"shares","type":"uint256","internalType":"uint256"},{"name":"receiver","type":"address","internalType":"address"},{"name":"owner","type":"address","internalType":"address"},{"name":"collectionAddress","type":"address","internalType":"address"}],"outputs":[{"name":"assets","type":"uint256","internalType":"uint256"}],"stateMutability":"nonpayable"},{"type":"function","name":"renounceRole","inputs":[{"name":"role","type":"bytes32","internalType":"bytes32"},{"name":"callerConfirmation","type":"address","internalType":"address"}],"outputs":[],"stateMutability":"nonpayable"},{"type":"function","name":"repayBorrowBehalfBatch","inputs":[{"name":"collectionAddresses","type":"address[]","internalType":"address[]"},{"name":"amounts","type":"uint256[]","internalType":"uint256[]"},{"name":"borrowers","type":"address[]","internalType":"address[]"},{"name":"totalAmount","type":"uint256","internalType":"uint256"}],"outputs":[],"stateMutability":"nonpayable"},{"type":"function","name":"revokeRole","inputs":[{"name":"role","type":"bytes32","internalType":"bytes32"},{"name":"account","type":"address","internalType":"address"}],"outputs":[],"stateMutability":"nonpayable"},{"type":"function","name":"setCollectionYieldSharePercentage","inputs":[{"name":"collectionAddress","type":"address","internalType":"address"},{"name":"percentage","type":"uint16","internalType":"uint16"}],"outputs":[],"stateMutability":"nonpayable"},{"type":"function","name":"setDebtSubsidizer","inputs":[{"name":"_debtSubsidizerAddress","type":"address","internalType":"address"}],"outputs":[],"stateMutability":"nonpayable"},{"type":"function","name":"setEpochManager","inputs":[{"name":"_epochManagerAddress","type":"address","internalType":"address"}],"outputs":[],"stateMutability":"nonpayable"},{"type":"function","name":"setLendingManager","inputs":[{"name":"_lendingManagerAddress","type":"address","internalType":"address"}],"outputs":[],"stateMutability":"nonpayable"},{"type":"function","name":"supportsInterface","inputs":[{"name":"interfaceId","type":"bytes4","internalType":"bytes4"}],"outputs":[{"name":"","type":"bool","internalType":"bool"}],"stateMutability":"view"},{"type":"function","name":"symbol","inputs":[],"outputs":[{"name":"","type":"string","internalType":"string"}],"stateMutability":"view"},{"type":"function","name":"totalAssets","inputs":[],"outputs":[{"name":"","type":"uint256","internalType":"uint256"}],"stateMutability":"view"},{"type":"function","name":"totalSupply","inputs":[],"outputs":[{"name":"","type":"uint256","internalType":"uint256"}],"stateMutability":"view"},{"type":"function","name":"transfer","inputs":[{"name":"to","type":"address","internalType":"address"},{"name":"value","type":"uint256","internalType":"uint256"}],"outputs":[{"name":"","type":"bool","internalType":"bool"}],"stateMutability":"nonpayable"},{"type":"function","name":"transferFrom","inputs":[{"name":"from","type":"address","internalType":"address"},{"name":"to","type":"address","internalType":"address"},{"name":"value","type":"uint256","internalType":"uint256"}],"outputs":[{"name":"","type":"bool","internalType":"bool"}],"stateMutability":"nonpayable"},{"type":"function","name":"unpause","inputs":[],"outputs":[],"stateMutability":"nonpayable"},{"type":"function","name":"withdraw","inputs":[{"name":"","type":"uint256","internalType":"uint256"},{"name":"","type":"address","internalType":"address"},{"name":"","type":"address","internalType":"address"}],"outputs":[{"name":"","type":"uint256","internalType":"uint256"}],"stateMutability":"nonpayable"},{"type":"function","name":"withdrawForCollection","inputs":[{"name":"assets","type":"uint256","internalType":"uint256"},{"name":"receiver","type":"address","internalType":"address"},{"name":"owner","type":"address","internalType":"address"},{"name":"collectionAddress","type":"address","internalType":"address"}],"outputs":[{"name":"shares","type":"uint256","internalType":"uint256"}],"stateMutability":"nonpayable"},{"type":"event","name":"Approval","inputs":[{"name":"owner","type":"address","indexed":true,"internalType":"address"},{"name":"spender","type":"address","indexed":true,"internalType":"address"},{"name":"value","type":"uint256","indexed":false,"internalType":"uint256"}],"anonymous":false},{"type":"event","name":"CollectionDeposit","inputs":[{"name":"collectionAddress","type":"address","indexed":true,"internalType":"address"},{"name":"caller","type":"address","indexed":true,"internalType":"address"},{"name":"receiver","type":"address","indexed":true,"internalType":"address"},{"name":"assets","type":"uint256","indexed":false,"internalType":"uint256"},{"name":"shares","type":"uint256","indexed":false,"internalType":"uint256"},{"name":"cTokenAmount","type":"uint256","indexed":false,"internalType":"uint256"}],"anonymous":false},{"type":"event","name":"CollectionWithdraw","inputs":[{"name":"collectionAddress","type":"address","indexed":true,"internalType":"address"},{"name":"caller","type":"address","indexed":true,"internalType":"address"},{"name":"receiver","type":"address","indexed":true,"internalType":"address"},{"name":"assets","type":"uint256","indexed":false,"internalType":"uint256"},{"name":"shares","type":"uint256","indexed":false,"internalType":"uint256"},{"name":"cTokenAmount","type":"uint256","indexed":false,"internalType":"uint256"}],"anonymous":false},{"type":"event","name":"CollectionYieldAccrued","inputs":[{"name":"collectionAddress","type":"address","indexed":true,"internalType":"address"},{"name":"yieldAccrued","type":"uint256","indexed":false,"internalType":"uint256"},{"name":"newTotalDeposits","type":"uint256","indexed":false,"internalType":"uint256"},{"name":"globalIndex","type":"uint256","indexed":false,"internalType":"uint256"},{"name":"previousCollectionIndex","type":"uint256","indexed":false,"internalType":"uint256"}],"anonymous":false},{"type":"event","name":"CollectionYieldAppliedForEpoch","inputs":[{"name":"epochId","type":"uint256","indexed":true,"internalType":"uint256"},{"name":"collection","type":"address","indexed":true,"internalType":"address"},{"name":"yieldSharePercentage","type":"uint16","indexed":false,"internalType":"uint16"},{"name":"yieldAdded","type":"uint256","indexed":false,"internalType":"uint256"},{"name":"newTotalDeposits","type":"uint256","indexed":false,"internalType":"uint256"}],"anonymous":false},{"type":"event","name":"CollectionYieldIndexed","inputs":[{"name":"collectionAddress","type":"address","indexed":true,"internalType":"address"},{"name":"epochId","type":"uint256","indexed":true,"internalType":"uint256"},{"name":"assets","type":"uint256","indexed":false,"internalType":"uint256"},{"name":"shares","type":"uint256","indexed":false,"internalType":"uint256"},{"name":"cTokenAmount","type":"uint256","indexed":false,"internalType":"uint256"}],"anonymous":false},{"type":"event","name":"Deposit","inputs":[{"name":"sender","type":"address","indexed":true,"internalType":"address"},{"name":"owner","type":"address","indexed":true,"internalType":"address"},{"name":"assets","type":"uint256","indexed":false,"internalType":"uint256"},{"name":"shares","type":"uint256","indexed":false,"internalType":"uint256"}],"anonymous":false},{"type":"event","name":"LendingManagerChanged","inputs":[{"name":"oldLendingManager","type":"address","indexed":true,"internalType":"address"},{"name":"newLendingManager","type":"address","indexed":true,"internalType":"address"},{"name":"changedBy","type":"address","indexed":true,"internalType":"address"}],"anonymous":false},{"type":"event","name":"Paused","inputs":[{"name":"account","type":"address","indexed":false,"internalType":"address"}],"anonymous":false},{"type":"event","name":"RoleAdminChanged","inputs":[{"name":"role","type":"bytes32","indexed":true,"internalType":"bytes32"},{"name":"previousAdminRole","type":"bytes32","indexed":true,"internalType":"bytes32"},{"name":"newAdminRole","type":"bytes32","indexed":true,"internalType":"bytes32"}],"anonymous":false},{"type":"event","name":"RoleGranted","inputs":[{"name":"role","type":"bytes32","indexed":true,"internalType":"bytes32"},{"name":"account","type":"address","indexed":true,"internalType":"address"},{"name":"sender","type":"address","indexed":true,"internalType":"address"}],"anonymous":false},{"type":"event","name":"RoleRevoked","inputs":[{"name":"role","type":"bytes32","indexed":true,"internalType":"bytes32"},{"name":"account","type":"address","indexed":true,"internalType":"address"},{"name":"sender","type":"address","indexed":true,"internalType":"address"}],"anonymous":false},{"type":"event","name":"Transfer","inputs":[{"name":"from","type":"address","indexed":true,"internalType":"address"},{"name":"to","type":"address","indexed":true,"internalType":"address"},{"name":"value","type":"uint256","indexed":false,"internalType":"uint256"}],"anonymous":false},{"type":"event","name":"Unpaused","inputs":[{"name":"account","type":"address","indexed":false,"internalType":"address"}],"anonymous":false},{"type":"event","name":"VaultYieldAllocatedToEpoch","inputs":[{"name":"epochId","type":"uint256","indexed":true,"internalType":"uint256"},{"name":"amount","type":"uint256","indexed":false,"internalType":"uint256"}],"anonymous":false},{"type":"event","name":"Withdraw","inputs":[{"name":"sender","type":"address","indexed":true,"internalType":"address"},{"name":"receiver","type":"address","indexed":true,"internalType":"address"},{"name":"owner","type":"address","indexed":true,"internalType":"address"},{"name":"assets","type":"uint256","indexed":false,"internalType":"uint256"},{"name":"shares","type":"uint256","indexed":false,"internalType":"uint256"}],"anonymous":false},{"type":"event","name":"YieldBatchRepaid","inputs":[{"name":"totalAmount","type":"uint256","indexed":false,"internalType":"uint256"},{"name":"recipient","type":"address","indexed":true,"internalType":"address"}],"anonymous":false},{"type":"error","name":"AccessControlBadConfirmation","inputs":[]},{"type":"error","name":"AccessControlUnauthorizedAccount","inputs":[{"name":"account","type":"address","internalType":"address"},{"name":"neededRole","type":"bytes32","internalType":"bytes32"}]},{"type":"error","name":"AddressZero","inputs":[]},{"type":"error","name":"CollectionInsufficientBalance","inputs":[{"name":"collectionAddress","type":"address","internalType":"address"},{"name":"requested","type":"uint256","internalType":"uint256"},{"name":"available","type":"uint256","internalType":"uint256"}]},{"type":"error","name":"ERC20InsufficientAllowance","inputs":[{"name":"spender","type":"address","internalType":"address"},{"name":"allowance","type":"uint256","internalType":"uint256"},{"name":"needed","type":"uint256","internalType":"uint256"}]},{"type":"error","name":"ERC20InsufficientBalance","inputs":[{"name":"sender","type":"address","internalType":"address"},{"name":"balance","type":"uint256","internalType":"uint256"},{"name":"needed","type":"uint256","internalType":"uint256"}]},{"type":"error","name":"ERC20InvalidApprover","inputs":[{"name":"approver","type":"address","internalType":"address"}]},{"type":"error","name":"ERC20InvalidReceiver","inputs":[{"name":"receiver","type":"address","internalType":"address"}]},{"type":"error","name":"ERC20InvalidSender","inputs":[{"name":"sender","type":"address","internalType":"address"}]},{"type":"error","name":"ERC20InvalidSpender","inputs":[{"name":"spender","type":"address","internalType":"address"}]},{"type":"error","name":"ERC4626ExceededMaxDeposit","inputs":[{"name":"receiver","type":"address","internalType":"address"},{"name":"assets","type":"uint256","internalType":"uint256"},{"name":"max","type":"uint256","internalType":"uint256"}]},{"type":"error","name":"ERC4626ExceededMaxMint","inputs":[{"name":"receiver","type":"address","internalType":"address"},{"name":"shares","type":"uint256","internalType":"uint256"},{"name":"max","type":"uint256","internalType":"uint256"}]},{"type":"error","name":"ERC4626ExceededMaxRedeem","inputs":[{"name":"owner","type":"address","internalType":"address"},{"name":"shares","type":"uint256","internalType":"uint256"},{"name":"max","type":"uint256","internalType":"uint256"}]},{"type":"error","name":"ERC4626ExceededMaxWithdraw","inputs":[{"name":"owner","type":"address","internalType":"address"},{"name":"assets","type":"uint256","internalType":"uint256"},{"name":"max","type":"uint256","internalType":"uint256"}]},{"type":"error","name":"EnforcedPause","inputs":[]},{"type":"error","name":"ExcessiveYieldAmount","inputs":[{"name":"collection","type":"address","internalType":"address"},{"name":"requested","type":"uint256","internalType":"uint256"},{"name":"maxAllowed","type":"uint256","internalType":"uint256"}]},{"type":"error","name":"ExpectedPause","inputs":[]},{"type":"error","name":"FunctionDisabledUse","inputs":[{"name":"functionName","type":"string","internalType":"string"}]},{"type":"error","name":"InsufficientBalanceInProtocol","inputs":[]},{"type":"error","name":"LendingManagerDepositFailed","inputs":[]},{"type":"error","name":"LendingManagerMismatch","inputs":[]},{"type":"error","name":"LendingManagerWithdrawFailed","inputs":[]},{"type":"error","name":"ReentrancyGuardReentrantCall","inputs":[]},{"type":"error","name":"SafeERC20FailedOperation","inputs":[{"name":"token","type":"address","internalType":"address"}]},{"type":"error","name":"Vault_InsufficientBalancePostLMWithdraw","inputs":[]}],"bytecode":{"object":"0x60c080604052346102c057614084803803809161001c82856104da565b8339810160a0828203126102c057610033826104fd565b60208301519092906001600160401b0381116102c0578261005591830161052c565b604082015190926001600160401b0382116102c05761007591830161052c565b9261008e6080610087606085016104fd565b93016104fd565b835190936001600160401b0382116103dd5760035490600182811c921680156104d0575b60208310146103bf5781601f849311610462575b50602090601f83116001146103fc575f926103f1575b50508160011b915f199060031b1c1916176003555b83516001600160401b0381116103dd57600454600181811c911680156103d3575b60208210146103bf57601f811161035c575b50602094601f82116001146102f9579481929394955f926102ee575b50508160011b915f199060031b1c1916176004555b61015e8161067b565b90156102e6575b60a052608081905260016006556001600160a01b031680156102d7576001600160a01b038216156102d7576001600160a01b03831680610219575b6101bf83670de0b6b3a7640000600a556101b981610572565b506105e8565b50604051613905908161071f823960805181818161078501528181610a4301528181610c5a015281816117cf01528181611d8b015281816123ad015281816130ed015281816131e401526133e6015260a051816118560152f35b6020600491604051928380926338d52e0f60e01b82525afa9081156102cc575f9161028e575b506001600160a01b03160361027f5760078054610100600160a81b03191660089390931b610100600160a81b0316929092179091556101bf905f806101a0565b630ebbc86b60e31b5f5260045ffd5b90506020813d6020116102c4575b816102a9602093836104da565b810103126102c0576102ba906104fd565b5f61023f565b5f80fd5b3d915061029c565b6040513d5f823e3d90fd5b639fabe1c160e01b5f5260045ffd5b506012610165565b015190505f80610140565b601f1982169560045f52805f20915f5b8881106103445750836001959697981061032c575b505050811b01600455610155565b01515f1960f88460031b161c191690555f808061031e565b91926020600181928685015181550194019201610309565b60045f527f8a35acfbc15ff81a39ae7d344fd709f28e8600b4aa8c65c6b64bfe7fe36bd19b601f830160051c810191602084106103b5575b601f0160051c01905b8181106103aa5750610124565b5f815560010161039d565b9091508190610394565b634e487b7160e01b5f52602260045260245ffd5b90607f1690610112565b634e487b7160e01b5f52604160045260245ffd5b015190505f806100dc565b60035f9081528281209350601f198516905b81811061044a5750908460019594939210610432575b505050811b016003556100f1565b01515f1960f88460031b161c191690555f8080610424565b9293602060018192878601518155019501930161040e565b60035f529091507fc2575a0e9e593c00f959f8c92f12db2869c3395a3b0502d05e2516446f71f85b601f840160051c810191602085106104c6575b90601f859493920160051c01905b8181106104b857506100c6565b5f81558493506001016104ab565b909150819061049d565b91607f16916100b2565b601f909101601f19168101906001600160401b038211908210176103dd57604052565b51906001600160a01b03821682036102c057565b6001600160401b0381116103dd57601f01601f191660200190565b81601f820112156102c05780519061054382610511565b9261055160405194856104da565b828452602083830101116102c057815f9260208093018386015e8301015290565b6001600160a01b0381165f9081525f5160206140645f395f51905f52602052604090205460ff166105e3576001600160a01b03165f8181525f5160206140645f395f51905f5260205260408120805460ff191660011790553391905f5160206140245f395f51905f528180a4600190565b505f90565b6001600160a01b0381165f9081525f5160206140445f395f51905f52602052604090205460ff166105e3576001600160a01b03165f8181525f5160206140445f395f51905f5260205260408120805460ff191660011790553391907fa49807205ce4d355092ef5a8a18f56e8913cf4a201fbe287825b095693c21775905f5160206140245f395f51905f529080a4600190565b5f8091604051602081019063313ce56760e01b82526004815261069f6024826104da565b51916001600160a01b03165afa3d15610716573d906106bd82610511565b916106cb60405193846104da565b82523d5f602084013e5b8061070a575b6106e7575b505f905f90565b6020818051810103126102c0576020015160ff81116106e0579060ff6001921690565b506020815110156106db565b6060906106d556fe6080806040526004361015610012575f80fd5b5f905f3560e01c908163017c3e6014611b875750806301e1d11414611b6d57806301ffc9a714611b1757806306fdde0314611a5c57806307a2d13a146115fd578063095ea7b3146119b45780630a28a4771461199657806318160ddd146119795780631e62a02d1461193e57806323b872dd14611906578063248a9ca3146118db5780632f2ff15d1461189d578063313ce5671461184257806336568abe146117fe57806338d52e0f146117ba5780633f4ba83a14611754578063402d267d14610b0557806343add2e6146116cf57806344061d90146116025780634cdad506146115fd57806354d703bd146115db5780635c975abb146115b95780636aebd973146115915780636cc8427d146115485780636e553f65146114f157806370a082311461087f57806375b238fc146114b75780638456cb591461145e57806384f1bc621461138f5780638f6fbf091461128657806391d148541461123d57806394bf804d146111e957806395d89b41146110e557806396a86a0c146110ab5780639bfdf2f71461102a5780639e3b77af14610ffe578063a217fddf14610fe4578063a40589f814610fc1578063a9059cbb14610f90578063af44c25514610ef9578063b3d7f6b914610f72578063b460af9414610f23578063b777451c14610ef9578063b839eaf814610b98578063b94305aa14610b57578063ba08765214610b0a578063c63d75b614610b05578063c6e6f59214610583578063c869d0ed1461099e578063ce96cb7714610967578063d4d59edb14610904578063d547741f146108bf578063d905777e1461087f578063da721076146106f4578063dd62ed3e146106a4578063e2d2bfe31461067c578063e5890f2014610588578063ef8b30f7146105835763f30bd63f146102a7575f80fd5b346103cd5760203660031901126103cd576004356102c3612d9e565b6102cb612dbe565b6102d3612b1f565b6008546001600160a01b031690811561052f5780156104cf576102f4611e7c565b81116104645760405163a29a839f60e01b815291602083600481845afa9283156103c2575f93610430575b5082156103d157803b156103cd57604051633c172a4560e21b815230600482015260248101839052905f908290604490829084905af180156103c2576103ac575b5060207f0e5c870408c6d8d0c00d7196a26cb06543f82789b6957194b02bdff50684d8b791838552600d82526040852061039b828254611d63565b9055604051908152a2600160065580f35b6103b99193505f90611d41565b5f916020610360565b6040513d5f823e3d90fd5b5f80fd5b60405162461bcd60e51b815260206004820152603160248201527f436f6c6c656374696f6e735661756c743a204e6f206163746976652065706f63604482015270341034b71022b837b1b426b0b730b3b2b960791b6064820152608490fd5b9092506020813d60201161045c575b8161044c60209383611d41565b810103126103cd5751915f61031f565b3d915061043f565b60405162461bcd60e51b815260206004820152603b60248201527f436f6c6c656374696f6e735661756c743a20416c6c6f636174696f6e20616d6f60448201527f756e74206578636565647320617661696c61626c65207969656c6400000000006064820152608490fd5b60405162461bcd60e51b815260206004820152603260248201527f436f6c6c656374696f6e735661756c743a20416c6c6f636174696f6e20616d6f604482015271756e742063616e6e6f74206265207a65726f60701b6064820152608490fd5b60405162461bcd60e51b815260206004820152602660248201527f436f6c6c656374696f6e735661756c743a2045706f63684d616e61676572206e6044820152651bdd081cd95d60d21b6064820152608490fd5b611cf3565b346103cd575f3660031901126103cd576105a0612b1f565b6105a8612dbe565b6105b0612d9e565b6105b8612dd9565b60405180816020600b549283815201600b5f527f0175b7a638427703f0dbe7bb9bbf987a2551717b34e79f33b5b1008d1fa01db9925f5b81811061065a57505061060492500382611d41565b80515f5b818110610616576001600655005b825181101561064657600581901b83016020015160019190610640906001600160a01b0316612fa0565b01610608565b634e487b7160e01b5f52603260045260245ffd5b84546001600160a01b03168352600194850194869450602090930192016105ef565b346103cd575f3660031901126103cd576008546040516001600160a01b039091168152602090f35b346103cd5760403660031901126103cd576106bd611be9565b6106c5611bff565b6001600160a01b039182165f908152600160209081526040808320949093168252928352819020549051908152f35b346103cd5761070236611ca5565b61070a612d9e565b610712612dbe565b61071a612dd9565b61072381612fa0565b6001600160a01b03165f818152600960205260409020600101549390848211610864576107f28260209661075682612977565b96610760836133cb565b6001600160a01b0387169661077e908990338a9003610854576136ae565b6107b283827f00000000000000000000000000000000000000000000000000000000000000006001600160a01b031661371f565b60018060a01b03169586604051848152898b8201527ffbde797d201c681b91056529119e0b02407c7bb96a4a2c75c01fc9667232c8db60403392a4611e6f565b815f5260098652600160405f2001557f7d04be3758d1ab0d8d44adf00e750a53c23ceec5e52516e2f8a99402b06ea4f76040518061084487803397846040919493926060820195825260208201520152565b0390a46001600655604051908152f35b61085f8233836129d2565b6136ae565b84925063ae86887160e01b5f5260045260245260445260645ffd5b346103cd5760203660031901126103cd5760206108b761089d611be9565b6001600160a01b03165f9081526020819052604090205490565b604051908152f35b346103cd5760403660031901126103cd576109026004356108de611bff565b906108fd6108f8825f526005602052600160405f20015490565b612b8e565b612d1a565b005b346103cd5760203660031901126103cd5761091d611be9565b610925612b1f565b61092d612dbe565b6001600160a01b03168015610958576bffffffffffffffffffffffff60a01b60085416176008555f80f35b639fabe1c160e01b5f5260045ffd5b346103cd5760203660031901126103cd576001600160a01b03610988611be9565b165f525f60205260206108b760405f205461294a565b346103cd5760203660031901126103cd576109b7611be9565b6109bf612b1f565b6109c7612dbe565b6001600160a01b03811680156109585760078054610100600160a81b03198116600885811b610100600160a81b031691909117928390556040516338d52e0f60e01b815291811c6001600160a01b03908116959293602092859260049284921c165afa9182156103c2575f92610ac1575b506001600160a01b037f000000000000000000000000000000000000000000000000000000000000000081169216829003610ab257610a7b9184610aa357613674565b33917fed72d72871e2bd0cdb042dca939ba7543ae2b81b0cc3cd751a82265665aadccb5f80a4005b610aad85826135bb565b613674565b630ebbc86b60e31b5f5260045ffd5b9091506020813d602011610afd575b81610add60209383611d41565b810103126103cd57516001600160a01b03811681036103cd579084610a38565b3d9150610ad0565b611c15565b346103cd57610b1836611c3a565b50506040516378c721c760e11b81526020600482015260136024820152723932b232b2b6a337b921b7b63632b1ba34b7b760691b604482015260649150fd5b346103cd5760203660031901126103cd57610b70611be9565b610b78612b1f565b610b80612dbe565b6001600160a01b038116156109585761090290612bc8565b346103cd57610ba636611ca5565b610bae612d9e565b610bb6612dbe565b610bbe612dd9565b610bc781612fa0565b60018060a01b031692835f526009602052600160405f2001549360025493610bee8361294a565b928315610e9b575b610bff846133cb565b6001600160a01b03851694610c1d90829033889003610854576136ae565b5f855f5160206138b05f395f51905f526020604051858152a38395811480610e92575b610da9575b6040516370a0823160e01b81523060048201527f00000000000000000000000000000000000000000000000000000000000000006001600160a01b03169190602081602481865afa80156103c25788915f91610d74575b5010610d655760209783610cd5897f7d04be3758d1ab0d8d44adf00e750a53c23ceec5e52516e2f8a99402b06ea4f7966108449661371f565b60018060a01b031696876040518a8152848c8201527ffbde797d201c681b91056529119e0b02407c7bb96a4a2c75c01fc9667232c8db60403392a485818111610d4e57610d2191611e6f565b845f5260098952600160405f2001555b604080519586526020860182905285015233939081906060820190565b5050835f52600988525f6001604082200155610d31565b63724da00760e01b5f5260045ffd5b9150506020813d602011610da1575b81610d9060209383611d41565b810103126103cd578790518a610c9c565b3d9150610d83565b6007546040516278744560e21b815260089190911c6001600160a01b031690602081600481855afa9081156103c2575f91610e60575b50610deb575b50610c45565b5f919650602090602460405180948193635eb8fa6f60e01b83523060048401525af180156103c2575f90610e2c575b610e25915084611d63565b9487610de5565b506020813d602011610e58575b81610e4660209383611d41565b810103126103cd57610e259051610e1a565b3d9150610e39565b90506020813d602011610e8a575b81610e7b60209383611d41565b810103126103cd575189610ddf565b3d9150610e6e565b50801515610c40565b8015610bf65760405162461bcd60e51b815260206004820152602a60248201527f455243343632363a2072656465656d20726f756e647320646f776e20746f207a60448201526965726f2061737365747360b01b6064820152608490fd5b346103cd5760203660031901126103cd576004355f52600d602052602060405f2054604051908152f35b346103cd57610f3136611c3a565b50506040516378c721c760e11b81526020600482015260156024820152743bb4ba34323930bba337b921b7b63632b1ba34b7b760591b604482015260649150fd5b346103cd5760203660031901126103cd5760206108b760043561291c565b346103cd5760403660031901126103cd57610fb6610fac611be9565b6024359033612a75565b602060405160018152f35b346103cd5760203660031901126103cd5760206108b7610fdf611be9565b612836565b346103cd575f3660031901126103cd5760206040515f8152f35b346103cd575f3660031901126103cd5760075460405160089190911c6001600160a01b03168152602090f35b346103cd5760403660031901126103cd57611043611be9565b6024359061ffff82168092036103cd5761105b612b1f565b611063612dbe565b6001600160a01b0381169081156109585761108e90611080612dd9565b61108981612ee7565b612fa0565b5f526009602052600460405f20019061ffff198254161790555f80f35b346103cd575f3660031901126103cd5760206040517fbcdd9bf55569a395cd79025821af7c971a1601b69479f021adc1b67f548673f38152f35b346103cd575f3660031901126103cd576040515f6004548060011c906001811680156111df575b6020831081146111cb578285529081156111a75750600114611149575b6111458361113981850382611d41565b60405191829182611ba1565b0390f35b91905060045f527f8a35acfbc15ff81a39ae7d344fd709f28e8600b4aa8c65c6b64bfe7fe36bd19b915f905b80821061118d57509091508101602001611139611129565b919260018160209254838588010152019101909291611175565b60ff191660208086019190915291151560051b840190910191506111399050611129565b634e487b7160e01b5f52602260045260245ffd5b91607f169161110c565b346103cd5760403660031901126103cd57611202611bff565b506040516378c721c760e11b815260206004820152601160248201527036b4b73a2337b921b7b63632b1ba34b7b760791b6044820152606490fd5b346103cd5760403660031901126103cd57611256611bff565b6004355f52600560205260405f209060018060a01b03165f52602052602060ff60405f2054166040519015158152f35b346103cd5760803660031901126103cd5760043567ffffffffffffffff81116103cd576112b7903690600401611c74565b9060243567ffffffffffffffff81116103cd576112d8903690600401611c74565b9060443567ffffffffffffffff81116103cd576112f9903690600401611c74565b335f9081527fa01c6dab41afbaf71f77b0ec32e349ced011741063524fbddf6b7ae0dcdc38896020526040902054909391929060ff16156113585761135195611340612dbe565b611348612d9e565b6064359561233a565b6001600655005b63e2517d3f60e01b5f52336004527fbcdd9bf55569a395cd79025821af7c971a1601b69479f021adc1b67f548673f360245260445ffd5b346103cd57602061139f36611c3a565b6113a7612d9e565b6113af612dbe565b6113b7612dd9565b6113c081612ee7565b6113c981612fa0565b6001600160a01b03165f8181526009855260409020929060016113eb8361291c565b946113f8848787336130a7565b611401866131ab565b0161140d858254611d63565b90556040805185815260208101849052908101929092526001600160a01b039092169133917fe619f47e82caeee4ee7f64588a6c7eca209f646fce7a915293151653db58442e908060608101610844565b346103cd575f3660031901126103cd57611476612b1f565b61147e612dbe565b600160ff1960075416176007557f62e78cea01bee320cd4e420270b5ea74000d11b0c9f74754ebdbfc544b05a2586020604051338152a1005b346103cd575f3660031901126103cd5760206040517fa49807205ce4d355092ef5a8a18f56e8913cf4a201fbe287825b095693c217758152f35b346103cd5760403660031901126103cd5761150a611bff565b506040516378c721c760e11b81526020600482015260146024820152733232b837b9b4ba2337b921b7b63632b1ba34b7b760611b6044820152606490fd5b346103cd5760403660031901126103cd57611561611bff565b6004355f52600e60205260405f209060018060a01b03165f52602052602060ff60405f2054166040519015158152f35b346103cd5760203660031901126103cd5760043580151581036103cd576108b76020916120a9565b346103cd575f3660031901126103cd57602060ff600754166040519015158152f35b346103cd575f3660031901126103cd576020604051670de0b6b3a76400008152f35b611bcb565b346103cd57602061161236611c3a565b61161a612d9e565b611622612dbe565b61162a612dd9565b61163381612ee7565b61163c81612fa0565b6001600160a01b03165f81815260098552604090209290600161165e836129a5565b9461166b868587336130a7565b611674846131ab565b01611680838254611d63565b9055604080519283526020830185905282018490526001600160a01b039092169133917fe619f47e82caeee4ee7f64588a6c7eca209f646fce7a915293151653db58442e908060608101610844565b346103cd5760203660031901126103cd576001600160a01b036116f0611be9565b165f52600960205260e060405f2060018060a01b03815416906001810154906002810154600382015461ffff600484015416916006600585015494015494604051968752602087015260408601526060850152608084015260a083015260c0820152f35b346103cd575f3660031901126103cd5761176c612b1f565b60075460ff8116156117ab5760ff19166007557f5db9ee0a495bf2e6ff9c91a7834c1ba4fdd244a5e8aa4e537bd38aeae4b073aa6020604051338152a1005b638dfc202b60e01b5f5260045ffd5b346103cd575f3660031901126103cd576040517f00000000000000000000000000000000000000000000000000000000000000006001600160a01b03168152602090f35b346103cd5760403660031901126103cd57611817611bff565b336001600160a01b038216036118335761090290600435612d1a565b63334bd91960e11b5f5260045ffd5b346103cd575f3660031901126103cd5760ff7f00000000000000000000000000000000000000000000000000000000000000001660ff811161188957602090604051908152f35b634e487b7160e01b5f52601160045260245ffd5b346103cd5760403660031901126103cd576109026004356118bc611bff565b906118d66108f8825f526005602052600160405f20015490565b612c94565b346103cd5760203660031901126103cd5760206108b76004355f526005602052600160405f20015490565b346103cd5760603660031901126103cd57610fb6611922611be9565b61192a611bff565b604435916119398333836129d2565b612a75565b346103cd5760203660031901126103cd576001600160a01b0361195f611be9565b165f5260096020526020600560405f200154604051908152f35b346103cd575f3660031901126103cd576020600254604051908152f35b346103cd5760203660031901126103cd5760206108b7600435612977565b346103cd5760403660031901126103cd576119cd611be9565b602435903315611a49576001600160a01b0316908115611a3657335f52600160205260405f20825f526020528060405f20556040519081527f8c5be1e5ebec7d5bd14f71427d1e84f3dd0314c0f7b2291e5b200ac8c7c3b92560203392a3602060405160018152f35b634a1406b160e11b5f525f60045260245ffd5b63e602df0560e01b5f525f60045260245ffd5b346103cd575f3660031901126103cd576040515f6003548060011c90600181168015611b0d575b6020831081146111cb578285529081156111a75750600114611aaf576111458361113981850382611d41565b91905060035f527fc2575a0e9e593c00f959f8c92f12db2869c3395a3b0502d05e2516446f71f85b915f905b808210611af357509091508101602001611139611129565b919260018160209254838588010152019101909291611adb565b91607f1691611a83565b346103cd5760203660031901126103cd5760043563ffffffff60e01b81168091036103cd57602090637965db0b60e01b8114908115611b5c575b506040519015158152f35b6301ffc9a760e01b14905082611b51565b346103cd575f3660031901126103cd5760206108b7611d70565b346103cd575f3660031901126103cd57602090600a548152f35b602060409281835280519182918282860152018484015e5f828201840152601f01601f1916010190565b346103cd5760203660031901126103cd5760206108b760043561294a565b600435906001600160a01b03821682036103cd57565b602435906001600160a01b03821682036103cd57565b346103cd5760203660031901126103cd57611c2e611be9565b5060206040515f198152f35b60609060031901126103cd57600435906024356001600160a01b03811681036103cd57906044356001600160a01b03811681036103cd5790565b9181601f840112156103cd5782359167ffffffffffffffff83116103cd576020808501948460051b0101116103cd57565b60809060031901126103cd57600435906024356001600160a01b03811681036103cd57906044356001600160a01b03811681036103cd57906064356001600160a01b03811681036103cd5790565b346103cd5760203660031901126103cd5760206108b76004356129a5565b60e0810190811067ffffffffffffffff821117611d2d57604052565b634e487b7160e01b5f52604160045260245ffd5b90601f8019910116810190811067ffffffffffffffff821117611d2d57604052565b9190820180921161188957565b6040516370a0823160e01b81523060048201526020816024817f00000000000000000000000000000000000000000000000000000000000000006001600160a01b03165afa80156103c2575f90611e3c575b6007546040516278744560e21b815292506020908390600490829060081c6001600160a01b03165afa9081156103c2575f91611e06575b611e039250611d63565b90565b90506020823d602011611e34575b81611e2160209383611d41565b810103126103cd57611e03915190611df9565b3d9150611e14565b506020813d602011611e67575b81611e5660209383611d41565b810103126103cd5760049051611dc2565b3d9150611e49565b9190820391821161188957565b60075460081c6001600160a01b031680156120a4576040516278744560e21b8152602081600481855afa9081156103c2575f91612072575b5060405163100e176560e31b815290602082600481865afa9182156103c2575f9261203e575b501115612037576040516278744560e21b815290602082600481845afa9182156103c2575f92612002575b509060206004926040519384809263100e176560e31b82525afa9081156103c2575f91611fcc575b611f379250611e6f565b6008546001600160a01b03168015611f945760206004916040519283809263a29a839f60e01b82525afa9081156103c2575f91611f9a575b508015611f94575f52600d60205260405f20548082115f14611f9457611e0391611e6f565b50505f90565b90506020813d602011611fc4575b81611fb560209383611d41565b810103126103cd57515f611f6f565b3d9150611fa8565b90506020823d602011611ffa575b81611fe760209383611d41565b810103126103cd57611f37915190611f2d565b3d9150611fda565b91506020823d60201161202f575b8161201d60209383611d41565b810103126103cd579051906020611f05565b3d9150612010565b505f611f37565b9091506020813d60201161206a575b8161205a60209383611d41565b810103126103cd5751905f611eda565b3d915061204d565b90506020813d60201161209c575b8161208d60209383611d41565b810103126103cd57515f611eb4565b3d9150612080565b505f90565b60075460081c6001600160a01b03168015611f94576040516278744560e21b8152602081600481855afa9081156103c2575f9161226d575b5060405163100e176560e31b815290602082600481865afa9182156103c2575f92612239575b501115612231576040516278744560e21b815290602082600481845afa9182156103c2575f926121fc575b509060206004926040519384809263100e176560e31b82525afa9081156103c2575f916121c6575b6121649250611e6f565b905b611e03576008546001600160a01b03168015611f945760206004916040519283809263a29a839f60e01b82525afa9081156103c2575f91611f9a57508015611f94575f52600d60205260405f20548082115f14611f9457611e0391611e6f565b90506020823d6020116121f4575b816121e160209383611d41565b810103126103cd5761216491519061215a565b3d91506121d4565b91506020823d602011612229575b8161221760209383611d41565b810103126103cd579051906020612132565b3d915061220a565b505f90612166565b9091506020813d602011612265575b8161225560209383611d41565b810103126103cd5751905f612107565b3d9150612248565b90506020813d602011612297575b8161228860209383611d41565b810103126103cd57515f6120e1565b3d915061227b565b91908110156106465760051b0190565b356001600160a01b03811681036103cd5790565b8181029291811591840414171561188957565b6010545f601055806122e55750565b60105f527f1b6847dc741a1b0cd08d278845f9d819d87b734759afb55fe2de5cb82a9ae672908101905b81811061231a575050565b5f815560010161230f565b8054821015610646575f5260205f2001905f90565b9594939290919281851480159061280e575b6127b85785156127af5761235e612dd9565b5f5b8581106127355750612371866133cb565b60075460405163095ea7b360e01b602080830191825260089390931c6001600160a01b039081166024840181905260448085019b909b529983527f0000000000000000000000000000000000000000000000000000000000000000169892905f906123dd606485611d41565b835190828c5af15f513d82612719575b5050156126d4575b50506123ff6122d6565b5f5b85811061262a5750505f956010545f905b8082106124da5750506124236122d6565b5f5b8581106124785750505050505061244a9060018060a01b0360075460081c16906135bb565b6040519081527faf55a1278d05b25a81718352502b10bbece77cee463633323b8e92d2d5ad009560203392a2565b80612486600192858861229f565b35156124d55761249f61249a82878661229f565b6122af565b6124aa82868961229f565b3590838060a01b03165f5260096020526124cc600560405f2001918254611d63565b90555b01612425565b6124cf565b9097601054891015610646577f1b6847dc741a1b0cd08d278845f9d819d87b734759afb55fe2de5cb82a9ae6728901546001600160a01b039081165f818152600f602090815260408083205460075491516304c11f0360e31b81526004810186905260248101829052949e90969095909493849260449284929160081c165af19081156103c2575f916125f9575b5061258e5760019261257991611d63565b995f52600f6020525f60408120550190612412565b60405162461bcd60e51b815260206004820152603f60248201527f436f6c6c656374696f6e735661756c743a20526570617920626f72726f77206260448201527f6568616c66206661696c656420766961204c656e64696e674d616e61676572006064820152608490fd5b90506020813d8211612622575b8161261360209383611d41565b810103126103cd57515f612568565b3d9150612606565b61263581848761229f565b359081612647575b6001915001612401565b6001600160a01b0361265d61249a838a8761229f565b1691825f52600f60205260405f205415612692575b6001925f52600f60205261268b60405f20918254611d63565b905561263d565b60105492600160401b841015611d2d576126b58460018096016010556010612325565b81549060031b9083821b91878060a01b03901b19161790559250612672565b61270c612712926040519063095ea7b360e01b602083015260248201525f604482015260448152612706606482611d41565b896137b9565b876137b9565b5f806123f5565b90915061272d5750873b15155b5f806123ed565b600114612726565b61274081848761229f565b35156127a75761275461249a82868b61229f565b61275f82858861229f565b3561276982612fa0565b61277381836132f8565b929015612787575050506001905b01612360565b6335a9aa2f60e11b5f5260018060a01b031660045260245260445260645ffd5b600190612781565b50505050505050565b60405162461bcd60e51b815260206004820152602860248201527f436f6c6c656374696f6e735661756c743a204172726179206c656e67746873206044820152670dad2e6dac2e8c6d60c31b6064820152608490fd5b508285141561234c565b8115612822570490565b634e487b7160e01b5f52601260045260245ffd5b60018060a01b03165f52600960205260405f2060405161285581611d11565b81546001600160a01b03168082526001830154602083018181526002850154604085015260038501546060850152600485015461ffff1660808501818152600587015460a087015260069096015460c090950185905290939215908115612913575b508015612907575b61290057506128f8611e039361ffff6128ef6128e869021e19e0c9bab240000095600a54611e6f565b86516122c3565b915116906122c3565b049051611d63565b9250505090565b5081600a5411156128bf565b9050155f6128b7565b612924611d70565b9060018201809211611889576002546001810180911161188957611e039260019261375b565b612952611d70565b9060018201809211611889576002546001810180911161188957611e03925f9261375b565b60025490600182018092116118895761298e611d70565b6001810180911161188957611e039260019261375b565b6002549060018201809211611889576129bc611d70565b6001810180911161188957611e03925f9261375b565b6001600160a01b039081165f818152600160209081526040808320948616835293905291909120549291905f198410612a0c575b50505050565b828410612a52578015611a49576001600160a01b03821615611a36575f52600160205260405f209060018060a01b03165f5260205260405f20910390555f808080612a06565b508290637dc7a0d960e11b5f5260018060a01b031660045260245260445260645ffd5b6001600160a01b0316908115612b0c576001600160a01b0316918215612af957815f525f60205260405f2054818110612ae057815f5160206138b05f395f51905f5292602092855f525f84520360405f2055845f525f825260405f20818154019055604051908152a3565b8263391434e360e21b5f5260045260245260445260645ffd5b63ec442f0560e01b5f525f60045260245ffd5b634b637e8f60e11b5f525f60045260245ffd5b335f9081527fd8ef4509105c3edb0b04658b4528edc5ddd30ea5a81e623a2623c88db1eb54b6602052604090205460ff1615612b5757565b63e2517d3f60e01b5f52336004527fa49807205ce4d355092ef5a8a18f56e8913cf4a201fbe287825b095693c2177560245260445ffd5b5f81815260056020908152604080832033845290915290205460ff1615612bb25750565b63e2517d3f60e01b5f523360045260245260445ffd5b6001600160a01b0381165f9081527fa01c6dab41afbaf71f77b0ec32e349ced011741063524fbddf6b7ae0dcdc3889602052604090205460ff166120a4576001600160a01b03165f8181527fa01c6dab41afbaf71f77b0ec32e349ced011741063524fbddf6b7ae0dcdc388960205260408120805460ff191660011790553391907fbcdd9bf55569a395cd79025821af7c971a1601b69479f021adc1b67f548673f3907f2f8788117e7eff1d82e926ec794901d17c78024a50270940304540a733656f0d9080a4600190565b5f8181526005602090815260408083206001600160a01b038616845290915290205460ff16611f94575f8181526005602090815260408083206001600160a01b0395909516808452949091528120805460ff19166001179055339291907f2f8788117e7eff1d82e926ec794901d17c78024a50270940304540a733656f0d9080a4600190565b5f8181526005602090815260408083206001600160a01b038616845290915290205460ff1615611f94575f8181526005602090815260408083206001600160a01b0395909516808452949091528120805460ff19169055339291907ff6391f5c32d9c69d2a47ea670b442974b53935d1edc7fd64eb21e047a839171b9080a4600190565b600260065414612daf576002600655565b633ee5aeb560e01b5f5260045ffd5b60ff60075416612dca57565b63d93c066560e01b5f5260045ffd5b60075460081c6001600160a01b03168015612ee45760405163100e176560e31b8152602081600481855afa9081156103c2575f91612eb2575b508015612eae576020600492604051938480926278744560e21b82525afa9182156103c2575f92612e7a575b50670de0b6b3a7640000820291808304670de0b6b3a7640000149015171561188957612e6991612818565b600a548111612e755750565b600a55565b9091506020813d602011612ea6575b81612e9660209383611d41565b810103126103cd5751905f612e3e565b3d9150612e89565b5050565b90506020813d602011612edc575b81612ecd60209383611d41565b810103126103cd57515f612e12565b3d9150612ec0565b50565b6001600160a01b03165f818152600c602052604090205460ff1615612f095750565b805f52600c60205260405f20600160ff19825416179055600b54600160401b811015611d2d57806001612f419201600b55600b612325565b81546001600160a01b0360039290921b82811b199091169084901b179091555f828152600960205260409020805490911615612f7b575050565b80546001600160a01b0319169091178155600601805415612f995750565b600a549055565b60018060a01b0316805f52600960205260405f2090805f52600c60205260ff60405f205416158015613095575b612eae5761ffff60048301541680156130895760068301928354600a54818111612ffe575b5050505050600a549055565b61302c60016130188469021e19e0c9bab240000094611e6f565b940194613027865495866122c3565b6122c3565b04908115612ff2577fe7d7ea8aa11ec2e18d67e00de2b5dce7b65f8a032d8496015263d4217582e7c39361306283608095611d63565b809155600a5490604051938452602084015260408301526060820152a25f80808080612ff2565b50506006600a54910155565b5081546001600160a01b031615612fcd565b6040516323b872dd60e01b60208201526001600160a01b03909116602482018190523060448301526064808301859052825292919061311a906130eb608482611d41565b7f00000000000000000000000000000000000000000000000000000000000000006001600160a01b03166137b9565b6001600160a01b0316928315612af9577fdcbc1c05240f31ff3ad067ef1ee35ce4997762752e3a095284754544f4c709d7918161315b604093600254611d63565b600255855f525f602052825f20818154019055855f5f5160206138b05f395f51905f5260208651858152a382519182526020820152a3565b908160209103126103cd575180151581036103cd5790565b806131b35750565b600754604051636eb1769f60e11b81523060048201526001600160a01b0360089290921c82166024820181905292917f00000000000000000000000000000000000000000000000000000000000000001690602081604481855afa9081156103c2575f916132c0575b50905f938360209493106132b0575b505060075460405163690c42c160e11b8152600481019290925290928391602491839160081c6001600160a01b03165af19081156103c2575f91613281575b501561327257565b63d8449a5960e01b5f5260045ffd5b6132a3915060203d6020116132a9575b61329b8183611d41565b810190613193565b5f61326a565b503d613291565b6132b991613674565b5f8061322b565b929190506020833d6020116132f0575b816132dd60209383611d41565b810103126103cd5791519091905f61321c565b3d91506132d0565b91909160018060a01b0381165f52600960205260405f20906040519061331d82611d11565b60018060a01b03835416825260018301549160208101928352600284015460408201526003840154606082015261ffff6004850154169081608082015260c0600660058701549660a084019788520154910152156133c15761337e90612836565b9051808211156133b85761339191611e6f565b905b51808211156133ae576133a591611e6f565b80925b11159190565b50505f80926133a8565b50505f90613393565b5050509015905f90565b8015612ee4576040516370a0823160e01b81523060048201527f00000000000000000000000000000000000000000000000000000000000000006001600160a01b031690602081602481855afa9081156103c2575f91613589575b5082811061343357505050565b61343d9083611e6f565b6007546040516278744560e21b815260089190911c6001600160a01b03169190602081600481865afa9081156103c2575f91613557575b508111156134825750505050565b8015612a06575f916024602092604051948593849263684a169760e11b845260048401525af19081156103c2575f91613538575b5015613529576020602491604051928380926370a0823160e01b82523060048301525afa9081156103c2575f916134f7575b5010610d65575f808080612a06565b90506020813d602011613521575b8161351260209383611d41565b810103126103cd57515f6134e8565b3d9150613505565b638b78daf760e01b5f5260045ffd5b613551915060203d6020116132a95761329b8183611d41565b5f6134b6565b90506020813d602011613581575b8161357260209383611d41565b810103126103cd57515f613474565b3d9150613565565b90506020813d6020116135b3575b816135a460209383611d41565b810103126103cd57515f613426565b3d9150613597565b6040519060205f8184019463095ea7b360e01b865260018060a01b031694856024860152816044860152604485526135f4606486611d41565b84519082855af15f513d8261364f575b50501561361057505050565b61364861364d936040519063095ea7b360e01b602083015260248201525f604482015260448152613642606482611d41565b826137b9565b6137b9565b565b90915061366c57506001600160a01b0381163b15155b5f80613604565b600114613665565b6040519060205f8184019463095ea7b360e01b865260018060a01b03169485602486015281196044860152604485526135f4606486611d41565b9091906001600160a01b03168015612b0c57805f525f60205260405f2054838110613705576020845f94955f5160206138b05f395f51905f52938587528684520360408620558060025403600255604051908152a3565b915063391434e360e21b5f5260045260245260445260645ffd5b60405163a9059cbb60e01b60208201526001600160a01b0392909216602483015260448083019390935291815261364d91613648606483611d41565b9291613768818386613811565b9260048110156137a557600180911614918261378e575b5050611e039250151590611d63565b908092501561282257611e03930915155f8061377f565b634e487b7160e01b5f52602160045260245ffd5b905f602091828151910182855af1156103c2575f513d61380857506001600160a01b0381163b155b6137e85750565b635274afe760e01b5f9081526001600160a01b0391909116600452602490fd5b600114156137e1565b90915f1983830992808302928380861095039480860395146138a2578483111561388a5790829109815f0382168092046002816003021880820260020302808202600203028082026002030280820260020302808202600203028091026002030293600183805f03040190848311900302920304170290565b82634e487b715f52156003026011186020526024601cfd5b505090611e03925061281856feddf252ad1be2c89b69c2b068fc378daa952ba7f163c4a11628f55a4df523b3efa2646970667358221220771a3402cf0fd9ebb007c4d88c12c9c3ed97d0296ee65a8325de0951a983280264736f6c634300081e00332f8788117e7eff1d82e926ec794901d17c78024a50270940304540a733656f0dd8ef4509105c3edb0b04658b4528edc5ddd30ea5a81e623a2623c88db1eb54b605b8ccbb9d4d8fb16ea74ce3c29a41f1b461fbdaff4714a0d9a8eb05499746bc","linkReferences":{}},"methodIdentifiers":{"ADMIN_ROLE()":"75b238fc","DEBT_SUBSIDIZER_ROLE()":"96a86a0c","DEFAULT_ADMIN_ROLE()":"a217fddf","GLOBAL_DEPOSIT_INDEX_PRECISION()":"54d703bd","allocateEpochYield(uint256)":"f30bd63f","allowance(address,address)":"dd62ed3e","approve(address,uint256)":"095ea7b3","asset()":"38d52e0f","balanceOf(address)":"70a08231","collectionTotalAssetsDeposited(address)":"a40589f8","collectionYieldTransferred(address)":"1e62a02d","collections(address)":"43add2e6","convertToAssets(uint256)":"07a2d13a","convertToShares(uint256)":"c6e6f592","decimals()":"313ce567","deposit(uint256,address)":"6e553f65","depositForCollection(uint256,address,address)":"44061d90","epochCollectionYieldApplied(uint256,address)":"6cc8427d","epochManager()":"e2d2bfe3","epochYieldAllocations(uint256)":"af44c255","getCurrentEpochYield(bool)":"6aebd973","getEpochYieldAllocated(uint256)":"b777451c","getRoleAdmin(bytes32)":"248a9ca3","globalDepositIndex()":"017c3e60","grantRole(bytes32,address)":"2f2ff15d","hasRole(bytes32,address)":"91d14854","indexCollectionsDeposits()":"e5890f20","lendingManager()":"9e3b77af","maxDeposit(address)":"402d267d","maxMint(address)":"c63d75b6","maxRedeem(address)":"d905777e","maxWithdraw(address)":"ce96cb77","mint(uint256,address)":"94bf804d","mintForCollection(uint256,address,address)":"84f1bc62","name()":"06fdde03","pause()":"8456cb59","paused()":"5c975abb","previewDeposit(uint256)":"ef8b30f7","previewMint(uint256)":"b3d7f6b9","previewRedeem(uint256)":"4cdad506","previewWithdraw(uint256)":"0a28a477","redeem(uint256,address,address)":"ba087652","redeemForCollection(uint256,address,address,address)":"b839eaf8","renounceRole(bytes32,address)":"36568abe","repayBorrowBehalfBatch(address[],uint256[],address[],uint256)":"8f6fbf09","revokeRole(bytes32,address)":"d547741f","setCollectionYieldSharePercentage(address,uint16)":"9bfdf2f7","setDebtSubsidizer(address)":"b94305aa","setEpochManager(address)":"d4d59edb","setLendingManager(address)":"c869d0ed","supportsInterface(bytes4)":"01ffc9a7","symbol()":"95d89b41","totalAssets()":"01e1d114","totalSupply()":"18160ddd","transfer(address,uint256)":"a9059cbb","transferFrom(address,address,uint256)":"23b872dd","unpause()":"3f4ba83a","withdraw(uint256,address,address)":"b460af94","withdrawForCollection(uint256,address,address,address)":"da721076"},"id":79}