{"abi":[{"type":"constructor","inputs":[{"name":"_asset","type":"address","internalType":"contract IERC20"},{"name":"_name","type":"string","internalType":"string"},{"name":"_symbol","type":"string","internalType":"string"},{"name":"initialAdmin","type":"address","internalType":"address"},{"name":"_lendingManagerAddress","type":"address","internalType":"address"},{"name":"_collectionRegistryAddress","type":"address","internalType":"address"}],"stateMutability":"nonpayable"},{"type":"function","name":"ADMIN_ROLE","inputs":[],"outputs":[{"name":"","type":"bytes32","internalType":"bytes32"}],"stateMutability":"view"},{"type":"function","name":"DEBT_SUBSIDIZER_ROLE","inputs":[],"outputs":[{"name":"","type":"bytes32","internalType":"bytes32"}],"stateMutability":"view"},{"type":"function","name":"DEFAULT_ADMIN_ROLE","inputs":[],"outputs":[{"name":"","type":"bytes32","internalType":"bytes32"}],"stateMutability":"view"},{"type":"function","name":"GLOBAL_DEPOSIT_INDEX_PRECISION","inputs":[],"outputs":[{"name":"","type":"uint256","internalType":"uint256"}],"stateMutability":"view"},{"type":"function","name":"allocateEpochYield","inputs":[{"name":"amount","type":"uint256","internalType":"uint256"}],"outputs":[],"stateMutability":"nonpayable"},{"type":"function","name":"allocateYieldToEpoch","inputs":[{"name":"epochId","type":"uint256","internalType":"uint256"}],"outputs":[],"stateMutability":"nonpayable"},{"type":"function","name":"allowance","inputs":[{"name":"owner","type":"address","internalType":"address"},{"name":"spender","type":"address","internalType":"address"}],"outputs":[{"name":"","type":"uint256","internalType":"uint256"}],"stateMutability":"view"},{"type":"function","name":"applyCollectionYieldForEpoch","inputs":[{"name":"collectionAddress","type":"address","internalType":"address"},{"name":"epochId","type":"uint256","internalType":"uint256"}],"outputs":[],"stateMutability":"nonpayable"},{"type":"function","name":"approve","inputs":[{"name":"spender","type":"address","internalType":"address"},{"name":"value","type":"uint256","internalType":"uint256"}],"outputs":[{"name":"","type":"bool","internalType":"bool"}],"stateMutability":"nonpayable"},{"type":"function","name":"asset","inputs":[],"outputs":[{"name":"","type":"address","internalType":"address"}],"stateMutability":"view"},{"type":"function","name":"balanceOf","inputs":[{"name":"account","type":"address","internalType":"address"}],"outputs":[{"name":"","type":"uint256","internalType":"uint256"}],"stateMutability":"view"},{"type":"function","name":"collectionRegistry","inputs":[],"outputs":[{"name":"","type":"address","internalType":"contract ICollectionRegistry"}],"stateMutability":"view"},{"type":"function","name":"collectionTotalAssetsDeposited","inputs":[{"name":"collectionAddress","type":"address","internalType":"address"}],"outputs":[{"name":"","type":"uint256","internalType":"uint256"}],"stateMutability":"view"},{"type":"function","name":"collectionVaultsData","inputs":[{"name":"","type":"address","internalType":"address"}],"outputs":[{"name":"totalAssetsDeposited","type":"uint256","internalType":"uint256"},{"name":"totalSharesMinted","type":"uint256","internalType":"uint256"},{"name":"totalCTokensMinted","type":"uint256","internalType":"uint256"},{"name":"lastGlobalDepositIndex","type":"uint256","internalType":"uint256"}],"stateMutability":"view"},{"type":"function","name":"convertToAssets","inputs":[{"name":"shares","type":"uint256","internalType":"uint256"}],"outputs":[{"name":"","type":"uint256","internalType":"uint256"}],"stateMutability":"view"},{"type":"function","name":"convertToShares","inputs":[{"name":"assets","type":"uint256","internalType":"uint256"}],"outputs":[{"name":"","type":"uint256","internalType":"uint256"}],"stateMutability":"view"},{"type":"function","name":"decimals","inputs":[],"outputs":[{"name":"","type":"uint8","internalType":"uint8"}],"stateMutability":"view"},{"type":"function","name":"deposit","inputs":[{"name":"","type":"uint256","internalType":"uint256"},{"name":"","type":"address","internalType":"address"}],"outputs":[{"name":"","type":"uint256","internalType":"uint256"}],"stateMutability":"nonpayable"},{"type":"function","name":"depositForCollection","inputs":[{"name":"assets","type":"uint256","internalType":"uint256"},{"name":"receiver","type":"address","internalType":"address"},{"name":"collectionAddress","type":"address","internalType":"address"}],"outputs":[{"name":"shares","type":"uint256","internalType":"uint256"}],"stateMutability":"nonpayable"},{"type":"function","name":"epochCollectionYieldApplied","inputs":[{"name":"","type":"uint256","internalType":"uint256"},{"name":"","type":"address","internalType":"address"}],"outputs":[{"name":"","type":"bool","internalType":"bool"}],"stateMutability":"view"},{"type":"function","name":"epochManager","inputs":[],"outputs":[{"name":"","type":"address","internalType":"contract IEpochManager"}],"stateMutability":"view"},{"type":"function","name":"epochYieldAllocations","inputs":[{"name":"","type":"uint256","internalType":"uint256"}],"outputs":[{"name":"","type":"uint256","internalType":"uint256"}],"stateMutability":"view"},{"type":"function","name":"getCurrentEpochYield","inputs":[{"name":"includeNonShared","type":"bool","internalType":"bool"}],"outputs":[{"name":"availableYield","type":"uint256","internalType":"uint256"}],"stateMutability":"view"},{"type":"function","name":"getEpochYieldAllocated","inputs":[{"name":"epochId","type":"uint256","internalType":"uint256"}],"outputs":[{"name":"amount","type":"uint256","internalType":"uint256"}],"stateMutability":"view"},{"type":"function","name":"getRoleAdmin","inputs":[{"name":"role","type":"bytes32","internalType":"bytes32"}],"outputs":[{"name":"","type":"bytes32","internalType":"bytes32"}],"stateMutability":"view"},{"type":"function","name":"globalDepositIndex","inputs":[],"outputs":[{"name":"","type":"uint256","internalType":"uint256"}],"stateMutability":"view"},{"type":"function","name":"grantRole","inputs":[{"name":"role","type":"bytes32","internalType":"bytes32"},{"name":"account","type":"address","internalType":"address"}],"outputs":[],"stateMutability":"nonpayable"},{"type":"function","name":"hasRole","inputs":[{"name":"role","type":"bytes32","internalType":"bytes32"},{"name":"account","type":"address","internalType":"address"}],"outputs":[{"name":"","type":"bool","internalType":"bool"}],"stateMutability":"view"},{"type":"function","name":"indexCollectionsDeposits","inputs":[],"outputs":[],"stateMutability":"nonpayable"},{"type":"function","name":"lendingManager","inputs":[],"outputs":[{"name":"","type":"address","internalType":"contract ILendingManager"}],"stateMutability":"view"},{"type":"function","name":"maxDeposit","inputs":[{"name":"","type":"address","internalType":"address"}],"outputs":[{"name":"","type":"uint256","internalType":"uint256"}],"stateMutability":"view"},{"type":"function","name":"maxMint","inputs":[{"name":"","type":"address","internalType":"address"}],"outputs":[{"name":"","type":"uint256","internalType":"uint256"}],"stateMutability":"view"},{"type":"function","name":"maxRedeem","inputs":[{"name":"owner","type":"address","internalType":"address"}],"outputs":[{"name":"","type":"uint256","internalType":"uint256"}],"stateMutability":"view"},{"type":"function","name":"maxWithdraw","inputs":[{"name":"owner","type":"address","internalType":"address"}],"outputs":[{"name":"","type":"uint256","internalType":"uint256"}],"stateMutability":"view"},{"type":"function","name":"mint","inputs":[{"name":"","type":"uint256","internalType":"uint256"},{"name":"","type":"address","internalType":"address"}],"outputs":[{"name":"","type":"uint256","internalType":"uint256"}],"stateMutability":"nonpayable"},{"type":"function","name":"mintForCollection","inputs":[{"name":"shares","type":"uint256","internalType":"uint256"},{"name":"receiver","type":"address","internalType":"address"},{"name":"collectionAddress","type":"address","internalType":"address"}],"outputs":[{"name":"assets","type":"uint256","internalType":"uint256"}],"stateMutability":"nonpayable"},{"type":"function","name":"name","inputs":[],"outputs":[{"name":"","type":"string","internalType":"string"}],"stateMutability":"view"},{"type":"function","name":"pause","inputs":[],"outputs":[],"stateMutability":"nonpayable"},{"type":"function","name":"paused","inputs":[],"outputs":[{"name":"","type":"bool","internalType":"bool"}],"stateMutability":"view"},{"type":"function","name":"previewDeposit","inputs":[{"name":"assets","type":"uint256","internalType":"uint256"}],"outputs":[{"name":"","type":"uint256","internalType":"uint256"}],"stateMutability":"view"},{"type":"function","name":"previewMint","inputs":[{"name":"shares","type":"uint256","internalType":"uint256"}],"outputs":[{"name":"","type":"uint256","internalType":"uint256"}],"stateMutability":"view"},{"type":"function","name":"previewRedeem","inputs":[{"name":"shares","type":"uint256","internalType":"uint256"}],"outputs":[{"name":"","type":"uint256","internalType":"uint256"}],"stateMutability":"view"},{"type":"function","name":"previewWithdraw","inputs":[{"name":"assets","type":"uint256","internalType":"uint256"}],"outputs":[{"name":"","type":"uint256","internalType":"uint256"}],"stateMutability":"view"},{"type":"function","name":"redeem","inputs":[{"name":"","type":"uint256","internalType":"uint256"},{"name":"","type":"address","internalType":"address"},{"name":"","type":"address","internalType":"address"}],"outputs":[{"name":"","type":"uint256","internalType":"uint256"}],"stateMutability":"nonpayable"},{"type":"function","name":"redeemForCollection","inputs":[{"name":"shares","type":"uint256","internalType":"uint256"},{"name":"receiver","type":"address","internalType":"address"},{"name":"owner","type":"address","internalType":"address"},{"name":"collectionAddress","type":"address","internalType":"address"}],"outputs":[{"name":"assets","type":"uint256","internalType":"uint256"}],"stateMutability":"nonpayable"},{"type":"function","name":"renounceRole","inputs":[{"name":"role","type":"bytes32","internalType":"bytes32"},{"name":"callerConfirmation","type":"address","internalType":"address"}],"outputs":[],"stateMutability":"nonpayable"},{"type":"function","name":"repayBorrowBehalf","inputs":[{"name":"amount","type":"uint256","internalType":"uint256"},{"name":"borrower","type":"address","internalType":"address"}],"outputs":[],"stateMutability":"nonpayable"},{"type":"function","name":"repayBorrowBehalfBatch","inputs":[{"name":"amounts","type":"uint256[]","internalType":"uint256[]"},{"name":"borrowers","type":"address[]","internalType":"address[]"},{"name":"totalAmount","type":"uint256","internalType":"uint256"}],"outputs":[],"stateMutability":"nonpayable"},{"type":"function","name":"resetEpochCollectionYieldFlags","inputs":[{"name":"epochId","type":"uint256","internalType":"uint256"},{"name":"collectionsToReset","type":"address[]","internalType":"address[]"}],"outputs":[],"stateMutability":"nonpayable"},{"type":"function","name":"revokeRole","inputs":[{"name":"role","type":"bytes32","internalType":"bytes32"},{"name":"account","type":"address","internalType":"address"}],"outputs":[],"stateMutability":"nonpayable"},{"type":"function","name":"setDebtSubsidizer","inputs":[{"name":"_debtSubsidizerAddress","type":"address","internalType":"address"}],"outputs":[],"stateMutability":"nonpayable"},{"type":"function","name":"setEpochManager","inputs":[{"name":"_epochManagerAddress","type":"address","internalType":"address"}],"outputs":[],"stateMutability":"nonpayable"},{"type":"function","name":"setLendingManager","inputs":[{"name":"_lendingManagerAddress","type":"address","internalType":"address"}],"outputs":[],"stateMutability":"nonpayable"},{"type":"function","name":"supportsInterface","inputs":[{"name":"interfaceId","type":"bytes4","internalType":"bytes4"}],"outputs":[{"name":"","type":"bool","internalType":"bool"}],"stateMutability":"view"},{"type":"function","name":"symbol","inputs":[],"outputs":[{"name":"","type":"string","internalType":"string"}],"stateMutability":"view"},{"type":"function","name":"totalAssets","inputs":[],"outputs":[{"name":"","type":"uint256","internalType":"uint256"}],"stateMutability":"view"},{"type":"function","name":"totalAssetsDepositedAllCollections","inputs":[],"outputs":[{"name":"","type":"uint256","internalType":"uint256"}],"stateMutability":"view"},{"type":"function","name":"totalCollectionYieldShareBps","inputs":[],"outputs":[{"name":"totalBps","type":"uint16","internalType":"uint16"}],"stateMutability":"view"},{"type":"function","name":"totalSupply","inputs":[],"outputs":[{"name":"","type":"uint256","internalType":"uint256"}],"stateMutability":"view"},{"type":"function","name":"transfer","inputs":[{"name":"","type":"address","internalType":"address"},{"name":"","type":"uint256","internalType":"uint256"}],"outputs":[{"name":"","type":"bool","internalType":"bool"}],"stateMutability":"pure"},{"type":"function","name":"transferForCollection","inputs":[{"name":"collectionAddress","type":"address","internalType":"address"},{"name":"to","type":"address","internalType":"address"},{"name":"assets","type":"uint256","internalType":"uint256"}],"outputs":[{"name":"shares","type":"uint256","internalType":"uint256"}],"stateMutability":"nonpayable"},{"type":"function","name":"transferForCollection","inputs":[{"name":"to","type":"address","internalType":"address"},{"name":"amount","type":"uint256","internalType":"uint256"},{"name":"collectionAddress","type":"address","internalType":"address"}],"outputs":[{"name":"","type":"bool","internalType":"bool"}],"stateMutability":"nonpayable"},{"type":"function","name":"transferFrom","inputs":[{"name":"","type":"address","internalType":"address"},{"name":"","type":"address","internalType":"address"},{"name":"","type":"uint256","internalType":"uint256"}],"outputs":[{"name":"","type":"bool","internalType":"bool"}],"stateMutability":"pure"},{"type":"function","name":"unpause","inputs":[],"outputs":[],"stateMutability":"nonpayable"},{"type":"function","name":"withdraw","inputs":[{"name":"","type":"uint256","internalType":"uint256"},{"name":"","type":"address","internalType":"address"},{"name":"","type":"address","internalType":"address"}],"outputs":[{"name":"","type":"uint256","internalType":"uint256"}],"stateMutability":"nonpayable"},{"type":"function","name":"withdrawForCollection","inputs":[{"name":"assets","type":"uint256","internalType":"uint256"},{"name":"receiver","type":"address","internalType":"address"},{"name":"owner","type":"address","internalType":"address"},{"name":"collectionAddress","type":"address","internalType":"address"}],"outputs":[{"name":"shares","type":"uint256","internalType":"uint256"}],"stateMutability":"nonpayable"},{"type":"event","name":"Approval","inputs":[{"name":"owner","type":"address","indexed":true,"internalType":"address"},{"name":"spender","type":"address","indexed":true,"internalType":"address"},{"name":"value","type":"uint256","indexed":false,"internalType":"uint256"}],"anonymous":false},{"type":"event","name":"CollectionDeposit","inputs":[{"name":"collectionAddress","type":"address","indexed":true,"internalType":"address"},{"name":"caller","type":"address","indexed":true,"internalType":"address"},{"name":"receiver","type":"address","indexed":true,"internalType":"address"},{"name":"assets","type":"uint256","indexed":false,"internalType":"uint256"},{"name":"shares","type":"uint256","indexed":false,"internalType":"uint256"},{"name":"cTokenAmount","type":"uint256","indexed":false,"internalType":"uint256"}],"anonymous":false},{"type":"event","name":"CollectionTransfer","inputs":[{"name":"collectionAddress","type":"address","indexed":true,"internalType":"address"},{"name":"from","type":"address","indexed":true,"internalType":"address"},{"name":"to","type":"address","indexed":true,"internalType":"address"},{"name":"assets","type":"uint256","indexed":false,"internalType":"uint256"}],"anonymous":false},{"type":"event","name":"CollectionWithdraw","inputs":[{"name":"collectionAddress","type":"address","indexed":true,"internalType":"address"},{"name":"caller","type":"address","indexed":true,"internalType":"address"},{"name":"receiver","type":"address","indexed":true,"internalType":"address"},{"name":"assets","type":"uint256","indexed":false,"internalType":"uint256"},{"name":"shares","type":"uint256","indexed":false,"internalType":"uint256"},{"name":"cTokenAmount","type":"uint256","indexed":false,"internalType":"uint256"}],"anonymous":false},{"type":"event","name":"CollectionYieldAccrued","inputs":[{"name":"collectionAddress","type":"address","indexed":true,"internalType":"address"},{"name":"yieldAccrued","type":"uint256","indexed":false,"internalType":"uint256"},{"name":"newTotalDeposits","type":"uint256","indexed":false,"internalType":"uint256"},{"name":"globalIndex","type":"uint256","indexed":false,"internalType":"uint256"},{"name":"previousCollectionIndex","type":"uint256","indexed":false,"internalType":"uint256"}],"anonymous":false},{"type":"event","name":"CollectionYieldAppliedForEpoch","inputs":[{"name":"epochId","type":"uint256","indexed":true,"internalType":"uint256"},{"name":"collection","type":"address","indexed":true,"internalType":"address"},{"name":"yieldSharePercentage","type":"uint16","indexed":false,"internalType":"uint16"},{"name":"yieldAdded","type":"uint256","indexed":false,"internalType":"uint256"},{"name":"newTotalDeposits","type":"uint256","indexed":false,"internalType":"uint256"}],"anonymous":false},{"type":"event","name":"CollectionYieldIndexed","inputs":[{"name":"collectionAddress","type":"address","indexed":true,"internalType":"address"},{"name":"epochId","type":"uint256","indexed":true,"internalType":"uint256"},{"name":"assets","type":"uint256","indexed":false,"internalType":"uint256"},{"name":"shares","type":"uint256","indexed":false,"internalType":"uint256"},{"name":"cTokenAmount","type":"uint256","indexed":false,"internalType":"uint256"}],"anonymous":false},{"type":"event","name":"Deposit","inputs":[{"name":"sender","type":"address","indexed":true,"internalType":"address"},{"name":"owner","type":"address","indexed":true,"internalType":"address"},{"name":"assets","type":"uint256","indexed":false,"internalType":"uint256"},{"name":"shares","type":"uint256","indexed":false,"internalType":"uint256"}],"anonymous":false},{"type":"event","name":"LendingManagerChanged","inputs":[{"name":"oldLendingManager","type":"address","indexed":true,"internalType":"address"},{"name":"newLendingManager","type":"address","indexed":true,"internalType":"address"},{"name":"changedBy","type":"address","indexed":true,"internalType":"address"}],"anonymous":false},{"type":"event","name":"Paused","inputs":[{"name":"account","type":"address","indexed":false,"internalType":"address"}],"anonymous":false},{"type":"event","name":"RoleAdminChanged","inputs":[{"name":"role","type":"bytes32","indexed":true,"internalType":"bytes32"},{"name":"previousAdminRole","type":"bytes32","indexed":true,"internalType":"bytes32"},{"name":"newAdminRole","type":"bytes32","indexed":true,"internalType":"bytes32"}],"anonymous":false},{"type":"event","name":"RoleGranted","inputs":[{"name":"role","type":"bytes32","indexed":true,"internalType":"bytes32"},{"name":"account","type":"address","indexed":true,"internalType":"address"},{"name":"sender","type":"address","indexed":true,"internalType":"address"}],"anonymous":false},{"type":"event","name":"RoleRevoked","inputs":[{"name":"role","type":"bytes32","indexed":true,"internalType":"bytes32"},{"name":"account","type":"address","indexed":true,"internalType":"address"},{"name":"sender","type":"address","indexed":true,"internalType":"address"}],"anonymous":false},{"type":"event","name":"Transfer","inputs":[{"name":"from","type":"address","indexed":true,"internalType":"address"},{"name":"to","type":"address","indexed":true,"internalType":"address"},{"name":"value","type":"uint256","indexed":false,"internalType":"uint256"}],"anonymous":false},{"type":"event","name":"Unpaused","inputs":[{"name":"account","type":"address","indexed":false,"internalType":"address"}],"anonymous":false},{"type":"event","name":"VaultYieldAllocatedToEpoch","inputs":[{"name":"epochId","type":"uint256","indexed":true,"internalType":"uint256"},{"name":"amount","type":"uint256","indexed":false,"internalType":"uint256"}],"anonymous":false},{"type":"event","name":"Withdraw","inputs":[{"name":"sender","type":"address","indexed":true,"internalType":"address"},{"name":"receiver","type":"address","indexed":true,"internalType":"address"},{"name":"owner","type":"address","indexed":true,"internalType":"address"},{"name":"assets","type":"uint256","indexed":false,"internalType":"uint256"},{"name":"shares","type":"uint256","indexed":false,"internalType":"uint256"}],"anonymous":false},{"type":"event","name":"YieldBatchRepaid","inputs":[{"name":"totalAmount","type":"uint256","indexed":false,"internalType":"uint256"},{"name":"recipient","type":"address","indexed":true,"internalType":"address"}],"anonymous":false},{"type":"error","name":"AccessControlBadConfirmation","inputs":[]},{"type":"error","name":"AccessControlUnauthorizedAccount","inputs":[{"name":"account","type":"address","internalType":"address"},{"name":"neededRole","type":"bytes32","internalType":"bytes32"}]},{"type":"error","name":"AddressZero","inputs":[]},{"type":"error","name":"CollectionInsufficientBalance","inputs":[{"name":"collectionAddress","type":"address","internalType":"address"},{"name":"requested","type":"uint256","internalType":"uint256"},{"name":"available","type":"uint256","internalType":"uint256"}]},{"type":"error","name":"CollectionNotRegistered","inputs":[{"name":"collectionAddress","type":"address","internalType":"address"}]},{"type":"error","name":"ERC20InsufficientAllowance","inputs":[{"name":"spender","type":"address","internalType":"address"},{"name":"allowance","type":"uint256","internalType":"uint256"},{"name":"needed","type":"uint256","internalType":"uint256"}]},{"type":"error","name":"ERC20InsufficientBalance","inputs":[{"name":"sender","type":"address","internalType":"address"},{"name":"balance","type":"uint256","internalType":"uint256"},{"name":"needed","type":"uint256","internalType":"uint256"}]},{"type":"error","name":"ERC20InvalidApprover","inputs":[{"name":"approver","type":"address","internalType":"address"}]},{"type":"error","name":"ERC20InvalidReceiver","inputs":[{"name":"receiver","type":"address","internalType":"address"}]},{"type":"error","name":"ERC20InvalidSender","inputs":[{"name":"sender","type":"address","internalType":"address"}]},{"type":"error","name":"ERC20InvalidSpender","inputs":[{"name":"spender","type":"address","internalType":"address"}]},{"type":"error","name":"ERC4626ExceededMaxDeposit","inputs":[{"name":"receiver","type":"address","internalType":"address"},{"name":"assets","type":"uint256","internalType":"uint256"},{"name":"max","type":"uint256","internalType":"uint256"}]},{"type":"error","name":"ERC4626ExceededMaxMint","inputs":[{"name":"receiver","type":"address","internalType":"address"},{"name":"shares","type":"uint256","internalType":"uint256"},{"name":"max","type":"uint256","internalType":"uint256"}]},{"type":"error","name":"ERC4626ExceededMaxRedeem","inputs":[{"name":"owner","type":"address","internalType":"address"},{"name":"shares","type":"uint256","internalType":"uint256"},{"name":"max","type":"uint256","internalType":"uint256"}]},{"type":"error","name":"ERC4626ExceededMaxWithdraw","inputs":[{"name":"owner","type":"address","internalType":"address"},{"name":"assets","type":"uint256","internalType":"uint256"},{"name":"max","type":"uint256","internalType":"uint256"}]},{"type":"error","name":"EnforcedPause","inputs":[]},{"type":"error","name":"ExcessiveYieldAmount","inputs":[{"name":"collection","type":"address","internalType":"address"},{"name":"requested","type":"uint256","internalType":"uint256"},{"name":"maxAllowed","type":"uint256","internalType":"uint256"}]},{"type":"error","name":"ExpectedPause","inputs":[]},{"type":"error","name":"FunctionDisabledUse","inputs":[{"name":"functionName","type":"string","internalType":"string"}]},{"type":"error","name":"InsufficientBalanceInProtocol","inputs":[]},{"type":"error","name":"LendingManagerDepositFailed","inputs":[]},{"type":"error","name":"LendingManagerMismatch","inputs":[]},{"type":"error","name":"LendingManagerWithdrawFailed","inputs":[]},{"type":"error","name":"ReentrancyGuardReentrantCall","inputs":[]},{"type":"error","name":"SafeERC20FailedOperation","inputs":[{"name":"token","type":"address","internalType":"address"}]},{"type":"error","name":"ShareBalanceUnderflow","inputs":[]},{"type":"error","name":"Vault_InsufficientBalancePostLMWithdraw","inputs":[]}],"bytecode":{"object":"0x60c0806040523461039357614de1803803809161001c82856105bb565b8339810160c08282031261039357610033826105de565b60208301519091906001600160401b038111610393578161005591850161060d565b604084015190916001600160401b0382116103935761007591850161060d565b91610082606085016105de565b9261009b60a0610094608088016105de565b96016105de565b835190936001600160401b0382116104be5760035490600182811c921680156105b1575b60208310146104a05781601f849311610543575b50602090601f83116001146104dd575f926104d2575b50508160011b915f199060031b1c1916176003555b8051906001600160401b0382116104be5760045490600182811c921680156104b4575b60208310146104a05781601f849311610432575b50602090601f83116001146103cc575f926103c1575b50508160011b915f199060031b1c1916176004555b6101698161075c565b90156103b9575b60a052608081905260016006556001600160a01b0381169182156103aa576001600160a01b038416156103aa576001600160a01b03169182156103aa576001600160a01b0385169182610249575b670de0b6b3a7640000600c55600980546001600160a01b031916851790556101ef856101e981610653565b506106c9565b50604051614529908161085882396080518181816108d601528181610be601528181610f2b01528181611cab01528181612388015281816124d4015281816134dc0152818161391801526140f9015260a05181611d340152f35b6040516338d52e0f60e01b8152602081600481875afa801561039f5783915f9161035f575b506001600160a01b031603610350576101ef9560075490610100600160a81b039060081b1690610100600160a81b031916176007556040519160205f81850163095ea7b360e01b815286602487015281196044870152604486526102d36064876105bb565b85519082865af1903d5f519083610331575b5050506101be57610324610329936040519063095ea7b360e01b602083015260248201525f60448201526044815261031e6064826105bb565b826107ff565b6107ff565b5f80806101be565b9192509061034657503b15155b5f80806102e5565b600191501461033e565b630ebbc86b60e31b5f5260045ffd5b9150506020813d602011610397575b8161037b602093836105bb565b810103126103935761038d83916105de565b5f61026e565b5f80fd5b3d915061036e565b6040513d5f823e3d90fd5b639fabe1c160e01b5f5260045ffd5b506012610170565b015190505f8061014b565b60045f9081528281209350601f198516905b81811061041a5750908460019594939210610402575b505050811b01600455610160565b01515f1960f88460031b161c191690555f80806103f4565b929360206001819287860151815501950193016103de565b60045f529091507f8a35acfbc15ff81a39ae7d344fd709f28e8600b4aa8c65c6b64bfe7fe36bd19b601f840160051c81019160208510610496575b90601f859493920160051c01905b8181106104885750610135565b5f815584935060010161047b565b909150819061046d565b634e487b7160e01b5f52602260045260245ffd5b91607f1691610121565b634e487b7160e01b5f52604160045260245ffd5b015190505f806100e9565b60035f9081528281209350601f198516905b81811061052b5750908460019594939210610513575b505050811b016003556100fe565b01515f1960f88460031b161c191690555f8080610505565b929360206001819287860151815501950193016104ef565b60035f529091507fc2575a0e9e593c00f959f8c92f12db2869c3395a3b0502d05e2516446f71f85b601f840160051c810191602085106105a7575b90601f859493920160051c01905b81811061059957506100d3565b5f815584935060010161058c565b909150819061057e565b91607f16916100bf565b601f909101601f19168101906001600160401b038211908210176104be57604052565b51906001600160a01b038216820361039357565b6001600160401b0381116104be57601f01601f191660200190565b81601f8201121561039357805190610624826105f2565b9261063260405194856105bb565b8284526020838301011161039357815f9260208093018386015e8301015290565b6001600160a01b0381165f9081525f516020614dc15f395f51905f52602052604090205460ff166106c4576001600160a01b03165f8181525f516020614dc15f395f51905f5260205260408120805460ff191660011790553391905f516020614d815f395f51905f528180a4600190565b505f90565b6001600160a01b0381165f9081525f516020614da15f395f51905f52602052604090205460ff166106c4576001600160a01b03165f8181525f516020614da15f395f51905f5260205260408120805460ff191660011790553391907fa49807205ce4d355092ef5a8a18f56e8913cf4a201fbe287825b095693c21775905f516020614d815f395f51905f529080a4600190565b5f8091604051602081019063313ce56760e01b8252600481526107806024826105bb565b51916001600160a01b03165afa3d156107f7573d9061079e826105f2565b916107ac60405193846105bb565b82523d5f602084013e5b806107eb575b6107c8575b505f905f90565b602081805181010312610393576020015160ff81116107c1579060ff6001921690565b506020815110156107bc565b6060906107b6565b905f602091828151910182855af11561039f575f513d61084e57506001600160a01b0381163b155b61082e5750565b635274afe760e01b5f9081526001600160a01b0391909116600452602490fd5b6001141561082756fe6080806040526004361015610012575f80fd5b5f905f3560e01c908163017c3e60146121665750806301e1d1141461214c57806301ffc9a7146120f657806306fdde031461200257806307a2d13a146119ce578063095ea7b314611f5a57806309f14f6d14611f3d5780630a28a47714611f1f578063105804b114611e965780631183945114611e1757806318160ddd14611dfa57806323b872dd14611de4578063248a9ca314611db95780632f2ff15d14611d7b578063313ce56714611d2057806336568abe14611cda57806338d52e0f14611c965780633f4ba83a14611c30578063402d267d14610d5b57806344061d9014611bd4578063476f4840146119d35780634cdad506146119ce57806354d703bd146119ab5780635780b9631461196d5780635c975abb1461194a5780636aebd973146119205780636cc8427d146118d65780636e553f651461187e57806370a0823114610a1e57806375b238fc146118435780638456cb59146117e857806384f1bc62146116e95780638c7cc5e3146116c057806391d148541461167657806394bf804d1461162157806395d89b411461151c57806396a86a0c146114e15780639e3b77af146114b4578063a071036f146113b6578063a217fddf1461139a578063a29be14a1461133d578063a40589f814611319578063a9059cbb146112f9578063aa553b61146112b4578063af44c2551461121b578063b3d7f6b914611295578063b460af9414611245578063b777451c1461121b578063b839eaf814610e5b578063b94305aa14610e19578063ba08765214610dcb578063c5a2239514610d60578063c63d75b614610d5b578063c6e6f592146106cc578063c869d0ed14610b43578063ce96cb7714610b0a578063d4d59edb14610aa7578063d547741f14610a5f578063d905777e14610a1e578063da72107614610844578063dd62ed3e146107f1578063e2d2bfe3146107c8578063e5890f20146106d1578063ef8b30f7146106cc578063f30bd63f146103db5763fbc0d706146102f4575f80fd5b346103d857806003193601126103d857600d54600954829182916001600160a01b03165b81831061032e5760208461ffff60405191168152f35b90919261033a846135ba565b905460405163e40de88760e01b815260039290921b1c6001600160a01b031660048201528581602481865afa80156103cd5760a061ffff9291839289916103ab575b5001511691160161ffff811161039757926001019190610318565b634e487b7160e01b85526011600452602485fd5b6103c791503d808b833e6103bf818361232a565b810190612740565b5f61037c565b6040513d88823e3d90fd5b80fd5b50346103d85760203660031901126103d8576004356103f86137bb565b6104006137a0565b610408613688565b6008546001600160a01b031690811561067857801561061857610429612cf2565b81116105ad5760405163a29a839f60e01b815291602083600481845afa9283156105a257849361056a575b50821561050b578084913b1561050757604051633c172a4560e21b8152306004820152602481018490529082908290604490829084905af180156104fc576104e3575b507f0e5c870408c6d8d0c00d7196a26cb06543f82789b6957194b02bdff50684d8b7918360209252600f8252604085206104d2828254612360565b9055604051908152a2600160065580f35b816104ed9161232a565b6104f857825f610497565b8280fd5b6040513d84823e3d90fd5b5080fd5b60405162461bcd60e51b815260206004820152603160248201527f436f6c6c656374696f6e735661756c743a204e6f206163746976652065706f63604482015270341034b71022b837b1b426b0b730b3b2b960791b6064820152608490fd5b9092506020813d60201161059a575b816105866020938361232a565b810103126105965751915f610454565b5f80fd5b3d9150610579565b6040513d86823e3d90fd5b60405162461bcd60e51b815260206004820152603b60248201527f436f6c6c656374696f6e735661756c743a20416c6c6f636174696f6e20616d6f60448201527f756e74206578636565647320617661696c61626c65207969656c6400000000006064820152608490fd5b60405162461bcd60e51b815260206004820152603260248201527f436f6c6c656374696f6e735661756c743a20416c6c6f636174696f6e20616d6f604482015271756e742063616e6e6f74206265207a65726f60701b6064820152608490fd5b60405162461bcd60e51b815260206004820152602660248201527f436f6c6c656374696f6e735661756c743a2045706f63684d616e61676572206e6044820152651bdd081cd95d60d21b6064820152608490fd5b61230c565b50346103d857806003193601126103d8576106ea613688565b6106f26137a0565b6106fa6137bb565b6107026137db565b60405180816020600d549283815201600d85527fd7b6990105719101dabeb77144f2a3385c8033acd3af97e9423a695e81ad1eb592855b8181106107a657505061074e9250038261232a565b8051825b8181106107625783600160065580f35b825181101561079257600581901b8301602001516001919061078c906001600160a01b0316613f46565b01610752565b634e487b7160e01b84526032600452602484fd5b84546001600160a01b0316835260019485019486945060209093019201610739565b50346103d857806003193601126103d8576008546040516001600160a01b039091168152602090f35b50346103d85760403660031901126103d857604061080d6121c8565b916108166121de565b9260018060a01b031681526001602052209060018060a01b03165f52602052602060405f2054604051908152f35b50346103d857610853366122be565b61085f939192936137bb565b6108676137a0565b61086f6137db565b61087881613f46565b6001600160a01b0316808552600a602052604085208054909590808411610a055783610944916108a78261362d565b976108b1836138fd565b6001600160a01b038816976108cf908a90338b90036109f5576142d2565b61090383827f00000000000000000000000000000000000000000000000000000000000000006001600160a01b0316614343565b60018060a01b031696876040518481528a60208201527ffbde797d201c681b91056529119e0b02407c7bb96a4a2c75c01fc9667232c8db60403392a46128e0565b865561095283600b546128e0565b600b55600186019081549086821080156109e8575b6109d957509560029161097c876020996128e0565b90550161098a8582546128e0565b90556040805192835260208301859052820184905233917f7d04be3758d1ab0d8d44adf00e750a53c23ceec5e52516e2f8a99402b06ea4f79080606081015b0390a46001600655604051908152f35b63cf26439b60e01b8152600490fd5b5086600289015410610967565b610a00823383614230565b6142d2565b8360649363ae86887160e01b8452600452602452604452fd5b50346103d85760203660031901126103d8576020610a57610a3d6121c8565b6001600160a01b03165f9081526020819052604090205490565b604051908152f35b50346103d85760403660031901126103d857610aa3600435610a7f6121de565b90610a9e610a99825f526005602052600160405f20015490565b613766565b613dca565b5080f35b50346103d85760203660031901126103d857610ac16121c8565b610ac9613688565b610ad16137a0565b6001600160a01b03168015610afb576bffffffffffffffffffffffff60a01b600854161760085580f35b639fabe1c160e01b8252600482fd5b50346103d85760203660031901126103d857602090610a57906040906001600160a01b03610b366121c8565b1681528084522054613600565b50346103d85760203660031901126103d857610b5d6121c8565b610b65613688565b610b6d6137a0565b6001600160a01b0381168015610d4c5760078054610100600160a81b03198116600894851b610100600160a81b031617918290556040516338d52e0f60e01b815290841c6001600160a01b03908116949192602092849260049284921c165afa9081156105a2578491610d06575b506001600160a01b037f000000000000000000000000000000000000000000000000000000000000000081169116819003610cf75782610ce8575b60405160208581830163095ea7b360e01b81528560248501525f19604485015260448452610c4560648561232a565b83519082865af185513d82610ccc575b505015610c88575b505033917fed72d72871e2bd0cdb042dca939ba7543ae2b81b0cc3cd751a82265665aadccb8480a480f35b610cc591610cc060405163095ea7b360e01b602082015285602482015287604482015260448152610cba60648261232a565b826143dd565b6143dd565b5f80610c5d565b909150610ce05750813b15155b5f80610c55565b600114610cd9565b610cf28382613b0d565b610c16565b630ebbc86b60e31b8452600484fd5b90506020813d602011610d44575b81610d216020938361232a565b81010312610d4057516001600160a01b0381168103610d40575f610bdb565b8380fd5b3d9150610d14565b639fabe1c160e01b8352600483fd5b61225f565b50346103d85760203660031901126103d8576040906001600160a01b03610d856121c8565b168152600a602052208054610dc76001830154926003600282015491015490604051948594859094939260609260808301968352602083015260408201520152565b0390f35b50346103d857610dda36612284565b50506040516378c721c760e11b81526020600482015260136024820152723932b232b2b6a337b921b7b63632b1ba34b7b760691b604482015260649150fd5b50346103d85760203660031901126103d857610e336121c8565b610e3b613688565b610e436137a0565b6001600160a01b03811615610afb57610aa390613c78565b50346103d857610e6a366122be565b610e789493949291926137bb565b610e806137a0565b610e886137db565b610e9181613e4e565b610e9a81613f46565b6001600160a01b0316808452600a6020526040842080546002549590610ebf88613600565b9485156111bd575b610ed0866138fd565b6001600160a01b03871696610eee908a90338a90036109f5576142d2565b82875f5160206144d45f395f51905f5260206040518d8152a385978914806111b4575b6110c0575b6040516370a0823160e01b81523060048201527f00000000000000000000000000000000000000000000000000000000000000006001600160a01b031690602081602481855afa9081156110b557908a918691611080575b5010611071578882610f7f92614343565b60018060a01b031695866040518981528a60208201527ffbde797d201c681b91056529119e0b02407c7bb96a4a2c75c01fc9667232c8db60403392a48481811161106457610fcc916128e0565b8255610fdb845b600b546128e0565b600b5560018201908154908882108015611057575b6109d957509660027f7d04be3758d1ab0d8d44adf00e750a53c23ceec5e52516e2f8a99402b06ea4f7936109c99361102a8460209c6128e0565b9055016110388282546128e0565b9055604080519586526020860182905285015233939081906060820190565b5088600285015410610ff0565b50610fdb90828455610fd3565b63724da00760e01b8452600484fd5b9150506020813d6020116110ad575b8161109c6020938361232a565b81010312610596578990515f610f6e565b3d915061108f565b6040513d87823e3d90fd5b6007546040516278744560e21b815260089190911c6001600160a01b031690602081600481855afa9081156110b5578591611182575b50611102575b50610f16565b83919850602090602460405180948193635eb8fa6f60e01b83523060048401525af18015611177578390611143575b61113c915086612360565b965f6110fc565b506020813d60201161116f575b8161115d6020938361232a565b810103126105965761113c9051611131565b3d9150611150565b6040513d85823e3d90fd5b90506020813d6020116111ac575b8161119d6020938361232a565b8101031261059657515f6110f6565b3d9150611190565b50881515610f11565b8815610ec75760405162461bcd60e51b815260206004820152602a60248201527f455243343632363a2072656465656d20726f756e647320646f776e20746f207a60448201526965726f2061737365747360b01b6064820152608490fd5b50346103d85760203660031901126103d85760406020916004358152600f83522054604051908152f35b50346103d85761125436612284565b50506040516378c721c760e11b81526020600482015260156024820152743bb4ba34323930bba337b921b7b63632b1ba34b7b760591b604482015260649150fd5b50346103d85760203660031901126103d8576020610a576004356135d2565b50346103d85760403660031901126103d8576112f16112d16121de565b6112d96136f7565b6112e16137a0565b6112e96137bb565b6004356134b2565b600160065580f35b50346103d85760403660031901126103d8576113136121c8565b506126ee565b50346103d85760203660031901126103d8576020610a576113386121c8565b613304565b50346103d85760603660031901126103d8576113576121c8565b604435916001600160a01b03831683036103d857602061138b848461137a6137bb565b6113826137a0565b60243590613115565b60016006556040519015158152f35b50346103d857806003193601126103d857602090604051908152f35b50346103d85760209060406113ca36612225565b916113d69391936137bb565b6113de6137a0565b6113e66137db565b6113ef81613e4e565b6113f881613f46565b6001600160a01b0316808552600a865293209260026114168361365b565b94611423868587336140b3565b61142c846141b2565b611437848254612360565b815561144584600b54612360565b600b5560018101611457878254612360565b905501611465858254612360565b9055604080519283526020830185905282018490526001600160a01b039092169133917fe619f47e82caeee4ee7f64588a6c7eca209f646fce7a915293151653db58442e9080606081016109c9565b50346103d857806003193601126103d85760075460405160089190911c6001600160a01b03168152602090f35b50346103d857806003193601126103d85760206040517fbcdd9bf55569a395cd79025821af7c971a1601b69479f021adc1b67f548673f38152f35b50346103d857806003193601126103d8576040519080600454908160011c91600181168015611617575b602084108114611603578386529081156115dc575060011461157f575b610dc7846115738186038261232a565b60405191829182612180565b600481527f8a35acfbc15ff81a39ae7d344fd709f28e8600b4aa8c65c6b64bfe7fe36bd19b939250905b8082106115c25750909150810160200161157382611563565b9192600181602092548385880101520191019092916115a9565b60ff191660208087019190915292151560051b850190920192506115739150839050611563565b634e487b7160e01b83526022600452602483fd5b92607f1692611546565b50346103d85760403660031901126103d85761163b6121de565b506040516378c721c760e11b815260206004820152601160248201527036b4b73a2337b921b7b63632b1ba34b7b760791b6044820152606490fd5b50346103d85760403660031901126103d85760406116926121de565b9160043581526005602052209060018060a01b03165f52602052602060ff60405f2054166040519015158152f35b50346103d857806003193601126103d8576009546040516001600160a01b039091168152602090f35b50346103d85760209060406116fd36612284565b6117089391936137bb565b6117106137a0565b6117186137db565b61172181613e4e565b61172a81613f46565b6001600160a01b0316808552600a86529320926002611748836135d2565b94611755848787336140b3565b61175e866141b2565b611769868254612360565b815561177786600b54612360565b600b5560018101611789858254612360565b905501611797838254612360565b90556040805185815260208101849052908101929092526001600160a01b039092169133917fe619f47e82caeee4ee7f64588a6c7eca209f646fce7a915293151653db58442e9080606081016109c9565b50346103d857806003193601126103d857611801613688565b6118096137a0565b600160ff1960075416176007557f62e78cea01bee320cd4e420270b5ea74000d11b0c9f74754ebdbfc544b05a2586020604051338152a180f35b50346103d857806003193601126103d85760206040517fa49807205ce4d355092ef5a8a18f56e8913cf4a201fbe287825b095693c217758152f35b50346103d85760403660031901126103d8576118986121de565b506040516378c721c760e11b81526020600482015260146024820152733232b837b9b4ba2337b921b7b63632b1ba34b7b760611b6044820152606490fd5b50346103d85760403660031901126103d85760406118f26121de565b9160043581526010602052209060018060a01b03165f52602052602060ff60405f2054166040519015158152f35b50346103d85760203660031901126103d8576004359081151582036103d8576020610a5783612f1f565b50346103d857806003193601126103d857602060ff600754166040519015158152f35b50346103d85760403660031901126103d8576112f161198a6121c8565b6119926137bb565b61199a6137a0565b6119a2613688565b602435906128ed565b50346103d857806003193601126103d8576020604051670de0b6b3a76400008152f35b6121aa565b5034610596576020366003190112610596576004356119f06137bb565b6119f86137a0565b611a00613688565b6008546001600160a01b031680156106785760405163a29a839f60e01b8152602081600481855afa908115611adf575f91611ba2575b508214801590611b9a575b611b4b57611a4d612cf2565b908115611aea57803b1561059657604051633c172a4560e21b815230600482015260248101839052905f908290604490829084905af18015611adf57611ac9575b5060207f0e5c870408c6d8d0c00d7196a26cb06543f82789b6957194b02bdff50684d8b791838552600f8252604085206104d2828254612360565b611ad69193505f9061232a565b5f916020611a8e565b6040513d5f823e3d90fd5b60405162461bcd60e51b815260206004820152603360248201527f436f6c6c656374696f6e735661756c743a204e6f207969656c6420617661696c60448201527230b13632903337b91030b63637b1b0ba34b7b760691b6064820152608490fd5b60405162461bcd60e51b815260206004820152602160248201527f436f6c6c656374696f6e735661756c743a20496e76616c69642065706f6368496044820152601960fa1b6064820152608490fd5b508115611a41565b90506020813d602011611bcc575b81611bbd6020938361232a565b8101031261059657515f611a36565b3d9150611bb0565b34610596576020611be436612284565b611bec6137bb565b611bf46137a0565b611bfc6137db565b611c0581613e4e565b611c0e81613f46565b6001600160a01b03165f818152600a855260409020929060026114168361365b565b34610596575f36600319011261059657611c48613688565b60075460ff811615611c875760ff19166007557f5db9ee0a495bf2e6ff9c91a7834c1ba4fdd244a5e8aa4e537bd38aeae4b073aa6020604051338152a1005b638dfc202b60e01b5f5260045ffd5b34610596575f366003190112610596576040517f00000000000000000000000000000000000000000000000000000000000000006001600160a01b03168152602090f35b3461059657604036600319011261059657611cf36121de565b336001600160a01b03821603611d1157611d0f90600435613dca565b005b63334bd91960e11b5f5260045ffd5b34610596575f3660031901126105965760ff7f00000000000000000000000000000000000000000000000000000000000000001660ff8111611d6757602090604051908152f35b634e487b7160e01b5f52601160045260245ffd5b3461059657604036600319011261059657611d0f600435611d9a6121de565b90611db4610a99825f526005602052600160405f20015490565b613d44565b34610596576020366003190112610596576020610a576004355f526005602052600160405f20015490565b3461059657611df236612225565b5050506126ee565b34610596575f366003190112610596576020600254604051908152f35b346105965760603660031901126105965760043567ffffffffffffffff811161059657611e489036906004016121f4565b906024359167ffffffffffffffff831161059657611e6d611e8f9336906004016121f4565b91611e766136f7565b611e7e6137a0565b611e866137bb565b604435936124a4565b6001600655005b346105965760403660031901126105965760043560243567ffffffffffffffff811161059657611eca9036906004016121f4565b9190611ed4613688565b5f5b838110611edf57005b600190835f52601060205260405f20611f01611efc83888761246c565b612490565b838060a01b03165f5260205260405f2060ff19815416905501611ed6565b34610596576020366003190112610596576020610a5760043561362d565b34610596575f366003190112610596576020600b54604051908152f35b3461059657604036600319011261059657611f736121c8565b602435903315611fef576001600160a01b0316908115611fdc57335f52600160205260405f20825f526020528060405f20556040519081527f8c5be1e5ebec7d5bd14f71427d1e84f3dd0314c0f7b2291e5b200ac8c7c3b92560203392a3602060405160018152f35b634a1406b160e11b5f525f60045260245ffd5b63e602df0560e01b5f525f60045260245ffd5b34610596575f366003190112610596576040515f6003548060011c906001811680156120ec575b6020831081146120d8578285529081156120b45750600114612056575b610dc7836115738185038261232a565b91905060035f527fc2575a0e9e593c00f959f8c92f12db2869c3395a3b0502d05e2516446f71f85b915f905b80821061209a57509091508101602001611573612046565b919260018160209254838588010152019101909291612082565b60ff191660208086019190915291151560051b840190910191506115739050612046565b634e487b7160e01b5f52602260045260245ffd5b91607f1691612029565b346105965760203660031901126105965760043563ffffffff60e01b811680910361059657602090637965db0b60e01b811490811561213b575b506040519015158152f35b6301ffc9a760e01b14905082612130565b34610596575f366003190112610596576020610a5761236d565b34610596575f36600319011261059657602090600c548152f35b602060409281835280519182918282860152018484015e5f828201840152601f01601f1916010190565b34610596576020366003190112610596576020610a57600435613600565b600435906001600160a01b038216820361059657565b602435906001600160a01b038216820361059657565b9181601f840112156105965782359167ffffffffffffffff8311610596576020808501948460051b01011161059657565b6060906003190112610596576004356001600160a01b038116810361059657906024356001600160a01b0381168103610596579060443590565b34610596576020366003190112610596576122786121c8565b5060206040515f198152f35b606090600319011261059657600435906024356001600160a01b038116810361059657906044356001600160a01b03811681036105965790565b608090600319011261059657600435906024356001600160a01b038116810361059657906044356001600160a01b038116810361059657906064356001600160a01b03811681036105965790565b34610596576020366003190112610596576020610a5760043561365b565b90601f8019910116810190811067ffffffffffffffff82111761234c57604052565b634e487b7160e01b5f52604160045260245ffd5b91908201809211611d6757565b6040516370a0823160e01b81523060048201526020816024817f00000000000000000000000000000000000000000000000000000000000000006001600160a01b03165afa8015611adf575f90612439575b6007546040516278744560e21b815292506020908390600490829060081c6001600160a01b03165afa908115611adf575f91612403575b6124009250612360565b90565b90506020823d602011612431575b8161241e6020938361232a565b81010312610596576124009151906123f6565b3d9150612411565b506020813d602011612464575b816124536020938361232a565b8101031261059657600490516123bf565b3d9150612446565b919081101561247c5760051b0190565b634e487b7160e01b5f52603260045260245ffd5b356001600160a01b03811681036105965790565b9493919094858403612698578215612690576124be6137db565b6124c7836138fd565b6007546001600160a01b037f000000000000000000000000000000000000000000000000000000000000000081169461250992909160089190911c1685613bb9565b5f935f5b8181106125655750506007549495509293612537935060081c6001600160a01b0316919050613b0d565b6040519081527faf55a1278d05b25a81718352502b10bbece77cee463633323b8e92d2d5ad009560203392a2565b61257081898561246c565b3561257f611efc83858861246c565b8161258f575b505060010161250d565b6007546040516304c11f0360e31b81526001600160a01b039283166004820152602481018490529398929391602091839160449183915f9160081c165af1908115611adf575f9161265f575b506125f4576001916125ec91612360565b95905f612585565b60405162461bcd60e51b815260206004820152603f60248201527f436f6c6c656374696f6e735661756c743a20526570617920626f72726f77206260448201527f6568616c66206661696c656420766961204c656e64696e674d616e61676572006064820152608490fd5b90506020813d8211612688575b816126796020938361232a565b8101031261059657515f6125db565b3d915061266c565b505050509050565b60405162461bcd60e51b815260206004820152602860248201527f436f6c6c656374696f6e735661756c743a204172726179206c656e67746873206044820152670dad2e6dac2e8c6d60c31b6064820152608490fd5b6040516378c721c760e11b81526020600482015260156024820152743a3930b739b332b92337b921b7b63632b1ba34b7b760591b6044820152606490fd5b51906001600160a01b038216820361059657565b6020818303126105965780519067ffffffffffffffff8211610596570190818103916101208312610596576040519260e0840184811067ffffffffffffffff82111761234c576040526127928261272c565b84526020820151906002821015610596576060916020860152603f190112610596576040516060810181811067ffffffffffffffff82111761234c57604052604082015160028110156105965781526060820151602082015260808201516040820152604084015260a0810151606084015260c0810151608084015260e081015161ffff811681036105965760a08401526101008101519067ffffffffffffffff821161059657019080601f830112156105965781519167ffffffffffffffff831161234c578260051b906040519361286e602084018661232a565b845260208085019282010192831161059657602001905b8282106128975750505060c082015290565b602080916128a48461272c565b815201910190612885565b81810292918115918404141715611d6757565b81156128cc570490565b634e487b7160e01b5f52601260045260245ffd5b91908203918211611d6757565b6008549091906001600160a01b031615610678576001600160a01b038216918215612ce357825f52600e60205260ff60405f20541615612c8a57815f52601060205260405f20835f5260205260ff60405f205416612c1157815f52600f60205260405f2054908115612b505761296a906129656137db565b613f46565b825f52600a60205260405f209060245f60018060a01b03600954166040519283809263e40de88760e01b82528960048301525afa8015611adf5760a0915f91612b36575b50019061ffff82511615612ad9576129cf6127109161ffff845116906128af565b0491835f52600f60205260405f20548311612a85578261ffff6060937f22b754fbff211f5e23ae31958825e104905fb1b8de65180b45d0b93342a8c3d195612a4b575b865f52601060205260405f20885f5260205260405f20600160ff19825416179055511691549060405192835260208301526040820152a3565b612a56838554612360565b8455612a6483600b54612360565b600b55865f52600f60205260405f20612a7e8482546128e0565b9055612a12565b60405162461bcd60e51b815260206004820152602660248201527f436f6c6c656374696f6e735661756c743a20416c6c6f636174696f6e20756e646044820152656572666c6f7760d01b6064820152608490fd5b505060607f22b754fbff211f5e23ae31958825e104905fb1b8de65180b45d0b93342a8c3d191835f52601060205260405f20855f5260205260405f20600160ff1982541617905554604051905f82525f60208301526040820152a3565b612b4a91503d805f833e6103bf818361232a565b5f6129ae565b5050805f52601060205260405f20825f5260205260405f20600160ff1982541617905560245f60018060a01b03600954166040519283809263e40de88760e01b82528760048301525afa908115611adf5761ffff60a07f22b754fbff211f5e23ae31958825e104905fb1b8de65180b45d0b93342a8c3d1936060935f91612bf7575b50015116845f52600a60205260405f20546040519182525f60208301526040820152a3565b612c0b91503d805f833e6103bf818361232a565b5f612bd2565b60405162461bcd60e51b815260206004820152604560248201527f436f6c6c656374696f6e735661756c743a205969656c6420616c72656164792060448201527f6170706c69656420666f72207468697320636f6c6c656374696f6e20616e64206064820152640cae0dec6d60db1b608482015260a490fd5b60405162461bcd60e51b815260206004820152602b60248201527f436f6c6c656374696f6e735661756c743a20436f6c6c656374696f6e206e6f7460448201526a081c9959da5cdd195c995960aa1b6064820152608490fd5b639fabe1c160e01b5f5260045ffd5b60075460081c6001600160a01b03168015612f1a576040516278744560e21b8152602081600481855afa908115611adf575f91612ee8575b5060405163100e176560e31b815290602082600481865afa918215611adf575f92612eb4575b501115612ead576040516278744560e21b815290602082600481845afa918215611adf575f92612e78575b509060206004926040519384809263100e176560e31b82525afa908115611adf575f91612e42575b612dad92506128e0565b6008546001600160a01b03168015612e0a5760206004916040519283809263a29a839f60e01b82525afa908115611adf575f91612e10575b508015612e0a575f52600f60205260405f20548082115f14612e0a57612400916128e0565b50505f90565b90506020813d602011612e3a575b81612e2b6020938361232a565b8101031261059657515f612de5565b3d9150612e1e565b90506020823d602011612e70575b81612e5d6020938361232a565b8101031261059657612dad915190612da3565b3d9150612e50565b91506020823d602011612ea5575b81612e936020938361232a565b81010312610596579051906020612d7b565b3d9150612e86565b505f612dad565b9091506020813d602011612ee0575b81612ed06020938361232a565b810103126105965751905f612d50565b3d9150612ec3565b90506020813d602011612f12575b81612f036020938361232a565b8101031261059657515f612d2a565b3d9150612ef6565b505f90565b60075460081c6001600160a01b03168015612e0a576040516278744560e21b8152602081600481855afa908115611adf575f916130e3575b5060405163100e176560e31b815290602082600481865afa918215611adf575f926130af575b5011156130a7576040516278744560e21b815290602082600481845afa918215611adf575f92613072575b509060206004926040519384809263100e176560e31b82525afa908115611adf575f9161303c575b612fda92506128e0565b905b612400576008546001600160a01b03168015612e0a5760206004916040519283809263a29a839f60e01b82525afa908115611adf575f91612e1057508015612e0a575f52600f60205260405f20548082115f14612e0a57612400916128e0565b90506020823d60201161306a575b816130576020938361232a565b8101031261059657612fda915190612fd0565b3d915061304a565b91506020823d60201161309f575b8161308d6020938361232a565b81010312610596579051906020612fa8565b3d9150613080565b505f90612fdc565b9091506020813d6020116130db575b816130cb6020938361232a565b810103126105965751905f612f7d565b3d91506130be565b90506020813d60201161310d575b816130fe6020938361232a565b8101031261059657515f612f57565b3d91506130f1565b6001600160a01b0316918215612ce35781156132fc576131336137db565b61313c81613f46565b60018060a01b03811690815f52600a60205260405f2090825f52600e60205260ff60405f205416156132e95761317190613304565b8084116132cf575080548084116132cf575033156132bc57335f525f60205260405f20548381106132a1578390335f525f6020520360405f205583155f1461328b5782600254036002555b836040518481525f5160206144d45f395f51905f5260203392a3836040518481525f5160206144d45f395f51905f5260203392a36131fb8382546128e0565b815561320983600b546128e0565b600b556001810190815491848310801561327e575b61326f5761322e856002946128e0565b90550161323c8382546128e0565b90556040519182527f993b66b6962861213ca84e497f99b1a7f93b83156c08dd5bfadd73608596017360203393a4600190565b63cf26439b60e01b5f5260045ffd5b508460028301541061321e565b835f525f60205260405f208381540190556131bc565b839063391434e360e21b5f523360045260245260445260645ffd5b634b637e8f60e11b5f525f60045260245ffd5b838363ae86887160e01b5f5260045260245260445260645ffd5b826358ab08b160e11b5f5260045260245ffd5b505050600190565b6001600160a01b03165f818152600e602052604090205460ff161561344a575b805f52600a60205260405f209060405191608083019083821067ffffffffffffffff83111761234c576003916040528054845260018101546020850152600281015460408501520154606083019081525f60018060a01b03600954169260246040518095819363e40de88760e01b835260048301525afa918215611adf575f9261342e575b5081516001600160a01b031615801561341e575b8015613411575b61340b57613403612400939261ffff60a06133f96133f269021e19e0c9bab240000096600c549051906128e0565b87516128af565b92015116906128af565b049051612360565b50505190565b50600c54815110156133c4565b5061ffff60a083015116156133bd565b6134439192503d805f833e6103bf818361232a565b905f6133a9565b60095460405163e40de88760e01b815260048101839052905f90829060249082906001600160a01b03165afa908115611adf575f91613498575b50516001600160a01b031661332457505f90565b6134ac91503d805f833e6103bf818361232a565b5f613484565b80156135b657602061354f916134c66137db565b6134cf816138fd565b6007546001600160a01b037f00000000000000000000000000000000000000000000000000000000000000008116959161350f91849160081c1687613bb9565b6007546040516304c11f0360e31b81526001600160a01b03928316600482015260248101939093529193849260081c9091169082905f9082906044820190565b03925af1908115611adf575f91613584575b506125f4576007546135829160089190911c6001600160a01b031690613b0d565b565b90506020813d6020116135ae575b8161359f6020938361232a565b8101031261059657515f613561565b3d9150613592565b5050565b600d5481101561247c57600d5f5260205f2001905f90565b6135da61236d565b9060018201809211611d675760025460018101809111611d67576124009260019261437f565b61360861236d565b9060018201809211611d675760025460018101809111611d6757612400925f9261437f565b6002549060018201809211611d675761364461236d565b60018101809111611d67576124009260019261437f565b6002549060018201809211611d675761367261236d565b60018101809111611d6757612400925f9261437f565b335f9081527fd8ef4509105c3edb0b04658b4528edc5ddd30ea5a81e623a2623c88db1eb54b6602052604090205460ff16156136c057565b63e2517d3f60e01b5f52336004527fa49807205ce4d355092ef5a8a18f56e8913cf4a201fbe287825b095693c2177560245260445ffd5b335f9081527fa01c6dab41afbaf71f77b0ec32e349ced011741063524fbddf6b7ae0dcdc3889602052604090205460ff161561372f57565b63e2517d3f60e01b5f52336004527fbcdd9bf55569a395cd79025821af7c971a1601b69479f021adc1b67f548673f360245260445ffd5b5f81815260056020908152604080832033845290915290205460ff161561378a5750565b63e2517d3f60e01b5f523360045260245260445ffd5b60ff600754166137ac57565b63d93c066560e01b5f5260045ffd5b6002600654146137cc576002600655565b633ee5aeb560e01b5f5260045ffd5b60075460081c6001600160a01b031680156138e25760405163100e176560e31b8152602081600481855afa908115611adf575f916138b0575b5080156135b6576020600492604051938480926278744560e21b82525afa918215611adf575f9261387c575b50670de0b6b3a7640000820291808304670de0b6b3a76400001490151715611d675761386b916128c2565b600c5481116138775750565b600c55565b9091506020813d6020116138a8575b816138986020938361232a565b810103126105965751905f613840565b3d915061388b565b90506020813d6020116138da575b816138cb6020938361232a565b8101031261059657515f613814565b3d91506138be565b50565b90816020910312610596575180151581036105965790565b80156138e2576040516370a0823160e01b81523060048201527f00000000000000000000000000000000000000000000000000000000000000006001600160a01b031690602081602481855afa908115611adf575f91613adb575b5082811061396557505050565b61396f90836128e0565b6007546040516278744560e21b815260089190911c6001600160a01b03169190602081600481865afa908115611adf575f91613aa9575b508111156139b5575b50505050565b80156139af575f916024602092604051948593849263684a169760e11b845260048401525af1908115611adf575f91613a7a575b5015613a6b576020602491604051928380926370a0823160e01b82523060048301525afa908115611adf575f91613a39575b5010613a2a575f8080806139af565b63724da00760e01b5f5260045ffd5b90506020813d602011613a63575b81613a546020938361232a565b8101031261059657515f613a1b565b3d9150613a47565b638b78daf760e01b5f5260045ffd5b613a9c915060203d602011613aa2575b613a94818361232a565b8101906138e5565b5f6139e9565b503d613a8a565b90506020813d602011613ad3575b81613ac46020938361232a565b8101031261059657515f6139a6565b3d9150613ab7565b90506020813d602011613b05575b81613af66020938361232a565b8101031261059657515f613958565b3d9150613ae9565b6040519060205f8184019463095ea7b360e01b865260018060a01b03169485602486015281604486015260448552613b4660648661232a565b84519082855af15f513d82613b94575b505015613b6257505050565b610cc0613582936040519063095ea7b360e01b602083015260248201525f604482015260448152610cba60648261232a565b909150613bb157506001600160a01b0381163b15155b5f80613b56565b600114613baa565b60405163095ea7b360e01b60208083019182526001600160a01b0385166024840152604480840196909652948252929390925f90613bf860648661232a565b84519082855af15f513d82613c53575b505015613c1457505050565b60405163095ea7b360e01b60208201526001600160a01b0390931660248401525f604480850191909152835261358292610cc090610cba60648261232a565b909150613c7057506001600160a01b0381163b15155b5f80613c08565b600114613c69565b6001600160a01b0381165f9081527fa01c6dab41afbaf71f77b0ec32e349ced011741063524fbddf6b7ae0dcdc3889602052604090205460ff16612f1a576001600160a01b03165f8181527fa01c6dab41afbaf71f77b0ec32e349ced011741063524fbddf6b7ae0dcdc388960205260408120805460ff191660011790553391907fbcdd9bf55569a395cd79025821af7c971a1601b69479f021adc1b67f548673f3907f2f8788117e7eff1d82e926ec794901d17c78024a50270940304540a733656f0d9080a4600190565b5f8181526005602090815260408083206001600160a01b038616845290915290205460ff16612e0a575f8181526005602090815260408083206001600160a01b0395909516808452949091528120805460ff19166001179055339291907f2f8788117e7eff1d82e926ec794901d17c78024a50270940304540a733656f0d9080a4600190565b5f8181526005602090815260408083206001600160a01b038616845290915290205460ff1615612e0a575f8181526005602090815260408083206001600160a01b0395909516808452949091528120805460ff19169055339291907ff6391f5c32d9c69d2a47ea670b442974b53935d1edc7fd64eb21e047a839171b9080a4600190565b60095460405163c3c5a54760e01b81526001600160a01b039283166004820181905292909160209183916024918391165afa908115611adf575f91613f27575b5015613f1557805f52600e60205260ff60405f20541615613eac5750565b805f52600e60205260405f20600160ff19825416179055600d546801000000000000000081101561234c57806001613ee79201600d556135ba565b81549060031b9083821b9160018060a01b03901b1916179055600c54905f52600a602052600360405f200155565b6358ab08b160e11b5f5260045260245ffd5b613f40915060203d602011613aa257613a94818361232a565b5f613e8e565b6001600160a01b03165f818152600e602052604090205460ff16156138e25760095460405163e40de88760e01b81526004810183905291905f90839060249082906001600160a01b03165afa918215611adf575f92614097575b50805f52600a60205260a060405f2092019161ffff8351161561408a576003810192835490600c54828111613fdc575b5050505050600c549055565b61400d613ff48469021e19e0c9bab2400000936128e0565b9261ffff614004875495866128af565b915116906128af565b04908115613fd0577fe7d7ea8aa11ec2e18d67e00de2b5dce7b65f8a032d8496015263d4217582e7c3936140448361407d93612360565b815561405283600b54612360565b600b555492600c54604051948594859094939260609260808301968352602083015260408201520152565b0390a25f80808080613fd0565b9150506003600c54910155565b6140ac9192503d805f833e6103bf818361232a565b905f613fa0565b6040516323b872dd60e01b60208201526001600160a01b039091166024820181905230604483015260648083018590528252929190614126906140f760848261232a565b7f00000000000000000000000000000000000000000000000000000000000000006001600160a01b03166143dd565b6001600160a01b031692831561419f577fdcbc1c05240f31ff3ad067ef1ee35ce4997762752e3a095284754544f4c709d79181614167604093600254612360565b600255855f525f602052825f20818154019055855f5f5160206144d45f395f51905f5260208651858152a382519182526020820152a3565b63ec442f0560e01b5f525f60045260245ffd5b806141ba5750565b60075460405163690c42c160e11b81526004810192909252602090829060249082905f9060081c6001600160a01b03165af1908115611adf575f91614211575b501561420257565b63d8449a5960e01b5f5260045ffd5b61422a915060203d602011613aa257613a94818361232a565b5f6141fa565b6001600160a01b039081165f818152600160209081526040808320948616835293905291909120549291905f1984106142695750505050565b8284106142af578015611fef576001600160a01b03821615611fdc575f52600160205260405f209060018060a01b03165f5260205260405f20910390555f8080806139af565b508290637dc7a0d960e11b5f5260018060a01b031660045260245260445260645ffd5b9091906001600160a01b031680156132bc57805f525f60205260405f2054838110614329576020845f94955f5160206144d45f395f51905f52938587528684520360408620558060025403600255604051908152a3565b915063391434e360e21b5f5260045260245260445260645ffd5b60405163a9059cbb60e01b60208201526001600160a01b0392909216602483015260448083019390935291815261358291610cc060648361232a565b929161438c818386614435565b9260048110156143c95760018091161491826143b2575b50506124009250151590612360565b90809250156128cc57612400930915155f806143a3565b634e487b7160e01b5f52602160045260245ffd5b905f602091828151910182855af115611adf575f513d61442c57506001600160a01b0381163b155b61440c5750565b635274afe760e01b5f9081526001600160a01b0391909116600452602490fd5b60011415614405565b90915f1983830992808302928380861095039480860395146144c657848311156144ae5790829109815f0382168092046002816003021880820260020302808202600203028082026002030280820260020302808202600203028091026002030293600183805f03040190848311900302920304170290565b82634e487b715f52156003026011186020526024601cfd5b50509061240092506128c256feddf252ad1be2c89b69c2b068fc378daa952ba7f163c4a11628f55a4df523b3efa2646970667358221220ce18abe67870d0d1883b4a61cf5c8aa649457faf8f8bf41f396e6416836b10cd64736f6c634300081e00332f8788117e7eff1d82e926ec794901d17c78024a50270940304540a733656f0dd8ef4509105c3edb0b04658b4528edc5ddd30ea5a81e623a2623c88db1eb54b605b8ccbb9d4d8fb16ea74ce3c29a41f1b461fbdaff4714a0d9a8eb05499746bc","linkReferences":{}},"methodIdentifiers":{"ADMIN_ROLE()":"75b238fc","DEBT_SUBSIDIZER_ROLE()":"96a86a0c","DEFAULT_ADMIN_ROLE()":"a217fddf","GLOBAL_DEPOSIT_INDEX_PRECISION()":"54d703bd","allocateEpochYield(uint256)":"f30bd63f","allocateYieldToEpoch(uint256)":"476f4840","allowance(address,address)":"dd62ed3e","applyCollectionYieldForEpoch(address,uint256)":"5780b963","approve(address,uint256)":"095ea7b3","asset()":"38d52e0f","balanceOf(address)":"70a08231","collectionRegistry()":"8c7cc5e3","collectionTotalAssetsDeposited(address)":"a40589f8","collectionVaultsData(address)":"c5a22395","convertToAssets(uint256)":"07a2d13a","convertToShares(uint256)":"c6e6f592","decimals()":"313ce567","deposit(uint256,address)":"6e553f65","depositForCollection(uint256,address,address)":"44061d90","epochCollectionYieldApplied(uint256,address)":"6cc8427d","epochManager()":"e2d2bfe3","epochYieldAllocations(uint256)":"af44c255","getCurrentEpochYield(bool)":"6aebd973","getEpochYieldAllocated(uint256)":"b777451c","getRoleAdmin(bytes32)":"248a9ca3","globalDepositIndex()":"017c3e60","grantRole(bytes32,address)":"2f2ff15d","hasRole(bytes32,address)":"91d14854","indexCollectionsDeposits()":"e5890f20","lendingManager()":"9e3b77af","maxDeposit(address)":"402d267d","maxMint(address)":"c63d75b6","maxRedeem(address)":"d905777e","maxWithdraw(address)":"ce96cb77","mint(uint256,address)":"94bf804d","mintForCollection(uint256,address,address)":"84f1bc62","name()":"06fdde03","pause()":"8456cb59","paused()":"5c975abb","previewDeposit(uint256)":"ef8b30f7","previewMint(uint256)":"b3d7f6b9","previewRedeem(uint256)":"4cdad506","previewWithdraw(uint256)":"0a28a477","redeem(uint256,address,address)":"ba087652","redeemForCollection(uint256,address,address,address)":"b839eaf8","renounceRole(bytes32,address)":"36568abe","repayBorrowBehalf(uint256,address)":"aa553b61","repayBorrowBehalfBatch(uint256[],address[],uint256)":"11839451","resetEpochCollectionYieldFlags(uint256,address[])":"105804b1","revokeRole(bytes32,address)":"d547741f","setDebtSubsidizer(address)":"b94305aa","setEpochManager(address)":"d4d59edb","setLendingManager(address)":"c869d0ed","supportsInterface(bytes4)":"01ffc9a7","symbol()":"95d89b41","totalAssets()":"01e1d114","totalAssetsDepositedAllCollections()":"09f14f6d","totalCollectionYieldShareBps()":"fbc0d706","totalSupply()":"18160ddd","transfer(address,uint256)":"a9059cbb","transferForCollection(address,address,uint256)":"a071036f","transferForCollection(address,uint256,address)":"a29be14a","transferFrom(address,address,uint256)":"23b872dd","unpause()":"3f4ba83a","withdraw(uint256,address,address)":"b460af94","withdrawForCollection(uint256,address,address,address)":"da721076"},"id":31}