{"abi":[{"type":"constructor","inputs":[{"name":"_asset","type":"address","internalType":"contract IERC20"},{"name":"_name","type":"string","internalType":"string"},{"name":"_symbol","type":"string","internalType":"string"},{"name":"initialAdmin","type":"address","internalType":"address"},{"name":"_lendingManagerAddress","type":"address","internalType":"address"},{"name":"_collectionRegistryAddress","type":"address","internalType":"address"}],"stateMutability":"nonpayable"},{"type":"function","name":"ADMIN_ROLE","inputs":[],"outputs":[{"name":"","type":"bytes32","internalType":"bytes32"}],"stateMutability":"view"},{"type":"function","name":"DEBT_SUBSIDIZER_ROLE","inputs":[],"outputs":[{"name":"","type":"bytes32","internalType":"bytes32"}],"stateMutability":"view"},{"type":"function","name":"DEFAULT_ADMIN_ROLE","inputs":[],"outputs":[{"name":"","type":"bytes32","internalType":"bytes32"}],"stateMutability":"view"},{"type":"function","name":"GLOBAL_DEPOSIT_INDEX_PRECISION","inputs":[],"outputs":[{"name":"","type":"uint256","internalType":"uint256"}],"stateMutability":"view"},{"type":"function","name":"allocateEpochYield","inputs":[{"name":"amount","type":"uint256","internalType":"uint256"}],"outputs":[],"stateMutability":"nonpayable"},{"type":"function","name":"allocateYieldToEpoch","inputs":[{"name":"epochId","type":"uint256","internalType":"uint256"}],"outputs":[],"stateMutability":"nonpayable"},{"type":"function","name":"allowance","inputs":[{"name":"owner","type":"address","internalType":"address"},{"name":"spender","type":"address","internalType":"address"}],"outputs":[{"name":"","type":"uint256","internalType":"uint256"}],"stateMutability":"view"},{"type":"function","name":"applyCollectionYieldForEpoch","inputs":[{"name":"collectionAddress","type":"address","internalType":"address"},{"name":"epochId","type":"uint256","internalType":"uint256"}],"outputs":[],"stateMutability":"nonpayable"},{"type":"function","name":"approve","inputs":[{"name":"spender","type":"address","internalType":"address"},{"name":"value","type":"uint256","internalType":"uint256"}],"outputs":[{"name":"","type":"bool","internalType":"bool"}],"stateMutability":"nonpayable"},{"type":"function","name":"asset","inputs":[],"outputs":[{"name":"","type":"address","internalType":"address"}],"stateMutability":"view"},{"type":"function","name":"balanceOf","inputs":[{"name":"account","type":"address","internalType":"address"}],"outputs":[{"name":"","type":"uint256","internalType":"uint256"}],"stateMutability":"view"},{"type":"function","name":"collectionRegistry","inputs":[],"outputs":[{"name":"","type":"address","internalType":"contract ICollectionRegistry"}],"stateMutability":"view"},{"type":"function","name":"collectionTotalAssetsDeposited","inputs":[{"name":"collectionAddress","type":"address","internalType":"address"}],"outputs":[{"name":"","type":"uint256","internalType":"uint256"}],"stateMutability":"view"},{"type":"function","name":"collectionVaultsData","inputs":[{"name":"","type":"address","internalType":"address"}],"outputs":[{"name":"totalAssetsDeposited","type":"uint256","internalType":"uint256"},{"name":"totalSharesMinted","type":"uint256","internalType":"uint256"},{"name":"totalCTokensMinted","type":"uint256","internalType":"uint256"},{"name":"lastGlobalDepositIndex","type":"uint256","internalType":"uint256"}],"stateMutability":"view"},{"type":"function","name":"convertToAssets","inputs":[{"name":"shares","type":"uint256","internalType":"uint256"}],"outputs":[{"name":"","type":"uint256","internalType":"uint256"}],"stateMutability":"view"},{"type":"function","name":"convertToShares","inputs":[{"name":"assets","type":"uint256","internalType":"uint256"}],"outputs":[{"name":"","type":"uint256","internalType":"uint256"}],"stateMutability":"view"},{"type":"function","name":"decimals","inputs":[],"outputs":[{"name":"","type":"uint8","internalType":"uint8"}],"stateMutability":"view"},{"type":"function","name":"deposit","inputs":[{"name":"","type":"uint256","internalType":"uint256"},{"name":"","type":"address","internalType":"address"}],"outputs":[{"name":"","type":"uint256","internalType":"uint256"}],"stateMutability":"nonpayable"},{"type":"function","name":"depositForCollection","inputs":[{"name":"assets","type":"uint256","internalType":"uint256"},{"name":"receiver","type":"address","internalType":"address"},{"name":"collectionAddress","type":"address","internalType":"address"}],"outputs":[{"name":"shares","type":"uint256","internalType":"uint256"}],"stateMutability":"nonpayable"},{"type":"function","name":"epochCollectionYieldApplied","inputs":[{"name":"","type":"uint256","internalType":"uint256"},{"name":"","type":"address","internalType":"address"}],"outputs":[{"name":"","type":"bool","internalType":"bool"}],"stateMutability":"view"},{"type":"function","name":"epochManager","inputs":[],"outputs":[{"name":"","type":"address","internalType":"contract IEpochManager"}],"stateMutability":"view"},{"type":"function","name":"epochYieldAllocations","inputs":[{"name":"","type":"uint256","internalType":"uint256"}],"outputs":[{"name":"","type":"uint256","internalType":"uint256"}],"stateMutability":"view"},{"type":"function","name":"getCurrentEpochYield","inputs":[{"name":"includeNonShared","type":"bool","internalType":"bool"}],"outputs":[{"name":"availableYield","type":"uint256","internalType":"uint256"}],"stateMutability":"view"},{"type":"function","name":"getEpochYieldAllocated","inputs":[{"name":"epochId","type":"uint256","internalType":"uint256"}],"outputs":[{"name":"amount","type":"uint256","internalType":"uint256"}],"stateMutability":"view"},{"type":"function","name":"getRoleAdmin","inputs":[{"name":"role","type":"bytes32","internalType":"bytes32"}],"outputs":[{"name":"","type":"bytes32","internalType":"bytes32"}],"stateMutability":"view"},{"type":"function","name":"globalDepositIndex","inputs":[],"outputs":[{"name":"","type":"uint256","internalType":"uint256"}],"stateMutability":"view"},{"type":"function","name":"grantCollectionAccess","inputs":[{"name":"collectionAddress","type":"address","internalType":"address"},{"name":"operator","type":"address","internalType":"address"}],"outputs":[],"stateMutability":"nonpayable"},{"type":"function","name":"grantRole","inputs":[{"name":"role","type":"bytes32","internalType":"bytes32"},{"name":"account","type":"address","internalType":"address"}],"outputs":[],"stateMutability":"nonpayable"},{"type":"function","name":"hasRole","inputs":[{"name":"role","type":"bytes32","internalType":"bytes32"},{"name":"account","type":"address","internalType":"address"}],"outputs":[{"name":"","type":"bool","internalType":"bool"}],"stateMutability":"view"},{"type":"function","name":"indexCollectionsDeposits","inputs":[],"outputs":[],"stateMutability":"nonpayable"},{"type":"function","name":"isCollectionOperator","inputs":[{"name":"collectionAddress","type":"address","internalType":"address"},{"name":"operator","type":"address","internalType":"address"}],"outputs":[{"name":"","type":"bool","internalType":"bool"}],"stateMutability":"view"},{"type":"function","name":"lendingManager","inputs":[],"outputs":[{"name":"","type":"address","internalType":"contract ILendingManager"}],"stateMutability":"view"},{"type":"function","name":"maxDeposit","inputs":[{"name":"","type":"address","internalType":"address"}],"outputs":[{"name":"","type":"uint256","internalType":"uint256"}],"stateMutability":"view"},{"type":"function","name":"maxMint","inputs":[{"name":"","type":"address","internalType":"address"}],"outputs":[{"name":"","type":"uint256","internalType":"uint256"}],"stateMutability":"view"},{"type":"function","name":"maxRedeem","inputs":[{"name":"owner","type":"address","internalType":"address"}],"outputs":[{"name":"","type":"uint256","internalType":"uint256"}],"stateMutability":"view"},{"type":"function","name":"maxWithdraw","inputs":[{"name":"owner","type":"address","internalType":"address"}],"outputs":[{"name":"","type":"uint256","internalType":"uint256"}],"stateMutability":"view"},{"type":"function","name":"mint","inputs":[{"name":"","type":"uint256","internalType":"uint256"},{"name":"","type":"address","internalType":"address"}],"outputs":[{"name":"","type":"uint256","internalType":"uint256"}],"stateMutability":"nonpayable"},{"type":"function","name":"mintForCollection","inputs":[{"name":"shares","type":"uint256","internalType":"uint256"},{"name":"receiver","type":"address","internalType":"address"},{"name":"collectionAddress","type":"address","internalType":"address"}],"outputs":[{"name":"assets","type":"uint256","internalType":"uint256"}],"stateMutability":"nonpayable"},{"type":"function","name":"name","inputs":[],"outputs":[{"name":"","type":"string","internalType":"string"}],"stateMutability":"view"},{"type":"function","name":"pause","inputs":[],"outputs":[],"stateMutability":"nonpayable"},{"type":"function","name":"paused","inputs":[],"outputs":[{"name":"","type":"bool","internalType":"bool"}],"stateMutability":"view"},{"type":"function","name":"previewDeposit","inputs":[{"name":"assets","type":"uint256","internalType":"uint256"}],"outputs":[{"name":"","type":"uint256","internalType":"uint256"}],"stateMutability":"view"},{"type":"function","name":"previewMint","inputs":[{"name":"shares","type":"uint256","internalType":"uint256"}],"outputs":[{"name":"","type":"uint256","internalType":"uint256"}],"stateMutability":"view"},{"type":"function","name":"previewRedeem","inputs":[{"name":"shares","type":"uint256","internalType":"uint256"}],"outputs":[{"name":"","type":"uint256","internalType":"uint256"}],"stateMutability":"view"},{"type":"function","name":"previewWithdraw","inputs":[{"name":"assets","type":"uint256","internalType":"uint256"}],"outputs":[{"name":"","type":"uint256","internalType":"uint256"}],"stateMutability":"view"},{"type":"function","name":"redeem","inputs":[{"name":"","type":"uint256","internalType":"uint256"},{"name":"","type":"address","internalType":"address"},{"name":"","type":"address","internalType":"address"}],"outputs":[{"name":"","type":"uint256","internalType":"uint256"}],"stateMutability":"nonpayable"},{"type":"function","name":"redeemForCollection","inputs":[{"name":"shares","type":"uint256","internalType":"uint256"},{"name":"receiver","type":"address","internalType":"address"},{"name":"owner","type":"address","internalType":"address"},{"name":"collectionAddress","type":"address","internalType":"address"}],"outputs":[{"name":"assets","type":"uint256","internalType":"uint256"}],"stateMutability":"nonpayable"},{"type":"function","name":"renounceRole","inputs":[{"name":"role","type":"bytes32","internalType":"bytes32"},{"name":"callerConfirmation","type":"address","internalType":"address"}],"outputs":[],"stateMutability":"nonpayable"},{"type":"function","name":"repayBorrowBehalf","inputs":[{"name":"amount","type":"uint256","internalType":"uint256"},{"name":"borrower","type":"address","internalType":"address"}],"outputs":[],"stateMutability":"nonpayable"},{"type":"function","name":"repayBorrowBehalfBatch","inputs":[{"name":"amounts","type":"uint256[]","internalType":"uint256[]"},{"name":"borrowers","type":"address[]","internalType":"address[]"},{"name":"totalAmount","type":"uint256","internalType":"uint256"}],"outputs":[],"stateMutability":"nonpayable"},{"type":"function","name":"resetEpochCollectionYieldFlags","inputs":[{"name":"epochId","type":"uint256","internalType":"uint256"},{"name":"collectionsToReset","type":"address[]","internalType":"address[]"}],"outputs":[],"stateMutability":"nonpayable"},{"type":"function","name":"revokeCollectionAccess","inputs":[{"name":"collectionAddress","type":"address","internalType":"address"},{"name":"operator","type":"address","internalType":"address"}],"outputs":[],"stateMutability":"nonpayable"},{"type":"function","name":"revokeRole","inputs":[{"name":"role","type":"bytes32","internalType":"bytes32"},{"name":"account","type":"address","internalType":"address"}],"outputs":[],"stateMutability":"nonpayable"},{"type":"function","name":"setDebtSubsidizer","inputs":[{"name":"_debtSubsidizerAddress","type":"address","internalType":"address"}],"outputs":[],"stateMutability":"nonpayable"},{"type":"function","name":"setEpochManager","inputs":[{"name":"_epochManagerAddress","type":"address","internalType":"address"}],"outputs":[],"stateMutability":"nonpayable"},{"type":"function","name":"setLendingManager","inputs":[{"name":"_lendingManagerAddress","type":"address","internalType":"address"}],"outputs":[],"stateMutability":"nonpayable"},{"type":"function","name":"supportsInterface","inputs":[{"name":"interfaceId","type":"bytes4","internalType":"bytes4"}],"outputs":[{"name":"","type":"bool","internalType":"bool"}],"stateMutability":"view"},{"type":"function","name":"symbol","inputs":[],"outputs":[{"name":"","type":"string","internalType":"string"}],"stateMutability":"view"},{"type":"function","name":"totalAssets","inputs":[],"outputs":[{"name":"","type":"uint256","internalType":"uint256"}],"stateMutability":"view"},{"type":"function","name":"totalAssetsDepositedAllCollections","inputs":[],"outputs":[{"name":"","type":"uint256","internalType":"uint256"}],"stateMutability":"view"},{"type":"function","name":"totalCollectionYieldShareBps","inputs":[],"outputs":[{"name":"totalBps","type":"uint16","internalType":"uint16"}],"stateMutability":"view"},{"type":"function","name":"totalSupply","inputs":[],"outputs":[{"name":"","type":"uint256","internalType":"uint256"}],"stateMutability":"view"},{"type":"function","name":"totalYieldReserved","inputs":[],"outputs":[{"name":"","type":"uint256","internalType":"uint256"}],"stateMutability":"view"},{"type":"function","name":"transfer","inputs":[{"name":"","type":"address","internalType":"address"},{"name":"","type":"uint256","internalType":"uint256"}],"outputs":[{"name":"","type":"bool","internalType":"bool"}],"stateMutability":"pure"},{"type":"function","name":"transferForCollection","inputs":[{"name":"collectionAddress","type":"address","internalType":"address"},{"name":"to","type":"address","internalType":"address"},{"name":"assets","type":"uint256","internalType":"uint256"}],"outputs":[{"name":"shares","type":"uint256","internalType":"uint256"}],"stateMutability":"nonpayable"},{"type":"function","name":"transferForCollection","inputs":[{"name":"to","type":"address","internalType":"address"},{"name":"amount","type":"uint256","internalType":"uint256"},{"name":"collectionAddress","type":"address","internalType":"address"}],"outputs":[{"name":"","type":"bool","internalType":"bool"}],"stateMutability":"nonpayable"},{"type":"function","name":"transferFrom","inputs":[{"name":"","type":"address","internalType":"address"},{"name":"","type":"address","internalType":"address"},{"name":"","type":"uint256","internalType":"uint256"}],"outputs":[{"name":"","type":"bool","internalType":"bool"}],"stateMutability":"pure"},{"type":"function","name":"unpause","inputs":[],"outputs":[],"stateMutability":"nonpayable"},{"type":"function","name":"withdraw","inputs":[{"name":"","type":"uint256","internalType":"uint256"},{"name":"","type":"address","internalType":"address"},{"name":"","type":"address","internalType":"address"}],"outputs":[{"name":"","type":"uint256","internalType":"uint256"}],"stateMutability":"nonpayable"},{"type":"function","name":"withdrawForCollection","inputs":[{"name":"assets","type":"uint256","internalType":"uint256"},{"name":"receiver","type":"address","internalType":"address"},{"name":"owner","type":"address","internalType":"address"},{"name":"collectionAddress","type":"address","internalType":"address"}],"outputs":[{"name":"shares","type":"uint256","internalType":"uint256"}],"stateMutability":"nonpayable"},{"type":"event","name":"Approval","inputs":[{"name":"owner","type":"address","indexed":true,"internalType":"address"},{"name":"spender","type":"address","indexed":true,"internalType":"address"},{"name":"value","type":"uint256","indexed":false,"internalType":"uint256"}],"anonymous":false},{"type":"event","name":"CollectionAccessGranted","inputs":[{"name":"collection","type":"address","indexed":true,"internalType":"address"},{"name":"operator","type":"address","indexed":true,"internalType":"address"}],"anonymous":false},{"type":"event","name":"CollectionAccessRevoked","inputs":[{"name":"collection","type":"address","indexed":true,"internalType":"address"},{"name":"operator","type":"address","indexed":true,"internalType":"address"}],"anonymous":false},{"type":"event","name":"CollectionDeposit","inputs":[{"name":"collectionAddress","type":"address","indexed":true,"internalType":"address"},{"name":"caller","type":"address","indexed":true,"internalType":"address"},{"name":"receiver","type":"address","indexed":true,"internalType":"address"},{"name":"assets","type":"uint256","indexed":false,"internalType":"uint256"},{"name":"shares","type":"uint256","indexed":false,"internalType":"uint256"},{"name":"cTokenAmount","type":"uint256","indexed":false,"internalType":"uint256"}],"anonymous":false},{"type":"event","name":"CollectionTransfer","inputs":[{"name":"collectionAddress","type":"address","indexed":true,"internalType":"address"},{"name":"from","type":"address","indexed":true,"internalType":"address"},{"name":"to","type":"address","indexed":true,"internalType":"address"},{"name":"assets","type":"uint256","indexed":false,"internalType":"uint256"}],"anonymous":false},{"type":"event","name":"CollectionWithdraw","inputs":[{"name":"collectionAddress","type":"address","indexed":true,"internalType":"address"},{"name":"caller","type":"address","indexed":true,"internalType":"address"},{"name":"receiver","type":"address","indexed":true,"internalType":"address"},{"name":"assets","type":"uint256","indexed":false,"internalType":"uint256"},{"name":"shares","type":"uint256","indexed":false,"internalType":"uint256"},{"name":"cTokenAmount","type":"uint256","indexed":false,"internalType":"uint256"}],"anonymous":false},{"type":"event","name":"CollectionYieldAccrued","inputs":[{"name":"collectionAddress","type":"address","indexed":true,"internalType":"address"},{"name":"yieldAccrued","type":"uint256","indexed":false,"internalType":"uint256"},{"name":"newTotalDeposits","type":"uint256","indexed":false,"internalType":"uint256"},{"name":"globalIndex","type":"uint256","indexed":false,"internalType":"uint256"},{"name":"previousCollectionIndex","type":"uint256","indexed":false,"internalType":"uint256"}],"anonymous":false},{"type":"event","name":"CollectionYieldAppliedForEpoch","inputs":[{"name":"epochId","type":"uint256","indexed":true,"internalType":"uint256"},{"name":"collection","type":"address","indexed":true,"internalType":"address"},{"name":"yieldSharePercentage","type":"uint16","indexed":false,"internalType":"uint16"},{"name":"yieldAdded","type":"uint256","indexed":false,"internalType":"uint256"},{"name":"newTotalDeposits","type":"uint256","indexed":false,"internalType":"uint256"}],"anonymous":false},{"type":"event","name":"CollectionYieldIndexed","inputs":[{"name":"collectionAddress","type":"address","indexed":true,"internalType":"address"},{"name":"epochId","type":"uint256","indexed":true,"internalType":"uint256"},{"name":"assets","type":"uint256","indexed":false,"internalType":"uint256"},{"name":"shares","type":"uint256","indexed":false,"internalType":"uint256"},{"name":"cTokenAmount","type":"uint256","indexed":false,"internalType":"uint256"}],"anonymous":false},{"type":"event","name":"Deposit","inputs":[{"name":"sender","type":"address","indexed":true,"internalType":"address"},{"name":"owner","type":"address","indexed":true,"internalType":"address"},{"name":"assets","type":"uint256","indexed":false,"internalType":"uint256"},{"name":"shares","type":"uint256","indexed":false,"internalType":"uint256"}],"anonymous":false},{"type":"event","name":"LendingManagerChanged","inputs":[{"name":"oldLendingManager","type":"address","indexed":true,"internalType":"address"},{"name":"newLendingManager","type":"address","indexed":true,"internalType":"address"},{"name":"changedBy","type":"address","indexed":true,"internalType":"address"}],"anonymous":false},{"type":"event","name":"Paused","inputs":[{"name":"account","type":"address","indexed":false,"internalType":"address"}],"anonymous":false},{"type":"event","name":"RoleAdminChanged","inputs":[{"name":"role","type":"bytes32","indexed":true,"internalType":"bytes32"},{"name":"previousAdminRole","type":"bytes32","indexed":true,"internalType":"bytes32"},{"name":"newAdminRole","type":"bytes32","indexed":true,"internalType":"bytes32"}],"anonymous":false},{"type":"event","name":"RoleGranted","inputs":[{"name":"role","type":"bytes32","indexed":true,"internalType":"bytes32"},{"name":"account","type":"address","indexed":true,"internalType":"address"},{"name":"sender","type":"address","indexed":true,"internalType":"address"}],"anonymous":false},{"type":"event","name":"RoleRevoked","inputs":[{"name":"role","type":"bytes32","indexed":true,"internalType":"bytes32"},{"name":"account","type":"address","indexed":true,"internalType":"address"},{"name":"sender","type":"address","indexed":true,"internalType":"address"}],"anonymous":false},{"type":"event","name":"Transfer","inputs":[{"name":"from","type":"address","indexed":true,"internalType":"address"},{"name":"to","type":"address","indexed":true,"internalType":"address"},{"name":"value","type":"uint256","indexed":false,"internalType":"uint256"}],"anonymous":false},{"type":"event","name":"Unpaused","inputs":[{"name":"account","type":"address","indexed":false,"internalType":"address"}],"anonymous":false},{"type":"event","name":"VaultYieldAllocatedToEpoch","inputs":[{"name":"epochId","type":"uint256","indexed":true,"internalType":"uint256"},{"name":"amount","type":"uint256","indexed":false,"internalType":"uint256"}],"anonymous":false},{"type":"event","name":"Withdraw","inputs":[{"name":"sender","type":"address","indexed":true,"internalType":"address"},{"name":"receiver","type":"address","indexed":true,"internalType":"address"},{"name":"owner","type":"address","indexed":true,"internalType":"address"},{"name":"assets","type":"uint256","indexed":false,"internalType":"uint256"},{"name":"shares","type":"uint256","indexed":false,"internalType":"uint256"}],"anonymous":false},{"type":"event","name":"YieldBatchRepaid","inputs":[{"name":"totalAmount","type":"uint256","indexed":false,"internalType":"uint256"},{"name":"recipient","type":"address","indexed":true,"internalType":"address"}],"anonymous":false},{"type":"error","name":"AccessControlBadConfirmation","inputs":[]},{"type":"error","name":"AccessControlUnauthorizedAccount","inputs":[{"name":"account","type":"address","internalType":"address"},{"name":"neededRole","type":"bytes32","internalType":"bytes32"}]},{"type":"error","name":"AddressZero","inputs":[]},{"type":"error","name":"CollectionInsufficientBalance","inputs":[{"name":"collectionAddress","type":"address","internalType":"address"},{"name":"requested","type":"uint256","internalType":"uint256"},{"name":"available","type":"uint256","internalType":"uint256"}]},{"type":"error","name":"CollectionNotRegistered","inputs":[{"name":"collectionAddress","type":"address","internalType":"address"}]},{"type":"error","name":"ERC20InsufficientAllowance","inputs":[{"name":"spender","type":"address","internalType":"address"},{"name":"allowance","type":"uint256","internalType":"uint256"},{"name":"needed","type":"uint256","internalType":"uint256"}]},{"type":"error","name":"ERC20InsufficientBalance","inputs":[{"name":"sender","type":"address","internalType":"address"},{"name":"balance","type":"uint256","internalType":"uint256"},{"name":"needed","type":"uint256","internalType":"uint256"}]},{"type":"error","name":"ERC20InvalidApprover","inputs":[{"name":"approver","type":"address","internalType":"address"}]},{"type":"error","name":"ERC20InvalidReceiver","inputs":[{"name":"receiver","type":"address","internalType":"address"}]},{"type":"error","name":"ERC20InvalidSender","inputs":[{"name":"sender","type":"address","internalType":"address"}]},{"type":"error","name":"ERC20InvalidSpender","inputs":[{"name":"spender","type":"address","internalType":"address"}]},{"type":"error","name":"ERC4626ExceededMaxDeposit","inputs":[{"name":"receiver","type":"address","internalType":"address"},{"name":"assets","type":"uint256","internalType":"uint256"},{"name":"max","type":"uint256","internalType":"uint256"}]},{"type":"error","name":"ERC4626ExceededMaxMint","inputs":[{"name":"receiver","type":"address","internalType":"address"},{"name":"shares","type":"uint256","internalType":"uint256"},{"name":"max","type":"uint256","internalType":"uint256"}]},{"type":"error","name":"ERC4626ExceededMaxRedeem","inputs":[{"name":"owner","type":"address","internalType":"address"},{"name":"shares","type":"uint256","internalType":"uint256"},{"name":"max","type":"uint256","internalType":"uint256"}]},{"type":"error","name":"ERC4626ExceededMaxWithdraw","inputs":[{"name":"owner","type":"address","internalType":"address"},{"name":"assets","type":"uint256","internalType":"uint256"},{"name":"max","type":"uint256","internalType":"uint256"}]},{"type":"error","name":"EnforcedPause","inputs":[]},{"type":"error","name":"ExcessiveYieldAmount","inputs":[{"name":"collection","type":"address","internalType":"address"},{"name":"requested","type":"uint256","internalType":"uint256"},{"name":"maxAllowed","type":"uint256","internalType":"uint256"}]},{"type":"error","name":"ExpectedPause","inputs":[]},{"type":"error","name":"FunctionDisabledUse","inputs":[{"name":"functionName","type":"string","internalType":"string"}]},{"type":"error","name":"InsufficientBalanceInProtocol","inputs":[]},{"type":"error","name":"LendingManagerDepositFailed","inputs":[]},{"type":"error","name":"LendingManagerMismatch","inputs":[]},{"type":"error","name":"LendingManagerWithdrawFailed","inputs":[]},{"type":"error","name":"ReentrancyGuardReentrantCall","inputs":[]},{"type":"error","name":"SafeERC20FailedOperation","inputs":[{"name":"token","type":"address","internalType":"address"}]},{"type":"error","name":"ShareBalanceUnderflow","inputs":[]},{"type":"error","name":"UnauthorizedCollectionAccess","inputs":[{"name":"collectionAddress","type":"address","internalType":"address"},{"name":"operator","type":"address","internalType":"address"}]},{"type":"error","name":"Vault_InsufficientBalancePostLMWithdraw","inputs":[]}],"bytecode":{"object":"0x60c0806040523461038c576151f8803803809161001c82856105b4565b8339810160c08282031261038c57610033826105d7565b60208301519091906001600160401b03811161038c5781610055918501610606565b604084015190916001600160401b03821161038c57610075918501610606565b91610082606085016105d7565b9261009b60a0610094608088016105d7565b96016105d7565b835190936001600160401b0382116104b75760035490600182811c921680156105aa575b60208310146104995781601f84931161053c575b50602090601f83116001146104d6575f926104cb575b50508160011b915f199060031b1c1916176003555b8051906001600160401b0382116104b75760045490600182811c921680156104ad575b60208310146104995781601f84931161042b575b50602090601f83116001146103c5575f926103ba575b50508160011b915f199060031b1c1916176004555b61016981610755565b90156103b2575b60a052608081905260016006556001600160a01b0381169182156103a3576001600160a01b038416156103a3576001600160a01b03169182156103a3576001600160a01b0385169182610242575b670de0b6b3a7640000600d55600980546001600160a01b031916851790556101ef856101e98161064c565b506106c2565b506040516149479081610851823960805181818161093401528181610c5c0152818161106d01528181611f9501528181612709015281816137ee01528181613d0601526144f7015260a0518161201e0152f35b6040516338d52e0f60e01b8152602081600481875afa80156103985783915f91610358575b506001600160a01b031603610349576101ef9560075490610100600160a81b039060081b1690610100600160a81b031916176007556040519160205f81850163095ea7b360e01b815286602487015281196044870152604486526102cc6064876105b4565b85519082865af1903d5f51908361032a575b5050506101be5761031d610322936040519063095ea7b360e01b602083015260248201525f6044820152604481526103176064826105b4565b826107f8565b6107f8565b5f80806101be565b9192509061033f57503b15155b5f80806102de565b6001915014610337565b630ebbc86b60e31b5f5260045ffd5b9150506020813d602011610390575b81610374602093836105b4565b8101031261038c5761038683916105d7565b5f610267565b5f80fd5b3d9150610367565b6040513d5f823e3d90fd5b639fabe1c160e01b5f5260045ffd5b506012610170565b015190505f8061014b565b60045f9081528281209350601f198516905b81811061041357509084600195949392106103fb575b505050811b01600455610160565b01515f1960f88460031b161c191690555f80806103ed565b929360206001819287860151815501950193016103d7565b60045f529091507f8a35acfbc15ff81a39ae7d344fd709f28e8600b4aa8c65c6b64bfe7fe36bd19b601f840160051c8101916020851061048f575b90601f859493920160051c01905b8181106104815750610135565b5f8155849350600101610474565b9091508190610466565b634e487b7160e01b5f52602260045260245ffd5b91607f1691610121565b634e487b7160e01b5f52604160045260245ffd5b015190505f806100e9565b60035f9081528281209350601f198516905b818110610524575090846001959493921061050c575b505050811b016003556100fe565b01515f1960f88460031b161c191690555f80806104fe565b929360206001819287860151815501950193016104e8565b60035f529091507fc2575a0e9e593c00f959f8c92f12db2869c3395a3b0502d05e2516446f71f85b601f840160051c810191602085106105a0575b90601f859493920160051c01905b81811061059257506100d3565b5f8155849350600101610585565b9091508190610577565b91607f16916100bf565b601f909101601f19168101906001600160401b038211908210176104b757604052565b51906001600160a01b038216820361038c57565b6001600160401b0381116104b757601f01601f191660200190565b81601f8201121561038c5780519061061d826105eb565b9261062b60405194856105b4565b8284526020838301011161038c57815f9260208093018386015e8301015290565b6001600160a01b0381165f9081525f5160206151d85f395f51905f52602052604090205460ff166106bd576001600160a01b03165f8181525f5160206151d85f395f51905f5260205260408120805460ff191660011790553391905f5160206151985f395f51905f528180a4600190565b505f90565b6001600160a01b0381165f9081525f5160206151b85f395f51905f52602052604090205460ff166106bd576001600160a01b03165f8181525f5160206151b85f395f51905f5260205260408120805460ff191660011790553391907fa49807205ce4d355092ef5a8a18f56e8913cf4a201fbe287825b095693c21775905f5160206151985f395f51905f529080a4600190565b5f8091604051602081019063313ce56760e01b8252600481526107796024826105b4565b51916001600160a01b03165afa3d156107f0573d90610797826105eb565b916107a560405193846105b4565b82523d5f602084013e5b806107e4575b6107c1575b505f905f90565b60208180518101031261038c576020015160ff81116107ba579060ff6001921690565b506020815110156107b5565b6060906107af565b905f602091828151910182855af115610398575f513d61084757506001600160a01b0381163b155b6108275750565b635274afe760e01b5f9081526001600160a01b0391909116600452602490fd5b6001141561082056fe6080806040526004361015610012575f80fd5b5f905f3560e01c908163017c3e601461248d5750806301e1d1141461227e57806301ffc9a71461243757806306fdde031461234357806307a2d13a14611c6c578063095ea7b31461229b57806309f14f6d1461227e5780630a28a47714612260578063105804b1146121d7578063118394511461215857806318160ddd1461213b57806323b872dd14612125578063248a9ca3146120fa57806327205380146120a35780632f2ff15d14612065578063313ce5671461200a57806336568abe14611fc457806338d52e0f14611f805780633f4ba83a14611f1a578063402d267d14610dd157806344061d9014611e90578063476f484014611c8f5780634b2373f514611c715780634cdad50614611c6c57806354d703bd14611c495780635780b96314611c0b5780635c975abb14611be85780636aebd97314611bbe5780636cc8427d14611b745780636e553f6514611b1c57806370a0823114610a9457806375b238fc14611ae15780638456cb5914611a8657806384f1bc62146119735780638c7cc5e31461194a57806391d148541461190057806394bf804d146118ab57806395d89b41146117a657806396a86a0c1461176b5780639e3b77af1461173e578063a071036f14611616578063a217fddf146115fa578063a29be14a14611565578063a40589f814611541578063a9059cbb14611521578063aa553b61146114dc578063aeb7be9c14611433578063af44c2551461139a578063b3d7f6b914611414578063b460af94146113c4578063b777451c1461139a578063b839eaf814610f7d578063b94305aa14610f3b578063ba08765214610eed578063bf36daf514610e41578063c5a2239514610dd6578063c63d75b614610dd1578063c6e6f59214610707578063c869d0ed14610bb9578063ce96cb7714610b80578063d4d59edb14610b1d578063d547741f14610ad5578063d905777e14610a94578063da7210761461087f578063dd62ed3e1461082c578063e2d2bfe314610803578063e5890f201461070c578063ef8b30f714610707578063f30bd63f146104075763fbc0d70614610320575f80fd5b34610404578060031936011261040457600e54600954829182916001600160a01b03165b81831061035a5760208461ffff60405191168152f35b909192610366846139c7565b905460405163e40de88760e01b815260039290921b1c6001600160a01b031660048201528581602481865afa80156103f95760a061ffff9291839289916103d7575b5001511691160161ffff81116103c357926001019190610344565b634e487b7160e01b85526011600452602485fd5b6103f391503d808b833e6103eb8183612651565b810190612a45565b5f6103a8565b6040513d88823e3d90fd5b80fd5b503461040457602036600319011261040457600435610424613ba1565b61042c613b86565b610434613a81565b6008546001600160a01b03169081156106b357801561065357610455613006565b81116105e85760405163a29a839f60e01b815291602083600481845afa9283156105dd5784936105a5575b508215610546578084913b1561054257604051633c172a4560e21b8152306004820152602481018490529082908290604490829084905af180156105375761051e575b507f0e5c870408c6d8d0c00d7196a26cb06543f82789b6957194b02bdff50684d8b791836020925260118252604085206104fe8282546126bf565b905561050c81600c546126bf565b600c55604051908152a2600160065580f35b8161052891612651565b61053357825f6104c3565b8280fd5b6040513d84823e3d90fd5b5080fd5b60405162461bcd60e51b815260206004820152603160248201527f436f6c6c656374696f6e735661756c743a204e6f206163746976652065706f63604482015270341034b71022b837b1b426b0b730b3b2b960791b6064820152608490fd5b9092506020813d6020116105d5575b816105c160209383612651565b810103126105d15751915f610480565b5f80fd5b3d91506105b4565b6040513d86823e3d90fd5b60405162461bcd60e51b815260206004820152603b60248201527f436f6c6c656374696f6e735661756c743a20416c6c6f636174696f6e20616d6f60448201527f756e74206578636565647320617661696c61626c65207969656c6400000000006064820152608490fd5b60405162461bcd60e51b815260206004820152603260248201527f436f6c6c656374696f6e735661756c743a20416c6c6f636174696f6e20616d6f604482015271756e742063616e6e6f74206265207a65726f60701b6064820152608490fd5b60405162461bcd60e51b815260206004820152602660248201527f436f6c6c656374696f6e735661756c743a2045706f63684d616e61676572206e6044820152651bdd081cd95d60d21b6064820152608490fd5b612633565b5034610404578060031936011261040457610725613a81565b61072d613b86565b610735613ba1565b61073d613bc1565b60405180816020600e549283815201600e85527fbb7b4a454dc3493923482f07822329ed19e8244eff582cc204f8554c3620c3fd92855b8181106107e157505061078992500382612651565b8051825b81811061079d5783600160065580f35b82518110156107cd57600581901b830160200151600191906107c7906001600160a01b0316614344565b0161078d565b634e487b7160e01b84526032600452602484fd5b84546001600160a01b0316835260019485019486945060209093019201610774565b50346104045780600319360112610404576008546040516001600160a01b039091168152602090f35b50346104045760403660031901126104045760406108486124ef565b91610851612505565b9260018060a01b031681526001602052209060018060a01b03165f52602052602060405f2054604051908152f35b50346104045761088e366125e5565b61089a93919293613ba1565b6108a2613b86565b6001600160a01b038116808652601060209081526040808820335f908152925290205490919060ff1615610a7c576108e1906108dc613bc1565b614344565b808552600a60205260408520948554808411610a6357836109a29161090582613a30565b9761090f83613ceb565b6001600160a01b0388169761092d908a90338b9003610a53576146d0565b61096183827f00000000000000000000000000000000000000000000000000000000000000006001600160a01b0316614741565b60018060a01b031696876040518481528a60208201527ffbde797d201c681b91056529119e0b02407c7bb96a4a2c75c01fc9667232c8db60403392a46126cc565b86556109b083600b546126cc565b600b5560018601908154908682108015610a46575b610a375750956002916109da876020996126cc565b9055016109e88582546126cc565b90556040805192835260208301859052820184905233917f7d04be3758d1ab0d8d44adf00e750a53c23ceec5e52516e2f8a99402b06ea4f79080606081015b0390a46001600655604051908152f35b63cf26439b60e01b8152600490fd5b50866002890154106109c5565b610a5e82338361462e565b6146d0565b8360649363ae86887160e01b8452600452602452604452fd5b63533d2ab560e01b8652600482905233602452604486fd5b5034610404576020366003190112610404576020610acd610ab36124ef565b6001600160a01b03165f9081526020819052604090205490565b604051908152f35b503461040457604036600319011261040457610b19600435610af5612505565b90610b14610b0f825f526005602052600160405f20015490565b613b4c565b6141c8565b5080f35b503461040457602036600319011261040457610b376124ef565b610b3f613a81565b610b47613b86565b6001600160a01b03168015610b71576bffffffffffffffffffffffff60a01b600854161760085580f35b639fabe1c160e01b8252600482fd5b503461040457602036600319011261040457602090610acd906040906001600160a01b03610bac6124ef565b1681528084522054613a08565b503461040457602036600319011261040457610bd36124ef565b610bdb613a81565b610be3613b86565b6001600160a01b0381168015610dc25760078054610100600160a81b03198116600894851b610100600160a81b031617918290556040516338d52e0f60e01b815290841c6001600160a01b03908116949192602092849260049284921c165afa9081156105dd578491610d7c575b506001600160a01b037f000000000000000000000000000000000000000000000000000000000000000081169116819003610d6d5782610d5e575b60405160208581830163095ea7b360e01b81528560248501525f19604485015260448452610cbb606485612651565b83519082865af185513d82610d42575b505015610cfe575b505033917fed72d72871e2bd0cdb042dca939ba7543ae2b81b0cc3cd751a82265665aadccb8480a480f35b610d3b91610d3660405163095ea7b360e01b602082015285602482015287604482015260448152610d30606482612651565b826147db565b6147db565b5f80610cd3565b909150610d565750813b15155b5f80610ccb565b600114610d4f565b610d688382613f31565b610c8c565b630ebbc86b60e31b8452600484fd5b90506020813d602011610dba575b81610d9760209383612651565b81010312610db657516001600160a01b0381168103610db6575f610c51565b8380fd5b3d9150610d8a565b639fabe1c160e01b8352600483fd5b612586565b5034610404576020366003190112610404576040906001600160a01b03610dfb6124ef565b168152600a602052208054610e3d6001830154926003600282015491015490604051948594859094939260609260808301968352602083015260408201520152565b0390f35b503461040457604036600319011261040457610e5b6124ef565b610e63612505565b90610e6c613a81565b6001600160a01b03169081158015610edc575b610dc2578183526010602090815260408085206001600160a01b03939093165f81815293909252909120805460ff19166001179055907f4d08c49e970b3c449f76e8946bc63451871e4f633bf41d9022f692119433ec5a8380a380f35b506001600160a01b03811615610e7f565b503461040457610efc366125ab565b50506040516378c721c760e11b81526020600482015260136024820152723932b232b2b6a337b921b7b63632b1ba34b7b760691b604482015260649150fd5b503461040457602036600319011261040457610f556124ef565b610f5d613a81565b610f65613b86565b6001600160a01b03811615610b7157610b199061409c565b503461040457610f8c366125e5565b610f9a949394929192613ba1565b610fa2613b86565b6001600160a01b038116808552601060209081526040808720335f908152925290205490919060ff161561138257610fe590610fdc613bc1565b6108dc8161424c565b808452600a602052604084208054946002549561100188613a08565b948515611324575b61101286613ceb565b6001600160a01b03871696611030908a90338a9003610a53576146d0565b82875f5160206148f25f395f51905f5260206040518d8152a3859789148061131b575b611202575b6040516370a0823160e01b81523060048201527f00000000000000000000000000000000000000000000000000000000000000006001600160a01b031690602081602481855afa9081156111f757908a9186916111c2575b50106111b35788826110c192614741565b60018060a01b031695866040518981528a60208201527ffbde797d201c681b91056529119e0b02407c7bb96a4a2c75c01fc9667232c8db60403392a4848181116111a65761110e916126cc565b825561111d845b600b546126cc565b600b5560018201908154908882108015611199575b610a3757509660027f7d04be3758d1ab0d8d44adf00e750a53c23ceec5e52516e2f8a99402b06ea4f793610a279361116c8460209c6126cc565b90550161117a8282546126cc565b9055604080519586526020860182905285015233939081906060820190565b5088600285015410611132565b5061111d90828455611115565b63724da00760e01b8452600484fd5b9150506020813d6020116111ef575b816111de60209383612651565b810103126105d1578990515f6110b0565b3d91506111d1565b6040513d87823e3d90fd5b6007546040516278744560e21b815260089190911c6001600160a01b031690602081600481855afa9081156111f75785916112e9575b50600c5480821161124c575b505050611058565b611255916126cc565b9081611262575b80611244565b849192995060209060246040518094819363684a169760e11b83528760048401525af19081156105dd5784916112ba575b50156112ab576112a390866126bf565b965f8061125c565b638b78daf760e01b8352600483fd5b6112dc915060203d6020116112e2575b6112d48183612651565b8101906139af565b5f611293565b503d6112ca565b90506020813d602011611313575b8161130460209383612651565b810103126105d157515f611238565b3d91506112f7565b50881515611053565b88156110095760405162461bcd60e51b815260206004820152602a60248201527f455243343632363a2072656465656d20726f756e647320646f776e20746f207a60448201526965726f2061737365747360b01b6064820152608490fd5b63533d2ab560e01b8552600482905233602452604485fd5b50346104045760203660031901126104045760406020916004358152601183522054604051908152f35b5034610404576113d3366125ab565b50506040516378c721c760e11b81526020600482015260156024820152743bb4ba34323930bba337b921b7b63632b1ba34b7b760591b604482015260649150fd5b5034610404576020366003190112610404576020610acd6004356139df565b50346104045760403660031901126104045761144d6124ef565b611455612505565b9061145e613a81565b6001600160a01b031690811580156114cb575b610dc2578183526010602090815260408085206001600160a01b03939093165f81815293909252909120805460ff19169055907f5739350cbdeb4e6227ceabe630c17d3f7e8353ae6ad8140031764fcd14e64c2c8380a380f35b506001600160a01b03811615611471565b5034610404576040366003190112610404576115196114f9612505565b611501613af0565b611509613b86565b611511613ba1565b6004356137c9565b600160065580f35b50346104045760403660031901126104045761153b6124ef565b506129f3565b5034610404576020366003190112610404576020610acd6115606124ef565b61361b565b50346104045760603660031901126104045761157f6124ef565b604435916001600160a01b0383168084036105425761159c613ba1565b6115a4613b86565b808252601060209081526040808420335f908152925290205460ff16156115e35760206115d4856024358661342c565b60016006556040519015158152f35b63533d2ab560e01b82526004523360245260449150fd5b5034610404578060031936011261040457602090604051908152f35b5034610404576116253661254c565b61162d613ba1565b611635613b86565b6001600160a01b038316808552601060209081526040808720335f908152925290205490939060ff161561172657602094611674604092610fdc613bc1565b848152600a86522092600261168883613a59565b94611695868587336144b1565b61169e846145b0565b6116a98482546126bf565b81556116b784600b546126bf565b600b55600181016116c98782546126bf565b9055016116d78582546126bf565b9055604080519283526020830185905282018490526001600160a01b039092169133917fe619f47e82caeee4ee7f64588a6c7eca209f646fce7a915293151653db58442e908060608101610a27565b63533d2ab560e01b8552600484905233602452604485fd5b503461040457806003193601126104045760075460405160089190911c6001600160a01b03168152602090f35b503461040457806003193601126104045760206040517fbcdd9bf55569a395cd79025821af7c971a1601b69479f021adc1b67f548673f38152f35b50346104045780600319360112610404576040519080600454908160011c916001811680156118a1575b60208410811461188d578386529081156118665750600114611809575b610e3d846117fd81860382612651565b604051918291826124a7565b600481527f8a35acfbc15ff81a39ae7d344fd709f28e8600b4aa8c65c6b64bfe7fe36bd19b939250905b80821061184c575090915081016020016117fd826117ed565b919260018160209254838588010152019101909291611833565b60ff191660208087019190915292151560051b850190920192506117fd91508390506117ed565b634e487b7160e01b83526022600452602483fd5b92607f16926117d0565b5034610404576040366003190112610404576118c5612505565b506040516378c721c760e11b815260206004820152601160248201527036b4b73a2337b921b7b63632b1ba34b7b760791b6044820152606490fd5b503461040457604036600319011261040457604061191c612505565b9160043581526005602052209060018060a01b03165f52602052602060ff60405f2054166040519015158152f35b50346104045780600319360112610404576009546040516001600160a01b039091168152602090f35b503461040457611982366125ab565b9161198b613ba1565b611993613b86565b6001600160a01b038316808552601060209081526040808720335f908152925290205490939060ff1615611726576020946119d2604092610fdc613bc1565b848152600a8652209260026119e6836139df565b946119f3848787336144b1565b6119fc866145b0565b611a078682546126bf565b8155611a1586600b546126bf565b600b5560018101611a278582546126bf565b905501611a358382546126bf565b90556040805185815260208101849052908101929092526001600160a01b039092169133917fe619f47e82caeee4ee7f64588a6c7eca209f646fce7a915293151653db58442e908060608101610a27565b5034610404578060031936011261040457611a9f613a81565b611aa7613b86565b600160ff1960075416176007557f62e78cea01bee320cd4e420270b5ea74000d11b0c9f74754ebdbfc544b05a2586020604051338152a180f35b503461040457806003193601126104045760206040517fa49807205ce4d355092ef5a8a18f56e8913cf4a201fbe287825b095693c217758152f35b503461040457604036600319011261040457611b36612505565b506040516378c721c760e11b81526020600482015260146024820152733232b837b9b4ba2337b921b7b63632b1ba34b7b760611b6044820152606490fd5b5034610404576040366003190112610404576040611b90612505565b9160043581526012602052209060018060a01b03165f52602052602060ff60405f2054166040519015158152f35b503461040457602036600319011261040457600435908115158203610404576020610acd83613236565b5034610404578060031936011261040457602060ff600754166040519015158152f35b503461040457604036600319011261040457611519611c286124ef565b611c30613ba1565b611c38613b86565b611c40613a81565b60243590612be5565b50346104045780600319360112610404576020604051670de0b6b3a76400008152f35b6124d1565b50346104045780600319360112610404576020600c54604051908152f35b50346105d15760203660031901126105d157600435611cac613ba1565b611cb4613b86565b611cbc613a81565b6008546001600160a01b031680156106b35760405163a29a839f60e01b8152602081600481855afa908115611d9b575f91611e5e575b508214801590611e56575b611e0757611d09613006565b908115611da657803b156105d157604051633c172a4560e21b815230600482015260248101839052905f908290604490829084905af18015611d9b57611d85575b5060207f0e5c870408c6d8d0c00d7196a26cb06543f82789b6957194b02bdff50684d8b79183855260118252604085206104fe8282546126bf565b611d929193505f90612651565b5f916020611d4a565b6040513d5f823e3d90fd5b60405162461bcd60e51b815260206004820152603360248201527f436f6c6c656374696f6e735661756c743a204e6f207969656c6420617661696c60448201527230b13632903337b91030b63637b1b0ba34b7b760691b6064820152608490fd5b60405162461bcd60e51b815260206004820152602160248201527f436f6c6c656374696f6e735661756c743a20496e76616c69642065706f6368496044820152601960fa1b6064820152608490fd5b508115611cfd565b90506020813d602011611e88575b81611e7960209383612651565b810103126105d157515f611cf2565b3d9150611e6c565b346105d157611e9e366125ab565b9190611ea8613ba1565b611eb0613b86565b6001600160a01b0383165f81815260106020908152604080832033845290915290205490929060ff1615611f0357611eec602094610fdc613bc1565b825f52600a845260405f2092600261168883613a59565b8263533d2ab560e01b5f526004523360245260445ffd5b346105d1575f3660031901126105d157611f32613a81565b60075460ff811615611f715760ff19166007557f5db9ee0a495bf2e6ff9c91a7834c1ba4fdd244a5e8aa4e537bd38aeae4b073aa6020604051338152a1005b638dfc202b60e01b5f5260045ffd5b346105d1575f3660031901126105d1576040517f00000000000000000000000000000000000000000000000000000000000000006001600160a01b03168152602090f35b346105d15760403660031901126105d157611fdd612505565b336001600160a01b03821603611ffb57611ff9906004356141c8565b005b63334bd91960e11b5f5260045ffd5b346105d1575f3660031901126105d15760ff7f00000000000000000000000000000000000000000000000000000000000000001660ff811161205157602090604051908152f35b634e487b7160e01b5f52601160045260245ffd5b346105d15760403660031901126105d157611ff9600435612084612505565b9061209e610b0f825f526005602052600160405f20015490565b614142565b346105d15760403660031901126105d1576120bc6124ef565b6120c4612505565b9060018060a01b03165f52601060205260405f209060018060a01b03165f52602052602060ff60405f2054166040519015158152f35b346105d15760203660031901126105d1576020610acd6004355f526005602052600160405f20015490565b346105d1576121333661254c565b5050506129f3565b346105d1575f3660031901126105d1576020600254604051908152f35b346105d15760603660031901126105d15760043567ffffffffffffffff81116105d15761218990369060040161251b565b906024359167ffffffffffffffff83116105d1576121ae6121d093369060040161251b565b916121b7613af0565b6121bf613b86565b6121c7613ba1565b604435936126d9565b6001600655005b346105d15760403660031901126105d15760043560243567ffffffffffffffff81116105d15761220b90369060040161251b565b9190612215613a81565b5f5b83811061222057005b600190835f52601260205260405f2061224261223d838887612687565b6126ab565b838060a01b03165f5260205260405f2060ff19815416905501612217565b346105d15760203660031901126105d1576020610acd600435613a30565b346105d1575f3660031901126105d1576020600b54604051908152f35b346105d15760403660031901126105d1576122b46124ef565b602435903315612330576001600160a01b031690811561231d57335f52600160205260405f20825f526020528060405f20556040519081527f8c5be1e5ebec7d5bd14f71427d1e84f3dd0314c0f7b2291e5b200ac8c7c3b92560203392a3602060405160018152f35b634a1406b160e11b5f525f60045260245ffd5b63e602df0560e01b5f525f60045260245ffd5b346105d1575f3660031901126105d1576040515f6003548060011c9060018116801561242d575b602083108114612419578285529081156123f55750600114612397575b610e3d836117fd81850382612651565b91905060035f527fc2575a0e9e593c00f959f8c92f12db2869c3395a3b0502d05e2516446f71f85b915f905b8082106123db575090915081016020016117fd612387565b9192600181602092548385880101520191019092916123c3565b60ff191660208086019190915291151560051b840190910191506117fd9050612387565b634e487b7160e01b5f52602260045260245ffd5b91607f169161236a565b346105d15760203660031901126105d15760043563ffffffff60e01b81168091036105d157602090637965db0b60e01b811490811561247c575b506040519015158152f35b6301ffc9a760e01b14905082612471565b346105d1575f3660031901126105d157602090600d548152f35b602060409281835280519182918282860152018484015e5f828201840152601f01601f1916010190565b346105d15760203660031901126105d1576020610acd600435613a08565b600435906001600160a01b03821682036105d157565b602435906001600160a01b03821682036105d157565b9181601f840112156105d15782359167ffffffffffffffff83116105d1576020808501948460051b0101116105d157565b60609060031901126105d1576004356001600160a01b03811681036105d157906024356001600160a01b03811681036105d1579060443590565b346105d15760203660031901126105d15761259f6124ef565b5060206040515f198152f35b60609060031901126105d157600435906024356001600160a01b03811681036105d157906044356001600160a01b03811681036105d15790565b60809060031901126105d157600435906024356001600160a01b03811681036105d157906044356001600160a01b03811681036105d157906064356001600160a01b03811681036105d15790565b346105d15760203660031901126105d1576020610acd600435613a59565b90601f8019910116810190811067ffffffffffffffff82111761267357604052565b634e487b7160e01b5f52604160045260245ffd5b91908110156126975760051b0190565b634e487b7160e01b5f52603260045260245ffd5b356001600160a01b03811681036105d15790565b9190820180921161205157565b9190820391821161205157565b949391909485840361299d578215612995576126f3613bc1565b6126fc83613ceb565b6007546001600160a01b037f000000000000000000000000000000000000000000000000000000000000000081169461273e92909160089190911c1685613fdd565b5f935f5b81811061286a575050600754949550929361276c935060081c6001600160a01b0316919050613f31565b6008546001600160a01b0316806127cf575b50600c5481116127c65761279481600c546126cc565b600c555b6040519081527faf55a1278d05b25a81718352502b10bbece77cee463633323b8e92d2d5ad009560203392a2565b5f600c55612798565b60206004916040519283809263a29a839f60e01b82525afa908115611d9b575f91612838575b5080151580612822575b1561277e575f52601160205260405f2061281a8282546126cc565b90555f61277e565b50805f5260116020528160405f205410156127ff565b90506020813d602011612862575b8161285360209383612651565b810103126105d157515f6127f5565b3d9150612846565b612875818985612687565b3561288461223d838588612687565b81612894575b5050600101612742565b6007546040516304c11f0360e31b81526001600160a01b039283166004820152602481018490529398929391602091839160449183915f9160081c165af1908115611d9b575f91612964575b506128f9576001916128f1916126bf565b95905f61288a565b60405162461bcd60e51b815260206004820152603f60248201527f436f6c6c656374696f6e735661756c743a20526570617920626f72726f77206260448201527f6568616c66206661696c656420766961204c656e64696e674d616e61676572006064820152608490fd5b90506020813d821161298d575b8161297e60209383612651565b810103126105d157515f6128e0565b3d9150612971565b505050509050565b60405162461bcd60e51b815260206004820152602860248201527f436f6c6c656374696f6e735661756c743a204172726179206c656e67746873206044820152670dad2e6dac2e8c6d60c31b6064820152608490fd5b6040516378c721c760e11b81526020600482015260156024820152743a3930b739b332b92337b921b7b63632b1ba34b7b760591b6044820152606490fd5b51906001600160a01b03821682036105d157565b6020818303126105d15780519067ffffffffffffffff82116105d15701908181039161012083126105d1576040519260e0840184811067ffffffffffffffff82111761267357604052612a9782612a31565b845260208201519060028210156105d1576060916020860152603f1901126105d1576040516060810181811067ffffffffffffffff82111761267357604052604082015160028110156105d15781526060820151602082015260808201516040820152604084015260a0810151606084015260c0810151608084015260e081015161ffff811681036105d15760a08401526101008101519067ffffffffffffffff82116105d157019080601f830112156105d15781519167ffffffffffffffff8311612673578260051b9060405193612b736020840186612651565b84526020808501928201019283116105d157602001905b828210612b9c5750505060c082015290565b60208091612ba984612a31565b815201910190612b8a565b8181029291811591840414171561205157565b8115612bd1570490565b634e487b7160e01b5f52601260045260245ffd5b6008549091906001600160a01b0316156106b3576001600160a01b038216918215612ff757825f52600f60205260ff60405f20541615612f9e57815f52601260205260405f20835f5260205260ff60405f205416612f2557815f52601160205260405f2054908115612e6457612c5d906108dc613bc1565b825f52600a60205260405f209060245f60018060a01b03600954166040519283809263e40de88760e01b82528960048301525afa8015611d9b5760a0915f91612e4a575b50019061ffff82511615612ded57612cc26127109161ffff84511690612bb4565b0491835f52601160205260405f20548311612d99578261ffff6060937f22b754fbff211f5e23ae31958825e104905fb1b8de65180b45d0b93342a8c3d195612d3e575b865f52601260205260405f20885f5260205260405f20600160ff19825416179055511691549060405192835260208301526040820152a3565b612d498385546126bf565b8455612d5783600b546126bf565b600b55865f52601160205260405f20612d718482546126cc565b9055600c548311612d9057612d8883600c546126cc565b600c55612d05565b5f600c55612d05565b60405162461bcd60e51b815260206004820152602660248201527f436f6c6c656374696f6e735661756c743a20416c6c6f636174696f6e20756e646044820152656572666c6f7760d01b6064820152608490fd5b505060607f22b754fbff211f5e23ae31958825e104905fb1b8de65180b45d0b93342a8c3d191835f52601260205260405f20855f5260205260405f20600160ff1982541617905554604051905f82525f60208301526040820152a3565b612e5e91503d805f833e6103eb8183612651565b5f612ca1565b5050805f52601260205260405f20825f5260205260405f20600160ff1982541617905560245f60018060a01b03600954166040519283809263e40de88760e01b82528760048301525afa908115611d9b5761ffff60a07f22b754fbff211f5e23ae31958825e104905fb1b8de65180b45d0b93342a8c3d1936060935f91612f0b575b50015116845f52600a60205260405f20546040519182525f60208301526040820152a3565b612f1f91503d805f833e6103eb8183612651565b5f612ee6565b60405162461bcd60e51b815260206004820152604560248201527f436f6c6c656374696f6e735661756c743a205969656c6420616c72656164792060448201527f6170706c69656420666f72207468697320636f6c6c656374696f6e20616e64206064820152640cae0dec6d60db1b608482015260a490fd5b60405162461bcd60e51b815260206004820152602b60248201527f436f6c6c656374696f6e735661756c743a20436f6c6c656374696f6e206e6f7460448201526a081c9959da5cdd195c995960aa1b6064820152608490fd5b639fabe1c160e01b5f5260045ffd5b60075460081c6001600160a01b03168015613231576040516278744560e21b8152602081600481855afa908115611d9b575f916131ff575b5060405163100e176560e31b815290602082600481865afa918215611d9b575f926131cb575b5011156131c4576040516278744560e21b815290602082600481845afa918215611d9b575f9261318f575b509060206004926040519384809263100e176560e31b82525afa908115611d9b575f91613159575b6130c192506126cc565b6008546001600160a01b031680156131215760206004916040519283809263a29a839f60e01b82525afa908115611d9b575f91613127575b508015613121575f52601160205260405f20548082115f146131215761311e916126cc565b90565b50505f90565b90506020813d602011613151575b8161314260209383612651565b810103126105d157515f6130f9565b3d9150613135565b90506020823d602011613187575b8161317460209383612651565b810103126105d1576130c19151906130b7565b3d9150613167565b91506020823d6020116131bc575b816131aa60209383612651565b810103126105d157905190602061308f565b3d915061319d565b505f6130c1565b9091506020813d6020116131f7575b816131e760209383612651565b810103126105d15751905f613064565b3d91506131da565b90506020813d602011613229575b8161321a60209383612651565b810103126105d157515f61303e565b3d915061320d565b505f90565b60075460081c6001600160a01b03168015613121576040516278744560e21b8152602081600481855afa908115611d9b575f916133fa575b5060405163100e176560e31b815290602082600481865afa918215611d9b575f926133c6575b5011156133be576040516278744560e21b815290602082600481845afa918215611d9b575f92613389575b509060206004926040519384809263100e176560e31b82525afa908115611d9b575f91613353575b6132f192506126cc565b905b61311e576008546001600160a01b031680156131215760206004916040519283809263a29a839f60e01b82525afa908115611d9b575f9161312757508015613121575f52601160205260405f20548082115f146131215761311e916126cc565b90506020823d602011613381575b8161336e60209383612651565b810103126105d1576132f19151906132e7565b3d9150613361565b91506020823d6020116133b6575b816133a460209383612651565b810103126105d15790519060206132bf565b3d9150613397565b505f906132f3565b9091506020813d6020116133f2575b816133e260209383612651565b810103126105d15751905f613294565b3d91506133d5565b90506020813d602011613424575b8161341560209383612651565b810103126105d157515f61326e565b3d9150613408565b6001600160a01b0316918215612ff75781156136135761344a613bc1565b61345381614344565b60018060a01b03811690815f52600a60205260405f2090825f52600f60205260ff60405f20541615613600576134889061361b565b8084116135e6575080548084116135e6575033156135d357335f525f60205260405f20548381106135b8578390335f525f6020520360405f205583155f146135a25782600254036002555b836040518481525f5160206148f25f395f51905f5260203392a3836040518481525f5160206148f25f395f51905f5260203392a36135128382546126cc565b815561352083600b546126cc565b600b5560018101908154918483108015613595575b61358657613545856002946126cc565b9055016135538382546126cc565b90556040519182527f993b66b6962861213ca84e497f99b1a7f93b83156c08dd5bfadd73608596017360203393a4600190565b63cf26439b60e01b5f5260045ffd5b5084600283015410613535565b835f525f60205260405f208381540190556134d3565b839063391434e360e21b5f523360045260245260445260645ffd5b634b637e8f60e11b5f525f60045260245ffd5b838363ae86887160e01b5f5260045260245260445260645ffd5b826358ab08b160e11b5f5260045260245ffd5b505050600190565b6001600160a01b03165f818152600f602052604090205460ff1615613761575b805f52600a60205260405f209060405191608083019083821067ffffffffffffffff831117612673576003916040528054845260018101546020850152600281015460408501520154606083019081525f60018060a01b03600954169260246040518095819363e40de88760e01b835260048301525afa918215611d9b575f92613745575b5081516001600160a01b0316158015613735575b8015613728575b6137225761371a61311e939261ffff60a061371061370969021e19e0c9bab240000096600d549051906126cc565b8751612bb4565b9201511690612bb4565b0490516126bf565b50505190565b50600d54815110156136db565b5061ffff60a083015116156136d4565b61375a9192503d805f833e6103eb8183612651565b905f6136c0565b60095460405163e40de88760e01b815260048101839052905f90829060249082906001600160a01b03165afa908115611d9b575f916137af575b50516001600160a01b031661363b57505f90565b6137c391503d805f833e6103eb8183612651565b5f61379b565b9081156139ab576137d8613bc1565b6137e182613ceb565b6007546001600160a01b037f000000000000000000000000000000000000000000000000000000000000000081169261386a9260209286929161382a91849160081c1687613fdd565b6007546040516304c11f0360e31b81526001600160a01b03928316600482015260248101939093529193849260081c9091169082905f9082906044820190565b03925af1908115611d9b575f91613979575b506128f9576008546001600160a01b031691826138d3575b600c546138c7935081116138c9576138ae90600c546126cc565b600c555b60075460081c6001600160a01b031690613f31565b565b505f600c556138b2565b60206004936040519485809263a29a839f60e01b82525afa8015611d9b575f90613945575b6138c793508015158061392f575b613911575b50613894565b5f52601160205260405f206139278282546126cc565b90555f61390b565b50805f5260116020528160405f20541015613906565b506020833d602011613971575b8161395f60209383612651565b810103126105d1576138c792516138f8565b3d9150613952565b90506020813d6020116139a3575b8161399460209383612651565b810103126105d157515f61387c565b3d9150613987565b5050565b908160209103126105d1575180151581036105d15790565b600e5481101561269757600e5f5260205f2001905f90565b600b54906001820180921161205157600254600181018091116120515761311e9260019261477d565b600b54906001820180921161205157600254600181018091116120515761311e925f9261477d565b600254906001820180921161205157600b54600181018091116120515761311e9260019261477d565b600254906001820180921161205157600b54600181018091116120515761311e925f9261477d565b335f9081527fd8ef4509105c3edb0b04658b4528edc5ddd30ea5a81e623a2623c88db1eb54b6602052604090205460ff1615613ab957565b63e2517d3f60e01b5f52336004527fa49807205ce4d355092ef5a8a18f56e8913cf4a201fbe287825b095693c2177560245260445ffd5b335f9081525f5160206148d25f395f51905f52602052604090205460ff1615613b1557565b63e2517d3f60e01b5f52336004527fbcdd9bf55569a395cd79025821af7c971a1601b69479f021adc1b67f548673f360245260445ffd5b5f81815260056020908152604080832033845290915290205460ff1615613b705750565b63e2517d3f60e01b5f523360045260245260445ffd5b60ff60075416613b9257565b63d93c066560e01b5f5260045ffd5b600260065414613bb2576002600655565b633ee5aeb560e01b5f5260045ffd5b60075460081c6001600160a01b03168015613ce85760405163100e176560e31b815290602082600481845afa918215611d9b575f92613cb4575b5081156139ab576020600491604051928380926278744560e21b82525afa908115611d9b575f91613c82575b50600c5480821115613c7957613c3c916126cc565b905b670de0b6b3a7640000820291808304670de0b6b3a7640000149015171561205157613c6891612bc7565b600d548111613c745750565b600d55565b50505f90613c3e565b90506020813d602011613cac575b81613c9d60209383612651565b810103126105d157515f613c27565b3d9150613c90565b9091506020813d602011613ce0575b81613cd060209383612651565b810103126105d15751905f613bfb565b3d9150613cc3565b50565b8015613ce8576040516370a0823160e01b81523060048201527f00000000000000000000000000000000000000000000000000000000000000006001600160a01b031690602081602481855afa908115611d9b575f91613eff575b50828110613d5357505050565b613d5d90836126cc565b6007546040516278744560e21b815260089190911c6001600160a01b03169190602081600481865afa908115611d9b575f91613ecd575b50600c54335f9081525f5160206148d25f395f51905f52602052604090205460ff1615613eaf57505b811115613dcb575b50505050565b8015613dc5575f916024602092604051948593849263684a169760e11b845260048401525af1908115611d9b575f91613e90575b5015613e81576020602491604051928380926370a0823160e01b82523060048301525afa908115611d9b575f91613e4f575b5010613e40575f808080613dc5565b63724da00760e01b5f5260045ffd5b90506020813d602011613e79575b81613e6a60209383612651565b810103126105d157515f613e31565b3d9150613e5d565b638b78daf760e01b5f5260045ffd5b613ea9915060203d6020116112e2576112d48183612651565b5f613dff565b80821115613ec557613ec0916126cc565b613dbd565b50505f613dbd565b90506020813d602011613ef7575b81613ee860209383612651565b810103126105d157515f613d94565b3d9150613edb565b90506020813d602011613f29575b81613f1a60209383612651565b810103126105d157515f613d46565b3d9150613f0d565b6040519060205f8184019463095ea7b360e01b865260018060a01b03169485602486015281604486015260448552613f6a606486612651565b84519082855af15f513d82613fb8575b505015613f8657505050565b610d366138c7936040519063095ea7b360e01b602083015260248201525f604482015260448152610d30606482612651565b909150613fd557506001600160a01b0381163b15155b5f80613f7a565b600114613fce565b60405163095ea7b360e01b60208083019182526001600160a01b0385166024840152604480840196909652948252929390925f9061401c606486612651565b84519082855af15f513d82614077575b50501561403857505050565b60405163095ea7b360e01b60208201526001600160a01b0390931660248401525f60448085019190915283526138c792610d3690610d30606482612651565b90915061409457506001600160a01b0381163b15155b5f8061402c565b60011461408d565b6001600160a01b0381165f9081525f5160206148d25f395f51905f52602052604090205460ff16613231576001600160a01b03165f8181525f5160206148d25f395f51905f5260205260408120805460ff191660011790553391907fbcdd9bf55569a395cd79025821af7c971a1601b69479f021adc1b67f548673f3907f2f8788117e7eff1d82e926ec794901d17c78024a50270940304540a733656f0d9080a4600190565b5f8181526005602090815260408083206001600160a01b038616845290915290205460ff16613121575f8181526005602090815260408083206001600160a01b0395909516808452949091528120805460ff19166001179055339291907f2f8788117e7eff1d82e926ec794901d17c78024a50270940304540a733656f0d9080a4600190565b5f8181526005602090815260408083206001600160a01b038616845290915290205460ff1615613121575f8181526005602090815260408083206001600160a01b0395909516808452949091528120805460ff19169055339291907ff6391f5c32d9c69d2a47ea670b442974b53935d1edc7fd64eb21e047a839171b9080a4600190565b60095460405163c3c5a54760e01b81526001600160a01b039283166004820181905292909160209183916024918391165afa908115611d9b575f91614325575b501561431357805f52600f60205260ff60405f205416156142aa5750565b805f52600f60205260405f20600160ff19825416179055600e5468010000000000000000811015612673578060016142e59201600e556139c7565b81549060031b9083821b9160018060a01b03901b1916179055600d54905f52600a602052600360405f200155565b6358ab08b160e11b5f5260045260245ffd5b61433e915060203d6020116112e2576112d48183612651565b5f61428c565b6001600160a01b03165f818152600f602052604090205460ff1615613ce85760095460405163e40de88760e01b81526004810183905291905f90839060249082906001600160a01b03165afa918215611d9b575f92614495575b50805f52600a60205260a060405f2092019161ffff83511615614488576003810192835490600d548281116143da575b5050505050600d549055565b61440b6143f28469021e19e0c9bab2400000936126cc565b9261ffff61440287549586612bb4565b91511690612bb4565b049081156143ce577fe7d7ea8aa11ec2e18d67e00de2b5dce7b65f8a032d8496015263d4217582e7c3936144428361447b936126bf565b815561445083600b546126bf565b600b555492600d54604051948594859094939260609260808301968352602083015260408201520152565b0390a25f808080806143ce565b9150506003600d54910155565b6144aa9192503d805f833e6103eb8183612651565b905f61439e565b6040516323b872dd60e01b60208201526001600160a01b039091166024820181905230604483015260648083018590528252929190614524906144f5608482612651565b7f00000000000000000000000000000000000000000000000000000000000000006001600160a01b03166147db565b6001600160a01b031692831561459d577fdcbc1c05240f31ff3ad067ef1ee35ce4997762752e3a095284754544f4c709d791816145656040936002546126bf565b600255855f525f602052825f20818154019055855f5f5160206148f25f395f51905f5260208651858152a382519182526020820152a3565b63ec442f0560e01b5f525f60045260245ffd5b806145b85750565b60075460405163690c42c160e11b81526004810192909252602090829060249082905f9060081c6001600160a01b03165af1908115611d9b575f9161460f575b501561460057565b63d8449a5960e01b5f5260045ffd5b614628915060203d6020116112e2576112d48183612651565b5f6145f8565b6001600160a01b039081165f818152600160209081526040808320948616835293905291909120549291905f1984106146675750505050565b8284106146ad578015612330576001600160a01b0382161561231d575f52600160205260405f209060018060a01b03165f5260205260405f20910390555f808080613dc5565b508290637dc7a0d960e11b5f5260018060a01b031660045260245260445260645ffd5b9091906001600160a01b031680156135d357805f525f60205260405f2054838110614727576020845f94955f5160206148f25f395f51905f52938587528684520360408620558060025403600255604051908152a3565b915063391434e360e21b5f5260045260245260445260645ffd5b60405163a9059cbb60e01b60208201526001600160a01b039290921660248301526044808301939093529181526138c791610d36606483612651565b929161478a818386614833565b9260048110156147c75760018091161491826147b0575b505061311e92501515906126bf565b9080925015612bd15761311e930915155f806147a1565b634e487b7160e01b5f52602160045260245ffd5b905f602091828151910182855af115611d9b575f513d61482a57506001600160a01b0381163b155b61480a5750565b635274afe760e01b5f9081526001600160a01b0391909116600452602490fd5b60011415614803565b90915f1983830992808302928380861095039480860395146148c457848311156148ac5790829109815f0382168092046002816003021880820260020302808202600203028082026002030280820260020302808202600203028091026002030293600183805f03040190848311900302920304170290565b82634e487b715f52156003026011186020526024601cfd5b50509061311e9250612bc756fea01c6dab41afbaf71f77b0ec32e349ced011741063524fbddf6b7ae0dcdc3889ddf252ad1be2c89b69c2b068fc378daa952ba7f163c4a11628f55a4df523b3efa2646970667358221220ab7e0b7b03e894b2613e4827c9bfa50e231c7266cb69cfe9538d7db68d92427e64736f6c634300081e00332f8788117e7eff1d82e926ec794901d17c78024a50270940304540a733656f0dd8ef4509105c3edb0b04658b4528edc5ddd30ea5a81e623a2623c88db1eb54b605b8ccbb9d4d8fb16ea74ce3c29a41f1b461fbdaff4714a0d9a8eb05499746bc","linkReferences":{}},"methodIdentifiers":{"ADMIN_ROLE()":"75b238fc","DEBT_SUBSIDIZER_ROLE()":"96a86a0c","DEFAULT_ADMIN_ROLE()":"a217fddf","GLOBAL_DEPOSIT_INDEX_PRECISION()":"54d703bd","allocateEpochYield(uint256)":"f30bd63f","allocateYieldToEpoch(uint256)":"476f4840","allowance(address,address)":"dd62ed3e","applyCollectionYieldForEpoch(address,uint256)":"5780b963","approve(address,uint256)":"095ea7b3","asset()":"38d52e0f","balanceOf(address)":"70a08231","collectionRegistry()":"8c7cc5e3","collectionTotalAssetsDeposited(address)":"a40589f8","collectionVaultsData(address)":"c5a22395","convertToAssets(uint256)":"07a2d13a","convertToShares(uint256)":"c6e6f592","decimals()":"313ce567","deposit(uint256,address)":"6e553f65","depositForCollection(uint256,address,address)":"44061d90","epochCollectionYieldApplied(uint256,address)":"6cc8427d","epochManager()":"e2d2bfe3","epochYieldAllocations(uint256)":"af44c255","getCurrentEpochYield(bool)":"6aebd973","getEpochYieldAllocated(uint256)":"b777451c","getRoleAdmin(bytes32)":"248a9ca3","globalDepositIndex()":"017c3e60","grantCollectionAccess(address,address)":"bf36daf5","grantRole(bytes32,address)":"2f2ff15d","hasRole(bytes32,address)":"91d14854","indexCollectionsDeposits()":"e5890f20","isCollectionOperator(address,address)":"27205380","lendingManager()":"9e3b77af","maxDeposit(address)":"402d267d","maxMint(address)":"c63d75b6","maxRedeem(address)":"d905777e","maxWithdraw(address)":"ce96cb77","mint(uint256,address)":"94bf804d","mintForCollection(uint256,address,address)":"84f1bc62","name()":"06fdde03","pause()":"8456cb59","paused()":"5c975abb","previewDeposit(uint256)":"ef8b30f7","previewMint(uint256)":"b3d7f6b9","previewRedeem(uint256)":"4cdad506","previewWithdraw(uint256)":"0a28a477","redeem(uint256,address,address)":"ba087652","redeemForCollection(uint256,address,address,address)":"b839eaf8","renounceRole(bytes32,address)":"36568abe","repayBorrowBehalf(uint256,address)":"aa553b61","repayBorrowBehalfBatch(uint256[],address[],uint256)":"11839451","resetEpochCollectionYieldFlags(uint256,address[])":"105804b1","revokeCollectionAccess(address,address)":"aeb7be9c","revokeRole(bytes32,address)":"d547741f","setDebtSubsidizer(address)":"b94305aa","setEpochManager(address)":"d4d59edb","setLendingManager(address)":"c869d0ed","supportsInterface(bytes4)":"01ffc9a7","symbol()":"95d89b41","totalAssets()":"01e1d114","totalAssetsDepositedAllCollections()":"09f14f6d","totalCollectionYieldShareBps()":"fbc0d706","totalSupply()":"18160ddd","totalYieldReserved()":"4b2373f5","transfer(address,uint256)":"a9059cbb","transferForCollection(address,address,uint256)":"a071036f","transferForCollection(address,uint256,address)":"a29be14a","transferFrom(address,address,uint256)":"23b872dd","unpause()":"3f4ba83a","withdraw(uint256,address,address)":"b460af94","withdrawForCollection(uint256,address,address,address)":"da721076"},"id":51}