{"abi":[{"type":"constructor","inputs":[{"name":"_asset","type":"address","internalType":"contract IERC20"},{"name":"_name","type":"string","internalType":"string"},{"name":"_symbol","type":"string","internalType":"string"},{"name":"initialAdmin","type":"address","internalType":"address"},{"name":"_lendingManagerAddress","type":"address","internalType":"address"}],"stateMutability":"nonpayable"},{"type":"function","name":"ADMIN_ROLE","inputs":[],"outputs":[{"name":"","type":"bytes32","internalType":"bytes32"}],"stateMutability":"view"},{"type":"function","name":"DEBT_SUBSIDIZER_ROLE","inputs":[],"outputs":[{"name":"","type":"bytes32","internalType":"bytes32"}],"stateMutability":"view"},{"type":"function","name":"DEFAULT_ADMIN_ROLE","inputs":[],"outputs":[{"name":"","type":"bytes32","internalType":"bytes32"}],"stateMutability":"view"},{"type":"function","name":"GLOBAL_DEPOSIT_INDEX_PRECISION","inputs":[],"outputs":[{"name":"","type":"uint256","internalType":"uint256"}],"stateMutability":"view"},{"type":"function","name":"allocateEpochYield","inputs":[{"name":"amount","type":"uint256","internalType":"uint256"}],"outputs":[],"stateMutability":"nonpayable"},{"type":"function","name":"allocateYieldToEpoch","inputs":[{"name":"epochId","type":"uint256","internalType":"uint256"}],"outputs":[],"stateMutability":"nonpayable"},{"type":"function","name":"allowance","inputs":[{"name":"owner","type":"address","internalType":"address"},{"name":"spender","type":"address","internalType":"address"}],"outputs":[{"name":"","type":"uint256","internalType":"uint256"}],"stateMutability":"view"},{"type":"function","name":"applyCollectionYieldForEpoch","inputs":[{"name":"collectionAddress","type":"address","internalType":"address"},{"name":"epochId","type":"uint256","internalType":"uint256"}],"outputs":[],"stateMutability":"nonpayable"},{"type":"function","name":"approve","inputs":[{"name":"spender","type":"address","internalType":"address"},{"name":"value","type":"uint256","internalType":"uint256"}],"outputs":[{"name":"","type":"bool","internalType":"bool"}],"stateMutability":"nonpayable"},{"type":"function","name":"asset","inputs":[],"outputs":[{"name":"","type":"address","internalType":"address"}],"stateMutability":"view"},{"type":"function","name":"balanceOf","inputs":[{"name":"account","type":"address","internalType":"address"}],"outputs":[{"name":"","type":"uint256","internalType":"uint256"}],"stateMutability":"view"},{"type":"function","name":"collectionTotalAssetsDeposited","inputs":[{"name":"collectionAddress","type":"address","internalType":"address"}],"outputs":[{"name":"","type":"uint256","internalType":"uint256"}],"stateMutability":"view"},{"type":"function","name":"collectionYieldTransferred","inputs":[{"name":"collectionAddress","type":"address","internalType":"address"}],"outputs":[{"name":"","type":"uint256","internalType":"uint256"}],"stateMutability":"view"},{"type":"function","name":"collections","inputs":[{"name":"","type":"address","internalType":"address"}],"outputs":[{"name":"collectionAddress","type":"address","internalType":"address"},{"name":"totalAssetsDeposited","type":"uint256","internalType":"uint256"},{"name":"totalSharesMinted","type":"uint256","internalType":"uint256"},{"name":"totalCTokensMinted","type":"uint256","internalType":"uint256"},{"name":"yieldSharePercentage","type":"uint16","internalType":"uint16"},{"name":"totalYieldTransferred","type":"uint256","internalType":"uint256"},{"name":"lastGlobalDepositIndex","type":"uint256","internalType":"uint256"}],"stateMutability":"view"},{"type":"function","name":"convertToAssets","inputs":[{"name":"shares","type":"uint256","internalType":"uint256"}],"outputs":[{"name":"","type":"uint256","internalType":"uint256"}],"stateMutability":"view"},{"type":"function","name":"convertToShares","inputs":[{"name":"assets","type":"uint256","internalType":"uint256"}],"outputs":[{"name":"","type":"uint256","internalType":"uint256"}],"stateMutability":"view"},{"type":"function","name":"decimals","inputs":[],"outputs":[{"name":"","type":"uint8","internalType":"uint8"}],"stateMutability":"view"},{"type":"function","name":"deposit","inputs":[{"name":"","type":"uint256","internalType":"uint256"},{"name":"","type":"address","internalType":"address"}],"outputs":[{"name":"","type":"uint256","internalType":"uint256"}],"stateMutability":"nonpayable"},{"type":"function","name":"depositForCollection","inputs":[{"name":"assets","type":"uint256","internalType":"uint256"},{"name":"receiver","type":"address","internalType":"address"},{"name":"collectionAddress","type":"address","internalType":"address"}],"outputs":[{"name":"shares","type":"uint256","internalType":"uint256"}],"stateMutability":"nonpayable"},{"type":"function","name":"epochCollectionYieldApplied","inputs":[{"name":"","type":"uint256","internalType":"uint256"},{"name":"","type":"address","internalType":"address"}],"outputs":[{"name":"","type":"bool","internalType":"bool"}],"stateMutability":"view"},{"type":"function","name":"epochManager","inputs":[],"outputs":[{"name":"","type":"address","internalType":"contract IEpochManager"}],"stateMutability":"view"},{"type":"function","name":"epochYieldAllocations","inputs":[{"name":"","type":"uint256","internalType":"uint256"}],"outputs":[{"name":"","type":"uint256","internalType":"uint256"}],"stateMutability":"view"},{"type":"function","name":"getCurrentEpochYield","inputs":[{"name":"includeNonShared","type":"bool","internalType":"bool"}],"outputs":[{"name":"availableYield","type":"uint256","internalType":"uint256"}],"stateMutability":"view"},{"type":"function","name":"getEpochYieldAllocated","inputs":[{"name":"epochId","type":"uint256","internalType":"uint256"}],"outputs":[{"name":"amount","type":"uint256","internalType":"uint256"}],"stateMutability":"view"},{"type":"function","name":"getRoleAdmin","inputs":[{"name":"role","type":"bytes32","internalType":"bytes32"}],"outputs":[{"name":"","type":"bytes32","internalType":"bytes32"}],"stateMutability":"view"},{"type":"function","name":"globalDepositIndex","inputs":[],"outputs":[{"name":"","type":"uint256","internalType":"uint256"}],"stateMutability":"view"},{"type":"function","name":"grantRole","inputs":[{"name":"role","type":"bytes32","internalType":"bytes32"},{"name":"account","type":"address","internalType":"address"}],"outputs":[],"stateMutability":"nonpayable"},{"type":"function","name":"hasRole","inputs":[{"name":"role","type":"bytes32","internalType":"bytes32"},{"name":"account","type":"address","internalType":"address"}],"outputs":[{"name":"","type":"bool","internalType":"bool"}],"stateMutability":"view"},{"type":"function","name":"indexCollectionsDeposits","inputs":[],"outputs":[],"stateMutability":"nonpayable"},{"type":"function","name":"lendingManager","inputs":[],"outputs":[{"name":"","type":"address","internalType":"contract ILendingManager"}],"stateMutability":"view"},{"type":"function","name":"maxDeposit","inputs":[{"name":"","type":"address","internalType":"address"}],"outputs":[{"name":"","type":"uint256","internalType":"uint256"}],"stateMutability":"view"},{"type":"function","name":"maxMint","inputs":[{"name":"","type":"address","internalType":"address"}],"outputs":[{"name":"","type":"uint256","internalType":"uint256"}],"stateMutability":"view"},{"type":"function","name":"maxRedeem","inputs":[{"name":"owner","type":"address","internalType":"address"}],"outputs":[{"name":"","type":"uint256","internalType":"uint256"}],"stateMutability":"view"},{"type":"function","name":"maxWithdraw","inputs":[{"name":"owner","type":"address","internalType":"address"}],"outputs":[{"name":"","type":"uint256","internalType":"uint256"}],"stateMutability":"view"},{"type":"function","name":"mint","inputs":[{"name":"","type":"uint256","internalType":"uint256"},{"name":"","type":"address","internalType":"address"}],"outputs":[{"name":"","type":"uint256","internalType":"uint256"}],"stateMutability":"nonpayable"},{"type":"function","name":"mintForCollection","inputs":[{"name":"shares","type":"uint256","internalType":"uint256"},{"name":"receiver","type":"address","internalType":"address"},{"name":"collectionAddress","type":"address","internalType":"address"}],"outputs":[{"name":"assets","type":"uint256","internalType":"uint256"}],"stateMutability":"nonpayable"},{"type":"function","name":"name","inputs":[],"outputs":[{"name":"","type":"string","internalType":"string"}],"stateMutability":"view"},{"type":"function","name":"pause","inputs":[],"outputs":[],"stateMutability":"nonpayable"},{"type":"function","name":"paused","inputs":[],"outputs":[{"name":"","type":"bool","internalType":"bool"}],"stateMutability":"view"},{"type":"function","name":"previewDeposit","inputs":[{"name":"assets","type":"uint256","internalType":"uint256"}],"outputs":[{"name":"","type":"uint256","internalType":"uint256"}],"stateMutability":"view"},{"type":"function","name":"previewMint","inputs":[{"name":"shares","type":"uint256","internalType":"uint256"}],"outputs":[{"name":"","type":"uint256","internalType":"uint256"}],"stateMutability":"view"},{"type":"function","name":"previewRedeem","inputs":[{"name":"shares","type":"uint256","internalType":"uint256"}],"outputs":[{"name":"","type":"uint256","internalType":"uint256"}],"stateMutability":"view"},{"type":"function","name":"previewWithdraw","inputs":[{"name":"assets","type":"uint256","internalType":"uint256"}],"outputs":[{"name":"","type":"uint256","internalType":"uint256"}],"stateMutability":"view"},{"type":"function","name":"redeem","inputs":[{"name":"","type":"uint256","internalType":"uint256"},{"name":"","type":"address","internalType":"address"},{"name":"","type":"address","internalType":"address"}],"outputs":[{"name":"","type":"uint256","internalType":"uint256"}],"stateMutability":"nonpayable"},{"type":"function","name":"redeemForCollection","inputs":[{"name":"shares","type":"uint256","internalType":"uint256"},{"name":"receiver","type":"address","internalType":"address"},{"name":"owner","type":"address","internalType":"address"},{"name":"collectionAddress","type":"address","internalType":"address"}],"outputs":[{"name":"assets","type":"uint256","internalType":"uint256"}],"stateMutability":"nonpayable"},{"type":"function","name":"renounceRole","inputs":[{"name":"role","type":"bytes32","internalType":"bytes32"},{"name":"callerConfirmation","type":"address","internalType":"address"}],"outputs":[],"stateMutability":"nonpayable"},{"type":"function","name":"repayBorrowBehalfBatch","inputs":[{"name":"collectionAddresses","type":"address[]","internalType":"address[]"},{"name":"amounts","type":"uint256[]","internalType":"uint256[]"},{"name":"borrowers","type":"address[]","internalType":"address[]"},{"name":"totalAmount","type":"uint256","internalType":"uint256"}],"outputs":[],"stateMutability":"nonpayable"},{"type":"function","name":"resetEpochCollectionYieldFlags","inputs":[{"name":"epochId","type":"uint256","internalType":"uint256"},{"name":"collectionsToReset","type":"address[]","internalType":"address[]"}],"outputs":[],"stateMutability":"nonpayable"},{"type":"function","name":"revokeRole","inputs":[{"name":"role","type":"bytes32","internalType":"bytes32"},{"name":"account","type":"address","internalType":"address"}],"outputs":[],"stateMutability":"nonpayable"},{"type":"function","name":"setCollectionYieldSharePercentage","inputs":[{"name":"collectionAddress","type":"address","internalType":"address"},{"name":"percentage","type":"uint16","internalType":"uint16"}],"outputs":[],"stateMutability":"nonpayable"},{"type":"function","name":"setDebtSubsidizer","inputs":[{"name":"_debtSubsidizerAddress","type":"address","internalType":"address"}],"outputs":[],"stateMutability":"nonpayable"},{"type":"function","name":"setEpochManager","inputs":[{"name":"_epochManagerAddress","type":"address","internalType":"address"}],"outputs":[],"stateMutability":"nonpayable"},{"type":"function","name":"setLendingManager","inputs":[{"name":"_lendingManagerAddress","type":"address","internalType":"address"}],"outputs":[],"stateMutability":"nonpayable"},{"type":"function","name":"supportsInterface","inputs":[{"name":"interfaceId","type":"bytes4","internalType":"bytes4"}],"outputs":[{"name":"","type":"bool","internalType":"bool"}],"stateMutability":"view"},{"type":"function","name":"symbol","inputs":[],"outputs":[{"name":"","type":"string","internalType":"string"}],"stateMutability":"view"},{"type":"function","name":"totalAssets","inputs":[],"outputs":[{"name":"","type":"uint256","internalType":"uint256"}],"stateMutability":"view"},{"type":"function","name":"totalCollectionYieldShareBps","inputs":[],"outputs":[{"name":"totalBps","type":"uint16","internalType":"uint16"}],"stateMutability":"view"},{"type":"function","name":"totalSupply","inputs":[],"outputs":[{"name":"","type":"uint256","internalType":"uint256"}],"stateMutability":"view"},{"type":"function","name":"transfer","inputs":[{"name":"to","type":"address","internalType":"address"},{"name":"amount","type":"uint256","internalType":"uint256"}],"outputs":[{"name":"","type":"bool","internalType":"bool"}],"stateMutability":"nonpayable"},{"type":"function","name":"transferFrom","inputs":[{"name":"from","type":"address","internalType":"address"},{"name":"to","type":"address","internalType":"address"},{"name":"amount","type":"uint256","internalType":"uint256"}],"outputs":[{"name":"","type":"bool","internalType":"bool"}],"stateMutability":"nonpayable"},{"type":"function","name":"unpause","inputs":[],"outputs":[],"stateMutability":"nonpayable"},{"type":"function","name":"withdraw","inputs":[{"name":"","type":"uint256","internalType":"uint256"},{"name":"","type":"address","internalType":"address"},{"name":"","type":"address","internalType":"address"}],"outputs":[{"name":"","type":"uint256","internalType":"uint256"}],"stateMutability":"nonpayable"},{"type":"function","name":"withdrawForCollection","inputs":[{"name":"assets","type":"uint256","internalType":"uint256"},{"name":"receiver","type":"address","internalType":"address"},{"name":"owner","type":"address","internalType":"address"},{"name":"collectionAddress","type":"address","internalType":"address"}],"outputs":[{"name":"shares","type":"uint256","internalType":"uint256"}],"stateMutability":"nonpayable"},{"type":"event","name":"Approval","inputs":[{"name":"owner","type":"address","indexed":true,"internalType":"address"},{"name":"spender","type":"address","indexed":true,"internalType":"address"},{"name":"value","type":"uint256","indexed":false,"internalType":"uint256"}],"anonymous":false},{"type":"event","name":"CollectionDeposit","inputs":[{"name":"collectionAddress","type":"address","indexed":true,"internalType":"address"},{"name":"caller","type":"address","indexed":true,"internalType":"address"},{"name":"receiver","type":"address","indexed":true,"internalType":"address"},{"name":"assets","type":"uint256","indexed":false,"internalType":"uint256"},{"name":"shares","type":"uint256","indexed":false,"internalType":"uint256"},{"name":"cTokenAmount","type":"uint256","indexed":false,"internalType":"uint256"}],"anonymous":false},{"type":"event","name":"CollectionWithdraw","inputs":[{"name":"collectionAddress","type":"address","indexed":true,"internalType":"address"},{"name":"caller","type":"address","indexed":true,"internalType":"address"},{"name":"receiver","type":"address","indexed":true,"internalType":"address"},{"name":"assets","type":"uint256","indexed":false,"internalType":"uint256"},{"name":"shares","type":"uint256","indexed":false,"internalType":"uint256"},{"name":"cTokenAmount","type":"uint256","indexed":false,"internalType":"uint256"}],"anonymous":false},{"type":"event","name":"CollectionYieldAccrued","inputs":[{"name":"collectionAddress","type":"address","indexed":true,"internalType":"address"},{"name":"yieldAccrued","type":"uint256","indexed":false,"internalType":"uint256"},{"name":"newTotalDeposits","type":"uint256","indexed":false,"internalType":"uint256"},{"name":"globalIndex","type":"uint256","indexed":false,"internalType":"uint256"},{"name":"previousCollectionIndex","type":"uint256","indexed":false,"internalType":"uint256"}],"anonymous":false},{"type":"event","name":"CollectionYieldAppliedForEpoch","inputs":[{"name":"epochId","type":"uint256","indexed":true,"internalType":"uint256"},{"name":"collection","type":"address","indexed":true,"internalType":"address"},{"name":"yieldSharePercentage","type":"uint16","indexed":false,"internalType":"uint16"},{"name":"yieldAdded","type":"uint256","indexed":false,"internalType":"uint256"},{"name":"newTotalDeposits","type":"uint256","indexed":false,"internalType":"uint256"}],"anonymous":false},{"type":"event","name":"CollectionYieldIndexed","inputs":[{"name":"collectionAddress","type":"address","indexed":true,"internalType":"address"},{"name":"epochId","type":"uint256","indexed":true,"internalType":"uint256"},{"name":"assets","type":"uint256","indexed":false,"internalType":"uint256"},{"name":"shares","type":"uint256","indexed":false,"internalType":"uint256"},{"name":"cTokenAmount","type":"uint256","indexed":false,"internalType":"uint256"}],"anonymous":false},{"type":"event","name":"Deposit","inputs":[{"name":"sender","type":"address","indexed":true,"internalType":"address"},{"name":"owner","type":"address","indexed":true,"internalType":"address"},{"name":"assets","type":"uint256","indexed":false,"internalType":"uint256"},{"name":"shares","type":"uint256","indexed":false,"internalType":"uint256"}],"anonymous":false},{"type":"event","name":"LendingManagerChanged","inputs":[{"name":"oldLendingManager","type":"address","indexed":true,"internalType":"address"},{"name":"newLendingManager","type":"address","indexed":true,"internalType":"address"},{"name":"changedBy","type":"address","indexed":true,"internalType":"address"}],"anonymous":false},{"type":"event","name":"Paused","inputs":[{"name":"account","type":"address","indexed":false,"internalType":"address"}],"anonymous":false},{"type":"event","name":"RoleAdminChanged","inputs":[{"name":"role","type":"bytes32","indexed":true,"internalType":"bytes32"},{"name":"previousAdminRole","type":"bytes32","indexed":true,"internalType":"bytes32"},{"name":"newAdminRole","type":"bytes32","indexed":true,"internalType":"bytes32"}],"anonymous":false},{"type":"event","name":"RoleGranted","inputs":[{"name":"role","type":"bytes32","indexed":true,"internalType":"bytes32"},{"name":"account","type":"address","indexed":true,"internalType":"address"},{"name":"sender","type":"address","indexed":true,"internalType":"address"}],"anonymous":false},{"type":"event","name":"RoleRevoked","inputs":[{"name":"role","type":"bytes32","indexed":true,"internalType":"bytes32"},{"name":"account","type":"address","indexed":true,"internalType":"address"},{"name":"sender","type":"address","indexed":true,"internalType":"address"}],"anonymous":false},{"type":"event","name":"Transfer","inputs":[{"name":"from","type":"address","indexed":true,"internalType":"address"},{"name":"to","type":"address","indexed":true,"internalType":"address"},{"name":"value","type":"uint256","indexed":false,"internalType":"uint256"}],"anonymous":false},{"type":"event","name":"Unpaused","inputs":[{"name":"account","type":"address","indexed":false,"internalType":"address"}],"anonymous":false},{"type":"event","name":"VaultYieldAllocatedToEpoch","inputs":[{"name":"epochId","type":"uint256","indexed":true,"internalType":"uint256"},{"name":"amount","type":"uint256","indexed":false,"internalType":"uint256"}],"anonymous":false},{"type":"event","name":"Withdraw","inputs":[{"name":"sender","type":"address","indexed":true,"internalType":"address"},{"name":"receiver","type":"address","indexed":true,"internalType":"address"},{"name":"owner","type":"address","indexed":true,"internalType":"address"},{"name":"assets","type":"uint256","indexed":false,"internalType":"uint256"},{"name":"shares","type":"uint256","indexed":false,"internalType":"uint256"}],"anonymous":false},{"type":"event","name":"YieldBatchRepaid","inputs":[{"name":"totalAmount","type":"uint256","indexed":false,"internalType":"uint256"},{"name":"recipient","type":"address","indexed":true,"internalType":"address"}],"anonymous":false},{"type":"error","name":"AccessControlBadConfirmation","inputs":[]},{"type":"error","name":"AccessControlUnauthorizedAccount","inputs":[{"name":"account","type":"address","internalType":"address"},{"name":"neededRole","type":"bytes32","internalType":"bytes32"}]},{"type":"error","name":"AddressZero","inputs":[]},{"type":"error","name":"CollectionInsufficientBalance","inputs":[{"name":"collectionAddress","type":"address","internalType":"address"},{"name":"requested","type":"uint256","internalType":"uint256"},{"name":"available","type":"uint256","internalType":"uint256"}]},{"type":"error","name":"ERC20InsufficientAllowance","inputs":[{"name":"spender","type":"address","internalType":"address"},{"name":"allowance","type":"uint256","internalType":"uint256"},{"name":"needed","type":"uint256","internalType":"uint256"}]},{"type":"error","name":"ERC20InsufficientBalance","inputs":[{"name":"sender","type":"address","internalType":"address"},{"name":"balance","type":"uint256","internalType":"uint256"},{"name":"needed","type":"uint256","internalType":"uint256"}]},{"type":"error","name":"ERC20InvalidApprover","inputs":[{"name":"approver","type":"address","internalType":"address"}]},{"type":"error","name":"ERC20InvalidReceiver","inputs":[{"name":"receiver","type":"address","internalType":"address"}]},{"type":"error","name":"ERC20InvalidSender","inputs":[{"name":"sender","type":"address","internalType":"address"}]},{"type":"error","name":"ERC20InvalidSpender","inputs":[{"name":"spender","type":"address","internalType":"address"}]},{"type":"error","name":"ERC4626ExceededMaxDeposit","inputs":[{"name":"receiver","type":"address","internalType":"address"},{"name":"assets","type":"uint256","internalType":"uint256"},{"name":"max","type":"uint256","internalType":"uint256"}]},{"type":"error","name":"ERC4626ExceededMaxMint","inputs":[{"name":"receiver","type":"address","internalType":"address"},{"name":"shares","type":"uint256","internalType":"uint256"},{"name":"max","type":"uint256","internalType":"uint256"}]},{"type":"error","name":"ERC4626ExceededMaxRedeem","inputs":[{"name":"owner","type":"address","internalType":"address"},{"name":"shares","type":"uint256","internalType":"uint256"},{"name":"max","type":"uint256","internalType":"uint256"}]},{"type":"error","name":"ERC4626ExceededMaxWithdraw","inputs":[{"name":"owner","type":"address","internalType":"address"},{"name":"assets","type":"uint256","internalType":"uint256"},{"name":"max","type":"uint256","internalType":"uint256"}]},{"type":"error","name":"EnforcedPause","inputs":[]},{"type":"error","name":"ExcessiveYieldAmount","inputs":[{"name":"collection","type":"address","internalType":"address"},{"name":"requested","type":"uint256","internalType":"uint256"},{"name":"maxAllowed","type":"uint256","internalType":"uint256"}]},{"type":"error","name":"ExpectedPause","inputs":[]},{"type":"error","name":"FunctionDisabledUse","inputs":[{"name":"functionName","type":"string","internalType":"string"}]},{"type":"error","name":"InsufficientBalanceInProtocol","inputs":[]},{"type":"error","name":"LendingManagerDepositFailed","inputs":[]},{"type":"error","name":"LendingManagerMismatch","inputs":[]},{"type":"error","name":"LendingManagerWithdrawFailed","inputs":[]},{"type":"error","name":"ReentrancyGuardReentrantCall","inputs":[]},{"type":"error","name":"SafeERC20FailedOperation","inputs":[{"name":"token","type":"address","internalType":"address"}]},{"type":"error","name":"ShareBalanceUnderflow","inputs":[]},{"type":"error","name":"Vault_InsufficientBalancePostLMWithdraw","inputs":[]}],"bytecode":{"object":"0x60c0806040523461035e57614990803803809161001c8285610578565b8339810160a08282031261035e576100338261059b565b60208301519092906001600160401b03811161035e57826100559183016105ca565b604082015190926001600160401b03821161035e576100759183016105ca565b9261008e60806100876060850161059b565b930161059b565b835190936001600160401b03821161047b5760035490600182811c9216801561056e575b602083101461045d5781601f849311610500575b50602090601f831160011461049a575f9261048f575b50508160011b915f199060031b1c1916176003555b83516001600160401b03811161047b57600454600181811c91168015610471575b602082101461045d57601f81116103fa575b50602094601f8211600114610397579481929394955f9261038c575b50508160011b915f199060031b1c1916176004555b61015e81610719565b9015610384575b60a052608081905260016006556001600160a01b0381168015610375576001600160a01b03831615610375576001600160a01b0384169182610214575b6101c184670de0b6b3a7640000600a556101bb81610610565b50610686565b5060405161411b9081610815823960805181818161089101528181610bae01528181610e9401528181611cea0152818161235401528181612d4c015281816139090152613b69015260a05181611d730152f35b6040516338d52e0f60e01b8152602081600481875afa801561036a5783915f9161032a575b506001600160a01b03160361031b576101c19460075490610100600160a81b039060081b1690610100600160a81b031916176007556040519160205f81850163095ea7b360e01b8152866024870152811960448701526044865261029e606487610578565b85519082865af1903d5f5190836102fc575b5050506101a2576102ef6102f4936040519063095ea7b360e01b602083015260248201525f6044820152604481526102e9606482610578565b826107bc565b6107bc565b5f80806101a2565b9192509061031157503b15155b5f80806102b0565b6001915014610309565b630ebbc86b60e31b5f5260045ffd5b9150506020813d602011610362575b8161034660209383610578565b8101031261035e57610358839161059b565b5f610239565b5f80fd5b3d9150610339565b6040513d5f823e3d90fd5b639fabe1c160e01b5f5260045ffd5b506012610165565b015190505f80610140565b601f1982169560045f52805f20915f5b8881106103e2575083600195969798106103ca575b505050811b01600455610155565b01515f1960f88460031b161c191690555f80806103bc565b919260206001819286850151815501940192016103a7565b60045f527f8a35acfbc15ff81a39ae7d344fd709f28e8600b4aa8c65c6b64bfe7fe36bd19b601f830160051c81019160208410610453575b601f0160051c01905b8181106104485750610124565b5f815560010161043b565b9091508190610432565b634e487b7160e01b5f52602260045260245ffd5b90607f1690610112565b634e487b7160e01b5f52604160045260245ffd5b015190505f806100dc565b60035f9081528281209350601f198516905b8181106104e857509084600195949392106104d0575b505050811b016003556100f1565b01515f1960f88460031b161c191690555f80806104c2565b929360206001819287860151815501950193016104ac565b60035f529091507fc2575a0e9e593c00f959f8c92f12db2869c3395a3b0502d05e2516446f71f85b601f840160051c81019160208510610564575b90601f859493920160051c01905b81811061055657506100c6565b5f8155849350600101610549565b909150819061053b565b91607f16916100b2565b601f909101601f19168101906001600160401b0382119082101761047b57604052565b51906001600160a01b038216820361035e57565b6001600160401b03811161047b57601f01601f191660200190565b81601f8201121561035e578051906105e1826105af565b926105ef6040519485610578565b8284526020838301011161035e57815f9260208093018386015e8301015290565b6001600160a01b0381165f9081525f5160206149705f395f51905f52602052604090205460ff16610681576001600160a01b03165f8181525f5160206149705f395f51905f5260205260408120805460ff191660011790553391905f5160206149305f395f51905f528180a4600190565b505f90565b6001600160a01b0381165f9081525f5160206149505f395f51905f52602052604090205460ff16610681576001600160a01b03165f8181525f5160206149505f395f51905f5260205260408120805460ff191660011790553391907fa49807205ce4d355092ef5a8a18f56e8913cf4a201fbe287825b095693c21775905f5160206149305f395f51905f529080a4600190565b5f8091604051602081019063313ce56760e01b82526004815261073d602482610578565b51916001600160a01b03165afa3d156107b4573d9061075b826105af565b916107696040519384610578565b82523d5f602084013e5b806107a8575b610785575b505f905f90565b60208180518101031261035e576020015160ff811161077e579060ff6001921690565b50602081511015610779565b606090610773565b905f602091828151910182855af11561036a575f513d61080b57506001600160a01b0381163b155b6107eb5750565b635274afe760e01b5f9081526001600160a01b0391909116600452602490fd5b600114156107e456fe6080806040526004361015610012575f80fd5b5f905f3560e01c908163017c3e60146121505750806301e1d1141461213657806301ffc9a7146120e057806306fdde0314611fec57806307a2d13a146118f5578063095ea7b314611f445780630a28a47714611f26578063105804b114611e9d57806318160ddd14611e805780631e62a02d14611e4557806323b872dd14611e23578063248a9ca314611df85780632f2ff15d14611dba578063313ce56714611d5f57806336568abe14611d1957806338d52e0f14611cd55780633f4ba83a14611c6f578063402d267d14610d2357806343add2e614611bea57806344061d9014611afb578063476f4840146118fa5780634cdad506146118f557806354d703bd146118d25780635780b963146118945780635c975abb146118715780636aebd973146118475780636cc8427d146117fd5780636e553f65146117a557806370a08231146109e657806375b238fc1461176a5780638456cb591461170f57806384f1bc621461161b5780638f6fbf091461152157806391d14854146114d757806394bf804d1461148257806395d89b411461137957806396a86a0c146113515780639bfdf2f7146112c15780639e3b77af14611294578063a217fddf14611278578063a40589f814611254578063a9059cbb14611234578063af44c2551461119b578063b3d7f6b914611215578063b460af94146111c5578063b777451c1461119b578063b839eaf814610db8578063b94305aa14610d76578063ba08765214610d28578063c63d75b614610d23578063c6e6f59214610688578063c869d0ed14610b0b578063ce96cb7714610ad2578063d4d59edb14610a6f578063d547741f14610a27578063d905777e146109e6578063da72107614610800578063dd62ed3e146107ad578063e2d2bfe314610784578063e5890f201461068d578063ef8b30f714610688578063f30bd63f146103975763fbc0d706146102d3575f80fd5b3461039457806003193601126103945780600b548290600b545b8183106103035760208461ffff60405191168152f35b90919281841015610380577f0175b7a638427703f0dbe7bb9bbf987a2551717b34e79f33b5b1008d1fa01db9840154600386901b1c6001600160a01b031685526009602052604085206004015461ffff9182169082160190811161036c579260010191906102ed565b634e487b7160e01b85526011600452602485fd5b634e487b7160e01b85526032600452602485fd5b80fd5b5034610394576020366003190112610394576004356103b46135ba565b6103bc6135da565b6103c461334e565b6008546001600160a01b03169081156106345780156105d4576103e5612852565b81116105695760405163a29a839f60e01b815291602083600481845afa92831561055e578493610526575b5082156104c7578084913b156104c357604051633c172a4560e21b8152306004820152602481018490529082908290604490829084905af180156104b85761049f575b507f0e5c870408c6d8d0c00d7196a26cb06543f82789b6957194b02bdff50684d8b7918360209252600d82526040852061048e82825461232c565b9055604051908152a2600160065580f35b816104a99161230a565b6104b457825f610453565b8280fd5b6040513d84823e3d90fd5b5080fd5b60405162461bcd60e51b815260206004820152603160248201527f436f6c6c656374696f6e735661756c743a204e6f206163746976652065706f63604482015270341034b71022b837b1b426b0b730b3b2b960791b6064820152608490fd5b9092506020813d602011610556575b816105426020938361230a565b810103126105525751915f610410565b5f80fd5b3d9150610535565b6040513d86823e3d90fd5b60405162461bcd60e51b815260206004820152603b60248201527f436f6c6c656374696f6e735661756c743a20416c6c6f636174696f6e20616d6f60448201527f756e74206578636565647320617661696c61626c65207969656c6400000000006064820152608490fd5b60405162461bcd60e51b815260206004820152603260248201527f436f6c6c656374696f6e735661756c743a20416c6c6f636174696f6e20616d6f604482015271756e742063616e6e6f74206265207a65726f60701b6064820152608490fd5b60405162461bcd60e51b815260206004820152602660248201527f436f6c6c656374696f6e735661756c743a2045706f63684d616e61676572206e6044820152651bdd081cd95d60d21b6064820152608490fd5b6122bc565b50346103945780600319360112610394576106a661334e565b6106ae6135da565b6106b66135ba565b6106be6135f5565b60405180816020600b549283815201600b85527f0175b7a638427703f0dbe7bb9bbf987a2551717b34e79f33b5b1008d1fa01db992855b81811061076257505061070a9250038261230a565b8051825b81811061071e5783600160065580f35b825181101561074e57600581901b83016020015160019190610748906001600160a01b03166137bc565b0161070e565b634e487b7160e01b84526032600452602484fd5b84546001600160a01b03168352600194850194869450602090930192016106f5565b50346103945780600319360112610394576008546040516001600160a01b039091168152602090f35b50346103945760403660031901126103945760406107c96121b2565b916107d26121c8565b9260018060a01b031681526001602052209060018060a01b03165f52602052602060405f2054604051908152f35b50346103945761080f3661226e565b61081b939192936135ba565b6108236135da565b61082b6135f5565b610834816137bc565b6001600160a01b0316808552600960205260408520600101548083116109cc57826108ff91610862826132f3565b9661086c83613b4e565b6001600160a01b0387169661088a908990338a90036109bc57613e9e565b6108be83827f00000000000000000000000000000000000000000000000000000000000000006001600160a01b0316613f35565b60018060a01b031695866040518481528960208201527ffbde797d201c681b91056529119e0b02407c7bb96a4a2c75c01fc9667232c8db60403392a46124df565b8186526009602052600160408720015580855260096020526040852094600286019081549086821080156109af575b6109a0575095600391610943876020996124df565b9055016109518582546124df565b90556040805192835260208301859052820184905233917f7d04be3758d1ab0d8d44adf00e750a53c23ceec5e52516e2f8a99402b06ea4f79080606081015b0390a46001600655604051908152f35b63cf26439b60e01b8152600490fd5b508660038901541061092e565b6109c7823383613dfc565b613e9e565b606492869263ae86887160e01b8452600452602452604452fd5b5034610394576020366003190112610394576020610a1f610a056121b2565b6001600160a01b03165f9081526020819052604090205490565b604051908152f35b503461039457604036600319011261039457610a6b600435610a476121c8565b90610a66610a61825f526005602052600160405f20015490565b6133bd565b613536565b5080f35b503461039457602036600319011261039457610a896121b2565b610a9161334e565b610a996135da565b6001600160a01b03168015610ac3576bffffffffffffffffffffffff60a01b600854161760085580f35b639fabe1c160e01b8252600482fd5b503461039457602036600319011261039457602090610a1f906040906001600160a01b03610afe6121b2565b16815280845220546132c6565b503461039457602036600319011261039457610b256121b2565b610b2d61334e565b610b356135da565b6001600160a01b0381168015610d145760078054610100600160a81b03198116600894851b610100600160a81b031617918290556040516338d52e0f60e01b815290841c6001600160a01b03908116949192602092849260049284921c165afa90811561055e578491610cce575b506001600160a01b037f000000000000000000000000000000000000000000000000000000000000000081169116819003610cbf5782610cb0575b60405160208581830163095ea7b360e01b81528560248501525f19604485015260448452610c0d60648561230a565b83519082865af185513d82610c94575b505015610c50575b505033917fed72d72871e2bd0cdb042dca939ba7543ae2b81b0cc3cd751a82265665aadccb8480a480f35b610c8d91610c8860405163095ea7b360e01b602082015285602482015287604482015260448152610c8260648261230a565b82613fcf565b613fcf565b5f80610c25565b909150610ca85750813b15155b5f80610c1d565b600114610ca1565b610cba8382613d4e565b610bde565b630ebbc86b60e31b8452600484fd5b90506020813d602011610d0c575b81610ce96020938361230a565b81010312610d0857516001600160a01b0381168103610d08575f610ba3565b8380fd5b3d9150610cdc565b639fabe1c160e01b8352600483fd5b61220f565b503461039457610d3736612234565b50506040516378c721c760e11b81526020600482015260136024820152723932b232b2b6a337b921b7b63632b1ba34b7b760691b604482015260649150fd5b503461039457602036600319011261039457610d906121b2565b610d9861334e565b610da06135da565b6001600160a01b03811615610ac357610a6b906133f7565b503461039457610dc73661226e565b610dd59493949291926135ba565b610ddd6135da565b610de56135f5565b610dee816137bc565b6001600160a01b0316808452600960205260408420600101546002549490610e15876132c6565b93841561113d575b610e2685613b4e565b6001600160a01b03861695610e44908990338990036109bc57613e9e565b82867fddf252ad1be2c89b69c2b068fc378daa952ba7f163c4a11628f55a4df523b3ef60206040518c8152a38496881480611134575b611040575b6040516370a0823160e01b81523060048201527f00000000000000000000000000000000000000000000000000000000000000006001600160a01b031690602081602481855afa908115611035579089918691611000575b5010610ff1578782610ee892613f35565b60018060a01b031694856040518881528960208201527ffbde797d201c681b91056529119e0b02407c7bb96a4a2c75c01fc9667232c8db60403392a483818111610fd957610f35916124df565b828252600960205260016040832001555b8181526009602052604081209060028201908154908882108015610fcc575b6109a057509660037f7d04be3758d1ab0d8d44adf00e750a53c23ceec5e52516e2f8a99402b06ea4f79361099093610f9f8460209c6124df565b905501610fad8282546124df565b9055604080519586526020860182905285015233939081906060820190565b5088600385015410610f65565b50508181526009602052806001604082200155610f46565b63724da00760e01b8452600484fd5b9150506020813d60201161102d575b8161101c6020938361230a565b81010312610552578890515f610ed7565b3d915061100f565b6040513d87823e3d90fd5b6007546040516278744560e21b815260089190911c6001600160a01b031690602081600481855afa908115611035578591611102575b50611082575b50610e7f565b83919750602090602460405180948193635eb8fa6f60e01b83523060048401525af180156110f75783906110c3575b6110bc91508561232c565b955f61107c565b506020813d6020116110ef575b816110dd6020938361230a565b81010312610552576110bc90516110b1565b3d91506110d0565b6040513d85823e3d90fd5b90506020813d60201161112c575b8161111d6020938361230a565b8101031261055257515f611076565b3d9150611110565b50871515610e7a565b8715610e1d5760405162461bcd60e51b815260206004820152602a60248201527f455243343632363a2072656465656d20726f756e647320646f776e20746f207a60448201526965726f2061737365747360b01b6064820152608490fd5b50346103945760203660031901126103945760406020916004358152600d83522054604051908152f35b5034610394576111d436612234565b50506040516378c721c760e11b81526020600482015260156024820152743bb4ba34323930bba337b921b7b63632b1ba34b7b760591b604482015260649150fd5b5034610394576020366003190112610394576020610a1f600435613298565b50346103945760403660031901126103945761124e6121b2565b50612470565b5034610394576020366003190112610394576020610a1f6112736121b2565b6131b2565b5034610394578060031936011261039457602090604051908152f35b503461039457806003193601126103945760075460405160089190911c6001600160a01b03168152602090f35b5034610394576040366003190112610394576112db6121b2565b6024359061ffff82168092036104b4576112f361334e565b6112fb6135da565b6001600160a01b03811690811561134257611326906113186135f5565b61132181613703565b6137bc565b82526009602052600460408320019061ffff1982541617905580f35b639fabe1c160e01b8452600484fd5b503461039457806003193601126103945760206040515f5160206140c65f395f51905f528152f35b50346103945780600319360112610394576040519080600454908160011c91600181168015611478575b6020841081146114645783865290811561143d57506001146113e0575b6113dc846113d08186038261230a565b6040519182918261216a565b0390f35b600481527f8a35acfbc15ff81a39ae7d344fd709f28e8600b4aa8c65c6b64bfe7fe36bd19b939250905b808210611423575090915081016020016113d0826113c0565b91926001816020925483858801015201910190929161140a565b60ff191660208087019190915292151560051b850190920192506113d091508390506113c0565b634e487b7160e01b83526022600452602483fd5b92607f16926113a3565b50346103945760403660031901126103945761149c6121c8565b506040516378c721c760e11b815260206004820152601160248201527036b4b73a2337b921b7b63632b1ba34b7b760791b6044820152606490fd5b50346103945760403660031901126103945760406114f36121c8565b9160043581526005602052209060018060a01b03165f52602052602060ff60405f2054166040519015158152f35b50346103945760803660031901126103945760043567ffffffffffffffff81116104c3576115539036906004016121de565b919060243567ffffffffffffffff81116104b4576115759036906004016121de565b9060443567ffffffffffffffff8111611617576115969036906004016121de565b9290915f5160206140c65f395f51905f52865260056020526040862060018060a01b0333165f5260205260ff60405f205416156115f3576115eb95966115da6135da565b6115e26135ba565b60643595612cd9565b600160065580f35b63e2517d3f60e01b8652336004525f5160206140c65f395f51905f52602452604486fd5b8480fd5b503461039457602090604061162f36612234565b61163a9391936135ba565b6116426135da565b61164a6135f5565b61165381613703565b61165c816137bc565b6001600160a01b031680855260098652932092600361167a83613298565b94611687848787336138c3565b611690866139ed565b6001810161169f87825461232c565b9055600281016116b085825461232c565b9055016116be83825461232c565b90556040805185815260208101849052908101929092526001600160a01b039092169133917fe619f47e82caeee4ee7f64588a6c7eca209f646fce7a915293151653db58442e908060608101610990565b503461039457806003193601126103945761172861334e565b6117306135da565b600160ff1960075416176007557f62e78cea01bee320cd4e420270b5ea74000d11b0c9f74754ebdbfc544b05a2586020604051338152a180f35b503461039457806003193601126103945760206040517fa49807205ce4d355092ef5a8a18f56e8913cf4a201fbe287825b095693c217758152f35b5034610394576040366003190112610394576117bf6121c8565b506040516378c721c760e11b81526020600482015260146024820152733232b837b9b4ba2337b921b7b63632b1ba34b7b760611b6044820152606490fd5b50346103945760403660031901126103945760406118196121c8565b916004358152600e602052209060018060a01b03165f52602052602060ff60405f2054166040519015158152f35b503461039457602036600319011261039457600435908115158203610394576020610a1f83612a7f565b5034610394578060031936011261039457602060ff600754166040519015158152f35b5034610394576040366003190112610394576115eb6118b16121b2565b6118b96135ba565b6118c16135da565b6118c961334e565b602435906124ec565b50346103945780600319360112610394576020604051670de0b6b3a76400008152f35b612194565b5034610552576020366003190112610552576004356119176135ba565b61191f6135da565b61192761334e565b6008546001600160a01b031680156106345760405163a29a839f60e01b8152602081600481855afa908115611a06575f91611ac9575b508214801590611ac1575b611a7257611974612852565b908115611a1157803b1561055257604051633c172a4560e21b815230600482015260248101839052905f908290604490829084905af18015611a06576119f0575b5060207f0e5c870408c6d8d0c00d7196a26cb06543f82789b6957194b02bdff50684d8b791838552600d82526040852061048e82825461232c565b6119fd9193505f9061230a565b5f9160206119b5565b6040513d5f823e3d90fd5b60405162461bcd60e51b815260206004820152603360248201527f436f6c6c656374696f6e735661756c743a204e6f207969656c6420617661696c60448201527230b13632903337b91030b63637b1b0ba34b7b760691b6064820152608490fd5b60405162461bcd60e51b815260206004820152602160248201527f436f6c6c656374696f6e735661756c743a20496e76616c69642065706f6368496044820152601960fa1b6064820152608490fd5b508115611968565b90506020813d602011611af3575b81611ae46020938361230a565b8101031261055257515f61195d565b3d9150611ad7565b34610552576020611b0b36612234565b611b136135ba565b611b1b6135da565b611b236135f5565b611b2c81613703565b611b35816137bc565b6001600160a01b03165f818152600985526040902092906003611b5783613321565b94611b64868587336138c3565b611b6d846139ed565b60018101611b7c85825461232c565b905560028101611b8d87825461232c565b905501611b9b85825461232c565b9055604080519283526020830185905282018490526001600160a01b039092169133917fe619f47e82caeee4ee7f64588a6c7eca209f646fce7a915293151653db58442e908060608101610990565b34610552576020366003190112610552576001600160a01b03611c0b6121b2565b165f52600960205260e060405f2060018060a01b03815416906001810154906002810154600382015461ffff600484015416916006600585015494015494604051968752602087015260408601526060850152608084015260a083015260c0820152f35b34610552575f36600319011261055257611c8761334e565b60075460ff811615611cc65760ff19166007557f5db9ee0a495bf2e6ff9c91a7834c1ba4fdd244a5e8aa4e537bd38aeae4b073aa6020604051338152a1005b638dfc202b60e01b5f5260045ffd5b34610552575f366003190112610552576040517f00000000000000000000000000000000000000000000000000000000000000006001600160a01b03168152602090f35b3461055257604036600319011261055257611d326121c8565b336001600160a01b03821603611d5057611d4e90600435613536565b005b63334bd91960e11b5f5260045ffd5b34610552575f3660031901126105525760ff7f00000000000000000000000000000000000000000000000000000000000000001660ff8111611da657602090604051908152f35b634e487b7160e01b5f52601160045260245ffd5b3461055257604036600319011261055257611d4e600435611dd96121c8565b90611df3610a61825f526005602052600160405f20015490565b6134b0565b34610552576020366003190112610552576020610a1f6004355f526005602052600160405f20015490565b3461055257606036600319011261055257611e3c6121b2565b5061124e6121c8565b34610552576020366003190112610552576001600160a01b03611e666121b2565b165f5260096020526020600560405f200154604051908152f35b34610552575f366003190112610552576020600254604051908152f35b346105525760403660031901126105525760043560243567ffffffffffffffff811161055257611ed19036906004016121de565b9190611edb61334e565b5f5b838110611ee657005b600190835f52600e60205260405f20611f08611f03838887612438565b61245c565b838060a01b03165f5260205260405f2060ff19815416905501611edd565b34610552576020366003190112610552576020610a1f6004356132f3565b3461055257604036600319011261055257611f5d6121b2565b602435903315611fd9576001600160a01b0316908115611fc657335f52600160205260405f20825f526020528060405f20556040519081527f8c5be1e5ebec7d5bd14f71427d1e84f3dd0314c0f7b2291e5b200ac8c7c3b92560203392a3602060405160018152f35b634a1406b160e11b5f525f60045260245ffd5b63e602df0560e01b5f525f60045260245ffd5b34610552575f366003190112610552576040515f6003548060011c906001811680156120d6575b6020831081146120c25782855290811561209e5750600114612040575b6113dc836113d08185038261230a565b91905060035f527fc2575a0e9e593c00f959f8c92f12db2869c3395a3b0502d05e2516446f71f85b915f905b808210612084575090915081016020016113d0612030565b91926001816020925483858801015201910190929161206c565b60ff191660208086019190915291151560051b840190910191506113d09050612030565b634e487b7160e01b5f52602260045260245ffd5b91607f1691612013565b346105525760203660031901126105525760043563ffffffff60e01b811680910361055257602090637965db0b60e01b8114908115612125575b506040519015158152f35b6301ffc9a760e01b1490508261211a565b34610552575f366003190112610552576020610a1f612339565b34610552575f36600319011261055257602090600a548152f35b602060409281835280519182918282860152018484015e5f828201840152601f01601f1916010190565b34610552576020366003190112610552576020610a1f6004356132c6565b600435906001600160a01b038216820361055257565b602435906001600160a01b038216820361055257565b9181601f840112156105525782359167ffffffffffffffff8311610552576020808501948460051b01011161055257565b34610552576020366003190112610552576122286121b2565b5060206040515f198152f35b606090600319011261055257600435906024356001600160a01b038116810361055257906044356001600160a01b03811681036105525790565b608090600319011261055257600435906024356001600160a01b038116810361055257906044356001600160a01b038116810361055257906064356001600160a01b03811681036105525790565b34610552576020366003190112610552576020610a1f600435613321565b60e0810190811067ffffffffffffffff8211176122f657604052565b634e487b7160e01b5f52604160045260245ffd5b90601f8019910116810190811067ffffffffffffffff8211176122f657604052565b91908201809211611da657565b6040516370a0823160e01b81523060048201526020816024817f00000000000000000000000000000000000000000000000000000000000000006001600160a01b03165afa8015611a06575f90612405575b6007546040516278744560e21b815292506020908390600490829060081c6001600160a01b03165afa908115611a06575f916123cf575b6123cc925061232c565b90565b90506020823d6020116123fd575b816123ea6020938361230a565b81010312610552576123cc9151906123c2565b3d91506123dd565b506020813d602011612430575b8161241f6020938361230a565b81010312610552576004905161238b565b3d9150612412565b91908110156124485760051b0190565b634e487b7160e01b5f52603260045260245ffd5b356001600160a01b03811681036105525790565b6040516378c721c760e11b81526020600482015260156024820152743a3930b739b332b92337b921b7b63632b1ba34b7b760591b6044820152606490fd5b81810292918115918404141715611da657565b81156124cb570490565b634e487b7160e01b5f52601260045260245ffd5b91908203918211611da657565b6008549091906001600160a01b031615610634576001600160a01b03821691821561284357825f52600c60205260ff60405f205416156127ea57815f52600e60205260405f20835f5260205260ff60405f20541661277157815f52600d60205260405f20549081156126f357612564906113216135f5565b825f52600960205260405f2090600482019061ffff82541615612694576125946127109161ffff845416906124ae565b0491835f52600d60205260405f205483116126405782600161ffff6060947f22b754fbff211f5e23ae31958825e104905fb1b8de65180b45d0b93342a8c3d196612612575b875f52600e60205260405f20895f5260205260405f208360ff1982541617905554169201549060405192835260208301526040820152a3565b82850161262085825461232c565b9055875f52600d60205260405f206126398582546124df565b90556125d9565b60405162461bcd60e51b815260206004820152602660248201527f436f6c6c656374696f6e735661756c743a20416c6c6f636174696f6e20756e646044820152656572666c6f7760d01b6064820152608490fd5b5050606060017f22b754fbff211f5e23ae31958825e104905fb1b8de65180b45d0b93342a8c3d192845f52600e60205260405f20865f5260205260405f208260ff198254161790550154604051905f82525f60208301526040820152a3565b5050805f52600e60205260405f20825f5260205260405f20600160ff19825416179055815f5260096020527f22b754fbff211f5e23ae31958825e104905fb1b8de65180b45d0b93342a8c3d1606061ffff600460405f20015416845f526009602052600160405f2001546040519182525f60208301526040820152a3565b60405162461bcd60e51b815260206004820152604560248201527f436f6c6c656374696f6e735661756c743a205969656c6420616c72656164792060448201527f6170706c69656420666f72207468697320636f6c6c656374696f6e20616e64206064820152640cae0dec6d60db1b608482015260a490fd5b60405162461bcd60e51b815260206004820152602b60248201527f436f6c6c656374696f6e735661756c743a20436f6c6c656374696f6e206e6f7460448201526a081c9959da5cdd195c995960aa1b6064820152608490fd5b639fabe1c160e01b5f5260045ffd5b60075460081c6001600160a01b03168015612a7a576040516278744560e21b8152602081600481855afa908115611a06575f91612a48575b5060405163100e176560e31b815290602082600481865afa918215611a06575f92612a14575b501115612a0d576040516278744560e21b815290602082600481845afa918215611a06575f926129d8575b509060206004926040519384809263100e176560e31b82525afa908115611a06575f916129a2575b61290d92506124df565b6008546001600160a01b0316801561296a5760206004916040519283809263a29a839f60e01b82525afa908115611a06575f91612970575b50801561296a575f52600d60205260405f20548082115f1461296a576123cc916124df565b50505f90565b90506020813d60201161299a575b8161298b6020938361230a565b8101031261055257515f612945565b3d915061297e565b90506020823d6020116129d0575b816129bd6020938361230a565b810103126105525761290d915190612903565b3d91506129b0565b91506020823d602011612a05575b816129f36020938361230a565b810103126105525790519060206128db565b3d91506129e6565b505f61290d565b9091506020813d602011612a40575b81612a306020938361230a565b810103126105525751905f6128b0565b3d9150612a23565b90506020813d602011612a72575b81612a636020938361230a565b8101031261055257515f61288a565b3d9150612a56565b505f90565b60075460081c6001600160a01b0316801561296a576040516278744560e21b8152602081600481855afa908115611a06575f91612c43575b5060405163100e176560e31b815290602082600481865afa918215611a06575f92612c0f575b501115612c07576040516278744560e21b815290602082600481845afa918215611a06575f92612bd2575b509060206004926040519384809263100e176560e31b82525afa908115611a06575f91612b9c575b612b3a92506124df565b905b6123cc576008546001600160a01b0316801561296a5760206004916040519283809263a29a839f60e01b82525afa908115611a06575f916129705750801561296a575f52600d60205260405f20548082115f1461296a576123cc916124df565b90506020823d602011612bca575b81612bb76020938361230a565b8101031261055257612b3a915190612b30565b3d9150612baa565b91506020823d602011612bff575b81612bed6020938361230a565b81010312610552579051906020612b08565b3d9150612be0565b505f90612b3c565b9091506020813d602011612c3b575b81612c2b6020938361230a565b810103126105525751905f612add565b3d9150612c1e565b90506020813d602011612c6d575b81612c5e6020938361230a565b8101031261055257515f612ab7565b3d9150612c51565b6010545f60105580612c845750565b60105f527f1b6847dc741a1b0cd08d278845f9d819d87b734759afb55fe2de5cb82a9ae672908101905b818110612cb9575050565b5f8155600101612cae565b8054821015612448575f5260205f2001905f90565b959493929091928185148015906131a8575b61315257851561314957612cfd6135f5565b5f5b8581106130cf5750612d1086613b4e565b60075460405163095ea7b360e01b602080830191825260089390931c6001600160a01b039081166024840181905260448085019b909b529983527f0000000000000000000000000000000000000000000000000000000000000000169892905f90612d7c60648561230a565b835190828c5af15f513d826130b3575b50501561306e575b5050612d9e612c75565b5f5b858110612fc45750505f956010545f905b808210612e74575050612dc2612c75565b5f5b858110612e1757505050505050612de99060018060a01b0360075460081c1690613d4e565b6040519081527faf55a1278d05b25a81718352502b10bbece77cee463633323b8e92d2d5ad009560203392a2565b80612e256001928588612438565b3515612e6f57612e39611f03828786612438565b612e44828689612438565b3590838060a01b03165f526009602052612e66600560405f200191825461232c565b90555b01612dc4565b612e69565b9097601054891015612448577f1b6847dc741a1b0cd08d278845f9d819d87b734759afb55fe2de5cb82a9ae6728901546001600160a01b039081165f818152600f602090815260408083205460075491516304c11f0360e31b81526004810186905260248101829052949e90969095909493849260449284929160081c165af1908115611a06575f91612f93575b50612f2857600192612f139161232c565b995f52600f6020525f60408120550190612db1565b60405162461bcd60e51b815260206004820152603f60248201527f436f6c6c656374696f6e735661756c743a20526570617920626f72726f77206260448201527f6568616c66206661696c656420766961204c656e64696e674d616e61676572006064820152608490fd5b90506020813d8211612fbc575b81612fad6020938361230a565b8101031261055257515f612f02565b3d9150612fa0565b612fcf818487612438565b359081612fe1575b6001915001612da0565b6001600160a01b03612ff7611f03838a87612438565b1691825f52600f60205260405f20541561302c575b6001925f52600f60205261302560405f2091825461232c565b9055612fd7565b60105492600160401b8410156122f65761304f8460018096016010556010612cc4565b81549060031b9083821b91878060a01b03901b1916179055925061300c565b6130a66130ac926040519063095ea7b360e01b602083015260248201525f6044820152604481526130a060648261230a565b89613fcf565b87613fcf565b5f80612d94565b9091506130c75750873b15155b5f80612d8c565b6001146130c0565b6130da818487612438565b3515613141576130ee611f0382868b612438565b6130f9828588612438565b35613103826137bc565b61310d8183613a7b565b929015613121575050506001905b01612cff565b6335a9aa2f60e11b5f5260018060a01b031660045260245260445260645ffd5b60019061311b565b50505050505050565b60405162461bcd60e51b815260206004820152602860248201527f436f6c6c656374696f6e735661756c743a204172726179206c656e67746873206044820152670dad2e6dac2e8c6d60c31b6064820152608490fd5b5082851415612ceb565b60018060a01b03165f52600960205260405f206040516131d1816122da565b81546001600160a01b03168082526001830154602083018181526002850154604085015260038501546060850152600485015461ffff1660808501818152600587015460a087015260069096015460c09095018590529093921590811561328f575b508015613283575b61327c57506132746123cc9361ffff61326b61326469021e19e0c9bab240000095600a546124df565b86516124ae565b915116906124ae565b04905161232c565b9250505090565b5081600a54111561323b565b9050155f613233565b6132a0612339565b9060018201809211611da65760025460018101809111611da6576123cc92600192613f71565b6132ce612339565b9060018201809211611da65760025460018101809111611da6576123cc925f92613f71565b6002549060018201809211611da65761330a612339565b60018101809111611da6576123cc92600192613f71565b6002549060018201809211611da657613338612339565b60018101809111611da6576123cc925f92613f71565b335f9081527fd8ef4509105c3edb0b04658b4528edc5ddd30ea5a81e623a2623c88db1eb54b6602052604090205460ff161561338657565b63e2517d3f60e01b5f52336004527fa49807205ce4d355092ef5a8a18f56e8913cf4a201fbe287825b095693c2177560245260445ffd5b5f81815260056020908152604080832033845290915290205460ff16156133e15750565b63e2517d3f60e01b5f523360045260245260445ffd5b6001600160a01b0381165f9081527fa01c6dab41afbaf71f77b0ec32e349ced011741063524fbddf6b7ae0dcdc3889602052604090205460ff16612a7a576001600160a01b03165f8181527fa01c6dab41afbaf71f77b0ec32e349ced011741063524fbddf6b7ae0dcdc388960205260408120805460ff191660011790553391905f5160206140c65f395f51905f52907f2f8788117e7eff1d82e926ec794901d17c78024a50270940304540a733656f0d9080a4600190565b5f8181526005602090815260408083206001600160a01b038616845290915290205460ff1661296a575f8181526005602090815260408083206001600160a01b0395909516808452949091528120805460ff19166001179055339291907f2f8788117e7eff1d82e926ec794901d17c78024a50270940304540a733656f0d9080a4600190565b5f8181526005602090815260408083206001600160a01b038616845290915290205460ff161561296a575f8181526005602090815260408083206001600160a01b0395909516808452949091528120805460ff19169055339291907ff6391f5c32d9c69d2a47ea670b442974b53935d1edc7fd64eb21e047a839171b9080a4600190565b6002600654146135cb576002600655565b633ee5aeb560e01b5f5260045ffd5b60ff600754166135e657565b63d93c066560e01b5f5260045ffd5b60075460081c6001600160a01b031680156137005760405163100e176560e31b8152602081600481855afa908115611a06575f916136ce575b5080156136ca576020600492604051938480926278744560e21b82525afa918215611a06575f92613696575b50670de0b6b3a7640000820291808304670de0b6b3a76400001490151715611da657613685916124c1565b600a5481116136915750565b600a55565b9091506020813d6020116136c2575b816136b26020938361230a565b810103126105525751905f61365a565b3d91506136a5565b5050565b90506020813d6020116136f8575b816136e96020938361230a565b8101031261055257515f61362e565b3d91506136dc565b50565b6001600160a01b03165f818152600c602052604090205460ff16156137255750565b805f52600c60205260405f20600160ff19825416179055600b54600160401b8110156122f65780600161375d9201600b55600b612cc4565b81546001600160a01b0360039290921b82811b199091169084901b179091555f828152600960205260409020805490911615613797575050565b80546001600160a01b03191690911781556006018054156137b55750565b600a549055565b60018060a01b0316805f52600960205260405f2090805f52600c60205260ff60405f2054161580156138b1575b6136ca5761ffff60048301541680156138a55760068301928354600a5481811161381a575b5050505050600a549055565b61384860016138348469021e19e0c9bab2400000946124df565b940194613843865495866124ae565b6124ae565b0490811561380e577fe7d7ea8aa11ec2e18d67e00de2b5dce7b65f8a032d8496015263d4217582e7c39361387e8360809561232c565b809155600a5490604051938452602084015260408301526060820152a25f8080808061380e565b50506006600a54910155565b5081546001600160a01b0316156137e9565b6040516323b872dd60e01b60208201526001600160a01b0390911660248201819052306044830152606480830185905282529291906139369061390760848261230a565b7f00000000000000000000000000000000000000000000000000000000000000006001600160a01b0316613fcf565b6001600160a01b03169283156139c2577fdcbc1c05240f31ff3ad067ef1ee35ce4997762752e3a095284754544f4c709d7918161397760409360025461232c565b600255855f525f602052825f20818154019055855f7fddf252ad1be2c89b69c2b068fc378daa952ba7f163c4a11628f55a4df523b3ef60208651858152a382519182526020820152a3565b63ec442f0560e01b5f525f60045260245ffd5b90816020910312610552575180151581036105525790565b806139f55750565b60075460405163690c42c160e11b81526004810192909252602090829060249082905f9060081c6001600160a01b03165af1908115611a06575f91613a4c575b5015613a3d57565b63d8449a5960e01b5f5260045ffd5b613a6e915060203d602011613a74575b613a66818361230a565b8101906139d5565b5f613a35565b503d613a5c565b91909160018060a01b0381165f52600960205260405f209060405190613aa0826122da565b60018060a01b03835416825260018301549160208101928352600284015460408201526003840154606082015261ffff6004850154169081608082015260c0600660058701549660a08401978852015491015215613b4457613b01906131b2565b905180821115613b3b57613b14916124df565b905b5180821115613b3157613b28916124df565b80925b11159190565b50505f8092613b2b565b50505f90613b16565b5050509015905f90565b8015613700576040516370a0823160e01b81523060048201527f00000000000000000000000000000000000000000000000000000000000000006001600160a01b031690602081602481855afa908115611a06575f91613d1c575b50828110613bb657505050565b613bc090836124df565b6007546040516278744560e21b815260089190911c6001600160a01b03169190602081600481865afa908115611a06575f91613cea575b50811115613c06575b50505050565b8015613c00575f916024602092604051948593849263684a169760e11b845260048401525af1908115611a06575f91613ccb575b5015613cbc576020602491604051928380926370a0823160e01b82523060048301525afa908115611a06575f91613c8a575b5010613c7b575f808080613c00565b63724da00760e01b5f5260045ffd5b90506020813d602011613cb4575b81613ca56020938361230a565b8101031261055257515f613c6c565b3d9150613c98565b638b78daf760e01b5f5260045ffd5b613ce4915060203d602011613a7457613a66818361230a565b5f613c3a565b90506020813d602011613d14575b81613d056020938361230a565b8101031261055257515f613bf7565b3d9150613cf8565b90506020813d602011613d46575b81613d376020938361230a565b8101031261055257515f613ba9565b3d9150613d2a565b6040519060205f8184019463095ea7b360e01b865260018060a01b03169485602486015281604486015260448552613d8760648661230a565b84519082855af15f513d82613dd7575b505015613da357505050565b610c88613dd5936040519063095ea7b360e01b602083015260248201525f604482015260448152610c8260648261230a565b565b909150613df457506001600160a01b0381163b15155b5f80613d97565b600114613ded565b6001600160a01b039081165f818152600160209081526040808320948616835293905291909120549291905f198410613e355750505050565b828410613e7b578015611fd9576001600160a01b03821615611fc6575f52600160205260405f209060018060a01b03165f5260205260405f20910390555f808080613c00565b508290637dc7a0d960e11b5f5260018060a01b031660045260245260445260645ffd5b9091906001600160a01b03168015613f2257805f525f60205260405f2054838110613f08576020845f94957fddf252ad1be2c89b69c2b068fc378daa952ba7f163c4a11628f55a4df523b3ef938587528684520360408620558060025403600255604051908152a3565b915063391434e360e21b5f5260045260245260445260645ffd5b634b637e8f60e11b5f525f60045260245ffd5b60405163a9059cbb60e01b60208201526001600160a01b03929092166024830152604480830193909352918152613dd591610c8860648361230a565b9291613f7e818386614027565b926004811015613fbb576001809116149182613fa4575b50506123cc925015159061232c565b90809250156124cb576123cc930915155f80613f95565b634e487b7160e01b5f52602160045260245ffd5b905f602091828151910182855af115611a06575f513d61401e57506001600160a01b0381163b155b613ffe5750565b635274afe760e01b5f9081526001600160a01b0391909116600452602490fd5b60011415613ff7565b90915f1983830992808302928380861095039480860395146140b857848311156140a05790829109815f0382168092046002816003021880820260020302808202600203028082026002030280820260020302808202600203028091026002030293600183805f03040190848311900302920304170290565b82634e487b715f52156003026011186020526024601cfd5b5050906123cc92506124c156febcdd9bf55569a395cd79025821af7c971a1601b69479f021adc1b67f548673f3a26469706673582212203e357ba4381b12bdc6e2e63c5d8ea3da10de61c913d49ebaa5d26ae76f7ca29864736f6c634300081e00332f8788117e7eff1d82e926ec794901d17c78024a50270940304540a733656f0dd8ef4509105c3edb0b04658b4528edc5ddd30ea5a81e623a2623c88db1eb54b605b8ccbb9d4d8fb16ea74ce3c29a41f1b461fbdaff4714a0d9a8eb05499746bc","linkReferences":{}},"methodIdentifiers":{"ADMIN_ROLE()":"75b238fc","DEBT_SUBSIDIZER_ROLE()":"96a86a0c","DEFAULT_ADMIN_ROLE()":"a217fddf","GLOBAL_DEPOSIT_INDEX_PRECISION()":"54d703bd","allocateEpochYield(uint256)":"f30bd63f","allocateYieldToEpoch(uint256)":"476f4840","allowance(address,address)":"dd62ed3e","applyCollectionYieldForEpoch(address,uint256)":"5780b963","approve(address,uint256)":"095ea7b3","asset()":"38d52e0f","balanceOf(address)":"70a08231","collectionTotalAssetsDeposited(address)":"a40589f8","collectionYieldTransferred(address)":"1e62a02d","collections(address)":"43add2e6","convertToAssets(uint256)":"07a2d13a","convertToShares(uint256)":"c6e6f592","decimals()":"313ce567","deposit(uint256,address)":"6e553f65","depositForCollection(uint256,address,address)":"44061d90","epochCollectionYieldApplied(uint256,address)":"6cc8427d","epochManager()":"e2d2bfe3","epochYieldAllocations(uint256)":"af44c255","getCurrentEpochYield(bool)":"6aebd973","getEpochYieldAllocated(uint256)":"b777451c","getRoleAdmin(bytes32)":"248a9ca3","globalDepositIndex()":"017c3e60","grantRole(bytes32,address)":"2f2ff15d","hasRole(bytes32,address)":"91d14854","indexCollectionsDeposits()":"e5890f20","lendingManager()":"9e3b77af","maxDeposit(address)":"402d267d","maxMint(address)":"c63d75b6","maxRedeem(address)":"d905777e","maxWithdraw(address)":"ce96cb77","mint(uint256,address)":"94bf804d","mintForCollection(uint256,address,address)":"84f1bc62","name()":"06fdde03","pause()":"8456cb59","paused()":"5c975abb","previewDeposit(uint256)":"ef8b30f7","previewMint(uint256)":"b3d7f6b9","previewRedeem(uint256)":"4cdad506","previewWithdraw(uint256)":"0a28a477","redeem(uint256,address,address)":"ba087652","redeemForCollection(uint256,address,address,address)":"b839eaf8","renounceRole(bytes32,address)":"36568abe","repayBorrowBehalfBatch(address[],uint256[],address[],uint256)":"8f6fbf09","resetEpochCollectionYieldFlags(uint256,address[])":"105804b1","revokeRole(bytes32,address)":"d547741f","setCollectionYieldSharePercentage(address,uint16)":"9bfdf2f7","setDebtSubsidizer(address)":"b94305aa","setEpochManager(address)":"d4d59edb","setLendingManager(address)":"c869d0ed","supportsInterface(bytes4)":"01ffc9a7","symbol()":"95d89b41","totalAssets()":"01e1d114","totalCollectionYieldShareBps()":"fbc0d706","totalSupply()":"18160ddd","transfer(address,uint256)":"a9059cbb","transferFrom(address,address,uint256)":"23b872dd","unpause()":"3f4ba83a","withdraw(uint256,address,address)":"b460af94","withdrawForCollection(uint256,address,address,address)":"da721076"},"id":35}