{"abi":[{"type":"constructor","inputs":[{"name":"_asset","type":"address","internalType":"contract IERC20"},{"name":"_name","type":"string","internalType":"string"},{"name":"_symbol","type":"string","internalType":"string"},{"name":"initialAdmin","type":"address","internalType":"address"},{"name":"_lendingManagerAddress","type":"address","internalType":"address"}],"stateMutability":"nonpayable"},{"type":"function","name":"ADMIN_ROLE","inputs":[],"outputs":[{"name":"","type":"bytes32","internalType":"bytes32"}],"stateMutability":"view"},{"type":"function","name":"DEBT_SUBSIDIZER_ROLE","inputs":[],"outputs":[{"name":"","type":"bytes32","internalType":"bytes32"}],"stateMutability":"view"},{"type":"function","name":"DEFAULT_ADMIN_ROLE","inputs":[],"outputs":[{"name":"","type":"bytes32","internalType":"bytes32"}],"stateMutability":"view"},{"type":"function","name":"GLOBAL_DEPOSIT_INDEX_PRECISION","inputs":[],"outputs":[{"name":"","type":"uint256","internalType":"uint256"}],"stateMutability":"view"},{"type":"function","name":"allocateEpochYield","inputs":[{"name":"amount","type":"uint256","internalType":"uint256"}],"outputs":[],"stateMutability":"nonpayable"},{"type":"function","name":"allocateYieldToEpoch","inputs":[{"name":"epochId","type":"uint256","internalType":"uint256"}],"outputs":[],"stateMutability":"nonpayable"},{"type":"function","name":"allowance","inputs":[{"name":"owner","type":"address","internalType":"address"},{"name":"spender","type":"address","internalType":"address"}],"outputs":[{"name":"","type":"uint256","internalType":"uint256"}],"stateMutability":"view"},{"type":"function","name":"applyCollectionYieldForEpoch","inputs":[{"name":"collectionAddress","type":"address","internalType":"address"},{"name":"epochId","type":"uint256","internalType":"uint256"}],"outputs":[],"stateMutability":"nonpayable"},{"type":"function","name":"approve","inputs":[{"name":"spender","type":"address","internalType":"address"},{"name":"value","type":"uint256","internalType":"uint256"}],"outputs":[{"name":"","type":"bool","internalType":"bool"}],"stateMutability":"nonpayable"},{"type":"function","name":"asset","inputs":[],"outputs":[{"name":"","type":"address","internalType":"address"}],"stateMutability":"view"},{"type":"function","name":"balanceOf","inputs":[{"name":"account","type":"address","internalType":"address"}],"outputs":[{"name":"","type":"uint256","internalType":"uint256"}],"stateMutability":"view"},{"type":"function","name":"collectionTotalAssetsDeposited","inputs":[{"name":"collectionAddress","type":"address","internalType":"address"}],"outputs":[{"name":"","type":"uint256","internalType":"uint256"}],"stateMutability":"view"},{"type":"function","name":"collectionYieldTransferred","inputs":[{"name":"collectionAddress","type":"address","internalType":"address"}],"outputs":[{"name":"","type":"uint256","internalType":"uint256"}],"stateMutability":"view"},{"type":"function","name":"collections","inputs":[{"name":"","type":"address","internalType":"address"}],"outputs":[{"name":"collectionAddress","type":"address","internalType":"address"},{"name":"totalAssetsDeposited","type":"uint256","internalType":"uint256"},{"name":"totalSharesMinted","type":"uint256","internalType":"uint256"},{"name":"totalCTokensMinted","type":"uint256","internalType":"uint256"},{"name":"yieldSharePercentage","type":"uint16","internalType":"uint16"},{"name":"totalYieldTransferred","type":"uint256","internalType":"uint256"},{"name":"lastGlobalDepositIndex","type":"uint256","internalType":"uint256"}],"stateMutability":"view"},{"type":"function","name":"convertToAssets","inputs":[{"name":"shares","type":"uint256","internalType":"uint256"}],"outputs":[{"name":"","type":"uint256","internalType":"uint256"}],"stateMutability":"view"},{"type":"function","name":"convertToShares","inputs":[{"name":"assets","type":"uint256","internalType":"uint256"}],"outputs":[{"name":"","type":"uint256","internalType":"uint256"}],"stateMutability":"view"},{"type":"function","name":"decimals","inputs":[],"outputs":[{"name":"","type":"uint8","internalType":"uint8"}],"stateMutability":"view"},{"type":"function","name":"deposit","inputs":[{"name":"","type":"uint256","internalType":"uint256"},{"name":"","type":"address","internalType":"address"}],"outputs":[{"name":"","type":"uint256","internalType":"uint256"}],"stateMutability":"nonpayable"},{"type":"function","name":"depositForCollection","inputs":[{"name":"assets","type":"uint256","internalType":"uint256"},{"name":"receiver","type":"address","internalType":"address"},{"name":"collectionAddress","type":"address","internalType":"address"}],"outputs":[{"name":"shares","type":"uint256","internalType":"uint256"}],"stateMutability":"nonpayable"},{"type":"function","name":"epochCollectionYieldApplied","inputs":[{"name":"","type":"uint256","internalType":"uint256"},{"name":"","type":"address","internalType":"address"}],"outputs":[{"name":"","type":"bool","internalType":"bool"}],"stateMutability":"view"},{"type":"function","name":"epochManager","inputs":[],"outputs":[{"name":"","type":"address","internalType":"contract IEpochManager"}],"stateMutability":"view"},{"type":"function","name":"epochYieldAllocations","inputs":[{"name":"","type":"uint256","internalType":"uint256"}],"outputs":[{"name":"","type":"uint256","internalType":"uint256"}],"stateMutability":"view"},{"type":"function","name":"getCurrentEpochYield","inputs":[{"name":"includeNonShared","type":"bool","internalType":"bool"}],"outputs":[{"name":"availableYield","type":"uint256","internalType":"uint256"}],"stateMutability":"view"},{"type":"function","name":"getEpochYieldAllocated","inputs":[{"name":"epochId","type":"uint256","internalType":"uint256"}],"outputs":[{"name":"amount","type":"uint256","internalType":"uint256"}],"stateMutability":"view"},{"type":"function","name":"getRoleAdmin","inputs":[{"name":"role","type":"bytes32","internalType":"bytes32"}],"outputs":[{"name":"","type":"bytes32","internalType":"bytes32"}],"stateMutability":"view"},{"type":"function","name":"globalDepositIndex","inputs":[],"outputs":[{"name":"","type":"uint256","internalType":"uint256"}],"stateMutability":"view"},{"type":"function","name":"grantRole","inputs":[{"name":"role","type":"bytes32","internalType":"bytes32"},{"name":"account","type":"address","internalType":"address"}],"outputs":[],"stateMutability":"nonpayable"},{"type":"function","name":"hasRole","inputs":[{"name":"role","type":"bytes32","internalType":"bytes32"},{"name":"account","type":"address","internalType":"address"}],"outputs":[{"name":"","type":"bool","internalType":"bool"}],"stateMutability":"view"},{"type":"function","name":"indexCollectionsDeposits","inputs":[],"outputs":[],"stateMutability":"nonpayable"},{"type":"function","name":"lendingManager","inputs":[],"outputs":[{"name":"","type":"address","internalType":"contract ILendingManager"}],"stateMutability":"view"},{"type":"function","name":"maxDeposit","inputs":[{"name":"","type":"address","internalType":"address"}],"outputs":[{"name":"","type":"uint256","internalType":"uint256"}],"stateMutability":"view"},{"type":"function","name":"maxMint","inputs":[{"name":"","type":"address","internalType":"address"}],"outputs":[{"name":"","type":"uint256","internalType":"uint256"}],"stateMutability":"view"},{"type":"function","name":"maxRedeem","inputs":[{"name":"owner","type":"address","internalType":"address"}],"outputs":[{"name":"","type":"uint256","internalType":"uint256"}],"stateMutability":"view"},{"type":"function","name":"maxWithdraw","inputs":[{"name":"owner","type":"address","internalType":"address"}],"outputs":[{"name":"","type":"uint256","internalType":"uint256"}],"stateMutability":"view"},{"type":"function","name":"mint","inputs":[{"name":"","type":"uint256","internalType":"uint256"},{"name":"","type":"address","internalType":"address"}],"outputs":[{"name":"","type":"uint256","internalType":"uint256"}],"stateMutability":"nonpayable"},{"type":"function","name":"mintForCollection","inputs":[{"name":"shares","type":"uint256","internalType":"uint256"},{"name":"receiver","type":"address","internalType":"address"},{"name":"collectionAddress","type":"address","internalType":"address"}],"outputs":[{"name":"assets","type":"uint256","internalType":"uint256"}],"stateMutability":"nonpayable"},{"type":"function","name":"name","inputs":[],"outputs":[{"name":"","type":"string","internalType":"string"}],"stateMutability":"view"},{"type":"function","name":"pause","inputs":[],"outputs":[],"stateMutability":"nonpayable"},{"type":"function","name":"paused","inputs":[],"outputs":[{"name":"","type":"bool","internalType":"bool"}],"stateMutability":"view"},{"type":"function","name":"previewDeposit","inputs":[{"name":"assets","type":"uint256","internalType":"uint256"}],"outputs":[{"name":"","type":"uint256","internalType":"uint256"}],"stateMutability":"view"},{"type":"function","name":"previewMint","inputs":[{"name":"shares","type":"uint256","internalType":"uint256"}],"outputs":[{"name":"","type":"uint256","internalType":"uint256"}],"stateMutability":"view"},{"type":"function","name":"previewRedeem","inputs":[{"name":"shares","type":"uint256","internalType":"uint256"}],"outputs":[{"name":"","type":"uint256","internalType":"uint256"}],"stateMutability":"view"},{"type":"function","name":"previewWithdraw","inputs":[{"name":"assets","type":"uint256","internalType":"uint256"}],"outputs":[{"name":"","type":"uint256","internalType":"uint256"}],"stateMutability":"view"},{"type":"function","name":"redeem","inputs":[{"name":"","type":"uint256","internalType":"uint256"},{"name":"","type":"address","internalType":"address"},{"name":"","type":"address","internalType":"address"}],"outputs":[{"name":"","type":"uint256","internalType":"uint256"}],"stateMutability":"nonpayable"},{"type":"function","name":"redeemForCollection","inputs":[{"name":"shares","type":"uint256","internalType":"uint256"},{"name":"receiver","type":"address","internalType":"address"},{"name":"owner","type":"address","internalType":"address"},{"name":"collectionAddress","type":"address","internalType":"address"}],"outputs":[{"name":"assets","type":"uint256","internalType":"uint256"}],"stateMutability":"nonpayable"},{"type":"function","name":"renounceRole","inputs":[{"name":"role","type":"bytes32","internalType":"bytes32"},{"name":"callerConfirmation","type":"address","internalType":"address"}],"outputs":[],"stateMutability":"nonpayable"},{"type":"function","name":"repayBorrowBehalfBatch","inputs":[{"name":"collectionAddresses","type":"address[]","internalType":"address[]"},{"name":"amounts","type":"uint256[]","internalType":"uint256[]"},{"name":"borrowers","type":"address[]","internalType":"address[]"},{"name":"totalAmount","type":"uint256","internalType":"uint256"}],"outputs":[],"stateMutability":"nonpayable"},{"type":"function","name":"resetEpochCollectionYieldFlags","inputs":[{"name":"epochId","type":"uint256","internalType":"uint256"},{"name":"collectionsToReset","type":"address[]","internalType":"address[]"}],"outputs":[],"stateMutability":"nonpayable"},{"type":"function","name":"revokeRole","inputs":[{"name":"role","type":"bytes32","internalType":"bytes32"},{"name":"account","type":"address","internalType":"address"}],"outputs":[],"stateMutability":"nonpayable"},{"type":"function","name":"setCollectionYieldSharePercentage","inputs":[{"name":"collectionAddress","type":"address","internalType":"address"},{"name":"percentage","type":"uint16","internalType":"uint16"}],"outputs":[],"stateMutability":"nonpayable"},{"type":"function","name":"setDebtSubsidizer","inputs":[{"name":"_debtSubsidizerAddress","type":"address","internalType":"address"}],"outputs":[],"stateMutability":"nonpayable"},{"type":"function","name":"setEpochManager","inputs":[{"name":"_epochManagerAddress","type":"address","internalType":"address"}],"outputs":[],"stateMutability":"nonpayable"},{"type":"function","name":"setLendingManager","inputs":[{"name":"_lendingManagerAddress","type":"address","internalType":"address"}],"outputs":[],"stateMutability":"nonpayable"},{"type":"function","name":"supportsInterface","inputs":[{"name":"interfaceId","type":"bytes4","internalType":"bytes4"}],"outputs":[{"name":"","type":"bool","internalType":"bool"}],"stateMutability":"view"},{"type":"function","name":"symbol","inputs":[],"outputs":[{"name":"","type":"string","internalType":"string"}],"stateMutability":"view"},{"type":"function","name":"totalAssets","inputs":[],"outputs":[{"name":"","type":"uint256","internalType":"uint256"}],"stateMutability":"view"},{"type":"function","name":"totalCollectionYieldShareBps","inputs":[],"outputs":[{"name":"totalBps","type":"uint16","internalType":"uint16"}],"stateMutability":"view"},{"type":"function","name":"totalSupply","inputs":[],"outputs":[{"name":"","type":"uint256","internalType":"uint256"}],"stateMutability":"view"},{"type":"function","name":"transfer","inputs":[{"name":"","type":"address","internalType":"address"},{"name":"","type":"uint256","internalType":"uint256"}],"outputs":[{"name":"","type":"bool","internalType":"bool"}],"stateMutability":"pure"},{"type":"function","name":"transferForCollection","inputs":[{"name":"to","type":"address","internalType":"address"},{"name":"amount","type":"uint256","internalType":"uint256"},{"name":"collectionAddress","type":"address","internalType":"address"}],"outputs":[{"name":"","type":"bool","internalType":"bool"}],"stateMutability":"nonpayable"},{"type":"function","name":"transferFrom","inputs":[{"name":"","type":"address","internalType":"address"},{"name":"","type":"address","internalType":"address"},{"name":"","type":"uint256","internalType":"uint256"}],"outputs":[{"name":"","type":"bool","internalType":"bool"}],"stateMutability":"pure"},{"type":"function","name":"unpause","inputs":[],"outputs":[],"stateMutability":"nonpayable"},{"type":"function","name":"withdraw","inputs":[{"name":"","type":"uint256","internalType":"uint256"},{"name":"","type":"address","internalType":"address"},{"name":"","type":"address","internalType":"address"}],"outputs":[{"name":"","type":"uint256","internalType":"uint256"}],"stateMutability":"nonpayable"},{"type":"function","name":"withdrawForCollection","inputs":[{"name":"assets","type":"uint256","internalType":"uint256"},{"name":"receiver","type":"address","internalType":"address"},{"name":"owner","type":"address","internalType":"address"},{"name":"collectionAddress","type":"address","internalType":"address"}],"outputs":[{"name":"shares","type":"uint256","internalType":"uint256"}],"stateMutability":"nonpayable"},{"type":"event","name":"Approval","inputs":[{"name":"owner","type":"address","indexed":true,"internalType":"address"},{"name":"spender","type":"address","indexed":true,"internalType":"address"},{"name":"value","type":"uint256","indexed":false,"internalType":"uint256"}],"anonymous":false},{"type":"event","name":"CollectionDeposit","inputs":[{"name":"collectionAddress","type":"address","indexed":true,"internalType":"address"},{"name":"caller","type":"address","indexed":true,"internalType":"address"},{"name":"receiver","type":"address","indexed":true,"internalType":"address"},{"name":"assets","type":"uint256","indexed":false,"internalType":"uint256"},{"name":"shares","type":"uint256","indexed":false,"internalType":"uint256"},{"name":"cTokenAmount","type":"uint256","indexed":false,"internalType":"uint256"}],"anonymous":false},{"type":"event","name":"CollectionTransfer","inputs":[{"name":"collectionAddress","type":"address","indexed":true,"internalType":"address"},{"name":"from","type":"address","indexed":true,"internalType":"address"},{"name":"to","type":"address","indexed":true,"internalType":"address"},{"name":"assets","type":"uint256","indexed":false,"internalType":"uint256"}],"anonymous":false},{"type":"event","name":"CollectionWithdraw","inputs":[{"name":"collectionAddress","type":"address","indexed":true,"internalType":"address"},{"name":"caller","type":"address","indexed":true,"internalType":"address"},{"name":"receiver","type":"address","indexed":true,"internalType":"address"},{"name":"assets","type":"uint256","indexed":false,"internalType":"uint256"},{"name":"shares","type":"uint256","indexed":false,"internalType":"uint256"},{"name":"cTokenAmount","type":"uint256","indexed":false,"internalType":"uint256"}],"anonymous":false},{"type":"event","name":"CollectionYieldAccrued","inputs":[{"name":"collectionAddress","type":"address","indexed":true,"internalType":"address"},{"name":"yieldAccrued","type":"uint256","indexed":false,"internalType":"uint256"},{"name":"newTotalDeposits","type":"uint256","indexed":false,"internalType":"uint256"},{"name":"globalIndex","type":"uint256","indexed":false,"internalType":"uint256"},{"name":"previousCollectionIndex","type":"uint256","indexed":false,"internalType":"uint256"}],"anonymous":false},{"type":"event","name":"CollectionYieldAppliedForEpoch","inputs":[{"name":"epochId","type":"uint256","indexed":true,"internalType":"uint256"},{"name":"collection","type":"address","indexed":true,"internalType":"address"},{"name":"yieldSharePercentage","type":"uint16","indexed":false,"internalType":"uint16"},{"name":"yieldAdded","type":"uint256","indexed":false,"internalType":"uint256"},{"name":"newTotalDeposits","type":"uint256","indexed":false,"internalType":"uint256"}],"anonymous":false},{"type":"event","name":"CollectionYieldIndexed","inputs":[{"name":"collectionAddress","type":"address","indexed":true,"internalType":"address"},{"name":"epochId","type":"uint256","indexed":true,"internalType":"uint256"},{"name":"assets","type":"uint256","indexed":false,"internalType":"uint256"},{"name":"shares","type":"uint256","indexed":false,"internalType":"uint256"},{"name":"cTokenAmount","type":"uint256","indexed":false,"internalType":"uint256"}],"anonymous":false},{"type":"event","name":"Deposit","inputs":[{"name":"sender","type":"address","indexed":true,"internalType":"address"},{"name":"owner","type":"address","indexed":true,"internalType":"address"},{"name":"assets","type":"uint256","indexed":false,"internalType":"uint256"},{"name":"shares","type":"uint256","indexed":false,"internalType":"uint256"}],"anonymous":false},{"type":"event","name":"LendingManagerChanged","inputs":[{"name":"oldLendingManager","type":"address","indexed":true,"internalType":"address"},{"name":"newLendingManager","type":"address","indexed":true,"internalType":"address"},{"name":"changedBy","type":"address","indexed":true,"internalType":"address"}],"anonymous":false},{"type":"event","name":"Paused","inputs":[{"name":"account","type":"address","indexed":false,"internalType":"address"}],"anonymous":false},{"type":"event","name":"RoleAdminChanged","inputs":[{"name":"role","type":"bytes32","indexed":true,"internalType":"bytes32"},{"name":"previousAdminRole","type":"bytes32","indexed":true,"internalType":"bytes32"},{"name":"newAdminRole","type":"bytes32","indexed":true,"internalType":"bytes32"}],"anonymous":false},{"type":"event","name":"RoleGranted","inputs":[{"name":"role","type":"bytes32","indexed":true,"internalType":"bytes32"},{"name":"account","type":"address","indexed":true,"internalType":"address"},{"name":"sender","type":"address","indexed":true,"internalType":"address"}],"anonymous":false},{"type":"event","name":"RoleRevoked","inputs":[{"name":"role","type":"bytes32","indexed":true,"internalType":"bytes32"},{"name":"account","type":"address","indexed":true,"internalType":"address"},{"name":"sender","type":"address","indexed":true,"internalType":"address"}],"anonymous":false},{"type":"event","name":"Transfer","inputs":[{"name":"from","type":"address","indexed":true,"internalType":"address"},{"name":"to","type":"address","indexed":true,"internalType":"address"},{"name":"value","type":"uint256","indexed":false,"internalType":"uint256"}],"anonymous":false},{"type":"event","name":"Unpaused","inputs":[{"name":"account","type":"address","indexed":false,"internalType":"address"}],"anonymous":false},{"type":"event","name":"VaultYieldAllocatedToEpoch","inputs":[{"name":"epochId","type":"uint256","indexed":true,"internalType":"uint256"},{"name":"amount","type":"uint256","indexed":false,"internalType":"uint256"}],"anonymous":false},{"type":"event","name":"Withdraw","inputs":[{"name":"sender","type":"address","indexed":true,"internalType":"address"},{"name":"receiver","type":"address","indexed":true,"internalType":"address"},{"name":"owner","type":"address","indexed":true,"internalType":"address"},{"name":"assets","type":"uint256","indexed":false,"internalType":"uint256"},{"name":"shares","type":"uint256","indexed":false,"internalType":"uint256"}],"anonymous":false},{"type":"event","name":"YieldBatchRepaid","inputs":[{"name":"totalAmount","type":"uint256","indexed":false,"internalType":"uint256"},{"name":"recipient","type":"address","indexed":true,"internalType":"address"}],"anonymous":false},{"type":"error","name":"AccessControlBadConfirmation","inputs":[]},{"type":"error","name":"AccessControlUnauthorizedAccount","inputs":[{"name":"account","type":"address","internalType":"address"},{"name":"neededRole","type":"bytes32","internalType":"bytes32"}]},{"type":"error","name":"AddressZero","inputs":[]},{"type":"error","name":"CollectionInsufficientBalance","inputs":[{"name":"collectionAddress","type":"address","internalType":"address"},{"name":"requested","type":"uint256","internalType":"uint256"},{"name":"available","type":"uint256","internalType":"uint256"}]},{"type":"error","name":"CollectionNotRegistered","inputs":[{"name":"collectionAddress","type":"address","internalType":"address"}]},{"type":"error","name":"ERC20InsufficientAllowance","inputs":[{"name":"spender","type":"address","internalType":"address"},{"name":"allowance","type":"uint256","internalType":"uint256"},{"name":"needed","type":"uint256","internalType":"uint256"}]},{"type":"error","name":"ERC20InsufficientBalance","inputs":[{"name":"sender","type":"address","internalType":"address"},{"name":"balance","type":"uint256","internalType":"uint256"},{"name":"needed","type":"uint256","internalType":"uint256"}]},{"type":"error","name":"ERC20InvalidApprover","inputs":[{"name":"approver","type":"address","internalType":"address"}]},{"type":"error","name":"ERC20InvalidReceiver","inputs":[{"name":"receiver","type":"address","internalType":"address"}]},{"type":"error","name":"ERC20InvalidSender","inputs":[{"name":"sender","type":"address","internalType":"address"}]},{"type":"error","name":"ERC20InvalidSpender","inputs":[{"name":"spender","type":"address","internalType":"address"}]},{"type":"error","name":"ERC4626ExceededMaxDeposit","inputs":[{"name":"receiver","type":"address","internalType":"address"},{"name":"assets","type":"uint256","internalType":"uint256"},{"name":"max","type":"uint256","internalType":"uint256"}]},{"type":"error","name":"ERC4626ExceededMaxMint","inputs":[{"name":"receiver","type":"address","internalType":"address"},{"name":"shares","type":"uint256","internalType":"uint256"},{"name":"max","type":"uint256","internalType":"uint256"}]},{"type":"error","name":"ERC4626ExceededMaxRedeem","inputs":[{"name":"owner","type":"address","internalType":"address"},{"name":"shares","type":"uint256","internalType":"uint256"},{"name":"max","type":"uint256","internalType":"uint256"}]},{"type":"error","name":"ERC4626ExceededMaxWithdraw","inputs":[{"name":"owner","type":"address","internalType":"address"},{"name":"assets","type":"uint256","internalType":"uint256"},{"name":"max","type":"uint256","internalType":"uint256"}]},{"type":"error","name":"EnforcedPause","inputs":[]},{"type":"error","name":"ExcessiveYieldAmount","inputs":[{"name":"collection","type":"address","internalType":"address"},{"name":"requested","type":"uint256","internalType":"uint256"},{"name":"maxAllowed","type":"uint256","internalType":"uint256"}]},{"type":"error","name":"ExpectedPause","inputs":[]},{"type":"error","name":"FunctionDisabledUse","inputs":[{"name":"functionName","type":"string","internalType":"string"}]},{"type":"error","name":"InsufficientBalanceInProtocol","inputs":[]},{"type":"error","name":"LendingManagerDepositFailed","inputs":[]},{"type":"error","name":"LendingManagerMismatch","inputs":[]},{"type":"error","name":"LendingManagerWithdrawFailed","inputs":[]},{"type":"error","name":"ReentrancyGuardReentrantCall","inputs":[]},{"type":"error","name":"SafeERC20FailedOperation","inputs":[{"name":"token","type":"address","internalType":"address"}]},{"type":"error","name":"ShareBalanceUnderflow","inputs":[]},{"type":"error","name":"Vault_InsufficientBalancePostLMWithdraw","inputs":[]}],"bytecode":{"object":"0x60c0806040523461035e57614ba6803803809161001c8285610578565b8339810160a08282031261035e576100338261059b565b60208301519092906001600160401b03811161035e57826100559183016105ca565b604082015190926001600160401b03821161035e576100759183016105ca565b9261008e60806100876060850161059b565b930161059b565b835190936001600160401b03821161047b5760035490600182811c9216801561056e575b602083101461045d5781601f849311610500575b50602090601f831160011461049a575f9261048f575b50508160011b915f199060031b1c1916176003555b83516001600160401b03811161047b57600454600181811c91168015610471575b602082101461045d57601f81116103fa575b50602094601f8211600114610397579481929394955f9261038c575b50508160011b915f199060031b1c1916176004555b61015e81610719565b9015610384575b60a052608081905260016006556001600160a01b0381168015610375576001600160a01b03831615610375576001600160a01b0384169182610214575b6101c184670de0b6b3a7640000600a556101bb81610610565b50610686565b506040516143319081610815823960805181818161089c01528181610bb901528181610e8c01528181611d3f015281816123a901528181612da101528181613b380152613d85015260a05181611dc80152f35b6040516338d52e0f60e01b8152602081600481875afa801561036a5783915f9161032a575b506001600160a01b03160361031b576101c19460075490610100600160a81b039060081b1690610100600160a81b031916176007556040519160205f81850163095ea7b360e01b8152866024870152811960448701526044865261029e606487610578565b85519082865af1903d5f5190836102fc575b5050506101a2576102ef6102f4936040519063095ea7b360e01b602083015260248201525f6044820152604481526102e9606482610578565b826107bc565b6107bc565b5f80806101a2565b9192509061031157503b15155b5f80806102b0565b6001915014610309565b630ebbc86b60e31b5f5260045ffd5b9150506020813d602011610362575b8161034660209383610578565b8101031261035e57610358839161059b565b5f610239565b5f80fd5b3d9150610339565b6040513d5f823e3d90fd5b639fabe1c160e01b5f5260045ffd5b506012610165565b015190505f80610140565b601f1982169560045f52805f20915f5b8881106103e2575083600195969798106103ca575b505050811b01600455610155565b01515f1960f88460031b161c191690555f80806103bc565b919260206001819286850151815501940192016103a7565b60045f527f8a35acfbc15ff81a39ae7d344fd709f28e8600b4aa8c65c6b64bfe7fe36bd19b601f830160051c81019160208410610453575b601f0160051c01905b8181106104485750610124565b5f815560010161043b565b9091508190610432565b634e487b7160e01b5f52602260045260245ffd5b90607f1690610112565b634e487b7160e01b5f52604160045260245ffd5b015190505f806100dc565b60035f9081528281209350601f198516905b8181106104e857509084600195949392106104d0575b505050811b016003556100f1565b01515f1960f88460031b161c191690555f80806104c2565b929360206001819287860151815501950193016104ac565b60035f529091507fc2575a0e9e593c00f959f8c92f12db2869c3395a3b0502d05e2516446f71f85b601f840160051c81019160208510610564575b90601f859493920160051c01905b81811061055657506100c6565b5f8155849350600101610549565b909150819061053b565b91607f16916100b2565b601f909101601f19168101906001600160401b0382119082101761047b57604052565b51906001600160a01b038216820361035e57565b6001600160401b03811161047b57601f01601f191660200190565b81601f8201121561035e578051906105e1826105af565b926105ef6040519485610578565b8284526020838301011161035e57815f9260208093018386015e8301015290565b6001600160a01b0381165f9081525f516020614b865f395f51905f52602052604090205460ff16610681576001600160a01b03165f8181525f516020614b865f395f51905f5260205260408120805460ff191660011790553391905f516020614b465f395f51905f528180a4600190565b505f90565b6001600160a01b0381165f9081525f516020614b665f395f51905f52602052604090205460ff16610681576001600160a01b03165f8181525f516020614b665f395f51905f5260205260408120805460ff191660011790553391907fa49807205ce4d355092ef5a8a18f56e8913cf4a201fbe287825b095693c21775905f516020614b465f395f51905f529080a4600190565b5f8091604051602081019063313ce56760e01b82526004815261073d602482610578565b51916001600160a01b03165afa3d156107b4573d9061075b826105af565b916107696040519384610578565b82523d5f602084013e5b806107a8575b610785575b505f905f90565b60208180518101031261035e576020015160ff811161077e579060ff6001921690565b50602081511015610779565b606090610773565b905f602091828151910182855af11561036a575f513d61080b57506001600160a01b0381163b155b6107eb5750565b635274afe760e01b5f9081526001600160a01b0391909116600452602490fd5b600114156107e456fe6080806040526004361015610012575f80fd5b5f905f3560e01c908163017c3e60146121a55750806301e1d1141461218b57806301ffc9a71461213557806306fdde031461204157806307a2d13a1461194a578063095ea7b314611f995780630a28a47714611f7b578063105804b114611ef257806318160ddd14611ed55780631e62a02d14611e9a57806323b872dd14611e78578063248a9ca314611e4d5780632f2ff15d14611e0f578063313ce56714611db457806336568abe14611d6e57806338d52e0f14611d2a5780633f4ba83a14611cc4578063402d267d14610d2e57806343add2e614611c3f57806344061d9014611b50578063476f48401461194f5780634cdad5061461194a57806354d703bd146119275780635780b963146118e95780635c975abb146118c65780636aebd9731461189c5780636cc8427d146118525780636e553f65146117fa57806370a08231146109f157806375b238fc146117bf5780638456cb591461176457806384f1bc62146116705780638f6fbf091461157657806391d148541461152c57806394bf804d146114d757806395d89b41146113ce57806396a86a0c146113a65780639bfdf2f7146113165780639e3b77af146112e9578063a217fddf146112cd578063a29be14a14611270578063a40589f81461124c578063a9059cbb1461122c578063af44c25514611193578063b3d7f6b91461120d578063b460af94146111bd578063b777451c14611193578063b839eaf814610dc3578063b94305aa14610d81578063ba08765214610d33578063c63d75b614610d2e578063c6e6f59214610693578063c869d0ed14610b16578063ce96cb7714610add578063d4d59edb14610a7a578063d547741f14610a32578063d905777e146109f1578063da7210761461080b578063dd62ed3e146107b8578063e2d2bfe31461078f578063e5890f2014610698578063ef8b30f714610693578063f30bd63f146103a25763fbc0d706146102de575f80fd5b3461039f578060031936011261039f5780600b548290600b545b81831061030e5760208461ffff60405191168152f35b9091928184101561038b577f0175b7a638427703f0dbe7bb9bbf987a2551717b34e79f33b5b1008d1fa01db9840154600386901b1c6001600160a01b031685526009602052604085206004015461ffff91821690821601908111610377579260010191906102f8565b634e487b7160e01b85526011600452602485fd5b634e487b7160e01b85526032600452602485fd5b80fd5b503461039f57602036600319011261039f576004356103bf6137e9565b6103c7613809565b6103cf61357d565b6008546001600160a01b031690811561063f5780156105df576103f06128a7565b81116105745760405163a29a839f60e01b815291602083600481845afa928315610569578493610531575b5082156104d2578084913b156104ce57604051633c172a4560e21b8152306004820152602481018490529082908290604490829084905af180156104c3576104aa575b507f0e5c870408c6d8d0c00d7196a26cb06543f82789b6957194b02bdff50684d8b7918360209252600d825260408520610499828254612381565b9055604051908152a2600160065580f35b816104b49161235f565b6104bf57825f61045e565b8280fd5b6040513d84823e3d90fd5b5080fd5b60405162461bcd60e51b815260206004820152603160248201527f436f6c6c656374696f6e735661756c743a204e6f206163746976652065706f63604482015270341034b71022b837b1b426b0b730b3b2b960791b6064820152608490fd5b9092506020813d602011610561575b8161054d6020938361235f565b8101031261055d5751915f61041b565b5f80fd5b3d9150610540565b6040513d86823e3d90fd5b60405162461bcd60e51b815260206004820152603b60248201527f436f6c6c656374696f6e735661756c743a20416c6c6f636174696f6e20616d6f60448201527f756e74206578636565647320617661696c61626c65207969656c6400000000006064820152608490fd5b60405162461bcd60e51b815260206004820152603260248201527f436f6c6c656374696f6e735661756c743a20416c6c6f636174696f6e20616d6f604482015271756e742063616e6e6f74206265207a65726f60701b6064820152608490fd5b60405162461bcd60e51b815260206004820152602660248201527f436f6c6c656374696f6e735661756c743a2045706f63684d616e61676572206e6044820152651bdd081cd95d60d21b6064820152608490fd5b612311565b503461039f578060031936011261039f576106b161357d565b6106b9613809565b6106c16137e9565b6106c9613824565b60405180816020600b549283815201600b85527f0175b7a638427703f0dbe7bb9bbf987a2551717b34e79f33b5b1008d1fa01db992855b81811061076d5750506107159250038261235f565b8051825b8181106107295783600160065580f35b825181101561075957600581901b83016020015160019190610753906001600160a01b03166139eb565b01610719565b634e487b7160e01b84526032600452602484fd5b84546001600160a01b0316835260019485019486945060209093019201610700565b503461039f578060031936011261039f576008546040516001600160a01b039091168152602090f35b503461039f57604036600319011261039f5760406107d4612207565b916107dd61221d565b9260018060a01b031681526001602052209060018060a01b03165f52602052602060405f2054604051908152f35b503461039f5761081a366122c3565b610826939192936137e9565b61082e613809565b610836613824565b61083f816139eb565b6001600160a01b0316808552600960205260408520600101548083116109d7578261090a9161086d82613522565b9661087783613d6a565b6001600160a01b03871696610895908990338a90036109c7576140ba565b6108c983827f00000000000000000000000000000000000000000000000000000000000000006001600160a01b031661412b565b60018060a01b031695866040518481528960208201527ffbde797d201c681b91056529119e0b02407c7bb96a4a2c75c01fc9667232c8db60403392a4612534565b8186526009602052600160408720015580855260096020526040852094600286019081549086821080156109ba575b6109ab57509560039161094e87602099612534565b90550161095c858254612534565b90556040805192835260208301859052820184905233917f7d04be3758d1ab0d8d44adf00e750a53c23ceec5e52516e2f8a99402b06ea4f79080606081015b0390a46001600655604051908152f35b63cf26439b60e01b8152600490fd5b5086600389015410610939565b6109d2823383614018565b6140ba565b606492869263ae86887160e01b8452600452602452604452fd5b503461039f57602036600319011261039f576020610a2a610a10612207565b6001600160a01b03165f9081526020819052604090205490565b604051908152f35b503461039f57604036600319011261039f57610a76600435610a5261221d565b90610a71610a6c825f526005602052600160405f20015490565b6135ec565b613765565b5080f35b503461039f57602036600319011261039f57610a94612207565b610a9c61357d565b610aa4613809565b6001600160a01b03168015610ace576bffffffffffffffffffffffff60a01b600854161760085580f35b639fabe1c160e01b8252600482fd5b503461039f57602036600319011261039f57602090610a2a906040906001600160a01b03610b09612207565b16815280845220546134f5565b503461039f57602036600319011261039f57610b30612207565b610b3861357d565b610b40613809565b6001600160a01b0381168015610d1f5760078054610100600160a81b03198116600894851b610100600160a81b031617918290556040516338d52e0f60e01b815290841c6001600160a01b03908116949192602092849260049284921c165afa908115610569578491610cd9575b506001600160a01b037f000000000000000000000000000000000000000000000000000000000000000081169116819003610cca5782610cbb575b60405160208581830163095ea7b360e01b81528560248501525f19604485015260448452610c1860648561235f565b83519082865af185513d82610c9f575b505015610c5b575b505033917fed72d72871e2bd0cdb042dca939ba7543ae2b81b0cc3cd751a82265665aadccb8480a480f35b610c9891610c9360405163095ea7b360e01b602082015285602482015287604482015260448152610c8d60648261235f565b826141c5565b6141c5565b5f80610c30565b909150610cb35750813b15155b5f80610c28565b600114610cac565b610cc58382613f6a565b610be9565b630ebbc86b60e31b8452600484fd5b90506020813d602011610d17575b81610cf46020938361235f565b81010312610d1357516001600160a01b0381168103610d13575f610bae565b8380fd5b3d9150610ce7565b639fabe1c160e01b8352600483fd5b612264565b503461039f57610d4236612289565b50506040516378c721c760e11b81526020600482015260136024820152723932b232b2b6a337b921b7b63632b1ba34b7b760691b604482015260649150fd5b503461039f57602036600319011261039f57610d9b612207565b610da361357d565b610dab613809565b6001600160a01b03811615610ace57610a7690613626565b503461039f57610dd2366122c3565b610de09493949291926137e9565b610de8613809565b610df0613824565b610df9816139eb565b6001600160a01b0316808452600960205260408420600101546002549490610e20876134f5565b938415611135575b610e3185613d6a565b6001600160a01b03861695610e4f908990338990036109c7576140ba565b82865f5160206142bc5f395f51905f5260206040518c8152a3849688148061112c575b611038575b6040516370a0823160e01b81523060048201527f00000000000000000000000000000000000000000000000000000000000000006001600160a01b031690602081602481855afa90811561102d579089918691610ff8575b5010610fe9578782610ee09261412b565b60018060a01b031694856040518881528960208201527ffbde797d201c681b91056529119e0b02407c7bb96a4a2c75c01fc9667232c8db60403392a483818111610fd157610f2d91612534565b828252600960205260016040832001555b8181526009602052604081209060028201908154908882108015610fc4575b6109ab57509660037f7d04be3758d1ab0d8d44adf00e750a53c23ceec5e52516e2f8a99402b06ea4f79361099b93610f978460209c612534565b905501610fa5828254612534565b9055604080519586526020860182905285015233939081906060820190565b5088600385015410610f5d565b50508181526009602052806001604082200155610f3e565b63724da00760e01b8452600484fd5b9150506020813d602011611025575b816110146020938361235f565b8101031261055d578890515f610ecf565b3d9150611007565b6040513d87823e3d90fd5b6007546040516278744560e21b815260089190911c6001600160a01b031690602081600481855afa90811561102d5785916110fa575b5061107a575b50610e77565b83919750602090602460405180948193635eb8fa6f60e01b83523060048401525af180156110ef5783906110bb575b6110b4915085612381565b955f611074565b506020813d6020116110e7575b816110d56020938361235f565b8101031261055d576110b490516110a9565b3d91506110c8565b6040513d85823e3d90fd5b90506020813d602011611124575b816111156020938361235f565b8101031261055d57515f61106e565b3d9150611108565b50871515610e72565b8715610e285760405162461bcd60e51b815260206004820152602a60248201527f455243343632363a2072656465656d20726f756e647320646f776e20746f207a60448201526965726f2061737365747360b01b6064820152608490fd5b503461039f57602036600319011261039f5760406020916004358152600d83522054604051908152f35b503461039f576111cc36612289565b50506040516378c721c760e11b81526020600482015260156024820152743bb4ba34323930bba337b921b7b63632b1ba34b7b760591b604482015260649150fd5b503461039f57602036600319011261039f576020610a2a6004356134c7565b503461039f57604036600319011261039f57611246612207565b506124c5565b503461039f57602036600319011261039f576020610a2a61126b612207565b6133e1565b503461039f57606036600319011261039f5761128a612207565b604435916001600160a01b038316830361039f5760206112be84846112ad6137e9565b6112b5613809565b60243590613207565b60016006556040519015158152f35b503461039f578060031936011261039f57602090604051908152f35b503461039f578060031936011261039f5760075460405160089190911c6001600160a01b03168152602090f35b503461039f57604036600319011261039f57611330612207565b6024359061ffff82168092036104bf5761134861357d565b611350613809565b6001600160a01b0381169081156113975761137b9061136d613824565b61137681613932565b6139eb565b82526009602052600460408320019061ffff1982541617905580f35b639fabe1c160e01b8452600484fd5b503461039f578060031936011261039f5760206040515f5160206142dc5f395f51905f528152f35b503461039f578060031936011261039f576040519080600454908160011c916001811680156114cd575b6020841081146114b9578386529081156114925750600114611435575b611431846114258186038261235f565b604051918291826121bf565b0390f35b600481527f8a35acfbc15ff81a39ae7d344fd709f28e8600b4aa8c65c6b64bfe7fe36bd19b939250905b8082106114785750909150810160200161142582611415565b91926001816020925483858801015201910190929161145f565b60ff191660208087019190915292151560051b850190920192506114259150839050611415565b634e487b7160e01b83526022600452602483fd5b92607f16926113f8565b503461039f57604036600319011261039f576114f161221d565b506040516378c721c760e11b815260206004820152601160248201527036b4b73a2337b921b7b63632b1ba34b7b760791b6044820152606490fd5b503461039f57604036600319011261039f57604061154861221d565b9160043581526005602052209060018060a01b03165f52602052602060ff60405f2054166040519015158152f35b503461039f57608036600319011261039f5760043567ffffffffffffffff81116104ce576115a8903690600401612233565b919060243567ffffffffffffffff81116104bf576115ca903690600401612233565b9060443567ffffffffffffffff811161166c576115eb903690600401612233565b9290915f5160206142dc5f395f51905f52865260056020526040862060018060a01b0333165f5260205260ff60405f2054161561164857611640959661162f613809565b6116376137e9565b60643595612d2e565b600160065580f35b63e2517d3f60e01b8652336004525f5160206142dc5f395f51905f52602452604486fd5b8480fd5b503461039f57602090604061168436612289565b61168f9391936137e9565b611697613809565b61169f613824565b6116a881613932565b6116b1816139eb565b6001600160a01b03168085526009865293209260036116cf836134c7565b946116dc84878733613af2565b6116e586613c09565b600181016116f4878254612381565b905560028101611705858254612381565b905501611713838254612381565b90556040805185815260208101849052908101929092526001600160a01b039092169133917fe619f47e82caeee4ee7f64588a6c7eca209f646fce7a915293151653db58442e90806060810161099b565b503461039f578060031936011261039f5761177d61357d565b611785613809565b600160ff1960075416176007557f62e78cea01bee320cd4e420270b5ea74000d11b0c9f74754ebdbfc544b05a2586020604051338152a180f35b503461039f578060031936011261039f5760206040517fa49807205ce4d355092ef5a8a18f56e8913cf4a201fbe287825b095693c217758152f35b503461039f57604036600319011261039f5761181461221d565b506040516378c721c760e11b81526020600482015260146024820152733232b837b9b4ba2337b921b7b63632b1ba34b7b760611b6044820152606490fd5b503461039f57604036600319011261039f57604061186e61221d565b916004358152600e602052209060018060a01b03165f52602052602060ff60405f2054166040519015158152f35b503461039f57602036600319011261039f5760043590811515820361039f576020610a2a83612ad4565b503461039f578060031936011261039f57602060ff600754166040519015158152f35b503461039f57604036600319011261039f57611640611906612207565b61190e6137e9565b611916613809565b61191e61357d565b60243590612541565b503461039f578060031936011261039f576020604051670de0b6b3a76400008152f35b6121e9565b503461055d57602036600319011261055d5760043561196c6137e9565b611974613809565b61197c61357d565b6008546001600160a01b0316801561063f5760405163a29a839f60e01b8152602081600481855afa908115611a5b575f91611b1e575b508214801590611b16575b611ac7576119c96128a7565b908115611a6657803b1561055d57604051633c172a4560e21b815230600482015260248101839052905f908290604490829084905af18015611a5b57611a45575b5060207f0e5c870408c6d8d0c00d7196a26cb06543f82789b6957194b02bdff50684d8b791838552600d825260408520610499828254612381565b611a529193505f9061235f565b5f916020611a0a565b6040513d5f823e3d90fd5b60405162461bcd60e51b815260206004820152603360248201527f436f6c6c656374696f6e735661756c743a204e6f207969656c6420617661696c60448201527230b13632903337b91030b63637b1b0ba34b7b760691b6064820152608490fd5b60405162461bcd60e51b815260206004820152602160248201527f436f6c6c656374696f6e735661756c743a20496e76616c69642065706f6368496044820152601960fa1b6064820152608490fd5b5081156119bd565b90506020813d602011611b48575b81611b396020938361235f565b8101031261055d57515f6119b2565b3d9150611b2c565b3461055d576020611b6036612289565b611b686137e9565b611b70613809565b611b78613824565b611b8181613932565b611b8a816139eb565b6001600160a01b03165f818152600985526040902092906003611bac83613550565b94611bb986858733613af2565b611bc284613c09565b60018101611bd1858254612381565b905560028101611be2878254612381565b905501611bf0858254612381565b9055604080519283526020830185905282018490526001600160a01b039092169133917fe619f47e82caeee4ee7f64588a6c7eca209f646fce7a915293151653db58442e90806060810161099b565b3461055d57602036600319011261055d576001600160a01b03611c60612207565b165f52600960205260e060405f2060018060a01b03815416906001810154906002810154600382015461ffff600484015416916006600585015494015494604051968752602087015260408601526060850152608084015260a083015260c0820152f35b3461055d575f36600319011261055d57611cdc61357d565b60075460ff811615611d1b5760ff19166007557f5db9ee0a495bf2e6ff9c91a7834c1ba4fdd244a5e8aa4e537bd38aeae4b073aa6020604051338152a1005b638dfc202b60e01b5f5260045ffd5b3461055d575f36600319011261055d576040517f00000000000000000000000000000000000000000000000000000000000000006001600160a01b03168152602090f35b3461055d57604036600319011261055d57611d8761221d565b336001600160a01b03821603611da557611da390600435613765565b005b63334bd91960e11b5f5260045ffd5b3461055d575f36600319011261055d5760ff7f00000000000000000000000000000000000000000000000000000000000000001660ff8111611dfb57602090604051908152f35b634e487b7160e01b5f52601160045260245ffd5b3461055d57604036600319011261055d57611da3600435611e2e61221d565b90611e48610a6c825f526005602052600160405f20015490565b6136df565b3461055d57602036600319011261055d576020610a2a6004355f526005602052600160405f20015490565b3461055d57606036600319011261055d57611e91612207565b5061124661221d565b3461055d57602036600319011261055d576001600160a01b03611ebb612207565b165f5260096020526020600560405f200154604051908152f35b3461055d575f36600319011261055d576020600254604051908152f35b3461055d57604036600319011261055d5760043560243567ffffffffffffffff811161055d57611f26903690600401612233565b9190611f3061357d565b5f5b838110611f3b57005b600190835f52600e60205260405f20611f5d611f5883888761248d565b6124b1565b838060a01b03165f5260205260405f2060ff19815416905501611f32565b3461055d57602036600319011261055d576020610a2a600435613522565b3461055d57604036600319011261055d57611fb2612207565b60243590331561202e576001600160a01b031690811561201b57335f52600160205260405f20825f526020528060405f20556040519081527f8c5be1e5ebec7d5bd14f71427d1e84f3dd0314c0f7b2291e5b200ac8c7c3b92560203392a3602060405160018152f35b634a1406b160e11b5f525f60045260245ffd5b63e602df0560e01b5f525f60045260245ffd5b3461055d575f36600319011261055d576040515f6003548060011c9060018116801561212b575b602083108114612117578285529081156120f35750600114612095575b611431836114258185038261235f565b91905060035f527fc2575a0e9e593c00f959f8c92f12db2869c3395a3b0502d05e2516446f71f85b915f905b8082106120d957509091508101602001611425612085565b9192600181602092548385880101520191019092916120c1565b60ff191660208086019190915291151560051b840190910191506114259050612085565b634e487b7160e01b5f52602260045260245ffd5b91607f1691612068565b3461055d57602036600319011261055d5760043563ffffffff60e01b811680910361055d57602090637965db0b60e01b811490811561217a575b506040519015158152f35b6301ffc9a760e01b1490508261216f565b3461055d575f36600319011261055d576020610a2a61238e565b3461055d575f36600319011261055d57602090600a548152f35b602060409281835280519182918282860152018484015e5f828201840152601f01601f1916010190565b3461055d57602036600319011261055d576020610a2a6004356134f5565b600435906001600160a01b038216820361055d57565b602435906001600160a01b038216820361055d57565b9181601f8401121561055d5782359167ffffffffffffffff831161055d576020808501948460051b01011161055d57565b3461055d57602036600319011261055d5761227d612207565b5060206040515f198152f35b606090600319011261055d57600435906024356001600160a01b038116810361055d57906044356001600160a01b038116810361055d5790565b608090600319011261055d57600435906024356001600160a01b038116810361055d57906044356001600160a01b038116810361055d57906064356001600160a01b038116810361055d5790565b3461055d57602036600319011261055d576020610a2a600435613550565b60e0810190811067ffffffffffffffff82111761234b57604052565b634e487b7160e01b5f52604160045260245ffd5b90601f8019910116810190811067ffffffffffffffff82111761234b57604052565b91908201809211611dfb57565b6040516370a0823160e01b81523060048201526020816024817f00000000000000000000000000000000000000000000000000000000000000006001600160a01b03165afa8015611a5b575f9061245a575b6007546040516278744560e21b815292506020908390600490829060081c6001600160a01b03165afa908115611a5b575f91612424575b6124219250612381565b90565b90506020823d602011612452575b8161243f6020938361235f565b8101031261055d57612421915190612417565b3d9150612432565b506020813d602011612485575b816124746020938361235f565b8101031261055d57600490516123e0565b3d9150612467565b919081101561249d5760051b0190565b634e487b7160e01b5f52603260045260245ffd5b356001600160a01b038116810361055d5790565b6040516378c721c760e11b81526020600482015260156024820152743a3930b739b332b92337b921b7b63632b1ba34b7b760591b6044820152606490fd5b81810292918115918404141715611dfb57565b8115612520570490565b634e487b7160e01b5f52601260045260245ffd5b91908203918211611dfb57565b6008549091906001600160a01b03161561063f576001600160a01b03821691821561289857825f52600c60205260ff60405f2054161561283f57815f52600e60205260405f20835f5260205260ff60405f2054166127c657815f52600d60205260405f2054908115612748576125b990611376613824565b825f52600960205260405f2090600482019061ffff825416156126e9576125e96127109161ffff84541690612503565b0491835f52600d60205260405f205483116126955782600161ffff6060947f22b754fbff211f5e23ae31958825e104905fb1b8de65180b45d0b93342a8c3d196612667575b875f52600e60205260405f20895f5260205260405f208360ff1982541617905554169201549060405192835260208301526040820152a3565b828501612675858254612381565b9055875f52600d60205260405f2061268e858254612534565b905561262e565b60405162461bcd60e51b815260206004820152602660248201527f436f6c6c656374696f6e735661756c743a20416c6c6f636174696f6e20756e646044820152656572666c6f7760d01b6064820152608490fd5b5050606060017f22b754fbff211f5e23ae31958825e104905fb1b8de65180b45d0b93342a8c3d192845f52600e60205260405f20865f5260205260405f208260ff198254161790550154604051905f82525f60208301526040820152a3565b5050805f52600e60205260405f20825f5260205260405f20600160ff19825416179055815f5260096020527f22b754fbff211f5e23ae31958825e104905fb1b8de65180b45d0b93342a8c3d1606061ffff600460405f20015416845f526009602052600160405f2001546040519182525f60208301526040820152a3565b60405162461bcd60e51b815260206004820152604560248201527f436f6c6c656374696f6e735661756c743a205969656c6420616c72656164792060448201527f6170706c69656420666f72207468697320636f6c6c656374696f6e20616e64206064820152640cae0dec6d60db1b608482015260a490fd5b60405162461bcd60e51b815260206004820152602b60248201527f436f6c6c656374696f6e735661756c743a20436f6c6c656374696f6e206e6f7460448201526a081c9959da5cdd195c995960aa1b6064820152608490fd5b639fabe1c160e01b5f5260045ffd5b60075460081c6001600160a01b03168015612acf576040516278744560e21b8152602081600481855afa908115611a5b575f91612a9d575b5060405163100e176560e31b815290602082600481865afa918215611a5b575f92612a69575b501115612a62576040516278744560e21b815290602082600481845afa918215611a5b575f92612a2d575b509060206004926040519384809263100e176560e31b82525afa908115611a5b575f916129f7575b6129629250612534565b6008546001600160a01b031680156129bf5760206004916040519283809263a29a839f60e01b82525afa908115611a5b575f916129c5575b5080156129bf575f52600d60205260405f20548082115f146129bf5761242191612534565b50505f90565b90506020813d6020116129ef575b816129e06020938361235f565b8101031261055d57515f61299a565b3d91506129d3565b90506020823d602011612a25575b81612a126020938361235f565b8101031261055d57612962915190612958565b3d9150612a05565b91506020823d602011612a5a575b81612a486020938361235f565b8101031261055d579051906020612930565b3d9150612a3b565b505f612962565b9091506020813d602011612a95575b81612a856020938361235f565b8101031261055d5751905f612905565b3d9150612a78565b90506020813d602011612ac7575b81612ab86020938361235f565b8101031261055d57515f6128df565b3d9150612aab565b505f90565b60075460081c6001600160a01b031680156129bf576040516278744560e21b8152602081600481855afa908115611a5b575f91612c98575b5060405163100e176560e31b815290602082600481865afa918215611a5b575f92612c64575b501115612c5c576040516278744560e21b815290602082600481845afa918215611a5b575f92612c27575b509060206004926040519384809263100e176560e31b82525afa908115611a5b575f91612bf1575b612b8f9250612534565b905b612421576008546001600160a01b031680156129bf5760206004916040519283809263a29a839f60e01b82525afa908115611a5b575f916129c5575080156129bf575f52600d60205260405f20548082115f146129bf5761242191612534565b90506020823d602011612c1f575b81612c0c6020938361235f565b8101031261055d57612b8f915190612b85565b3d9150612bff565b91506020823d602011612c54575b81612c426020938361235f565b8101031261055d579051906020612b5d565b3d9150612c35565b505f90612b91565b9091506020813d602011612c90575b81612c806020938361235f565b8101031261055d5751905f612b32565b3d9150612c73565b90506020813d602011612cc2575b81612cb36020938361235f565b8101031261055d57515f612b0c565b3d9150612ca6565b6010545f60105580612cd95750565b60105f527f1b6847dc741a1b0cd08d278845f9d819d87b734759afb55fe2de5cb82a9ae672908101905b818110612d0e575050565b5f8155600101612d03565b805482101561249d575f5260205f2001905f90565b959493929091928185148015906131fd575b6131a757851561319e57612d52613824565b5f5b8581106131245750612d6586613d6a565b60075460405163095ea7b360e01b602080830191825260089390931c6001600160a01b039081166024840181905260448085019b909b529983527f0000000000000000000000000000000000000000000000000000000000000000169892905f90612dd160648561235f565b835190828c5af15f513d82613108575b5050156130c3575b5050612df3612cca565b5f5b8581106130195750505f956010545f905b808210612ec9575050612e17612cca565b5f5b858110612e6c57505050505050612e3e9060018060a01b0360075460081c1690613f6a565b6040519081527faf55a1278d05b25a81718352502b10bbece77cee463633323b8e92d2d5ad009560203392a2565b80612e7a600192858861248d565b3515612ec457612e8e611f5882878661248d565b612e9982868961248d565b3590838060a01b03165f526009602052612ebb600560405f2001918254612381565b90555b01612e19565b612ebe565b909760105489101561249d577f1b6847dc741a1b0cd08d278845f9d819d87b734759afb55fe2de5cb82a9ae6728901546001600160a01b039081165f818152600f602090815260408083205460075491516304c11f0360e31b81526004810186905260248101829052949e90969095909493849260449284929160081c165af1908115611a5b575f91612fe8575b50612f7d57600192612f6891612381565b995f52600f6020525f60408120550190612e06565b60405162461bcd60e51b815260206004820152603f60248201527f436f6c6c656374696f6e735661756c743a20526570617920626f72726f77206260448201527f6568616c66206661696c656420766961204c656e64696e674d616e61676572006064820152608490fd5b90506020813d8211613011575b816130026020938361235f565b8101031261055d57515f612f57565b3d9150612ff5565b61302481848761248d565b359081613036575b6001915001612df5565b6001600160a01b0361304c611f58838a8761248d565b1691825f52600f60205260405f205415613081575b6001925f52600f60205261307a60405f20918254612381565b905561302c565b60105492600160401b84101561234b576130a48460018096016010556010612d19565b81549060031b9083821b91878060a01b03901b19161790559250613061565b6130fb613101926040519063095ea7b360e01b602083015260248201525f6044820152604481526130f560648261235f565b896141c5565b876141c5565b5f80612de9565b90915061311c5750873b15155b5f80612de1565b600114613115565b61312f81848761248d565b351561319657613143611f5882868b61248d565b61314e82858861248d565b35613158826139eb565b6131628183613c97565b929015613176575050506001905b01612d54565b6335a9aa2f60e11b5f5260018060a01b031660045260245260445260645ffd5b600190613170565b50505050505050565b60405162461bcd60e51b815260206004820152602860248201527f436f6c6c656374696f6e735661756c743a204172726179206c656e67746873206044820152670dad2e6dac2e8c6d60c31b6064820152608490fd5b5082851415612d40565b6001600160a01b03169182156128985781156133d957613225613824565b61322e816139eb565b60018060a01b03811690815f52600960205260405f2090825f52600c60205260ff60405f205416156133c657613263906133e1565b8084116133ac5750331561339957335f525f60205260405f205483811061337e578390335f525f6020520360405f205583155f146133685782600254036002555b836040518481525f5160206142bc5f395f51905f5260203392a3836040518481525f5160206142bc5f395f51905f5260203392a3600181016132e7848254612534565b90556002810190815491848310801561335b575b61334c5761330b85600394612534565b905501613319838254612534565b90556040519182527f993b66b6962861213ca84e497f99b1a7f93b83156c08dd5bfadd73608596017360203393a4600190565b63cf26439b60e01b5f5260045ffd5b50846003830154106132fb565b835f525f60205260405f208381540190556132a4565b839063391434e360e21b5f523360045260245260445260645ffd5b634b637e8f60e11b5f525f60045260245ffd5b838363ae86887160e01b5f5260045260245260445260645ffd5b826358ab08b160e11b5f5260045260245ffd5b505050600190565b60018060a01b03165f52600960205260405f206040516134008161232f565b81546001600160a01b03168082526001830154602083018181526002850154604085015260038501546060850152600485015461ffff1660808501818152600587015460a087015260069096015460c0909501859052909392159081156134be575b5080156134b2575b6134ab57506134a36124219361ffff61349a61349369021e19e0c9bab240000095600a54612534565b8651612503565b91511690612503565b049051612381565b9250505090565b5081600a54111561346a565b9050155f613462565b6134cf61238e565b9060018201809211611dfb5760025460018101809111611dfb5761242192600192614167565b6134fd61238e565b9060018201809211611dfb5760025460018101809111611dfb57612421925f92614167565b6002549060018201809211611dfb5761353961238e565b60018101809111611dfb5761242192600192614167565b6002549060018201809211611dfb5761356761238e565b60018101809111611dfb57612421925f92614167565b335f9081527fd8ef4509105c3edb0b04658b4528edc5ddd30ea5a81e623a2623c88db1eb54b6602052604090205460ff16156135b557565b63e2517d3f60e01b5f52336004527fa49807205ce4d355092ef5a8a18f56e8913cf4a201fbe287825b095693c2177560245260445ffd5b5f81815260056020908152604080832033845290915290205460ff16156136105750565b63e2517d3f60e01b5f523360045260245260445ffd5b6001600160a01b0381165f9081527fa01c6dab41afbaf71f77b0ec32e349ced011741063524fbddf6b7ae0dcdc3889602052604090205460ff16612acf576001600160a01b03165f8181527fa01c6dab41afbaf71f77b0ec32e349ced011741063524fbddf6b7ae0dcdc388960205260408120805460ff191660011790553391905f5160206142dc5f395f51905f52907f2f8788117e7eff1d82e926ec794901d17c78024a50270940304540a733656f0d9080a4600190565b5f8181526005602090815260408083206001600160a01b038616845290915290205460ff166129bf575f8181526005602090815260408083206001600160a01b0395909516808452949091528120805460ff19166001179055339291907f2f8788117e7eff1d82e926ec794901d17c78024a50270940304540a733656f0d9080a4600190565b5f8181526005602090815260408083206001600160a01b038616845290915290205460ff16156129bf575f8181526005602090815260408083206001600160a01b0395909516808452949091528120805460ff19169055339291907ff6391f5c32d9c69d2a47ea670b442974b53935d1edc7fd64eb21e047a839171b9080a4600190565b6002600654146137fa576002600655565b633ee5aeb560e01b5f5260045ffd5b60ff6007541661381557565b63d93c066560e01b5f5260045ffd5b60075460081c6001600160a01b0316801561392f5760405163100e176560e31b8152602081600481855afa908115611a5b575f916138fd575b5080156138f9576020600492604051938480926278744560e21b82525afa918215611a5b575f926138c5575b50670de0b6b3a7640000820291808304670de0b6b3a76400001490151715611dfb576138b491612516565b600a5481116138c05750565b600a55565b9091506020813d6020116138f1575b816138e16020938361235f565b8101031261055d5751905f613889565b3d91506138d4565b5050565b90506020813d602011613927575b816139186020938361235f565b8101031261055d57515f61385d565b3d915061390b565b50565b6001600160a01b03165f818152600c602052604090205460ff16156139545750565b805f52600c60205260405f20600160ff19825416179055600b54600160401b81101561234b5780600161398c9201600b55600b612d19565b81546001600160a01b0360039290921b82811b199091169084901b179091555f8281526009602052604090208054909116156139c6575050565b80546001600160a01b03191690911781556006018054156139e45750565b600a549055565b60018060a01b0316805f52600960205260405f2090805f52600c60205260ff60405f205416158015613ae0575b6138f95761ffff6004830154168015613ad45760068301928354600a54818111613a49575b5050505050600a549055565b613a776001613a638469021e19e0c9bab240000094612534565b940194613a7286549586612503565b612503565b04908115613a3d577fe7d7ea8aa11ec2e18d67e00de2b5dce7b65f8a032d8496015263d4217582e7c393613aad83608095612381565b809155600a5490604051938452602084015260408301526060820152a25f80808080613a3d565b50506006600a54910155565b5081546001600160a01b031615613a18565b6040516323b872dd60e01b60208201526001600160a01b039091166024820181905230604483015260648083018590528252929190613b6590613b3660848261235f565b7f00000000000000000000000000000000000000000000000000000000000000006001600160a01b03166141c5565b6001600160a01b0316928315613bde577fdcbc1c05240f31ff3ad067ef1ee35ce4997762752e3a095284754544f4c709d79181613ba6604093600254612381565b600255855f525f602052825f20818154019055855f5f5160206142bc5f395f51905f5260208651858152a382519182526020820152a3565b63ec442f0560e01b5f525f60045260245ffd5b9081602091031261055d5751801515810361055d5790565b80613c115750565b60075460405163690c42c160e11b81526004810192909252602090829060249082905f9060081c6001600160a01b03165af1908115611a5b575f91613c68575b5015613c5957565b63d8449a5960e01b5f5260045ffd5b613c8a915060203d602011613c90575b613c82818361235f565b810190613bf1565b5f613c51565b503d613c78565b91909160018060a01b0381165f52600960205260405f209060405190613cbc8261232f565b60018060a01b03835416825260018301549160208101928352600284015460408201526003840154606082015261ffff6004850154169081608082015260c0600660058701549660a08401978852015491015215613d6057613d1d906133e1565b905180821115613d5757613d3091612534565b905b5180821115613d4d57613d4491612534565b80925b11159190565b50505f8092613d47565b50505f90613d32565b5050509015905f90565b801561392f576040516370a0823160e01b81523060048201527f00000000000000000000000000000000000000000000000000000000000000006001600160a01b031690602081602481855afa908115611a5b575f91613f38575b50828110613dd257505050565b613ddc9083612534565b6007546040516278744560e21b815260089190911c6001600160a01b03169190602081600481865afa908115611a5b575f91613f06575b50811115613e22575b50505050565b8015613e1c575f916024602092604051948593849263684a169760e11b845260048401525af1908115611a5b575f91613ee7575b5015613ed8576020602491604051928380926370a0823160e01b82523060048301525afa908115611a5b575f91613ea6575b5010613e97575f808080613e1c565b63724da00760e01b5f5260045ffd5b90506020813d602011613ed0575b81613ec16020938361235f565b8101031261055d57515f613e88565b3d9150613eb4565b638b78daf760e01b5f5260045ffd5b613f00915060203d602011613c9057613c82818361235f565b5f613e56565b90506020813d602011613f30575b81613f216020938361235f565b8101031261055d57515f613e13565b3d9150613f14565b90506020813d602011613f62575b81613f536020938361235f565b8101031261055d57515f613dc5565b3d9150613f46565b6040519060205f8184019463095ea7b360e01b865260018060a01b03169485602486015281604486015260448552613fa360648661235f565b84519082855af15f513d82613ff3575b505015613fbf57505050565b610c93613ff1936040519063095ea7b360e01b602083015260248201525f604482015260448152610c8d60648261235f565b565b90915061401057506001600160a01b0381163b15155b5f80613fb3565b600114614009565b6001600160a01b039081165f818152600160209081526040808320948616835293905291909120549291905f1984106140515750505050565b82841061409757801561202e576001600160a01b0382161561201b575f52600160205260405f209060018060a01b03165f5260205260405f20910390555f808080613e1c565b508290637dc7a0d960e11b5f5260018060a01b031660045260245260445260645ffd5b9091906001600160a01b0316801561339957805f525f60205260405f2054838110614111576020845f94955f5160206142bc5f395f51905f52938587528684520360408620558060025403600255604051908152a3565b915063391434e360e21b5f5260045260245260445260645ffd5b60405163a9059cbb60e01b60208201526001600160a01b03929092166024830152604480830193909352918152613ff191610c9360648361235f565b929161417481838661421d565b9260048110156141b157600180911614918261419a575b50506124219250151590612381565b908092501561252057612421930915155f8061418b565b634e487b7160e01b5f52602160045260245ffd5b905f602091828151910182855af115611a5b575f513d61421457506001600160a01b0381163b155b6141f45750565b635274afe760e01b5f9081526001600160a01b0391909116600452602490fd5b600114156141ed565b90915f1983830992808302928380861095039480860395146142ae57848311156142965790829109815f0382168092046002816003021880820260020302808202600203028082026002030280820260020302808202600203028091026002030293600183805f03040190848311900302920304170290565b82634e487b715f52156003026011186020526024601cfd5b505090612421925061251656feddf252ad1be2c89b69c2b068fc378daa952ba7f163c4a11628f55a4df523b3efbcdd9bf55569a395cd79025821af7c971a1601b69479f021adc1b67f548673f3a26469706673582212202ba3f9ef9e25a3057ad359028825db6a32778a435883c04380c145d650247d8264736f6c634300081e00332f8788117e7eff1d82e926ec794901d17c78024a50270940304540a733656f0dd8ef4509105c3edb0b04658b4528edc5ddd30ea5a81e623a2623c88db1eb54b605b8ccbb9d4d8fb16ea74ce3c29a41f1b461fbdaff4714a0d9a8eb05499746bc","linkReferences":{}},"methodIdentifiers":{"ADMIN_ROLE()":"75b238fc","DEBT_SUBSIDIZER_ROLE()":"96a86a0c","DEFAULT_ADMIN_ROLE()":"a217fddf","GLOBAL_DEPOSIT_INDEX_PRECISION()":"54d703bd","allocateEpochYield(uint256)":"f30bd63f","allocateYieldToEpoch(uint256)":"476f4840","allowance(address,address)":"dd62ed3e","applyCollectionYieldForEpoch(address,uint256)":"5780b963","approve(address,uint256)":"095ea7b3","asset()":"38d52e0f","balanceOf(address)":"70a08231","collectionTotalAssetsDeposited(address)":"a40589f8","collectionYieldTransferred(address)":"1e62a02d","collections(address)":"43add2e6","convertToAssets(uint256)":"07a2d13a","convertToShares(uint256)":"c6e6f592","decimals()":"313ce567","deposit(uint256,address)":"6e553f65","depositForCollection(uint256,address,address)":"44061d90","epochCollectionYieldApplied(uint256,address)":"6cc8427d","epochManager()":"e2d2bfe3","epochYieldAllocations(uint256)":"af44c255","getCurrentEpochYield(bool)":"6aebd973","getEpochYieldAllocated(uint256)":"b777451c","getRoleAdmin(bytes32)":"248a9ca3","globalDepositIndex()":"017c3e60","grantRole(bytes32,address)":"2f2ff15d","hasRole(bytes32,address)":"91d14854","indexCollectionsDeposits()":"e5890f20","lendingManager()":"9e3b77af","maxDeposit(address)":"402d267d","maxMint(address)":"c63d75b6","maxRedeem(address)":"d905777e","maxWithdraw(address)":"ce96cb77","mint(uint256,address)":"94bf804d","mintForCollection(uint256,address,address)":"84f1bc62","name()":"06fdde03","pause()":"8456cb59","paused()":"5c975abb","previewDeposit(uint256)":"ef8b30f7","previewMint(uint256)":"b3d7f6b9","previewRedeem(uint256)":"4cdad506","previewWithdraw(uint256)":"0a28a477","redeem(uint256,address,address)":"ba087652","redeemForCollection(uint256,address,address,address)":"b839eaf8","renounceRole(bytes32,address)":"36568abe","repayBorrowBehalfBatch(address[],uint256[],address[],uint256)":"8f6fbf09","resetEpochCollectionYieldFlags(uint256,address[])":"105804b1","revokeRole(bytes32,address)":"d547741f","setCollectionYieldSharePercentage(address,uint16)":"9bfdf2f7","setDebtSubsidizer(address)":"b94305aa","setEpochManager(address)":"d4d59edb","setLendingManager(address)":"c869d0ed","supportsInterface(bytes4)":"01ffc9a7","symbol()":"95d89b41","totalAssets()":"01e1d114","totalCollectionYieldShareBps()":"fbc0d706","totalSupply()":"18160ddd","transfer(address,uint256)":"a9059cbb","transferForCollection(address,uint256,address)":"a29be14a","transferFrom(address,address,uint256)":"23b872dd","unpause()":"3f4ba83a","withdraw(uint256,address,address)":"b460af94","withdrawForCollection(uint256,address,address,address)":"da721076"},"id":34}