{"abi":[{"type":"function","name":"cTokenBalances","inputs":[{"name":"cToken","type":"address","internalType":"contract CToken"},{"name":"account","type":"address","internalType":"address payable"}],"outputs":[{"name":"","type":"tuple","internalType":"struct CompoundLens.CTokenBalances","components":[{"name":"cToken","type":"address","internalType":"address"},{"name":"balanceOf","type":"uint256","internalType":"uint256"},{"name":"borrowBalanceCurrent","type":"uint256","internalType":"uint256"},{"name":"balanceOfUnderlying","type":"uint256","internalType":"uint256"},{"name":"tokenBalance","type":"uint256","internalType":"uint256"},{"name":"tokenAllowance","type":"uint256","internalType":"uint256"}]}],"stateMutability":"nonpayable"},{"type":"function","name":"cTokenBalancesAll","inputs":[{"name":"cTokens","type":"address[]","internalType":"contract CToken[]"},{"name":"account","type":"address","internalType":"address payable"}],"outputs":[{"name":"","type":"tuple[]","internalType":"struct CompoundLens.CTokenBalances[]","components":[{"name":"cToken","type":"address","internalType":"address"},{"name":"balanceOf","type":"uint256","internalType":"uint256"},{"name":"borrowBalanceCurrent","type":"uint256","internalType":"uint256"},{"name":"balanceOfUnderlying","type":"uint256","internalType":"uint256"},{"name":"tokenBalance","type":"uint256","internalType":"uint256"},{"name":"tokenAllowance","type":"uint256","internalType":"uint256"}]}],"stateMutability":"nonpayable"},{"type":"function","name":"cTokenMetadata","inputs":[{"name":"cToken","type":"address","internalType":"contract CToken"}],"outputs":[{"name":"","type":"tuple","internalType":"struct CompoundLens.CTokenMetadata","components":[{"name":"cToken","type":"address","internalType":"address"},{"name":"exchangeRateCurrent","type":"uint256","internalType":"uint256"},{"name":"supplyRatePerBlock","type":"uint256","internalType":"uint256"},{"name":"borrowRatePerBlock","type":"uint256","internalType":"uint256"},{"name":"reserveFactorMantissa","type":"uint256","internalType":"uint256"},{"name":"totalBorrows","type":"uint256","internalType":"uint256"},{"name":"totalReserves","type":"uint256","internalType":"uint256"},{"name":"totalSupply","type":"uint256","internalType":"uint256"},{"name":"totalCash","type":"uint256","internalType":"uint256"},{"name":"isListed","type":"bool","internalType":"bool"},{"name":"collateralFactorMantissa","type":"uint256","internalType":"uint256"},{"name":"underlyingAssetAddress","type":"address","internalType":"address"},{"name":"cTokenDecimals","type":"uint256","internalType":"uint256"},{"name":"underlyingDecimals","type":"uint256","internalType":"uint256"},{"name":"compSupplySpeed","type":"uint256","internalType":"uint256"},{"name":"compBorrowSpeed","type":"uint256","internalType":"uint256"},{"name":"borrowCap","type":"uint256","internalType":"uint256"}]}],"stateMutability":"nonpayable"},{"type":"function","name":"cTokenMetadataAll","inputs":[{"name":"cTokens","type":"address[]","internalType":"contract CToken[]"}],"outputs":[{"name":"","type":"tuple[]","internalType":"struct CompoundLens.CTokenMetadata[]","components":[{"name":"cToken","type":"address","internalType":"address"},{"name":"exchangeRateCurrent","type":"uint256","internalType":"uint256"},{"name":"supplyRatePerBlock","type":"uint256","internalType":"uint256"},{"name":"borrowRatePerBlock","type":"uint256","internalType":"uint256"},{"name":"reserveFactorMantissa","type":"uint256","internalType":"uint256"},{"name":"totalBorrows","type":"uint256","internalType":"uint256"},{"name":"totalReserves","type":"uint256","internalType":"uint256"},{"name":"totalSupply","type":"uint256","internalType":"uint256"},{"name":"totalCash","type":"uint256","internalType":"uint256"},{"name":"isListed","type":"bool","internalType":"bool"},{"name":"collateralFactorMantissa","type":"uint256","internalType":"uint256"},{"name":"underlyingAssetAddress","type":"address","internalType":"address"},{"name":"cTokenDecimals","type":"uint256","internalType":"uint256"},{"name":"underlyingDecimals","type":"uint256","internalType":"uint256"},{"name":"compSupplySpeed","type":"uint256","internalType":"uint256"},{"name":"compBorrowSpeed","type":"uint256","internalType":"uint256"},{"name":"borrowCap","type":"uint256","internalType":"uint256"}]}],"stateMutability":"nonpayable"},{"type":"function","name":"cTokenUnderlyingPrice","inputs":[{"name":"cToken","type":"address","internalType":"contract CToken"}],"outputs":[{"name":"","type":"tuple","internalType":"struct CompoundLens.CTokenUnderlyingPrice","components":[{"name":"cToken","type":"address","internalType":"address"},{"name":"underlyingPrice","type":"uint256","internalType":"uint256"}]}],"stateMutability":"nonpayable"},{"type":"function","name":"cTokenUnderlyingPriceAll","inputs":[{"name":"cTokens","type":"address[]","internalType":"contract CToken[]"}],"outputs":[{"name":"","type":"tuple[]","internalType":"struct CompoundLens.CTokenUnderlyingPrice[]","components":[{"name":"cToken","type":"address","internalType":"address"},{"name":"underlyingPrice","type":"uint256","internalType":"uint256"}]}],"stateMutability":"nonpayable"},{"type":"function","name":"getAccountLimits","inputs":[{"name":"comptroller","type":"address","internalType":"contract ComptrollerLensInterface"},{"name":"account","type":"address","internalType":"address"}],"outputs":[{"name":"","type":"tuple","internalType":"struct CompoundLens.AccountLimits","components":[{"name":"markets","type":"address[]","internalType":"contract CToken[]"},{"name":"liquidity","type":"uint256","internalType":"uint256"},{"name":"shortfall","type":"uint256","internalType":"uint256"}]}],"stateMutability":"nonpayable"},{"type":"function","name":"getCompBalanceMetadata","inputs":[{"name":"comp","type":"address","internalType":"contract Comp"},{"name":"account","type":"address","internalType":"address"}],"outputs":[{"name":"","type":"tuple","internalType":"struct CompoundLens.CompBalanceMetadata","components":[{"name":"balance","type":"uint256","internalType":"uint256"},{"name":"votes","type":"uint256","internalType":"uint256"},{"name":"delegate","type":"address","internalType":"address"}]}],"stateMutability":"view"},{"type":"function","name":"getCompBalanceMetadataExt","inputs":[{"name":"comp","type":"address","internalType":"contract Comp"},{"name":"comptroller","type":"address","internalType":"contract ComptrollerLensInterface"},{"name":"account","type":"address","internalType":"address"}],"outputs":[{"name":"","type":"tuple","internalType":"struct CompoundLens.CompBalanceMetadataExt","components":[{"name":"balance","type":"uint256","internalType":"uint256"},{"name":"votes","type":"uint256","internalType":"uint256"},{"name":"delegate","type":"address","internalType":"address"},{"name":"allocated","type":"uint256","internalType":"uint256"}]}],"stateMutability":"nonpayable"},{"type":"function","name":"getCompVotes","inputs":[{"name":"comp","type":"address","internalType":"contract Comp"},{"name":"account","type":"address","internalType":"address"},{"name":"blockNumbers","type":"uint32[]","internalType":"uint32[]"}],"outputs":[{"name":"","type":"tuple[]","internalType":"struct CompoundLens.CompVotes[]","components":[{"name":"blockNumber","type":"uint256","internalType":"uint256"},{"name":"votes","type":"uint256","internalType":"uint256"}]}],"stateMutability":"view"},{"type":"function","name":"getGovBravoProposals","inputs":[{"name":"governor","type":"address","internalType":"contract GovernorBravoInterface"},{"name":"proposalIds","type":"uint256[]","internalType":"uint256[]"}],"outputs":[{"name":"","type":"tuple[]","internalType":"struct CompoundLens.GovBravoProposal[]","components":[{"name":"proposalId","type":"uint256","internalType":"uint256"},{"name":"proposer","type":"address","internalType":"address"},{"name":"eta","type":"uint256","internalType":"uint256"},{"name":"targets","type":"address[]","internalType":"address[]"},{"name":"values","type":"uint256[]","internalType":"uint256[]"},{"name":"signatures","type":"string[]","internalType":"string[]"},{"name":"calldatas","type":"bytes[]","internalType":"bytes[]"},{"name":"startBlock","type":"uint256","internalType":"uint256"},{"name":"endBlock","type":"uint256","internalType":"uint256"},{"name":"forVotes","type":"uint256","internalType":"uint256"},{"name":"againstVotes","type":"uint256","internalType":"uint256"},{"name":"abstainVotes","type":"uint256","internalType":"uint256"},{"name":"canceled","type":"bool","internalType":"bool"},{"name":"executed","type":"bool","internalType":"bool"}]}],"stateMutability":"view"},{"type":"function","name":"getGovBravoReceipts","inputs":[{"name":"governor","type":"address","internalType":"contract GovernorBravoInterface"},{"name":"voter","type":"address","internalType":"address"},{"name":"proposalIds","type":"uint256[]","internalType":"uint256[]"}],"outputs":[{"name":"","type":"tuple[]","internalType":"struct CompoundLens.GovBravoReceipt[]","components":[{"name":"proposalId","type":"uint256","internalType":"uint256"},{"name":"hasVoted","type":"bool","internalType":"bool"},{"name":"support","type":"uint8","internalType":"uint8"},{"name":"votes","type":"uint96","internalType":"uint96"}]}],"stateMutability":"view"},{"type":"function","name":"getGovProposals","inputs":[{"name":"governor","type":"address","internalType":"contract GovernorAlpha"},{"name":"proposalIds","type":"uint256[]","internalType":"uint256[]"}],"outputs":[{"name":"","type":"tuple[]","internalType":"struct CompoundLens.GovProposal[]","components":[{"name":"proposalId","type":"uint256","internalType":"uint256"},{"name":"proposer","type":"address","internalType":"address"},{"name":"eta","type":"uint256","internalType":"uint256"},{"name":"targets","type":"address[]","internalType":"address[]"},{"name":"values","type":"uint256[]","internalType":"uint256[]"},{"name":"signatures","type":"string[]","internalType":"string[]"},{"name":"calldatas","type":"bytes[]","internalType":"bytes[]"},{"name":"startBlock","type":"uint256","internalType":"uint256"},{"name":"endBlock","type":"uint256","internalType":"uint256"},{"name":"forVotes","type":"uint256","internalType":"uint256"},{"name":"againstVotes","type":"uint256","internalType":"uint256"},{"name":"canceled","type":"bool","internalType":"bool"},{"name":"executed","type":"bool","internalType":"bool"}]}],"stateMutability":"view"},{"type":"function","name":"getGovReceipts","inputs":[{"name":"governor","type":"address","internalType":"contract GovernorAlpha"},{"name":"voter","type":"address","internalType":"address"},{"name":"proposalIds","type":"uint256[]","internalType":"uint256[]"}],"outputs":[{"name":"","type":"tuple[]","internalType":"struct CompoundLens.GovReceipt[]","components":[{"name":"proposalId","type":"uint256","internalType":"uint256"},{"name":"hasVoted","type":"bool","internalType":"bool"},{"name":"support","type":"bool","internalType":"bool"},{"name":"votes","type":"uint96","internalType":"uint96"}]}],"stateMutability":"view"}],"bytecode":{"object":"0x60808060405234601557613214908161001a8239f35b5f80fdfe60e06040526004361015610011575f80fd5b5f5f3560e01c80630972bf8b14611a83578063158eca8b14611a575780631ea63741146116a45780632b2d5ed614611589578063416405d71461139357806343c811cc1461118f5780634b70d84b1461107f5780635956421914610e9157806375d80e9014610a1e5780637dd8f6d9146107ed57806396994869146103be578063995ed99f1461016c578063bdf950c9146100f95763c5ae5934146100b4575f80fd5b346100f65760203660031901126100f65760406100d76100d2611c13565b612ffc565b815181516001600160a01b03168152602091820151918101919091525bf35b80fd5b50346100f65760403660031901126100f65760c0610126610118611c13565b610120611bfd565b90612d28565b6100f4604051809260a08091600180831b038151168452602081015160208501526040810151604085015260608101516060850152608081015160808501520151910152565b50346100f65760603660031901126100f657610186611c13565b61018e611bfd565b906044356001600160401b0381116103ba57916101b084933690600401611dfd565b8051916101bc83611de6565b936101ca6040519586611dc5565b838552601f196101d985611de6565b01865b81811061039d5750506001600160a01b0316855b84811061026b578587604051918291602083016020845282518091526020604085019301915b818110610224575050500390f35b91935091602060806001926001600160601b036060885180518452858101511515868501526040810151151560408501520151166060820152019401910191849392610216565b8060608461027c6102ae9488611fad565b5160405163711d4d2960e11b815260048101919091526001600160a01b03909116602482015292839081906044820190565b0381865afa8015610392578890610325575b600192506102ce8287611fad565b519080511515906001600160601b036040602083015115159201511691604051936102f885611cf1565b84526020840152604083015260608201526103138289611fad565b5261031e8188611fad565b50016101f0565b506060823d821161038a575b8161033e60609383611dc5565b810103126103865760019161037c604080519261035a84611d20565b6103638161205b565b84526103716020820161205b565b602085015201612ac7565b60408201526102c0565b8780fd5b3d9150610331565b6040513d8a823e3d90fd5b6020906103ab969396612aa3565b82828a010152019491946101dc565b8380fd5b50346100f65760403660031901126100f6576103d8611c13565b6024356001600160401b0381116107e9576103f7903690600401611bcd565b61040381939293611de6565b926104116040519485611dc5565b818452601f1961042083611de6565b01855b8181106107765750506001600160a01b0390921691845b8281106105605784866040519182916020830160208452825180915260408401602060408360051b870101940192905b82821061047957505050500390f35b919360019193955060208091603f1989820301855287519081518152848060a01b03838301511683820152604082015160408201526101808061050c6104fa6104e86104d660608801516101a060608901526101a0880190611e5a565b60808801518782036080890152611e96565b60a087015186820360a0880152611eed565b60c086015185820360c0870152611eed565b9360e081015160e0850152610100810151610100850152610120810151610120850152610140810151610140850152610160810151151561016085015201511515910152960192019201859493919261046a565b61056b818484611f75565b604051631946ecc160e11b8152903560048201528681602481885afa801561076b5787918889918a93610744575b50604051936105a785611d72565b8a85528a60208601528a60408601526060850152608084015260a083015260c08201528660e082015286610100820152866101208201528661014082015286610160820152866101808201526105fd8287611fad565b526106088186611fad565b506106138186611fad565b5190610620818585611f75565b359160405163013cf08b60e01b815283600482015288610120826024818b5afa9182156107375781828384918593869587986106a3575b50906101809796959493929160019b8a528b8060a01b031660208a0152604089015260e0880152610100870152610120860152610140850152151561016084015215159101520161043a565b975050505050505050610120813d821161072f575b816106c66101209383611dc5565b8101031261072b57600193816106e16020610180940161211d565b9060408101516060820151608083015160a08401519160c08501519361071661010061070f60e0890161205b565b970161205b565b979b9798509496939592949193909290610657565b8880fd5b3d91506106b8565b50604051903d90823e3d90fd5b9250505061076491503d8089833e61075c8183611dc5565b810190612b04565b915f610599565b6040513d89823e3d90fd5b60209060409594955161078881611d72565b888152888382015288604082015260608082015260606080820152606060a0820152606060c08201528860e0820152886101008201528861012082015288610140820152886101608201528861018082015282828901015201939293610423565b8280fd5b50346100f65760403660031901126100f657610807611c13565b61080f611bfd565b90826040805161081e81611d20565b60608152826020820152015260018060a01b031660405191635ec88c7960e01b835260018060a01b031680600484015283606084602481865afa9182156107375781829583946109d8575b506109d457602460405180958193632aff3bff60e21b835260048301525afa9182156109c957849261091a575b5060405193916108a585611d20565b84526020840192835260408401908152604051926020845260808401945192606060208601528351809652602060a08601940190955b8087106108f75750508394505160408401525160608301520390f35b81516001600160a01b0316855260019690960195602094850194909101906108db565b9091503d8085833e61092c8183611dc5565b8101906020818303126109c1578051906001600160401b0382116109c557019080601f830112156109c15781519061096382611de6565b926109716040519485611dc5565b82845260208085019360051b8201019182116109bd57602001915b81831061099d57505050905f610896565b82516001600160a01b03811681036103865781526020928301920161098c565b8680fd5b8480fd5b8580fd5b6040513d86823e3d90fd5b5080fd5b9350509350506060813d606011610a16575b816109f760609383611dc5565b810103126103ba5780516020820151604090920151919385915f610869565b3d91506109ea565b50346100f65760403660031901126100f657610a38611c13565b6024356001600160401b0381116107e957610a57903690600401611bcd565b610a6381939293611de6565b92610a716040519485611dc5565b818452601f19610a8083611de6565b01855b818110610e175750506001600160a01b0390921691845b828110610b965784866040519182916020830160208452825180915260408401602060408360051b870101940192905b828210610ad957505050500390f35b919360019193955060208091603f1989820301855287519081518152848060a01b03838301511683820152604082015160408201526101a080610b366104fa6104e86104d660608801516101c060608901526101c0880190611e5a565b9360e081015160e08501526101008101516101008501526101208101516101208501526101408101516101408501526101608101516101608501526101808101511515610180850152015115159101529601920192018594939192610aca565b610ba1818484611f75565b604051631946ecc160e11b8152903560048201528681602481885afa801561076b5787918889918a93610df8575b5060405193610bdd85611d56565b8a85528a60208601528a60408601526060850152608084015260a083015260c08201528660e08201528661010082015286610120820152866101408201528661016082015286610180820152866101a0820152610c3a8287611fad565b52610c458186611fad565b50610c508186611fad565b51610c5c828585611f75565b60405163013cf08b60e01b8152903560048201819052610140826024818a5afa918215610ded578992610d03575b5061012083926101a0926001969552858060a01b03602082015116602085015260408101516040850152606081015160e0850152608081015161010085015260a08101518285015260c081015161014085015260e081015161016085015261010081015115156101808501520151151591015201610a9a565b909150610140813d8211610de5575b81610d206101409383611dc5565b8101031261072b576040519061014082018281106001600160401b03821117610dd157926101a092610dc26101208094600199989760405280518452610d686020820161211d565b602085015260408101516040850152606081015160608501526080810151608085015260a081015160a085015260c081015160c085015260e081015160e0850152610db6610100820161205b565b6101008501520161205b565b83820152939495509150610c8a565b634e487b7160e01b8b52604160045260248bfd5b3d9150610d12565b6040513d8b823e3d90fd5b92505050610e1091503d8089833e61075c8183611dc5565b915f610bcf565b602090604095949551610e2981611d56565b888152888382015288604082015260608082015260606080820152606060a0820152606060c08201528860e08201528861010082015288610120820152886101408201528861016082015288610180820152886101a082015282828901015201939293610a83565b50346100f65760603660031901126100f657610eab611c13565b90610eb4611bfd565b916044356001600160401b0381116107e95783610ed684923690600401611bcd565b91610ee083611de6565b94610eee6040519687611dc5565b838652601f19610efd85611de6565b01855b8181106110555750506001600160a01b039081169116845b848110610f71578686604051918291602083016020845282518091526020604085019301915b818110610f4c575050500390f35b8251805185526020908101518186015286955060409094019390920191600101610f3e565b63ffffffff610f89610f84838888611f75565b612af3565b16610f98610f84838888611f75565b63ffffffff6040519163782d6fe160e01b8352856004840152166024820152602081604481885afa90811561039257889161100d575b50906001600160601b036001939260405192610fe984611d3b565b8352166020820152610ffb828a611fad565b526110068189611fad565b5001610f18565b90506020813d821161104d575b8161102760209383611dc5565b8101031261038657906001600160601b0361104460019493612ac7565b91929350610fce565b3d915061101a565b6040519295926020919061106881611d3b565b5f81525f8382015282828b01015201949194610f00565b50346100f65760203660031901126100f6576004356001600160401b0381116109d4576110b0903690600401611bcd565b906110ba82611de6565b916110c86040519384611dc5565b808352601f196110d782611de6565b01845b818110611178575050835b81811061113e578385604051918291602083016020845282518091526020604085019301915b818110611119575050500390f35b919350916020610220826111306001948851611c29565b01940191019184939261110b565b8061115c6111576111526001948688611f75565b611f99565b61216e565b6111668287611fad565b526111718186611fad565b50016110e5565b602090611183611fc1565b828288010152016110da565b50346100f65760603660031901126100f6576111a9611c13565b6111b1611bfd565b906044356001600160401b0381116103ba57916111d384933690600401611dfd565b8051916111df83611de6565b936111ed6040519586611dc5565b838552601f196111fc85611de6565b01865b8181106113765750506001600160a01b0316855b84811061128f578587604051918291602083016020845282518091526020604085019301915b818110611247575050500390f35b91935091602060806001926001600160601b0360608851805184528581015115158685015260ff60408201511660408501520151166060820152019401910191849392611239565b8060608461027c6112a09488611fad565b0381865afa8015610392578890611318575b600192506112c08287611fad565b519080511515906001600160601b03604060ff6020840151169201511691604051936112eb85611cf1565b84526020840152604083015260608201526113068289611fad565b526113118188611fad565b5001611213565b506060823d821161136e575b8161133160609383611dc5565b8101031261038657600191611364604080519261134d84611d20565b6113568161205b565b845261037160208201612131565b60408201526112b2565b3d9150611324565b602090611384969396612aa3565b82828a010152019491946111ff565b50346100f65760403660031901126100f6576113ad611c13565b6113b5611bfd565b9082604080516113c481611d20565b828152826020820152015260018060a01b031691604051916370a0823160e01b835260018060a01b0316806004840152602083602481875afa92831561157e578293611546575b5060405163b4b5ea5760e01b81526004810182905290602082602481885afa91821561153b5783926114fd575b50602090602460405180978193632c3e6f0f60e11b835260048301525afa9182156114f15780926114b2575b50606093506040805161147681611d20565b8481526001600160601b036020820193168352019160018060a01b0316825260405192835251602083015260018060a01b039051166040820152f35b9091506020843d6020116114e9575b816114ce60209383611dc5565b810103126100f657506114e260609361211d565b905f611464565b3d91506114c1565b604051903d90823e3d90fd5b9091506020813d602011611533575b8161151960209383611dc5565b810103126107e95761152c602091612ac7565b9190611438565b3d915061150c565b6040513d85823e3d90fd5b9092506020813d602011611576575b8161156260209383611dc5565b810103126115725751915f61140b565b5f80fd5b3d9150611555565b6040513d84823e3d90fd5b50346100f65760203660031901126100f6576004356001600160401b0381116109d4576115ba903690600401611bcd565b906115c482611de6565b916115d26040519384611dc5565b808352601f196115e182611de6565b01845b818110611681575050835b818110611651578385604051918291602083016020845282518091526020604085019301915b818110611623575050500390f35b825180516001600160a01b031685526020908101518186015286955060409094019390920191600101611615565b806116656100d26111526001948688611f75565b61166f8287611fad565b5261167a8186611fad565b50016115ef565b60209060405161169081611d3b565b5f81525f83820152828288010152016115e4565b5034611572576060366003190112611572576116be611c13565b906116c7611bfd565b906044359260018060a01b038416809403611572576116e4612aa3565b506040516370a0823160e01b8152600481018590526001600160a01b0391909116939092602084602481885afa938415611a18575f94611a23575b506001600160a01b031691823b15611572576040516374d7814960e11b8152600481018390525f8160248183885af18015611a1857611a05575b506040516370a0823160e01b81526004810183905291602083602481895afa92831561157e5782936119ce575b5060206024946040519586809263331faf7160e21b82528560048301525afa93841561157e57829461199a575b506040928351906117c48583611dc5565b600e82526d1cdd5b4818dbdb5c081d1bdd185b60921b602083015285019485811161198657906117f6918610156131ae565b61182883516118058582611dc5565b600d81526c1cdd5888185b1b1bd8d85d1959609a1b6020820152858711156131ae565b84840393841161197257825163b4b5ea5760e01b815260048101829052906020826024818a5afa91821561196857839261192a575b506020906024855180998193632c3e6f0f60e11b835260048301525afa91821561191f5780926118e0575b50608095506060835161189a81611cf1565b8681526001600160601b0360208201931683528481019360018060a01b0316845201938452825194855251602085015260018060a01b0390511690830152516060820152f35b9091506020863d602011611917575b816118fc60209383611dc5565b810103126100f6575061191060809561211d565b905f611888565b3d91506118ef565b8351903d90823e3d90fd5b9091506020813d602011611960575b8161194660209383611dc5565b810103126107e957611959602091612ac7565b919061185d565b3d9150611939565b84513d85823e3d90fd5b634e487b7160e01b82526011600452602482fd5b634e487b7160e01b84526011600452602484fd5b9093506020813d6020116119c6575b816119b660209383611dc5565b810103126115725751925f6117b3565b3d91506119a9565b9392506020843d6020116119fd575b816119ea60209383611dc5565b8101031261157257925191926020611786565b3d91506119dd565b611a1191505f90611dc5565b5f5f611759565b6040513d5f823e3d90fd5b9093506020813d602011611a4f575b81611a3f60209383611dc5565b810103126115725751925f61171f565b3d9150611a32565b3461157257602036600319011261157257610220611a76611157611c13565b6100f46040518092611c29565b34611572576040366003190112611572576004356001600160401b03811161157257611ab3903690600401611bcd565b90611abc611bfd565b611ac583611de6565b92611ad36040519485611dc5565b808452601f19611ae282611de6565b015f5b818110611bb65750505f5b818110611b8057846040518091602082016020835281518091526020604084019201905f5b818110611b23575050500390f35b91935091602060c082611b72600194885160a08091600180831b038151168452602081015160208501526040810151604085015260608101516060850152608081015160808501520151910152565b019401910191849392611b15565b80611b9a84611b95611152600195878a611f75565b612d28565b611ba48288611fad565b52611baf8187611fad565b5001611af0565b602090611bc1611f45565b82828901015201611ae5565b9181601f84011215611572578235916001600160401b038311611572576020808501948460051b01011161157257565b602435906001600160a01b038216820361157257565b600435906001600160a01b038216820361157257565b610200809160018060a01b0381511684526020810151602085015260408101516040850152606081015160608501526080810151608085015260a081015160a085015260c081015160c085015260e081015160e0850152610100810151610100850152610120810151151561012085015261014081015161014085015260018060a01b03610160820151166101608501526101808101516101808501526101a08101516101a08501526101c08101516101c08501526101e08101516101e08501520151910152565b608081019081106001600160401b03821117611d0c57604052565b634e487b7160e01b5f52604160045260245ffd5b606081019081106001600160401b03821117611d0c57604052565b604081019081106001600160401b03821117611d0c57604052565b6101c081019081106001600160401b03821117611d0c57604052565b6101a081019081106001600160401b03821117611d0c57604052565b60c081019081106001600160401b03821117611d0c57604052565b61022081019081106001600160401b03821117611d0c57604052565b90601f801991011681019081106001600160401b03821117611d0c57604052565b6001600160401b038111611d0c5760051b60200190565b9080601f83011215611572578135611e1481611de6565b92611e226040519485611dc5565b81845260208085019260051b82010192831161157257602001905b828210611e4a5750505090565b8135815260209182019101611e3d565b90602080835192838152019201905f5b818110611e775750505090565b82516001600160a01b0316845260209384019390920191600101611e6a565b90602080835192838152019201905f5b818110611eb35750505090565b8251845260209384019390920191600101611ea6565b805180835260209291819084018484015e5f828201840152601f01601f1916010190565b9080602083519182815201916020808360051b8301019401925f915b838310611f1857505050505090565b9091929394602080611f36600193601f198682030187528951611ec9565b97019301930191939290611f09565b60405190611f5282611d8e565b5f60a0838281528260208201528260408201528260608201528260808201520152565b9190811015611f855760051b0190565b634e487b7160e01b5f52603260045260245ffd5b356001600160a01b03811681036115725790565b8051821015611f855760209160051b010190565b60405190611fce82611da9565b5f610200838281528260208201528260408201528260608201528260808201528260a08201528260c08201528260e08201528261010082015282610120820152826101408201528261016082015282610180820152826101a0820152826101c0820152826101e08201520152565b9081602091031261157257516001600160a01b03811681036115725790565b5190811515820361157257565b6001600160401b038111611d0c57601f01601f191660200190565b92919261208f82612068565b9161209d6040519384611dc5565b829481845281830111611572578281602093845f96015e010152565b9080601f830112156115725781516120d392602001612083565b90565b906020828203126115725781516001600160401b038111611572576120d392016120b9565b6040519061210a604083611dc5565b60048252630c68aa8960e31b6020830152565b51906001600160a01b038216820361157257565b519060ff8216820361157257565b3d15612169573d9061215082612068565b9161215e6040519384611dc5565b82523d5f602084013e565b606090565b612176611fc1565b5060405163bd6d894d60e01b81526020816004815f6001600160a01b0387165af18015611a18575f60c052612a70575b50604051635fe3b56760e01b81526020816004816001600160a01b0386165afa908115611a18575f91612a41575b5060408051638e8f294b60e01b81526001600160a01b03848116600483015292909216929082602481865afa918215611a18575f905f93612a00575b506040516395d89b4160e01b81525f816004816001600160a01b0387165afa8015611a185761224f915f916129de575b506122496120fb565b9061314b565b15612891576012915f5b5f945f8060405160206122b8600482840160018060a01b038a168152838552612283604086611dc5565b60405193849181830196636aa875b560e01b8852518091602485015e820101828101878152500301601f198101835282611dc5565b5190828b5af196876122c861213f565b90612873575b505f975f80604051602061232e600482840160018060a01b038c1681528385526122f9604086611dc5565b604051938491818301966303d290cf60e61b8852518091602485015e820101828101878152500301601f198101835282611dc5565b519082865af1908161233e61213f565b90612855575b501590811561284c575b506127b2575b5f8091816080526040518260206123b7600482850160018060a01b038c168152838652612382604087611dc5565b6040519384918183019763252c221960e11b8952518091602485015e820101828101868152500301601f198101835282611dc5565b51925af16123c361213f565b90612794575b50604051630ae9d70b60e41b8152936020856004816001600160a01b0388165afa948515611a18575f95612760575b50604051631f1f3b4560e31b8152946020866004816001600160a01b0389165afa958615611a18575f9661272c575b506040516305cee64160e21b81526020816004816001600160a01b038a165afa908115611a18575f916126fa575b506040516308f7a6e360e31b81526020816004816001600160a01b038b165afa908115611a18575f916126c8575b50604051638f840ddd60e01b8152906020826004816001600160a01b038c165afa918215611a18575f92612694575b506040516318160ddd60e01b8152926020846004816001600160a01b038d165afa938415611a18575f94612660575b50604051631d8e90d160e11b81529960208b6004816001600160a01b038e165afa958615611a18575f9661262b575b60405163313ce56760e01b81529b5060208c6004816001600160a01b038f165afa9a8b15611a18575f9b6125ef575b60ff9c5060405160a05261255460a051611da9565b60018060a01b031660a0515260c051602060a0510152604060a0510152606060a0510152608060a051015260a08051015260c060a051015260e060a051015261010060a0510152151561012060a051015261014060a051015260018060a01b031661016060a05101521661018060a05101526101a060a05101526101c060a05101526101e060a051015260805161020060a051015260a05190565b9a5060208c3d602011612623575b8161260a60209383611dc5565b810103126115725761261d60ff9c612131565b9a61253f565b3d91506125fd565b955060208b3d602011612658575b8161264660209383611dc5565b810103126115725760049a5195612510565b3d9150612639565b9093506020813d60201161268c575b8161267c60209383611dc5565b810103126115725751925f6124e1565b3d915061266f565b9091506020813d6020116126c0575b816126b060209383611dc5565b810103126115725751905f6124b2565b3d91506126a3565b90506020813d6020116126f2575b816126e360209383611dc5565b8101031261157257515f612483565b3d91506126d6565b90506020813d602011612724575b8161271560209383611dc5565b8101031261157257515f612455565b3d9150612708565b9095506020813d602011612758575b8161274860209383611dc5565b810103126115725751945f612427565b3d915061273b565b9094506020813d60201161278c575b8161277c60209383611dc5565b810103126115725751935f6123f8565b3d915061276f565b6020815191818082019384920101031261157257516080525f6123c9565b5f80604051602061280f600482840160018060a01b038b1681528385526127da604086611dc5565b60405193849181830196631d7b33d760e01b8852518091602485015e820101828101878152500301601f198101835282611dc5565b519082855af161281d61213f565b90612829575b50612354565b80519298509096506020808201928201919091031261157257519586955f612823565b9050155f61234e565b8051919a50602080820192820191909103126115725751985f612344565b8051919750602080820192820191909103126115725751955f6122ce565b604051636f307dc360e01b81526020816004816001600160a01b0387165afa908115611a18575f916129a4575b50604051636f307dc360e01b81529092906020816004816001600160a01b0386165afa908115611a18575f91612965575b5060405163313ce56760e01b815290602090829060049082906001600160a01b03165afa8015611a18575f9061292b575b60ff91501692612259565b506020813d60201161295d575b8161294560209383611dc5565b810103126115725761295860ff91612131565b612920565b3d9150612938565b90506020813d60201161299c575b8161298060209383611dc5565b8101031261157257602061299560049261211d565b91506128ef565b3d9150612973565b90506020813d6020116129d6575b816129bf60209383611dc5565b81010312611572576129d09061211d565b5f6128be565b3d91506129b2565b6129fa91503d805f833e6129f28183611dc5565b8101906120d6565b5f612240565b9250506040823d604011612a39575b81612a1c60409383611dc5565b81010312611572576020612a2f8361205b565b920151915f612210565b3d9150612a0f565b612a63915060203d602011612a69575b612a5b8183611dc5565b81019061203c565b5f6121d4565b503d612a51565b6020813d602011612a9b575b81612a8960209383611dc5565b81010312611572575160c0525f6121a6565b3d9150612a7c565b60405190612ab082611cf1565b5f6060838281528260208201528260408201520152565b51906001600160601b038216820361157257565b60405190612ae882611d3b565b5f6020838281520152565b3563ffffffff811681036115725790565b6080818303126115725780516001600160401b03811161157257810182601f8201121561157257805190612b3782611de6565b91612b456040519384611dc5565b80835260208084019160051b8301019185831161157257602001905b828210612d10575050509260208201516001600160401b03811161157257820183601f8201121561157257805190612b9882611de6565b91612ba66040519384611dc5565b80835260208084019160051b8301019186831161157257602001905b828210612d00575050509260408301516001600160401b03811161157257830181601f82011215611572578051612bf881611de6565b91612c066040519384611dc5565b81835260208084019260051b820101918483116115725760208201905b838210612cd35750505050926060810151906001600160401b038211611572570181601f8201121561157257805190612c5b82611de6565b92612c696040519485611dc5565b82845260208085019360051b830101918183116115725760208101935b838510612c9557505050505090565b84516001600160401b03811161157257820183603f8201121561157257602091612cc88583604086809601519101612083565b815201940193612c86565b81516001600160401b03811161157257602091612cf5888480948801016120b9565b815201910190612c23565b8151815260209182019101612bc2565b60208091612d1d8461211d565b815201910190612b61565b612d30611f45565b506040516370a0823160e01b81526001600160a01b0392831660048201819052919092169190602082602481865afa918215611a18575f92612fc8575b506040516305eff7ef60e21b8152600481018290526020816024815f885af1908115611a18575f91612f96575b50604051633af9e66960e01b815260048101839052906020826024815f895af1918215611a18575f92612f62575b506040516395d89b4160e01b81525f81600481895afa8015611a1857612df7915f916129de57506122496120fb565b15612e2d5782319231935b60405195612e0f87611d8e565b8652602086015260408501526060840152608083015260a082015290565b604051636f307dc360e01b8152602081600481895afa908115611a18575f91612f28575b506040516370a0823160e01b8152600481018590526001600160a01b039190911690602081602481855afa8015611a18575f90612ef5575b6020915094604460405180948193636eb1769f60e11b835260048301528a60248301525afa908115611a18575f91612ec3575b5093612e02565b90506020813d602011612eed575b81612ede60209383611dc5565b8101031261157257515f612ebc565b3d9150612ed1565b506020813d602011612f20575b81612f0f60209383611dc5565b810103126115725760209051612e89565b3d9150612f02565b90506020813d602011612f5a575b81612f4360209383611dc5565b8101031261157257612f549061211d565b5f612e51565b3d9150612f36565b9091506020813d602011612f8e575b81612f7e60209383611dc5565b810103126115725751905f612dc8565b3d9150612f71565b90506020813d602011612fc0575b81612fb160209383611dc5565b8101031261157257515f612d9a565b3d9150612fa4565b9091506020813d602011612ff4575b81612fe460209383611dc5565b810103126115725751905f612d6d565b3d9150612fd7565b613004612adb565b50604051635fe3b56760e01b81526001600160a01b039190911690602081600481855afa908115611a18576004916020915f9161312e575b506040516307dc0d1d60e41b815292839182906001600160a01b03165afa908115611a18575f916130eb575b5060405163fc57d4df60e01b81526004810183905290602090829060249082906001600160a01b03165afa908115611a18575f916130b9575b50604051916130af83611d3b565b8252602082015290565b90506020813d6020116130e3575b816130d460209383611dc5565b8101031261157257515f6130a1565b3d91506130c7565b90506020813d602011613126575b8161310660209383611dc5565b8101031261157257516001600160a01b0381168103611572576020613068565b3d91506130f9565b6131459150823d8411612a6957612a5b8183611dc5565b5f61303c565b6040516131776020828180820195805191829101875e81015f838201520301601f198101835282611dc5565b519020906040516131a76020828180820195805191829101875e81015f838201520301601f198101835282611dc5565b5190201490565b156131b65750565b60405162461bcd60e51b8152602060048201529081906131da906024830190611ec9565b0390fdfea26469706673582212201193945d6af6baacd906e8278ef9dd538e0cdc9b76decad051fc1a32408383fd64736f6c634300081c0033","linkReferences":{}},"methodIdentifiers":{"cTokenBalances(address,address)":"bdf950c9","cTokenBalancesAll(address[],address)":"0972bf8b","cTokenMetadata(address)":"158eca8b","cTokenMetadataAll(address[])":"4b70d84b","cTokenUnderlyingPrice(address)":"c5ae5934","cTokenUnderlyingPriceAll(address[])":"2b2d5ed6","getAccountLimits(address,address)":"7dd8f6d9","getCompBalanceMetadata(address,address)":"416405d7","getCompBalanceMetadataExt(address,address,address)":"1ea63741","getCompVotes(address,address,uint32[])":"59564219","getGovBravoProposals(address,uint256[])":"75d80e90","getGovBravoReceipts(address,address,uint256[])":"43c811cc","getGovProposals(address,uint256[])":"96994869","getGovReceipts(address,address,uint256[])":"995ed99f"},"id":48}