{
    "abi": [
        {
            "type": "constructor",
            "inputs": [],
            "stateMutability": "nonpayable"
        },
        {
            "type": "function",
            "name": "_become",
            "inputs": [
                {
                    "name": "unitroller",
                    "type": "address",
                    "internalType": "contract Unitroller"
                }
            ],
            "outputs": [],
            "stateMutability": "nonpayable"
        },
        {
            "type": "function",
            "name": "_borrowGuardianPaused",
            "inputs": [],
            "outputs": [
                {
                    "name": "",
                    "type": "bool",
                    "internalType": "bool"
                }
            ],
            "stateMutability": "view"
        },
        {
            "type": "function",
            "name": "_grantComp",
            "inputs": [
                {
                    "name": "recipient",
                    "type": "address",
                    "internalType": "address"
                },
                {
                    "name": "amount",
                    "type": "uint256",
                    "internalType": "uint256"
                }
            ],
            "outputs": [],
            "stateMutability": "nonpayable"
        },
        {
            "type": "function",
            "name": "_mintGuardianPaused",
            "inputs": [],
            "outputs": [
                {
                    "name": "",
                    "type": "bool",
                    "internalType": "bool"
                }
            ],
            "stateMutability": "view"
        },
        {
            "type": "function",
            "name": "_setBorrowCapGuardian",
            "inputs": [
                {
                    "name": "newBorrowCapGuardian",
                    "type": "address",
                    "internalType": "address"
                }
            ],
            "outputs": [],
            "stateMutability": "nonpayable"
        },
        {
            "type": "function",
            "name": "_setBorrowPaused",
            "inputs": [
                {
                    "name": "cToken",
                    "type": "address",
                    "internalType": "contract CToken"
                },
                {
                    "name": "state",
                    "type": "bool",
                    "internalType": "bool"
                }
            ],
            "outputs": [
                {
                    "name": "",
                    "type": "bool",
                    "internalType": "bool"
                }
            ],
            "stateMutability": "nonpayable"
        },
        {
            "type": "function",
            "name": "_setCloseFactor",
            "inputs": [
                {
                    "name": "newCloseFactorMantissa",
                    "type": "uint256",
                    "internalType": "uint256"
                }
            ],
            "outputs": [
                {
                    "name": "",
                    "type": "uint256",
                    "internalType": "uint256"
                }
            ],
            "stateMutability": "nonpayable"
        },
        {
            "type": "function",
            "name": "_setCollateralFactor",
            "inputs": [
                {
                    "name": "cToken",
                    "type": "address",
                    "internalType": "contract CToken"
                },
                {
                    "name": "newCollateralFactorMantissa",
                    "type": "uint256",
                    "internalType": "uint256"
                }
            ],
            "outputs": [
                {
                    "name": "",
                    "type": "uint256",
                    "internalType": "uint256"
                }
            ],
            "stateMutability": "nonpayable"
        },
        {
            "type": "function",
            "name": "_setCompSpeeds",
            "inputs": [
                {
                    "name": "cTokens",
                    "type": "address[]",
                    "internalType": "contract CToken[]"
                },
                {
                    "name": "supplySpeeds",
                    "type": "uint256[]",
                    "internalType": "uint256[]"
                },
                {
                    "name": "borrowSpeeds",
                    "type": "uint256[]",
                    "internalType": "uint256[]"
                }
            ],
            "outputs": [],
            "stateMutability": "nonpayable"
        },
        {
            "type": "function",
            "name": "_setContributorCompSpeed",
            "inputs": [
                {
                    "name": "contributor",
                    "type": "address",
                    "internalType": "address"
                },
                {
                    "name": "compSpeed",
                    "type": "uint256",
                    "internalType": "uint256"
                }
            ],
            "outputs": [],
            "stateMutability": "nonpayable"
        },
        {
            "type": "function",
            "name": "_setLiquidationIncentive",
            "inputs": [
                {
                    "name": "newLiquidationIncentiveMantissa",
                    "type": "uint256",
                    "internalType": "uint256"
                }
            ],
            "outputs": [
                {
                    "name": "",
                    "type": "uint256",
                    "internalType": "uint256"
                }
            ],
            "stateMutability": "nonpayable"
        },
        {
            "type": "function",
            "name": "_setMarketBorrowCaps",
            "inputs": [
                {
                    "name": "cTokens",
                    "type": "address[]",
                    "internalType": "contract CToken[]"
                },
                {
                    "name": "newBorrowCaps",
                    "type": "uint256[]",
                    "internalType": "uint256[]"
                }
            ],
            "outputs": [],
            "stateMutability": "nonpayable"
        },
        {
            "type": "function",
            "name": "_setMintPaused",
            "inputs": [
                {
                    "name": "cToken",
                    "type": "address",
                    "internalType": "contract CToken"
                },
                {
                    "name": "state",
                    "type": "bool",
                    "internalType": "bool"
                }
            ],
            "outputs": [
                {
                    "name": "",
                    "type": "bool",
                    "internalType": "bool"
                }
            ],
            "stateMutability": "nonpayable"
        },
        {
            "type": "function",
            "name": "_setPauseGuardian",
            "inputs": [
                {
                    "name": "newPauseGuardian",
                    "type": "address",
                    "internalType": "address"
                }
            ],
            "outputs": [
                {
                    "name": "",
                    "type": "uint256",
                    "internalType": "uint256"
                }
            ],
            "stateMutability": "nonpayable"
        },
        {
            "type": "function",
            "name": "_setPriceOracle",
            "inputs": [
                {
                    "name": "newOracle",
                    "type": "address",
                    "internalType": "contract PriceOracle"
                }
            ],
            "outputs": [
                {
                    "name": "",
                    "type": "uint256",
                    "internalType": "uint256"
                }
            ],
            "stateMutability": "nonpayable"
        },
        {
            "type": "function",
            "name": "_setSeizePaused",
            "inputs": [
                {
                    "name": "state",
                    "type": "bool",
                    "internalType": "bool"
                }
            ],
            "outputs": [
                {
                    "name": "",
                    "type": "bool",
                    "internalType": "bool"
                }
            ],
            "stateMutability": "nonpayable"
        },
        {
            "type": "function",
            "name": "_setTransferPaused",
            "inputs": [
                {
                    "name": "state",
                    "type": "bool",
                    "internalType": "bool"
                }
            ],
            "outputs": [
                {
                    "name": "",
                    "type": "bool",
                    "internalType": "bool"
                }
            ],
            "stateMutability": "nonpayable"
        },
        {
            "type": "function",
            "name": "_supportMarket",
            "inputs": [
                {
                    "name": "cToken",
                    "type": "address",
                    "internalType": "contract CToken"
                }
            ],
            "outputs": [
                {
                    "name": "",
                    "type": "uint256",
                    "internalType": "uint256"
                }
            ],
            "stateMutability": "nonpayable"
        },
        {
            "type": "function",
            "name": "accountAssets",
            "inputs": [
                {
                    "name": "",
                    "type": "address",
                    "internalType": "address"
                },
                {
                    "name": "",
                    "type": "uint256",
                    "internalType": "uint256"
                }
            ],
            "outputs": [
                {
                    "name": "",
                    "type": "address",
                    "internalType": "contract CToken"
                }
            ],
            "stateMutability": "view"
        },
        {
            "type": "function",
            "name": "admin",
            "inputs": [],
            "outputs": [
                {
                    "name": "",
                    "type": "address",
                    "internalType": "address"
                }
            ],
            "stateMutability": "view"
        },
        {
            "type": "function",
            "name": "allMarkets",
            "inputs": [
                {
                    "name": "",
                    "type": "uint256",
                    "internalType": "uint256"
                }
            ],
            "outputs": [
                {
                    "name": "",
                    "type": "address",
                    "internalType": "contract CToken"
                }
            ],
            "stateMutability": "view"
        },
        {
            "type": "function",
            "name": "borrowAllowed",
            "inputs": [
                {
                    "name": "cToken",
                    "type": "address",
                    "internalType": "address"
                },
                {
                    "name": "borrower",
                    "type": "address",
                    "internalType": "address"
                },
                {
                    "name": "borrowAmount",
                    "type": "uint256",
                    "internalType": "uint256"
                }
            ],
            "outputs": [
                {
                    "name": "",
                    "type": "uint256",
                    "internalType": "uint256"
                }
            ],
            "stateMutability": "nonpayable"
        },
        {
            "type": "function",
            "name": "borrowCapGuardian",
            "inputs": [],
            "outputs": [
                {
                    "name": "",
                    "type": "address",
                    "internalType": "address"
                }
            ],
            "stateMutability": "view"
        },
        {
            "type": "function",
            "name": "borrowCaps",
            "inputs": [
                {
                    "name": "",
                    "type": "address",
                    "internalType": "address"
                }
            ],
            "outputs": [
                {
                    "name": "",
                    "type": "uint256",
                    "internalType": "uint256"
                }
            ],
            "stateMutability": "view"
        },
        {
            "type": "function",
            "name": "borrowGuardianPaused",
            "inputs": [
                {
                    "name": "",
                    "type": "address",
                    "internalType": "address"
                }
            ],
            "outputs": [
                {
                    "name": "",
                    "type": "bool",
                    "internalType": "bool"
                }
            ],
            "stateMutability": "view"
        },
        {
            "type": "function",
            "name": "borrowVerify",
            "inputs": [
                {
                    "name": "cToken",
                    "type": "address",
                    "internalType": "address"
                },
                {
                    "name": "borrower",
                    "type": "address",
                    "internalType": "address"
                },
                {
                    "name": "borrowAmount",
                    "type": "uint256",
                    "internalType": "uint256"
                }
            ],
            "outputs": [],
            "stateMutability": "nonpayable"
        },
        {
            "type": "function",
            "name": "checkMembership",
            "inputs": [
                {
                    "name": "account",
                    "type": "address",
                    "internalType": "address"
                },
                {
                    "name": "cToken",
                    "type": "address",
                    "internalType": "contract CToken"
                }
            ],
            "outputs": [
                {
                    "name": "",
                    "type": "bool",
                    "internalType": "bool"
                }
            ],
            "stateMutability": "view"
        },
        {
            "type": "function",
            "name": "claimComp",
            "inputs": [
                {
                    "name": "holder",
                    "type": "address",
                    "internalType": "address"
                },
                {
                    "name": "cTokens",
                    "type": "address[]",
                    "internalType": "contract CToken[]"
                }
            ],
            "outputs": [],
            "stateMutability": "nonpayable"
        },
        {
            "type": "function",
            "name": "claimComp",
            "inputs": [
                {
                    "name": "holders",
                    "type": "address[]",
                    "internalType": "address[]"
                },
                {
                    "name": "cTokens",
                    "type": "address[]",
                    "internalType": "contract CToken[]"
                },
                {
                    "name": "borrowers",
                    "type": "bool",
                    "internalType": "bool"
                },
                {
                    "name": "suppliers",
                    "type": "bool",
                    "internalType": "bool"
                }
            ],
            "outputs": [],
            "stateMutability": "nonpayable"
        },
        {
            "type": "function",
            "name": "claimComp",
            "inputs": [
                {
                    "name": "holder",
                    "type": "address",
                    "internalType": "address"
                }
            ],
            "outputs": [],
            "stateMutability": "nonpayable"
        },
        {
            "type": "function",
            "name": "closeFactorMantissa",
            "inputs": [],
            "outputs": [
                {
                    "name": "",
                    "type": "uint256",
                    "internalType": "uint256"
                }
            ],
            "stateMutability": "view"
        },
        {
            "type": "function",
            "name": "compAccrued",
            "inputs": [
                {
                    "name": "",
                    "type": "address",
                    "internalType": "address"
                }
            ],
            "outputs": [
                {
                    "name": "",
                    "type": "uint256",
                    "internalType": "uint256"
                }
            ],
            "stateMutability": "view"
        },
        {
            "type": "function",
            "name": "compBorrowSpeeds",
            "inputs": [
                {
                    "name": "",
                    "type": "address",
                    "internalType": "address"
                }
            ],
            "outputs": [
                {
                    "name": "",
                    "type": "uint256",
                    "internalType": "uint256"
                }
            ],
            "stateMutability": "view"
        },
        {
            "type": "function",
            "name": "compBorrowState",
            "inputs": [
                {
                    "name": "",
                    "type": "address",
                    "internalType": "address"
                }
            ],
            "outputs": [
                {
                    "name": "index",
                    "type": "uint224",
                    "internalType": "uint224"
                },
                {
                    "name": "block",
                    "type": "uint32",
                    "internalType": "uint32"
                }
            ],
            "stateMutability": "view"
        },
        {
            "type": "function",
            "name": "compBorrowerIndex",
            "inputs": [
                {
                    "name": "",
                    "type": "address",
                    "internalType": "address"
                },
                {
                    "name": "",
                    "type": "address",
                    "internalType": "address"
                }
            ],
            "outputs": [
                {
                    "name": "",
                    "type": "uint256",
                    "internalType": "uint256"
                }
            ],
            "stateMutability": "view"
        },
        {
            "type": "function",
            "name": "compContributorSpeeds",
            "inputs": [
                {
                    "name": "",
                    "type": "address",
                    "internalType": "address"
                }
            ],
            "outputs": [
                {
                    "name": "",
                    "type": "uint256",
                    "internalType": "uint256"
                }
            ],
            "stateMutability": "view"
        },
        {
            "type": "function",
            "name": "compInitialIndex",
            "inputs": [],
            "outputs": [
                {
                    "name": "",
                    "type": "uint224",
                    "internalType": "uint224"
                }
            ],
            "stateMutability": "view"
        },
        {
            "type": "function",
            "name": "compRate",
            "inputs": [],
            "outputs": [
                {
                    "name": "",
                    "type": "uint256",
                    "internalType": "uint256"
                }
            ],
            "stateMutability": "view"
        },
        {
            "type": "function",
            "name": "compReceivable",
            "inputs": [
                {
                    "name": "",
                    "type": "address",
                    "internalType": "address"
                }
            ],
            "outputs": [
                {
                    "name": "",
                    "type": "uint256",
                    "internalType": "uint256"
                }
            ],
            "stateMutability": "view"
        },
        {
            "type": "function",
            "name": "compSpeeds",
            "inputs": [
                {
                    "name": "",
                    "type": "address",
                    "internalType": "address"
                }
            ],
            "outputs": [
                {
                    "name": "",
                    "type": "uint256",
                    "internalType": "uint256"
                }
            ],
            "stateMutability": "view"
        },
        {
            "type": "function",
            "name": "compSupplierIndex",
            "inputs": [
                {
                    "name": "",
                    "type": "address",
                    "internalType": "address"
                },
                {
                    "name": "",
                    "type": "address",
                    "internalType": "address"
                }
            ],
            "outputs": [
                {
                    "name": "",
                    "type": "uint256",
                    "internalType": "uint256"
                }
            ],
            "stateMutability": "view"
        },
        {
            "type": "function",
            "name": "compSupplySpeeds",
            "inputs": [
                {
                    "name": "",
                    "type": "address",
                    "internalType": "address"
                }
            ],
            "outputs": [
                {
                    "name": "",
                    "type": "uint256",
                    "internalType": "uint256"
                }
            ],
            "stateMutability": "view"
        },
        {
            "type": "function",
            "name": "compSupplyState",
            "inputs": [
                {
                    "name": "",
                    "type": "address",
                    "internalType": "address"
                }
            ],
            "outputs": [
                {
                    "name": "index",
                    "type": "uint224",
                    "internalType": "uint224"
                },
                {
                    "name": "block",
                    "type": "uint32",
                    "internalType": "uint32"
                }
            ],
            "stateMutability": "view"
        },
        {
            "type": "function",
            "name": "comptrollerImplementation",
            "inputs": [],
            "outputs": [
                {
                    "name": "",
                    "type": "address",
                    "internalType": "address"
                }
            ],
            "stateMutability": "view"
        },
        {
            "type": "function",
            "name": "enterMarkets",
            "inputs": [
                {
                    "name": "cTokens",
                    "type": "address[]",
                    "internalType": "address[]"
                }
            ],
            "outputs": [
                {
                    "name": "",
                    "type": "uint256[]",
                    "internalType": "uint256[]"
                }
            ],
            "stateMutability": "nonpayable"
        },
        {
            "type": "function",
            "name": "exitMarket",
            "inputs": [
                {
                    "name": "cTokenAddress",
                    "type": "address",
                    "internalType": "address"
                }
            ],
            "outputs": [
                {
                    "name": "",
                    "type": "uint256",
                    "internalType": "uint256"
                }
            ],
            "stateMutability": "nonpayable"
        },
        {
            "type": "function",
            "name": "fixBadAccruals",
            "inputs": [
                {
                    "name": "affectedUsers",
                    "type": "address[]",
                    "internalType": "address[]"
                },
                {
                    "name": "amounts",
                    "type": "uint256[]",
                    "internalType": "uint256[]"
                }
            ],
            "outputs": [],
            "stateMutability": "nonpayable"
        },
        {
            "type": "function",
            "name": "getAccountLiquidity",
            "inputs": [
                {
                    "name": "account",
                    "type": "address",
                    "internalType": "address"
                }
            ],
            "outputs": [
                {
                    "name": "",
                    "type": "uint256",
                    "internalType": "uint256"
                },
                {
                    "name": "",
                    "type": "uint256",
                    "internalType": "uint256"
                },
                {
                    "name": "",
                    "type": "uint256",
                    "internalType": "uint256"
                }
            ],
            "stateMutability": "view"
        },
        {
            "type": "function",
            "name": "getAllMarkets",
            "inputs": [],
            "outputs": [
                {
                    "name": "",
                    "type": "address[]",
                    "internalType": "contract CToken[]"
                }
            ],
            "stateMutability": "view"
        },
        {
            "type": "function",
            "name": "getAssetsIn",
            "inputs": [
                {
                    "name": "account",
                    "type": "address",
                    "internalType": "address"
                }
            ],
            "outputs": [
                {
                    "name": "",
                    "type": "address[]",
                    "internalType": "contract CToken[]"
                }
            ],
            "stateMutability": "view"
        },
        {
            "type": "function",
            "name": "getBlockNumber",
            "inputs": [],
            "outputs": [
                {
                    "name": "",
                    "type": "uint256",
                    "internalType": "uint256"
                }
            ],
            "stateMutability": "view"
        },
        {
            "type": "function",
            "name": "getCompAddress",
            "inputs": [],
            "outputs": [
                {
                    "name": "",
                    "type": "address",
                    "internalType": "address"
                }
            ],
            "stateMutability": "view"
        },
        {
            "type": "function",
            "name": "getHypotheticalAccountLiquidity",
            "inputs": [
                {
                    "name": "account",
                    "type": "address",
                    "internalType": "address"
                },
                {
                    "name": "cTokenModify",
                    "type": "address",
                    "internalType": "address"
                },
                {
                    "name": "redeemTokens",
                    "type": "uint256",
                    "internalType": "uint256"
                },
                {
                    "name": "borrowAmount",
                    "type": "uint256",
                    "internalType": "uint256"
                }
            ],
            "outputs": [
                {
                    "name": "",
                    "type": "uint256",
                    "internalType": "uint256"
                },
                {
                    "name": "",
                    "type": "uint256",
                    "internalType": "uint256"
                },
                {
                    "name": "",
                    "type": "uint256",
                    "internalType": "uint256"
                }
            ],
            "stateMutability": "view"
        },
        {
            "type": "function",
            "name": "isComptroller",
            "inputs": [],
            "outputs": [
                {
                    "name": "",
                    "type": "bool",
                    "internalType": "bool"
                }
            ],
            "stateMutability": "view"
        },
        {
            "type": "function",
            "name": "isDeprecated",
            "inputs": [
                {
                    "name": "cToken",
                    "type": "address",
                    "internalType": "contract CToken"
                }
            ],
            "outputs": [
                {
                    "name": "",
                    "type": "bool",
                    "internalType": "bool"
                }
            ],
            "stateMutability": "view"
        },
        {
            "type": "function",
            "name": "lastContributorBlock",
            "inputs": [
                {
                    "name": "",
                    "type": "address",
                    "internalType": "address"
                }
            ],
            "outputs": [
                {
                    "name": "",
                    "type": "uint256",
                    "internalType": "uint256"
                }
            ],
            "stateMutability": "view"
        },
        {
            "type": "function",
            "name": "liquidateBorrowAllowed",
            "inputs": [
                {
                    "name": "cTokenBorrowed",
                    "type": "address",
                    "internalType": "address"
                },
                {
                    "name": "cTokenCollateral",
                    "type": "address",
                    "internalType": "address"
                },
                {
                    "name": "liquidator",
                    "type": "address",
                    "internalType": "address"
                },
                {
                    "name": "borrower",
                    "type": "address",
                    "internalType": "address"
                },
                {
                    "name": "repayAmount",
                    "type": "uint256",
                    "internalType": "uint256"
                }
            ],
            "outputs": [
                {
                    "name": "",
                    "type": "uint256",
                    "internalType": "uint256"
                }
            ],
            "stateMutability": "nonpayable"
        },
        {
            "type": "function",
            "name": "liquidateBorrowVerify",
            "inputs": [
                {
                    "name": "cTokenBorrowed",
                    "type": "address",
                    "internalType": "address"
                },
                {
                    "name": "cTokenCollateral",
                    "type": "address",
                    "internalType": "address"
                },
                {
                    "name": "liquidator",
                    "type": "address",
                    "internalType": "address"
                },
                {
                    "name": "borrower",
                    "type": "address",
                    "internalType": "address"
                },
                {
                    "name": "actualRepayAmount",
                    "type": "uint256",
                    "internalType": "uint256"
                },
                {
                    "name": "seizeTokens",
                    "type": "uint256",
                    "internalType": "uint256"
                }
            ],
            "outputs": [],
            "stateMutability": "nonpayable"
        },
        {
            "type": "function",
            "name": "liquidateCalculateSeizeTokens",
            "inputs": [
                {
                    "name": "cTokenBorrowed",
                    "type": "address",
                    "internalType": "address"
                },
                {
                    "name": "cTokenCollateral",
                    "type": "address",
                    "internalType": "address"
                },
                {
                    "name": "actualRepayAmount",
                    "type": "uint256",
                    "internalType": "uint256"
                }
            ],
            "outputs": [
                {
                    "name": "",
                    "type": "uint256",
                    "internalType": "uint256"
                },
                {
                    "name": "",
                    "type": "uint256",
                    "internalType": "uint256"
                }
            ],
            "stateMutability": "view"
        },
        {
            "type": "function",
            "name": "liquidationIncentiveMantissa",
            "inputs": [],
            "outputs": [
                {
                    "name": "",
                    "type": "uint256",
                    "internalType": "uint256"
                }
            ],
            "stateMutability": "view"
        },
        {
            "type": "function",
            "name": "markets",
            "inputs": [
                {
                    "name": "",
                    "type": "address",
                    "internalType": "address"
                }
            ],
            "outputs": [
                {
                    "name": "isListed",
                    "type": "bool",
                    "internalType": "bool"
                },
                {
                    "name": "collateralFactorMantissa",
                    "type": "uint256",
                    "internalType": "uint256"
                },
                {
                    "name": "isComped",
                    "type": "bool",
                    "internalType": "bool"
                }
            ],
            "stateMutability": "view"
        },
        {
            "type": "function",
            "name": "maxAssets",
            "inputs": [],
            "outputs": [
                {
                    "name": "",
                    "type": "uint256",
                    "internalType": "uint256"
                }
            ],
            "stateMutability": "view"
        },
        {
            "type": "function",
            "name": "mintAllowed",
            "inputs": [
                {
                    "name": "cToken",
                    "type": "address",
                    "internalType": "address"
                },
                {
                    "name": "minter",
                    "type": "address",
                    "internalType": "address"
                },
                {
                    "name": "mintAmount",
                    "type": "uint256",
                    "internalType": "uint256"
                }
            ],
            "outputs": [
                {
                    "name": "",
                    "type": "uint256",
                    "internalType": "uint256"
                }
            ],
            "stateMutability": "nonpayable"
        },
        {
            "type": "function",
            "name": "mintGuardianPaused",
            "inputs": [
                {
                    "name": "",
                    "type": "address",
                    "internalType": "address"
                }
            ],
            "outputs": [
                {
                    "name": "",
                    "type": "bool",
                    "internalType": "bool"
                }
            ],
            "stateMutability": "view"
        },
        {
            "type": "function",
            "name": "mintVerify",
            "inputs": [
                {
                    "name": "cToken",
                    "type": "address",
                    "internalType": "address"
                },
                {
                    "name": "minter",
                    "type": "address",
                    "internalType": "address"
                },
                {
                    "name": "actualMintAmount",
                    "type": "uint256",
                    "internalType": "uint256"
                },
                {
                    "name": "mintTokens",
                    "type": "uint256",
                    "internalType": "uint256"
                }
            ],
            "outputs": [],
            "stateMutability": "nonpayable"
        },
        {
            "type": "function",
            "name": "oracle",
            "inputs": [],
            "outputs": [
                {
                    "name": "",
                    "type": "address",
                    "internalType": "contract PriceOracle"
                }
            ],
            "stateMutability": "view"
        },
        {
            "type": "function",
            "name": "pauseGuardian",
            "inputs": [],
            "outputs": [
                {
                    "name": "",
                    "type": "address",
                    "internalType": "address"
                }
            ],
            "stateMutability": "view"
        },
        {
            "type": "function",
            "name": "pendingAdmin",
            "inputs": [],
            "outputs": [
                {
                    "name": "",
                    "type": "address",
                    "internalType": "address"
                }
            ],
            "stateMutability": "view"
        },
        {
            "type": "function",
            "name": "pendingComptrollerImplementation",
            "inputs": [],
            "outputs": [
                {
                    "name": "",
                    "type": "address",
                    "internalType": "address"
                }
            ],
            "stateMutability": "view"
        },
        {
            "type": "function",
            "name": "proposal65FixExecuted",
            "inputs": [],
            "outputs": [
                {
                    "name": "",
                    "type": "bool",
                    "internalType": "bool"
                }
            ],
            "stateMutability": "view"
        },
        {
            "type": "function",
            "name": "redeemAllowed",
            "inputs": [
                {
                    "name": "cToken",
                    "type": "address",
                    "internalType": "address"
                },
                {
                    "name": "redeemer",
                    "type": "address",
                    "internalType": "address"
                },
                {
                    "name": "redeemTokens",
                    "type": "uint256",
                    "internalType": "uint256"
                }
            ],
            "outputs": [
                {
                    "name": "",
                    "type": "uint256",
                    "internalType": "uint256"
                }
            ],
            "stateMutability": "nonpayable"
        },
        {
            "type": "function",
            "name": "redeemVerify",
            "inputs": [
                {
                    "name": "cToken",
                    "type": "address",
                    "internalType": "address"
                },
                {
                    "name": "redeemer",
                    "type": "address",
                    "internalType": "address"
                },
                {
                    "name": "redeemAmount",
                    "type": "uint256",
                    "internalType": "uint256"
                },
                {
                    "name": "redeemTokens",
                    "type": "uint256",
                    "internalType": "uint256"
                }
            ],
            "outputs": [],
            "stateMutability": "nonpayable"
        },
        {
            "type": "function",
            "name": "repayBorrowAllowed",
            "inputs": [
                {
                    "name": "cToken",
                    "type": "address",
                    "internalType": "address"
                },
                {
                    "name": "payer",
                    "type": "address",
                    "internalType": "address"
                },
                {
                    "name": "borrower",
                    "type": "address",
                    "internalType": "address"
                },
                {
                    "name": "repayAmount",
                    "type": "uint256",
                    "internalType": "uint256"
                }
            ],
            "outputs": [
                {
                    "name": "",
                    "type": "uint256",
                    "internalType": "uint256"
                }
            ],
            "stateMutability": "nonpayable"
        },
        {
            "type": "function",
            "name": "repayBorrowVerify",
            "inputs": [
                {
                    "name": "cToken",
                    "type": "address",
                    "internalType": "address"
                },
                {
                    "name": "payer",
                    "type": "address",
                    "internalType": "address"
                },
                {
                    "name": "borrower",
                    "type": "address",
                    "internalType": "address"
                },
                {
                    "name": "actualRepayAmount",
                    "type": "uint256",
                    "internalType": "uint256"
                },
                {
                    "name": "borrowerIndex",
                    "type": "uint256",
                    "internalType": "uint256"
                }
            ],
            "outputs": [],
            "stateMutability": "nonpayable"
        },
        {
            "type": "function",
            "name": "seizeAllowed",
            "inputs": [
                {
                    "name": "cTokenCollateral",
                    "type": "address",
                    "internalType": "address"
                },
                {
                    "name": "cTokenBorrowed",
                    "type": "address",
                    "internalType": "address"
                },
                {
                    "name": "liquidator",
                    "type": "address",
                    "internalType": "address"
                },
                {
                    "name": "borrower",
                    "type": "address",
                    "internalType": "address"
                },
                {
                    "name": "seizeTokens",
                    "type": "uint256",
                    "internalType": "uint256"
                }
            ],
            "outputs": [
                {
                    "name": "",
                    "type": "uint256",
                    "internalType": "uint256"
                }
            ],
            "stateMutability": "nonpayable"
        },
        {
            "type": "function",
            "name": "seizeGuardianPaused",
            "inputs": [],
            "outputs": [
                {
                    "name": "",
                    "type": "bool",
                    "internalType": "bool"
                }
            ],
            "stateMutability": "view"
        },
        {
            "type": "function",
            "name": "seizeVerify",
            "inputs": [
                {
                    "name": "cTokenCollateral",
                    "type": "address",
                    "internalType": "address"
                },
                {
                    "name": "cTokenBorrowed",
                    "type": "address",
                    "internalType": "address"
                },
                {
                    "name": "liquidator",
                    "type": "address",
                    "internalType": "address"
                },
                {
                    "name": "borrower",
                    "type": "address",
                    "internalType": "address"
                },
                {
                    "name": "seizeTokens",
                    "type": "uint256",
                    "internalType": "uint256"
                }
            ],
            "outputs": [],
            "stateMutability": "nonpayable"
        },
        {
            "type": "function",
            "name": "transferAllowed",
            "inputs": [
                {
                    "name": "cToken",
                    "type": "address",
                    "internalType": "address"
                },
                {
                    "name": "src",
                    "type": "address",
                    "internalType": "address"
                },
                {
                    "name": "dst",
                    "type": "address",
                    "internalType": "address"
                },
                {
                    "name": "transferTokens",
                    "type": "uint256",
                    "internalType": "uint256"
                }
            ],
            "outputs": [
                {
                    "name": "",
                    "type": "uint256",
                    "internalType": "uint256"
                }
            ],
            "stateMutability": "nonpayable"
        },
        {
            "type": "function",
            "name": "transferGuardianPaused",
            "inputs": [],
            "outputs": [
                {
                    "name": "",
                    "type": "bool",
                    "internalType": "bool"
                }
            ],
            "stateMutability": "view"
        },
        {
            "type": "function",
            "name": "transferVerify",
            "inputs": [
                {
                    "name": "cToken",
                    "type": "address",
                    "internalType": "address"
                },
                {
                    "name": "src",
                    "type": "address",
                    "internalType": "address"
                },
                {
                    "name": "dst",
                    "type": "address",
                    "internalType": "address"
                },
                {
                    "name": "transferTokens",
                    "type": "uint256",
                    "internalType": "uint256"
                }
            ],
            "outputs": [],
            "stateMutability": "nonpayable"
        },
        {
            "type": "function",
            "name": "updateContributorRewards",
            "inputs": [
                {
                    "name": "contributor",
                    "type": "address",
                    "internalType": "address"
                }
            ],
            "outputs": [],
            "stateMutability": "nonpayable"
        },
        {
            "type": "event",
            "name": "ActionPaused",
            "inputs": [
                {
                    "name": "action",
                    "type": "string",
                    "indexed": false,
                    "internalType": "string"
                },
                {
                    "name": "pauseState",
                    "type": "bool",
                    "indexed": false,
                    "internalType": "bool"
                }
            ],
            "anonymous": false
        },
        {
            "type": "event",
            "name": "ActionPaused",
            "inputs": [
                {
                    "name": "cToken",
                    "type": "address",
                    "indexed": false,
                    "internalType": "contract CToken"
                },
                {
                    "name": "action",
                    "type": "string",
                    "indexed": false,
                    "internalType": "string"
                },
                {
                    "name": "pauseState",
                    "type": "bool",
                    "indexed": false,
                    "internalType": "bool"
                }
            ],
            "anonymous": false
        },
        {
            "type": "event",
            "name": "CompAccruedAdjusted",
            "inputs": [
                {
                    "name": "user",
                    "type": "address",
                    "indexed": true,
                    "internalType": "address"
                },
                {
                    "name": "oldCompAccrued",
                    "type": "uint256",
                    "indexed": false,
                    "internalType": "uint256"
                },
                {
                    "name": "newCompAccrued",
                    "type": "uint256",
                    "indexed": false,
                    "internalType": "uint256"
                }
            ],
            "anonymous": false
        },
        {
            "type": "event",
            "name": "CompBorrowSpeedUpdated",
            "inputs": [
                {
                    "name": "cToken",
                    "type": "address",
                    "indexed": true,
                    "internalType": "contract CToken"
                },
                {
                    "name": "newSpeed",
                    "type": "uint256",
                    "indexed": false,
                    "internalType": "uint256"
                }
            ],
            "anonymous": false
        },
        {
            "type": "event",
            "name": "CompGranted",
            "inputs": [
                {
                    "name": "recipient",
                    "type": "address",
                    "indexed": false,
                    "internalType": "address"
                },
                {
                    "name": "amount",
                    "type": "uint256",
                    "indexed": false,
                    "internalType": "uint256"
                }
            ],
            "anonymous": false
        },
        {
            "type": "event",
            "name": "CompReceivableUpdated",
            "inputs": [
                {
                    "name": "user",
                    "type": "address",
                    "indexed": true,
                    "internalType": "address"
                },
                {
                    "name": "oldCompReceivable",
                    "type": "uint256",
                    "indexed": false,
                    "internalType": "uint256"
                },
                {
                    "name": "newCompReceivable",
                    "type": "uint256",
                    "indexed": false,
                    "internalType": "uint256"
                }
            ],
            "anonymous": false
        },
        {
            "type": "event",
            "name": "CompSupplySpeedUpdated",
            "inputs": [
                {
                    "name": "cToken",
                    "type": "address",
                    "indexed": true,
                    "internalType": "contract CToken"
                },
                {
                    "name": "newSpeed",
                    "type": "uint256",
                    "indexed": false,
                    "internalType": "uint256"
                }
            ],
            "anonymous": false
        },
        {
            "type": "event",
            "name": "ContributorCompSpeedUpdated",
            "inputs": [
                {
                    "name": "contributor",
                    "type": "address",
                    "indexed": true,
                    "internalType": "address"
                },
                {
                    "name": "newSpeed",
                    "type": "uint256",
                    "indexed": false,
                    "internalType": "uint256"
                }
            ],
            "anonymous": false
        },
        {
            "type": "event",
            "name": "DistributedBorrowerComp",
            "inputs": [
                {
                    "name": "cToken",
                    "type": "address",
                    "indexed": true,
                    "internalType": "contract CToken"
                },
                {
                    "name": "borrower",
                    "type": "address",
                    "indexed": true,
                    "internalType": "address"
                },
                {
                    "name": "compDelta",
                    "type": "uint256",
                    "indexed": false,
                    "internalType": "uint256"
                },
                {
                    "name": "compBorrowIndex",
                    "type": "uint256",
                    "indexed": false,
                    "internalType": "uint256"
                }
            ],
            "anonymous": false
        },
        {
            "type": "event",
            "name": "DistributedSupplierComp",
            "inputs": [
                {
                    "name": "cToken",
                    "type": "address",
                    "indexed": true,
                    "internalType": "contract CToken"
                },
                {
                    "name": "supplier",
                    "type": "address",
                    "indexed": true,
                    "internalType": "address"
                },
                {
                    "name": "compDelta",
                    "type": "uint256",
                    "indexed": false,
                    "internalType": "uint256"
                },
                {
                    "name": "compSupplyIndex",
                    "type": "uint256",
                    "indexed": false,
                    "internalType": "uint256"
                }
            ],
            "anonymous": false
        },
        {
            "type": "event",
            "name": "Failure",
            "inputs": [
                {
                    "name": "error",
                    "type": "uint256",
                    "indexed": false,
                    "internalType": "uint256"
                },
                {
                    "name": "info",
                    "type": "uint256",
                    "indexed": false,
                    "internalType": "uint256"
                },
                {
                    "name": "detail",
                    "type": "uint256",
                    "indexed": false,
                    "internalType": "uint256"
                }
            ],
            "anonymous": false
        },
        {
            "type": "event",
            "name": "MarketEntered",
            "inputs": [
                {
                    "name": "cToken",
                    "type": "address",
                    "indexed": false,
                    "internalType": "contract CToken"
                },
                {
                    "name": "account",
                    "type": "address",
                    "indexed": false,
                    "internalType": "address"
                }
            ],
            "anonymous": false
        },
        {
            "type": "event",
            "name": "MarketExited",
            "inputs": [
                {
                    "name": "cToken",
                    "type": "address",
                    "indexed": false,
                    "internalType": "contract CToken"
                },
                {
                    "name": "account",
                    "type": "address",
                    "indexed": false,
                    "internalType": "address"
                }
            ],
            "anonymous": false
        },
        {
            "type": "event",
            "name": "MarketListed",
            "inputs": [
                {
                    "name": "cToken",
                    "type": "address",
                    "indexed": false,
                    "internalType": "contract CToken"
                }
            ],
            "anonymous": false
        },
        {
            "type": "event",
            "name": "NewBorrowCap",
            "inputs": [
                {
                    "name": "cToken",
                    "type": "address",
                    "indexed": true,
                    "internalType": "contract CToken"
                },
                {
                    "name": "newBorrowCap",
                    "type": "uint256",
                    "indexed": false,
                    "internalType": "uint256"
                }
            ],
            "anonymous": false
        },
        {
            "type": "event",
            "name": "NewBorrowCapGuardian",
            "inputs": [
                {
                    "name": "oldBorrowCapGuardian",
                    "type": "address",
                    "indexed": false,
                    "internalType": "address"
                },
                {
                    "name": "newBorrowCapGuardian",
                    "type": "address",
                    "indexed": false,
                    "internalType": "address"
                }
            ],
            "anonymous": false
        },
        {
            "type": "event",
            "name": "NewCloseFactor",
            "inputs": [
                {
                    "name": "oldCloseFactorMantissa",
                    "type": "uint256",
                    "indexed": false,
                    "internalType": "uint256"
                },
                {
                    "name": "newCloseFactorMantissa",
                    "type": "uint256",
                    "indexed": false,
                    "internalType": "uint256"
                }
            ],
            "anonymous": false
        },
        {
            "type": "event",
            "name": "NewCollateralFactor",
            "inputs": [
                {
                    "name": "cToken",
                    "type": "address",
                    "indexed": false,
                    "internalType": "contract CToken"
                },
                {
                    "name": "oldCollateralFactorMantissa",
                    "type": "uint256",
                    "indexed": false,
                    "internalType": "uint256"
                },
                {
                    "name": "newCollateralFactorMantissa",
                    "type": "uint256",
                    "indexed": false,
                    "internalType": "uint256"
                }
            ],
            "anonymous": false
        },
        {
            "type": "event",
            "name": "NewLiquidationIncentive",
            "inputs": [
                {
                    "name": "oldLiquidationIncentiveMantissa",
                    "type": "uint256",
                    "indexed": false,
                    "internalType": "uint256"
                },
                {
                    "name": "newLiquidationIncentiveMantissa",
                    "type": "uint256",
                    "indexed": false,
                    "internalType": "uint256"
                }
            ],
            "anonymous": false
        },
        {
            "type": "event",
            "name": "NewPauseGuardian",
            "inputs": [
                {
                    "name": "oldPauseGuardian",
                    "type": "address",
                    "indexed": false,
                    "internalType": "address"
                },
                {
                    "name": "newPauseGuardian",
                    "type": "address",
                    "indexed": false,
                    "internalType": "address"
                }
            ],
            "anonymous": false
        },
        {
            "type": "event",
            "name": "NewPriceOracle",
            "inputs": [
                {
                    "name": "oldPriceOracle",
                    "type": "address",
                    "indexed": false,
                    "internalType": "contract PriceOracle"
                },
                {
                    "name": "newPriceOracle",
                    "type": "address",
                    "indexed": false,
                    "internalType": "contract PriceOracle"
                }
            ],
            "anonymous": false
        }
    ],
    "bytecode": {
        "object": "0x608080604052346026575f80546001600160a01b0319163317905561556f908161002b8239f35b5f80fdfe6080806040526004361015610012575f80fd5b5f3560e01c9081627e3dd2146121d15750806316b95e8f14611fa557806318c882a514611e925780631c3db2e014611e565780631d504dc614611cc85780631d7b33d714611c905780631ededc9114611c6557806321af456914611c3d57806324008a6214611c2157806324a3d62214611bf95780632678224714611bd157806327efe3cb14611acb5780632d70db78146119ee578063317b0b7714611942578063391957d7146118665780633bcf7ec1146117555780633c94786f1461173057806341c728b91461172257806342cbb15c1461170857806347ef3b3b146116d45780634a5844321461169c5780634ada90af1461167f5780634e79238f1461165c5780634ef4c3e1146116425780634fd42e171461162457806351dff989146115c157806352d84d1e1461159857806355ee1fe114611569578063598ee1cb146114b85780635c778605146114aa5780635ec88c791461145d5780635f5af1aa1461143a5780635fc7e71e1461141d578063607ef6c1146112a05780636810dfa6146110355780636a56947e146110275780636aa875b514610fef5780636b79c38d14610f9e5780636d154ea514610f615780636d35bf9114610f53578063731f0c2b14610f16578063741b252514610ef55780637dc0d1d014610ecd57806385b7beb814610e9557806387f7630314610e705780638c57804e14610e1f5780638e8f294b14610dc65780638ebf636414610ce6578063929fe9a114610c8c57806394543c1514610c5f57806394b2294b14610c42578063986ab83814610c0a5780639d1b5a0a14610bdc578063a76b3fda14610bb9578063a7f0e23114610b91578063a8b43948146108d1578063aa900754146108b4578063abfceffc1461087c578063ac0b0bb714610857578063b0772d0b1461082c578063b21be7fd146107dc578063bb82aa5e146107b4578063bdcdc25814610798578063bea6b8b814610760578063c299823814610661578063c488847b1461063c578063ca0af043146105ec578063cc7ebdc4146105b4578063d02f735114610597578063da3d454c1461057e578063dce154491461051c578063dcfbc0c7146104f4578063e4028eee146104cd578063e6653f3d146104a8578063e87554461461048b578063e9af02921461045f578063eabe7d9114610446578063ede4edd01461041b578063f00a7a92146103f9578063f4a433c0146103c15763f851a44014610396575f80fd5b346103bd575f3660031901126103bd575f546040516001600160a01b039091168152602090f35b5f80fd5b346103bd5760203660031901126103bd576001600160a01b036103e261226a565b165f526019602052602060405f2054604051908152f35b346103bd575f3660031901126103bd57602060ff601b54166040519015158152f35b346103bd5760203660031901126103bd57602061043e61043961226a565b613c28565b604051908152f35b346103bd57602061043e61045936612468565b91613be1565b346103bd5760203660031901126103bd5761048961047b61226a565b610483613244565b90612727565b005b346103bd575f3660031901126103bd576020600554604051908152f35b346103bd575f3660031901126103bd57602060ff600a5460a81c166040519015158152f35b346103bd5760403660031901126103bd57602061043e6104eb61226a565b60243590613a03565b346103bd575f3660031901126103bd576003546040516001600160a01b039091168152602090f35b346103bd5760403660031901126103bd5761053561226a565b6001600160a01b03165f908152600860205260409020805460243591908210156103bd57602091610565916124ce565b905460405160039290921b1c6001600160a01b03168152f35b346103bd57602061043e61059136612468565b91613727565b346103bd57602061043e6105aa366124e3565b509291909161359a565b346103bd5760203660031901126103bd576001600160a01b036105d561226a565b165f526014602052602060405f2054604051908152f35b346103bd5760403660031901126103bd5761060561226a565b61060d612280565b6001600160a01b039182165f908152601360209081526040808320949093168252928352819020549051908152f35b346103bd57604061065561064f36612468565b91613358565b82519182526020820152f35b346103bd5760203660031901126103bd576004356001600160401b0381116103bd57610691903690600401612377565b80519061069d82612360565b916106ab604051938461233f565b8083526106b781612360565b602084019290601f19013684375f5b828110610711578385604051918291602083019060208452518091526040830191905f5b8181106106f8575050500390f35b82518452859450602093840193909201916001016106ea565b61072e336001600160a01b036107278486612713565b51166152f3565b90601282101561074c576001916107458288612713565b52016106c6565b634e487b7160e01b5f52602160045260245ffd5b346103bd5760203660031901126103bd576001600160a01b0361078161226a565b165f526018602052602060405f2054604051908152f35b346103bd57602061043e6107ab366123dc565b929190916132e8565b346103bd575f3660031901126103bd576002546040516001600160a01b039091168152602090f35b346103bd5760403660031901126103bd576107f561226a565b6107fd612280565b6001600160a01b039182165f908152601260209081526040808320949093168252928352819020549051908152f35b346103bd575f3660031901126103bd57610853610847613244565b604051918291826125a2565b0390f35b346103bd575f3660031901126103bd57602060ff600a5460b81c166040519015158152f35b346103bd5760203660031901126103bd576001600160a01b0361089d61226a565b165f52600860205261085361084760405f20613297565b346103bd575f3660031901126103bd576020600e54604051908152f35b346103bd5760603660031901126103bd576004356001600160401b0381116103bd57610901903690600401612377565b6024356001600160401b0381116103bd57610920903690600401612545565b906044356001600160401b0381116103bd57610940903690600401612545565b9161095161094c614247565b612b6c565b8151918151831480610b87575b15610b30575f5b83811061096e57005b6001600160a01b036109808284612713565b51169061098d8185612713565b51916109998288612713565b5192815f52600960205260ff60405f20541615610aeb578190815f52601a6020528060405f205403610aa3575b505f5260196020528260405f2054036109e5575b506001915001610965565b60405163aa5af0fd60e01b815292602084600481855afa938415610a98575f94610a64575b5060207f20af8e791cc98f74b2d7a391c80980ca8e5aebf3d4060bf581997b6acae2e53791610a4a60019660405190610a42826122f4565b815285613ed0565b835f52601982528060405f2055604051908152a2866109da565b93506020843d8211610a90575b81610a7e6020938361233f565b810103126103bd579251926020610a0a565b3d9150610a71565b6040513d5f823e3d90fd5b60207fdeafccd0c0b768b2529f7dcbbe58e155d6023059150b7490ed4535cc3744b92d91610ad084615034565b835f52601a82528060405f2055604051908152a280886109c6565b60405162461bcd60e51b815260206004820152601960248201527f636f6d70206d61726b6574206973206e6f74206c6973746564000000000000006044820152606490fd5b60405162461bcd60e51b815260206004820152602960248201527f436f6d7074726f6c6c65723a3a5f736574436f6d7053706565647320696e76616044820152681b1a59081a5b9c1d5d60ba1b6064820152608490fd5b508351831461095e565b346103bd575f3660031901126103bd5760206040516a0c097ce7bc90715b34b9f160241b8152f35b346103bd5760203660031901126103bd57602061043e610bd761226a565b612f46565b346103bd575f3660031901126103bd57602060405173c00e94cb662c3520282e6f5717214004a7f268888152f35b346103bd5760203660031901126103bd576001600160a01b03610c2b61226a565b165f526017602052602060405f2054604051908152f35b346103bd575f3660031901126103bd576020600754604051908152f35b346103bd5760203660031901126103bd576020610c82610c7d61226a565b612e75565b6040519015158152f35b346103bd5760403660031901126103bd57610ca561226a565b6001600160a01b03610cb5612280565b165f526009602052600260405f20019060018060a01b03165f52602052602060ff60405f2054166040519015158152f35b346103bd5760203660031901126103bd576020610d016122b9565b600a5490336001600160a01b038316148015610db3575b610d2190612672565b5f546001600160a01b031633148015610da7575b610d3e906126ce565b15159060ff60b01b8260b01b169060ff60b01b191617600a557fef159d9a32b2472e32b098f954f3ce62d232939f1c207070b584df1814de2de060806040516040815260086040820152672a3930b739b332b960c11b60608201528385820152a1604051908152f35b50801515600114610d35565b505f546001600160a01b03163314610d18565b346103bd5760203660031901126103bd576001600160a01b03610de761226a565b165f526009602052606060405f2060ff8154169060ff6003600183015492015416906040519215158352602083015215156040820152f35b346103bd5760203660031901126103bd576001600160a01b03610e4061226a565b165f908152601160209081526040918290205482516001600160e01b038216815260e09190911c91810191909152f35b346103bd575f3660031901126103bd57602060ff600a5460b01c166040519015158152f35b346103bd5760203660031901126103bd576001600160a01b03610eb661226a565b165f52601c602052602060405f2054604051908152f35b346103bd575f3660031901126103bd576004546040516001600160a01b039091168152602090f35b346103bd5760203660031901126103bd57610489610f1161226a565b612df2565b346103bd5760203660031901126103bd576001600160a01b03610f3761226a565b165f52600b602052602060ff60405f2054166040519015158152f35b346103bd57610489366124e3565b346103bd5760203660031901126103bd576001600160a01b03610f8261226a565b165f52600c602052602060ff60405f2054166040519015158152f35b346103bd5760203660031901126103bd576001600160a01b03610fbf61226a565b165f908152601060209081526040918290205482516001600160e01b038216815260e09190911c91810191909152f35b346103bd5760203660031901126103bd576001600160a01b0361101061226a565b165f52601a602052602060405f2054604051908152f35b346103bd57610489366123dc565b346103bd5760803660031901126103bd576004356001600160401b0381116103bd57611065903690600401612377565b6024356001600160401b0381116103bd57611084903690600401612377565b90604435908115158092036103bd57606435928315158094036103bd57916001805f92149414905b8351811015611232576001600160a01b036110c78286612713565b5116805f52600960205260ff60405f205416156111f5578561113f575b826110f3575b506001016110ac565b9194909361110083615034565b5f5b84518110156111315760019061112b6001600160a01b036111238389612713565b511686615110565b01611102565b5093600191959250906110ea565b90939491926040519263aa5af0fd60e01b8452602084600481865afa938415610a98575f946111c2575b5060405193611177856122f4565b84526111838484613ed0565b5f5b82518110156111b5576001906111af866001600160a01b036111a78488612713565b5116876140c4565b01611185565b50959490939250906110e4565b9093506020813d82116111ed575b816111dd6020938361233f565b810103126103bd57519287611169565b3d91506111d0565b60405162461bcd60e51b81526020600482015260156024820152741b585c9ad95d081b5d5cdd081899481b1a5cdd1959605a1b6044820152606490fd5b825f5b81518110156104895760019061127c6001600160a01b036112568386612713565b5116838060a01b036112688487612713565b51165f52601460205260405f20549061426f565b828060a01b0361128c8386612713565b51165f52601460205260405f205501611235565b346103bd576112ae3661221a565b9160018060a01b035f541633148015611409575b156113a6578015158061139d575b15611368575f5b8181106112e057005b806112ee60019286866125e4565b35828060a01b0361130861130384878b6125e4565b612dde565b165f52601660205260405f20556113236113038285896125e4565b7f6f1951b2aad10f3fc81b86d91105b413a5b3f847a34bbc5ce1904201b14438f660206113518489896125e4565b3592604051938452858060a01b031692a2016112d7565b60405162461bcd60e51b815260206004820152600d60248201526c1a5b9d985b1a59081a5b9c1d5d609a1b6044820152606490fd5b508281146112d0565b60405162461bcd60e51b815260206004820152603560248201527f6f6e6c792061646d696e206f7220626f72726f772063617020677561726469616044820152746e2063616e2073657420626f72726f77206361707360581b6064820152608490fd5b506015546001600160a01b031633146112c2565b346103bd57602061043e611430366124e3565b9390929150612c54565b346103bd5760203660031901126103bd57602061043e61145861226a565b612bb8565b346103bd5760203660031901126103bd5761147e61147961226a565b61436e565b6012839293101561074c5761085390604051938493846040919493926060820195825260208201520152565b346103bd5761048936612468565b346103bd5760403660031901126103bd576114d161226a565b7f386537fa92edc3319af95f1f904dcf1900021e4f3f4e08169a577a09076e66b360206024359261150361094c614247565b61150c81612df2565b8361154b576001600160a01b0381165f9081526018835260408120555b6001600160a01b03165f818152601783526040908190208590555193845292a2005b6001600160a01b0381165f9081526018835260409020439055611529565b346103bd5760203660031901126103bd576004356001600160a01b03811681036103bd5761043e602091612ad8565b346103bd5760203660031901126103bd57600435600d548110156103bd576105656020916124a2565b346103bd576115cf3661242a565b15925090508161161a575b506115e157005b60405162461bcd60e51b815260206004820152601160248201527072656465656d546f6b656e73207a65726f60781b6044820152606490fd5b90501515816115da565b346103bd5760203660031901126103bd57602061043e600435612a61565b346103bd57602061043e61165536612468565b50906129dc565b346103bd5761147e61166d3661242a565b9290916001600160a01b031690614d0f565b346103bd575f3660031901126103bd576020600654604051908152f35b346103bd5760203660031901126103bd576001600160a01b036116bd61226a565b165f526016602052602060405f2054604051908152f35b346103bd5760c03660031901126103bd576116ed61226a565b506116f6612280565b506116ff6122c8565b506104896122de565b346103bd575f3660031901126103bd576020604051438152f35b346103bd576104893661242a565b346103bd575f3660031901126103bd57602060ff600a5460a01c166040519015158152f35b346103bd5760403660031901126103bd57602061177061226a565b7f71aec636243f9709bb0007ae15e9afb8150ab01716d75fd7573be5cc096e03b060a061179b6122aa565b92600180831b031692835f52600985526117bb60ff60405f205416612615565b600180831b03600a541633148015611850575b6117d790612672565b600180831b035f541633148015611844575b6117f2906126ce565b835f52600b85526118128160405f209060ff801983541691151516179055565b6040519384526060858501526004606085015263135a5b9d60e21b6080850152151592836040820152a1604051908152f35b508015156001146117e9565b506117d7600180841b035f5416331490506117ce565b346103bd5760203660031901126103bd5761187f61226a565b5f546001600160a01b031633036118ee57601580546001600160a01b039283166001600160a01b0319821681179092556040805193909116835260208301919091527feda98690e518e9a05f8ec6837663e188211b2da8f4906648b323f2c1d4434e299190819081015b0390a1005b60405162461bcd60e51b815260206004820152602660248201527f6f6e6c792061646d696e2063616e2073657420626f72726f772063617020677560448201526530b93234b0b760d11b6064820152608490fd5b346103bd5760203660031901126103bd575f54600435906001600160a01b031633036119a95760407f3b9670cf975d26958e754b57098eaa2ac914d8d2a31b83257997b9f346110fd991600554908060055582519182526020820152a160206040515f8152f35b60405162461bcd60e51b815260206004820152601f60248201527f6f6e6c792061646d696e2063616e2073657420636c6f736520666163746f72006044820152606490fd5b346103bd5760203660031901126103bd576020611a096122b9565b600a5490336001600160a01b038316148015611ab8575b611a2990612672565b5f546001600160a01b031633148015611aac575b611a46906126ce565b15159060ff60b81b8260b81b169060ff60b81b191617600a557fef159d9a32b2472e32b098f954f3ce62d232939f1c207070b584df1814de2de060806040516040815260056040820152645365697a6560d81b60608201528385820152a1604051908152f35b50801515600114611a3d565b505f546001600160a01b03163314611a20565b346103bd5760403660031901126103bd57611ae461226a565b602435611aef614247565b15611b8c57611afe818361426f565b611b4757604080516001600160a01b03909316835260208301919091527f98b2f82a3a07f223a0be64b3d0f47711c64dccd1feafb94aa28156b38cd9695c9190819081016118e9565b60405162461bcd60e51b815260206004820152601b60248201527f696e73756666696369656e7420636f6d7020666f72206772616e7400000000006044820152606490fd5b60405162461bcd60e51b815260206004820152601960248201527f6f6e6c792061646d696e2063616e206772616e7420636f6d70000000000000006044820152606490fd5b346103bd575f3660031901126103bd576001546040516001600160a01b039091168152602090f35b346103bd575f3660031901126103bd57600a546040516001600160a01b039091168152602090f35b346103bd57602061043e611c34366123dc565b5091905061292e565b346103bd575f3660031901126103bd576015546040516001600160a01b039091168152602090f35b346103bd5760a03660031901126103bd57611c7e61226a565b50611c87612280565b506104896122c8565b346103bd5760203660031901126103bd576001600160a01b03611cb161226a565b165f52600f602052602060405f2054604051908152f35b346103bd5760203660031901126103bd576004356001600160a01b038116908190036103bd576040516303e1469160e61b8152602081600481855afa908115610a98575f91611e14575b506001600160a01b03163303611dbf5760205f9160046040518094819363307a00cd60e21b83525af1908115610a98575f91611d8d575b50611d5057005b60405162461bcd60e51b815260206004820152601560248201527418da185b99d9481b9bdd08185d5d1a1bdc9a5e9959605a1b6044820152606490fd5b90506020813d602011611db7575b81611da86020938361233f565b810103126103bd575181611d49565b3d9150611d9b565b60405162461bcd60e51b815260206004820152602760248201527f6f6e6c7920756e6974726f6c6c65722061646d696e2063616e206368616e676560448201526620627261696e7360c81b6064820152608490fd5b90506020813d602011611e4e575b81611e2f6020938361233f565b810103126103bd57516001600160a01b03811681036103bd5782611d12565b3d9150611e22565b346103bd5760403660031901126103bd57611e6f61226a565b602435906001600160401b0382116103bd57610483610489923690600401612377565b346103bd5760403660031901126103bd576020611ead61226a565b7f71aec636243f9709bb0007ae15e9afb8150ab01716d75fd7573be5cc096e03b060a0611ed86122aa565b92600180831b031692835f5260098552611ef860ff60405f205416612615565b600180831b03600a541633148015611f8f575b611f1490612672565b600180831b035f541633148015611f83575b611f2f906126ce565b835f52600c8552611f4f8160405f209060ff801983541691151516179055565b6040519384526060858501526006606085015265426f72726f7760d01b6080850152151592836040820152a1604051908152f35b50801515600114611f26565b50611f14600180841b035f541633149050611f0b565b346103bd57611fb33661221a565b5f54909392906001600160a01b031633036121825760ff601b541661212e578381036120f9575f5b818110611ff157601b805460ff19166001179055005b611ffc8183866125e4565b356001600160a01b03811691908290036103bd57816001925f52601460205260405f205461202b8389886125e4565b358282808311612095575b505080612047575b50505001611fdb565b816120756040927f4a5c134e28b537a76546993ea37f3b60d9190476df7356d3842aa40902e20f04946125f4565b845f52601460205280835f205582519182526020820152a286808061203e565b6120c36040917f17fea09d9a7ca41b2f9f9118f18f44848a62e9c70d55dd4385131eb2cf1b7e4793946125f4565b835f52601c6020526120d9825f20549182613ec3565b845f52601c60205280835f205582519182526020820152a2808282612036565b60405162461bcd60e51b815260206004820152600d60248201526c125b9d985b1a59081a5b9c1d5d609a1b6044820152606490fd5b60405162461bcd60e51b815260206004820152602660248201527f416c72656164792065786563757465642074686973206f6e652d6f66662066756044820152653731ba34b7b760d11b6064820152608490fd5b60405162461bcd60e51b815260206004820152602160248201527f4f6e6c792061646d696e2063616e2063616c6c20746869732066756e6374696f6044820152603760f91b6064820152608490fd5b346103bd575f3660031901126103bd5780600160209252f35b9181601f840112156103bd578235916001600160401b0383116103bd576020808501948460051b0101116103bd57565b60406003198201126103bd576004356001600160401b0381116103bd5781612244916004016121ea565b92909291602435906001600160401b0382116103bd57612266916004016121ea565b9091565b600435906001600160a01b03821682036103bd57565b602435906001600160a01b03821682036103bd57565b35906001600160a01b03821682036103bd57565b6024359081151582036103bd57565b6004359081151582036103bd57565b604435906001600160a01b03821682036103bd57565b606435906001600160a01b03821682036103bd57565b602081019081106001600160401b0382111761230f57604052565b634e487b7160e01b5f52604160045260245ffd5b61014081019081106001600160401b0382111761230f57604052565b90601f801991011681019081106001600160401b0382111761230f57604052565b6001600160401b03811161230f5760051b60200190565b9080601f830112156103bd57813561238e81612360565b9261239c604051948561233f565b81845260208085019260051b8201019283116103bd57602001905b8282106123c45750505090565b602080916123d184612296565b8152019101906123b7565b60809060031901126103bd576004356001600160a01b03811681036103bd57906024356001600160a01b03811681036103bd57906044356001600160a01b03811681036103bd579060643590565b60809060031901126103bd576004356001600160a01b03811681036103bd57906024356001600160a01b03811681036103bd57906044359060643590565b60609060031901126103bd576004356001600160a01b03811681036103bd57906024356001600160a01b03811681036103bd579060443590565b600d548110156124ba57600d5f5260205f2001905f90565b634e487b7160e01b5f52603260045260245ffd5b80548210156124ba575f5260205f2001905f90565b60a09060031901126103bd576004356001600160a01b03811681036103bd57906024356001600160a01b03811681036103bd57906044356001600160a01b03811681036103bd57906064356001600160a01b03811681036103bd579060843590565b9080601f830112156103bd57813561255c81612360565b9261256a604051948561233f565b81845260208085019260051b8201019283116103bd57602001905b8282106125925750505090565b8135815260209182019101612585565b60206040818301928281528451809452019201905f5b8181106125c55750505090565b82516001600160a01b03168452602093840193909201916001016125b8565b91908110156124ba5760051b0190565b9190820391821161260157565b634e487b7160e01b5f52601160045260245ffd5b1561261c57565b60405162461bcd60e51b815260206004820152602860248201527f63616e6e6f742070617573652061206d61726b65742074686174206973206e6f6044820152671d081b1a5cdd195960c21b6064820152608490fd5b1561267957565b60405162461bcd60e51b815260206004820152602760248201527f6f6e6c7920706175736520677561726469616e20616e642061646d696e2063616044820152666e20706175736560c81b6064820152608490fd5b156126d557565b60405162461bcd60e51b81526020600482015260166024820152756f6e6c792061646d696e2063616e20756e706175736560501b6044820152606490fd5b80518210156124ba5760209160051b010190565b91909160409283519161273a858461233f565b600183526020830190601f1986013683378351156124ba576001600160a01b0316905291925f925b80518410156128bb576001600160a01b0361277d8583612713565b511690815f52600960205260ff835f2054161561287f57825163aa5af0fd60e01b815292602084600481865afa938415612875575f94612842575b508051936127c5856122f4565b84526127d18484613ed0565b5f5b85518110156127fb576001906127f5866001600160a01b036111a7848b612713565b016127d3565b509192509461280983615034565b5f5b84518110156128325760019061282c6001600160a01b036111238389612713565b0161280b565b5094600190940193909150612762565b9093506020813d821161286d575b8161285d6020938361233f565b810103126103bd5751925f6127b8565b3d9150612850565b50513d5f823e3d90fd5b825162461bcd60e51b81526020600482015260156024820152741b585c9ad95d081b5d5cdd081899481b1a5cdd1959605a1b6044820152606490fd5b5091505f5b8151811015612929576001906129066001600160a01b036128e18386612713565b5116838060a01b036128f38487612713565b51165f526014602052855f20549061426f565b828060a01b036129168386612713565b51165f526014602052845f2055016128c0565b505050565b6001600160a01b0381165f8181526009602052604090205490929060ff16156129d45760206004936040519485809263aa5af0fd60e01b82525afa918215610a98575f9261299e575b61299a935060405192612989846122f4565b83526129958382613ed0565b6140c4565b5f90565b91506020833d6020116129cc575b816129b96020938361233f565b810103126103bd5761299a925191612977565b3d91506129ac565b505050600990565b6001600160a01b0381165f818152600b602052604090205491929160ff16612a2b575f52600960205260ff60405f20541615612a245781612a1f61299a93615034565b615110565b5050600990565b60405162461bcd60e51b815260206004820152600e60248201526d1b5a5b9d081a5cc81c185d5cd95960921b6044820152606490fd5b5f546001600160a01b03163303612aad5760407faeba5a6c40a8ac138134bff1aaa65debf25971188a58804bad717f82f0ec131691600654908060065582519182526020820152a15f90565b505f51602061551a5f395f51905f52606060405160018152600b60208201525f6040820152a1600190565b5f546001600160a01b03163303612b4157600480546001600160a01b039283166001600160a01b0319821681179092556040805193909116835260208301919091527fd52b2b9b7e9ee655fcb95d2e5b9e0c9f69e7ef2b8e9d2d0ea78402d576d22e2291a15f90565b505f51602061551a5f395f51905f52606060405160018152601060208201525f6040820152a1600190565b15612b7357565b60405162461bcd60e51b815260206004820152601d60248201527f6f6e6c792061646d696e2063616e2073657420636f6d702073706565640000006044820152606490fd5b5f546001600160a01b03163303612c2957600a80546001600160a01b039283166001600160a01b0319821681179092556040805193909116835260208301919091527f0613b6ee6a04f0d09f390e4d9318894b9f6ac7fd83897cd8d18896ba579c401e9190819081015b0390a15f90565b505f51602061551a5f395f51905f52606060405160018152601360208201525f6040820152a1600190565b6001600160a01b03165f8181526009602052604090205490929160ff90911615908115612dbc575b506129d4576040516395dd919360e01b81526001600160a01b038216600482015291602083602481845afa928315610a98575f93612d86575b50612cbf90612e75565b15612d24575010612cce575f90565b60405162461bcd60e51b815260206004820152602860248201527f43616e206e6f74207265706179206d6f7265207468616e2074686520746f74616044820152676c20626f72726f7760c01b6064820152608490fd5b612d2d9061436e565b919050601281101561074c5780612d7f575015612d7857612d68670de0b6b3a76400009160055460405190612d61826122f4565b8152615500565b510410612d73575f90565b601190565b5050600390565b9250505090565b9092506020813d602011612db4575b81612da26020938361233f565b810103126103bd575191612cbf612cb5565b3d9150612d95565b6001600160a01b03165f9081526009602052604081205460ff16159150612c7c565b356001600160a01b03811681036103bd5790565b6001600160a01b03165f81815260176020908152604080832054601890925290912054612e1f90436125f4565b80151580612e6c575b612e3157505050565b612e5091612e3e91615260565b825f52601460205260405f2054613ec3565b815f52601460205260405f20555f5260186020524360405f2055565b50811515612e28565b6001600160a01b03165f81815260096020526040902060010154159081612f11575b81612ea0575090565b6040516305cee64160e21b81529150602090829060049082905afa8015610a98575f90612ed7575b670de0b6b3a764000091501490565b506020813d602011612f09575b81612ef16020938361233f565b810103126103bd57670de0b6b3a76400009051612ec8565b3d9150612ee4565b8091505f52600c602052600160ff60405f20541615151490612e97565b908160209103126103bd575180151581036103bd5790565b5f546001600160a01b03163303613219576001600160a01b03165f8181526009602052604090205460ff166131ee57604051637f4e225760e11b8152602081600481855afa8015610a98576131c1575b50805f5260096020525f6001604082208160ff198254161781556003810160ff19815416905501555f600d54905b81811061315c575050600d54600160401b81101561230f578161303a7fcf583bb0c569eb967f806b11601c4cb93c10310485c67add5f8362c2f212321f9361301684600160209601600d55600d6124ce565b81546001600160a01b0393841660039290921b91821b9390911b1916919091179055565b61308160405161304b60408261233f565b601c81527f626c6f636b206e756d626572206578636565647320333220626974730000000084820152640100000000431061541c565b61310b63ffffffff4316825f526010845260405f20835f52601185526130e88260405f2060018060e01b0384541615613139575b80546001600160e01b0316156131165780546001600160e01b031660e09290921b6001600160e01b031916919091179055565b80546001600160e01b031660e09290921b6001600160e01b031916919091179055565b604051908152a15f90565b80546001600160e01b0319166a0c097ce7bc90715b34b9f160241b1781556130e8565b83546001600160e01b0319166a0c097ce7bc90715b34b9f160241b1784556130b5565b82613166826124a2565b905460039190911b1c6001600160a01b03161461318557600101612fc4565b60405162461bcd60e51b81526020600482015260146024820152731b585c9ad95d08185b1c9958591e48185919195960621b6044820152606490fd5b6131e29060203d6020116131e7575b6131da818361233f565b810190612f2e565b612f96565b503d6131d0565b505f51602061551a5f395f51905f526060604051600a8152601160208201525f6040820152a1600a90565b505f51602061551a5f395f51905f52606060405160018152601260208201525f6040820152a1600190565b60405190600d548083528260208101600d5f5260205f20925f5b8181106132755750506132739250038361233f565b565b84546001600160a01b031683526001948501948794506020909301920161325e565b90604051918281549182825260208201905f5260205f20925f5b8181106132c65750506132739250038361233f565b84546001600160a01b03168352600194850194879450602090930192016132b1565b909260ff600a5460b01c1661331e57613302908483615273565b80612d7f5750612a1f61299a9361331883615034565b82615110565b60405162461bcd60e51b81526020600482015260126024820152711d1c985b9cd9995c881a5cc81c185d5cd95960721b6044820152606490fd5b6004805460405163fc57d4df60e01b81526001600160a01b0393841692810192909252909392911690602084602481855afa938415610a98575f94613546575b5092602060249460018060a01b0316926040519586809263fc57d4df60e01b82528660048301525afa938415610a98575f94613512575b508015801561350a575b6134ff5760206004926040519384809263182df0f560e01b82525afa918215610a98575f926134c9575b509061345c61346a925f604051613419816122f4565b525f604051613427816122f4565b525f604051613435816122f4565b5260065460405190613446826122f4565b815260405191613455836122f4565b82526153e4565b9360405190613446826122f4565b915f604051613478816122f4565b525190670de0b6b3a7640000820291808304670de0b6b3a76400001490151715612601576134b46134c192670de0b6b3a76400009451906153c6565b60405190612d61826122f4565b5104905f9190565b91506020823d6020116134f7575b816134e46020938361233f565b810103126103bd5790519061345c613403565b3d91506134d7565b50505050600d905f90565b5083156133d9565b9093506020813d60201161353e575b8161352e6020938361233f565b810103126103bd5751925f6133cf565b3d9150613521565b93506020843d602011613573575b816135616020938361233f565b810103126103bd579251926020613398565b3d9150613554565b908160209103126103bd57516001600160a01b03811681036103bd5790565b9060ff600a5460b81c166136d5576001600160a01b0382165f8181526009602052604090205490919060ff161580156136b3575b6136a957602060049260405193848092635fe3b56760e01b82525afa918215610a98575f92613684575b50604051635fe3b56760e01b815290602090829060049082906001600160a01b03165afa908115610a98575f91613655575b506001600160a01b0390811691160361364d57612a1f61299a9361331883615034565b505050600290565b613677915060203d60201161367d575b61366f818361233f565b81019061357b565b5f61362a565b503d613665565b60049192506136a1602091823d841161367d5761366f818361233f565b9291506135f8565b5050505050600990565b506001600160a01b0381165f9081526009602052604090205460ff16156135ce565b60405162461bcd60e51b815260206004820152600f60248201526e1cd95a5e99481a5cc81c185d5cd959608a1b6044820152606490fd5b1561371357565b634e487b7160e01b5f52600160045260245ffd5b9060018060a01b03821692835f52600c60205260ff60405f2054166139cb57835f52600960205260ff60405f205416156139c257835f526009602052600260405f200160018060a01b0383165f5260205260ff60405f20541615613933575b6004805460405163fc57d4df60e01b8152918201869052602090829060249082906001600160a01b03165afa908115610a98575f91613901575b50156138f857835f52601660205260405f205480613842575b506137e59084836146df565b919050601281101561074c578061383a57506138325760206004936040519485809263aa5af0fd60e01b82525afa918215610a98575f9261299e5761299a935060405192612989846122f4565b505050600490565b935050505090565b6040516308f7a6e360e31b8152602081600481895afa8015610a985783905f906138c2575b6138719250613ec3565b101561387d575f6137d9565b60405162461bcd60e51b815260206004820152601960248201527f6d61726b657420626f72726f77206361702072656163686564000000000000006044820152606490fd5b50506020813d6020116138f0575b816138dd6020938361233f565b810103126103bd57826138719151613867565b3d91506138d0565b50505050600d90565b90506020813d60201161392b575b8161391c6020938361233f565b810103126103bd57515f6137c0565b3d915061390f565b8333036139855761394482336152f3565b601281101561074c578061383a5750835f526009602052600260405f200160018060a01b0383165f5260205261398060ff60405f20541661370c565b613786565b60405162461bcd60e51b815260206004820152601560248201527439b2b73232b91036bab9ba1031329031aa37b5b2b760591b6044820152606490fd5b50505050600990565b60405162461bcd60e51b815260206004820152601060248201526f189bdc9c9bddc81a5cc81c185d5cd95960821b6044820152606490fd5b5f546001600160a01b03163303613bb5576001600160a01b03165f818152600960205260409020805490919060ff1615613b8857604051613a43816122f4565b838152670c7d713b49da0000604051613a5b816122f4565b5251670c7d713b49da000010613b5b5782151580613ae7575b613aba577f70483e6592cd5182d45ac970e05bc62cdcc90e9d8ef2c2dbe686cf383bcd7fc592600160609301818154915560405192835260208301526040820152a15f90565b5050505f51602061551a5f395f51905f526060604051600d8152600960208201525f6040820152a1600d90565b506004805460405163fc57d4df60e01b8152918201839052602090829060249082906001600160a01b03165afa908115610a98575f91613b29575b5015613a74565b90506020813d602011613b53575b81613b446020938361233f565b810103126103bd57515f613b22565b3d9150613b37565b5050505f51602061551a5f395f51905f52606060405160068152600860208201525f6040820152a1600690565b5050505f51602061551a5f395f51905f52606060405160098152600760208201525f6040820152a1600990565b50505f51602061551a5f395f51905f52606060405160018152600660208201525f6040820152a1600190565b91613bed908284615273565b9182613c015761299a9250612a1f81615034565b505090565b91908260809103126103bd578151916020810151916060604083015192015190565b6040516361bfb47160e11b81523360048201526001600160a01b0382169190608081602481865afa8015610a98575f5f925f92613e8e575b50613e3b57613e0e57613c74913390615273565b80613de157505f818152600960209081526040808320338452600201918290529091205460ff1615613ddb57335f90815260209182526040808220805460ff19169055600890925220613cc690613297565b9081519182905f5b828110613dac575b5050613ce390831061370c565b335f52600860205260405f20918254905f19820191821161260157613016613d0e613d2793866124ce565b905460039190911b1c6001600160a01b031691856124ce565b8154908115613d98577fe699a64c18b07ac5b7301aa273f36a2287239eb9501d81950672794afba29a0d92612c22925f190190613d6482826124ce565b81546001600160a01b0360039290921b82901b19169091559190556040805192909116825233602083015290918291820190565b634e487b7160e01b5f52603160045260245ffd5b836001600160a01b03613dbf8385612713565b511614613dce57600101613cce565b9350613ce390505f613cd6565b50505f90565b5f51602061551a5f395f51905f52915060609060405190600e8252600360208301526040820152a1600e90565b5050505f51602061551a5f395f51905f526060604051600c8152600260208201525f6040820152a1600c90565b60405162461bcd60e51b815260206004820152602560248201527f657869744d61726b65743a206765744163636f756e74536e617073686f742066604482015264185a5b195960da1b6064820152608490fd5b915050613eb3915060803d608011613ebc575b613eab818361233f565b810190613c06565b5090915f613c60565b503d613ea1565b9190820180921161260157565b60018060a01b031690815f52601160205260405f20825f52601960205260405f205492613f3b604051613f0460408261233f565b601c81527f626c6f636b206e756d62657220657863656564732033322062697473000000006020820152640100000000431061541c565b63ffffffff431692613f51835460e01c856125f4565b9182151580806140bb575b1561408d57506020600491604051928380926308f7a6e360e31b82525afa908115610a98575f91614057575b5094613f9a613fa09261327397615463565b92615260565b811561403e57613fd291613fb391615492565b8254604051906001600160e01b0316613fcb826122f4565b81526154e4565b5161401a604051613fe460408261233f565b601a81527f6e657720696e64657820657863656564732032323420626974730000000000006020820152600160e01b831061541c565b60e09290921b6001600160e01b0319166001600160e01b0392909216919091179055565b5050613fd260405161404f816122f4565b5f8152613fb3565b9590506020863d602011614085575b816140736020938361233f565b810103126103bd579451613f9a613f88565b3d9150614066565b93955050505061409b575050565b81546001600160e01b031660e09190911b6001600160e01b031916179055565b50861515613f5c565b6001600160a01b039081165f8181526011602090815260408083205460138352818420958716845294909152902080546001600160e01b0390931690819055929390929180158061422f575b61421a575b61411f90836125f4565b906040519161412d836122f4565b82526040516395dd919360e01b81526001600160a01b039095166004860181905294602081602481885afa908115610a98575f916141e0575b506141b06040936141a87f1fc3ecc087d8d2d15e23d0032af5a47059c3892d003d8e139fdcb6bb327c99a696946a0c097ce7bc90715b34b9f160241b94615463565b905190615260565b0490855f5260146020526141c782845f2054613ec3565b865f526014602052835f205582519182526020820152a3565b90506020939193813d602011614212575b816141fe6020938361233f565b810103126103bd57519092906141b0614166565b3d91506141f1565b506a0c097ce7bc90715b34b9f160241b614115565b506a0c097ce7bc90715b34b9f160241b831015614110565b5f546001600160a01b03163314801561425d5790565b506002546001600160a01b0316331490565b6040516370a0823160e01b815230600482015260208160248173c00e94cb662c3520282e6f5717214004a7f268885afa908115610a98575f9161433c575b508215159081614331575b506142c1575090565b60405163a9059cbb60e01b81526001600160a01b0391909116600482015260248101919091526020816044815f73c00e94cb662c3520282e6f5717214004a7f268885af18015610a985761431457505f90565b61432c9060203d6020116131e7576131da818361233f565b505f90565b90508211155f6142b8565b90506020813d602011614366575b816143576020938361233f565b810103126103bd57515f6142ad565b3d915061434a565b906040519161437c83612323565b5f83525f60208401525f60408401525f60608401525f60808401525f60a08401526040516143a9816122f4565b5f815260c08401526040516143bd816122f4565b5f815260e08401526040516143d1816122f4565b5f81526101008401526040516143e6816122f4565b5f815261012084015260018060a01b0381165f52600860205261440b60405f20613297565b6004549092906001600160a01b03165f5b845181101561469f576001600160a01b036144378287612713565b516040516361bfb47160e11b81526001600160a01b0387166004820152911690608081602481855afa8015610a98575f915f915f915f9161467d575b5060808b015260608a0152604089015261466e57805f526009602052600160405f200154604051906144a4826122f4565b815260c08801526080870151604051906144bd826122f4565b815260e088015260405163fc57d4df60e01b815260048101829052602081602481875afa908115610a98575f9161463d575b508060a0890152801561462d5760405190614509826122f4565b815261010088015261455d61453661452a60c08a015160e08b0151906153e4565b6101008a0151906153e4565b806101208a0152670de0b6b3a764000061455660408b01518b5193615500565b5104613ec3565b8752614584610100880151670de0b6b3a764000061455660608b015160208c015193615500565b908160208901521561459a575b5060010161441c565b6101208701515f6040516145ad816122f4565b52515f9190156001171561260157670de0b6b3a76400006145de92604051906145d5826122f4565b81525104613ec3565b908160208801526101008701515f6040516145f8816122f4565b52515f90156001171561260157600192670de0b6b3a764000061462292604051906145d5826122f4565b602088015290614591565b50600d96505f9550859450505050565b90506020813d8211614666575b816146576020938361233f565b810103126103bd57515f6144ef565b3d915061464a565b50600f95505f94508493505050565b92505050614699915060803d8111613ebc57613eab818361233f565b5f614473565b505092915050805160208201518082115f146146ce5750508060206146c89251910151906125f4565b5f918290565b6146d892506125f4565b5f915f9190565b90929192604051916146f083612323565b5f83525f60208401525f60408401525f60608401525f60808401525f60a084015260405161471d816122f4565b5f815260c0840152604051614731816122f4565b5f815260e0840152604051614745816122f4565b5f815261010084015260405161475a816122f4565b5f815261012084015260018060a01b0381165f52600860205261477f60405f20613297565b6004549094906001600160a01b03165f5b86518110156149c9576001600160a01b036147ab8289612713565b516040516361bfb47160e11b81526001600160a01b038716600482015291169190608081602481865afa8015610a98575f915f915f915f916149a7575b5060808b015260608a0152604089015261499557815f526009602052600160405f20015460405190614819826122f4565b815260c0880152608087015160405190614832826122f4565b815260e088015260405163fc57d4df60e01b815260048101839052602081602481875afa908115610a98575f91614964575b508060a08901528015614951576040519061487e826122f4565b815261010088015261489f61453661452a60c08a015160e08b0151906153e4565b87526148c6610100880151670de0b6b3a764000061455660608b015160208c015193615500565b60208801819052916001600160a01b038716146148e8575b6001915001614790565b6101208701515f6040516148fb816122f4565b52515f929015600117156126015761492961494791670de0b6b3a7640000600195604051906145d5826122f4565b8060208a0152670de0b6b3a76400006145568c6101008c0151615500565b60208801526148de565b50505050945050505050600d905f905f90565b90506020813d821161498d575b8161497e6020938361233f565b810103126103bd57515f614864565b3d9150614971565b505050945050505050600f905f905f90565b925050506149c3915060803d8111613ebc57613eab818361233f565b5f6147e8565b5050945050509050805160208201518082115f146146ce5750508060206146c89251910151906125f4565b929160405193614a0385612323565b5f85525f60208601525f60408601525f60608601525f60808601525f60a0860152604051614a30816122f4565b5f815260c0860152604051614a44816122f4565b5f815260e0860152604051614a58816122f4565b5f8152610100860152604051614a6d816122f4565b5f815261012086015260018060a01b0381165f526008602052614a9260405f20613297565b6004549094906001600160a01b03165f5b8651811015614ce4576001600160a01b03614abe8289612713565b516040516361bfb47160e11b81526001600160a01b0387166004820152911690608081602481855afa8015610a98575f915f915f915f91614cc2575b5060808d015260608c015260408b015261499557805f526009602052600160405f20015460405190614b2b826122f4565b815260c08a0152608089015160405190614b44826122f4565b815260e08a015260405163fc57d4df60e01b815260048101829052602081602481875afa908115610a98575f91614c91575b508060a08b015280156149515760405190614b90826122f4565b81526101008a0152614bdd614bbd614bb160c08c015160e08d0151906153e4565b6101008c0151906153e4565b806101208c0152670de0b6b3a764000061455660408d01518d5193615500565b8952614c056101008a0151670de0b6b3a76400006145568c6020606082015191015193615500565b60208a01819052906001600160a01b03881614614c26575b50600101614aa3565b614c4290670de0b6b3a7640000614556886101208d0151615500565b908160208a01526101008901515f604051614c5c816122f4565b52515f90156001171561260157600192670de0b6b3a7640000614c8692604051906145d5826122f4565b60208a015290614c1d565b90506020813d8211614cba575b81614cab6020938361233f565b810103126103bd57515f614b76565b3d9150614c9e565b92505050614cde915060803d8111613ebc57613eab818361233f565b5f614afa565b5050949350505050805160208201518082115f146146ce5750508060206146c89251910151906125f4565b92919060405192614d1f84612323565b5f84525f60208501525f60408501525f60608501525f60808501525f60a0850152604051614d4c816122f4565b5f815260c0850152604051614d60816122f4565b5f815260e0850152604051614d74816122f4565b5f8152610100850152604051614d89816122f4565b5f815261012085015260018060a01b0385165f526008602052614dae60405f20613297565b6004549095906001600160a01b03165f5b8751811015615009576001600160a01b03614dda828a612713565b516040516361bfb47160e11b81526001600160a01b038616600482015291169190608081602481865afa8015610a98575f915f915f915f91614fe7575b5060808c015260608b015260408a0152614fd557815f526009602052600160405f20015460405190614e48826122f4565b815260c0890152608088015160405190614e61826122f4565b815260e089015260405163fc57d4df60e01b81526004810183905291602083602481875afa928315610a98575f93614fa2575b508260a08a01528215614f8f5788889160019460405190614eb4826122f4565b8152610100830152614f01614ee1614ed560c085015160e0860151906153e4565b610100850151906153e4565b80610120850152670de0b6b3a76400006145566040860151865193615500565b8252614f28610100830151670de0b6b3a76400006145566060860151602087015193615500565b90816020840152858060a01b038a1614614f46575b50505001614dbf565b670de0b6b3a7640000614556614f8294610120614f64950151615500565b8060208b0152670de0b6b3a7640000614556886101008d0151615500565b602089015286885f614f3d565b50505050505050505050600d905f905f90565b9092506020813d8211614fcd575b81614fbd6020938361233f565b810103126103bd5751915f614e94565b3d9150614fb0565b505050505050505050600f905f905f90565b92505050615003915060803d8111613ebc57613eab818361233f565b5f614e17565b5050505050509050805160208201518082115f146146ce5750508060206146c89251910151906125f4565b60018060a01b0316805f52601060205260405f2090805f52601a60205260405f205491615068604051613f0460408261233f565b63ffffffff43169161507e825460e01c846125f4565b908115158080615107575b156150fa5750906020600492604051938480926318160ddd60e01b82525afa918215610a98575f926150c4575b5061327394613fa091615260565b9091506020813d6020116150f2575b816150e06020938361233f565b810103126103bd5751906132736150b6565b3d91506150d3565b929450505061409b575050565b50851515615089565b6001600160a01b039081165f8181526010602090815260408083205460128352818420958716845294909152902080546001600160e01b03909316908190559091801580615248575b615233575b61516890826125f4565b9260405193615176856122f4565b84526040516370a0823160e01b81526001600160a01b039091166004820181905293602082602481875afa918215610a98575f926151ef575b50916a0c097ce7bc90715b34b9f160241b6141b06040937f2caecd17d02f56fa897705dcc740da2d237c373f70686f4e0d9bd3bf0400ea7a955190615260565b9150916020823d60201161522b575b8161520b6020938361233f565b810103126103bd57905190916a0c097ce7bc90715b34b9f160241b6151af565b3d91506151fe565b506a0c097ce7bc90715b34b9f160241b61515e565b506a0c097ce7bc90715b34b9f160241b821015615159565b8181029291811591840414171561260157565b6001600160a01b03165f8181526009602052604090205491929160ff16156129d457805f526009602052600260405f200160018060a01b0384165f5260205260ff60405f205416156152ec576152c8926149f4565b919050601281101561074c57806152e757506152e2575f90565b600490565b905090565b5050505f90565b9060018060a01b0382165f52600960205260405f2060ff815416156129d45760020160018060a01b0382165f5280602052600160ff60405f2054161515146152ec576001600160a01b0382165f90815260209182526040808220805460ff1916600117905560089092522080549290600160401b84101561230f5781613016856153a39360017f3ab23ab0d51cccc0c3085aec51f99228625aa1a922b3a8ca89a26b0f2027a1a5980181556124ce565b604080516001600160a01b03928316815292909116602083015281908101612c22565b81156153d0570490565b634e487b7160e01b5f52601260045260245ffd5b670de0b6b3a764000091615409915f6040516153ff816122f4565b5251905190615260565b0460405190615417826122f4565b815290565b156154245750565b604460209160405192839162461bcd60e51b83528160048401528051918291826024860152018484015e5f828201840152601f01601f19168101030190fd5b670de0b6b3a7640000810290808204670de0b6b3a764000014901517156126015761548f9151906153c6565b90565b905f6040516154a0816122f4565b526a0c097ce7bc90715b34b9f160241b8202918083046a0c097ce7bc90715b34b9f160241b1490151715612601576154d7916153c6565b60405190615417826122f4565b906154d7915f6040516154f6816122f4565b5251905190613ec3565b906154d7915f604051615512816122f4565b525161526056fe45b96fe442630264581b197e84bbada861235052c5a1aadfff9ea4e40a969aa0a2646970667358221220692a5a9536f1c12452c2924ee035c88cceb58a12afd5b11c01f2837cddd0642564736f6c634300081c0033",
        "linkReferences": {}
    },
    "methodIdentifiers": {
        "_become(address)": "1d504dc6",
        "_borrowGuardianPaused()": "e6653f3d",
        "_grantComp(address,uint256)": "27efe3cb",
        "_mintGuardianPaused()": "3c94786f",
        "_setBorrowCapGuardian(address)": "391957d7",
        "_setBorrowPaused(address,bool)": "18c882a5",
        "_setCloseFactor(uint256)": "317b0b77",
        "_setCollateralFactor(address,uint256)": "e4028eee",
        "_setCompSpeeds(address[],uint256[],uint256[])": "a8b43948",
        "_setContributorCompSpeed(address,uint256)": "598ee1cb",
        "_setLiquidationIncentive(uint256)": "4fd42e17",
        "_setMarketBorrowCaps(address[],uint256[])": "607ef6c1",
        "_setMintPaused(address,bool)": "3bcf7ec1",
        "_setPauseGuardian(address)": "5f5af1aa",
        "_setPriceOracle(address)": "55ee1fe1",
        "_setSeizePaused(bool)": "2d70db78",
        "_setTransferPaused(bool)": "8ebf6364",
        "_supportMarket(address)": "a76b3fda",
        "accountAssets(address,uint256)": "dce15449",
        "admin()": "f851a440",
        "allMarkets(uint256)": "52d84d1e",
        "borrowAllowed(address,address,uint256)": "da3d454c",
        "borrowCapGuardian()": "21af4569",
        "borrowCaps(address)": "4a584432",
        "borrowGuardianPaused(address)": "6d154ea5",
        "borrowVerify(address,address,uint256)": "5c778605",
        "checkMembership(address,address)": "929fe9a1",
        "claimComp(address)": "e9af0292",
        "claimComp(address,address[])": "1c3db2e0",
        "claimComp(address[],address[],bool,bool)": "6810dfa6",
        "closeFactorMantissa()": "e8755446",
        "compAccrued(address)": "cc7ebdc4",
        "compBorrowSpeeds(address)": "f4a433c0",
        "compBorrowState(address)": "8c57804e",
        "compBorrowerIndex(address,address)": "ca0af043",
        "compContributorSpeeds(address)": "986ab838",
        "compInitialIndex()": "a7f0e231",
        "compRate()": "aa900754",
        "compReceivable(address)": "85b7beb8",
        "compSpeeds(address)": "1d7b33d7",
        "compSupplierIndex(address,address)": "b21be7fd",
        "compSupplySpeeds(address)": "6aa875b5",
        "compSupplyState(address)": "6b79c38d",
        "comptrollerImplementation()": "bb82aa5e",
        "enterMarkets(address[])": "c2998238",
        "exitMarket(address)": "ede4edd0",
        "fixBadAccruals(address[],uint256[])": "16b95e8f",
        "getAccountLiquidity(address)": "5ec88c79",
        "getAllMarkets()": "b0772d0b",
        "getAssetsIn(address)": "abfceffc",
        "getBlockNumber()": "42cbb15c",
        "getCompAddress()": "9d1b5a0a",
        "getHypotheticalAccountLiquidity(address,address,uint256,uint256)": "4e79238f",
        "isComptroller()": "007e3dd2",
        "isDeprecated(address)": "94543c15",
        "lastContributorBlock(address)": "bea6b8b8",
        "liquidateBorrowAllowed(address,address,address,address,uint256)": "5fc7e71e",
        "liquidateBorrowVerify(address,address,address,address,uint256,uint256)": "47ef3b3b",
        "liquidateCalculateSeizeTokens(address,address,uint256)": "c488847b",
        "liquidationIncentiveMantissa()": "4ada90af",
        "markets(address)": "8e8f294b",
        "maxAssets()": "94b2294b",
        "mintAllowed(address,address,uint256)": "4ef4c3e1",
        "mintGuardianPaused(address)": "731f0c2b",
        "mintVerify(address,address,uint256,uint256)": "41c728b9",
        "oracle()": "7dc0d1d0",
        "pauseGuardian()": "24a3d622",
        "pendingAdmin()": "26782247",
        "pendingComptrollerImplementation()": "dcfbc0c7",
        "proposal65FixExecuted()": "f00a7a92",
        "redeemAllowed(address,address,uint256)": "eabe7d91",
        "redeemVerify(address,address,uint256,uint256)": "51dff989",
        "repayBorrowAllowed(address,address,address,uint256)": "24008a62",
        "repayBorrowVerify(address,address,address,uint256,uint256)": "1ededc91",
        "seizeAllowed(address,address,address,address,uint256)": "d02f7351",
        "seizeGuardianPaused()": "ac0b0bb7",
        "seizeVerify(address,address,address,address,uint256)": "6d35bf91",
        "transferAllowed(address,address,address,uint256)": "bdcdc258",
        "transferGuardianPaused()": "87f76303",
        "transferVerify(address,address,address,uint256)": "6a56947e",
        "updateContributorRewards(address)": "741b2525"
    },
    "id": 29
}