{"abi":[{"type":"constructor","inputs":[],"stateMutability":"nonpayable"},{"type":"function","name":"addVault","inputs":[{"name":"vaultAddress_","type":"address","internalType":"address"},{"name":"lendingManagerAddress_","type":"address","internalType":"address"}],"outputs":[],"stateMutability":"nonpayable"},{"type":"function","name":"claimAllSubsidies","inputs":[{"name":"vaultAddresses","type":"address[]","internalType":"address[]"},{"name":"claims","type":"tuple[]","internalType":"struct IDebtSubsidizer.ClaimData[]","components":[{"name":"recipient","type":"address","internalType":"address"},{"name":"totalEarned","type":"uint256","internalType":"uint256"},{"name":"merkleProof","type":"bytes32[]","internalType":"bytes32[]"}]}],"outputs":[],"stateMutability":"nonpayable"},{"type":"function","name":"claimSubsidy","inputs":[{"name":"vaultAddress","type":"address","internalType":"address"},{"name":"claim","type":"tuple","internalType":"struct IDebtSubsidizer.ClaimData","components":[{"name":"recipient","type":"address","internalType":"address"},{"name":"totalEarned","type":"uint256","internalType":"uint256"},{"name":"merkleProof","type":"bytes32[]","internalType":"bytes32[]"}]}],"outputs":[],"stateMutability":"nonpayable"},{"type":"function","name":"collectionRegistry","inputs":[],"outputs":[{"name":"","type":"address","internalType":"contract ICollectionRegistry"}],"stateMutability":"view"},{"type":"function","name":"initialize","inputs":[{"name":"initialOwner","type":"address","internalType":"address"},{"name":"registry","type":"address","internalType":"address"}],"outputs":[],"stateMutability":"nonpayable"},{"type":"function","name":"isCollectionWhitelisted","inputs":[{"name":"vaultAddress","type":"address","internalType":"address"},{"name":"collectionAddress","type":"address","internalType":"address"}],"outputs":[{"name":"","type":"bool","internalType":"bool"}],"stateMutability":"view"},{"type":"function","name":"owner","inputs":[],"outputs":[{"name":"","type":"address","internalType":"address"}],"stateMutability":"view"},{"type":"function","name":"pause","inputs":[],"outputs":[],"stateMutability":"nonpayable"},{"type":"function","name":"paused","inputs":[],"outputs":[{"name":"","type":"bool","internalType":"bool"}],"stateMutability":"view"},{"type":"function","name":"removeCollection","inputs":[{"name":"vaultAddress","type":"address","internalType":"address"},{"name":"collectionAddress","type":"address","internalType":"address"}],"outputs":[],"stateMutability":"nonpayable"},{"type":"function","name":"removeVault","inputs":[{"name":"vaultAddress_","type":"address","internalType":"address"}],"outputs":[],"stateMutability":"nonpayable"},{"type":"function","name":"renounceOwnership","inputs":[],"outputs":[],"stateMutability":"nonpayable"},{"type":"function","name":"transferOwnership","inputs":[{"name":"newOwner","type":"address","internalType":"address"}],"outputs":[],"stateMutability":"nonpayable"},{"type":"function","name":"unpause","inputs":[],"outputs":[],"stateMutability":"nonpayable"},{"type":"function","name":"updateMerkleRoot","inputs":[{"name":"vaultAddress","type":"address","internalType":"address"},{"name":"merkleRoot_","type":"bytes32","internalType":"bytes32"}],"outputs":[],"stateMutability":"nonpayable"},{"type":"function","name":"userSecondsClaimed","inputs":[{"name":"user","type":"address","internalType":"address"}],"outputs":[{"name":"","type":"uint256","internalType":"uint256"}],"stateMutability":"view"},{"type":"function","name":"vault","inputs":[{"name":"vaultAddress","type":"address","internalType":"address"}],"outputs":[{"name":"vaultInfo_","type":"tuple","internalType":"struct IDebtSubsidizer.VaultInfo","components":[{"name":"lendingManager","type":"address","internalType":"address"},{"name":"cToken","type":"address","internalType":"address"}]}],"stateMutability":"view"},{"type":"function","name":"whitelistCollection","inputs":[{"name":"vaultAddress","type":"address","internalType":"address"},{"name":"collectionAddress","type":"address","internalType":"address"}],"outputs":[],"stateMutability":"nonpayable"},{"type":"event","name":"Initialized","inputs":[{"name":"version","type":"uint64","indexed":false,"internalType":"uint64"}],"anonymous":false},{"type":"event","name":"MerkleRootUpdated","inputs":[{"name":"vaultAddress","type":"address","indexed":true,"internalType":"address"},{"name":"merkleRoot","type":"bytes32","indexed":false,"internalType":"bytes32"},{"name":"updatedBy","type":"address","indexed":true,"internalType":"address"}],"anonymous":false},{"type":"event","name":"NewCollectionWhitelisted","inputs":[{"name":"vaultAddress","type":"address","indexed":true,"internalType":"address"},{"name":"collectionAddress","type":"address","indexed":true,"internalType":"address"}],"anonymous":false},{"type":"event","name":"OwnershipTransferred","inputs":[{"name":"previousOwner","type":"address","indexed":true,"internalType":"address"},{"name":"newOwner","type":"address","indexed":true,"internalType":"address"}],"anonymous":false},{"type":"event","name":"Paused","inputs":[{"name":"account","type":"address","indexed":false,"internalType":"address"}],"anonymous":false},{"type":"event","name":"SubsidyClaimed","inputs":[{"name":"vaultAddress","type":"address","indexed":true,"internalType":"address"},{"name":"recipient","type":"address","indexed":true,"internalType":"address"},{"name":"amount","type":"uint256","indexed":false,"internalType":"uint256"}],"anonymous":false},{"type":"event","name":"Unpaused","inputs":[{"name":"account","type":"address","indexed":false,"internalType":"address"}],"anonymous":false},{"type":"event","name":"VaultAdded","inputs":[{"name":"vaultAddress","type":"address","indexed":true,"internalType":"address"},{"name":"cTokenAddress","type":"address","indexed":true,"internalType":"address"},{"name":"lendingManagerAddress","type":"address","indexed":true,"internalType":"address"}],"anonymous":false},{"type":"event","name":"VaultRemoved","inputs":[{"name":"vaultAddress","type":"address","indexed":true,"internalType":"address"}],"anonymous":false},{"type":"event","name":"WhitelistCollectionRemoved","inputs":[{"name":"vaultAddress","type":"address","indexed":true,"internalType":"address"},{"name":"collectionAddress","type":"address","indexed":true,"internalType":"address"}],"anonymous":false},{"type":"error","name":"AddressZero","inputs":[]},{"type":"error","name":"AlreadyClaimed","inputs":[]},{"type":"error","name":"ArrayLengthMismatch","inputs":[]},{"type":"error","name":"CannotSetSignerToZeroAddress","inputs":[]},{"type":"error","name":"CollectionAlreadyExists","inputs":[{"name":"collection","type":"address","internalType":"address"}]},{"type":"error","name":"CollectionAlreadyWhitelistedInVault","inputs":[{"name":"vaultAddress","type":"address","internalType":"address"},{"name":"collectionAddress","type":"address","internalType":"address"}]},{"type":"error","name":"CollectionNotWhitelisted","inputs":[{"name":"collection","type":"address","internalType":"address"}]},{"type":"error","name":"CollectionNotWhitelistedInVault","inputs":[{"name":"vaultAddress","type":"address","internalType":"address"},{"name":"collectionAddress","type":"address","internalType":"address"}]},{"type":"error","name":"EnforcedPause","inputs":[]},{"type":"error","name":"ExpectedPause","inputs":[]},{"type":"error","name":"InsufficientYield","inputs":[]},{"type":"error","name":"InvalidCollectionInterface","inputs":[{"name":"collectionAddress","type":"address","internalType":"address"},{"name":"interfaceId","type":"bytes4","internalType":"bytes4"}]},{"type":"error","name":"InvalidInitialization","inputs":[]},{"type":"error","name":"InvalidMerkleProof","inputs":[]},{"type":"error","name":"InvalidSecondsColl","inputs":[]},{"type":"error","name":"InvalidSignature","inputs":[]},{"type":"error","name":"InvalidYieldSharePercentage","inputs":[{"name":"totalSharePercentage","type":"uint256","internalType":"uint256"}]},{"type":"error","name":"InvalidYieldSlice","inputs":[]},{"type":"error","name":"LendingManagerAssetMismatch","inputs":[{"name":"vaultAsset","type":"address","internalType":"address"},{"name":"lmAsset","type":"address","internalType":"address"}]},{"type":"error","name":"LendingManagerNotSetForVault","inputs":[{"name":"vaultAddress","type":"address","internalType":"address"}]},{"type":"error","name":"MerkleRootNotSet","inputs":[]},{"type":"error","name":"NotInitializing","inputs":[]},{"type":"error","name":"OwnableInvalidOwner","inputs":[{"name":"owner","type":"address","internalType":"address"}]},{"type":"error","name":"OwnableUnauthorizedAccount","inputs":[{"name":"account","type":"address","internalType":"address"}]},{"type":"error","name":"ReentrancyGuardReentrantCall","inputs":[]},{"type":"error","name":"VaultAlreadyRegistered","inputs":[{"name":"vaultAddress","type":"address","internalType":"address"}]},{"type":"error","name":"VaultMismatch","inputs":[]},{"type":"error","name":"VaultNotRegistered","inputs":[{"name":"vaultAddress","type":"address","internalType":"address"}]}],"bytecode":{"object":"0x6080806040523460aa575f5160206113095f395f51905f525460ff8160401c16609b576002600160401b03196001600160401b038216016049575b60405161125a90816100af8239f35b6001600160401b0319166001600160401b039081175f5160206113095f395f51905f525581527fc7f505b2f371ae2175ee4913f4499e1f2633a7b5936321eed1cdaeb6115181d290602090a15f80603a565b63f92ee8a960e01b5f5260045ffd5b5f80fdfe60806040526004361015610011575f80fd5b5f3560e01c80632526952a14610b155780633f4ba83a14610a9757806341afb80814610a40578063485cc955146108935780635c975abb14610865578063715018a6146107fe5780638456cb591461078d5780638c7cc5e3146107655780638da5cb5b146107315780639f1bcbad1461063f578063b1cd60f214610601578063ceb68c2314610582578063e786818e146104e4578063ec3a7823146102ff578063f2fde38b146102d4578063f314ce2d1461027d578063f815c03d146101cf5763fd8f92ae146100df575f80fd5b346101955760403660031901126101955760043567ffffffffffffffff811161019557610110903690600401610c64565b9060243567ffffffffffffffff811161019557610131903690600401610c64565b610139610d6f565b610141610da7565b8084036101c05736829003605e190193925f5b848110156101ad578060051b9061016c828401610d28565b918482101561019957850135878112156101955760019261018f91870190610dce565b01610154565b5f80fd5b634e487b7160e01b5f52603260045260245ffd5b60015f5160206111e55f395f51905f5255005b63512509d360e11b5f5260045ffd5b34610195576020366003190112610195576101e8610c38565b6040516040810181811067ffffffffffffffff8211176102695760409081525f80835260208084018281526001600160a01b0395861680845291839052929091205490931680156102565781526040805192516001600160a01b039081168452915190911660208301529150f35b8363299f342560e01b5f5260045260245ffd5b634e487b7160e01b5f52604160045260245ffd5b3461019557604036600319011261019557610296610c38565b6024359067ffffffffffffffff82116101955760606003198336030112610195576101ad916102c3610d6f565b6102cb610da7565b60040190610dce565b34610195576020366003190112610195576102fd6102f0610c38565b6102f8610d3c565b610cb7565b005b3461019557604036600319011261019557610318610c38565b610320610c4e565b90610329610d3c565b6001600160a01b031690811580156104d3575b6104c4575f828152602081905260409020546001600160a01b03166104b1576040516338d52e0f60e01b81526001600160a01b039190911691602082600481845afa918215610462575f9261046d575b506040516338d52e0f60e01b8152602081600481875afa908115610462575f91610420575b506001600160a01b03928316921680830361040a5750805f525f60205260405f20826001600160601b0360a01b8254161790557fc590bd7f43139981c355ef80ff49e3082ca7d9b6d0102bac27423c00b9d445895f80a4005b826342a981d760e01b5f5260045260245260445ffd5b90506020813d60201161045a575b8161043b60209383610c95565b8101031261019557516001600160a01b038116810361019557846103b1565b3d915061042e565b6040513d5f823e3d90fd5b9091506020813d6020116104a9575b8161048960209383610c95565b8101031261019557516001600160a01b038116810361019557908361038c565b3d915061047c565b50631c5fe60b60e11b5f5260045260245ffd5b639fabe1c160e01b5f5260045ffd5b506001600160a01b0381161561033c565b34610195576040366003190112610195576104fd610c38565b60243590610509610d3c565b6001600160a01b031680156104c4575f818152602081905260409020546001600160a01b03161561057057805f5260016020528160405f20556040519182527fb0b5d8fb60623ea5e0dcc97eca130f9f46b4e89999660ffd32438d2026c98e6f60203393a3005b63299f342560e01b5f5260045260245ffd5b346101955760203660031901126101955761059b610c38565b6105a3610d3c565b6001600160a01b031680156104c4575f818152602081905260409020546001600160a01b03161561057057805f525f6020525f60408120557fe71f3a50e5ad81964f352c411f1d45e35438ecd1acecef59ac81d9fbbf6cbc0a5f80a2005b34610195576020366003190112610195576001600160a01b03610622610c38565b1680156104c4575f526005602052602060405f2054604051908152f35b3461019557604036600319011261019557610658610c38565b610660610c4e565b90610669610d3c565b6001600160a01b03169081158015610720575b6104c457815f52600360205260405f2060018060a01b0382165f5260205260ff60405f205416156106fd575f8281526003602090815260408083206001600160a01b0394909416808452939091528120805460ff191690559091907faefe35de031dedb5ab8cc1d47f43a3327b372e796c145184a697e511b8229aef9080a3005b63063b14e160e01b5f9081526004929092526001600160a01b0316602452604490fd5b506001600160a01b0381161561067c565b34610195575f366003190112610195575f5160206111a55f395f51905f52546040516001600160a01b039091168152602090f35b34610195575f366003190112610195576006546040516001600160a01b039091168152602090f35b34610195575f366003190112610195576107a5610d3c565b6107ad610da7565b600160ff195f5160206111c55f395f51905f525416175f5160206111c55f395f51905f52557f62e78cea01bee320cd4e420270b5ea74000d11b0c9f74754ebdbfc544b05a2586020604051338152a1005b34610195575f36600319011261019557610816610d3c565b5f5160206111a55f395f51905f5280546001600160a01b031981169091555f906001600160a01b03167f8be0079c531659141344cd1fd0a4f28419497f9722a3daafe3b4186f6b6457e08280a3005b34610195575f36600319011261019557602060ff5f5160206111c55f395f51905f5254166040519015158152f35b34610195576040366003190112610195576108ac610c38565b6108b4610c4e565b905f5160206112055f395f51905f52549160ff8360401c16159267ffffffffffffffff811680159081610a38575b6001149081610a2e575b159081610a25575b50610a165767ffffffffffffffff1981166001175f5160206112055f395f51905f5255836109ea575b506001600160a01b038216156104c4576001600160a01b03169081156104c45761095190610949611179565b6102f8611179565b610959611179565b610961611179565b60015f5160206111e55f395f51905f525561097a611179565b6001600160601b0360a01b600654161760065561099357005b68ff0000000000000000195f5160206112055f395f51905f5254165f5160206112055f395f51905f52557fc7f505b2f371ae2175ee4913f4499e1f2633a7b5936321eed1cdaeb6115181d2602060405160018152a1005b68ffffffffffffffffff191668010000000000000001175f5160206112055f395f51905f52558361091d565b63f92ee8a960e01b5f5260045ffd5b905015856108f4565b303b1591506108ec565b8591506108e2565b3461019557604036600319011261019557610a59610c38565b610a61610c4e565b9060018060a01b03165f52600360205260405f209060018060a01b03165f52602052602060ff60405f2054166040519015158152f35b34610195575f36600319011261019557610aaf610d3c565b5f5160206111c55f395f51905f525460ff811615610b065760ff19165f5160206111c55f395f51905f52557f5db9ee0a495bf2e6ff9c91a7834c1ba4fdd244a5e8aa4e537bd38aeae4b073aa6020604051338152a1005b638dfc202b60e01b5f5260045ffd5b3461019557604036600319011261019557610b2e610c38565b610b36610c4e565b90610b3f610d3c565b6001600160a01b03169081158015610c27575b6104c4575f828152602081905260409020546001600160a01b031615610c1457815f52600360205260405f2060018060a01b0382165f5260205260ff60405f205416610bf1575f8281526003602090815260408083206001600160a01b0394909416808452939091528120805460ff191660011790559091907fc4197ecff949dd61ca54e3a858427a30a97d3b06a1d8474fdb0e7509ae9165289080a3005b635646f04d60e01b5f9081526004929092526001600160a01b0316602452604490fd5b5063299f342560e01b5f5260045260245ffd5b506001600160a01b03811615610b52565b600435906001600160a01b038216820361019557565b602435906001600160a01b038216820361019557565b9181601f840112156101955782359167ffffffffffffffff8311610195576020808501948460051b01011161019557565b90601f8019910116810190811067ffffffffffffffff82111761026957604052565b6001600160a01b03168015610d15575f5160206111a55f395f51905f5280546001600160a01b0319811683179091556001600160a01b03167f8be0079c531659141344cd1fd0a4f28419497f9722a3daafe3b4186f6b6457e05f80a3565b631e4fbdf760e01b5f525f60045260245ffd5b356001600160a01b03811681036101955790565b5f5160206111a55f395f51905f52546001600160a01b03163303610d5c57565b63118cdaa760e01b5f523360045260245ffd5b60025f5160206111e55f395f51905f525414610d985760025f5160206111e55f395f51905f5255565b633ee5aeb560e01b5f5260045ffd5b60ff5f5160206111c55f395f51905f525416610dbf57565b63d93c066560e01b5f5260045ffd5b6001600160a01b039081165f818152602081905260409020549293929091161561057057805f52600160205260405f205491821561116a57610e0f84610d28565b6001600160a01b038116929060208601359084156104c45760405160208101916001600160601b03199060601b16825282603482015260348152610e54605482610c95565b51902095604081013590601e198136030182121561019557019586359667ffffffffffffffff88116101955760208101908860051b8036038313610195576020906040519a610ea58383018d610c95565b8b52818b019201019136831161019557905b82821061115a57505050935f945b8751861015610f075760208660051b89010151908181105f14610ef6575f52602052600160405f205b950194610ec5565b905f52602052600160405f20610eee565b9194509295509390930361114b57825f52600260205260405f20815f5260205260405f20548083111561113c578083039280841161107257845f52600260205260405f20835f526020528060405f205503610f6157505050565b60405163e2d2bfe360e01b8152602081600481875afa908115610462575f916110f9575b5060405163a29a839f60e01b815290602090829060049082906001600160a01b03165afa908115610462575f916110c7575b5060405190632dddd14760e21b82526004820152602081602481875afa908115610462575f91611095575b50821161108657805f52600560205260405f20805490838201809211611072575580837f8d910f472a955834e42b72346310da6e1a8a0434fd6be360436c151ab284a86e6020604051868152a3823b156101955760445f9283604051958694859363aa553b6160e01b8552600485015260248401525af18015610462576110665750565b5f61107091610c95565b565b634e487b7160e01b5f52601160045260245ffd5b63fa3505cf60e01b5f5260045ffd5b90506020813d6020116110bf575b816110b060209383610c95565b8101031261019557515f610fe2565b3d91506110a3565b90506020813d6020116110f1575b816110e260209383610c95565b8101031261019557515f610fb7565b3d91506110d5565b90506020813d602011611134575b8161111460209383610c95565b8101031261019557516001600160a01b0381168103610195576020610f85565b3d9150611107565b630c8d9eab60e31b5f5260045ffd5b63582f497d60e11b5f5260045ffd5b8135815260209182019101610eb7565b634fc5147960e11b5f5260045ffd5b60ff5f5160206112055f395f51905f525460401c161561119557565b631afcd79f60e31b5f5260045ffdfe9016d09d72d40fdae2fd8ceac6b6234c7706214fd39c1cd1e609a0528c199300cd5ed15c6e187e77e9aee88184c21f4f2182ab5827cb3b7e07fbedcd63f033009b779b17422d0df92223018b32b4d1fa46e071723d6817e2486d003becc55f00f0c57e16840df040f15088dc2f81fe391c3923bec73e23a9662efc9c229c6a00a26469706673582212202ad337fbd0d1dcbe16c5359f121bdccb651ac8238533988301737fd19a8d588564736f6c634300081e0033f0c57e16840df040f15088dc2f81fe391c3923bec73e23a9662efc9c229c6a00","linkReferences":{}},"methodIdentifiers":{"addVault(address,address)":"ec3a7823","claimAllSubsidies(address[],(address,uint256,bytes32[])[])":"fd8f92ae","claimSubsidy(address,(address,uint256,bytes32[]))":"f314ce2d","collectionRegistry()":"8c7cc5e3","initialize(address,address)":"485cc955","isCollectionWhitelisted(address,address)":"41afb808","owner()":"8da5cb5b","pause()":"8456cb59","paused()":"5c975abb","removeCollection(address,address)":"9f1bcbad","removeVault(address)":"ceb68c23","renounceOwnership()":"715018a6","transferOwnership(address)":"f2fde38b","unpause()":"3f4ba83a","updateMerkleRoot(address,bytes32)":"e786818e","userSecondsClaimed(address)":"b1cd60f2","vault(address)":"f815c03d","whitelistCollection(address,address)":"2526952a"},"id":52}