{"abi":[{"type":"constructor","inputs":[],"stateMutability":"nonpayable"},{"type":"function","name":"addVault","inputs":[{"name":"vaultAddress_","type":"address","internalType":"address"},{"name":"lendingManagerAddress_","type":"address","internalType":"address"}],"outputs":[],"stateMutability":"nonpayable"},{"type":"function","name":"claimSubsidy","inputs":[{"name":"vaultAddress","type":"address","internalType":"address"},{"name":"claim","type":"tuple","internalType":"struct IDebtSubsidizer.ClaimData","components":[{"name":"recipient","type":"address","internalType":"address"},{"name":"collection","type":"address","internalType":"address"},{"name":"amount","type":"uint256","internalType":"uint256"},{"name":"merkleProof","type":"bytes32[]","internalType":"bytes32[]"}]}],"outputs":[],"stateMutability":"nonpayable"},{"type":"function","name":"collectionRegistry","inputs":[],"outputs":[{"name":"","type":"address","internalType":"contract ICollectionRegistry"}],"stateMutability":"view"},{"type":"function","name":"initialize","inputs":[{"name":"initialOwner","type":"address","internalType":"address"},{"name":"registry","type":"address","internalType":"address"}],"outputs":[],"stateMutability":"nonpayable"},{"type":"function","name":"isCollectionWhitelisted","inputs":[{"name":"vaultAddress","type":"address","internalType":"address"},{"name":"collectionAddress","type":"address","internalType":"address"}],"outputs":[{"name":"","type":"bool","internalType":"bool"}],"stateMutability":"view"},{"type":"function","name":"owner","inputs":[],"outputs":[{"name":"","type":"address","internalType":"address"}],"stateMutability":"view"},{"type":"function","name":"pause","inputs":[],"outputs":[],"stateMutability":"nonpayable"},{"type":"function","name":"paused","inputs":[],"outputs":[{"name":"","type":"bool","internalType":"bool"}],"stateMutability":"view"},{"type":"function","name":"removeCollection","inputs":[{"name":"vaultAddress","type":"address","internalType":"address"},{"name":"collectionAddress","type":"address","internalType":"address"}],"outputs":[],"stateMutability":"nonpayable"},{"type":"function","name":"removeVault","inputs":[{"name":"vaultAddress_","type":"address","internalType":"address"}],"outputs":[],"stateMutability":"nonpayable"},{"type":"function","name":"renounceOwnership","inputs":[],"outputs":[],"stateMutability":"nonpayable"},{"type":"function","name":"transferOwnership","inputs":[{"name":"newOwner","type":"address","internalType":"address"}],"outputs":[],"stateMutability":"nonpayable"},{"type":"function","name":"unpause","inputs":[],"outputs":[],"stateMutability":"nonpayable"},{"type":"function","name":"updateMerkleRoot","inputs":[{"name":"vaultAddress","type":"address","internalType":"address"},{"name":"merkleRoot_","type":"bytes32","internalType":"bytes32"}],"outputs":[],"stateMutability":"nonpayable"},{"type":"function","name":"userSecondsClaimed","inputs":[{"name":"user","type":"address","internalType":"address"}],"outputs":[{"name":"","type":"uint256","internalType":"uint256"}],"stateMutability":"view"},{"type":"function","name":"vault","inputs":[{"name":"vaultAddress","type":"address","internalType":"address"}],"outputs":[{"name":"vaultInfo_","type":"tuple","internalType":"struct IDebtSubsidizer.VaultInfo","components":[{"name":"lendingManager","type":"address","internalType":"address"},{"name":"cToken","type":"address","internalType":"address"}]}],"stateMutability":"view"},{"type":"function","name":"whitelistCollection","inputs":[{"name":"vaultAddress","type":"address","internalType":"address"},{"name":"collectionAddress","type":"address","internalType":"address"}],"outputs":[],"stateMutability":"nonpayable"},{"type":"event","name":"CollectionYieldShareUpdated","inputs":[{"name":"vaultAddress","type":"address","indexed":true,"internalType":"address"},{"name":"collectionAddress","type":"address","indexed":true,"internalType":"address"},{"name":"oldSharePercentageBps","type":"uint16","indexed":false,"internalType":"uint16"},{"name":"newSharePercentageBps","type":"uint16","indexed":false,"internalType":"uint16"}],"anonymous":false},{"type":"event","name":"Initialized","inputs":[{"name":"version","type":"uint64","indexed":false,"internalType":"uint64"}],"anonymous":false},{"type":"event","name":"MerkleRootUpdated","inputs":[{"name":"vaultAddress","type":"address","indexed":true,"internalType":"address"},{"name":"merkleRoot","type":"bytes32","indexed":false,"internalType":"bytes32"},{"name":"updatedBy","type":"address","indexed":true,"internalType":"address"}],"anonymous":false},{"type":"event","name":"NewCollectionWhitelisted","inputs":[{"name":"vaultAddress","type":"address","indexed":true,"internalType":"address"},{"name":"collectionAddress","type":"address","indexed":true,"internalType":"address"}],"anonymous":false},{"type":"event","name":"OwnershipTransferred","inputs":[{"name":"previousOwner","type":"address","indexed":true,"internalType":"address"},{"name":"newOwner","type":"address","indexed":true,"internalType":"address"}],"anonymous":false},{"type":"event","name":"Paused","inputs":[{"name":"account","type":"address","indexed":false,"internalType":"address"}],"anonymous":false},{"type":"event","name":"SubsidyClaimed","inputs":[{"name":"vaultAddress","type":"address","indexed":true,"internalType":"address"},{"name":"recipient","type":"address","indexed":true,"internalType":"address"},{"name":"collection","type":"address","indexed":true,"internalType":"address"},{"name":"amount","type":"uint256","indexed":false,"internalType":"uint256"}],"anonymous":false},{"type":"event","name":"TrustedSignerUpdated","inputs":[{"name":"oldSigner","type":"address","indexed":false,"internalType":"address"},{"name":"newSigner","type":"address","indexed":false,"internalType":"address"},{"name":"changedBy","type":"address","indexed":true,"internalType":"address"}],"anonymous":false},{"type":"event","name":"Unpaused","inputs":[{"name":"account","type":"address","indexed":false,"internalType":"address"}],"anonymous":false},{"type":"event","name":"VaultAdded","inputs":[{"name":"vaultAddress","type":"address","indexed":true,"internalType":"address"},{"name":"cTokenAddress","type":"address","indexed":true,"internalType":"address"},{"name":"lendingManagerAddress","type":"address","indexed":true,"internalType":"address"}],"anonymous":false},{"type":"event","name":"VaultRemoved","inputs":[{"name":"vaultAddress","type":"address","indexed":true,"internalType":"address"}],"anonymous":false},{"type":"event","name":"WeightFunctionConfigUpdated","inputs":[{"name":"vaultAddress","type":"address","indexed":true,"internalType":"address"},{"name":"collectionAddress","type":"address","indexed":true,"internalType":"address"},{"name":"oldWeightFunction","type":"tuple","indexed":false,"internalType":"struct ICollectionRegistry.WeightFunction","components":[{"name":"fnType","type":"uint8","internalType":"enum ICollectionRegistry.WeightFunctionType"},{"name":"p1","type":"int256","internalType":"int256"},{"name":"p2","type":"int256","internalType":"int256"}]},{"name":"newWeightFunction","type":"tuple","indexed":false,"internalType":"struct ICollectionRegistry.WeightFunction","components":[{"name":"fnType","type":"uint8","internalType":"enum ICollectionRegistry.WeightFunctionType"},{"name":"p1","type":"int256","internalType":"int256"},{"name":"p2","type":"int256","internalType":"int256"}]}],"anonymous":false},{"type":"event","name":"WhitelistCollectionRemoved","inputs":[{"name":"vaultAddress","type":"address","indexed":true,"internalType":"address"},{"name":"collectionAddress","type":"address","indexed":true,"internalType":"address"}],"anonymous":false},{"type":"error","name":"AddressZero","inputs":[]},{"type":"error","name":"AlreadyClaimed","inputs":[]},{"type":"error","name":"ArrayLengthMismatch","inputs":[]},{"type":"error","name":"CannotSetSignerToZeroAddress","inputs":[]},{"type":"error","name":"CollectionAlreadyExists","inputs":[{"name":"collection","type":"address","internalType":"address"}]},{"type":"error","name":"CollectionAlreadyWhitelistedInVault","inputs":[{"name":"vaultAddress","type":"address","internalType":"address"},{"name":"collectionAddress","type":"address","internalType":"address"}]},{"type":"error","name":"CollectionNotWhitelisted","inputs":[{"name":"collection","type":"address","internalType":"address"}]},{"type":"error","name":"CollectionNotWhitelistedInVault","inputs":[{"name":"vaultAddress","type":"address","internalType":"address"},{"name":"collectionAddress","type":"address","internalType":"address"}]},{"type":"error","name":"EnforcedPause","inputs":[]},{"type":"error","name":"ExpectedPause","inputs":[]},{"type":"error","name":"InsufficientYield","inputs":[]},{"type":"error","name":"InvalidCollectionInterface","inputs":[{"name":"collectionAddress","type":"address","internalType":"address"},{"name":"interfaceId","type":"bytes4","internalType":"bytes4"}]},{"type":"error","name":"InvalidInitialization","inputs":[]},{"type":"error","name":"InvalidMerkleProof","inputs":[]},{"type":"error","name":"InvalidSecondsColl","inputs":[]},{"type":"error","name":"InvalidSignature","inputs":[]},{"type":"error","name":"InvalidYieldSharePercentage","inputs":[{"name":"totalSharePercentage","type":"uint256","internalType":"uint256"}]},{"type":"error","name":"InvalidYieldSlice","inputs":[]},{"type":"error","name":"LeafAlreadyClaimed","inputs":[]},{"type":"error","name":"LendingManagerAssetMismatch","inputs":[{"name":"vaultAsset","type":"address","internalType":"address"},{"name":"lmAsset","type":"address","internalType":"address"}]},{"type":"error","name":"LendingManagerNotSetForVault","inputs":[{"name":"vaultAddress","type":"address","internalType":"address"}]},{"type":"error","name":"MerkleRootNotSet","inputs":[]},{"type":"error","name":"NotInitializing","inputs":[]},{"type":"error","name":"OwnableInvalidOwner","inputs":[{"name":"owner","type":"address","internalType":"address"}]},{"type":"error","name":"OwnableUnauthorizedAccount","inputs":[{"name":"account","type":"address","internalType":"address"}]},{"type":"error","name":"ReentrancyGuardReentrantCall","inputs":[]},{"type":"error","name":"VaultAlreadyRegistered","inputs":[{"name":"vaultAddress","type":"address","internalType":"address"}]},{"type":"error","name":"VaultMismatch","inputs":[]},{"type":"error","name":"VaultNotRegistered","inputs":[{"name":"vaultAddress","type":"address","internalType":"address"}]}],"bytecode":{"object":"0x6080806040523460aa575f5160206112965f395f51905f525460ff8160401c16609b576002600160401b03196001600160401b038216016049575b6040516111e790816100af8239f35b6001600160401b0319166001600160401b039081175f5160206112965f395f51905f525581527fc7f505b2f371ae2175ee4913f4499e1f2633a7b5936321eed1cdaeb6115181d290602090a15f80603a565b63f92ee8a960e01b5f5260045ffd5b5f80fdfe60806040526004361015610011575f80fd5b5f5f3560e01c80632526952a14610ea25780633f4ba83a14610e2457806341afb80814610dcd578063485cc95514610c205780635c975abb14610bf2578063715018a614610b8b5780638456cb5914610b1a5780638c7cc5e314610af25780638da5cb5b14610abe5780639f1bcbad146109cc578063a5a8d0fc14610530578063b1cd60f2146104f1578063ceb68c2314610450578063e786818e146103b1578063ec3a7823146101b7578063f2fde38b1461018a5763f815c03d146100d5575f80fd5b34610187576020366003190112610187576100ee610fc5565b604051906040820182811067ffffffffffffffff82111761017357604090815283835260208084018581526001600160a01b039384168087529186905291852054909491921690811561015f575081526040805192516001600160a01b039081168452915190911660208301529150f35b63299f342560e01b81526004859052602490fd5b634e487b7160e01b84526041600452602484fd5b80fd5b5034610187576020366003190112610187576101b46101a7610fc5565b6101af6110ac565b61103b565b80f35b5034610187576040366003190112610187576101d1610fc5565b6101d9610fdb565b906101e26110ac565b6001600160a01b031690811580156103a0575b61039157818352602083905260408320546001600160a01b031661037d576040516338d52e0f60e01b81526001600160a01b039190911691602082600481845afa91821561037257849261032a575b506040516338d52e0f60e01b8152602081600481875afa90811561031f5785916102d9575b506001600160a01b0392831692168083036102c2575080845260208490526040842080546001600160a01b031916831790557fc590bd7f43139981c355ef80ff49e3082ca7d9b6d0102bac27423c00b9d445898480a480f35b6342a981d760e01b85526004839052602452604484fd5b90506020813d602011610317575b816102f460209383611005565b8101031261031357516001600160a01b0381168103610313575f610269565b8480fd5b3d91506102e7565b6040513d87823e3d90fd5b9091506020813d60201161036a575b8161034660209383611005565b8101031261036657516001600160a01b038116810361036657905f610244565b8380fd5b3d9150610339565b6040513d86823e3d90fd5b631c5fe60b60e11b83526004829052602483fd5b639fabe1c160e01b8352600483fd5b506001600160a01b038116156101f5565b5034610187576040366003190112610187576103cb610fc5565b602435906103d76110ac565b6001600160a01b0316801561039157808352602083905260408320546001600160a01b03161561043e5780835260016020528160408420556040519182527fb0b5d8fb60623ea5e0dcc97eca130f9f46b4e89999660ffd32438d2026c98e6f60203393a380f35b63299f342560e01b8352600452602482fd5b50346101875760203660031901126101875761046a610fc5565b6104726110ac565b6001600160a01b031680156104e257808252602082905260408220546001600160a01b0316156104d057808252816020528160408120557fe71f3a50e5ad81964f352c411f1d45e35438ecd1acecef59ac81d9fbbf6cbc0a8280a280f35b63299f342560e01b8252600452602490fd5b639fabe1c160e01b8252600482fd5b5034610187576020366003190112610187576001600160a01b03610513610fc5565b1680156104e2578160409160209352600583522054604051908152f35b503461087f57604036600319011261087f5761054a610fc5565b9060243567ffffffffffffffff811161087f5780360392608060031985011261087f5760025f5160206111725f395f51905f5254146109bd5760025f5160206111725f395f51905f525561059c6110df565b6001600160a01b039081165f8181526020819052604090205490939116156109aa57825f52600160205260405f205492831561099b576105de83600401610ff1565b946105eb60248501610ff1565b956044850135916001600160a01b038216918215801561098a575b61097b5760405160208101916001600160601b03199060601b1682526001600160601b03198a60601b1660348201528460488201526048815261064a606882611005565b51902095865f52600260205260ff60405f20541661096c576064810135916022190182121561087f57019660048801359767ffffffffffffffff891161087f5760248101908960051b803603831361087f576040519a6020916004916106b28285018f611005565b8d52828d01930101019136831161087f57905b82821061095c57505050855f965b89518810156107155760208860051b8b010151908181105f14610704575f52602052600160405f205b9701966106d3565b905f52602052600160405f206106fc565b880361094d575f52600260205260405f20600160ff198254161790558261074c575b8460015f5160206111725f395f51905f525580f35b60405163e2d2bfe360e01b8152602081600481885afa908115610874575f9161090a575b5060405163a29a839f60e01b815290602090829060049082906001600160a01b03165afa908115610874575f916108d8575b5060405190632dddd14760e21b82526004820152602081602481885afa908115610874575f916108a6575b50831161089757815f52600560205260405f20805490848201809211610883575581847fa0658766879d3786b287c54a55251809c0f55559b7a1136df4f9e4483d9bb57c60206040519487865260018060a01b031694a4823b1561087f5760445f9283604051958694859363aa553b6160e01b8552600485015260248401525af1801561087457610861575b808080610737565b61086d91505f90611005565b5f81610859565b6040513d5f823e3d90fd5b5f80fd5b634e487b7160e01b5f52601160045260245ffd5b63fa3505cf60e01b5f5260045ffd5b90506020813d6020116108d0575b816108c160209383611005565b8101031261087f5751866107cd565b3d91506108b4565b90506020813d602011610902575b816108f360209383611005565b8101031261087f5751866107a2565b3d91506108e6565b90506020813d602011610945575b8161092560209383611005565b8101031261087f57516001600160a01b038116810361087f576020610770565b3d9150610918565b63582f497d60e11b5f5260045ffd5b81358152602091820191016106c5565b6361eca85360e11b5f5260045ffd5b639fabe1c160e01b5f5260045ffd5b506001600160a01b03891615610606565b634fc5147960e11b5f5260045ffd5b8263299f342560e01b5f5260045260245ffd5b633ee5aeb560e01b5f5260045ffd5b3461087f57604036600319011261087f576109e5610fc5565b6109ed610fdb565b906109f66110ac565b6001600160a01b03169081158015610aad575b61097b57815f52600360205260405f2060018060a01b0382165f5260205260ff60405f20541615610a8a575f8281526003602090815260408083206001600160a01b0394909416808452939091528120805460ff191690559091907faefe35de031dedb5ab8cc1d47f43a3327b372e796c145184a697e511b8229aef9080a3005b63063b14e160e01b5f9081526004929092526001600160a01b0316602452604490fd5b506001600160a01b03811615610a09565b3461087f575f36600319011261087f575f5160206111325f395f51905f52546040516001600160a01b039091168152602090f35b3461087f575f36600319011261087f576006546040516001600160a01b039091168152602090f35b3461087f575f36600319011261087f57610b326110ac565b610b3a6110df565b600160ff195f5160206111525f395f51905f525416175f5160206111525f395f51905f52557f62e78cea01bee320cd4e420270b5ea74000d11b0c9f74754ebdbfc544b05a2586020604051338152a1005b3461087f575f36600319011261087f57610ba36110ac565b5f5160206111325f395f51905f5280546001600160a01b031981169091555f906001600160a01b03167f8be0079c531659141344cd1fd0a4f28419497f9722a3daafe3b4186f6b6457e08280a3005b3461087f575f36600319011261087f57602060ff5f5160206111525f395f51905f5254166040519015158152f35b3461087f57604036600319011261087f57610c39610fc5565b610c41610fdb565b905f5160206111925f395f51905f52549160ff8360401c16159267ffffffffffffffff811680159081610dc5575b6001149081610dbb575b159081610db2575b50610da35767ffffffffffffffff1981166001175f5160206111925f395f51905f525583610d77575b506001600160a01b0382161561097b576001600160a01b031690811561097b57610cde90610cd6611106565b6101af611106565b610ce6611106565b610cee611106565b60015f5160206111725f395f51905f5255610d07611106565b6001600160601b0360a01b6006541617600655610d2057005b68ff0000000000000000195f5160206111925f395f51905f5254165f5160206111925f395f51905f52557fc7f505b2f371ae2175ee4913f4499e1f2633a7b5936321eed1cdaeb6115181d2602060405160018152a1005b68ffffffffffffffffff191668010000000000000001175f5160206111925f395f51905f525583610caa565b63f92ee8a960e01b5f5260045ffd5b90501585610c81565b303b159150610c79565b859150610c6f565b3461087f57604036600319011261087f57610de6610fc5565b610dee610fdb565b9060018060a01b03165f52600360205260405f209060018060a01b03165f52602052602060ff60405f2054166040519015158152f35b3461087f575f36600319011261087f57610e3c6110ac565b5f5160206111525f395f51905f525460ff811615610e935760ff19165f5160206111525f395f51905f52557f5db9ee0a495bf2e6ff9c91a7834c1ba4fdd244a5e8aa4e537bd38aeae4b073aa6020604051338152a1005b638dfc202b60e01b5f5260045ffd5b3461087f57604036600319011261087f57610ebb610fc5565b610ec3610fdb565b90610ecc6110ac565b6001600160a01b03169081158015610fb4575b61097b575f828152602081905260409020546001600160a01b031615610fa157815f52600360205260405f2060018060a01b0382165f5260205260ff60405f205416610f7e575f8281526003602090815260408083206001600160a01b0394909416808452939091528120805460ff191660011790559091907fc4197ecff949dd61ca54e3a858427a30a97d3b06a1d8474fdb0e7509ae9165289080a3005b635646f04d60e01b5f9081526004929092526001600160a01b0316602452604490fd5b5063299f342560e01b5f5260045260245ffd5b506001600160a01b03811615610edf565b600435906001600160a01b038216820361087f57565b602435906001600160a01b038216820361087f57565b356001600160a01b038116810361087f5790565b90601f8019910116810190811067ffffffffffffffff82111761102757604052565b634e487b7160e01b5f52604160045260245ffd5b6001600160a01b03168015611099575f5160206111325f395f51905f5280546001600160a01b0319811683179091556001600160a01b03167f8be0079c531659141344cd1fd0a4f28419497f9722a3daafe3b4186f6b6457e05f80a3565b631e4fbdf760e01b5f525f60045260245ffd5b5f5160206111325f395f51905f52546001600160a01b031633036110cc57565b63118cdaa760e01b5f523360045260245ffd5b60ff5f5160206111525f395f51905f5254166110f757565b63d93c066560e01b5f5260045ffd5b60ff5f5160206111925f395f51905f525460401c161561112257565b631afcd79f60e31b5f5260045ffdfe9016d09d72d40fdae2fd8ceac6b6234c7706214fd39c1cd1e609a0528c199300cd5ed15c6e187e77e9aee88184c21f4f2182ab5827cb3b7e07fbedcd63f033009b779b17422d0df92223018b32b4d1fa46e071723d6817e2486d003becc55f00f0c57e16840df040f15088dc2f81fe391c3923bec73e23a9662efc9c229c6a00a2646970667358221220c98dcfd0e691ca49c3b5400bcfbd9053add44eb9798a912e7b69a59cfa19a24464736f6c634300081e0033f0c57e16840df040f15088dc2f81fe391c3923bec73e23a9662efc9c229c6a00","linkReferences":{}},"methodIdentifiers":{"addVault(address,address)":"ec3a7823","claimSubsidy(address,(address,address,uint256,bytes32[]))":"a5a8d0fc","collectionRegistry()":"8c7cc5e3","initialize(address,address)":"485cc955","isCollectionWhitelisted(address,address)":"41afb808","owner()":"8da5cb5b","pause()":"8456cb59","paused()":"5c975abb","removeCollection(address,address)":"9f1bcbad","removeVault(address)":"ceb68c23","renounceOwnership()":"715018a6","transferOwnership(address)":"f2fde38b","unpause()":"3f4ba83a","updateMerkleRoot(address,bytes32)":"e786818e","userSecondsClaimed(address)":"b1cd60f2","vault(address)":"f815c03d","whitelistCollection(address,address)":"2526952a"},"id":32}