{"abi":[{"type":"constructor","inputs":[],"stateMutability":"nonpayable"},{"type":"function","name":"addVault","inputs":[{"name":"vaultAddress_","type":"address","internalType":"address"},{"name":"lendingManagerAddress_","type":"address","internalType":"address"}],"outputs":[],"stateMutability":"nonpayable"},{"type":"function","name":"collectionRewardBasis","inputs":[{"name":"vaultAddress","type":"address","internalType":"address"},{"name":"collectionAddress","type":"address","internalType":"address"}],"outputs":[{"name":"","type":"uint8","internalType":"enum IDebtSubsidizer.RewardBasis"}],"stateMutability":"view"},{"type":"function","name":"eip712Domain","inputs":[],"outputs":[{"name":"fields","type":"bytes1","internalType":"bytes1"},{"name":"name","type":"string","internalType":"string"},{"name":"version","type":"string","internalType":"string"},{"name":"chainId","type":"uint256","internalType":"uint256"},{"name":"verifyingContract","type":"address","internalType":"address"},{"name":"salt","type":"bytes32","internalType":"bytes32"},{"name":"extensions","type":"uint256[]","internalType":"uint256[]"}],"stateMutability":"view"},{"type":"function","name":"getCollectionWeightFunction","inputs":[{"name":"vaultAddress","type":"address","internalType":"address"},{"name":"collectionAddress","type":"address","internalType":"address"}],"outputs":[{"name":"","type":"tuple","internalType":"struct IDebtSubsidizer.WeightFunction","components":[{"name":"fnType","type":"uint8","internalType":"enum IDebtSubsidizer.WeightFunctionType"},{"name":"p1","type":"int256","internalType":"int256"},{"name":"p2","type":"int256","internalType":"int256"}]}],"stateMutability":"view"},{"type":"function","name":"getDomainSeparator","inputs":[],"outputs":[{"name":"","type":"bytes32","internalType":"bytes32"}],"stateMutability":"view"},{"type":"function","name":"initialize","inputs":[{"name":"initialOwner","type":"address","internalType":"address"},{"name":"initialSubsidySigner","type":"address","internalType":"address"}],"outputs":[],"stateMutability":"nonpayable"},{"type":"function","name":"isCollectionWhitelisted","inputs":[{"name":"vaultAddress","type":"address","internalType":"address"},{"name":"collectionAddress","type":"address","internalType":"address"}],"outputs":[{"name":"","type":"bool","internalType":"bool"}],"stateMutability":"view"},{"type":"function","name":"owner","inputs":[],"outputs":[{"name":"","type":"address","internalType":"address"}],"stateMutability":"view"},{"type":"function","name":"pause","inputs":[],"outputs":[],"stateMutability":"nonpayable"},{"type":"function","name":"paused","inputs":[],"outputs":[{"name":"","type":"bool","internalType":"bool"}],"stateMutability":"view"},{"type":"function","name":"removeCollection","inputs":[{"name":"vaultAddress","type":"address","internalType":"address"},{"name":"collectionAddress","type":"address","internalType":"address"}],"outputs":[],"stateMutability":"nonpayable"},{"type":"function","name":"removeVault","inputs":[{"name":"vaultAddress_","type":"address","internalType":"address"}],"outputs":[],"stateMutability":"nonpayable"},{"type":"function","name":"renounceOwnership","inputs":[],"outputs":[],"stateMutability":"nonpayable"},{"type":"function","name":"setWeightFunction","inputs":[{"name":"vaultAddress","type":"address","internalType":"address"},{"name":"collectionAddress","type":"address","internalType":"address"},{"name":"newWeightFunction_","type":"tuple","internalType":"struct IDebtSubsidizer.WeightFunction","components":[{"name":"fnType","type":"uint8","internalType":"enum IDebtSubsidizer.WeightFunctionType"},{"name":"p1","type":"int256","internalType":"int256"},{"name":"p2","type":"int256","internalType":"int256"}]}],"outputs":[],"stateMutability":"nonpayable"},{"type":"function","name":"subsidize","inputs":[{"name":"vaultAddress","type":"address","internalType":"address"},{"name":"subsidies","type":"tuple[]","internalType":"struct IDebtSubsidizer.Subsidy[]","components":[{"name":"account","type":"address","internalType":"address"},{"name":"collection","type":"address","internalType":"address"},{"name":"vault","type":"address","internalType":"address"},{"name":"amount","type":"uint256","internalType":"uint256"},{"name":"nonce","type":"uint256","internalType":"uint256"},{"name":"deadline","type":"uint256","internalType":"uint256"}]},{"name":"signature","type":"bytes","internalType":"bytes"}],"outputs":[],"stateMutability":"nonpayable"},{"type":"function","name":"subsidySigner","inputs":[],"outputs":[{"name":"","type":"address","internalType":"address"}],"stateMutability":"view"},{"type":"function","name":"transferOwnership","inputs":[{"name":"newOwner","type":"address","internalType":"address"}],"outputs":[],"stateMutability":"nonpayable"},{"type":"function","name":"unpause","inputs":[],"outputs":[],"stateMutability":"nonpayable"},{"type":"function","name":"updateCollectionPercentageShare","inputs":[{"name":"vaultAddress","type":"address","internalType":"address"},{"name":"collectionAddress","type":"address","internalType":"address"},{"name":"newSharePercentageBps","type":"uint16","internalType":"uint16"}],"outputs":[],"stateMutability":"nonpayable"},{"type":"function","name":"updateTrustedSigner","inputs":[{"name":"newSigner","type":"address","internalType":"address"}],"outputs":[],"stateMutability":"nonpayable"},{"type":"function","name":"userNonce","inputs":[{"name":"vaultAddress","type":"address","internalType":"address"},{"name":"userAddress","type":"address","internalType":"address"}],"outputs":[{"name":"nonce","type":"uint64","internalType":"uint64"}],"stateMutability":"view"},{"type":"function","name":"userSecondsClaimed","inputs":[{"name":"user","type":"address","internalType":"address"}],"outputs":[{"name":"","type":"uint256","internalType":"uint256"}],"stateMutability":"view"},{"type":"function","name":"vault","inputs":[{"name":"vaultAddress","type":"address","internalType":"address"}],"outputs":[{"name":"vaultInfo_","type":"tuple","internalType":"struct IDebtSubsidizer.VaultInfo","components":[{"name":"lendingManager","type":"address","internalType":"address"},{"name":"cToken","type":"address","internalType":"address"}]}],"stateMutability":"view"},{"type":"function","name":"whitelistCollection","inputs":[{"name":"vaultAddress","type":"address","internalType":"address"},{"name":"collectionAddress","type":"address","internalType":"address"},{"name":"collectionType","type":"uint8","internalType":"enum IDebtSubsidizer.CollectionType"},{"name":"rewardBasis","type":"uint8","internalType":"enum IDebtSubsidizer.RewardBasis"},{"name":"sharePercentageBps","type":"uint16","internalType":"uint16"}],"outputs":[],"stateMutability":"nonpayable"},{"type":"event","name":"CollectionYieldShareUpdated","inputs":[{"name":"vaultAddress","type":"address","indexed":true,"internalType":"address"},{"name":"collectionAddress","type":"address","indexed":true,"internalType":"address"},{"name":"oldSharePercentage","type":"uint16","indexed":false,"internalType":"uint16"},{"name":"newSharePercentage","type":"uint16","indexed":false,"internalType":"uint16"}],"anonymous":false},{"type":"event","name":"DebtSubsidized","inputs":[{"name":"vaultAddress","type":"address","indexed":true,"internalType":"address"},{"name":"user","type":"address","indexed":true,"internalType":"address"},{"name":"collectionAddress","type":"address","indexed":true,"internalType":"address"},{"name":"amount","type":"uint256","indexed":false,"internalType":"uint256"}],"anonymous":false},{"type":"event","name":"EIP712DomainChanged","inputs":[],"anonymous":false},{"type":"event","name":"Initialized","inputs":[{"name":"version","type":"uint64","indexed":false,"internalType":"uint64"}],"anonymous":false},{"type":"event","name":"NewCollectionWhitelisted","inputs":[{"name":"vaultAddress","type":"address","indexed":true,"internalType":"address"},{"name":"collectionAddress","type":"address","indexed":true,"internalType":"address"},{"name":"collectionType","type":"uint8","indexed":false,"internalType":"enum IDebtSubsidizer.CollectionType"},{"name":"rewardBasis","type":"uint8","indexed":false,"internalType":"enum IDebtSubsidizer.RewardBasis"},{"name":"sharePercentage","type":"uint16","indexed":false,"internalType":"uint16"},{"name":"weightFunction","type":"tuple","indexed":false,"internalType":"struct IDebtSubsidizer.WeightFunction","components":[{"name":"fnType","type":"uint8","internalType":"enum IDebtSubsidizer.WeightFunctionType"},{"name":"p1","type":"int256","internalType":"int256"},{"name":"p2","type":"int256","internalType":"int256"}]}],"anonymous":false},{"type":"event","name":"OwnershipTransferred","inputs":[{"name":"previousOwner","type":"address","indexed":true,"internalType":"address"},{"name":"newOwner","type":"address","indexed":true,"internalType":"address"}],"anonymous":false},{"type":"event","name":"Paused","inputs":[{"name":"account","type":"address","indexed":false,"internalType":"address"}],"anonymous":false},{"type":"event","name":"TrustedSignerUpdated","inputs":[{"name":"oldSigner","type":"address","indexed":false,"internalType":"address"},{"name":"newSigner","type":"address","indexed":false,"internalType":"address"},{"name":"changedBy","type":"address","indexed":true,"internalType":"address"}],"anonymous":false},{"type":"event","name":"Unpaused","inputs":[{"name":"account","type":"address","indexed":false,"internalType":"address"}],"anonymous":false},{"type":"event","name":"VaultAdded","inputs":[{"name":"vaultAddress","type":"address","indexed":true,"internalType":"address"},{"name":"cTokenAddress","type":"address","indexed":true,"internalType":"address"},{"name":"lendingManagerAddress","type":"address","indexed":true,"internalType":"address"}],"anonymous":false},{"type":"event","name":"VaultRemoved","inputs":[{"name":"vaultAddress","type":"address","indexed":true,"internalType":"address"}],"anonymous":false},{"type":"event","name":"WeightFunctionConfigUpdated","inputs":[{"name":"vaultAddress","type":"address","indexed":true,"internalType":"address"},{"name":"collectionAddress","type":"address","indexed":true,"internalType":"address"},{"name":"oldWeightFunction","type":"tuple","indexed":false,"internalType":"struct IDebtSubsidizer.WeightFunction","components":[{"name":"fnType","type":"uint8","internalType":"enum IDebtSubsidizer.WeightFunctionType"},{"name":"p1","type":"int256","internalType":"int256"},{"name":"p2","type":"int256","internalType":"int256"}]},{"name":"newWeightFunction","type":"tuple","indexed":false,"internalType":"struct IDebtSubsidizer.WeightFunction","components":[{"name":"fnType","type":"uint8","internalType":"enum IDebtSubsidizer.WeightFunctionType"},{"name":"p1","type":"int256","internalType":"int256"},{"name":"p2","type":"int256","internalType":"int256"}]}],"anonymous":false},{"type":"event","name":"WeightFunctionSet","inputs":[{"name":"vaultAddress","type":"address","indexed":true,"internalType":"address"},{"name":"collectionAddress","type":"address","indexed":true,"internalType":"address"},{"name":"fn","type":"tuple","indexed":false,"internalType":"struct IDebtSubsidizer.WeightFunction","components":[{"name":"fnType","type":"uint8","internalType":"enum IDebtSubsidizer.WeightFunctionType"},{"name":"p1","type":"int256","internalType":"int256"},{"name":"p2","type":"int256","internalType":"int256"}]}],"anonymous":false},{"type":"event","name":"WhitelistCollectionRemoved","inputs":[{"name":"vaultAddress","type":"address","indexed":true,"internalType":"address"},{"name":"collectionAddress","type":"address","indexed":true,"internalType":"address"}],"anonymous":false},{"type":"error","name":"AddressZero","inputs":[]},{"type":"error","name":"ArrayLengthMismatch","inputs":[]},{"type":"error","name":"CannotSetSignerToZeroAddress","inputs":[]},{"type":"error","name":"ClaimExpired","inputs":[]},{"type":"error","name":"CollectionAlreadyExists","inputs":[{"name":"collection","type":"address","internalType":"address"}]},{"type":"error","name":"CollectionAlreadyWhitelistedInVault","inputs":[{"name":"vaultAddress","type":"address","internalType":"address"},{"name":"collectionAddress","type":"address","internalType":"address"}]},{"type":"error","name":"CollectionNotWhitelisted","inputs":[{"name":"collection","type":"address","internalType":"address"}]},{"type":"error","name":"CollectionNotWhitelistedInVault","inputs":[{"name":"vaultAddress","type":"address","internalType":"address"},{"name":"collectionAddress","type":"address","internalType":"address"}]},{"type":"error","name":"ECDSAInvalidSignature","inputs":[]},{"type":"error","name":"ECDSAInvalidSignatureLength","inputs":[{"name":"length","type":"uint256","internalType":"uint256"}]},{"type":"error","name":"ECDSAInvalidSignatureS","inputs":[{"name":"s","type":"bytes32","internalType":"bytes32"}]},{"type":"error","name":"EnforcedPause","inputs":[]},{"type":"error","name":"ExpectedPause","inputs":[]},{"type":"error","name":"InsufficientYield","inputs":[]},{"type":"error","name":"InvalidCollectionInterface","inputs":[{"name":"collectionAddress","type":"address","internalType":"address"},{"name":"interfaceId","type":"bytes4","internalType":"bytes4"}]},{"type":"error","name":"InvalidInitialization","inputs":[]},{"type":"error","name":"InvalidNonce","inputs":[]},{"type":"error","name":"InvalidSecondsColl","inputs":[]},{"type":"error","name":"InvalidSignature","inputs":[]},{"type":"error","name":"InvalidYieldSharePercentage","inputs":[{"name":"totalSharePercentage","type":"uint256","internalType":"uint256"}]},{"type":"error","name":"InvalidYieldSlice","inputs":[]},{"type":"error","name":"LendingManagerAssetMismatch","inputs":[{"name":"vaultAsset","type":"address","internalType":"address"},{"name":"lmAsset","type":"address","internalType":"address"}]},{"type":"error","name":"LendingManagerNotSetForVault","inputs":[{"name":"vaultAddress","type":"address","internalType":"address"}]},{"type":"error","name":"NotInitializing","inputs":[]},{"type":"error","name":"OwnableInvalidOwner","inputs":[{"name":"owner","type":"address","internalType":"address"}]},{"type":"error","name":"OwnableUnauthorizedAccount","inputs":[{"name":"account","type":"address","internalType":"address"}]},{"type":"error","name":"ReentrancyGuardReentrantCall","inputs":[]},{"type":"error","name":"VaultAlreadyRegistered","inputs":[{"name":"vaultAddress","type":"address","internalType":"address"}]},{"type":"error","name":"VaultMismatch","inputs":[]},{"type":"error","name":"VaultNotRegistered","inputs":[{"name":"vaultAddress","type":"address","internalType":"address"}]}],"bytecode":{"object":"0x6080806040523460aa575f516020612a485f395f51905f525460ff8160401c16609b576002600160401b03196001600160401b038216016049575b60405161299990816100af8239f35b6001600160401b0319166001600160401b039081175f516020612a485f395f51905f525581527fc7f505b2f371ae2175ee4913f4499e1f2633a7b5936321eed1cdaeb6115181d290602090a15f80603a565b63f92ee8a960e01b5f5260045ffd5b5f80fdfe60806040526004361015610011575f80fd5b5f5f3560e01c8063075d01f014612071578063120c030f14611b9d5780632f6cdb0d14611b415780633f4ba83a14611ac357806341afb80814611a6c578063485cc9551461152c578063587bdec2146114475780635c975abb146114195780636455940814610ce8578063715018a614610c7f5780637530625f14610bed578063804096e014610bc65780638456cb5914610b5357806384b0196e14610a2e5780638da5cb5b146109f9578063930e203a146108215780639f1bcbad14610672578063b1cd60f214610633578063ceb68c2314610570578063e6aeb97b146104c8578063ec3a7823146102ac578063ed24911d14610212578063f2fde38b146101e55763f815c03d14610122575f80fd5b346101e25760203660031901126101e25761013b6121e4565b604051906040820182811067ffffffffffffffff8211176101ce57604090815283835260208084018581526001600160a01b03938416808752600190925291852054909491921680156101ba57825292835260096020908152604093849020546001600160a01b03908116938490528451938452915190911690820152f35b63299f342560e01b82526004859052602482fd5b634e487b7160e01b84526041600452602484fd5b80fd5b50346101e25760203660031901126101e25761020f6102026121e4565b61020a61249f565b61242e565b80f35b50346101e257806003193601126101e2576020906042906102316127f4565b61023961285e565b60405190858201927f8b73c3c69bb8fe3d512ecc4cf759cc79239f7b179b0ffacaa9a75d522b39400f8452604083015260608201524660808201523060a082015260a0815261028960c0826122d7565b519020906040519161190160f01b83526002830152602282015220604051908152f35b50346101e25760403660031901126101e2576102c66121e4565b6102ce6121fa565b906102d761249f565b6001600160a01b031690811580156104b7575b6104a857818352600160205260408320546001600160a01b0316610494576040516338d52e0f60e01b81526001600160a01b039190911691602082600481845afa918215610489578492610441575b506040516338d52e0f60e01b8152602081600481875afa9081156104365785916103f0575b506001600160a01b0392831692168083036103d9575080845260096020908152604080862080546001600160a01b03199081166001600160a01b03881617909155838752600190925285208054909116831790557fc590bd7f43139981c355ef80ff49e3082ca7d9b6d0102bac27423c00b9d445898480a480f35b6342a981d760e01b85526004839052602452604484fd5b90506020813d60201161042e575b8161040b602093836122d7565b8101031261042a57516001600160a01b038116810361042a575f61035e565b8480fd5b3d91506103fe565b6040513d87823e3d90fd5b9091506020813d602011610481575b8161045d602093836122d7565b8101031261047d57516001600160a01b038116810361047d57905f610339565b8380fd5b3d9150610450565b6040513d86823e3d90fd5b631c5fe60b60e11b83526004829052602483fd5b639fabe1c160e01b8352600483fd5b506001600160a01b038116156102ea565b50346101e25760403660031901126101e2576104e26121e4565b906104eb6121fa565b9160018060a01b031680825260086020526040822060018060a01b0384165f5260205260ff60405f20541615610550579060409181526006602052209060018060a01b03165f52602052602060ff60405f2054166040519061054c81612224565b8152f35b63063b14e160e01b82526004526001600160a01b03909116602452604490fd5b50346101e25760203660031901126101e25761058a6121e4565b61059261249f565b6001600160a01b0316801561062457808252600160205260408220546001600160a01b0316156106125780825260016020528160408120558082526009602052604082206bffffffffffffffffffffffff60a01b81541690557fe71f3a50e5ad81964f352c411f1d45e35438ecd1acecef59ac81d9fbbf6cbc0a8280a280f35b63299f342560e01b8252600452602490fd5b639fabe1c160e01b8252600482fd5b50346101e25760203660031901126101e2576001600160a01b036106556121e4565b168015610624578160409160209352600b83522054604051908152f35b50346101e25760403660031901126101e25761068c6121e4565b6106946121fa565b9061069d61249f565b6001600160a01b03169081158015610810575b6104a85781835260086020526040832060018060a01b0382165f5260205260ff60405f205416156107ef5781835260046020526040832060018060a01b0382165f5260205261ffff60405f205416828452600560205261ffff61071a604086209282845416612418565b8254911661ffff19918216179091558284526008602090815260408086206001600160a01b03949094165f818152948352818520805460ff199081169091558688526007845282882082875284528286208054821690558688526006845282882082875284528286208054909116905585875260048352818720818652835281852080549094169093558486526003825280862083855290915290912083815560018101849055600201839055907faefe35de031dedb5ab8cc1d47f43a3327b372e796c145184a697e511b8229aef8380a380f35b63063b14e160e01b83526004919091526001600160a01b0316602452604490fd5b506001600160a01b038116156106b0565b50346101e25760603660031901126101e25761083b6121e4565b6108436121fa565b906044359161ffff83169182840361042a5761085d61249f565b6001600160a01b031691821580156109e8575b6109d95782855260086020526040852060018060a01b0383165f5260205260ff60405f205416156109b85782855260046020526040852060018060a01b0383165f5260205261ffff60405f20541693838652600560205261271061ffff6108e6836108e1898460408d205416612418565b612311565b1611610986579160409161092e7fcd31e534a1904d43dfec903dbb8ea7ee0ef32ecfef21dc5775a478322af140fe9486895260056020526108e18861ffff878c205416612418565b858852600560205261ffff848920911661ffff19825416179055848752600460205282872060018060a01b0383165f52602052825f208161ffff198254161790558251958652602086015260018060a01b031693a380f35b8561ffff6109a86024936108e189898652600560205284604087205416612418565b635d9b37d560e11b835216600452fd5b63063b14e160e01b855260048390526001600160a01b038216602452604485fd5b639fabe1c160e01b8552600485fd5b506001600160a01b03821615610870565b50346101e257806003193601126101e2575f5160206128c45f395f51905f52546040516001600160a01b039091168152602090f35b50346101e257806003193601126101e2577fa16a46d94261c7517cc8ff89f61c0ce93598e3c849801011dee649a6a557d100541580610b2a575b15610aed57610abc90610ae9610a7c612531565b91610a85612600565b610aca60405191610a976020846122d7565b8383525f368137604051968796600f60f81b885260e0602089015260e0880190612264565b908682036040880152612264565b9146606086015230608086015260a085015283820360c0850152612288565b0390f35b60405162461bcd60e51b81526020600482015260156024820152741152540dcc4c8e88155b9a5b9a5d1a585b1a5e9959605a1b6044820152606490fd5b507fa16a46d94261c7517cc8ff89f61c0ce93598e3c849801011dee649a6a557d1015415610a68565b50346101e257806003193601126101e257610b6c61249f565b610b746124d2565b600160ff195f5160206129045f395f51905f525416175f5160206129045f395f51905f52557f62e78cea01bee320cd4e420270b5ea74000d11b0c9f74754ebdbfc544b05a2586020604051338152a180f35b50346101e257806003193601126101e257546040516001600160a01b039091168152602090f35b50346101e25760203660031901126101e257610c076121e4565b610c0f61249f565b6001600160a01b03168015610c705781546001600160a01b0319811682178355604080516001600160a01b039092168252602082019290925233917ff7846e9711f4c38ee0af962397d2e33cdfd5c03d74b18d7d2bf065d96c76761f91a280f35b63c4aaac8b60e01b8252600482fd5b50346101e257806003193601126101e257610c9861249f565b5f5160206128c45f395f51905f5280546001600160a01b0319811690915581906001600160a01b03167f8be0079c531659141344cd1fd0a4f28419497f9722a3daafe3b4186f6b6457e08280a380f35b50346111cc5760603660031901126111cc57610d026121e4565b9060243567ffffffffffffffff81116111cc57366023820112156111cc5780600401359267ffffffffffffffff84116111cc5736602460c08602840101116111cc5760443567ffffffffffffffff81116111cc57366023820112156111cc57806004013567ffffffffffffffff81116111cc5736602482840101116111cc5760025f5160206129245f395f51905f52541461140a5760025f5160206129245f395f51905f5255610db06124d2565b60405160208101908760408201602084525260608101602487015f5b8a811061139457505060206042610eab969484610df7610ea298965f9603601f1981018352826122d7565b519020610e026127f4565b610e0a61285e565b60405190858201927f8b73c3c69bb8fe3d512ecc4cf759cc79239f7b179b0ffacaa9a75d522b39400f8452604083015260608201524660808201523060a082015260a08152610e5a60c0826122d7565b519020906040519161190160f01b835260028301526022820152209280602483601f19601f8401160196610e9160405198896122d7565b8288520183870137840101526126d8565b90929192612712565b5f546001600160a01b03918216911681148015919061138b575b5061137c576001600160a01b039081165f818152600160205260409020549091161561136a57610ef484612353565b92610efe85612353565b90610f0886612353565b935f905f925f5b898110156110dd5760c081028301610f2960248201612385565b90610f3660448201612385565b90610f4360648201612385565b6084820135936001600160a01b03169190821580156110cc575b80156110bb575b6110ac576001600160a01b03168b900361109d5760c4810135421161108e578a5f52600260205260405f20825f5260205260a460405f20549101350361107f57898b8a8e835f52600260205260405f20855f5260205260405f20610fc88154612399565b905586610fdf575b50505050505050600101610f0f565b918a878697989d95969382610ff6839f80986123a7565b6001600160a01b03909b169a8b905261100e916123a7565b52611018916123a7565b5261102290612399565b9761102c916123cf565b97825f52600b60205260405f2081815490611046916123cf565b905560405190815260207fb4aef4db599630a2c1c8113df5a41ef3c5614e744fc894909eaa5abb1922d5d991a45f8080898b8a8e610fd0565b633ab3447f60e11b5f5260045ffd5b6341524ecf60e11b5f5260045ffd5b63c1faacc560e01b5f5260045ffd5b639fabe1c160e01b5f5260045ffd5b506001600160a01b03811615610f64565b506001600160a01b03841615610f5d565b509750509291928161122b575b80611105575b8660015f5160206129245f395f51905f525580f35b61110e81612353565b9461111882612353565b9461112283612353565b975f5b8481106111d0575050505050813b156111cc575f809461116b9261118f61117d98604051998a9889978896638f6fbf0960e01b88526080600489015260848801906123dc565b86810360031901602488015290612288565b848103600319016044860152906123dc565b90606483015203925af180156111c1576111ae575b80808080806110f0565b6111ba91505f906122d7565b5f5f6111a4565b6040513d5f823e3d90fd5b5f80fd5b6001906001600160a01b036111e582856123a7565b51166111f1828c6123a7565b526111fc81856123a7565b51611207828b6123a7565b52818060a01b0361121882876123a7565b5116611224828d6123a7565b5201611125565b60405163e2d2bfe360e01b8152602081600481875afa9081156111c1575f91611327575b5060405163a29a839f60e01b815290602090829060049082906001600160a01b03165afa9081156111c1575f916112f5575b5060405190632dddd14760e21b82526004820152602081602481875afa9081156111c1575f916112c3575b508211156110ea5763fa3505cf60e01b5f5260045ffd5b90506020813d6020116112ed575b816112de602093836122d7565b810103126111cc57515f6112ac565b3d91506112d1565b90506020813d60201161131f575b81611310602093836122d7565b810103126111cc57515f611281565b3d9150611303565b90506020813d602011611362575b81611342602093836122d7565b810103126111cc57516001600160a01b03811681036111cc57602061124f565b3d9150611335565b63299f342560e01b5f5260045260245ffd5b638baa579f60e01b5f5260045ffd5b9050155f610ec5565b909160019060c09081906001600160a01b036113af87612210565b168152838060a01b036113c460208801612210565b166020820152838060a01b036113dc60408801612210565b166040820152606086013560608201526080860135608082015260a086013560a08201520193019101610dcc565b633ee5aeb560e01b5f5260045ffd5b346111cc575f3660031901126111cc57602060ff5f5160206129045f395f51905f5254166040519015158152f35b346111cc5760403660031901126111cc576114606121e4565b6114686121fa565b905f60408051611477816122bb565b828152826020820152015260018060a01b0316805f52600860205260405f2060018060a01b0383165f5260205260ff60405f2054161561150f575f52600360205260405f209060018060a01b03165f52602052606060405f206002604051916114df836122bb565b60ff8154166114ed81612224565b8352600181015460208401520154604082015261150d6040518092612242565bf35b63063b14e160e01b5f5260045260018060a01b031660245260445ffd5b346111cc5760403660031901126111cc576115456121e4565b61154d6121fa565b905f5160206129445f395f51905f52549060ff8260401c16159167ffffffffffffffff811680159081611a64575b6001149081611a5a575b159081611a51575b50611a425767ffffffffffffffff1981166001175f5160206129445f395f51905f525582611a16575b506001600160a01b038116158015611a05575b6110ac576115e1906115d96126ad565b61020a6126ad565b6115e96126ad565b6115f16126ad565b60015f5160206129245f395f51905f525560409081519261161283856122d7565b600e84526d2232b13a29bab139b4b234bd32b960911b602085015282519361163a84866122d7565b60018552603160f81b60208601526116506126ad565b6116586126ad565b80519067ffffffffffffffff82116118ee5781906116835f5160206128a45f395f51905f52546124f9565b601f811161198b575b50602090601f831160011461190d575f92611902575b50508160011b915f199060031b1c1916175f5160206128a45f395f51905f52555b835167ffffffffffffffff81116118ee576116eb5f5160206128e45f395f51905f52546124f9565b601f811161187f575b50602094601f8211600114611804579481929394955f926117f9575b50508160011b915f199060031b1c1916175f5160206128e45f395f51905f52555b5f7fa16a46d94261c7517cc8ff89f61c0ce93598e3c849801011dee649a6a557d100555f7fa16a46d94261c7517cc8ff89f61c0ce93598e3c849801011dee649a6a557d1015561177f6126ad565b60018060a01b03166bffffffffffffffffffffffff60a01b5f5416175f556117a357005b60207fc7f505b2f371ae2175ee4913f4499e1f2633a7b5936321eed1cdaeb6115181d29168ff0000000000000000195f5160206129445f395f51905f5254165f5160206129445f395f51905f52555160018152a1005b015190508580611710565b601f198216955f5160206128e45f395f51905f525f52805f20915f5b8881106118675750836001959697981061184f575b505050811b015f5160206128e45f395f51905f5255611731565b01515f1960f88460031b161c19169055858080611835565b91926020600181928685015181550194019201611820565b5f5160206128e45f395f51905f525f527f5f9ce34815f8e11431c7bb75a8e6886a91478f7ffc1dbb0a98dc240fddd76b75601f830160051c810191602084106118e4575b601f0160051c01905b8181106118d957506116f4565b5f81556001016118cc565b90915081906118c3565b634e487b7160e01b5f52604160045260245ffd5b0151905086806116a2565b5f5160206128a45f395f51905f525f9081528281209350601f198516905b818110611973575090846001959493921061195b575b505050811b015f5160206128a45f395f51905f52556116c3565b01515f1960f88460031b161c19169055868080611941565b9293602060018192878601518155019501930161192b565b5f5160206128a45f395f51905f525f529091507f42ad5d3e1f2e6e70edcf6d991b8a3023d3fca8047a131592f9edb9fd9b89d57d601f840160051c810191602085106119fb575b90601f859493920160051c01905b8181106119ed575061168c565b5f81558493506001016119e0565b90915081906119d2565b506001600160a01b038316156115c9565b68ffffffffffffffffff191668010000000000000001175f5160206129445f395f51905f5255836115b6565b63f92ee8a960e01b5f5260045ffd5b9050158561158d565b303b159150611585565b84915061157b565b346111cc5760403660031901126111cc57611a856121e4565b611a8d6121fa565b9060018060a01b03165f52600860205260405f209060018060a01b03165f52602052602060ff60405f2054166040519015158152f35b346111cc575f3660031901126111cc57611adb61249f565b5f5160206129045f395f51905f525460ff811615611b325760ff19165f5160206129045f395f51905f52557f5db9ee0a495bf2e6ff9c91a7834c1ba4fdd244a5e8aa4e537bd38aeae4b073aa6020604051338152a1005b638dfc202b60e01b5f5260045ffd5b346111cc5760403660031901126111cc57611b5a6121e4565b611b626121fa565b9060018060a01b03165f52600260205260405f209060018060a01b03165f52602052602067ffffffffffffffff60405f205416604051908152f35b346111cc5760a03660031901126111cc57611bb66121e4565b611bbe6121fa565b906044359160028310156111cc5760643560028110156111cc576084359261ffff8416908185036111cc57611bf161249f565b6001600160a01b03169384158015612060575b6110ac575f858152600160205260409020546001600160a01b03161561204d57845f52600860205260405f2060018060a01b0385165f5260205260ff60405f20541661202a57611c5386612224565b8515808015612017575b611e8c575b50845f52600560205261271061ffff611c81838260405f205416612311565b1611611e5e5760c0927f36733db4253a1ca1cd2ac5c3da5f93b4c1a54a37170244355bd63e55ce446c6a9492600292875f52600760205260405f2060018060a01b0386165f5260205260405f20611cd78a612224565b60ff1981541660ff8b16179055875f52600660205260405f2060018060a01b0386165f5260205260405f20611d0b84612224565b60ff1981541660ff8516179055875f52600460205260405f2060018060a01b0386165f5260205260405f208261ffff19825416179055875f52600560205261ffff611d5d60405f209282845416612311565b1661ffff19825416179055865f52600860205260405f2060018060a01b0385165f5260205260405f20600160ff19825416179055604051611d9d816122bb565b5f815283602082015f815260408301905f82528a5f52600360205260405f2060018060a01b0389165f52602052611de260405f209451611ddc81612224565b856122f9565b51600184015551910155865f52600360205260405f2060018060a01b0385165f5260205260405f209160405198611e1881612224565b8952611e2381612224565b6020890152604088015260ff815416611e3b81612224565b606088015260018101546080880152015460a08601526001600160a01b031693a3005b611e7961ffff91865f5260056020528260405f205416612311565b635d9b37d560e11b5f521660045260245ffd5b611e9587612224565b1561200a576380ac58cd60e01b5b60205f604051828101906301ffc9a760e01b82526301ffc9a760e01b602482015260248152611ed36044826122d7565b519088617530fa5f513d82611ffe575b5081611ff4575b5080611f8f575b80611f29575b611c6257633bf6390d60e11b5f9081526001600160a01b0386166004526001600160e01b031991909116602452604490fd5b5060205f604051828101906301ffc9a760e01b825263ffffffff60e01b8516602482015260248152611f5c6044826122d7565b519088617530fa5f513d82611f83575b5081611f79575b50611ef7565b9050151588611f73565b60201115915089611f6c565b5060205f604051828101906301ffc9a760e01b825263ffffffff60e01b602482015260248152611fc06044826122d7565b519088617530fa5f513d82611fe8575b5081611fde575b5015611ef1565b9050151588611fd7565b60201115915089611fd0565b9050151588611eea565b60201115915089611ee3565b636cdb3d1360e11b611ea3565b5061202187612224565b60018714611c5d565b635646f04d60e01b5f90815260048690526001600160a01b038516602452604490fd5b8463299f342560e01b5f5260045260245ffd5b506001600160a01b03841615611c04565b346111cc5760a03660031901126111cc5761208a6121e4565b6120926121fa565b9060603660431901126111cc576120a761249f565b6001600160a01b0316801580156121d3575b6110ac57805f52600860205260405f2060018060a01b0383165f5260205260ff60405f2054161561150f57805f52600360205260405f2060018060a01b0383165f5260205260405f2091600260405193612112856122bb565b60ff81541661212081612224565b85526001810154602086015201546040840152815f52600360205260405f2060018060a01b0382165f5260205260405f206044359160028310156111cc576002828461218f7fcba4ad4db5405303f16c8f3217c2c5f912fbb1e1bd2a00c67ce40966f55b949a9660c0966122f9565b6064359182600182015560843593849101556121ae6040518099612242565b6121b781612224565b6060880152608087015260a08601526001600160a01b031693a3005b506001600160a01b038216156120b9565b600435906001600160a01b03821682036111cc57565b602435906001600160a01b03821682036111cc57565b35906001600160a01b03821682036111cc57565b6002111561222e57565b634e487b7160e01b5f52602160045260245ffd5b60408091805161225181612224565b8452602081015160208501520151910152565b805180835260209291819084018484015e5f828201840152601f01601f1916010190565b90602080835192838152019201905f5b8181106122a55750505090565b8251845260209384019390920191600101612298565b6060810190811067ffffffffffffffff8211176118ee57604052565b90601f8019910116810190811067ffffffffffffffff8211176118ee57604052565b9061230381612224565b60ff80198354169116179055565b9061ffff8091169116019061ffff821161232757565b634e487b7160e01b5f52601160045260245ffd5b67ffffffffffffffff81116118ee5760051b60200190565b9061235d8261233b565b61236a60405191826122d7565b828152809261237b601f199161233b565b0190602036910137565b356001600160a01b03811681036111cc5790565b5f1981146123275760010190565b80518210156123bb5760209160051b010190565b634e487b7160e01b5f52603260045260245ffd5b9190820180921161232757565b90602080835192838152019201905f5b8181106123f95750505090565b82516001600160a01b03168452602093840193909201916001016123ec565b9061ffff8091169116039061ffff821161232757565b6001600160a01b0316801561248c575f5160206128c45f395f51905f5280546001600160a01b0319811683179091556001600160a01b03167f8be0079c531659141344cd1fd0a4f28419497f9722a3daafe3b4186f6b6457e05f80a3565b631e4fbdf760e01b5f525f60045260245ffd5b5f5160206128c45f395f51905f52546001600160a01b031633036124bf57565b63118cdaa760e01b5f523360045260245ffd5b60ff5f5160206129045f395f51905f5254166124ea57565b63d93c066560e01b5f5260045ffd5b90600182811c92168015612527575b602083101461251357565b634e487b7160e01b5f52602260045260245ffd5b91607f1691612508565b604051905f825f5160206128a45f395f51905f525491612550836124f9565b80835292600181169081156125e15750600114612576575b612574925003836122d7565b565b505f5160206128a45f395f51905f525f90815290917f42ad5d3e1f2e6e70edcf6d991b8a3023d3fca8047a131592f9edb9fd9b89d57d5b8183106125c557505090602061257492820101612568565b60209193508060019154838589010152019101909184926125ad565b6020925061257494915060ff191682840152151560051b820101612568565b604051905f825f5160206128e45f395f51905f52549161261f836124f9565b80835292600181169081156125e1575060011461264257612574925003836122d7565b505f5160206128e45f395f51905f525f90815290917f5f9ce34815f8e11431c7bb75a8e6886a91478f7ffc1dbb0a98dc240fddd76b755b81831061269157505090602061257492820101612568565b6020919350806001915483858901015201910190918492612679565b60ff5f5160206129445f395f51905f525460401c16156126c957565b631afcd79f60e31b5f5260045ffd5b8151919060418303612708576127019250602082015190606060408401519301515f1a90612772565b9192909190565b50505f9160029190565b600481101561222e5780612724575050565b6001810361273b5763f645eedf60e01b5f5260045ffd5b60028103612756575063fce698f760e01b5f5260045260245ffd5b6003146127605750565b6335e2f38360e21b5f5260045260245ffd5b91907f7fffffffffffffffffffffffffffffff5d576e7357a4501ddfe92f46681b20a084116127e9579160209360809260ff5f9560405194855216868401526040830152606082015282805260015afa156111c1575f516001600160a01b038116156127df57905f905f90565b505f906001905f90565b5050505f9160039190565b6127fc612531565b805190811561280c576020012090565b50507fa16a46d94261c7517cc8ff89f61c0ce93598e3c849801011dee649a6a557d1005480156128395790565b507fc5d2460186f7233c927e7db2dcc703c0e500b653ca82273b7bfad8045d85a47090565b612866612600565b8051908115612876576020012090565b50507fa16a46d94261c7517cc8ff89f61c0ce93598e3c849801011dee649a6a557d101548015612839579056fea16a46d94261c7517cc8ff89f61c0ce93598e3c849801011dee649a6a557d1029016d09d72d40fdae2fd8ceac6b6234c7706214fd39c1cd1e609a0528c199300a16a46d94261c7517cc8ff89f61c0ce93598e3c849801011dee649a6a557d103cd5ed15c6e187e77e9aee88184c21f4f2182ab5827cb3b7e07fbedcd63f033009b779b17422d0df92223018b32b4d1fa46e071723d6817e2486d003becc55f00f0c57e16840df040f15088dc2f81fe391c3923bec73e23a9662efc9c229c6a00a264697066735822122082bc5740925f9bd66e934806e285aa0a1b71acf027dc4c3284a57deccd05908664736f6c634300081e0033f0c57e16840df040f15088dc2f81fe391c3923bec73e23a9662efc9c229c6a00","linkReferences":{}},"methodIdentifiers":{"addVault(address,address)":"ec3a7823","collectionRewardBasis(address,address)":"e6aeb97b","eip712Domain()":"84b0196e","getCollectionWeightFunction(address,address)":"587bdec2","getDomainSeparator()":"ed24911d","initialize(address,address)":"485cc955","isCollectionWhitelisted(address,address)":"41afb808","owner()":"8da5cb5b","pause()":"8456cb59","paused()":"5c975abb","removeCollection(address,address)":"9f1bcbad","removeVault(address)":"ceb68c23","renounceOwnership()":"715018a6","setWeightFunction(address,address,(uint8,int256,int256))":"075d01f0","subsidize(address,(address,address,address,uint256,uint256,uint256)[],bytes)":"64559408","subsidySigner()":"804096e0","transferOwnership(address)":"f2fde38b","unpause()":"3f4ba83a","updateCollectionPercentageShare(address,address,uint16)":"930e203a","updateTrustedSigner(address)":"7530625f","userNonce(address,address)":"2f6cdb0d","userSecondsClaimed(address)":"b1cd60f2","vault(address)":"f815c03d","whitelistCollection(address,address,uint8,uint8,uint16)":"120c030f"},"id":36}