{"abi":[{"type":"constructor","inputs":[],"stateMutability":"nonpayable"},{"type":"function","name":"addVault","inputs":[{"name":"vaultAddress_","type":"address","internalType":"address"},{"name":"lendingManagerAddress_","type":"address","internalType":"address"}],"outputs":[],"stateMutability":"nonpayable"},{"type":"function","name":"collectionRewardBasis","inputs":[{"name":"vaultAddress","type":"address","internalType":"address"},{"name":"collectionAddress","type":"address","internalType":"address"}],"outputs":[{"name":"","type":"uint8","internalType":"enum IDebtSubsidizer.RewardBasis"}],"stateMutability":"view"},{"type":"function","name":"eip712Domain","inputs":[],"outputs":[{"name":"fields","type":"bytes1","internalType":"bytes1"},{"name":"name","type":"string","internalType":"string"},{"name":"version","type":"string","internalType":"string"},{"name":"chainId","type":"uint256","internalType":"uint256"},{"name":"verifyingContract","type":"address","internalType":"address"},{"name":"salt","type":"bytes32","internalType":"bytes32"},{"name":"extensions","type":"uint256[]","internalType":"uint256[]"}],"stateMutability":"view"},{"type":"function","name":"initialize","inputs":[{"name":"initialOwner","type":"address","internalType":"address"},{"name":"initialSubsidySigner","type":"address","internalType":"address"}],"outputs":[],"stateMutability":"nonpayable"},{"type":"function","name":"isCollectionWhitelisted","inputs":[{"name":"vaultAddress","type":"address","internalType":"address"},{"name":"collectionAddress","type":"address","internalType":"address"}],"outputs":[{"name":"","type":"bool","internalType":"bool"}],"stateMutability":"view"},{"type":"function","name":"owner","inputs":[],"outputs":[{"name":"","type":"address","internalType":"address"}],"stateMutability":"view"},{"type":"function","name":"pause","inputs":[],"outputs":[],"stateMutability":"nonpayable"},{"type":"function","name":"paused","inputs":[],"outputs":[{"name":"","type":"bool","internalType":"bool"}],"stateMutability":"view"},{"type":"function","name":"removeCollection","inputs":[{"name":"vaultAddress","type":"address","internalType":"address"},{"name":"collectionAddress","type":"address","internalType":"address"}],"outputs":[],"stateMutability":"nonpayable"},{"type":"function","name":"removeVault","inputs":[{"name":"vaultAddress_","type":"address","internalType":"address"}],"outputs":[],"stateMutability":"nonpayable"},{"type":"function","name":"renounceOwnership","inputs":[],"outputs":[],"stateMutability":"nonpayable"},{"type":"function","name":"setWeightFunction","inputs":[{"name":"vaultAddress","type":"address","internalType":"address"},{"name":"collectionAddress","type":"address","internalType":"address"},{"name":"weightFunction_","type":"tuple","internalType":"struct IDebtSubsidizer.WeightFunction","components":[{"name":"fnType","type":"uint8","internalType":"enum IDebtSubsidizer.WeightFunctionType"},{"name":"p1","type":"int256","internalType":"int256"},{"name":"p2","type":"int256","internalType":"int256"}]}],"outputs":[],"stateMutability":"nonpayable"},{"type":"function","name":"subsidize","inputs":[{"name":"vaultAddress","type":"address","internalType":"address"},{"name":"subsidies","type":"tuple[]","internalType":"struct IDebtSubsidizer.Subsidy[]","components":[{"name":"account","type":"address","internalType":"address"},{"name":"collection","type":"address","internalType":"address"},{"name":"vault","type":"address","internalType":"address"},{"name":"amount","type":"uint256","internalType":"uint256"},{"name":"nonce","type":"uint256","internalType":"uint256"},{"name":"deadline","type":"uint256","internalType":"uint256"}]},{"name":"signature","type":"bytes","internalType":"bytes"}],"outputs":[],"stateMutability":"nonpayable"},{"type":"function","name":"subsidySigner","inputs":[],"outputs":[{"name":"","type":"address","internalType":"address"}],"stateMutability":"view"},{"type":"function","name":"transferOwnership","inputs":[{"name":"newOwner","type":"address","internalType":"address"}],"outputs":[],"stateMutability":"nonpayable"},{"type":"function","name":"unpause","inputs":[],"outputs":[],"stateMutability":"nonpayable"},{"type":"function","name":"updateCollectionPercentageShare","inputs":[{"name":"vaultAddress","type":"address","internalType":"address"},{"name":"collectionAddress","type":"address","internalType":"address"},{"name":"newSharePercentageBps","type":"uint16","internalType":"uint16"}],"outputs":[],"stateMutability":"nonpayable"},{"type":"function","name":"updateTrustedSigner","inputs":[{"name":"newSigner","type":"address","internalType":"address"}],"outputs":[],"stateMutability":"nonpayable"},{"type":"function","name":"userNonce","inputs":[{"name":"vaultAddress","type":"address","internalType":"address"},{"name":"userAddress","type":"address","internalType":"address"}],"outputs":[{"name":"nonce","type":"uint64","internalType":"uint64"}],"stateMutability":"view"},{"type":"function","name":"vault","inputs":[{"name":"vaultAddress","type":"address","internalType":"address"}],"outputs":[{"name":"vaultInfo_","type":"tuple","internalType":"struct IDebtSubsidizer.VaultInfo","components":[{"name":"lendingManager","type":"address","internalType":"address"},{"name":"cToken","type":"address","internalType":"address"}]}],"stateMutability":"view"},{"type":"function","name":"whitelistCollection","inputs":[{"name":"vaultAddress","type":"address","internalType":"address"},{"name":"collectionAddress","type":"address","internalType":"address"},{"name":"collectionType","type":"uint8","internalType":"enum IDebtSubsidizer.CollectionType"},{"name":"rewardBasis","type":"uint8","internalType":"enum IDebtSubsidizer.RewardBasis"},{"name":"sharePercentageBps","type":"uint16","internalType":"uint16"}],"outputs":[],"stateMutability":"nonpayable"},{"type":"event","name":"CollectionYieldShareUpdated","inputs":[{"name":"vaultAddress","type":"address","indexed":true,"internalType":"address"},{"name":"collectionAddress","type":"address","indexed":true,"internalType":"address"},{"name":"oldSharePercentage","type":"uint16","indexed":false,"internalType":"uint16"},{"name":"newSharePercentage","type":"uint16","indexed":false,"internalType":"uint16"}],"anonymous":false},{"type":"event","name":"DebtSubsidized","inputs":[{"name":"vaultAddress","type":"address","indexed":true,"internalType":"address"},{"name":"user","type":"address","indexed":true,"internalType":"address"},{"name":"collectionAddress","type":"address","indexed":true,"internalType":"address"},{"name":"amount","type":"uint256","indexed":false,"internalType":"uint256"}],"anonymous":false},{"type":"event","name":"EIP712DomainChanged","inputs":[],"anonymous":false},{"type":"event","name":"Initialized","inputs":[{"name":"version","type":"uint64","indexed":false,"internalType":"uint64"}],"anonymous":false},{"type":"event","name":"NewCollectionWhitelisted","inputs":[{"name":"vaultAddress","type":"address","indexed":true,"internalType":"address"},{"name":"collectionAddress","type":"address","indexed":true,"internalType":"address"},{"name":"collectionType","type":"uint8","indexed":false,"internalType":"enum IDebtSubsidizer.CollectionType"},{"name":"rewardBasis","type":"uint8","indexed":false,"internalType":"enum IDebtSubsidizer.RewardBasis"},{"name":"sharePercentage","type":"uint16","indexed":false,"internalType":"uint16"},{"name":"weightFunction","type":"tuple","indexed":false,"internalType":"struct IDebtSubsidizer.WeightFunction","components":[{"name":"fnType","type":"uint8","internalType":"enum IDebtSubsidizer.WeightFunctionType"},{"name":"p1","type":"int256","internalType":"int256"},{"name":"p2","type":"int256","internalType":"int256"}]}],"anonymous":false},{"type":"event","name":"OwnershipTransferred","inputs":[{"name":"previousOwner","type":"address","indexed":true,"internalType":"address"},{"name":"newOwner","type":"address","indexed":true,"internalType":"address"}],"anonymous":false},{"type":"event","name":"Paused","inputs":[{"name":"account","type":"address","indexed":false,"internalType":"address"}],"anonymous":false},{"type":"event","name":"TrustedSignerUpdated","inputs":[{"name":"oldSigner","type":"address","indexed":false,"internalType":"address"},{"name":"newSigner","type":"address","indexed":false,"internalType":"address"},{"name":"changedBy","type":"address","indexed":true,"internalType":"address"}],"anonymous":false},{"type":"event","name":"Unpaused","inputs":[{"name":"account","type":"address","indexed":false,"internalType":"address"}],"anonymous":false},{"type":"event","name":"VaultAdded","inputs":[{"name":"vaultAddress","type":"address","indexed":true,"internalType":"address"},{"name":"cTokenAddress","type":"address","indexed":true,"internalType":"address"},{"name":"lendingManagerAddress","type":"address","indexed":true,"internalType":"address"}],"anonymous":false},{"type":"event","name":"VaultRemoved","inputs":[{"name":"vaultAddress","type":"address","indexed":true,"internalType":"address"}],"anonymous":false},{"type":"event","name":"WeightFunctionSet","inputs":[{"name":"vaultAddress","type":"address","indexed":true,"internalType":"address"},{"name":"collectionAddress","type":"address","indexed":true,"internalType":"address"},{"name":"fn","type":"tuple","indexed":false,"internalType":"struct IDebtSubsidizer.WeightFunction","components":[{"name":"fnType","type":"uint8","internalType":"enum IDebtSubsidizer.WeightFunctionType"},{"name":"p1","type":"int256","internalType":"int256"},{"name":"p2","type":"int256","internalType":"int256"}]}],"anonymous":false},{"type":"event","name":"WhitelistCollectionRemoved","inputs":[{"name":"vaultAddress","type":"address","indexed":true,"internalType":"address"},{"name":"collectionAddress","type":"address","indexed":true,"internalType":"address"}],"anonymous":false},{"type":"error","name":"AddressZero","inputs":[]},{"type":"error","name":"ArrayLengthMismatch","inputs":[]},{"type":"error","name":"CannotSetSignerToZeroAddress","inputs":[]},{"type":"error","name":"ClaimExpired","inputs":[]},{"type":"error","name":"CollectionAlreadyExists","inputs":[{"name":"collection","type":"address","internalType":"address"}]},{"type":"error","name":"CollectionAlreadyWhitelistedInVault","inputs":[{"name":"vaultAddress","type":"address","internalType":"address"},{"name":"collectionAddress","type":"address","internalType":"address"}]},{"type":"error","name":"CollectionNotWhitelisted","inputs":[{"name":"collection","type":"address","internalType":"address"}]},{"type":"error","name":"CollectionNotWhitelistedInVault","inputs":[{"name":"vaultAddress","type":"address","internalType":"address"},{"name":"collectionAddress","type":"address","internalType":"address"}]},{"type":"error","name":"ECDSAInvalidSignature","inputs":[]},{"type":"error","name":"ECDSAInvalidSignatureLength","inputs":[{"name":"length","type":"uint256","internalType":"uint256"}]},{"type":"error","name":"ECDSAInvalidSignatureS","inputs":[{"name":"s","type":"bytes32","internalType":"bytes32"}]},{"type":"error","name":"EnforcedPause","inputs":[]},{"type":"error","name":"ExpectedPause","inputs":[]},{"type":"error","name":"InsufficientYield","inputs":[]},{"type":"error","name":"InvalidCollectionInterface","inputs":[{"name":"collectionAddress","type":"address","internalType":"address"},{"name":"interfaceId","type":"bytes4","internalType":"bytes4"}]},{"type":"error","name":"InvalidInitialization","inputs":[]},{"type":"error","name":"InvalidNonce","inputs":[]},{"type":"error","name":"InvalidSecondsColl","inputs":[]},{"type":"error","name":"InvalidSignature","inputs":[]},{"type":"error","name":"InvalidYieldSharePercentage","inputs":[{"name":"totalSharePercentage","type":"uint256","internalType":"uint256"}]},{"type":"error","name":"InvalidYieldSlice","inputs":[]},{"type":"error","name":"LendingManagerAssetMismatch","inputs":[{"name":"vaultAsset","type":"address","internalType":"address"},{"name":"lmAsset","type":"address","internalType":"address"}]},{"type":"error","name":"LendingManagerNotSetForVault","inputs":[{"name":"vaultAddress","type":"address","internalType":"address"}]},{"type":"error","name":"NotInitializing","inputs":[]},{"type":"error","name":"OwnableInvalidOwner","inputs":[{"name":"owner","type":"address","internalType":"address"}]},{"type":"error","name":"OwnableUnauthorizedAccount","inputs":[{"name":"account","type":"address","internalType":"address"}]},{"type":"error","name":"ReentrancyGuardReentrantCall","inputs":[]},{"type":"error","name":"VaultAlreadyRegistered","inputs":[{"name":"vaultAddress","type":"address","internalType":"address"}]},{"type":"error","name":"VaultMismatch","inputs":[]},{"type":"error","name":"VaultNotRegistered","inputs":[{"name":"vaultAddress","type":"address","internalType":"address"}]}],"bytecode":{"object":"0x6080806040523460aa575f5160206126825f395f51905f525460ff8160401c16609b576002600160401b03196001600160401b038216016049575b6040516125d390816100af8239f35b6001600160401b0319166001600160401b039081175f5160206126825f395f51905f525581527fc7f505b2f371ae2175ee4913f4499e1f2633a7b5936321eed1cdaeb6115181d290602090a15f80603a565b63f92ee8a960e01b5f5260045ffd5b5f80fdfe60806040526004361015610011575f80fd5b5f5f3560e01c8063075d01f014611d47578063120c030f146118665780632f6cdb0d1461180a5780633f4ba83a1461178c57806341afb80814611735578063485cc955146111f55780635c975abb146111c75780636455940814610bee578063715018a614610b855780637530625f14610af3578063804096e014610acc5780638456cb5914610a5957806384b0196e146109345780638da5cb5b146108ff578063930e203a146107275780639f1bcbad14610578578063ceb68c23146104b5578063e6aeb97b1461040d578063ec3a7823146101f1578063f2fde38b146101c45763f815c03d14610101575f80fd5b346101c15760203660031901126101c15761011a611e7d565b604051906040820182811067ffffffffffffffff8211176101ad57604090815283835260208084018581526001600160a01b039384168087526001909252918520549094919216801561019957825292835260096020908152604093849020546001600160a01b03908116938490528451938452915190911690820152f35b63299f342560e01b82526004859052602482fd5b634e487b7160e01b84526041600452602484fd5b80fd5b50346101c15760203660031901126101c1576101ee6101e1611e7d565b6101e96120d9565b612068565b80f35b50346101c15760403660031901126101c15761020b611e7d565b610213611e93565b9061021c6120d9565b6001600160a01b031690811580156103fc575b6103ed57818352600160205260408320546001600160a01b03166103d9576040516338d52e0f60e01b81526001600160a01b039190911691602082600481845afa9182156103ce578492610386575b506040516338d52e0f60e01b8152602081600481875afa90811561037b578591610335575b506001600160a01b03928316921680830361031e575080845260096020908152604080862080546001600160a01b03199081166001600160a01b03881617909155838752600190925285208054909116831790557fc590bd7f43139981c355ef80ff49e3082ca7d9b6d0102bac27423c00b9d445898480a480f35b6342a981d760e01b85526004839052602452604484fd5b90506020813d602011610373575b8161035060209383611f60565b8101031261036f57516001600160a01b038116810361036f575f6102a3565b8480fd5b3d9150610343565b6040513d87823e3d90fd5b9091506020813d6020116103c6575b816103a260209383611f60565b810103126103c257516001600160a01b03811681036103c257905f61027e565b8380fd5b3d9150610395565b6040513d86823e3d90fd5b631c5fe60b60e11b83526004829052602483fd5b639fabe1c160e01b8352600483fd5b506001600160a01b0381161561022f565b50346101c15760403660031901126101c157610427611e7d565b90610430611e93565b9160018060a01b031680825260086020526040822060018060a01b0384165f5260205260ff60405f20541615610495579060409181526006602052209060018060a01b03165f52602052602060ff60405f2054166040519061049181611f14565b8152f35b63063b14e160e01b82526004526001600160a01b03909116602452604490fd5b50346101c15760203660031901126101c1576104cf611e7d565b6104d76120d9565b6001600160a01b0316801561056957808252600160205260408220546001600160a01b0316156105575780825260016020528160408120558082526009602052604082206bffffffffffffffffffffffff60a01b81541690557fe71f3a50e5ad81964f352c411f1d45e35438ecd1acecef59ac81d9fbbf6cbc0a8280a280f35b63299f342560e01b8252600452602490fd5b639fabe1c160e01b8252600482fd5b50346101c15760403660031901126101c157610592611e7d565b61059a611e93565b906105a36120d9565b6001600160a01b03169081158015610716575b6103ed5781835260086020526040832060018060a01b0382165f5260205260ff60405f205416156106f55781835260046020526040832060018060a01b0382165f5260205261ffff60405f205416828452600560205261ffff610620604086209282845416612052565b8254911661ffff19918216179091558284526008602090815260408086206001600160a01b03949094165f818152948352818520805460ff199081169091558688526007845282882082875284528286208054821690558688526006845282882082875284528286208054909116905585875260048352818720818652835281852080549094169093558486526003825280862083855290915290912083815560018101849055600201839055907faefe35de031dedb5ab8cc1d47f43a3327b372e796c145184a697e511b8229aef8380a380f35b63063b14e160e01b83526004919091526001600160a01b0316602452604490fd5b506001600160a01b038116156105b6565b50346101c15760603660031901126101c157610741611e7d565b610749611e93565b906044359161ffff83169182840361036f576107636120d9565b6001600160a01b031691821580156108ee575b6108df5782855260086020526040852060018060a01b0383165f5260205260ff60405f205416156108be5782855260046020526040852060018060a01b0383165f5260205261ffff60405f20541693838652600560205261271061ffff6107ec836107e7898460408d205416612052565b611f4a565b161161088c57916040916108347fcd31e534a1904d43dfec903dbb8ea7ee0ef32ecfef21dc5775a478322af140fe9486895260056020526107e78861ffff878c205416612052565b858852600560205261ffff848920911661ffff19825416179055848752600460205282872060018060a01b0383165f52602052825f208161ffff198254161790558251958652602086015260018060a01b031693a380f35b8561ffff6108ae6024936107e789898652600560205284604087205416612052565b635d9b37d560e11b835216600452fd5b63063b14e160e01b855260048390526001600160a01b038216602452604485fd5b639fabe1c160e01b8552600485fd5b506001600160a01b03821615610776565b50346101c157806003193601126101c1575f5160206124fe5f395f51905f52546040516001600160a01b039091168152602090f35b50346101c157806003193601126101c1577fa16a46d94261c7517cc8ff89f61c0ce93598e3c849801011dee649a6a557d100541580610a30575b156109f3576109c2906109ef61098261216b565b9161098b61223a565b6109d06040519161099d602084611f60565b8383525f368137604051968796600f60f81b885260e0602089015260e0880190611ebd565b908682036040880152611ebd565b9146606086015230608086015260a085015283820360c0850152611ee1565b0390f35b60405162461bcd60e51b81526020600482015260156024820152741152540dcc4c8e88155b9a5b9a5d1a585b1a5e9959605a1b6044820152606490fd5b507fa16a46d94261c7517cc8ff89f61c0ce93598e3c849801011dee649a6a557d101541561096e565b50346101c157806003193601126101c157610a726120d9565b610a7a61210c565b600160ff195f51602061253e5f395f51905f525416175f51602061253e5f395f51905f52557f62e78cea01bee320cd4e420270b5ea74000d11b0c9f74754ebdbfc544b05a2586020604051338152a180f35b50346101c157806003193601126101c157546040516001600160a01b039091168152602090f35b50346101c15760203660031901126101c157610b0d611e7d565b610b156120d9565b6001600160a01b03168015610b765781546001600160a01b0319811682178355604080516001600160a01b039092168252602082019290925233917ff7846e9711f4c38ee0af962397d2e33cdfd5c03d74b18d7d2bf065d96c76761f91a280f35b63c4aaac8b60e01b8252600482fd5b50346101c157806003193601126101c157610b9e6120d9565b5f5160206124fe5f395f51905f5280546001600160a01b0319811690915581906001600160a01b03167f8be0079c531659141344cd1fd0a4f28419497f9722a3daafe3b4186f6b6457e08280a380f35b50346110b85760603660031901126110b857610c08611e7d565b60243567ffffffffffffffff81116110b857366023820112156110b85780600401359167ffffffffffffffff83116110b85736602460c08502840101116110b85760443567ffffffffffffffff81116110b857366023820112156110b857806004013567ffffffffffffffff81116110b85736602482840101116110b85760025f51602061255e5f395f51905f5254146111b85760025f51602061255e5f395f51905f5255610cb561210c565b60405160208101908660408201602084525260608101602487015f5b89811061114257505060206042610db0969484610cfc610da798965f9603601f198101835282611f60565b519020610d0761242e565b610d0f612498565b60405190858201927f8b73c3c69bb8fe3d512ecc4cf759cc79239f7b179b0ffacaa9a75d522b39400f8452604083015260608201524660808201523060a082015260a08152610d5f60c082611f60565b519020906040519161190160f01b835260028301526022820152209280602483601f19601f8401160196610d966040519889611f60565b828852018387013784010152612312565b9092919261234c565b5f546001600160a01b039182169116811480159190611139575b5061112a576001600160a01b039081165f81815260016020526040902054909291161561111757610dfa83611f9a565b91610e0484611f9a565b610e0d85611f9a565b925f905f975f5b88811015610fcf5760c081028301610e2e60248201611fcc565b90610e3b60448201611fcc565b610e4760648301611fcc565b6084830135936001600160a01b0316929083158015610fbe575b8015610fad575b610f9e576001600160a01b03168a9003610f8f5760c48101354211610f8057895f52600260205260405f20835f5260205260a460405f205491013503610f7157885f52600260205260405f20825f5260205260405f20610ec88154611fe0565b905582610edb575b505050600101610e14565b909580610eef610f1b92949e95948d611fee565b6001600160a01b03909316928390528d610f09828b611fee565b5287610f15828d611fee565b52611fe0565b958c8401809411610f5d57887fb4aef4db599630a2c1c8113df5a41ef3c5614e744fc894909eaa5abb1922d5d960206001969f604051908152a4905f80610ed0565b634e487b7160e01b5f52601160045260245ffd5b633ab3447f60e11b5f5260045ffd5b6341524ecf60e11b5f5260045ffd5b63c1faacc560e01b5f5260045ffd5b639fabe1c160e01b5f5260045ffd5b506001600160a01b03811615610e68565b506001600160a01b03831615610e61565b50868685878c8780610ff1575b8660015f51602061255e5f395f51905f525580f35b610ffa81611f9a565b9461100482611f9a565b9461100e83611f9a565b975f5b8481106110bc575050505050813b156110b8575f80946110579261107b61106998604051998a9889978896638f6fbf0960e01b8852608060048901526084880190612016565b86810360031901602488015290611ee1565b84810360031901604486015290612016565b90606483015203925af180156110ad5761109a575b8080808080610fdc565b6110a691505f90611f60565b5f81611090565b6040513d5f823e3d90fd5b5f80fd5b6001906001600160a01b036110d18285611fee565b51166110dd828c611fee565b526110e88185611fee565b516110f3828b611fee565b52818060a01b036111048287611fee565b5116611110828d611fee565b5201611011565b5063299f342560e01b5f5260045260245ffd5b638baa579f60e01b5f5260045ffd5b9050155f610dca565b909160019060c09081906001600160a01b0361115d87611ea9565b168152838060a01b0361117260208801611ea9565b166020820152838060a01b0361118a60408801611ea9565b166040820152606086013560608201526080860135608082015260a086013560a08201520193019101610cd1565b633ee5aeb560e01b5f5260045ffd5b346110b8575f3660031901126110b857602060ff5f51602061253e5f395f51905f5254166040519015158152f35b346110b85760403660031901126110b85761120e611e7d565b611216611e93565b905f51602061257e5f395f51905f52549060ff8260401c16159167ffffffffffffffff81168015908161172d575b6001149081611723575b15908161171a575b5061170b5767ffffffffffffffff1981166001175f51602061257e5f395f51905f5255826116df575b506001600160a01b0381161580156116ce575b610f9e576112aa906112a26122e7565b6101e96122e7565b6112b26122e7565b6112ba6122e7565b60015f51602061255e5f395f51905f52556040908151926112db8385611f60565b600e84526d2232b13a29bab139b4b234bd32b960911b60208501528251936113038486611f60565b60018552603160f81b60208601526113196122e7565b6113216122e7565b80519067ffffffffffffffff82116115b757819061134c5f5160206124de5f395f51905f5254612133565b601f8111611654575b50602090601f83116001146115d6575f926115cb575b50508160011b915f199060031b1c1916175f5160206124de5f395f51905f52555b835167ffffffffffffffff81116115b7576113b45f51602061251e5f395f51905f5254612133565b601f8111611548575b50602094601f82116001146114cd579481929394955f926114c2575b50508160011b915f199060031b1c1916175f51602061251e5f395f51905f52555b5f7fa16a46d94261c7517cc8ff89f61c0ce93598e3c849801011dee649a6a557d100555f7fa16a46d94261c7517cc8ff89f61c0ce93598e3c849801011dee649a6a557d101556114486122e7565b60018060a01b03166bffffffffffffffffffffffff60a01b5f5416175f5561146c57005b60207fc7f505b2f371ae2175ee4913f4499e1f2633a7b5936321eed1cdaeb6115181d29168ff0000000000000000195f51602061257e5f395f51905f5254165f51602061257e5f395f51905f52555160018152a1005b0151905085806113d9565b601f198216955f51602061251e5f395f51905f525f52805f20915f5b88811061153057508360019596979810611518575b505050811b015f51602061251e5f395f51905f52556113fa565b01515f1960f88460031b161c191690558580806114fe565b919260206001819286850151815501940192016114e9565b5f51602061251e5f395f51905f525f527f5f9ce34815f8e11431c7bb75a8e6886a91478f7ffc1dbb0a98dc240fddd76b75601f830160051c810191602084106115ad575b601f0160051c01905b8181106115a257506113bd565b5f8155600101611595565b909150819061158c565b634e487b7160e01b5f52604160045260245ffd5b01519050868061136b565b5f5160206124de5f395f51905f525f9081528281209350601f198516905b81811061163c5750908460019594939210611624575b505050811b015f5160206124de5f395f51905f525561138c565b01515f1960f88460031b161c1916905586808061160a565b929360206001819287860151815501950193016115f4565b5f5160206124de5f395f51905f525f529091507f42ad5d3e1f2e6e70edcf6d991b8a3023d3fca8047a131592f9edb9fd9b89d57d601f840160051c810191602085106116c4575b90601f859493920160051c01905b8181106116b65750611355565b5f81558493506001016116a9565b909150819061169b565b506001600160a01b03831615611292565b68ffffffffffffffffff191668010000000000000001175f51602061257e5f395f51905f52558361127f565b63f92ee8a960e01b5f5260045ffd5b90501585611256565b303b15915061124e565b849150611244565b346110b85760403660031901126110b85761174e611e7d565b611756611e93565b9060018060a01b03165f52600860205260405f209060018060a01b03165f52602052602060ff60405f2054166040519015158152f35b346110b8575f3660031901126110b8576117a46120d9565b5f51602061253e5f395f51905f525460ff8116156117fb5760ff19165f51602061253e5f395f51905f52557f5db9ee0a495bf2e6ff9c91a7834c1ba4fdd244a5e8aa4e537bd38aeae4b073aa6020604051338152a1005b638dfc202b60e01b5f5260045ffd5b346110b85760403660031901126110b857611823611e7d565b61182b611e93565b9060018060a01b03165f52600260205260405f209060018060a01b03165f52602052602067ffffffffffffffff60405f205416604051908152f35b346110b85760a03660031901126110b85761187f611e7d565b611887611e93565b6044359160028310156110b85760643560028110156110b8576084359261ffff8416928385036110b8576118b96120d9565b6001600160a01b03169384158015611d36575b610f9e575f858152600160205260409020546001600160a01b031615611d2357845f52600860205260405f2060018060a01b0383165f5260205260ff60405f205416611d045761191b86611f14565b8515808015611cf1575b611b66575b50845f52600560205261271061ffff611949838260405f205416611f4a565b1611611b3857845f52600760205260405f2060018060a01b0383165f5260205260405f2061197687611f14565b60ff1981541660ff8816179055845f52600660205260405f2060018060a01b0383165f5260205260405f206119aa84611f14565b60ff1981541660ff8516179055845f52600460205260405f2060018060a01b0383165f5260205260405f208461ffff19825416179055845f52600560205261ffff6119fc60405f209282845416611f4a565b1661ffff19825416179055835f52600860205260405f2060018060a01b0382165f5260205260405f20600160ff1982541617905560405191606083019083821067ffffffffffffffff8311176115b7577f36733db4253a1ca1cd2ac5c3da5f93b4c1a54a37170244355bd63e55ce446c6a9460c0946002936040525f815283602082015f815260408301905f82528a5f52600360205260405f2060018060a01b0389165f52602052611abc60405f209451611ab681611f14565b85611f32565b51600184015551910155865f52600360205260405f2060018060a01b0385165f5260205260405f209160405198611af281611f14565b8952611afd81611f14565b6020890152604088015260ff815416611b1581611f14565b606088015260018101546080880152015460a08601526001600160a01b031693a3005b611b5361ffff91865f5260056020528260405f205416611f4a565b635d9b37d560e11b5f521660045260245ffd5b611b6f87611f14565b15611ce4576380ac58cd60e01b5b60205f604051828101906301ffc9a760e01b82526301ffc9a760e01b602482015260248152611bad604482611f60565b519086617530fa5f513d82611cd8575b5081611cce575b5080611c69575b80611c03575b61192a57633bf6390d60e11b5f9081526001600160a01b0384166004526001600160e01b031991909116602452604490fd5b5060205f604051828101906301ffc9a760e01b825263ffffffff60e01b8516602482015260248152611c36604482611f60565b519086617530fa5f513d82611c5d575b5081611c53575b50611bd1565b9050151588611c4d565b60201115915089611c46565b5060205f604051828101906301ffc9a760e01b825263ffffffff60e01b602482015260248152611c9a604482611f60565b519086617530fa5f513d82611cc2575b5081611cb8575b5015611bcb565b9050151588611cb1565b60201115915089611caa565b9050151588611bc4565b60201115915089611bbd565b636cdb3d1360e11b611b7d565b50611cfb87611f14565b60018714611925565b5083635646f04d60e01b5f5260045260018060a01b031660245260445ffd5b8463299f342560e01b5f5260045260245ffd5b506001600160a01b038216156118cc565b346110b85760a03660031901126110b857611d60611e7d565b611d68611e93565b9060603660431901126110b857611d7d6120d9565b6001600160a01b031680158015611e6c575b610f9e57805f52600860205260405f2060018060a01b0383165f5260205260ff60405f20541615611e4f57805f52600360205260405f2060018060a01b0383165f5260205260405f20916044359260028410156110b8577f2936288c49837ed9a96d3f28d5ced67e8460ce3e2fcfb5a58963b4cf90d6ac8591600282611e1787606095611f32565b60643590816001820155608435928391015560405196611e3681611f14565b8752602087015260408601526001600160a01b031693a3005b63063b14e160e01b5f5260045260018060a01b031660245260445ffd5b506001600160a01b03821615611d8f565b600435906001600160a01b03821682036110b857565b602435906001600160a01b03821682036110b857565b35906001600160a01b03821682036110b857565b805180835260209291819084018484015e5f828201840152601f01601f1916010190565b90602080835192838152019201905f5b818110611efe5750505090565b8251845260209384019390920191600101611ef1565b60021115611f1e57565b634e487b7160e01b5f52602160045260245ffd5b90611f3c81611f14565b60ff80198354169116179055565b9061ffff8091169116019061ffff8211610f5d57565b90601f8019910116810190811067ffffffffffffffff8211176115b757604052565b67ffffffffffffffff81116115b75760051b60200190565b90611fa482611f82565b611fb16040519182611f60565b8281528092611fc2601f1991611f82565b0190602036910137565b356001600160a01b03811681036110b85790565b5f198114610f5d5760010190565b80518210156120025760209160051b010190565b634e487b7160e01b5f52603260045260245ffd5b90602080835192838152019201905f5b8181106120335750505090565b82516001600160a01b0316845260209384019390920191600101612026565b9061ffff8091169116039061ffff8211610f5d57565b6001600160a01b031680156120c6575f5160206124fe5f395f51905f5280546001600160a01b0319811683179091556001600160a01b03167f8be0079c531659141344cd1fd0a4f28419497f9722a3daafe3b4186f6b6457e05f80a3565b631e4fbdf760e01b5f525f60045260245ffd5b5f5160206124fe5f395f51905f52546001600160a01b031633036120f957565b63118cdaa760e01b5f523360045260245ffd5b60ff5f51602061253e5f395f51905f52541661212457565b63d93c066560e01b5f5260045ffd5b90600182811c92168015612161575b602083101461214d57565b634e487b7160e01b5f52602260045260245ffd5b91607f1691612142565b604051905f825f5160206124de5f395f51905f52549161218a83612133565b808352926001811690811561221b57506001146121b0575b6121ae92500383611f60565b565b505f5160206124de5f395f51905f525f90815290917f42ad5d3e1f2e6e70edcf6d991b8a3023d3fca8047a131592f9edb9fd9b89d57d5b8183106121ff5750509060206121ae928201016121a2565b60209193508060019154838589010152019101909184926121e7565b602092506121ae94915060ff191682840152151560051b8201016121a2565b604051905f825f51602061251e5f395f51905f52549161225983612133565b808352926001811690811561221b575060011461227c576121ae92500383611f60565b505f51602061251e5f395f51905f525f90815290917f5f9ce34815f8e11431c7bb75a8e6886a91478f7ffc1dbb0a98dc240fddd76b755b8183106122cb5750509060206121ae928201016121a2565b60209193508060019154838589010152019101909184926122b3565b60ff5f51602061257e5f395f51905f525460401c161561230357565b631afcd79f60e31b5f5260045ffd5b81519190604183036123425761233b9250602082015190606060408401519301515f1a906123ac565b9192909190565b50505f9160029190565b6004811015611f1e578061235e575050565b600181036123755763f645eedf60e01b5f5260045ffd5b60028103612390575063fce698f760e01b5f5260045260245ffd5b60031461239a5750565b6335e2f38360e21b5f5260045260245ffd5b91907f7fffffffffffffffffffffffffffffff5d576e7357a4501ddfe92f46681b20a08411612423579160209360809260ff5f9560405194855216868401526040830152606082015282805260015afa156110ad575f516001600160a01b0381161561241957905f905f90565b505f906001905f90565b5050505f9160039190565b61243661216b565b8051908115612446576020012090565b50507fa16a46d94261c7517cc8ff89f61c0ce93598e3c849801011dee649a6a557d1005480156124735790565b507fc5d2460186f7233c927e7db2dcc703c0e500b653ca82273b7bfad8045d85a47090565b6124a061223a565b80519081156124b0576020012090565b50507fa16a46d94261c7517cc8ff89f61c0ce93598e3c849801011dee649a6a557d101548015612473579056fea16a46d94261c7517cc8ff89f61c0ce93598e3c849801011dee649a6a557d1029016d09d72d40fdae2fd8ceac6b6234c7706214fd39c1cd1e609a0528c199300a16a46d94261c7517cc8ff89f61c0ce93598e3c849801011dee649a6a557d103cd5ed15c6e187e77e9aee88184c21f4f2182ab5827cb3b7e07fbedcd63f033009b779b17422d0df92223018b32b4d1fa46e071723d6817e2486d003becc55f00f0c57e16840df040f15088dc2f81fe391c3923bec73e23a9662efc9c229c6a00a2646970667358221220e16e164e2855d1554a7f4adf9f38c42271263ec3ea7fcb24d191a5f9e726854464736f6c634300081e0033f0c57e16840df040f15088dc2f81fe391c3923bec73e23a9662efc9c229c6a00","linkReferences":{}},"methodIdentifiers":{"addVault(address,address)":"ec3a7823","collectionRewardBasis(address,address)":"e6aeb97b","eip712Domain()":"84b0196e","initialize(address,address)":"485cc955","isCollectionWhitelisted(address,address)":"41afb808","owner()":"8da5cb5b","pause()":"8456cb59","paused()":"5c975abb","removeCollection(address,address)":"9f1bcbad","removeVault(address)":"ceb68c23","renounceOwnership()":"715018a6","setWeightFunction(address,address,(uint8,int256,int256))":"075d01f0","subsidize(address,(address,address,address,uint256,uint256,uint256)[],bytes)":"64559408","subsidySigner()":"804096e0","transferOwnership(address)":"f2fde38b","unpause()":"3f4ba83a","updateCollectionPercentageShare(address,address,uint16)":"930e203a","updateTrustedSigner(address)":"7530625f","userNonce(address,address)":"2f6cdb0d","vault(address)":"f815c03d","whitelistCollection(address,address,uint8,uint8,uint16)":"120c030f"},"id":80}