{"abi":[{"type":"fallback","stateMutability":"payable"},{"type":"receive","stateMutability":"payable"},{"type":"function","name":"UPGRADE_INTERFACE_VERSION","inputs":[],"outputs":[{"name":"","type":"string","internalType":"string"}],"stateMutability":"view"},{"type":"function","name":"authorizedSigner","inputs":[],"outputs":[{"name":"","type":"address","internalType":"address"}],"stateMutability":"view"},{"type":"function","name":"executeSubsidyBatch","inputs":[{"name":"epochId","type":"uint256","internalType":"uint256"},{"name":"payments","type":"tuple[]","internalType":"struct DebtSubsidyExecutor.SubsidyPayment[]","components":[{"name":"cToken","type":"address","internalType":"address"},{"name":"borrower","type":"address","internalType":"address"},{"name":"amount","type":"uint256","internalType":"uint256"}]},{"name":"nonce","type":"bytes32","internalType":"bytes32"},{"name":"deadline","type":"uint256","internalType":"uint256"},{"name":"signature","type":"bytes","internalType":"bytes"}],"outputs":[],"stateMutability":"nonpayable"},{"type":"function","name":"executionWindow","inputs":[],"outputs":[{"name":"","type":"uint256","internalType":"uint256"}],"stateMutability":"view"},{"type":"function","name":"initialize","inputs":[{"name":"_initialOwner","type":"address","internalType":"address"},{"name":"_initialSigner","type":"address","internalType":"address"},{"name":"_initialExecutionWindow","type":"uint256","internalType":"uint256"}],"outputs":[],"stateMutability":"nonpayable"},{"type":"function","name":"owner","inputs":[],"outputs":[{"name":"","type":"address","internalType":"address"}],"stateMutability":"view"},{"type":"function","name":"pause","inputs":[],"outputs":[],"stateMutability":"nonpayable"},{"type":"function","name":"paused","inputs":[],"outputs":[{"name":"","type":"bool","internalType":"bool"}],"stateMutability":"view"},{"type":"function","name":"proxiableUUID","inputs":[],"outputs":[{"name":"","type":"bytes32","internalType":"bytes32"}],"stateMutability":"view"},{"type":"function","name":"renounceOwnership","inputs":[],"outputs":[],"stateMutability":"nonpayable"},{"type":"function","name":"setAuthorizedSigner","inputs":[{"name":"_newSigner","type":"address","internalType":"address"}],"outputs":[],"stateMutability":"nonpayable"},{"type":"function","name":"setExecutionWindow","inputs":[{"name":"_newExecutionWindow","type":"uint256","internalType":"uint256"}],"outputs":[],"stateMutability":"nonpayable"},{"type":"function","name":"transferOwnership","inputs":[{"name":"newOwner","type":"address","internalType":"address"}],"outputs":[],"stateMutability":"nonpayable"},{"type":"function","name":"unpause","inputs":[],"outputs":[],"stateMutability":"nonpayable"},{"type":"function","name":"upgradeToAndCall","inputs":[{"name":"newImplementation","type":"address","internalType":"address"},{"name":"data","type":"bytes","internalType":"bytes"}],"outputs":[],"stateMutability":"payable"},{"type":"function","name":"usedNonces","inputs":[{"name":"","type":"bytes32","internalType":"bytes32"}],"outputs":[{"name":"","type":"bool","internalType":"bool"}],"stateMutability":"view"},{"type":"event","name":"AuthorizedSignerUpdated","inputs":[{"name":"newSigner","type":"address","indexed":true,"internalType":"address"}],"anonymous":false},{"type":"event","name":"DebtSubsidiesExecuted","inputs":[{"name":"epochId","type":"uint256","indexed":true,"internalType":"uint256"},{"name":"signer","type":"address","indexed":true,"internalType":"address"},{"name":"numSubsidies","type":"uint256","indexed":false,"internalType":"uint256"}],"anonymous":false},{"type":"event","name":"ExecutionWindowUpdated","inputs":[{"name":"newExecutionWindow","type":"uint256","indexed":false,"internalType":"uint256"}],"anonymous":false},{"type":"event","name":"Initialized","inputs":[{"name":"version","type":"uint64","indexed":false,"internalType":"uint64"}],"anonymous":false},{"type":"event","name":"OwnershipTransferred","inputs":[{"name":"previousOwner","type":"address","indexed":true,"internalType":"address"},{"name":"newOwner","type":"address","indexed":true,"internalType":"address"}],"anonymous":false},{"type":"event","name":"Paused","inputs":[{"name":"account","type":"address","indexed":false,"internalType":"address"}],"anonymous":false},{"type":"event","name":"SubsidyPaymentFailed","inputs":[{"name":"epochId","type":"uint256","indexed":true,"internalType":"uint256"},{"name":"cToken","type":"address","indexed":true,"internalType":"address"},{"name":"borrower","type":"address","indexed":true,"internalType":"address"},{"name":"amount","type":"uint256","indexed":false,"internalType":"uint256"}],"anonymous":false},{"type":"event","name":"Unpaused","inputs":[{"name":"account","type":"address","indexed":false,"internalType":"address"}],"anonymous":false},{"type":"event","name":"Upgraded","inputs":[{"name":"implementation","type":"address","indexed":true,"internalType":"address"}],"anonymous":false},{"type":"error","name":"AddressEmptyCode","inputs":[{"name":"target","type":"address","internalType":"address"}]},{"type":"error","name":"DebtSubsidyExecutor__EmptyBatch","inputs":[]},{"type":"error","name":"DebtSubsidyExecutor__InvalidExecutionWindow","inputs":[]},{"type":"error","name":"DebtSubsidyExecutor__InvalidSignature","inputs":[]},{"type":"error","name":"DebtSubsidyExecutor__NonceAlreadyUsed","inputs":[{"name":"nonce","type":"bytes32","internalType":"bytes32"}]},{"type":"error","name":"DebtSubsidyExecutor__NotAuthorized","inputs":[]},{"type":"error","name":"DebtSubsidyExecutor__RepayFailed","inputs":[{"name":"cToken","type":"address","internalType":"address"},{"name":"borrower","type":"address","internalType":"address"},{"name":"amount","type":"uint256","internalType":"uint256"}]},{"type":"error","name":"DebtSubsidyExecutor__SignatureExpired","inputs":[{"name":"deadline","type":"uint256","internalType":"uint256"}]},{"type":"error","name":"DebtSubsidyExecutor__Unauthorized","inputs":[]},{"type":"error","name":"ECDSAInvalidSignature","inputs":[]},{"type":"error","name":"ECDSAInvalidSignatureLength","inputs":[{"name":"length","type":"uint256","internalType":"uint256"}]},{"type":"error","name":"ECDSAInvalidSignatureS","inputs":[{"name":"s","type":"bytes32","internalType":"bytes32"}]},{"type":"error","name":"ERC1967InvalidImplementation","inputs":[{"name":"implementation","type":"address","internalType":"address"}]},{"type":"error","name":"ERC1967NonPayable","inputs":[]},{"type":"error","name":"EnforcedPause","inputs":[]},{"type":"error","name":"ExpectedPause","inputs":[]},{"type":"error","name":"FailedCall","inputs":[]},{"type":"error","name":"InvalidInitialization","inputs":[]},{"type":"error","name":"NotInitializing","inputs":[]},{"type":"error","name":"OwnableInvalidOwner","inputs":[{"name":"owner","type":"address","internalType":"address"}]},{"type":"error","name":"OwnableUnauthorizedAccount","inputs":[{"name":"account","type":"address","internalType":"address"}]},{"type":"error","name":"ReentrancyGuardReentrantCall","inputs":[]},{"type":"error","name":"UUPSUnauthorizedCallContext","inputs":[]},{"type":"error","name":"UUPSUnsupportedProxiableUUID","inputs":[{"name":"slot","type":"bytes32","internalType":"bytes32"}]}],"bytecode":{"object":"0x60a080604052346029573060805261118a908161002e82396080518181816103bc015261045f0152f35b5f80fdfe60806040526004361015610010575b005b5f3560e01c80631794bb3c14610b3d57806317c5993a14610b2057806326feed35146106f657806330b93c49146106945780633f4ba83a146106165780634f1ef2861461041057806352d1902d146103aa5780635c975abb1461037c578063715018a6146103155780638456cb59146102a45780638da5cb5b14610270578063ad3cb1cc14610212578063c771909c146101eb578063d279b0ca14610120578063f2fde38b146100f75763feb617240361000e57346100f35760203660031901126100f3576004355f526002602052602060ff60405f2054166040519015158152f35b5f80fd5b346100f35760203660031901126100f35761000e610113610d5f565b61011b610ebd565b610e25565b346100f35760203660031901126100f357610139610d5f565b610141610ebd565b6001600160a01b03168015610187575f80546001600160a01b031916821781557f24bada2c0d54dfcadf1a6b7d7c4528c4219c6fffcce683ca9f39a8441947c63e9080a2005b60405162461bcd60e51b815260206004820152603660248201527f44656274537562736964794578656375746f723a204e6577207369676e65722060448201527563616e6e6f74206265207a65726f206164647265737360501b6064820152608490fd5b346100f3575f3660031901126100f3575f546040516001600160a01b039091168152602090f35b346100f3575f3660031901126100f35760408051906102318183610d89565b600582526020820191640352e302e360dc1b83528151928391602083525180918160208501528484015e5f828201840152601f01601f19168101030190f35b346100f3575f3660031901126100f3575f5160206110b55f395f51905f52546040516001600160a01b039091168152602090f35b346100f3575f3660031901126100f3576102bc610ebd565b6102c4610e96565b600160ff195f5160206110f55f395f51905f525416175f5160206110f55f395f51905f52557f62e78cea01bee320cd4e420270b5ea74000d11b0c9f74754ebdbfc544b05a2586020604051338152a1005b346100f3575f3660031901126100f35761032d610ebd565b5f5160206110b55f395f51905f5280546001600160a01b031981169091555f906001600160a01b03167f8be0079c531659141344cd1fd0a4f28419497f9722a3daafe3b4186f6b6457e08280a3005b346100f3575f3660031901126100f357602060ff5f5160206110f55f395f51905f5254166040519015158152f35b346100f3575f3660031901126100f3577f00000000000000000000000000000000000000000000000000000000000000006001600160a01b031630036104015760206040515f5160206110d55f395f51905f528152f35b63703e46dd60e11b5f5260045ffd5b60403660031901126100f357610424610d5f565b60243567ffffffffffffffff81116100f357366023820112156100f357610455903690602481600401359101610ddb565b6001600160a01b037f0000000000000000000000000000000000000000000000000000000000000000163081149081156105f4575b5061040157610497610ebd565b6040516352d1902d60e01b81526001600160a01b0383169290602081600481875afa5f91816105c0575b506104d95783634c9c8ce360e01b5f5260045260245ffd5b805f5160206110d55f395f51905f528592036105ae5750813b1561059c575f5160206110d55f395f51905f5280546001600160a01b031916821790557fbc7cd75a20ee27fd9adebab32041f755214dbc6bffa90cc0225b39da2e5c2d3b5f80a2815115610584575f8083602061000e95519101845af43d1561057c573d9161056083610dbf565b9261056e6040519485610d89565b83523d5f602085013e611056565b606091611056565b50503461058d57005b63b398979f60e01b5f5260045ffd5b634c9c8ce360e01b5f5260045260245ffd5b632a87526960e21b5f5260045260245ffd5b9091506020813d6020116105ec575b816105dc60209383610d89565b810103126100f3575190856104c1565b3d91506105cf565b5f5160206110d55f395f51905f52546001600160a01b0316141590508361048a565b346100f3575f3660031901126100f35761062e610ebd565b5f5160206110f55f395f51905f525460ff8116156106855760ff19165f5160206110f55f395f51905f52557f5db9ee0a495bf2e6ff9c91a7834c1ba4fdd244a5e8aa4e537bd38aeae4b073aa6020604051338152a1005b638dfc202b60e01b5f5260045ffd5b346100f35760203660031901126100f3576004356106b0610ebd565b80156106e7576020817f34a78d1f6f88df76605b11664ce25c8b90368cff05f8ca97b32e0813c1f3a0b692600155604051908152a1005b63362db35f60e21b5f5260045ffd5b346100f35760a03660031901126100f35760243560043567ffffffffffffffff82116100f357366023830112156100f357816004013567ffffffffffffffff81116100f35736602460608302850101116100f3576064359260443560843567ffffffffffffffff81116100f357366023820112156100f35780600401359067ffffffffffffffff82116100f35736602483830101116100f35760025f5160206111155f395f51905f525414610b115760025f5160206111155f395f51905f52556107be610e96565b8415610b0257864211610aef57825f52600260205260ff60405f205416610adc5760405160208101908660e0820189845260c0604084015252610100810198602487015f5b898110610a9257505091816108468161088d9a9b9c61087e968a60606108849b9a98015260808301524660a08301523060c083015203601f198101835282610d89565b5190207f19457468657265756d205369676e6564204d6573736167653a0a3332000000005f52601c52603c5f20926024369201610ddb565b90610f1b565b90949194610f55565b5f546001600160a01b0393841693168303610a83575f52600260205260405f20600160ff198254161790555f915f5b84811015610a43576060810283016024810190876001600160a01b036108e184610e11565b16925f60206044850195604460646108f889610e11565b6040516304c11f0360e31b81526001600160a01b03909116600482015297013560248801819052969384928391905af15f9181610a0d575b5061098d5750907fdf8f83f05e3765970cd5178e72f17371226c823e590fafb20c89a14c31350107602061097161096b600198979695610e11565b95610e11565b60405194855260a088901b889003908116951693a45b016108bc565b156109e157907fdf8f83f05e3765970cd5178e72f17371226c823e590fafb20c89a14c3135010760206109c761096b600198979695610e11565b60405194855260a088901b889003908116951693a4610987565b50505050925f1981146109f957600180910193610987565b634e487b7160e01b5f52601160045260245ffd5b935090506020833d8211610a3b575b81610a2960209383610d89565b810103126100f3578a9251908c610930565b3d9150610a1c565b50847faa39d5149fc91b018ab72d3e70d7af8c3bca0752d706d006092db62f61c538b6602085604051908152a360015f5160206111155f395f51905f5255005b63192704a760e11b5f5260045ffd5b909a600190606090819060408f6001600160a01b03610ab082610d75565b168352858060a01b03610ac560208301610d75565b16602084015201356040820152019c019101610803565b8263f745174960e01b5f5260045260245ffd5b86630b4e762d60e21b5f5260045260245ffd5b633ef585a360e21b5f5260045ffd5b633ee5aeb560e01b5f5260045ffd5b346100f3575f3660031901126100f3576020600154604051908152f35b346100f35760603660031901126100f357610b56610d5f565b6024356001600160a01b038116908190036100f357604435905f5160206111355f395f51905f525460ff8160401c16159367ffffffffffffffff821680159081610d57575b6001149081610d4d575b159081610d44575b50610d355767ffffffffffffffff1982166001175f5160206111355f395f51905f5255610bf39185610d09575b50610be3610ef0565b610beb610ef0565b61011b610ef0565b610bfb610ef0565b610c03610ef0565b610c0b610ef0565b60015f5160206111155f395f51905f52558015610c9e5781156106e7576bffffffffffffffffffffffff60a01b5f5416175f55600155610c4757005b68ff0000000000000000195f5160206111355f395f51905f5254165f5160206111355f395f51905f52557fc7f505b2f371ae2175ee4913f4499e1f2633a7b5936321eed1cdaeb6115181d2602060405160018152a1005b60405162461bcd60e51b815260206004820152603a60248201527f44656274537562736964794578656375746f723a20496e697469616c2073696760448201527f6e65722063616e6e6f74206265207a65726f20616464726573730000000000006064820152608490fd5b68ffffffffffffffffff191668010000000000000001175f5160206111355f395f51905f525585610bda565b63f92ee8a960e01b5f5260045ffd5b90501586610bad565b303b159150610ba5565b869150610b9b565b600435906001600160a01b03821682036100f357565b35906001600160a01b03821682036100f357565b90601f8019910116810190811067ffffffffffffffff821117610dab57604052565b634e487b7160e01b5f52604160045260245ffd5b67ffffffffffffffff8111610dab57601f01601f191660200190565b929192610de782610dbf565b91610df56040519384610d89565b8294818452818301116100f3578281602093845f960137010152565b356001600160a01b03811681036100f35790565b6001600160a01b03168015610e83575f5160206110b55f395f51905f5280546001600160a01b0319811683179091556001600160a01b03167f8be0079c531659141344cd1fd0a4f28419497f9722a3daafe3b4186f6b6457e05f80a3565b631e4fbdf760e01b5f525f60045260245ffd5b60ff5f5160206110f55f395f51905f525416610eae57565b63d93c066560e01b5f5260045ffd5b5f5160206110b55f395f51905f52546001600160a01b03163303610edd57565b63118cdaa760e01b5f523360045260245ffd5b60ff5f5160206111355f395f51905f525460401c1615610f0c57565b631afcd79f60e31b5f5260045ffd5b8151919060418303610f4b57610f449250602082015190606060408401519301515f1a90610fc9565b9192909190565b50505f9160029190565b6004811015610fb55780610f67575050565b60018103610f7e5763f645eedf60e01b5f5260045ffd5b60028103610f99575063fce698f760e01b5f5260045260245ffd5b600314610fa35750565b6335e2f38360e21b5f5260045260245ffd5b634e487b7160e01b5f52602160045260245ffd5b91907f7fffffffffffffffffffffffffffffff5d576e7357a4501ddfe92f46681b20a0841161104b579160209360809260ff5f9560405194855216868401526040830152606082015282805260015afa15611040575f516001600160a01b0381161561103657905f905f90565b505f906001905f90565b6040513d5f823e3d90fd5b5050505f9160039190565b9061107a575080511561106b57805190602001fd5b63d6bda27560e01b5f5260045ffd5b815115806110ab575b61108b575090565b639996b31560e01b5f9081526001600160a01b0391909116600452602490fd5b50803b1561108356fe9016d09d72d40fdae2fd8ceac6b6234c7706214fd39c1cd1e609a0528c199300360894a13ba1a3210667c828492db98dca3e2076cc3735a920a3ca505d382bbccd5ed15c6e187e77e9aee88184c21f4f2182ab5827cb3b7e07fbedcd63f033009b779b17422d0df92223018b32b4d1fa46e071723d6817e2486d003becc55f00f0c57e16840df040f15088dc2f81fe391c3923bec73e23a9662efc9c229c6a00a264697066735822122042155687de97af29c40807aaed171ff54d964d0a22e2ebb4b9b4e7e4a8144d4864736f6c634300081e0033","linkReferences":{}},"methodIdentifiers":{"UPGRADE_INTERFACE_VERSION()":"ad3cb1cc","authorizedSigner()":"c771909c","executeSubsidyBatch(uint256,(address,address,uint256)[],bytes32,uint256,bytes)":"26feed35","executionWindow()":"17c5993a","initialize(address,address,uint256)":"1794bb3c","owner()":"8da5cb5b","pause()":"8456cb59","paused()":"5c975abb","proxiableUUID()":"52d1902d","renounceOwnership()":"715018a6","setAuthorizedSigner(address)":"d279b0ca","setExecutionWindow(uint256)":"30b93c49","transferOwnership(address)":"f2fde38b","unpause()":"3f4ba83a","upgradeToAndCall(address,bytes)":"4f1ef286","usedNonces(bytes32)":"feb61724"},"id":75}