{"abi":[{"type":"constructor","inputs":[],"stateMutability":"nonpayable"},{"type":"function","name":"addEligibleUser","inputs":[{"name":"user","type":"address","internalType":"address"}],"outputs":[],"stateMutability":"nonpayable"},{"type":"function","name":"addVault","inputs":[{"name":"vaultAddress_","type":"address","internalType":"address"},{"name":"lendingManagerAddress_","type":"address","internalType":"address"}],"outputs":[],"stateMutability":"nonpayable"},{"type":"function","name":"claimAllSubsidies","inputs":[{"name":"vaultAddresses","type":"address[]","internalType":"address[]"},{"name":"claims","type":"tuple[]","internalType":"struct IDebtSubsidizer.ClaimData[]","components":[{"name":"recipient","type":"address","internalType":"address"},{"name":"totalEarned","type":"uint256","internalType":"uint256"},{"name":"merkleProof","type":"bytes32[]","internalType":"bytes32[]"}]}],"outputs":[],"stateMutability":"nonpayable"},{"type":"function","name":"claimSubsidy","inputs":[{"name":"vaultAddress","type":"address","internalType":"address"},{"name":"claim","type":"tuple","internalType":"struct IDebtSubsidizer.ClaimData","components":[{"name":"recipient","type":"address","internalType":"address"},{"name":"totalEarned","type":"uint256","internalType":"uint256"},{"name":"merkleProof","type":"bytes32[]","internalType":"bytes32[]"}]}],"outputs":[],"stateMutability":"nonpayable"},{"type":"function","name":"collectionRegistry","inputs":[],"outputs":[{"name":"","type":"address","internalType":"contract ICollectionRegistry"}],"stateMutability":"view"},{"type":"function","name":"eligibleUsers","inputs":[{"name":"","type":"address","internalType":"address"}],"outputs":[{"name":"","type":"bool","internalType":"bool"}],"stateMutability":"view"},{"type":"function","name":"getTotalEligibleUsers","inputs":[],"outputs":[{"name":"","type":"uint256","internalType":"uint256"}],"stateMutability":"view"},{"type":"function","name":"getTotalSubsidiesRemaining","inputs":[],"outputs":[{"name":"","type":"uint256","internalType":"uint256"}],"stateMutability":"view"},{"type":"function","name":"getTotalSubsidyPool","inputs":[],"outputs":[{"name":"","type":"uint256","internalType":"uint256"}],"stateMutability":"view"},{"type":"function","name":"initialize","inputs":[{"name":"initialOwner","type":"address","internalType":"address"},{"name":"registry","type":"address","internalType":"address"}],"outputs":[],"stateMutability":"nonpayable"},{"type":"function","name":"initializeSubsidyPool","inputs":[{"name":"poolAmount","type":"uint256","internalType":"uint256"}],"outputs":[],"stateMutability":"nonpayable"},{"type":"function","name":"isCollectionWhitelisted","inputs":[{"name":"vaultAddress","type":"address","internalType":"address"},{"name":"collectionAddress","type":"address","internalType":"address"}],"outputs":[{"name":"","type":"bool","internalType":"bool"}],"stateMutability":"view"},{"type":"function","name":"isUserEligible","inputs":[{"name":"user","type":"address","internalType":"address"}],"outputs":[{"name":"","type":"bool","internalType":"bool"}],"stateMutability":"view"},{"type":"function","name":"owner","inputs":[],"outputs":[{"name":"","type":"address","internalType":"address"}],"stateMutability":"view"},{"type":"function","name":"pause","inputs":[],"outputs":[],"stateMutability":"nonpayable"},{"type":"function","name":"paused","inputs":[],"outputs":[{"name":"","type":"bool","internalType":"bool"}],"stateMutability":"view"},{"type":"function","name":"removeCollection","inputs":[{"name":"vaultAddress","type":"address","internalType":"address"},{"name":"collectionAddress","type":"address","internalType":"address"}],"outputs":[],"stateMutability":"nonpayable"},{"type":"function","name":"removeEligibleUser","inputs":[{"name":"user","type":"address","internalType":"address"}],"outputs":[],"stateMutability":"nonpayable"},{"type":"function","name":"removeVault","inputs":[{"name":"vaultAddress_","type":"address","internalType":"address"}],"outputs":[],"stateMutability":"nonpayable"},{"type":"function","name":"renounceOwnership","inputs":[],"outputs":[],"stateMutability":"nonpayable"},{"type":"function","name":"totalEligibleUsers","inputs":[],"outputs":[{"name":"","type":"uint256","internalType":"uint256"}],"stateMutability":"view"},{"type":"function","name":"totalSubsidiesRemaining","inputs":[],"outputs":[{"name":"","type":"uint256","internalType":"uint256"}],"stateMutability":"view"},{"type":"function","name":"totalSubsidyPool","inputs":[],"outputs":[{"name":"","type":"uint256","internalType":"uint256"}],"stateMutability":"view"},{"type":"function","name":"transferOwnership","inputs":[{"name":"newOwner","type":"address","internalType":"address"}],"outputs":[],"stateMutability":"nonpayable"},{"type":"function","name":"unpause","inputs":[],"outputs":[],"stateMutability":"nonpayable"},{"type":"function","name":"updateMerkleRoot","inputs":[{"name":"vaultAddress","type":"address","internalType":"address"},{"name":"merkleRoot_","type":"bytes32","internalType":"bytes32"}],"outputs":[],"stateMutability":"nonpayable"},{"type":"function","name":"updateSubsidyPool","inputs":[{"name":"newPoolAmount","type":"uint256","internalType":"uint256"}],"outputs":[],"stateMutability":"nonpayable"},{"type":"function","name":"userSecondsClaimed","inputs":[{"name":"user","type":"address","internalType":"address"}],"outputs":[{"name":"","type":"uint256","internalType":"uint256"}],"stateMutability":"view"},{"type":"function","name":"vault","inputs":[{"name":"vaultAddress","type":"address","internalType":"address"}],"outputs":[{"name":"vaultInfo_","type":"tuple","internalType":"struct IDebtSubsidizer.VaultInfo","components":[{"name":"lendingManager","type":"address","internalType":"address"},{"name":"cToken","type":"address","internalType":"address"}]}],"stateMutability":"view"},{"type":"function","name":"whitelistCollection","inputs":[{"name":"vaultAddress","type":"address","internalType":"address"},{"name":"collectionAddress","type":"address","internalType":"address"}],"outputs":[],"stateMutability":"nonpayable"},{"type":"event","name":"DebtSubsidizerRoleGranted","inputs":[{"name":"role","type":"bytes32","indexed":true,"internalType":"bytes32"},{"name":"account","type":"address","indexed":true,"internalType":"address"},{"name":"sender","type":"address","indexed":false,"internalType":"address"},{"name":"timestamp","type":"uint256","indexed":false,"internalType":"uint256"}],"anonymous":false},{"type":"event","name":"DebtSubsidizerRoleRevoked","inputs":[{"name":"role","type":"bytes32","indexed":true,"internalType":"bytes32"},{"name":"account","type":"address","indexed":true,"internalType":"address"},{"name":"sender","type":"address","indexed":false,"internalType":"address"},{"name":"timestamp","type":"uint256","indexed":false,"internalType":"uint256"}],"anonymous":false},{"type":"event","name":"EligibleUserCountUpdated","inputs":[{"name":"totalCount","type":"uint256","indexed":true,"internalType":"uint256"},{"name":"added","type":"bool","indexed":true,"internalType":"bool"},{"name":"user","type":"address","indexed":false,"internalType":"address"},{"name":"timestamp","type":"uint256","indexed":false,"internalType":"uint256"}],"anonymous":false},{"type":"event","name":"Initialized","inputs":[{"name":"version","type":"uint64","indexed":false,"internalType":"uint64"}],"anonymous":false},{"type":"event","name":"MerkleRootUpdated","inputs":[{"name":"vaultAddress","type":"address","indexed":true,"internalType":"address"},{"name":"merkleRoot","type":"bytes32","indexed":false,"internalType":"bytes32"},{"name":"updatedBy","type":"address","indexed":true,"internalType":"address"}],"anonymous":false},{"type":"event","name":"NewCollectionWhitelisted","inputs":[{"name":"vaultAddress","type":"address","indexed":true,"internalType":"address"},{"name":"collectionAddress","type":"address","indexed":true,"internalType":"address"}],"anonymous":false},{"type":"event","name":"OwnershipTransferred","inputs":[{"name":"previousOwner","type":"address","indexed":true,"internalType":"address"},{"name":"newOwner","type":"address","indexed":true,"internalType":"address"}],"anonymous":false},{"type":"event","name":"Paused","inputs":[{"name":"account","type":"address","indexed":false,"internalType":"address"}],"anonymous":false},{"type":"event","name":"SubsidyClaimed","inputs":[{"name":"vaultAddress","type":"address","indexed":true,"internalType":"address"},{"name":"recipient","type":"address","indexed":true,"internalType":"address"},{"name":"amount","type":"uint256","indexed":false,"internalType":"uint256"}],"anonymous":false},{"type":"event","name":"SubsidyPoolInitialized","inputs":[{"name":"poolAmount","type":"uint256","indexed":true,"internalType":"uint256"},{"name":"timestamp","type":"uint256","indexed":true,"internalType":"uint256"}],"anonymous":false},{"type":"event","name":"SubsidyPoolUpdated","inputs":[{"name":"oldAmount","type":"uint256","indexed":true,"internalType":"uint256"},{"name":"newAmount","type":"uint256","indexed":true,"internalType":"uint256"},{"name":"timestamp","type":"uint256","indexed":false,"internalType":"uint256"}],"anonymous":false},{"type":"event","name":"Unpaused","inputs":[{"name":"account","type":"address","indexed":false,"internalType":"address"}],"anonymous":false},{"type":"event","name":"VaultAdded","inputs":[{"name":"vaultAddress","type":"address","indexed":true,"internalType":"address"},{"name":"cTokenAddress","type":"address","indexed":true,"internalType":"address"},{"name":"lendingManagerAddress","type":"address","indexed":true,"internalType":"address"}],"anonymous":false},{"type":"event","name":"VaultRemoved","inputs":[{"name":"vaultAddress","type":"address","indexed":true,"internalType":"address"}],"anonymous":false},{"type":"event","name":"WhitelistCollectionRemoved","inputs":[{"name":"vaultAddress","type":"address","indexed":true,"internalType":"address"},{"name":"collectionAddress","type":"address","indexed":true,"internalType":"address"}],"anonymous":false},{"type":"error","name":"AddressZero","inputs":[]},{"type":"error","name":"AlreadyClaimed","inputs":[]},{"type":"error","name":"ArrayLengthMismatch","inputs":[]},{"type":"error","name":"CannotSetSignerToZeroAddress","inputs":[]},{"type":"error","name":"CollectionAlreadyExists","inputs":[{"name":"collection","type":"address","internalType":"address"}]},{"type":"error","name":"CollectionAlreadyWhitelistedInVault","inputs":[{"name":"vaultAddress","type":"address","internalType":"address"},{"name":"collectionAddress","type":"address","internalType":"address"}]},{"type":"error","name":"CollectionNotWhitelisted","inputs":[{"name":"collection","type":"address","internalType":"address"}]},{"type":"error","name":"CollectionNotWhitelistedInVault","inputs":[{"name":"vaultAddress","type":"address","internalType":"address"},{"name":"collectionAddress","type":"address","internalType":"address"}]},{"type":"error","name":"EnforcedPause","inputs":[]},{"type":"error","name":"ExpectedPause","inputs":[]},{"type":"error","name":"InsufficientYield","inputs":[]},{"type":"error","name":"InvalidCollectionInterface","inputs":[{"name":"collectionAddress","type":"address","internalType":"address"},{"name":"interfaceId","type":"bytes4","internalType":"bytes4"}]},{"type":"error","name":"InvalidInitialization","inputs":[]},{"type":"error","name":"InvalidMerkleProof","inputs":[]},{"type":"error","name":"InvalidSecondsColl","inputs":[]},{"type":"error","name":"InvalidSignature","inputs":[]},{"type":"error","name":"InvalidYieldSharePercentage","inputs":[{"name":"totalSharePercentage","type":"uint256","internalType":"uint256"}]},{"type":"error","name":"InvalidYieldSlice","inputs":[]},{"type":"error","name":"LendingManagerAssetMismatch","inputs":[{"name":"vaultAsset","type":"address","internalType":"address"},{"name":"lmAsset","type":"address","internalType":"address"}]},{"type":"error","name":"LendingManagerNotSetForVault","inputs":[{"name":"vaultAddress","type":"address","internalType":"address"}]},{"type":"error","name":"MerkleRootNotSet","inputs":[]},{"type":"error","name":"NotInitializing","inputs":[]},{"type":"error","name":"OwnableInvalidOwner","inputs":[{"name":"owner","type":"address","internalType":"address"}]},{"type":"error","name":"OwnableUnauthorizedAccount","inputs":[{"name":"account","type":"address","internalType":"address"}]},{"type":"error","name":"ReentrancyGuardReentrantCall","inputs":[]},{"type":"error","name":"VaultAlreadyRegistered","inputs":[{"name":"vaultAddress","type":"address","internalType":"address"}]},{"type":"error","name":"VaultMismatch","inputs":[]},{"type":"error","name":"VaultNotRegistered","inputs":[{"name":"vaultAddress","type":"address","internalType":"address"}]}],"bytecode":{"object":"0x6080806040523460aa575f51602061197b5f395f51905f525460ff8160401c16609b576002600160401b03196001600160401b038216016049575b6040516118cc90816100af8239f35b6001600160401b0319166001600160401b039081175f51602061197b5f395f51905f525581527fc7f505b2f371ae2175ee4913f4499e1f2633a7b5936321eed1cdaeb6115181d290602090a15f80603a565b63f92ee8a960e01b5f5260045ffd5b5f80fdfe6080806040526004361015610012575f80fd5b5f3560e01c908163127fe7b5146111c5575080632526952a1461106e5780633f4ba83a14610ff057806341afb80814610f99578063485cc95514610dec5780635c975abb14610dbe5780637100296d14610d0c578063715018a614610ca557806377f7eb9f14610c175780637d89ea62146107015780638456cb5914610c3457806385cd086c14610c17578063879df1f3146106c45780638c7cc5e314610bef5780638da5cb5b14610bbb57806395b00dd914610b165780639f1bcbad1461092d578063b1cd60f2146108ef578063b7ffc55d1461089c578063c36ab2a81461087f578063ceb68c231461071e578063deda68c414610701578063e4d0da43146106c4578063e786818e14610626578063ec3a782314610450578063f1e5820d14610386578063f2fde38b1461035b578063f314ce2d14610304578063f815c03d146102565763fd8f92ae14610166575f80fd5b3461021c57604036600319011261021c5760043567ffffffffffffffff811161021c5761019790369060040161120b565b9060243567ffffffffffffffff811161021c576101b890369060040161120b565b6101c061135a565b6101c8611392565b8084036102475736829003605e190193925f5b84811015610234578060051b906101f3828401611313565b9184821015610220578501358781121561021c57600192610216918701906113b9565b016101db565b5f80fd5b634e487b7160e01b5f52603260045260245ffd5b60015f5160206118575f395f51905f5255005b63512509d360e11b5f5260045ffd5b3461021c57602036600319011261021c5761026f6111df565b6040516040810181811067ffffffffffffffff8211176102f05760409081525f80835260208084018281526001600160a01b0395861680845291839052929091205490931680156102dd5781526040805192516001600160a01b039081168452915190911660208301529150f35b8363299f342560e01b5f5260045260245ffd5b634e487b7160e01b5f52604160045260245ffd5b3461021c57604036600319011261021c5761031d6111df565b6024359067ffffffffffffffff821161021c576060600319833603011261021c576102349161034a61135a565b610352611392565b600401906113b9565b3461021c57602036600319011261021c576103846103776111df565b61037f611327565b6112a2565b005b3461021c57602036600319011261021c5761039f6111df565b6103a7611327565b6001600160a01b03811690811561044157815f52600b60205260ff60405f205416156103cf57005b6001915f52600b60205260405f208260ff198254161790557ffe7f4ddbae81a3ab080d814ddc83f71da0d7a1b4dbaa88c3a6900eeeb832043261043c610416600a54611294565b600a819055604080516001600160a01b0390951685524260208601529093918291820190565b0390a3005b639fabe1c160e01b5f5260045ffd5b3461021c57604036600319011261021c576104696111df565b6104716111f5565b9061047a611327565b6001600160a01b03169081158015610615575b610441575f828152602081905260409020546001600160a01b0316610602576040516338d52e0f60e01b81526001600160a01b039190911691602082600481845afa9182156105b3575f926105be575b506040516338d52e0f60e01b8152602081600481875afa9081156105b3575f91610571575b506001600160a01b03928316921680830361055b5750805f525f60205260405f20826001600160601b0360a01b8254161790557fc590bd7f43139981c355ef80ff49e3082ca7d9b6d0102bac27423c00b9d445895f80a4005b826342a981d760e01b5f5260045260245260445ffd5b90506020813d6020116105ab575b8161058c6020938361125e565b8101031261021c57516001600160a01b038116810361021c5784610502565b3d915061057f565b6040513d5f823e3d90fd5b9091506020813d6020116105fa575b816105da6020938361125e565b8101031261021c57516001600160a01b038116810361021c5790836104dd565b3d91506105cd565b50631c5fe60b60e11b5f5260045260245ffd5b506001600160a01b0381161561048d565b3461021c57604036600319011261021c5761063f6111df565b6024359061064b611327565b6001600160a01b03168015610441575f818152602081905260409020546001600160a01b0316156106b257805f5260016020528160405f20556040519182527fb0b5d8fb60623ea5e0dcc97eca130f9f46b4e89999660ffd32438d2026c98e6f60203393a3005b63299f342560e01b5f5260045260245ffd5b3461021c57602036600319011261021c576001600160a01b036106e56111df565b165f52600b602052602060ff60405f2054166040519015158152f35b3461021c575f36600319011261021c576020600a54604051908152f35b3461021c57602036600319011261021c576107376111df565b61073f611327565b6001600160a01b03168015610441575f818152602081905260409020546001600160a01b0316156106b257805f52600460205260405f20604051808260208294549384815201905f5260205f20925f5b81811061085d5750506107a49250038261125e565b5f5b81518110156107f2575f838152600360205260409020600191906001600160a01b036107d28386611280565b5116838060a01b03165f5260205260405f2060ff198154169055016107a6565b82805f52600460205260405f208054905f81558161083f575b82805f525f6020525f60408120557fe71f3a50e5ad81964f352c411f1d45e35438ecd1acecef59ac81d9fbbf6cbc0a5f80a2005b5f5260205f20908101905b8181101561080b575f815560010161084a565b84546001600160a01b031683526001948501948694506020909301920161078f565b3461021c575f36600319011261021c576020600954604051908152f35b3461021c57602036600319011261021c576004356108b8611327565b60085481600855816009557f9d1ca89e86e11e24150f44504616b9282e34896543e09edbe3f69fc12d03a8826020604051428152a3005b3461021c57602036600319011261021c576001600160a01b036109106111df565b168015610441575f526006602052602060405f2054604051908152f35b3461021c57604036600319011261021c576109466111df565b61094e6111f5565b90610957611327565b6001600160a01b03169081158015610b05575b61044157815f52600360205260405f2060018060a01b0382165f5260205260ff60405f20541615610ae2575f8281526003602090815260408083206001600160a01b03909416808452938252808320805460ff19169055848352600490915281209192905b825480821015610ad957846109e4838661123c565b905460039190911b1c6001600160a01b031614610a0457506001016109cf565b9192915f19810191908211610ac557610a3c610a23610a60938561123c565b905460039190911b1c6001600160a01b0316918461123c565b81546001600160a01b0393841660039290921b91821b9390911b1916919091179055565b80548015610ab1575f190190610a76828261123c565b81549060018060a01b039060031b1b19169055555b7faefe35de031dedb5ab8cc1d47f43a3327b372e796c145184a697e511b8229aef5f80a3005b634e487b7160e01b5f52603160045260245ffd5b634e487b7160e01b5f52601160045260245ffd5b50509050610a8b565b63063b14e160e01b5f9081526004929092526001600160a01b0316602452604490fd5b506001600160a01b0381161561096a565b3461021c57602036600319011261021c57600435610b32611327565b8015610b6857806008558060095542907f53a02a49f04e5625fc5e809f9ab4b757f586fb2afa341f3b6ec5a7e23834f0a85f80a3005b60405162461bcd60e51b815260206004820152602560248201527f506f6f6c20616d6f756e74206d7573742062652067726561746572207468616e604482015264207a65726f60d81b6064820152608490fd5b3461021c575f36600319011261021c575f5160206118175f395f51905f52546040516001600160a01b039091168152602090f35b3461021c575f36600319011261021c576007546040516001600160a01b039091168152602090f35b3461021c575f36600319011261021c576020600854604051908152f35b3461021c575f36600319011261021c57610c4c611327565b610c54611392565b600160ff195f5160206118375f395f51905f525416175f5160206118375f395f51905f52557f62e78cea01bee320cd4e420270b5ea74000d11b0c9f74754ebdbfc544b05a2586020604051338152a1005b3461021c575f36600319011261021c57610cbd611327565b5f5160206118175f395f51905f5280546001600160a01b031981169091555f906001600160a01b03167f8be0079c531659141344cd1fd0a4f28419497f9722a3daafe3b4186f6b6457e08280a3005b3461021c57602036600319011261021c57610d256111df565b610d2d611327565b6001600160a01b038116801561044157805f52600b60205260ff60405f205416610d5357005b5f52600b60205260405f2060ff198154169055600a54908115610ac5575f19909101600a819055604080516001600160a01b0390931683524260208401525f927ffe7f4ddbae81a3ab080d814ddc83f71da0d7a1b4dbaa88c3a6900eeeb8320432918190810161043c565b3461021c575f36600319011261021c57602060ff5f5160206118375f395f51905f5254166040519015158152f35b3461021c57604036600319011261021c57610e056111df565b610e0d6111f5565b905f5160206118775f395f51905f52549160ff8360401c16159267ffffffffffffffff811680159081610f91575b6001149081610f87575b159081610f7e575b50610f6f5767ffffffffffffffff1981166001175f5160206118775f395f51905f525583610f43575b506001600160a01b03821615610441576001600160a01b031690811561044157610eaa90610ea26117eb565b61037f6117eb565b610eb26117eb565b610eba6117eb565b60015f5160206118575f395f51905f5255610ed36117eb565b6001600160601b0360a01b6007541617600755610eec57005b68ff0000000000000000195f5160206118775f395f51905f5254165f5160206118775f395f51905f52557fc7f505b2f371ae2175ee4913f4499e1f2633a7b5936321eed1cdaeb6115181d2602060405160018152a1005b68ffffffffffffffffff191668010000000000000001175f5160206118775f395f51905f525583610e76565b63f92ee8a960e01b5f5260045ffd5b90501585610e4d565b303b159150610e45565b859150610e3b565b3461021c57604036600319011261021c57610fb26111df565b610fba6111f5565b9060018060a01b03165f52600360205260405f209060018060a01b03165f52602052602060ff60405f2054166040519015158152f35b3461021c575f36600319011261021c57611008611327565b5f5160206118375f395f51905f525460ff81161561105f5760ff19165f5160206118375f395f51905f52557f5db9ee0a495bf2e6ff9c91a7834c1ba4fdd244a5e8aa4e537bd38aeae4b073aa6020604051338152a1005b638dfc202b60e01b5f5260045ffd5b3461021c57604036600319011261021c576110876111df565b61108f6111f5565b90611098611327565b6001600160a01b031690811580156111b4575b610441575f828152602081905260409020546001600160a01b0316156111a157815f52600360205260405f2060018060a01b0382165f5260205260ff60405f20541661117e575f8281526003602090815260408083206001600160a01b03851684528252808320805460ff19166001179055848352600490915290208054680100000000000000008110156102f057610a3c8161114e936001869401815561123c565b6001600160a01b0316907fc4197ecff949dd61ca54e3a858427a30a97d3b06a1d8474fdb0e7509ae9165285f80a3005b635646f04d60e01b5f9081526004929092526001600160a01b0316602452604490fd5b5063299f342560e01b5f5260045260245ffd5b506001600160a01b038116156110ab565b3461021c575f36600319011261021c576020906009548152f35b600435906001600160a01b038216820361021c57565b602435906001600160a01b038216820361021c57565b9181601f8401121561021c5782359167ffffffffffffffff831161021c576020808501948460051b01011161021c57565b8054821015610220575f5260205f2001905f90565b91908203918211610ac557565b90601f8019910116810190811067ffffffffffffffff8211176102f057604052565b80518210156102205760209160051b010190565b5f198114610ac55760010190565b6001600160a01b03168015611300575f5160206118175f395f51905f5280546001600160a01b0319811683179091556001600160a01b03167f8be0079c531659141344cd1fd0a4f28419497f9722a3daafe3b4186f6b6457e05f80a3565b631e4fbdf760e01b5f525f60045260245ffd5b356001600160a01b038116810361021c5790565b5f5160206118175f395f51905f52546001600160a01b0316330361134757565b63118cdaa760e01b5f523360045260245ffd5b60025f5160206118575f395f51905f5254146113835760025f5160206118575f395f51905f5255565b633ee5aeb560e01b5f5260045ffd5b60ff5f5160206118375f395f51905f5254166113aa57565b63d93c066560e01b5f5260045ffd5b6001600160a01b039081165f818152602081905260409020549093929116156117d857825f52600160205260405f20549182156117c9576113f982611313565b9360208301356001600160a01b03861680156104415760405160208101906001600160601b03198960601b1682528360348201526034815261143c60548261125e565b51902094604081013590601e198136030182121561021c57019485359567ffffffffffffffff871161021c5760208101908760051b803603831361021c576020906040519961148d8383018c61125e565b8a52818a019201019136831161021c57905b8282106117b957505050965f975b86518910156114ef576114c08988611280565b5190818110156114de575f52602052600160405f205b9801976114ad565b905f52602052600160405f206114d6565b919497509295919450036117aa57835f52600260205260405f20825f5260205260405f20548084111561179b576115269084611251565b92845f52600260205260405f20835f5260205260405f20558261154a575b50505050565b60405163e2d2bfe360e01b8152602081600481885afa9081156105b3575f91611758575b5060405163a29a839f60e01b815290602090829060049082906001600160a01b03165afa9081156105b3575f91611726575b5060405190632dddd14760e21b82526004820152602081602481885afa9081156105b3575f916116f4575b5083116116e55782600954106116e557815f52600660205260405f20805490848201809211610ac5575561160183600954611251565b600955815f52600b60205260ff60405f20541615611694575b5080837f8d910f472a955834e42b72346310da6e1a8a0434fd6be360436c151ab284a86e6020604051868152a3823b1561021c5760445f9283604051958694859363aa553b6160e01b8552600485015260248401525af180156105b357611684575b808080611544565b5f61168e9161125e565b5f61167c565b600190825f52600b60205260405f208260ff198254161790557ffe7f4ddbae81a3ab080d814ddc83f71da0d7a1b4dbaa88c3a6900eeeb83204326116dc610416600a54611294565b0390a35f61161a565b63fa3505cf60e01b5f5260045ffd5b90506020813d60201161171e575b8161170f6020938361125e565b8101031261021c57515f6115cb565b3d9150611702565b90506020813d602011611750575b816117416020938361125e565b8101031261021c57515f6115a0565b3d9150611734565b90506020813d602011611793575b816117736020938361125e565b8101031261021c57516001600160a01b038116810361021c57602061156e565b3d9150611766565b630c8d9eab60e31b5f5260045ffd5b63582f497d60e11b5f5260045ffd5b813581526020918201910161149f565b634fc5147960e11b5f5260045ffd5b8263299f342560e01b5f5260045260245ffd5b60ff5f5160206118775f395f51905f525460401c161561180757565b631afcd79f60e31b5f5260045ffdfe9016d09d72d40fdae2fd8ceac6b6234c7706214fd39c1cd1e609a0528c199300cd5ed15c6e187e77e9aee88184c21f4f2182ab5827cb3b7e07fbedcd63f033009b779b17422d0df92223018b32b4d1fa46e071723d6817e2486d003becc55f00f0c57e16840df040f15088dc2f81fe391c3923bec73e23a9662efc9c229c6a00a2646970667358221220055dc1a681e17dc6adac15b869ef4c4113af6002cc94efe0278c81b82b6d67d264736f6c634300081e0033f0c57e16840df040f15088dc2f81fe391c3923bec73e23a9662efc9c229c6a00","linkReferences":{}},"methodIdentifiers":{"addEligibleUser(address)":"f1e5820d","addVault(address,address)":"ec3a7823","claimAllSubsidies(address[],(address,uint256,bytes32[])[])":"fd8f92ae","claimSubsidy(address,(address,uint256,bytes32[]))":"f314ce2d","collectionRegistry()":"8c7cc5e3","eligibleUsers(address)":"e4d0da43","getTotalEligibleUsers()":"7d89ea62","getTotalSubsidiesRemaining()":"127fe7b5","getTotalSubsidyPool()":"77f7eb9f","initialize(address,address)":"485cc955","initializeSubsidyPool(uint256)":"95b00dd9","isCollectionWhitelisted(address,address)":"41afb808","isUserEligible(address)":"879df1f3","owner()":"8da5cb5b","pause()":"8456cb59","paused()":"5c975abb","removeCollection(address,address)":"9f1bcbad","removeEligibleUser(address)":"7100296d","removeVault(address)":"ceb68c23","renounceOwnership()":"715018a6","totalEligibleUsers()":"deda68c4","totalSubsidiesRemaining()":"c36ab2a8","totalSubsidyPool()":"85cd086c","transferOwnership(address)":"f2fde38b","unpause()":"3f4ba83a","updateMerkleRoot(address,bytes32)":"e786818e","updateSubsidyPool(uint256)":"b7ffc55d","userSecondsClaimed(address)":"b1cd60f2","vault(address)":"f815c03d","whitelistCollection(address,address)":"2526952a"},"id":84}