{"abi":[{"type":"constructor","inputs":[{"name":"_initialEpochDuration","type":"uint256","internalType":"uint256"},{"name":"_initialAutomatedSystem","type":"address","internalType":"address"},{"name":"_initialOwner","type":"address","internalType":"address"}],"stateMutability":"nonpayable"},{"type":"function","name":"allocateVaultYield","inputs":[{"name":"vault","type":"address","internalType":"address"},{"name":"amount","type":"uint256","internalType":"uint256"}],"outputs":[],"stateMutability":"nonpayable"},{"type":"function","name":"automatedSystem","inputs":[],"outputs":[{"name":"","type":"address","internalType":"address"}],"stateMutability":"view"},{"type":"function","name":"beginEpochProcessing","inputs":[{"name":"epochId","type":"uint256","internalType":"uint256"}],"outputs":[],"stateMutability":"nonpayable"},{"type":"function","name":"currentEpochId","inputs":[],"outputs":[{"name":"","type":"uint256","internalType":"uint256"}],"stateMutability":"view"},{"type":"function","name":"epochDuration","inputs":[],"outputs":[{"name":"","type":"uint256","internalType":"uint256"}],"stateMutability":"view"},{"type":"function","name":"epochs","inputs":[{"name":"","type":"uint256","internalType":"uint256"}],"outputs":[{"name":"id","type":"uint256","internalType":"uint256"},{"name":"startTime","type":"uint256","internalType":"uint256"},{"name":"endTime","type":"uint256","internalType":"uint256"},{"name":"totalYieldAvailable","type":"uint256","internalType":"uint256"},{"name":"totalSubsidiesDistributed","type":"uint256","internalType":"uint256"},{"name":"status","type":"uint8","internalType":"enum EpochManager.EpochStatus"}],"stateMutability":"view"},{"type":"function","name":"finalizeEpoch","inputs":[{"name":"epochId","type":"uint256","internalType":"uint256"},{"name":"subsidiesDistributed","type":"uint256","internalType":"uint256"}],"outputs":[],"stateMutability":"nonpayable"},{"type":"function","name":"getCurrentEpochDetails","inputs":[],"outputs":[{"name":"id","type":"uint256","internalType":"uint256"},{"name":"startTime","type":"uint256","internalType":"uint256"},{"name":"endTime","type":"uint256","internalType":"uint256"},{"name":"totalYieldAvailable","type":"uint256","internalType":"uint256"},{"name":"totalSubsidiesDistributed","type":"uint256","internalType":"uint256"},{"name":"status","type":"uint8","internalType":"enum EpochManager.EpochStatus"}],"stateMutability":"view"},{"type":"function","name":"getCurrentEpochId","inputs":[],"outputs":[{"name":"","type":"uint256","internalType":"uint256"}],"stateMutability":"view"},{"type":"function","name":"getEpoch","inputs":[{"name":"epochId","type":"uint256","internalType":"uint256"}],"outputs":[{"name":"id","type":"uint256","internalType":"uint256"},{"name":"startTime","type":"uint256","internalType":"uint256"},{"name":"endTime","type":"uint256","internalType":"uint256"},{"name":"totalYieldAvailableInEpoch","type":"uint256","internalType":"uint256"},{"name":"totalSubsidiesDistributed","type":"uint256","internalType":"uint256"},{"name":"status","type":"uint8","internalType":"enum EpochManager.EpochStatus"}],"stateMutability":"view"},{"type":"function","name":"getEpochDetails","inputs":[{"name":"epochId","type":"uint256","internalType":"uint256"}],"outputs":[{"name":"id","type":"uint256","internalType":"uint256"},{"name":"startTime","type":"uint256","internalType":"uint256"},{"name":"endTime","type":"uint256","internalType":"uint256"},{"name":"totalYieldAvailable","type":"uint256","internalType":"uint256"},{"name":"totalSubsidiesDistributed","type":"uint256","internalType":"uint256"},{"name":"status","type":"uint8","internalType":"enum EpochManager.EpochStatus"}],"stateMutability":"view"},{"type":"function","name":"getVaultYieldForEpoch","inputs":[{"name":"epochId","type":"uint256","internalType":"uint256"},{"name":"vault","type":"address","internalType":"address"}],"outputs":[{"name":"","type":"uint256","internalType":"uint256"}],"stateMutability":"view"},{"type":"function","name":"owner","inputs":[],"outputs":[{"name":"","type":"address","internalType":"address"}],"stateMutability":"view"},{"type":"function","name":"renounceOwnership","inputs":[],"outputs":[],"stateMutability":"nonpayable"},{"type":"function","name":"setAutomatedSystem","inputs":[{"name":"newAutomatedSystem","type":"address","internalType":"address"}],"outputs":[],"stateMutability":"nonpayable"},{"type":"function","name":"setEpochDuration","inputs":[{"name":"newDuration","type":"uint256","internalType":"uint256"}],"outputs":[],"stateMutability":"nonpayable"},{"type":"function","name":"startNewEpoch","inputs":[],"outputs":[],"stateMutability":"nonpayable"},{"type":"function","name":"transferOwnership","inputs":[{"name":"newOwner","type":"address","internalType":"address"}],"outputs":[],"stateMutability":"nonpayable"},{"type":"event","name":"AutomatedSystemUpdated","inputs":[{"name":"newAutomatedSystem","type":"address","indexed":true,"internalType":"address"}],"anonymous":false},{"type":"event","name":"EpochDurationUpdated","inputs":[{"name":"newDuration","type":"uint256","indexed":false,"internalType":"uint256"}],"anonymous":false},{"type":"event","name":"EpochFinalized","inputs":[{"name":"epochId","type":"uint256","indexed":true,"internalType":"uint256"},{"name":"totalYieldAvailable","type":"uint256","indexed":false,"internalType":"uint256"},{"name":"totalSubsidiesDistributed","type":"uint256","indexed":false,"internalType":"uint256"}],"anonymous":false},{"type":"event","name":"EpochStarted","inputs":[{"name":"epochId","type":"uint256","indexed":true,"internalType":"uint256"},{"name":"startTime","type":"uint256","indexed":false,"internalType":"uint256"},{"name":"endTime","type":"uint256","indexed":false,"internalType":"uint256"}],"anonymous":false},{"type":"event","name":"OwnershipTransferred","inputs":[{"name":"previousOwner","type":"address","indexed":true,"internalType":"address"},{"name":"newOwner","type":"address","indexed":true,"internalType":"address"}],"anonymous":false},{"type":"event","name":"VaultYieldAllocated","inputs":[{"name":"epochId","type":"uint256","indexed":true,"internalType":"uint256"},{"name":"vault","type":"address","indexed":true,"internalType":"address"},{"name":"amount","type":"uint256","indexed":false,"internalType":"uint256"}],"anonymous":false},{"type":"error","name":"EpochManager__EpochNotEnded","inputs":[{"name":"epochId","type":"uint256","internalType":"uint256"},{"name":"endTime","type":"uint256","internalType":"uint256"}]},{"type":"error","name":"EpochManager__EpochStillActive","inputs":[]},{"type":"error","name":"EpochManager__InvalidEpochDuration","inputs":[]},{"type":"error","name":"EpochManager__InvalidEpochId","inputs":[{"name":"epochId","type":"uint256","internalType":"uint256"}]},{"type":"error","name":"EpochManager__InvalidEpochStatus","inputs":[{"name":"epochId","type":"uint256","internalType":"uint256"},{"name":"currentStatus","type":"uint8","internalType":"enum EpochManager.EpochStatus"},{"name":"expectedStatus","type":"uint8","internalType":"enum EpochManager.EpochStatus"}]},{"type":"error","name":"EpochManager__Unauthorized","inputs":[]},{"type":"error","name":"OwnableInvalidOwner","inputs":[{"name":"owner","type":"address","internalType":"address"}]},{"type":"error","name":"OwnableUnauthorizedAccount","inputs":[{"name":"account","type":"address","internalType":"address"}]},{"type":"error","name":"ReentrancyGuardReentrantCall","inputs":[]}],"bytecode":{"object":"0x60803461010d57601f610b4438819003918201601f19168301916001600160401b038311848410176101115780849260609460405283398101031261010d5780519061004d60208201610125565b906001600160a01b039061006390604001610125565b169182156100fa575f80546001600160a01b031981168517825560405194916001600160a01b03909116907f8be0079c531659141344cd1fd0a4f28419497f9722a3daafe3b4186f6b6457e09080a36001805580156100eb57600255600580546001600160a01b0319166001600160a01b0392909216919091179055610a0a908161013a8239f35b63154e957f60e31b5f5260045ffd5b631e4fbdf760e01b5f525f60045260245ffd5b5f80fd5b634e487b7160e01b5f52604160045260245ffd5b51906001600160a01b038216820361010d5756fe6080806040526004361015610012575f80fd5b5f3560e01c9081630c56e48f146108755750806329f4e5ea146107a957806330024dfe146107475780633aab0a62146106115780634ff0876a146105f457806351355ff9146105205780635b72502a146104f85780635c3d7516146102ef578063715018a6146104a15780638da5cb5b1461047a578063a29a839f1461027f578063aa74a00314610410578063b7a36a48146102f4578063bc0bc6ba146102ef578063c6b61e4c1461029c578063eacdc5ff1461027f578063f05ca9141461016b5763f2fde38b146100e2575f80fd5b34610167576020366003190112610167576100fb610904565b61010361098e565b6001600160a01b03168015610154575f80546001600160a01b03198116831782556001600160a01b0316907f8be0079c531659141344cd1fd0a4f28419497f9722a3daafe3b4186f6b6457e09080a3005b631e4fbdf760e01b5f525f60045260245ffd5b5f80fd5b3461016757604036600319011261016757610184610904565b602435906101906109b4565b600354801561026c57805f52600460205260405f209060ff600583015416906004821015610258576001820361023757505060039060018060a01b0383165f526006810160205260405f206101e6858254610981565b9055016101f4838254610981565b90556003546040519283526001600160a01b03909116917f43abc09e3b41a1936d0e8658afafda3e766e0b3867e56c7184b156bc027c35a690602090a360018055005b63da6bfe9560e01b5f5260045261024e91506108c4565b600160445260645ffd5b634e487b7160e01b5f52602160045260245ffd5b63bdd09f9d60e01b5f525f60045260245ffd5b34610167575f366003190112610167576020600354604051908152f35b34610167576020366003190112610167576004355f52600460205260405f2080546102eb600183015492600281015490600381015460ff600560048401549301541692604051968796876108d2565b0390f35b61091a565b34610167576040366003190112610167576004356103106109b4565b6005546001600160a01b0316331415806103fc575b6103ed57801580156103e2575b6103d057805f52600460205260405f20600581019060ff825416600481101561025857600281036103ae57507fb463d19ecf455be65365092cf8e1db6934a0334cf8cd532ddf9964d01f36b5b2916003826004604094019260243584558260ff198254161790550154905482519182526020820152a260018055005b63da6bfe9560e01b5f5260048490526103c6906108c4565b600260445260645ffd5b63bdd09f9d60e01b5f5260045260245ffd5b506003548111610332565b6314d8f44f60e11b5f5260045ffd5b505f546001600160a01b0316331415610325565b34610167576040366003190112610167576024356004356001600160a01b0382168203610167578015801561046f575b6103d0575f526004602052600660405f20019060018060a01b03165f52602052602060405f2054604051908152f35b506003548111610440565b34610167575f366003190112610167575f546040516001600160a01b039091168152602090f35b34610167575f366003190112610167576104b961098e565b5f80546001600160a01b0319811682556001600160a01b03167f8be0079c531659141344cd1fd0a4f28419497f9722a3daafe3b4186f6b6457e08280a3005b34610167575f366003190112610167576005546040516001600160a01b039091168152602090f35b346101675760203660031901126101675760043561053c6109b4565b6005546001600160a01b0316331415806105e0575b6103ed57801580156105d5575b6103d057805f52600460205260405f2090600582019160ff835416600481101561025857600181036105bd575060020154908142106105a857825460ff1916600217835560018055005b636004833d60e11b5f5260045260245260445ffd5b63da6bfe9560e01b5f52600483905261024e906108c4565b50600354811161055e565b505f546001600160a01b0316331415610551565b34610167575f366003190112610167576020600254604051908152f35b34610167575f366003190112610167576106296109b4565b6005546001600160a01b031633141580610733575b6103ed57600354806106e9575b5f1981146106d55760010180600355600561066860025442610981565b91805f52600460205260405f209081554260018201558260028201555f60038201555f600482015501600160ff198254161790557f29db3deb62ef2036e5eb93aad68d2362aec0711af592cb365566603bd88651d46040600354928151904282526020820152a260018055005b634e487b7160e01b5f52601160045260245ffd5b805f52600460205260ff600560405f2001541660048110156102585760038103610713575061064b565b6107299163da6bfe9560e01b5f526004526108c4565b600360445260645ffd5b505f546001600160a01b031633141561063e565b346101675760203660031901126101675760043561076361098e565b801561079a576020817fbfdcfb557a8f4a07f749e7d744a90c02e13eb5af308b561c2f4f17e58069c83692600255604051908152a1005b63154e957f60e31b5f5260045ffd5b34610167576020366003190112610167576107c2610904565b6107ca61098e565b6001600160a01b0316801561081157600580546001600160a01b031916821790557f1c6fe769a20f866bfd0db3e537f5c2c5f9854d28104cc67eec39b10b360860ee5f80a2005b60405162461bcd60e51b815260206004820152603660248201527f45706f63684d616e616765723a204175746f6d617465642073797374656d206160448201527532323932b9b99031b0b73737ba103132903d32b9379760511b6064820152608490fd5b34610167575f36600319011261016757600354801561026c575f526004602052806102eb60405f208054906001810154600282015460038301549160ff600560048601549501541694876108d2565b600481101561025857602452565b939196959492909660c08501978552602085015260408401526060830152608082015260048210156102585760a00152565b600435906001600160a01b038216820361016757565b346101675760203660031901126101675760043580158015610976575b6103d0575f52600460205260405f2080546102eb600183015492600281015490600381015460ff600560048401549301541692604051968796876108d2565b506003548111610937565b919082018092116106d557565b5f546001600160a01b031633036109a157565b63118cdaa760e01b5f523360045260245ffd5b6002600154146109c5576002600155565b633ee5aeb560e01b5f5260045ffdfea2646970667358221220021b63ba2c02668a70ca6366088e74669d373ff65df08789ee6280af6265e9d864736f6c634300081e0033","linkReferences":{}},"methodIdentifiers":{"allocateVaultYield(address,uint256)":"f05ca914","automatedSystem()":"5b72502a","beginEpochProcessing(uint256)":"51355ff9","currentEpochId()":"eacdc5ff","epochDuration()":"4ff0876a","epochs(uint256)":"c6b61e4c","finalizeEpoch(uint256,uint256)":"b7a36a48","getCurrentEpochDetails()":"0c56e48f","getCurrentEpochId()":"a29a839f","getEpoch(uint256)":"bc0bc6ba","getEpochDetails(uint256)":"5c3d7516","getVaultYieldForEpoch(uint256,address)":"aa74a003","owner()":"8da5cb5b","renounceOwnership()":"715018a6","setAutomatedSystem(address)":"29f4e5ea","setEpochDuration(uint256)":"30024dfe","startNewEpoch()":"3aab0a62","transferOwnership(address)":"f2fde38b"},"id":81}