{"abi":[{"type":"constructor","inputs":[{"name":"_initialEpochDuration","type":"uint256","internalType":"uint256"},{"name":"_initialAutomatedSystem","type":"address","internalType":"address"},{"name":"_initialOwner","type":"address","internalType":"address"}],"stateMutability":"nonpayable"},{"type":"function","name":"DEFAULT_ADMIN_ROLE","inputs":[],"outputs":[{"name":"","type":"bytes32","internalType":"bytes32"}],"stateMutability":"view"},{"type":"function","name":"VAULT_ROLE","inputs":[],"outputs":[{"name":"","type":"bytes32","internalType":"bytes32"}],"stateMutability":"view"},{"type":"function","name":"allocateVaultYield","inputs":[{"name":"vault","type":"address","internalType":"address"},{"name":"amount","type":"uint256","internalType":"uint256"}],"outputs":[],"stateMutability":"nonpayable"},{"type":"function","name":"automatedSystem","inputs":[],"outputs":[{"name":"","type":"address","internalType":"address"}],"stateMutability":"view"},{"type":"function","name":"beginEpochProcessing","inputs":[{"name":"epochId","type":"uint256","internalType":"uint256"}],"outputs":[],"stateMutability":"nonpayable"},{"type":"function","name":"beginEpochProcessingWithMetrics","inputs":[{"name":"epochId","type":"uint256","internalType":"uint256"},{"name":"participantCount","type":"uint256","internalType":"uint256"},{"name":"estimatedProcessingTime","type":"uint256","internalType":"uint256"}],"outputs":[],"stateMutability":"nonpayable"},{"type":"function","name":"currentEpochId","inputs":[],"outputs":[{"name":"","type":"uint256","internalType":"uint256"}],"stateMutability":"view"},{"type":"function","name":"epochDuration","inputs":[],"outputs":[{"name":"","type":"uint256","internalType":"uint256"}],"stateMutability":"view"},{"type":"function","name":"epochs","inputs":[{"name":"","type":"uint256","internalType":"uint256"}],"outputs":[{"name":"id","type":"uint256","internalType":"uint256"},{"name":"startTime","type":"uint256","internalType":"uint256"},{"name":"endTime","type":"uint256","internalType":"uint256"},{"name":"totalYieldAvailable","type":"uint256","internalType":"uint256"},{"name":"totalSubsidiesDistributed","type":"uint256","internalType":"uint256"},{"name":"status","type":"uint8","internalType":"enum EpochManager.EpochStatus"}],"stateMutability":"view"},{"type":"function","name":"finalizeEpoch","inputs":[{"name":"epochId","type":"uint256","internalType":"uint256"},{"name":"subsidiesDistributed","type":"uint256","internalType":"uint256"}],"outputs":[],"stateMutability":"nonpayable"},{"type":"function","name":"finalizeEpochWithMetrics","inputs":[{"name":"epochId","type":"uint256","internalType":"uint256"},{"name":"subsidiesDistributed","type":"uint256","internalType":"uint256"},{"name":"processingTimeMs","type":"uint256","internalType":"uint256"}],"outputs":[],"stateMutability":"nonpayable"},{"type":"function","name":"getCurrentEpochDetails","inputs":[],"outputs":[{"name":"id","type":"uint256","internalType":"uint256"},{"name":"startTime","type":"uint256","internalType":"uint256"},{"name":"endTime","type":"uint256","internalType":"uint256"},{"name":"totalYieldAvailable","type":"uint256","internalType":"uint256"},{"name":"totalSubsidiesDistributed","type":"uint256","internalType":"uint256"},{"name":"status","type":"uint8","internalType":"enum EpochManager.EpochStatus"}],"stateMutability":"view"},{"type":"function","name":"getCurrentEpochId","inputs":[],"outputs":[{"name":"","type":"uint256","internalType":"uint256"}],"stateMutability":"view"},{"type":"function","name":"getEpoch","inputs":[{"name":"epochId","type":"uint256","internalType":"uint256"}],"outputs":[{"name":"id","type":"uint256","internalType":"uint256"},{"name":"startTime","type":"uint256","internalType":"uint256"},{"name":"endTime","type":"uint256","internalType":"uint256"},{"name":"totalYieldAvailableInEpoch","type":"uint256","internalType":"uint256"},{"name":"totalSubsidiesDistributed","type":"uint256","internalType":"uint256"},{"name":"status","type":"uint8","internalType":"enum EpochManager.EpochStatus"}],"stateMutability":"view"},{"type":"function","name":"getEpochDetails","inputs":[{"name":"epochId","type":"uint256","internalType":"uint256"}],"outputs":[{"name":"id","type":"uint256","internalType":"uint256"},{"name":"startTime","type":"uint256","internalType":"uint256"},{"name":"endTime","type":"uint256","internalType":"uint256"},{"name":"totalYieldAvailable","type":"uint256","internalType":"uint256"},{"name":"totalSubsidiesDistributed","type":"uint256","internalType":"uint256"},{"name":"status","type":"uint8","internalType":"enum EpochManager.EpochStatus"}],"stateMutability":"view"},{"type":"function","name":"getRoleAdmin","inputs":[{"name":"role","type":"bytes32","internalType":"bytes32"}],"outputs":[{"name":"","type":"bytes32","internalType":"bytes32"}],"stateMutability":"view"},{"type":"function","name":"getVaultYieldForEpoch","inputs":[{"name":"epochId","type":"uint256","internalType":"uint256"},{"name":"vault","type":"address","internalType":"address"}],"outputs":[{"name":"","type":"uint256","internalType":"uint256"}],"stateMutability":"view"},{"type":"function","name":"grantRole","inputs":[{"name":"role","type":"bytes32","internalType":"bytes32"},{"name":"account","type":"address","internalType":"address"}],"outputs":[],"stateMutability":"nonpayable"},{"type":"function","name":"grantVaultRole","inputs":[{"name":"vault","type":"address","internalType":"address"}],"outputs":[],"stateMutability":"nonpayable"},{"type":"function","name":"hasRole","inputs":[{"name":"role","type":"bytes32","internalType":"bytes32"},{"name":"account","type":"address","internalType":"address"}],"outputs":[{"name":"","type":"bool","internalType":"bool"}],"stateMutability":"view"},{"type":"function","name":"markEpochFailed","inputs":[{"name":"epochId","type":"uint256","internalType":"uint256"},{"name":"reason","type":"string","internalType":"string"}],"outputs":[],"stateMutability":"nonpayable"},{"type":"function","name":"owner","inputs":[],"outputs":[{"name":"","type":"address","internalType":"address"}],"stateMutability":"view"},{"type":"function","name":"renounceOwnership","inputs":[],"outputs":[],"stateMutability":"nonpayable"},{"type":"function","name":"renounceRole","inputs":[{"name":"role","type":"bytes32","internalType":"bytes32"},{"name":"callerConfirmation","type":"address","internalType":"address"}],"outputs":[],"stateMutability":"nonpayable"},{"type":"function","name":"revokeRole","inputs":[{"name":"role","type":"bytes32","internalType":"bytes32"},{"name":"account","type":"address","internalType":"address"}],"outputs":[],"stateMutability":"nonpayable"},{"type":"function","name":"revokeVaultRole","inputs":[{"name":"vault","type":"address","internalType":"address"}],"outputs":[],"stateMutability":"nonpayable"},{"type":"function","name":"setAutomatedSystem","inputs":[{"name":"newAutomatedSystem","type":"address","internalType":"address"}],"outputs":[],"stateMutability":"nonpayable"},{"type":"function","name":"setEpochDuration","inputs":[{"name":"newDuration","type":"uint256","internalType":"uint256"}],"outputs":[],"stateMutability":"nonpayable"},{"type":"function","name":"startNewEpoch","inputs":[],"outputs":[],"stateMutability":"nonpayable"},{"type":"function","name":"startNewEpochWithParticipants","inputs":[{"name":"participantCount","type":"uint256","internalType":"uint256"}],"outputs":[],"stateMutability":"nonpayable"},{"type":"function","name":"supportsInterface","inputs":[{"name":"interfaceId","type":"bytes4","internalType":"bytes4"}],"outputs":[{"name":"","type":"bool","internalType":"bool"}],"stateMutability":"view"},{"type":"function","name":"transferOwnership","inputs":[{"name":"newOwner","type":"address","internalType":"address"}],"outputs":[],"stateMutability":"nonpayable"},{"type":"event","name":"AutomatedSystemUpdated","inputs":[{"name":"newAutomatedSystem","type":"address","indexed":true,"internalType":"address"}],"anonymous":false},{"type":"event","name":"EpochDurationUpdated","inputs":[{"name":"newDuration","type":"uint256","indexed":false,"internalType":"uint256"}],"anonymous":false},{"type":"event","name":"EpochFailed","inputs":[{"name":"epochId","type":"uint256","indexed":true,"internalType":"uint256"},{"name":"reason","type":"string","indexed":false,"internalType":"string"}],"anonymous":false},{"type":"event","name":"EpochFinalized","inputs":[{"name":"epochId","type":"uint256","indexed":true,"internalType":"uint256"},{"name":"totalYieldAvailable","type":"uint256","indexed":false,"internalType":"uint256"},{"name":"totalSubsidiesDistributed","type":"uint256","indexed":false,"internalType":"uint256"}],"anonymous":false},{"type":"event","name":"EpochFinalizedWithMetrics","inputs":[{"name":"epochId","type":"uint256","indexed":true,"internalType":"uint256"},{"name":"totalYieldAvailable","type":"uint256","indexed":false,"internalType":"uint256"},{"name":"totalSubsidiesDistributed","type":"uint256","indexed":false,"internalType":"uint256"},{"name":"processingTimeMs","type":"uint256","indexed":false,"internalType":"uint256"}],"anonymous":false},{"type":"event","name":"EpochManagerRoleGranted","inputs":[{"name":"role","type":"bytes32","indexed":true,"internalType":"bytes32"},{"name":"account","type":"address","indexed":true,"internalType":"address"},{"name":"sender","type":"address","indexed":false,"internalType":"address"},{"name":"timestamp","type":"uint256","indexed":false,"internalType":"uint256"}],"anonymous":false},{"type":"event","name":"EpochManagerRoleRevoked","inputs":[{"name":"role","type":"bytes32","indexed":true,"internalType":"bytes32"},{"name":"account","type":"address","indexed":true,"internalType":"address"},{"name":"sender","type":"address","indexed":false,"internalType":"address"},{"name":"timestamp","type":"uint256","indexed":false,"internalType":"uint256"}],"anonymous":false},{"type":"event","name":"EpochProcessingStarted","inputs":[{"name":"epochId","type":"uint256","indexed":true,"internalType":"uint256"}],"anonymous":false},{"type":"event","name":"EpochProcessingStartedWithMetrics","inputs":[{"name":"epochId","type":"uint256","indexed":true,"internalType":"uint256"},{"name":"participantCount","type":"uint256","indexed":false,"internalType":"uint256"},{"name":"estimatedProcessingTime","type":"uint256","indexed":false,"internalType":"uint256"}],"anonymous":false},{"type":"event","name":"EpochStarted","inputs":[{"name":"epochId","type":"uint256","indexed":true,"internalType":"uint256"},{"name":"startTime","type":"uint256","indexed":false,"internalType":"uint256"},{"name":"endTime","type":"uint256","indexed":false,"internalType":"uint256"}],"anonymous":false},{"type":"event","name":"EpochStartedWithParticipants","inputs":[{"name":"epochId","type":"uint256","indexed":true,"internalType":"uint256"},{"name":"startTime","type":"uint256","indexed":false,"internalType":"uint256"},{"name":"endTime","type":"uint256","indexed":false,"internalType":"uint256"},{"name":"participantCount","type":"uint256","indexed":false,"internalType":"uint256"}],"anonymous":false},{"type":"event","name":"OwnershipTransferred","inputs":[{"name":"previousOwner","type":"address","indexed":true,"internalType":"address"},{"name":"newOwner","type":"address","indexed":true,"internalType":"address"}],"anonymous":false},{"type":"event","name":"ProcessingFailed","inputs":[{"name":"epochId","type":"uint256","indexed":true,"internalType":"uint256"},{"name":"reason","type":"string","indexed":false,"internalType":"string"}],"anonymous":false},{"type":"event","name":"ProcessingStarted","inputs":[{"name":"epochId","type":"uint256","indexed":true,"internalType":"uint256"}],"anonymous":false},{"type":"event","name":"RoleAdminChanged","inputs":[{"name":"role","type":"bytes32","indexed":true,"internalType":"bytes32"},{"name":"previousAdminRole","type":"bytes32","indexed":true,"internalType":"bytes32"},{"name":"newAdminRole","type":"bytes32","indexed":true,"internalType":"bytes32"}],"anonymous":false},{"type":"event","name":"RoleGranted","inputs":[{"name":"role","type":"bytes32","indexed":true,"internalType":"bytes32"},{"name":"account","type":"address","indexed":true,"internalType":"address"},{"name":"sender","type":"address","indexed":true,"internalType":"address"}],"anonymous":false},{"type":"event","name":"RoleRevoked","inputs":[{"name":"role","type":"bytes32","indexed":true,"internalType":"bytes32"},{"name":"account","type":"address","indexed":true,"internalType":"address"},{"name":"sender","type":"address","indexed":true,"internalType":"address"}],"anonymous":false},{"type":"event","name":"VaultYieldAllocated","inputs":[{"name":"epochId","type":"uint256","indexed":true,"internalType":"uint256"},{"name":"vault","type":"address","indexed":true,"internalType":"address"},{"name":"amount","type":"uint256","indexed":false,"internalType":"uint256"}],"anonymous":false},{"type":"error","name":"AccessControlBadConfirmation","inputs":[]},{"type":"error","name":"AccessControlUnauthorizedAccount","inputs":[{"name":"account","type":"address","internalType":"address"},{"name":"neededRole","type":"bytes32","internalType":"bytes32"}]},{"type":"error","name":"EpochManager__EpochNotEnded","inputs":[{"name":"epochId","type":"uint256","internalType":"uint256"},{"name":"endTime","type":"uint256","internalType":"uint256"}]},{"type":"error","name":"EpochManager__EpochStillActive","inputs":[]},{"type":"error","name":"EpochManager__InvalidEpochDuration","inputs":[]},{"type":"error","name":"EpochManager__InvalidEpochId","inputs":[{"name":"epochId","type":"uint256","internalType":"uint256"}]},{"type":"error","name":"EpochManager__InvalidEpochStatus","inputs":[{"name":"epochId","type":"uint256","internalType":"uint256"},{"name":"currentStatus","type":"uint8","internalType":"enum EpochManager.EpochStatus"},{"name":"expectedStatus","type":"uint8","internalType":"enum EpochManager.EpochStatus"}]},{"type":"error","name":"EpochManager__Unauthorized","inputs":[]},{"type":"error","name":"OwnableInvalidOwner","inputs":[{"name":"owner","type":"address","internalType":"address"}]},{"type":"error","name":"OwnableUnauthorizedAccount","inputs":[{"name":"account","type":"address","internalType":"address"}]},{"type":"error","name":"ReentrancyGuardReentrantCall","inputs":[]}],"bytecode":{"object":"0x60803461011557601f61194438819003918201601f19168301916001600160401b03831184841017610119578084926060946040528339810103126101155780519061005960406100526020840161012d565b920161012d565b906001600160a01b0382168015610102575f80546001600160a01b03198116831782556001600160a01b0316907f8be0079c531659141344cd1fd0a4f28419497f9722a3daafe3b4186f6b6457e09080a3600160025582156100f3576100e39260035560018060a01b031660018060a01b031960065416176006556100dd81610141565b506101b7565b50604051611699908161024b8239f35b63154e957f60e31b5f5260045ffd5b631e4fbdf760e01b5f525f60045260245ffd5b5f80fd5b634e487b7160e01b5f52604160045260245ffd5b51906001600160a01b038216820361011557565b6001600160a01b0381165f9081525f5160206119045f395f51905f52602052604090205460ff166101b2576001600160a01b03165f8181525f5160206119045f395f51905f5260205260408120805460ff191660011790553391905f5160206118e45f395f51905f528180a4600190565b505f90565b6001600160a01b0381165f9081525f5160206119245f395f51905f52602052604090205460ff166101b2576001600160a01b03165f8181525f5160206119245f395f51905f5260205260408120805460ff191660011790553391907f31e0210044b4f6757ce6aa31f9c6e8d4896d24a755014887391a926c5224d959905f5160206118e45f395f51905f529080a460019056fe6080806040526004361015610012575f80fd5b5f3560e01c90816301ffc9a7146111d6575080630c56e48f14611182578063248a9ca31461114f5780632637f6f214610fd757806329f4e5ea14610f0b5780632f2ff15d14610ecd57806330024dfe14610e6b57806336568abe14610e275780633aab0a6214610cf05780634fe3d97014610c715780634ff0876a14610c5457806351355ff914610b3657806351e1382d146109ec5780635b72502a146109c45780635c3d7516146105745780636069894314610944578063715018a6146108ed578063780e52d91461078e5780638da5cb5b1461076757806391d148541461071e57806398c4f1ac146106f7578063a217fddf146106dd578063a29a839f146104bf578063aa74a0031461067d578063b7a36a4814610579578063bc0bc6ba14610574578063c6b61e4c14610521578063d547741f146104dc578063eacdc5ff146104bf578063f05ca91414610377578063f2fde38b146102f25763fca5c0a21461017c575f80fd5b346102ee5761018a36611295565b9061019361136c565b6006546001600160a01b0316331415806102da575b6102cb57821580156102c0575b6102ad57825f52600560205260405f206005810160ff81541660058110156102995760028103610277575060038261026d9260047fda401393db992e9697b237e0c220d1b7db38df44b98ad541aa271459a87223c6979695019485558260ff198254161790550154915492857fb463d19ecf455be65365092cf8e1db6934a0334cf8cd532ddf9964d01f36b5b260408051868152876020820152a2604051938493846040919493926060820195825260208201520152565b0390a26001600255005b63da6bfe9560e01b5f52600486905261028f90611229565b600260445260645ffd5b634e487b7160e01b5f52602160045260245ffd5b8263bdd09f9d60e01b5f5260045260245ffd5b5060045483116101b5565b6314d8f44f60e11b5f5260045ffd5b505f546001600160a01b03163314156101a8565b5f80fd5b346102ee5760203660031901126102ee5761030b611269565b61031361138a565b6001600160a01b03168015610364575f80546001600160a01b03198116831782556001600160a01b0316907f8be0079c531659141344cd1fd0a4f28419497f9722a3daafe3b4186f6b6457e09080a3005b631e4fbdf760e01b5f525f60045260245ffd5b346102ee5760403660031901126102ee57610390611269565b6024359061039c61136c565b335f9081525f5160206116245f395f51905f52602052604090205460ff161561049b57600454801561048857805f52600560205260405f209060ff600583015416906005821015610299576001820361046757505060039060018060a01b0383165f526006810160205260405f2061041585825461135f565b90550161042383825461135f565b90556004546040519283526001600160a01b03909116917f43abc09e3b41a1936d0e8658afafda3e766e0b3867e56c7184b156bc027c35a690602090a36001600255005b63da6bfe9560e01b5f5260045261047e9150611229565b600160445260645ffd5b63bdd09f9d60e01b5f525f60045260245ffd5b63e2517d3f60e01b5f52336004525f5160206116445f395f51905f5260245260445ffd5b346102ee575f3660031901126102ee576020600454604051908152f35b346102ee5760403660031901126102ee5761051f6004356104fb61127f565b9061051a610515825f526001602052600160405f20015490565b6113b0565b61159f565b005b346102ee5760203660031901126102ee576004355f52600560205260405f208054610570600183015492600281015490600381015460ff60056004840154930154169260405196879687611237565b0390f35b6112af565b346102ee5760403660031901126102ee5760043561059561136c565b6006546001600160a01b031633141580610669575b6102cb578015801561065e575b61064c57805f52600560205260405f20600581019060ff8254166005811015610299576002810361063457507fb463d19ecf455be65365092cf8e1db6934a0334cf8cd532ddf9964d01f36b5b2916003826004604094019260243584558260ff198254161790550154905482519182526020820152a26001600255005b63da6bfe9560e01b5f52600484905261028f90611229565b63bdd09f9d60e01b5f5260045260245ffd5b5060045481116105b7565b505f546001600160a01b03163314156105aa565b346102ee5760403660031901126102ee5760043561069961127f565b90801580156106d2575b61064c575f526005602052600660405f20019060018060a01b03165f52602052602060405f2054604051908152f35b5060045481116106a3565b346102ee575f3660031901126102ee5760206040515f8152f35b346102ee575f3660031901126102ee5760206040515f5160206116445f395f51905f528152f35b346102ee5760403660031901126102ee5761073761127f565b6004355f52600160205260405f209060018060a01b03165f52602052602060ff60405f2054166040519015158152f35b346102ee575f3660031901126102ee575f546040516001600160a01b039091168152602090f35b346102ee5760203660031901126102ee576107a761136c565b6006546001600160a01b0316331415806108d9575b6102cb576004548061088f575b6107d29061133d565b8060045560056107e46003544261135f565b91805f528160205260405f209081554260018201558260028201555f60038201555f600482015501600160ff198254161790557f11dce3badb7af5d5f3948c18a008df426ff326e7abd6fe2d956d4c4e53cb98c661026d60045492837f29db3deb62ef2036e5eb93aad68d2362aec0711af592cb365566603bd88651d460408051428152846020820152a2604080514281526020810192909252600435908201529081906060820190565b805f52600560205260ff600560405f20015416600581101561029957600381036108b957506107c9565b6108cf9163da6bfe9560e01b5f52600452611229565b600360445260645ffd5b505f546001600160a01b03163314156107bc565b346102ee575f3660031901126102ee5761090561138a565b5f80546001600160a01b0319811682556001600160a01b03167f8be0079c531659141344cd1fd0a4f28419497f9722a3daafe3b4186f6b6457e08280a3005b346102ee5760203660031901126102ee5761095d611269565b61096561138a565b61096e816113ea565b50604080513381524260208201526001600160a01b03909216915f5160206116445f395f51905f52917fa9ce8d9a5924503cb194bdc659746847be655093608d351ad0377212e74be17f9190819081015b0390a3005b346102ee575f3660031901126102ee576006546040516001600160a01b039091168152602090f35b346102ee576109fa36611295565b610a0261136c565b6006546001600160a01b031633141580610b22575b6102cb5782158015610b17575b6102ad57825f52600560205260405f20600581019060ff82541660058110156102995760018103610aff575060020154804210610ae95750916040917f93d48e5ccc2eb73a01eff09327c86fa32b5ea5486cd768fe878da203aa5c7d0493600260ff19825416179055825191857fae58a33f8b8d696bcbaca9fa29d9fdc336c140e982196c2580db3d46f3e6d4b65f80a2857f75a8523867c48ca7db28d86f271a6a404d3af97cbc92076bab2107dcb0a1bfd95f80a282526020820152a26001600255005b84636004833d60e11b5f5260045260245260445ffd5b63da6bfe9560e01b5f52600486905261047e90611229565b506004548311610a24565b505f546001600160a01b0316331415610a17565b346102ee5760203660031901126102ee57600435610b5261136c565b6006546001600160a01b031633141580610c40575b6102cb5780158015610c35575b61064c57805f52600560205260405f20600581019060ff82541660058110156102995760018103610c1d575060020154804210610c075750805460ff19166002179055807fae58a33f8b8d696bcbaca9fa29d9fdc336c140e982196c2580db3d46f3e6d4b65f80a27f75a8523867c48ca7db28d86f271a6a404d3af97cbc92076bab2107dcb0a1bfd95f80a26001600255005b82636004833d60e11b5f5260045260245260445ffd5b63da6bfe9560e01b5f52600484905261047e90611229565b506004548111610b74565b505f546001600160a01b0316331415610b67565b346102ee575f3660031901126102ee576020600354604051908152f35b346102ee5760203660031901126102ee57610c8a611269565b610c9261138a565b610c9b8161150e565b50604080513381524260208201526001600160a01b03909216915f5160206116445f395f51905f52917f0cf20e4d6af4375ca0e50ca022b728f9d30eca59d9ca69343017b6fa697eec979190819081016109bf565b346102ee575f3660031901126102ee57610d0861136c565b6006546001600160a01b031633141580610e13575b6102cb5760045480610de9575b610d339061133d565b806004556005610d456003544261135f565b91805f528160205260405f209081554260018201558260028201555f60038201555f600482015501600160ff198254161790557f11dce3badb7af5d5f3948c18a008df426ff326e7abd6fe2d956d4c4e53cb98c6606060045492837f29db3deb62ef2036e5eb93aad68d2362aec0711af592cb365566603bd88651d460408051428152846020820152a26040519042825260208201525f6040820152a26001600255005b805f52600560205260ff600560405f20015416600581101561029957600381036108b95750610d2a565b505f546001600160a01b0316331415610d1d565b346102ee5760403660031901126102ee57610e4061127f565b336001600160a01b03821603610e5c5761051f9060043561159f565b63334bd91960e11b5f5260045ffd5b346102ee5760203660031901126102ee57600435610e8761138a565b8015610ebe576020817fbfdcfb557a8f4a07f749e7d744a90c02e13eb5af308b561c2f4f17e58069c83692600355604051908152a1005b63154e957f60e31b5f5260045ffd5b346102ee5760403660031901126102ee5761051f600435610eec61127f565b90610f06610515825f526001602052600160405f20015490565b611482565b346102ee5760203660031901126102ee57610f24611269565b610f2c61138a565b6001600160a01b03168015610f7357600680546001600160a01b031916821790557f1c6fe769a20f866bfd0db3e537f5c2c5f9854d28104cc67eec39b10b360860ee5f80a2005b60405162461bcd60e51b815260206004820152603660248201527f45706f63684d616e616765723a204175746f6d617465642073797374656d206160448201527532323932b9b99031b0b73737ba103132903d32b9379760511b6064820152608490fd5b346102ee5760403660031901126102ee5760243560043567ffffffffffffffff82116102ee57366023830112156102ee57816004013567ffffffffffffffff81116102ee57602483019260248236920101116102ee5761103561136c565b6006546001600160a01b03163314158061113b575b6102cb5781158015611130575b61111d57815f526005602052600560405f20019260ff84541693600585101561029957600385148015611113575b6110fb577f64e7740f8adc21deadf06924e63ba196d70b963211a36b99cdbef21053e62dab939450600460ff19825416179055837f7cf30edcca36e247d8d01019c76b75ba9739ca0d172cdc8ad50eba5e0e151c62604051806110e9868683611316565b0390a261026d60405192839283611316565b63da6bfe9560e01b5f52600484905261047e85611229565b5060048514611085565b5063bdd09f9d60e01b5f5260045260245ffd5b506004548211611057565b505f546001600160a01b031633141561104a565b346102ee5760203660031901126102ee57602061117a6004355f526001602052600160405f20015490565b604051908152f35b346102ee575f3660031901126102ee576004548015610488575f52600560205260405f208054610570600183015492600281015490600381015460ff60056004840154930154169260405196879687611237565b346102ee5760203660031901126102ee576004359063ffffffff60e01b82168092036102ee57602091637965db0b60e01b8114908115611218575b5015158152f35b6301ffc9a760e01b14905083611211565b600581101561029957602452565b939196959492909660c08501978552602085015260408401526060830152608082015260058210156102995760a00152565b600435906001600160a01b03821682036102ee57565b602435906001600160a01b03821682036102ee57565b60609060031901126102ee57600435906024359060443590565b346102ee5760203660031901126102ee576004358015801561130b575b61064c575f52600560205260405f208054610570600183015492600281015490600381015460ff60056004840154930154169260405196879687611237565b5060045481116112cc565b90918060409360208452816020850152848401375f828201840152601f01601f1916010190565b5f19811461134b5760010190565b634e487b7160e01b5f52601160045260245ffd5b9190820180921161134b57565b600280541461137b5760028055565b633ee5aeb560e01b5f5260045ffd5b5f546001600160a01b0316330361139d57565b63118cdaa760e01b5f523360045260245ffd5b5f81815260016020908152604080832033845290915290205460ff16156113d45750565b63e2517d3f60e01b5f523360045260245260445ffd5b6001600160a01b0381165f9081525f5160206116245f395f51905f52602052604090205460ff1661147d576001600160a01b03165f8181525f5160206116245f395f51905f5260205260408120805460ff191660011790553391905f5160206116445f395f51905f52907f2f8788117e7eff1d82e926ec794901d17c78024a50270940304540a733656f0d9080a4600190565b505f90565b5f8181526001602090815260408083206001600160a01b038616845290915290205460ff16611508575f8181526001602081815260408084206001600160a01b0396909616808552959091528220805460ff19169091179055339291907f2f8788117e7eff1d82e926ec794901d17c78024a50270940304540a733656f0d9080a4600190565b50505f90565b6001600160a01b0381165f9081525f5160206116245f395f51905f52602052604090205460ff161561147d576001600160a01b03165f8181525f5160206116245f395f51905f5260205260408120805460ff191690553391905f5160206116445f395f51905f52907ff6391f5c32d9c69d2a47ea670b442974b53935d1edc7fd64eb21e047a839171b9080a4600190565b5f8181526001602090815260408083206001600160a01b038616845290915290205460ff1615611508575f8181526001602090815260408083206001600160a01b0395909516808452949091528120805460ff19169055339291907ff6391f5c32d9c69d2a47ea670b442974b53935d1edc7fd64eb21e047a839171b9080a460019056fe81ca3e78767fe7984cabec333f0414457dbe87b59d50ac066de98618b846bf8131e0210044b4f6757ce6aa31f9c6e8d4896d24a755014887391a926c5224d959a264697066735822122055240f10bb359e81a6a38beb6e13fce27d441fcbef732dab7cda28728675e8d664736f6c634300081e00332f8788117e7eff1d82e926ec794901d17c78024a50270940304540a733656f0da6eef7e35abe7026729641147f7915573c7e97b47efa546f5f6e3230263bcb4981ca3e78767fe7984cabec333f0414457dbe87b59d50ac066de98618b846bf81","linkReferences":{}},"methodIdentifiers":{"DEFAULT_ADMIN_ROLE()":"a217fddf","VAULT_ROLE()":"98c4f1ac","allocateVaultYield(address,uint256)":"f05ca914","automatedSystem()":"5b72502a","beginEpochProcessing(uint256)":"51355ff9","beginEpochProcessingWithMetrics(uint256,uint256,uint256)":"51e1382d","currentEpochId()":"eacdc5ff","epochDuration()":"4ff0876a","epochs(uint256)":"c6b61e4c","finalizeEpoch(uint256,uint256)":"b7a36a48","finalizeEpochWithMetrics(uint256,uint256,uint256)":"fca5c0a2","getCurrentEpochDetails()":"0c56e48f","getCurrentEpochId()":"a29a839f","getEpoch(uint256)":"bc0bc6ba","getEpochDetails(uint256)":"5c3d7516","getRoleAdmin(bytes32)":"248a9ca3","getVaultYieldForEpoch(uint256,address)":"aa74a003","grantRole(bytes32,address)":"2f2ff15d","grantVaultRole(address)":"60698943","hasRole(bytes32,address)":"91d14854","markEpochFailed(uint256,string)":"2637f6f2","owner()":"8da5cb5b","renounceOwnership()":"715018a6","renounceRole(bytes32,address)":"36568abe","revokeRole(bytes32,address)":"d547741f","revokeVaultRole(address)":"4fe3d970","setAutomatedSystem(address)":"29f4e5ea","setEpochDuration(uint256)":"30024dfe","startNewEpoch()":"3aab0a62","startNewEpochWithParticipants(uint256)":"780e52d9","supportsInterface(bytes4)":"01ffc9a7","transferOwnership(address)":"f2fde38b"},"id":85}