{"abi":[{"type":"constructor","inputs":[{"name":"_initialEpochDuration","type":"uint256","internalType":"uint256"},{"name":"_initialAutomatedSystem","type":"address","internalType":"address"},{"name":"_initialOwner","type":"address","internalType":"address"}],"stateMutability":"nonpayable"},{"type":"function","name":"DEFAULT_ADMIN_ROLE","inputs":[],"outputs":[{"name":"","type":"bytes32","internalType":"bytes32"}],"stateMutability":"view"},{"type":"function","name":"VAULT_ROLE","inputs":[],"outputs":[{"name":"","type":"bytes32","internalType":"bytes32"}],"stateMutability":"view"},{"type":"function","name":"allocateVaultYield","inputs":[{"name":"vault","type":"address","internalType":"address"},{"name":"amount","type":"uint256","internalType":"uint256"}],"outputs":[],"stateMutability":"nonpayable"},{"type":"function","name":"automatedSystem","inputs":[],"outputs":[{"name":"","type":"address","internalType":"address"}],"stateMutability":"view"},{"type":"function","name":"beginEpochProcessing","inputs":[{"name":"epochId","type":"uint256","internalType":"uint256"}],"outputs":[],"stateMutability":"nonpayable"},{"type":"function","name":"currentEpochId","inputs":[],"outputs":[{"name":"","type":"uint256","internalType":"uint256"}],"stateMutability":"view"},{"type":"function","name":"epochDuration","inputs":[],"outputs":[{"name":"","type":"uint256","internalType":"uint256"}],"stateMutability":"view"},{"type":"function","name":"epochs","inputs":[{"name":"","type":"uint256","internalType":"uint256"}],"outputs":[{"name":"id","type":"uint256","internalType":"uint256"},{"name":"startTime","type":"uint256","internalType":"uint256"},{"name":"endTime","type":"uint256","internalType":"uint256"},{"name":"totalYieldAvailable","type":"uint256","internalType":"uint256"},{"name":"totalSubsidiesDistributed","type":"uint256","internalType":"uint256"},{"name":"status","type":"uint8","internalType":"enum EpochManager.EpochStatus"}],"stateMutability":"view"},{"type":"function","name":"finalizeEpoch","inputs":[{"name":"epochId","type":"uint256","internalType":"uint256"},{"name":"subsidiesDistributed","type":"uint256","internalType":"uint256"}],"outputs":[],"stateMutability":"nonpayable"},{"type":"function","name":"getCurrentEpochDetails","inputs":[],"outputs":[{"name":"id","type":"uint256","internalType":"uint256"},{"name":"startTime","type":"uint256","internalType":"uint256"},{"name":"endTime","type":"uint256","internalType":"uint256"},{"name":"totalYieldAvailable","type":"uint256","internalType":"uint256"},{"name":"totalSubsidiesDistributed","type":"uint256","internalType":"uint256"},{"name":"status","type":"uint8","internalType":"enum EpochManager.EpochStatus"}],"stateMutability":"view"},{"type":"function","name":"getCurrentEpochId","inputs":[],"outputs":[{"name":"","type":"uint256","internalType":"uint256"}],"stateMutability":"view"},{"type":"function","name":"getEpoch","inputs":[{"name":"epochId","type":"uint256","internalType":"uint256"}],"outputs":[{"name":"id","type":"uint256","internalType":"uint256"},{"name":"startTime","type":"uint256","internalType":"uint256"},{"name":"endTime","type":"uint256","internalType":"uint256"},{"name":"totalYieldAvailableInEpoch","type":"uint256","internalType":"uint256"},{"name":"totalSubsidiesDistributed","type":"uint256","internalType":"uint256"},{"name":"status","type":"uint8","internalType":"enum EpochManager.EpochStatus"}],"stateMutability":"view"},{"type":"function","name":"getEpochDetails","inputs":[{"name":"epochId","type":"uint256","internalType":"uint256"}],"outputs":[{"name":"id","type":"uint256","internalType":"uint256"},{"name":"startTime","type":"uint256","internalType":"uint256"},{"name":"endTime","type":"uint256","internalType":"uint256"},{"name":"totalYieldAvailable","type":"uint256","internalType":"uint256"},{"name":"totalSubsidiesDistributed","type":"uint256","internalType":"uint256"},{"name":"status","type":"uint8","internalType":"enum EpochManager.EpochStatus"}],"stateMutability":"view"},{"type":"function","name":"getRoleAdmin","inputs":[{"name":"role","type":"bytes32","internalType":"bytes32"}],"outputs":[{"name":"","type":"bytes32","internalType":"bytes32"}],"stateMutability":"view"},{"type":"function","name":"getVaultYieldForEpoch","inputs":[{"name":"epochId","type":"uint256","internalType":"uint256"},{"name":"vault","type":"address","internalType":"address"}],"outputs":[{"name":"","type":"uint256","internalType":"uint256"}],"stateMutability":"view"},{"type":"function","name":"grantRole","inputs":[{"name":"role","type":"bytes32","internalType":"bytes32"},{"name":"account","type":"address","internalType":"address"}],"outputs":[],"stateMutability":"nonpayable"},{"type":"function","name":"grantVaultRole","inputs":[{"name":"vault","type":"address","internalType":"address"}],"outputs":[],"stateMutability":"nonpayable"},{"type":"function","name":"hasRole","inputs":[{"name":"role","type":"bytes32","internalType":"bytes32"},{"name":"account","type":"address","internalType":"address"}],"outputs":[{"name":"","type":"bool","internalType":"bool"}],"stateMutability":"view"},{"type":"function","name":"markEpochFailed","inputs":[{"name":"epochId","type":"uint256","internalType":"uint256"},{"name":"reason","type":"string","internalType":"string"}],"outputs":[],"stateMutability":"nonpayable"},{"type":"function","name":"owner","inputs":[],"outputs":[{"name":"","type":"address","internalType":"address"}],"stateMutability":"view"},{"type":"function","name":"renounceOwnership","inputs":[],"outputs":[],"stateMutability":"nonpayable"},{"type":"function","name":"renounceRole","inputs":[{"name":"role","type":"bytes32","internalType":"bytes32"},{"name":"callerConfirmation","type":"address","internalType":"address"}],"outputs":[],"stateMutability":"nonpayable"},{"type":"function","name":"revokeRole","inputs":[{"name":"role","type":"bytes32","internalType":"bytes32"},{"name":"account","type":"address","internalType":"address"}],"outputs":[],"stateMutability":"nonpayable"},{"type":"function","name":"revokeVaultRole","inputs":[{"name":"vault","type":"address","internalType":"address"}],"outputs":[],"stateMutability":"nonpayable"},{"type":"function","name":"setAutomatedSystem","inputs":[{"name":"newAutomatedSystem","type":"address","internalType":"address"}],"outputs":[],"stateMutability":"nonpayable"},{"type":"function","name":"setEpochDuration","inputs":[{"name":"newDuration","type":"uint256","internalType":"uint256"}],"outputs":[],"stateMutability":"nonpayable"},{"type":"function","name":"startNewEpoch","inputs":[],"outputs":[],"stateMutability":"nonpayable"},{"type":"function","name":"supportsInterface","inputs":[{"name":"interfaceId","type":"bytes4","internalType":"bytes4"}],"outputs":[{"name":"","type":"bool","internalType":"bool"}],"stateMutability":"view"},{"type":"function","name":"transferOwnership","inputs":[{"name":"newOwner","type":"address","internalType":"address"}],"outputs":[],"stateMutability":"nonpayable"},{"type":"event","name":"AutomatedSystemUpdated","inputs":[{"name":"newAutomatedSystem","type":"address","indexed":true,"internalType":"address"}],"anonymous":false},{"type":"event","name":"EpochDurationUpdated","inputs":[{"name":"newDuration","type":"uint256","indexed":false,"internalType":"uint256"}],"anonymous":false},{"type":"event","name":"EpochFailed","inputs":[{"name":"epochId","type":"uint256","indexed":true,"internalType":"uint256"},{"name":"reason","type":"string","indexed":false,"internalType":"string"}],"anonymous":false},{"type":"event","name":"EpochFinalized","inputs":[{"name":"epochId","type":"uint256","indexed":true,"internalType":"uint256"},{"name":"totalYieldAvailable","type":"uint256","indexed":false,"internalType":"uint256"},{"name":"totalSubsidiesDistributed","type":"uint256","indexed":false,"internalType":"uint256"}],"anonymous":false},{"type":"event","name":"EpochProcessingStarted","inputs":[{"name":"epochId","type":"uint256","indexed":true,"internalType":"uint256"}],"anonymous":false},{"type":"event","name":"EpochStarted","inputs":[{"name":"epochId","type":"uint256","indexed":true,"internalType":"uint256"},{"name":"startTime","type":"uint256","indexed":false,"internalType":"uint256"},{"name":"endTime","type":"uint256","indexed":false,"internalType":"uint256"}],"anonymous":false},{"type":"event","name":"OwnershipTransferred","inputs":[{"name":"previousOwner","type":"address","indexed":true,"internalType":"address"},{"name":"newOwner","type":"address","indexed":true,"internalType":"address"}],"anonymous":false},{"type":"event","name":"ProcessingFailed","inputs":[{"name":"epochId","type":"uint256","indexed":true,"internalType":"uint256"},{"name":"reason","type":"string","indexed":false,"internalType":"string"}],"anonymous":false},{"type":"event","name":"ProcessingStarted","inputs":[{"name":"epochId","type":"uint256","indexed":true,"internalType":"uint256"}],"anonymous":false},{"type":"event","name":"RoleAdminChanged","inputs":[{"name":"role","type":"bytes32","indexed":true,"internalType":"bytes32"},{"name":"previousAdminRole","type":"bytes32","indexed":true,"internalType":"bytes32"},{"name":"newAdminRole","type":"bytes32","indexed":true,"internalType":"bytes32"}],"anonymous":false},{"type":"event","name":"RoleGranted","inputs":[{"name":"role","type":"bytes32","indexed":true,"internalType":"bytes32"},{"name":"account","type":"address","indexed":true,"internalType":"address"},{"name":"sender","type":"address","indexed":true,"internalType":"address"}],"anonymous":false},{"type":"event","name":"RoleRevoked","inputs":[{"name":"role","type":"bytes32","indexed":true,"internalType":"bytes32"},{"name":"account","type":"address","indexed":true,"internalType":"address"},{"name":"sender","type":"address","indexed":true,"internalType":"address"}],"anonymous":false},{"type":"event","name":"VaultYieldAllocated","inputs":[{"name":"epochId","type":"uint256","indexed":true,"internalType":"uint256"},{"name":"vault","type":"address","indexed":true,"internalType":"address"},{"name":"amount","type":"uint256","indexed":false,"internalType":"uint256"}],"anonymous":false},{"type":"error","name":"AccessControlBadConfirmation","inputs":[]},{"type":"error","name":"AccessControlUnauthorizedAccount","inputs":[{"name":"account","type":"address","internalType":"address"},{"name":"neededRole","type":"bytes32","internalType":"bytes32"}]},{"type":"error","name":"EpochManager__EpochNotEnded","inputs":[{"name":"epochId","type":"uint256","internalType":"uint256"},{"name":"endTime","type":"uint256","internalType":"uint256"}]},{"type":"error","name":"EpochManager__EpochStillActive","inputs":[]},{"type":"error","name":"EpochManager__InvalidEpochDuration","inputs":[]},{"type":"error","name":"EpochManager__InvalidEpochId","inputs":[{"name":"epochId","type":"uint256","internalType":"uint256"}]},{"type":"error","name":"EpochManager__InvalidEpochStatus","inputs":[{"name":"epochId","type":"uint256","internalType":"uint256"},{"name":"currentStatus","type":"uint8","internalType":"enum EpochManager.EpochStatus"},{"name":"expectedStatus","type":"uint8","internalType":"enum EpochManager.EpochStatus"}]},{"type":"error","name":"EpochManager__Unauthorized","inputs":[]},{"type":"error","name":"OwnableInvalidOwner","inputs":[{"name":"owner","type":"address","internalType":"address"}]},{"type":"error","name":"OwnableUnauthorizedAccount","inputs":[{"name":"account","type":"address","internalType":"address"}]},{"type":"error","name":"ReentrancyGuardReentrantCall","inputs":[]}],"bytecode":{"object":"0x60803461011557601f61145538819003918201601f19168301916001600160401b03831184841017610119578084926060946040528339810103126101155780519061005960406100526020840161012d565b920161012d565b906001600160a01b0382168015610102575f80546001600160a01b03198116831782556001600160a01b0316907f8be0079c531659141344cd1fd0a4f28419497f9722a3daafe3b4186f6b6457e09080a3600160025582156100f3576100e39260035560018060a01b031660018060a01b031960065416176006556100dd81610141565b506101b7565b506040516111aa908161024b8239f35b63154e957f60e31b5f5260045ffd5b631e4fbdf760e01b5f525f60045260245ffd5b5f80fd5b634e487b7160e01b5f52604160045260245ffd5b51906001600160a01b038216820361011557565b6001600160a01b0381165f9081525f5160206114155f395f51905f52602052604090205460ff166101b2576001600160a01b03165f8181525f5160206114155f395f51905f5260205260408120805460ff191660011790553391905f5160206113f55f395f51905f528180a4600190565b505f90565b6001600160a01b0381165f9081525f5160206114355f395f51905f52602052604090205460ff166101b2576001600160a01b03165f8181525f5160206114355f395f51905f5260205260408120805460ff191660011790553391907f31e0210044b4f6757ce6aa31f9c6e8d4896d24a755014887391a926c5224d959905f5160206113f55f395f51905f529080a460019056fe6080806040526004361015610012575f80fd5b5f3560e01c90816301ffc9a714610d23575080630c56e48f14610ccf578063248a9ca314610c9c5780632637f6f214610b1a57806329f4e5ea14610a4e5780632f2ff15d14610a1057806330024dfe146109ae57806336568abe1461096a5780633aab0a62146108345780634fe3d9701461080b5780634ff0876a146107ee57806351355ff9146106d05780635b72502a146106a85780635c3d7516146103f5578063606989431461067f578063715018a6146106285780638da5cb5b1461060157806391d14854146105b857806398c4f1ac14610591578063a217fddf14610577578063a29a839f14610340578063aa74a00314610517578063b7a36a48146103fa578063bc0bc6ba146103f5578063c6b61e4c146103a2578063d547741f1461035d578063eacdc5ff14610340578063f05ca914146101e45763f2fde38b1461015b575f80fd5b346101e05760203660031901126101e057610174610db6565b61017c610e9b565b6001600160a01b031680156101cd575f80546001600160a01b03198116831782556001600160a01b0316907f8be0079c531659141344cd1fd0a4f28419497f9722a3daafe3b4186f6b6457e09080a3005b631e4fbdf760e01b5f525f60045260245ffd5b5f80fd5b346101e05760403660031901126101e0576101fd610db6565b60243590610209610e7d565b335f9081525f5160206111355f395f51905f52602052604090205460ff161561031c57600454801561030957805f52600560205260405f209060ff6005830154169060058210156102f557600182036102d457505060039060018060a01b0383165f526006810160205260405f20610282858254610e70565b905501610290838254610e70565b90556004546040519283526001600160a01b03909116917f43abc09e3b41a1936d0e8658afafda3e766e0b3867e56c7184b156bc027c35a690602090a36001600255005b63da6bfe9560e01b5f526004526102eb9150610d76565b600160445260645ffd5b634e487b7160e01b5f52602160045260245ffd5b63bdd09f9d60e01b5f525f60045260245ffd5b63e2517d3f60e01b5f52336004525f5160206111555f395f51905f5260245260445ffd5b346101e0575f3660031901126101e0576020600454604051908152f35b346101e05760403660031901126101e0576103a060043561037c610dcc565b9061039b610396825f526001602052600160405f20015490565b610ec1565b6110b0565b005b346101e05760203660031901126101e0576004355f52600560205260405f2080546103f1600183015492600281015490600381015460ff60056004840154930154169260405196879687610d84565b0390f35b610de2565b346101e05760403660031901126101e057600435610416610e7d565b6006546001600160a01b031633141580610503575b6104f457801580156104e9575b6104d757805f52600560205260405f20600581019060ff82541660058110156102f557600281036104b557507fb463d19ecf455be65365092cf8e1db6934a0334cf8cd532ddf9964d01f36b5b2916003826004604094019260243584558260ff198254161790550154905482519182526020820152a26001600255005b63da6bfe9560e01b5f5260048490526104cd90610d76565b600260445260645ffd5b63bdd09f9d60e01b5f5260045260245ffd5b506004548111610438565b6314d8f44f60e11b5f5260045ffd5b505f546001600160a01b031633141561042b565b346101e05760403660031901126101e057600435610533610dcc565b908015801561056c575b6104d7575f526005602052600660405f20019060018060a01b03165f52602052602060405f2054604051908152f35b50600454811161053d565b346101e0575f3660031901126101e05760206040515f8152f35b346101e0575f3660031901126101e05760206040515f5160206111555f395f51905f528152f35b346101e05760403660031901126101e0576105d1610dcc565b6004355f52600160205260405f209060018060a01b03165f52602052602060ff60405f2054166040519015158152f35b346101e0575f3660031901126101e0575f546040516001600160a01b039091168152602090f35b346101e0575f3660031901126101e057610640610e9b565b5f80546001600160a01b0319811682556001600160a01b03167f8be0079c531659141344cd1fd0a4f28419497f9722a3daafe3b4186f6b6457e08280a3005b346101e05760203660031901126101e0576103a061069b610db6565b6106a3610e9b565b610efb565b346101e0575f3660031901126101e0576006546040516001600160a01b039091168152602090f35b346101e05760203660031901126101e0576004356106ec610e7d565b6006546001600160a01b0316331415806107da575b6104f457801580156107cf575b6104d757805f52600560205260405f20600581019060ff82541660058110156102f557600181036107b75750600201548042106107a15750805460ff19166002179055807fae58a33f8b8d696bcbaca9fa29d9fdc336c140e982196c2580db3d46f3e6d4b65f80a27f75a8523867c48ca7db28d86f271a6a404d3af97cbc92076bab2107dcb0a1bfd95f80a26001600255005b82636004833d60e11b5f5260045260245260445ffd5b63da6bfe9560e01b5f5260048490526102eb90610d76565b50600454811161070e565b505f546001600160a01b0316331415610701565b346101e0575f3660031901126101e0576020600354604051908152f35b346101e05760203660031901126101e0576103a0610827610db6565b61082f610e9b565b61101f565b346101e0575f3660031901126101e05761084c610e7d565b6006546001600160a01b031633141580610956575b6104f4576004548061090c575b5f1981146108f85760010180600455600561088b60035442610e70565b91805f528160205260405f209081554260018201558260028201555f60038201555f600482015501600160ff198254161790557f29db3deb62ef2036e5eb93aad68d2362aec0711af592cb365566603bd88651d46040600454928151904282526020820152a26001600255005b634e487b7160e01b5f52601160045260245ffd5b805f52600560205260ff600560405f2001541660058110156102f55760038103610936575061086e565b61094c9163da6bfe9560e01b5f52600452610d76565b600360445260645ffd5b505f546001600160a01b0316331415610861565b346101e05760403660031901126101e057610983610dcc565b336001600160a01b0382160361099f576103a0906004356110b0565b63334bd91960e11b5f5260045ffd5b346101e05760203660031901126101e0576004356109ca610e9b565b8015610a01576020817fbfdcfb557a8f4a07f749e7d744a90c02e13eb5af308b561c2f4f17e58069c83692600355604051908152a1005b63154e957f60e31b5f5260045ffd5b346101e05760403660031901126101e0576103a0600435610a2f610dcc565b90610a49610396825f526001602052600160405f20015490565b610f93565b346101e05760203660031901126101e057610a67610db6565b610a6f610e9b565b6001600160a01b03168015610ab657600680546001600160a01b031916821790557f1c6fe769a20f866bfd0db3e537f5c2c5f9854d28104cc67eec39b10b360860ee5f80a2005b60405162461bcd60e51b815260206004820152603660248201527f45706f63684d616e616765723a204175746f6d617465642073797374656d206160448201527532323932b9b99031b0b73737ba103132903d32b9379760511b6064820152608490fd5b346101e05760403660031901126101e05760243560043567ffffffffffffffff82116101e057366023830112156101e057816004013567ffffffffffffffff81116101e057602483019260248236920101116101e057610b78610e7d565b6006546001600160a01b031633141580610c88575b6104f45781158015610c7d575b610c6a57815f526005602052600560405f20019260ff8454169360058510156102f557600385148015610c60575b610c48577f64e7740f8adc21deadf06924e63ba196d70b963211a36b99cdbef21053e62dab939450600460ff19825416179055837f7cf30edcca36e247d8d01019c76b75ba9739ca0d172cdc8ad50eba5e0e151c6260405180610c2c868683610e49565b0390a2610c3e60405192839283610e49565b0390a26001600255005b63da6bfe9560e01b5f5260048490526102eb85610d76565b5060048514610bc8565b5063bdd09f9d60e01b5f5260045260245ffd5b506004548211610b9a565b505f546001600160a01b0316331415610b8d565b346101e05760203660031901126101e0576020610cc76004355f526001602052600160405f20015490565b604051908152f35b346101e0575f3660031901126101e0576004548015610309575f52600560205260405f2080546103f1600183015492600281015490600381015460ff60056004840154930154169260405196879687610d84565b346101e05760203660031901126101e0576004359063ffffffff60e01b82168092036101e057602091637965db0b60e01b8114908115610d65575b5015158152f35b6301ffc9a760e01b14905083610d5e565b60058110156102f557602452565b939196959492909660c08501978552602085015260408401526060830152608082015260058210156102f55760a00152565b600435906001600160a01b03821682036101e057565b602435906001600160a01b03821682036101e057565b346101e05760203660031901126101e05760043580158015610e3e575b6104d7575f52600560205260405f2080546103f1600183015492600281015490600381015460ff60056004840154930154169260405196879687610d84565b506004548111610dff565b90918060409360208452816020850152848401375f828201840152601f01601f1916010190565b919082018092116108f857565b6002805414610e8c5760028055565b633ee5aeb560e01b5f5260045ffd5b5f546001600160a01b03163303610eae57565b63118cdaa760e01b5f523360045260245ffd5b5f81815260016020908152604080832033845290915290205460ff1615610ee55750565b63e2517d3f60e01b5f523360045260245260445ffd5b6001600160a01b0381165f9081525f5160206111355f395f51905f52602052604090205460ff16610f8e576001600160a01b03165f8181525f5160206111355f395f51905f5260205260408120805460ff191660011790553391905f5160206111555f395f51905f52907f2f8788117e7eff1d82e926ec794901d17c78024a50270940304540a733656f0d9080a4600190565b505f90565b5f8181526001602090815260408083206001600160a01b038616845290915290205460ff16611019575f8181526001602081815260408084206001600160a01b0396909616808552959091528220805460ff19169091179055339291907f2f8788117e7eff1d82e926ec794901d17c78024a50270940304540a733656f0d9080a4600190565b50505f90565b6001600160a01b0381165f9081525f5160206111355f395f51905f52602052604090205460ff1615610f8e576001600160a01b03165f8181525f5160206111355f395f51905f5260205260408120805460ff191690553391905f5160206111555f395f51905f52907ff6391f5c32d9c69d2a47ea670b442974b53935d1edc7fd64eb21e047a839171b9080a4600190565b5f8181526001602090815260408083206001600160a01b038616845290915290205460ff1615611019575f8181526001602090815260408083206001600160a01b0395909516808452949091528120805460ff19169055339291907ff6391f5c32d9c69d2a47ea670b442974b53935d1edc7fd64eb21e047a839171b9080a460019056fe81ca3e78767fe7984cabec333f0414457dbe87b59d50ac066de98618b846bf8131e0210044b4f6757ce6aa31f9c6e8d4896d24a755014887391a926c5224d959a2646970667358221220e45f12ff6e5d2bf9259393b81c027d4c3ca2b918cc67e57d5fee0305119a41c664736f6c634300081e00332f8788117e7eff1d82e926ec794901d17c78024a50270940304540a733656f0da6eef7e35abe7026729641147f7915573c7e97b47efa546f5f6e3230263bcb4981ca3e78767fe7984cabec333f0414457dbe87b59d50ac066de98618b846bf81","linkReferences":{}},"methodIdentifiers":{"DEFAULT_ADMIN_ROLE()":"a217fddf","VAULT_ROLE()":"98c4f1ac","allocateVaultYield(address,uint256)":"f05ca914","automatedSystem()":"5b72502a","beginEpochProcessing(uint256)":"51355ff9","currentEpochId()":"eacdc5ff","epochDuration()":"4ff0876a","epochs(uint256)":"c6b61e4c","finalizeEpoch(uint256,uint256)":"b7a36a48","getCurrentEpochDetails()":"0c56e48f","getCurrentEpochId()":"a29a839f","getEpoch(uint256)":"bc0bc6ba","getEpochDetails(uint256)":"5c3d7516","getRoleAdmin(bytes32)":"248a9ca3","getVaultYieldForEpoch(uint256,address)":"aa74a003","grantRole(bytes32,address)":"2f2ff15d","grantVaultRole(address)":"60698943","hasRole(bytes32,address)":"91d14854","markEpochFailed(uint256,string)":"2637f6f2","owner()":"8da5cb5b","renounceOwnership()":"715018a6","renounceRole(bytes32,address)":"36568abe","revokeRole(bytes32,address)":"d547741f","revokeVaultRole(address)":"4fe3d970","setAutomatedSystem(address)":"29f4e5ea","setEpochDuration(uint256)":"30024dfe","startNewEpoch()":"3aab0a62","supportsInterface(bytes4)":"01ffc9a7","transferOwnership(address)":"f2fde38b"},"id":84}