{"abi":[{"type":"constructor","inputs":[{"name":"_initialEpochDuration","type":"uint256","internalType":"uint256"},{"name":"_initialAutomatedSystem","type":"address","internalType":"address"},{"name":"_initialOwner","type":"address","internalType":"address"}],"stateMutability":"nonpayable"},{"type":"function","name":"allocateVaultYield","inputs":[{"name":"vault","type":"address","internalType":"address"},{"name":"amount","type":"uint256","internalType":"uint256"}],"outputs":[],"stateMutability":"nonpayable"},{"type":"function","name":"automatedSystem","inputs":[],"outputs":[{"name":"","type":"address","internalType":"address"}],"stateMutability":"view"},{"type":"function","name":"beginEpochProcessing","inputs":[{"name":"epochId","type":"uint256","internalType":"uint256"}],"outputs":[],"stateMutability":"nonpayable"},{"type":"function","name":"currentEpochId","inputs":[],"outputs":[{"name":"","type":"uint256","internalType":"uint256"}],"stateMutability":"view"},{"type":"function","name":"epochDuration","inputs":[],"outputs":[{"name":"","type":"uint256","internalType":"uint256"}],"stateMutability":"view"},{"type":"function","name":"epochs","inputs":[{"name":"","type":"uint256","internalType":"uint256"}],"outputs":[{"name":"id","type":"uint256","internalType":"uint256"},{"name":"startTime","type":"uint256","internalType":"uint256"},{"name":"endTime","type":"uint256","internalType":"uint256"},{"name":"totalYieldAvailable","type":"uint256","internalType":"uint256"},{"name":"totalSubsidiesDistributed","type":"uint256","internalType":"uint256"},{"name":"status","type":"uint8","internalType":"enum EpochManager.EpochStatus"}],"stateMutability":"view"},{"type":"function","name":"finalizeEpoch","inputs":[{"name":"epochId","type":"uint256","internalType":"uint256"},{"name":"subsidiesDistributed","type":"uint256","internalType":"uint256"}],"outputs":[],"stateMutability":"nonpayable"},{"type":"function","name":"getCurrentEpochDetails","inputs":[],"outputs":[{"name":"id","type":"uint256","internalType":"uint256"},{"name":"startTime","type":"uint256","internalType":"uint256"},{"name":"endTime","type":"uint256","internalType":"uint256"},{"name":"totalYieldAvailable","type":"uint256","internalType":"uint256"},{"name":"totalSubsidiesDistributed","type":"uint256","internalType":"uint256"},{"name":"status","type":"uint8","internalType":"enum EpochManager.EpochStatus"}],"stateMutability":"view"},{"type":"function","name":"getCurrentEpochId","inputs":[],"outputs":[{"name":"","type":"uint256","internalType":"uint256"}],"stateMutability":"view"},{"type":"function","name":"getEpochDetails","inputs":[{"name":"epochId","type":"uint256","internalType":"uint256"}],"outputs":[{"name":"id","type":"uint256","internalType":"uint256"},{"name":"startTime","type":"uint256","internalType":"uint256"},{"name":"endTime","type":"uint256","internalType":"uint256"},{"name":"totalYieldAvailable","type":"uint256","internalType":"uint256"},{"name":"totalSubsidiesDistributed","type":"uint256","internalType":"uint256"},{"name":"status","type":"uint8","internalType":"enum EpochManager.EpochStatus"}],"stateMutability":"view"},{"type":"function","name":"getVaultYieldForEpoch","inputs":[{"name":"epochId","type":"uint256","internalType":"uint256"},{"name":"vault","type":"address","internalType":"address"}],"outputs":[{"name":"","type":"uint256","internalType":"uint256"}],"stateMutability":"view"},{"type":"function","name":"owner","inputs":[],"outputs":[{"name":"","type":"address","internalType":"address"}],"stateMutability":"view"},{"type":"function","name":"renounceOwnership","inputs":[],"outputs":[],"stateMutability":"nonpayable"},{"type":"function","name":"setAutomatedSystem","inputs":[{"name":"newAutomatedSystem","type":"address","internalType":"address"}],"outputs":[],"stateMutability":"nonpayable"},{"type":"function","name":"setEpochDuration","inputs":[{"name":"newDuration","type":"uint256","internalType":"uint256"}],"outputs":[],"stateMutability":"nonpayable"},{"type":"function","name":"startNewEpoch","inputs":[],"outputs":[],"stateMutability":"nonpayable"},{"type":"function","name":"transferOwnership","inputs":[{"name":"newOwner","type":"address","internalType":"address"}],"outputs":[],"stateMutability":"nonpayable"},{"type":"event","name":"AutomatedSystemUpdated","inputs":[{"name":"newAutomatedSystem","type":"address","indexed":true,"internalType":"address"}],"anonymous":false},{"type":"event","name":"EpochDurationUpdated","inputs":[{"name":"newDuration","type":"uint256","indexed":false,"internalType":"uint256"}],"anonymous":false},{"type":"event","name":"EpochFinalized","inputs":[{"name":"epochId","type":"uint256","indexed":true,"internalType":"uint256"},{"name":"totalYieldAvailable","type":"uint256","indexed":false,"internalType":"uint256"},{"name":"totalSubsidiesDistributed","type":"uint256","indexed":false,"internalType":"uint256"}],"anonymous":false},{"type":"event","name":"EpochStarted","inputs":[{"name":"epochId","type":"uint256","indexed":true,"internalType":"uint256"},{"name":"startTime","type":"uint256","indexed":false,"internalType":"uint256"},{"name":"endTime","type":"uint256","indexed":false,"internalType":"uint256"}],"anonymous":false},{"type":"event","name":"OwnershipTransferred","inputs":[{"name":"previousOwner","type":"address","indexed":true,"internalType":"address"},{"name":"newOwner","type":"address","indexed":true,"internalType":"address"}],"anonymous":false},{"type":"event","name":"VaultYieldAllocated","inputs":[{"name":"epochId","type":"uint256","indexed":true,"internalType":"uint256"},{"name":"vault","type":"address","indexed":true,"internalType":"address"},{"name":"amount","type":"uint256","indexed":false,"internalType":"uint256"}],"anonymous":false},{"type":"error","name":"EpochManager__EpochNotEnded","inputs":[{"name":"epochId","type":"uint256","internalType":"uint256"},{"name":"endTime","type":"uint256","internalType":"uint256"}]},{"type":"error","name":"EpochManager__EpochStillActive","inputs":[]},{"type":"error","name":"EpochManager__InvalidEpochDuration","inputs":[]},{"type":"error","name":"EpochManager__InvalidEpochId","inputs":[{"name":"epochId","type":"uint256","internalType":"uint256"}]},{"type":"error","name":"EpochManager__InvalidEpochStatus","inputs":[{"name":"epochId","type":"uint256","internalType":"uint256"},{"name":"currentStatus","type":"uint8","internalType":"enum EpochManager.EpochStatus"},{"name":"expectedStatus","type":"uint8","internalType":"enum EpochManager.EpochStatus"}]},{"type":"error","name":"EpochManager__Unauthorized","inputs":[]},{"type":"error","name":"OwnableInvalidOwner","inputs":[{"name":"owner","type":"address","internalType":"address"}]},{"type":"error","name":"OwnableUnauthorizedAccount","inputs":[{"name":"account","type":"address","internalType":"address"}]},{"type":"error","name":"ReentrancyGuardReentrantCall","inputs":[]}],"bytecode":{"object":"0x60803461010d57601f610b3438819003918201601f19168301916001600160401b038311848410176101115780849260609460405283398101031261010d5780519061004d60208201610125565b906001600160a01b039061006390604001610125565b169182156100fa575f80546001600160a01b031981168517825560405194916001600160a01b03909116907f8be0079c531659141344cd1fd0a4f28419497f9722a3daafe3b4186f6b6457e09080a36001805580156100eb57600255600580546001600160a01b0319166001600160a01b03929092169190911790556109fa908161013a8239f35b63154e957f60e31b5f5260045ffd5b631e4fbdf760e01b5f525f60045260245ffd5b5f80fd5b634e487b7160e01b5f52604160045260245ffd5b51906001600160a01b038216820361010d5756fe6080806040526004361015610012575f80fd5b5f3560e01c9081630c56e48f146108cc5750806329f4e5ea1461080057806330024dfe1461079e5780633aab0a62146106685780634ff0876a1461064b57806351355ff9146105775780635b72502a1461054f5780635c3d7516146104e8578063715018a6146104915780638da5cb5b1461046a578063a29a839f14610274578063aa74a00314610400578063b7a36a48146102e4578063c6b61e4c14610291578063eacdc5ff14610274578063f05ca914146101605763f2fde38b146100d7575f80fd5b3461015c57602036600319011261015c576100f061095b565b6100f861097e565b6001600160a01b03168015610149575f80546001600160a01b03198116831782556001600160a01b0316907f8be0079c531659141344cd1fd0a4f28419497f9722a3daafe3b4186f6b6457e09080a3005b631e4fbdf760e01b5f525f60045260245ffd5b5f80fd5b3461015c57604036600319011261015c5761017961095b565b602435906101856109a4565b600354801561026157805f52600460205260405f209060ff60058301541690600482101561024d576001820361022c57505060039060018060a01b0383165f526006810160205260405f206101db858254610971565b9055016101e9838254610971565b90556003546040519283526001600160a01b03909116917f43abc09e3b41a1936d0e8658afafda3e766e0b3867e56c7184b156bc027c35a690602090a360018055005b63da6bfe9560e01b5f52600452610243915061091b565b600160445260645ffd5b634e487b7160e01b5f52602160045260245ffd5b63bdd09f9d60e01b5f525f60045260245ffd5b3461015c575f36600319011261015c576020600354604051908152f35b3461015c57602036600319011261015c576004355f52600460205260405f2080546102e0600183015492600281015490600381015460ff60056004840154930154169260405196879687610929565b0390f35b3461015c57604036600319011261015c576004356103006109a4565b6005546001600160a01b0316331415806103ec575b6103dd57801580156103d2575b6103c057805f52600460205260405f20600581019060ff825416600481101561024d576002810361039e57507fb463d19ecf455be65365092cf8e1db6934a0334cf8cd532ddf9964d01f36b5b2916003826004604094019260243584558260ff198254161790550154905482519182526020820152a260018055005b63da6bfe9560e01b5f5260048490526103b69061091b565b600260445260645ffd5b63bdd09f9d60e01b5f5260045260245ffd5b506003548111610322565b6314d8f44f60e11b5f5260045ffd5b505f546001600160a01b0316331415610315565b3461015c57604036600319011261015c576024356004356001600160a01b038216820361015c578015801561045f575b6103c0575f526004602052600660405f20019060018060a01b03165f52602052602060405f2054604051908152f35b506003548111610430565b3461015c575f36600319011261015c575f546040516001600160a01b039091168152602090f35b3461015c575f36600319011261015c576104a961097e565b5f80546001600160a01b0319811682556001600160a01b03167f8be0079c531659141344cd1fd0a4f28419497f9722a3daafe3b4186f6b6457e08280a3005b3461015c57602036600319011261015c5760043580158015610544575b6103c0575f52600460205260405f2080546102e0600183015492600281015490600381015460ff60056004840154930154169260405196879687610929565b506003548111610505565b3461015c575f36600319011261015c576005546040516001600160a01b039091168152602090f35b3461015c57602036600319011261015c576004356105936109a4565b6005546001600160a01b031633141580610637575b6103dd578015801561062c575b6103c057805f52600460205260405f2090600582019160ff835416600481101561024d5760018103610614575060020154908142106105ff57825460ff1916600217835560018055005b636004833d60e11b5f5260045260245260445ffd5b63da6bfe9560e01b5f5260048390526102439061091b565b5060035481116105b5565b505f546001600160a01b03163314156105a8565b3461015c575f36600319011261015c576020600254604051908152f35b3461015c575f36600319011261015c576106806109a4565b6005546001600160a01b03163314158061078a575b6103dd5760035480610740575b5f19811461072c576001018060035560056106bf60025442610971565b91805f52600460205260405f209081554260018201558260028201555f60038201555f600482015501600160ff198254161790557f29db3deb62ef2036e5eb93aad68d2362aec0711af592cb365566603bd88651d46040600354928151904282526020820152a260018055005b634e487b7160e01b5f52601160045260245ffd5b805f52600460205260ff600560405f20015416600481101561024d576003810361076a57506106a2565b6107809163da6bfe9560e01b5f5260045261091b565b600360445260645ffd5b505f546001600160a01b0316331415610695565b3461015c57602036600319011261015c576004356107ba61097e565b80156107f1576020817fbfdcfb557a8f4a07f749e7d744a90c02e13eb5af308b561c2f4f17e58069c83692600255604051908152a1005b63154e957f60e31b5f5260045ffd5b3461015c57602036600319011261015c5761081961095b565b61082161097e565b6001600160a01b0316801561086857600580546001600160a01b031916821790557f1c6fe769a20f866bfd0db3e537f5c2c5f9854d28104cc67eec39b10b360860ee5f80a2005b60405162461bcd60e51b815260206004820152603660248201527f45706f63684d616e616765723a204175746f6d617465642073797374656d206160448201527532323932b9b99031b0b73737ba103132903d32b9379760511b6064820152608490fd5b3461015c575f36600319011261015c576003548015610261575f526004602052806102e060405f208054906001810154600282015460038301549160ff60056004860154950154169487610929565b600481101561024d57602452565b939196959492909660c085019785526020850152604084015260608301526080820152600482101561024d5760a00152565b600435906001600160a01b038216820361015c57565b9190820180921161072c57565b5f546001600160a01b0316330361099157565b63118cdaa760e01b5f523360045260245ffd5b6002600154146109b5576002600155565b633ee5aeb560e01b5f5260045ffdfea26469706673582212209fb2c6cfdeb77fd2225324cefc090383602d5e9ede66754774b6da8369b2895e64736f6c634300081e0033","linkReferences":{}},"methodIdentifiers":{"allocateVaultYield(address,uint256)":"f05ca914","automatedSystem()":"5b72502a","beginEpochProcessing(uint256)":"51355ff9","currentEpochId()":"eacdc5ff","epochDuration()":"4ff0876a","epochs(uint256)":"c6b61e4c","finalizeEpoch(uint256,uint256)":"b7a36a48","getCurrentEpochDetails()":"0c56e48f","getCurrentEpochId()":"a29a839f","getEpochDetails(uint256)":"5c3d7516","getVaultYieldForEpoch(uint256,address)":"aa74a003","owner()":"8da5cb5b","renounceOwnership()":"715018a6","setAutomatedSystem(address)":"29f4e5ea","setEpochDuration(uint256)":"30024dfe","startNewEpoch()":"3aab0a62","transferOwnership(address)":"f2fde38b"},"id":76}