{
  "abi": [
    {
      "type": "constructor",
      "inputs": [
        {
          "name": "name",
          "type": "string",
          "internalType": "string"
        },
        {
          "name": "symbol",
          "type": "string",
          "internalType": "string"
        }
      ],
      "stateMutability": "nonpayable"
    },
    {
      "type": "function",
      "name": "approve",
      "inputs": [
        {
          "name": "to",
          "type": "address",
          "internalType": "address"
        },
        {
          "name": "tokenId",
          "type": "uint256",
          "internalType": "uint256"
        }
      ],
      "outputs": [],
      "stateMutability": "nonpayable"
    },
    {
      "type": "function",
      "name": "balanceOf",
      "inputs": [
        {
          "name": "owner",
          "type": "address",
          "internalType": "address"
        }
      ],
      "outputs": [
        {
          "name": "",
          "type": "uint256",
          "internalType": "uint256"
        }
      ],
      "stateMutability": "view"
    },
    {
      "type": "function",
      "name": "getApproved",
      "inputs": [
        {
          "name": "tokenId",
          "type": "uint256",
          "internalType": "uint256"
        }
      ],
      "outputs": [
        {
          "name": "",
          "type": "address",
          "internalType": "address"
        }
      ],
      "stateMutability": "view"
    },
    {
      "type": "function",
      "name": "isApprovedForAll",
      "inputs": [
        {
          "name": "owner",
          "type": "address",
          "internalType": "address"
        },
        {
          "name": "operator",
          "type": "address",
          "internalType": "address"
        }
      ],
      "outputs": [
        {
          "name": "",
          "type": "bool",
          "internalType": "bool"
        }
      ],
      "stateMutability": "view"
    },
    {
      "type": "function",
      "name": "mint",
      "inputs": [
        {
          "name": "to",
          "type": "address",
          "internalType": "address"
        }
      ],
      "outputs": [
        {
          "name": "",
          "type": "uint256",
          "internalType": "uint256"
        }
      ],
      "stateMutability": "nonpayable"
    },
    {
      "type": "function",
      "name": "mintSpecific",
      "inputs": [
        {
          "name": "to",
          "type": "address",
          "internalType": "address"
        },
        {
          "name": "tokenId",
          "type": "uint256",
          "internalType": "uint256"
        }
      ],
      "outputs": [],
      "stateMutability": "nonpayable"
    },
    {
      "type": "function",
      "name": "name",
      "inputs": [],
      "outputs": [
        {
          "name": "",
          "type": "string",
          "internalType": "string"
        }
      ],
      "stateMutability": "view"
    },
    {
      "type": "function",
      "name": "owner",
      "inputs": [],
      "outputs": [
        {
          "name": "",
          "type": "address",
          "internalType": "address"
        }
      ],
      "stateMutability": "view"
    },
    {
      "type": "function",
      "name": "ownerOf",
      "inputs": [
        {
          "name": "tokenId",
          "type": "uint256",
          "internalType": "uint256"
        }
      ],
      "outputs": [
        {
          "name": "",
          "type": "address",
          "internalType": "address"
        }
      ],
      "stateMutability": "view"
    },
    {
      "type": "function",
      "name": "renounceOwnership",
      "inputs": [],
      "outputs": [],
      "stateMutability": "nonpayable"
    },
    {
      "type": "function",
      "name": "safeTransferFrom",
      "inputs": [
        {
          "name": "from",
          "type": "address",
          "internalType": "address"
        },
        {
          "name": "to",
          "type": "address",
          "internalType": "address"
        },
        {
          "name": "tokenId",
          "type": "uint256",
          "internalType": "uint256"
        }
      ],
      "outputs": [],
      "stateMutability": "nonpayable"
    },
    {
      "type": "function",
      "name": "safeTransferFrom",
      "inputs": [
        {
          "name": "from",
          "type": "address",
          "internalType": "address"
        },
        {
          "name": "to",
          "type": "address",
          "internalType": "address"
        },
        {
          "name": "tokenId",
          "type": "uint256",
          "internalType": "uint256"
        },
        {
          "name": "data",
          "type": "bytes",
          "internalType": "bytes"
        }
      ],
      "outputs": [],
      "stateMutability": "nonpayable"
    },
    {
      "type": "function",
      "name": "setApprovalForAll",
      "inputs": [
        {
          "name": "operator",
          "type": "address",
          "internalType": "address"
        },
        {
          "name": "approved",
          "type": "bool",
          "internalType": "bool"
        }
      ],
      "outputs": [],
      "stateMutability": "nonpayable"
    },
    {
      "type": "function",
      "name": "supportsInterface",
      "inputs": [
        {
          "name": "interfaceId",
          "type": "bytes4",
          "internalType": "bytes4"
        }
      ],
      "outputs": [
        {
          "name": "",
          "type": "bool",
          "internalType": "bool"
        }
      ],
      "stateMutability": "view"
    },
    {
      "type": "function",
      "name": "symbol",
      "inputs": [],
      "outputs": [
        {
          "name": "",
          "type": "string",
          "internalType": "string"
        }
      ],
      "stateMutability": "view"
    },
    {
      "type": "function",
      "name": "tokenURI",
      "inputs": [
        {
          "name": "tokenId",
          "type": "uint256",
          "internalType": "uint256"
        }
      ],
      "outputs": [
        {
          "name": "",
          "type": "string",
          "internalType": "string"
        }
      ],
      "stateMutability": "view"
    },
    {
      "type": "function",
      "name": "transferFrom",
      "inputs": [
        {
          "name": "from",
          "type": "address",
          "internalType": "address"
        },
        {
          "name": "to",
          "type": "address",
          "internalType": "address"
        },
        {
          "name": "tokenId",
          "type": "uint256",
          "internalType": "uint256"
        }
      ],
      "outputs": [],
      "stateMutability": "nonpayable"
    },
    {
      "type": "function",
      "name": "transferOwnership",
      "inputs": [
        {
          "name": "newOwner",
          "type": "address",
          "internalType": "address"
        }
      ],
      "outputs": [],
      "stateMutability": "nonpayable"
    },
    {
      "type": "event",
      "name": "Approval",
      "inputs": [
        {
          "name": "owner",
          "type": "address",
          "indexed": true,
          "internalType": "address"
        },
        {
          "name": "approved",
          "type": "address",
          "indexed": true,
          "internalType": "address"
        },
        {
          "name": "tokenId",
          "type": "uint256",
          "indexed": true,
          "internalType": "uint256"
        }
      ],
      "anonymous": false
    },
    {
      "type": "event",
      "name": "ApprovalForAll",
      "inputs": [
        {
          "name": "owner",
          "type": "address",
          "indexed": true,
          "internalType": "address"
        },
        {
          "name": "operator",
          "type": "address",
          "indexed": true,
          "internalType": "address"
        },
        {
          "name": "approved",
          "type": "bool",
          "indexed": false,
          "internalType": "bool"
        }
      ],
      "anonymous": false
    },
    {
      "type": "event",
      "name": "OwnershipTransferred",
      "inputs": [
        {
          "name": "previousOwner",
          "type": "address",
          "indexed": true,
          "internalType": "address"
        },
        {
          "name": "newOwner",
          "type": "address",
          "indexed": true,
          "internalType": "address"
        }
      ],
      "anonymous": false
    },
    {
      "type": "event",
      "name": "Transfer",
      "inputs": [
        {
          "name": "from",
          "type": "address",
          "indexed": true,
          "internalType": "address"
        },
        {
          "name": "to",
          "type": "address",
          "indexed": true,
          "internalType": "address"
        },
        {
          "name": "tokenId",
          "type": "uint256",
          "indexed": true,
          "internalType": "uint256"
        }
      ],
      "anonymous": false
    },
    {
      "type": "error",
      "name": "ERC721IncorrectOwner",
      "inputs": [
        {
          "name": "sender",
          "type": "address",
          "internalType": "address"
        },
        {
          "name": "tokenId",
          "type": "uint256",
          "internalType": "uint256"
        },
        {
          "name": "owner",
          "type": "address",
          "internalType": "address"
        }
      ]
    },
    {
      "type": "error",
      "name": "ERC721InsufficientApproval",
      "inputs": [
        {
          "name": "operator",
          "type": "address",
          "internalType": "address"
        },
        {
          "name": "tokenId",
          "type": "uint256",
          "internalType": "uint256"
        }
      ]
    },
    {
      "type": "error",
      "name": "ERC721InvalidApprover",
      "inputs": [
        {
          "name": "approver",
          "type": "address",
          "internalType": "address"
        }
      ]
    },
    {
      "type": "error",
      "name": "ERC721InvalidOperator",
      "inputs": [
        {
          "name": "operator",
          "type": "address",
          "internalType": "address"
        }
      ]
    },
    {
      "type": "error",
      "name": "ERC721InvalidOwner",
      "inputs": [
        {
          "name": "owner",
          "type": "address",
          "internalType": "address"
        }
      ]
    },
    {
      "type": "error",
      "name": "ERC721InvalidReceiver",
      "inputs": [
        {
          "name": "receiver",
          "type": "address",
          "internalType": "address"
        }
      ]
    },
    {
      "type": "error",
      "name": "ERC721InvalidSender",
      "inputs": [
        {
          "name": "sender",
          "type": "address",
          "internalType": "address"
        }
      ]
    },
    {
      "type": "error",
      "name": "ERC721NonexistentToken",
      "inputs": [
        {
          "name": "tokenId",
          "type": "uint256",
          "internalType": "uint256"
        }
      ]
    },
    {
      "type": "error",
      "name": "OwnableInvalidOwner",
      "inputs": [
        {
          "name": "owner",
          "type": "address",
          "internalType": "address"
        }
      ]
    },
    {
      "type": "error",
      "name": "OwnableUnauthorizedAccount",
      "inputs": [
        {
          "name": "account",
          "type": "address",
          "internalType": "address"
        }
      ]
    }
  ],
  "bytecode": {
    "object": "0x60806040523461036857611341803803806100198161036c565b9283398101906040818303126103685780516001600160401b0381116103685782610045918301610391565b60208201519092906001600160401b038111610368576100659201610391565b81516001600160401b03811161027e575f54600181811c9116801561035e575b602082101461026057601f81116102fc575b50602092601f821160011461029d57928192935f92610292575b50508160011b915f199060031b1c1916175f555b80516001600160401b03811161027e57600154600181811c91168015610274575b602082101461026057601f81116101fd575b50602091601f821160011461019d579181925f92610192575b50508160011b915f199060031b1c1916176001555b331561017f5760068054336001600160a01b03198216811790925560405191906001600160a01b03167f8be0079c531659141344cd1fd0a4f28419497f9722a3daafe3b4186f6b6457e05f80a3610f5e90816103e38239f35b631e4fbdf760e01b5f525f60045260245ffd5b015190505f80610111565b601f1982169260015f52805f20915f5b8581106101e5575083600195106101cd575b505050811b01600155610126565b01515f1960f88460031b161c191690555f80806101bf565b919260206001819286850151815501940192016101ad565b60015f527fb10e2d527612073b26eecdfd717e6a320cf44b4afac2b0732d9fcbe2b7fa0cf6601f830160051c81019160208410610256575b601f0160051c01905b81811061024b57506100f8565b5f815560010161023e565b9091508190610235565b634e487b7160e01b5f52602260045260245ffd5b90607f16906100e6565b634e487b7160e01b5f52604160045260245ffd5b015190505f806100b1565b601f198216935f8052805f20915f5b8681106102e457508360019596106102cc575b505050811b015f556100c5565b01515f1960f88460031b161c191690555f80806102bf565b919260206001819286850151815501940192016102ac565b5f80527f290decd9548b62a8d60345a988386fc84ba6bc95484008f6362f93160ef3e563601f830160051c81019160208410610354575b601f0160051c01905b8181106103495750610097565b5f815560010161033c565b9091508190610333565b90607f1690610085565b5f80fd5b6040519190601f01601f191682016001600160401b0381118382101761027e57604052565b81601f82011215610368578051906001600160401b03821161027e576103c0601f8301601f191660200161036c565b928284526020838301011161036857815f9260208093018386015e830101529056fe6080806040526004361015610012575f80fd5b5f905f3560e01c90816301ffc9a7146108b75750806306fdde03146107ff578063081812fc146107c3578063095ea7b3146106d957806323b872dd146106c257806342842e0e146106935780634bc5b6c4146105b65780636352211e146105865780636a6278421461053157806370a08231146104e0578063715018a6146104855780638da5cb5b1461045d57806395d89b4114610355578063a22cb465146102ba578063b88d4fde14610224578063c87b56dd146101c7578063e985e9c51461016f5763f2fde38b146100e4575f80fd5b3461016c57602036600319011261016c576100fd610946565b610105610ddd565b6001600160a01b0316801561015857600680546001600160a01b0319811683179091556001600160a01b03167f8be0079c531659141344cd1fd0a4f28419497f9722a3daafe3b4186f6b6457e05f80a380f35b631e4fbdf760e01b82526004829052602482fd5b80fd5b503461016c57604036600319011261016c57604061018b610946565b9161019461095c565b9260018060a01b031681526005602052209060018060a01b03165f52602052602060ff60405f2054166040519015158152f35b34610220576020366003190112610220576101e3600435610b9e565b505f6040516101f36020826109ac565b5261021c6040516102056020826109ac565b5f8152604051918291602083526020830190610922565b0390f35b5f80fd5b346102205760803660031901126102205761023d610946565b61024561095c565b906044356064359267ffffffffffffffff8411610220573660238501121561022057836004013592610276846109e2565b9361028460405195866109ac565b8085523660248288010111610220576020815f9260246102b8990183890137860101526102b28383836109fe565b33610e04565b005b34610220576040366003190112610220576102d3610946565b60243590811515809203610220576001600160a01b031690811561034257335f52600560205260405f20825f5260205260405f2060ff1981541660ff83161790556040519081527f17307eab39ab6107e8899845ad3d59bd9653f200f220920489ca2b5937696c3160203392a3005b50630b61174360e31b5f5260045260245ffd5b34610220575f366003190112610220576040515f6001548060011c90600181168015610453575b60208310811461043f5782855290811561041b57506001146103bd575b61021c836103a9818503826109ac565b604051918291602083526020830190610922565b91905060015f527fb10e2d527612073b26eecdfd717e6a320cf44b4afac2b0732d9fcbe2b7fa0cf6915f905b808210610401575090915081016020016103a9610399565b9192600181602092548385880101520191019092916103e9565b60ff191660208086019190915291151560051b840190910191506103a99050610399565b634e487b7160e01b5f52602260045260245ffd5b91607f169161037c565b34610220575f366003190112610220576006546040516001600160a01b039091168152602090f35b34610220575f3660031901126102205761049d610ddd565b600680546001600160a01b031981169091555f906001600160a01b03167f8be0079c531659141344cd1fd0a4f28419497f9722a3daafe3b4186f6b6457e08280a3005b34610220576020366003190112610220576001600160a01b03610501610946565b16801561051e575f526003602052602060405f2054604051908152f35b6322718ad960e21b5f525f60045260245ffd5b346102205760203660031901126102205761054a610946565b600754905f1982146105725761056a600160209301809281600755610bd2565b604051908152f35b634e487b7160e01b5f52601160045260245ffd5b346102205760203660031901126102205760206105a4600435610b9e565b6040516001600160a01b039091168152f35b34610220576040366003190112610220576105cf610946565b60243560016040516331a9108f60e11b8152826004820152602081602481305afa9081610655575b5061065057505f5b61060c576102b891610bd2565b606460405162461bcd60e51b815260206004820152602060248201527f4d6f636b4552433732313a20546f6b656e20616c7265616479206d696e7465646044820152fd5b6105ff565b6020813d60201161068b575b8161066e602093836109ac565b8101031261022057516001600160a01b03811681146105f7575f80fd5b3d9150610661565b34610220576102b86106a436610972565b90604051926106b46020856109ac565b5f84526102b28383836109fe565b34610220576102b86106d336610972565b916109fe565b34610220576040366003190112610220576106f2610946565b6024356106fe81610b9e565b331515806107b0575b80610783575b6107705781906001600160a01b0384811691167f8c5be1e5ebec7d5bd14f71427d1e84f3dd0314c0f7b2291e5b200ac8c7c3b9255f80a45f90815260046020526040902080546001600160a01b0319166001600160a01b03909216919091179055005b63a9fbf51f60e01b5f523360045260245ffd5b506001600160a01b0381165f90815260056020908152604080832033845290915290205460ff161561070d565b506001600160a01b038116331415610707565b34610220576020366003190112610220576004356107e081610b9e565b505f526004602052602060018060a01b0360405f205416604051908152f35b34610220575f366003190112610220576040515f5f548060011c906001811680156108ad575b60208310811461043f5782855290811561041b57506001146108515761021c836103a9818503826109ac565b5f8080527f290decd9548b62a8d60345a988386fc84ba6bc95484008f6362f93160ef3e563939250905b808210610893575090915081016020016103a9610399565b91926001816020925483858801015201910190929161087b565b91607f1691610825565b34610220576020366003190112610220576004359063ffffffff60e01b8216809203610220576020916380ac58cd60e01b8114908115610911575b8115610900575b5015158152f35b6301ffc9a760e01b149050836108f9565b635b5e139f60e01b811491506108f2565b805180835260209291819084018484015e5f828201840152601f01601f1916010190565b600435906001600160a01b038216820361022057565b602435906001600160a01b038216820361022057565b6060906003190112610220576004356001600160a01b038116810361022057906024356001600160a01b0381168103610220579060443590565b90601f8019910116810190811067ffffffffffffffff8211176109ce57604052565b634e487b7160e01b5f52604160045260245ffd5b67ffffffffffffffff81116109ce57601f01601f191660200190565b6001600160a01b0390911691908215610b8b575f828152600260205260409020546001600160a01b031692829033151580610af6575b5084610ac3575b805f52600360205260405f2060018154019055815f52600260205260405f20816bffffffffffffffffffffffff60a01b825416179055847fddf252ad1be2c89b69c2b068fc378daa952ba7f163c4a11628f55a4df523b3ef5f80a46001600160a01b0316808303610aab57505050565b6364283d7b60e01b5f5260045260245260445260645ffd5b5f82815260046020526040902080546001600160a01b0319169055845f52600360205260405f205f198154019055610a3b565b90915080610b3a575b15610b0c5782905f610a34565b8284610b2457637e27328960e01b5f5260045260245ffd5b63177e802f60e01b5f523360045260245260445ffd5b503384148015610b69575b80610aff57505f838152600460205260409020546001600160a01b03163314610aff565b505f84815260056020908152604080832033845290915290205460ff16610b45565b633250574960e11b5f525f60045260245ffd5b5f818152600260205260409020546001600160a01b0316908115610bc0575090565b637e27328960e01b5f5260045260245ffd5b9060209060405190610be483836109ac565b5f82526001600160a01b038416938415610b8b575f8281526002855260409020546001600160a01b03168015159081610dac575b865f526003865260405f2060018154019055835f526002865260405f20876bffffffffffffffffffffffff60a01b8254161790558387827fddf252ad1be2c89b69c2b068fc378daa952ba7f163c4a11628f55a4df523b3ef5f80a450610d99573b610c84575b50505050565b91610cc191819495936040519384928392630a85bd0160e11b84523360048501525f60248501526044840152608060648401526084830190610922565b03815f885af15f9181610d59575b50610d225750503d15610d1b573d610ce6816109e2565b90610cf460405192836109ac565b81523d5f8383013e5b80519182610d185783633250574960e11b5f5260045260245ffd5b01fd5b6060610cfd565b909291506001600160e01b03191663757a42ff60e11b01610d4757505f808080610c7e565b633250574960e11b5f5260045260245ffd5b9091508381813d8311610d92575b610d7181836109ac565b8101031261022057516001600160e01b03198116810361022057905f610ccf565b503d610d67565b6339e3563760e11b5f525f60045260245ffd5b5f8481526004602052604080822080546001600160a01b031916905582825260038852902080545f19019055610c18565b6006546001600160a01b03163303610df157565b63118cdaa760e01b5f523360045260245ffd5b823b610e12575b5050505050565b604051630a85bd0160e11b81526001600160a01b039182166004820152918116602483015260448201939093526080606482015291169160209082908190610e5e906084830190610922565b03815f865af15f9181610ee3575b50610ec157503d15610eba573d610e82816109e2565b90610e9060405192836109ac565b81523d5f602083013e5b80519081610eb55782633250574960e11b5f5260045260245ffd5b602001fd5b6060610e9a565b6001600160e01b03191663757a42ff60e11b01610d4757505f80808080610e0b565b9091506020813d602011610f20575b81610eff602093836109ac565b8101031261022057516001600160e01b03198116810361022057905f610e6c565b3d9150610ef256fea2646970667358221220b0be87940d989012c2858867d5061d7f67601d597c940837def497b3f01be18f64736f6c634300081e0033",
    "linkReferences": {}
  },
  "methodIdentifiers": {
    "approve(address,uint256)": "095ea7b3",
    "balanceOf(address)": "70a08231",
    "getApproved(uint256)": "081812fc",
    "isApprovedForAll(address,address)": "e985e9c5",
    "mint(address)": "6a627842",
    "mintSpecific(address,uint256)": "4bc5b6c4",
    "name()": "06fdde03",
    "owner()": "8da5cb5b",
    "ownerOf(uint256)": "6352211e",
    "renounceOwnership()": "715018a6",
    "safeTransferFrom(address,address,uint256)": "42842e0e",
    "safeTransferFrom(address,address,uint256,bytes)": "b88d4fde",
    "setApprovalForAll(address,bool)": "a22cb465",
    "supportsInterface(bytes4)": "01ffc9a7",
    "symbol()": "95d89b41",
    "tokenURI(uint256)": "c87b56dd",
    "transferFrom(address,address,uint256)": "23b872dd",
    "transferOwnership(address)": "f2fde38b"
  },
  "id": 88
}