{"abi":[{"type":"constructor","inputs":[{"name":"initialAdmin","type":"address","internalType":"address"},{"name":"vaultAddress","type":"address","internalType":"address"},{"name":"_assetAddress","type":"address","internalType":"address"},{"name":"_cTokenAddress","type":"address","internalType":"address"}],"stateMutability":"nonpayable"},{"type":"function","name":"ADMIN_ROLE","inputs":[],"outputs":[{"name":"","type":"bytes32","internalType":"bytes32"}],"stateMutability":"view"},{"type":"function","name":"BASIS_POINTS_DENOMINATOR","inputs":[],"outputs":[{"name":"","type":"uint256","internalType":"uint256"}],"stateMutability":"view"},{"type":"function","name":"DEFAULT_ADMIN_ROLE","inputs":[],"outputs":[{"name":"","type":"bytes32","internalType":"bytes32"}],"stateMutability":"view"},{"type":"function","name":"R0_BASIS_POINTS","inputs":[],"outputs":[{"name":"","type":"uint256","internalType":"uint256"}],"stateMutability":"view"},{"type":"function","name":"VAULT_ROLE","inputs":[],"outputs":[{"name":"","type":"bytes32","internalType":"bytes32"}],"stateMutability":"view"},{"type":"function","name":"asset","inputs":[],"outputs":[{"name":"","type":"address","internalType":"contract IERC20"}],"stateMutability":"view"},{"type":"function","name":"cToken","inputs":[],"outputs":[{"name":"","type":"address","internalType":"address"}],"stateMutability":"view"},{"type":"function","name":"cachedExchangeRate","inputs":[],"outputs":[{"name":"","type":"uint256","internalType":"uint256"}],"stateMutability":"view"},{"type":"function","name":"depositToLendingProtocol","inputs":[{"name":"amount","type":"uint256","internalType":"uint256"}],"outputs":[{"name":"success","type":"bool","internalType":"bool"}],"stateMutability":"nonpayable"},{"type":"function","name":"getRoleAdmin","inputs":[{"name":"role","type":"bytes32","internalType":"bytes32"}],"outputs":[{"name":"","type":"bytes32","internalType":"bytes32"}],"stateMutability":"view"},{"type":"function","name":"getRoleMember","inputs":[{"name":"role","type":"bytes32","internalType":"bytes32"},{"name":"index","type":"uint256","internalType":"uint256"}],"outputs":[{"name":"","type":"address","internalType":"address"}],"stateMutability":"view"},{"type":"function","name":"getRoleMemberCount","inputs":[{"name":"role","type":"bytes32","internalType":"bytes32"}],"outputs":[{"name":"","type":"uint256","internalType":"uint256"}],"stateMutability":"view"},{"type":"function","name":"getRoleMembers","inputs":[{"name":"role","type":"bytes32","internalType":"bytes32"}],"outputs":[{"name":"","type":"address[]","internalType":"address[]"}],"stateMutability":"view"},{"type":"function","name":"grantAdminRole","inputs":[{"name":"newAdmin","type":"address","internalType":"address"}],"outputs":[],"stateMutability":"nonpayable"},{"type":"function","name":"grantAdminRoleAsDefaultAdmin","inputs":[{"name":"newAdmin","type":"address","internalType":"address"}],"outputs":[],"stateMutability":"nonpayable"},{"type":"function","name":"grantRole","inputs":[{"name":"role","type":"bytes32","internalType":"bytes32"},{"name":"account","type":"address","internalType":"address"}],"outputs":[],"stateMutability":"nonpayable"},{"type":"function","name":"grantVaultRole","inputs":[{"name":"newVault","type":"address","internalType":"address"}],"outputs":[],"stateMutability":"nonpayable"},{"type":"function","name":"hasRole","inputs":[{"name":"role","type":"bytes32","internalType":"bytes32"},{"name":"account","type":"address","internalType":"address"}],"outputs":[{"name":"","type":"bool","internalType":"bool"}],"stateMutability":"view"},{"type":"function","name":"lastExchangeRateTimestamp","inputs":[],"outputs":[{"name":"","type":"uint256","internalType":"uint256"}],"stateMutability":"view"},{"type":"function","name":"pause","inputs":[],"outputs":[],"stateMutability":"nonpayable"},{"type":"function","name":"paused","inputs":[],"outputs":[{"name":"","type":"bool","internalType":"bool"}],"stateMutability":"view"},{"type":"function","name":"redeemAllCTokens","inputs":[{"name":"recipient","type":"address","internalType":"address"}],"outputs":[{"name":"amountRedeemed","type":"uint256","internalType":"uint256"}],"stateMutability":"nonpayable"},{"type":"function","name":"renounceRole","inputs":[{"name":"role","type":"bytes32","internalType":"bytes32"},{"name":"callerConfirmation","type":"address","internalType":"address"}],"outputs":[],"stateMutability":"nonpayable"},{"type":"function","name":"repayBorrowBehalf","inputs":[{"name":"borrower","type":"address","internalType":"address"},{"name":"repayAmount","type":"uint256","internalType":"uint256"}],"outputs":[{"name":"","type":"uint256","internalType":"uint256"}],"stateMutability":"nonpayable"},{"type":"function","name":"resetTotalPrincipalDeposited","inputs":[],"outputs":[],"stateMutability":"nonpayable"},{"type":"function","name":"revokeAdminRole","inputs":[{"name":"admin","type":"address","internalType":"address"}],"outputs":[],"stateMutability":"nonpayable"},{"type":"function","name":"revokeAdminRoleAsDefaultAdmin","inputs":[{"name":"admin","type":"address","internalType":"address"}],"outputs":[],"stateMutability":"nonpayable"},{"type":"function","name":"revokeRole","inputs":[{"name":"role","type":"bytes32","internalType":"bytes32"},{"name":"account","type":"address","internalType":"address"}],"outputs":[],"stateMutability":"nonpayable"},{"type":"function","name":"revokeVaultRole","inputs":[{"name":"vault","type":"address","internalType":"address"}],"outputs":[],"stateMutability":"nonpayable"},{"type":"function","name":"supportsInterface","inputs":[{"name":"interfaceId","type":"bytes4","internalType":"bytes4"}],"outputs":[{"name":"","type":"bool","internalType":"bool"}],"stateMutability":"view"},{"type":"function","name":"totalAssets","inputs":[],"outputs":[{"name":"","type":"uint256","internalType":"uint256"}],"stateMutability":"view"},{"type":"function","name":"totalPrincipalDeposited","inputs":[],"outputs":[{"name":"","type":"uint256","internalType":"uint256"}],"stateMutability":"view"},{"type":"function","name":"unpause","inputs":[],"outputs":[],"stateMutability":"nonpayable"},{"type":"function","name":"updateExchangeRate","inputs":[],"outputs":[{"name":"newRate","type":"uint256","internalType":"uint256"}],"stateMutability":"nonpayable"},{"type":"function","name":"withdrawFromLendingProtocol","inputs":[{"name":"amount","type":"uint256","internalType":"uint256"}],"outputs":[{"name":"success","type":"bool","internalType":"bool"}],"stateMutability":"nonpayable"},{"type":"event","name":"DepositToProtocol","inputs":[{"name":"caller","type":"address","indexed":true,"internalType":"address"},{"name":"amount","type":"uint256","indexed":false,"internalType":"uint256"}],"anonymous":false},{"type":"event","name":"Paused","inputs":[{"name":"account","type":"address","indexed":false,"internalType":"address"}],"anonymous":false},{"type":"event","name":"PrincipalReset","inputs":[{"name":"oldValue","type":"uint256","indexed":false,"internalType":"uint256"},{"name":"trigger","type":"address","indexed":true,"internalType":"address"}],"anonymous":false},{"type":"event","name":"RoleAdminChanged","inputs":[{"name":"role","type":"bytes32","indexed":true,"internalType":"bytes32"},{"name":"previousAdminRole","type":"bytes32","indexed":true,"internalType":"bytes32"},{"name":"newAdminRole","type":"bytes32","indexed":true,"internalType":"bytes32"}],"anonymous":false},{"type":"event","name":"RoleGranted","inputs":[{"name":"role","type":"bytes32","indexed":true,"internalType":"bytes32"},{"name":"account","type":"address","indexed":true,"internalType":"address"},{"name":"sender","type":"address","indexed":true,"internalType":"address"}],"anonymous":false},{"type":"event","name":"RoleRevoked","inputs":[{"name":"role","type":"bytes32","indexed":true,"internalType":"bytes32"},{"name":"account","type":"address","indexed":true,"internalType":"address"},{"name":"sender","type":"address","indexed":true,"internalType":"address"}],"anonymous":false},{"type":"event","name":"Unpaused","inputs":[{"name":"account","type":"address","indexed":false,"internalType":"address"}],"anonymous":false},{"type":"event","name":"WithdrawFromProtocol","inputs":[{"name":"caller","type":"address","indexed":true,"internalType":"address"},{"name":"amount","type":"uint256","indexed":false,"internalType":"uint256"}],"anonymous":false},{"type":"event","name":"YieldTransferred","inputs":[{"name":"recipient","type":"address","indexed":true,"internalType":"address"},{"name":"amount","type":"uint256","indexed":false,"internalType":"uint256"}],"anonymous":false},{"type":"event","name":"YieldTransferredBatch","inputs":[{"name":"recipient","type":"address","indexed":true,"internalType":"address"},{"name":"totalAmount","type":"uint256","indexed":false,"internalType":"uint256"},{"name":"collections","type":"address[]","indexed":false,"internalType":"address[]"},{"name":"amounts","type":"uint256[]","indexed":false,"internalType":"uint256[]"}],"anonymous":false},{"type":"error","name":"AccessControlBadConfirmation","inputs":[]},{"type":"error","name":"AccessControlUnauthorizedAccount","inputs":[{"name":"account","type":"address","internalType":"address"},{"name":"neededRole","type":"bytes32","internalType":"bytes32"}]},{"type":"error","name":"AddressZero","inputs":[]},{"type":"error","name":"CannotRemoveLastAdmin","inputs":[{"name":"role","type":"bytes32","internalType":"bytes32"}]},{"type":"error","name":"EnforcedPause","inputs":[]},{"type":"error","name":"ExpectedPause","inputs":[]},{"type":"error","name":"InsufficientBalanceInProtocol","inputs":[]},{"type":"error","name":"LM_CallerNotRewardsController","inputs":[{"name":"caller","type":"address","internalType":"address"}]},{"type":"error","name":"LM_CallerNotVault","inputs":[{"name":"caller","type":"address","internalType":"address"}]},{"type":"error","name":"LendingManagerCTokenMintFailed","inputs":[{"name":"errorCode","type":"uint256","internalType":"uint256"}]},{"type":"error","name":"LendingManagerCTokenMintFailedBytes","inputs":[{"name":"data","type":"bytes","internalType":"bytes"}]},{"type":"error","name":"LendingManagerCTokenMintFailedReason","inputs":[{"name":"reason","type":"string","internalType":"string"}]},{"type":"error","name":"LendingManagerCTokenRedeemFailed","inputs":[{"name":"errorCode","type":"uint256","internalType":"uint256"}]},{"type":"error","name":"LendingManagerCTokenRedeemFailedBytes","inputs":[{"name":"data","type":"bytes","internalType":"bytes"}]},{"type":"error","name":"LendingManagerCTokenRedeemFailedReason","inputs":[{"name":"reason","type":"string","internalType":"string"}]},{"type":"error","name":"LendingManagerCTokenRedeemUnderlyingFailed","inputs":[{"name":"errorCode","type":"uint256","internalType":"uint256"}]},{"type":"error","name":"LendingManagerCTokenRedeemUnderlyingFailedBytes","inputs":[{"name":"data","type":"bytes","internalType":"bytes"}]},{"type":"error","name":"LendingManagerCTokenRedeemUnderlyingFailedReason","inputs":[{"name":"reason","type":"string","internalType":"string"}]},{"type":"error","name":"LendingManagerCTokenRepayBorrowBehalfFailed","inputs":[{"name":"errorCode","type":"uint256","internalType":"uint256"}]},{"type":"error","name":"LendingManagerCTokenRepayBorrowBehalfFailedBytes","inputs":[{"name":"data","type":"bytes","internalType":"bytes"}]},{"type":"error","name":"LendingManagerCTokenRepayBorrowBehalfFailedReason","inputs":[{"name":"reason","type":"string","internalType":"string"}]},{"type":"error","name":"LendingManager__BalanceCheckFailed","inputs":[{"name":"reason","type":"string","internalType":"string"},{"name":"expected","type":"uint256","internalType":"uint256"},{"name":"actual","type":"uint256","internalType":"uint256"}]},{"type":"error","name":"ReentrancyGuardReentrantCall","inputs":[]},{"type":"error","name":"SafeERC20FailedOperation","inputs":[{"name":"token","type":"address","internalType":"address"}]}],"bytecode":{"object":"0x610100806040523461024057608081612fa2803803809161002082856103e9565b8339810103126102405761003381610420565b9061004060208201610420565b91610059606061005260408501610420565b9301610420565b60016002556001600160a01b03821692909190831580156103d8575b80156103c7575b80156103b6575b6103a7576001600160a01b039081166080819052921660e081905260405163313ce56760e01b81529092602090829060049082905afa92831561024c576004936020925f9161038a575b5060a05260405163313ce56760e01b815293849182905afa801561024c5761010c925f9161035b575b5060c0526101038161044d565b610323576104c3565b6102dd575b5061011b81610543565b61028e575b5060805160e05160405163095ea7b360e01b81526001600160a01b0391821660048201525f19602482015291602091839160449183915f91165af1801561024c57610257575b5060e05160405163182df0f560e01b815290602090829060049082906001600160a01b03165afa90811561024c575f91610216575b50600555426006556040516128ae908161063482396080518181816108e601528181610df9015281816111790152818161184e0152611d05015260a05181505060c05181505060e05181818161065901528181610a7601528181610c2c01528181610ebd015281816110c7015281816117e50152611dde0152f35b90506020813d602011610244575b81610231602093836103e9565b8101031261024057515f61019b565b5f80fd5b3d9150610224565b6040513d5f823e3d90fd5b6020813d602011610286575b81610270602093836103e9565b8101031261024057518015158114610166575f80fd5b3d9150610263565b5f516020612f425f395f51905f525f5260016020526102d6906001600160a01b03167f81ca3e78767fe7984cabec333f0414457dbe87b59d50ac066de98618b846bf816105c3565b505f610120565b5f516020612f625f395f51905f525f52600160205261031c907f50efbde2d46c37e9785f1791697f77e94bb7b701e19f1930a668820722d376946105c3565b505f610111565b5f80526001602052610355837fa6eef7e35abe7026729641147f7915573c7e97b47efa546f5f6e3230263bcb496105c3565b506104c3565b61037d915060203d602011610383575b61037581836103e9565b810190610434565b5f6100f6565b503d61036b565b6103a19150833d85116103835761037581836103e9565b5f6100cd565b639fabe1c160e01b5f5260045ffd5b506001600160a01b03831615610083565b506001600160a01b0381161561007c565b506001600160a01b03851615610075565b601f909101601f19168101906001600160401b0382119082101761040c57604052565b634e487b7160e01b5f52604160045260245ffd5b51906001600160a01b038216820361024057565b90816020910312610240575160ff811681036102405790565b6001600160a01b0381165f9081525f516020612f825f395f51905f52602052604090205460ff166104be576001600160a01b03165f8181525f516020612f825f395f51905f5260205260408120805460ff191660011790553391905f516020612ee25f395f51905f528180a4600190565b505f90565b6001600160a01b0381165f9081525f516020612f025f395f51905f52602052604090205460ff166104be576001600160a01b03165f8181525f516020612f025f395f51905f5260205260408120805460ff191660011790553391905f516020612f625f395f51905f52905f516020612ee25f395f51905f529080a4600190565b6001600160a01b0381165f9081525f516020612f225f395f51905f52602052604090205460ff166104be576001600160a01b03165f8181525f516020612f225f395f51905f5260205260408120805460ff191660011790553391905f516020612f425f395f51905f52905f516020612ee25f395f51905f529080a4600190565b6001810190825f528160205260405f2054155f1461062c5780546801000000000000000081101561040c5760018101808355811015610618578390825f5260205f20015554915f5260205260405f2055600190565b634e487b7160e01b5f52603260045260245ffd5b5050505f9056fe60806040526004361015610011575f80fd5b5f3560e01c806301e1d11414610b6e57806301ffc9a714610afe57806302ce728f14610a405780631714d16b14610a23578063248a9ca3146109f15780632608f818146109965780632f2ff15d1461095957806336568abe1461091557806338d52e0f146108d15780633f4ba83a1461086b5780634e322d6d1461084e5780634fe3d970146107b95780635c975abb146107975780635eb8fa6f14610733578063606989431461068857806369e527da1461064457806375b238fc1461061d5780638070bb281461060057806381906166146105dc5780638456cb59146105835780639010d07c1461053e57806391d14854146104f657806398c4f1ac146104cf5780639a19c7b0146104ab5780639e1421d514610490578063a217fddf14610476578063a3041bf414610414578063a3246ad314610365578063a683d5741461032c578063c634b78e146102ec578063ca15c873146102c2578063cfa498a3146102a6578063d0942d2e14610255578063d2188582146101e25763d547741f1461019a575f80fd5b346101de5760403660031901126101de576101dc6004356101b9610b9e565b906101d76101d2825f525f602052600160405f20015490565b612194565b61228a565b005b5f80fd5b346101de5760203660031901126101de57335f9081525f5160206128195f395f51905f52602052604090205460ff16156102425761021e6121e7565b6102266121cc565b6020610233600435611cea565b60016002556040519015158152f35b6310e0fa1960e21b5f523360045260245ffd5b346101de5760203660031901126101de57335f9081525f5160206128195f395f51905f52602052604090205460ff1615610242576102916121e7565b6102996121cc565b60206102336004356117d0565b346101de575f3660031901126101de5760206040516127108152f35b346101de5760203660031901126101de576004355f526001602052602060405f2054604051908152f35b346101de5760203660031901126101de57610325610308610b88565b6103106120fc565b6103186121e7565b6103206121cc565b611689565b6001600255005b346101de5760203660031901126101de57610325610348610b88565b610350612145565b6103586121e7565b6103606121cc565b6116ec565b346101de5760203660031901126101de576004355f52600160205260405f20604051806020835491828152019081935f5260205f20905f5b8181106103fe57505050816103b3910382610bb4565b604051918291602083019060208452518091526040830191905f5b8181106103dc575050500390f35b82516001600160a01b03168452859450602093840193909201916001016103ce565b825484526020909301926001928301920161039d565b346101de575f3660031901126101de5761042c6120fc565b6104346121e7565b61043c6121cc565b6004545f6004556040519081527f577a284c251aa48cc8c69d96d3e7e20795f6fe1c6dd1c7287136c9cc05e3459060203392a26001600255005b346101de575f3660031901126101de5760206040515f8152f35b346101de575f3660031901126101de57602060405160058152f35b346101de5760203660031901126101de576103256104c7610b88565b6103506120fc565b346101de575f3660031901126101de5760206040515f5160206128395f395f51905f528152f35b346101de5760403660031901126101de5761050f610b9e565b6004355f525f60205260405f209060018060a01b03165f52602052602060ff60405f2054166040519015158152f35b346101de5760403660031901126101de576004355f526001602052602061056a60243560405f206126a3565b905460405160039290921b1c6001600160a01b03168152f35b346101de575f3660031901126101de5761059b6120fc565b6105a36121cc565b600160ff1960035416176003557f62e78cea01bee320cd4e420270b5ea74000d11b0c9f74754ebdbfc544b05a2586020604051338152a1005b346101de5760203660031901126101de576103256105f8610b88565b610310612145565b346101de575f3660031901126101de576020600454604051908152f35b346101de575f3660031901126101de5760206040515f5160206128595f395f51905f528152f35b346101de575f3660031901126101de576040517f00000000000000000000000000000000000000000000000000000000000000006001600160a01b03168152602090f35b346101de5760203660031901126101de576106a1610b88565b6106a96120fc565b6106b16121e7565b6106b96121cc565b6001600160a01b038116908115610724576106d390612354565b6106de576001600255005b5f5160206128395f395f51905f525f52600160205261071d907f81ca3e78767fe7984cabec333f0414457dbe87b59d50ac066de98618b846bf816126cc565b5080610325565b639fabe1c160e01b5f5260045ffd5b346101de5760203660031901126101de5761074c610b88565b335f9081525f5160206128195f395f51905f52602052604090205460ff16156102425761078a60209161077d6121e7565b6107856121cc565b6110a2565b6001600255604051908152f35b346101de575f3660031901126101de57602060ff600354166040519015158152f35b346101de5760203660031901126101de576107d2610b88565b6107da6120fc565b6107e26121e7565b6107ea6121cc565b6001600160a01b0381169081156107245761080490612501565b61080f576001600255005b5f5160206128395f395f51905f525f52600160205261071d907f81ca3e78767fe7984cabec333f0414457dbe87b59d50ac066de98618b846bf8161273b565b346101de575f3660031901126101de576020600554604051908152f35b346101de575f3660031901126101de576108836120fc565b60035460ff8116156108c25760ff19166003557f5db9ee0a495bf2e6ff9c91a7834c1ba4fdd244a5e8aa4e537bd38aeae4b073aa6020604051338152a1005b638dfc202b60e01b5f5260045ffd5b346101de575f3660031901126101de576040517f00000000000000000000000000000000000000000000000000000000000000006001600160a01b03168152602090f35b346101de5760403660031901126101de5761092e610b9e565b336001600160a01b0382160361094a576101dc9060043561228a565b63334bd91960e11b5f5260045ffd5b346101de5760403660031901126101de576101dc600435610978610b9e565b906109916101d2825f525f602052600160405f20015490565b612250565b346101de5760403660031901126101de576109af610b88565b335f9081525f5160206128195f395f51905f52602052604090205460ff16156102425761078a6020916109e06121e7565b6109e86121cc565b60243590610dcf565b346101de5760203660031901126101de576020610a1b6004355f525f602052600160405f20015490565b604051908152f35b346101de575f3660031901126101de576020600654604051908152f35b346101de575f3660031901126101de57610a586120fc565b610a606121cc565b60405163bd6d894d60e01b81526020816004815f7f00000000000000000000000000000000000000000000000000000000000000006001600160a01b03165af18015610af3575f90610ac0575b8060209160055542600655604051908152f35b506020813d602011610aeb575b81610ada60209383610bb4565b810103126101de5760209051610aad565b3d9150610acd565b6040513d5f823e3d90fd5b346101de5760203660031901126101de5760043563ffffffff60e01b81168091036101de57602090635a05180f60e01b8114908115610b43575b506040519015158152f35b637965db0b60e01b811491508115610b5d575b5082610b38565b6301ffc9a760e01b14905082610b56565b346101de575f3660031901126101de576020610a1b610c11565b600435906001600160a01b03821682036101de57565b602435906001600160a01b03821682036101de57565b90601f8019910116810190811067ffffffffffffffff821117610bd657604052565b634e487b7160e01b5f52604160045260245ffd5b81810292918115918404141715610bfd57565b634e487b7160e01b5f52601160045260245ffd5b6040516370a0823160e01b81523060048201526020816024817f00000000000000000000000000000000000000000000000000000000000000006001600160a01b03165afa908115610af3575f91610c9b575b506005549080158015610c93575b610c8d57670de0b6b3a764000091610c8991610bea565b0490565b50505f90565b508115610c72565b90506020813d602011610cc5575b81610cb660209383610bb4565b810103126101de57515f610c64565b3d9150610ca9565b91908201809211610bfd57565b5f9060033d11610ce657565b905060045f803e5f5160e01c90565b5f60443d10610d5b576040513d600319016004823e8051913d602484011167ffffffffffffffff841117610d66578282019283519167ffffffffffffffff8311610d5e573d84016003190185840160200111610d5e5750610d5b92910160200190610bb4565b90565b949350505050565b92915050565b805180835260209291819084018484015e5f828201840152601f01601f1916010190565b3d15610dca573d9067ffffffffffffffff8211610bd65760405191610dbf601f8201601f191660200184610bb4565b82523d5f602084013e565b606090565b6001600160a01b03811615610724578115610c8d576040516370a0823160e01b81523060048201527f00000000000000000000000000000000000000000000000000000000000000006001600160a01b03811691602081602481865afa918215610af35785915f9361105c575b5092610e5060209260249530903390612205565b6040516370a0823160e01b815230600482015293849182905afa918215610af3575f92611028575b50610e838482610ccd565b8203610fbd5750506040516304c11f0360e31b81526001600160a01b0390911660048201526024810191909152602081806044810103815f7f00000000000000000000000000000000000000000000000000000000000000006001600160a01b03165af15f9181610f89575b50610f6f57610efc610cda565b6308c379a014610f37575b610f33610f12610d90565b60405163088aa88360e41b8152602060048201529182916024830190610d6c565b0390fd5b610f3f610cf5565b80610f4a5750610f07565b6040516322a1c94d60e11b815260206004820152908190610f33906024830190610d6c565b80610f775790565b63442a3ba360e01b5f5260045260245ffd5b9091506020813d602011610fb5575b81610fa560209383610bb4565b810103126101de5751905f610eef565b3d9150610f98565b90610fca8460c493610ccd565b9060405191633e62af1560e01b835260606004840152602660648401527f4c4d3a207265706179426568616c662061737365742072656365697074206d696084840152650e6dac2e8c6d60d31b60a484015260248301526044820152fd5b9091506020813d602011611054575b8161104460209383610bb4565b810103126101de5751905f610e78565b3d9150611037565b915091506020813d60201161108d575b8161107960209383610bb4565b810103126101de5751908490610e50610e3c565b3d915061106c565b91908203918211610bfd57565b6001600160a01b0381168015610724576040516370a0823160e01b81523060048201527f00000000000000000000000000000000000000000000000000000000000000006001600160a01b031690602081602481855afa908115610af3575f91611657575b50801561164f5760405163a6afed9560e01b81526020816004815f875af18015610af357611620575b5060405163182df0f560e01b8152602081600481865afa908115610af3575f916115ee575b508015806115e6575b61157957611175670de0b6b3a76400009183610bea565b04937f00000000000000000000000000000000000000000000000000000000000000009160018060a01b03831693604051916370a0823160e01b8352306004840152602083602481895afa928315610af3575f93611545575b505f916024602092604051948593849263db006a7560e01b845260048401525af15f9181611511575b5061127357611204610cda565b6308c379a01461123b575b610f3361121a610d90565b604051632280bc3960e11b8152602060048201529182916024830190610d6c565b611243610cf5565b8061124e575061120f565b604051630dc3586760e41b815260206004820152908190610f33906024830190610d6c565b806114ff57506040516370a0823160e01b815230600482015290602082602481885afa8015610af3575f906114cb575b6112ad9250611095565b94808611156114ba5760016112c28288611095565b116114535750846112fe575b5050507f67888544f32c15729339b4e2b7c700474afc1f9759f7dc0b4b49d1153cf147076020604051848152a290565b6040516370a0823160e01b815230600482015290602082602481875afa928315610af35786925f94611415575b506020926024959261133c926122c0565b6040516370a0823160e01b815230600482015293849182905afa918215610af3575f926113e1575b5061136f8482611095565b820361137b57806112ce565b906113888460c493611095565b9060405191633e62af1560e01b835260606004840152602160648401527f4c4d3a2072656465656d416c6c2061737365742073656e64206d69736d6174636084840152600d60fb1b60a484015260248301526044820152fd5b9091506020813d60201161140d575b816113fd60209383610bb4565b810103126101de5751905f611364565b3d91506113f0565b92509250926020823d60201161144b575b8161143360209383610bb4565b810103126101de57905190929091859190602061132b565b3d9150611426565b60c4908660405191633e62af1560e01b835260606004840152602c60648401527f4c4d3a2072656465656d416c6c2063546f6b656e2e72656465656d207265636560848401526b0d2e0e840dad2e6dac2e8c6d60a31b60a484015260248301526044820152fd5b60016114c68783611095565b6112c2565b506020823d6020116114f7575b816114e560209383610bb4565b810103126101de576112ad91516112a3565b3d91506114d8565b63515ce46360e01b5f5260045260245ffd5b9091506020813d60201161153d575b8161152d60209383610bb4565b810103126101de5751905f6111f7565b3d9150611520565b9092506020813d602011611571575b8161156160209383610bb4565b810103126101de5751915f6111ce565b3d9150611554565b604051633e62af1560e01b815260606004820152603160648201527f4c4d3a2072656465656d416c6c2063546f6b656e2e72656465656d2065786368608482015270616e67652072617465206973207a65726f60781b60a4820152600160248201525f604482015260c490fd5b50600161115e565b90506020813d602011611618575b8161160960209383610bb4565b810103126101de57515f611155565b3d91506115fc565b6020813d602011611647575b8161163960209383610bb4565b810103126101de5751611130565b3d915061162c565b505050505f90565b90506020813d602011611681575b8161167260209383610bb4565b810103126101de57515f611107565b3d9150611665565b6001600160a01b038116908115610724576116a3906123ec565b6116aa5750565b5f5160206128595f395f51905f525f5260016020526116e9907f50efbde2d46c37e9785f1791697f77e94bb7b701e19f1930a668820722d376946126cc565b50565b6001600160a01b038116908115610724575f5160206128595f395f51905f525f52600160208190527f50efbde2d46c37e9785f1791697f77e94bb7b701e19f1930a668820722d3769454111561178b5761174590612592565b61174c5750565b5f5160206128595f395f51905f525f5260016020526116e9907f50efbde2d46c37e9785f1791697f77e94bb7b701e19f1930a668820722d3769461273b565b60405162461bcd60e51b815260206004820152601860248201527f43616e6e6f742072656d6f7665206c6173742061646d696e00000000000000006044820152606490fd5b8015611ce45760405163a6afed9560e01b81527f00000000000000000000000000000000000000000000000000000000000000006001600160a01b0316906020816004815f865af1908115610af3575f91611cb2575b50611c745781611834610c11565b10611c65576040516370a0823160e01b81523060048201527f00000000000000000000000000000000000000000000000000000000000000006001600160a01b03811692909190602082602481875afa918215610af3575f92611c30575b5060205f9160246040518094819363852a12e360e01b83528a60048401525af15f9181611bfc575b50611936576118c7610cda565b6308c379a0146118fe575b610f336118dd610d90565b6040516302d5607560e41b8152602060048201529182916024830190610d6c565b611906610cf5565b8061191157506118d2565b604051630794cdd160e51b815260206004820152908190610f33906024830190610d6c565b80611bea57506040516370a0823160e01b815230600482015290602082602481875afa918215610af3575f92611bb6575b506119728582610ccd565b8203611b3c5750506040516370a0823160e01b8152306004820152602081602481865afa918215610af35784915f93611b03575b50926119b860209260249533906122c0565b6040516370a0823160e01b815230600482015293849182905afa918215610af3575f92611acf575b506119eb8382611095565b8203611a74575050600454818110611a3f5750611a0a81600454611095565b6004555b6040519081527f67888544f32c15729339b4e2b7c700474afc1f9759f7dc0b4b49d1153cf1470760203392a2600190565b6040519081527f577a284c251aa48cc8c69d96d3e7e20795f6fe1c6dd1c7287136c9cc05e3459060203392a25f600455611a0e565b60a492611a8091611095565b9060405191633e62af1560e01b835260606004840152602060648401527f4c4d3a2077697468647261772061737365742073656e64206d69736d61746368608484015260248301526044820152fd5b9091506020813d602011611afb575b81611aeb60209383610bb4565b810103126101de5751905f6119e0565b3d9150611ade565b915091506020813d602011611b34575b81611b2060209383610bb4565b810103126101de57519083906119b86119a6565b3d9150611b13565b90611b498560c493610ccd565b9060405191633e62af1560e01b835260606004840152603560648401527f4c4d3a2077697468647261772063546f6b656e2e72656465656d556e6465726c6084840152740f2d2dcce40e4cac6cad2e0e840dad2e6dac2e8c6d605b1b60a484015260248301526044820152fd5b9091506020813d602011611be2575b81611bd260209383610bb4565b810103126101de5751905f611967565b3d9150611bc5565b635db98c9760e11b5f5260045260245ffd5b9091506020813d602011611c28575b81611c1860209383610bb4565b810103126101de5751905f6118ba565b3d9150611c0b565b9091506020813d602011611c5d575b81611c4c60209383610bb4565b810103126101de5751906020611892565b3d9150611c3f565b631f996b4b60e21b5f5260045ffd5b60405162461bcd60e51b81526020600482015260166024820152751058d8dc9d59481a5b9d195c995cdd0819985a5b195960521b6044820152606490fd5b90506020813d602011611cdc575b81611ccd60209383610bb4565b810103126101de57515f611826565b3d9150611cc0565b50600190565b8015611ce4576040516370a0823160e01b81523060048201527f00000000000000000000000000000000000000000000000000000000000000006001600160a01b03811691602081602481865afa908115610af35784905f926120c6575b50611d57919230903390612205565b6040516370a0823160e01b815230600482015290602082602481865afa918215610af3575f92612092575b50611d8d8482610ccd565b820361202b5750506040516370a0823160e01b815230600482015290602082602481845afa918215610af3575f92611ff7575b5060405163140e25ad60e31b8152600481018490526020816024815f7f00000000000000000000000000000000000000000000000000000000000000006001600160a01b03165af15f9181611fc3575b50611e8c57611e1d610cda565b6308c379a014611e54575b610f33611e33610d90565b6040516301da159560e41b8152602060048201529182916024830190610d6c565b611e5c610cf5565b80611e675750611e28565b6040516302b84f2960e11b815260206004820152908190610f33906024830190610d6c565b80611fb15750906020602492604051938480926370a0823160e01b82523060048301525afa918215610af3575f92611f7d575b50611eca8382611095565b8203611f12575050611ede81600454610ccd565b6004556040519081527fc6e278b89e8eca6811176d094164326e61b124e5642d6aef9cbd95440b01485460203392a2600190565b60c492611f1e91611095565b9060405191633e62af1560e01b835260606004840152602760648401527f4c4d3a206465706f7369742063546f6b656e2e6d696e7420737570706c79206d6084840152660d2e6dac2e8c6d60cb1b60a484015260248301526044820152fd5b9091506020813d602011611fa9575b81611f9960209383610bb4565b810103126101de5751905f611ebf565b3d9150611f8c565b6350e3a86d60e11b5f5260045260245ffd5b9091506020813d602011611fef575b81611fdf60209383610bb4565b810103126101de5751905f611e10565b3d9150611fd2565b9091506020813d602011612023575b8161201360209383610bb4565b810103126101de5751905f611dc0565b3d9150612006565b906120388460c493610ccd565b9060405191633e62af1560e01b835260606004840152602260648401527f4c4d3a206465706f7369742061737365742072656365697074206d69736d61746084840152610c6d60f31b60a484015260248301526044820152fd5b9091506020813d6020116120be575b816120ae60209383610bb4565b810103126101de5751905f611d82565b3d91506120a1565b9150506020813d6020116120f4575b816120e260209383610bb4565b810103126101de575183611d57611d48565b3d91506120d5565b335f9081525f5160206127f95f395f51905f52602052604090205460ff161561212157565b63e2517d3f60e01b5f52336004525f5160206128595f395f51905f5260245260445ffd5b335f9081527fad3228b676f7d3cd4284a5443f17f1962b36e491b30a40b2405849e597ba5fb5602052604090205460ff161561217d57565b63e2517d3f60e01b5f52336004525f60245260445ffd5b5f8181526020818152604080832033845290915290205460ff16156121b65750565b63e2517d3f60e01b5f523360045260245260445ffd5b60ff600354166121d857565b63d93c066560e01b5f5260045ffd5b60028054146121f65760028055565b633ee5aeb560e01b5f5260045ffd5b6040516323b872dd60e01b60208201526001600160a01b03928316602482015292909116604483015260648083019390935291815261224e91612249608483610bb4565b6122fc565b565b61225a828261247f565b918261226557505090565b5f91825260016020526040909120612286916001600160a01b0316906126cc565b5090565b6122948282612623565b918261229f57505090565b5f91825260016020526040909120612286916001600160a01b03169061273b565b60405163a9059cbb60e01b60208201526001600160a01b0392909216602483015260448083019390935291815261224e91612249606483610bb4565b905f602091828151910182855af115610af3575f513d61234b57506001600160a01b0381163b155b61232b5750565b635274afe760e01b5f9081526001600160a01b0391909116600452602490fd5b60011415612324565b6001600160a01b0381165f9081525f5160206128195f395f51905f52602052604090205460ff166123e7576001600160a01b03165f8181525f5160206128195f395f51905f5260205260408120805460ff191660011790553391905f5160206128395f395f51905f52907f2f8788117e7eff1d82e926ec794901d17c78024a50270940304540a733656f0d9080a4600190565b505f90565b6001600160a01b0381165f9081525f5160206127f95f395f51905f52602052604090205460ff166123e7576001600160a01b03165f8181525f5160206127f95f395f51905f5260205260408120805460ff191660011790553391905f5160206128595f395f51905f52907f2f8788117e7eff1d82e926ec794901d17c78024a50270940304540a733656f0d9080a4600190565b5f818152602081815260408083206001600160a01b038616845290915290205460ff16610c8d575f818152602081815260408083206001600160a01b0395909516808452949091528120805460ff19166001179055339291907f2f8788117e7eff1d82e926ec794901d17c78024a50270940304540a733656f0d9080a4600190565b6001600160a01b0381165f9081525f5160206128195f395f51905f52602052604090205460ff16156123e7576001600160a01b03165f8181525f5160206128195f395f51905f5260205260408120805460ff191690553391905f5160206128395f395f51905f52907ff6391f5c32d9c69d2a47ea670b442974b53935d1edc7fd64eb21e047a839171b9080a4600190565b6001600160a01b0381165f9081525f5160206127f95f395f51905f52602052604090205460ff16156123e7576001600160a01b03165f8181525f5160206127f95f395f51905f5260205260408120805460ff191690553391905f5160206128595f395f51905f52907ff6391f5c32d9c69d2a47ea670b442974b53935d1edc7fd64eb21e047a839171b9080a4600190565b5f818152602081815260408083206001600160a01b038616845290915290205460ff1615610c8d575f818152602081815260408083206001600160a01b0395909516808452949091528120805460ff19169055339291907ff6391f5c32d9c69d2a47ea670b442974b53935d1edc7fd64eb21e047a839171b9080a4600190565b80548210156126b8575f5260205f2001905f90565b634e487b7160e01b5f52603260045260245ffd5b6001810190825f528160205260405f2054155f1461273457805468010000000000000000811015610bd65761272161270b8260018794018555846126a3565b819391549060031b91821b915f19901b19161790565b905554915f5260205260405f2055600190565b5050505f90565b906001820191815f528260205260405f20548015155f1461164f575f198101818111610bfd5782545f19810191908211610bfd578181036127c3575b505050805480156127af575f19019061279082826126a3565b8154905f199060031b1b19169055555f526020525f6040812055600190565b634e487b7160e01b5f52603160045260245ffd5b6127e36127d361270b93866126a3565b90549060031b1c928392866126a3565b90555f528360205260405f20555f808061277756fe7d7ffb7a348e1c6a02869081a26547b49160dd3df72d1d75a570eb9b698292ec57c45785f0bfdd0436a24ca59ce8cf4a246623230045d7db55b0ff1db74c582231e0210044b4f6757ce6aa31f9c6e8d4896d24a755014887391a926c5224d959a49807205ce4d355092ef5a8a18f56e8913cf4a201fbe287825b095693c21775a26469706673582212206ebf28f7b29ee563795ad96eace1e752e79b3b56ee856f41d5eb41972ca2ed2e64736f6c634300081e00332f8788117e7eff1d82e926ec794901d17c78024a50270940304540a733656f0d7d7ffb7a348e1c6a02869081a26547b49160dd3df72d1d75a570eb9b698292ec57c45785f0bfdd0436a24ca59ce8cf4a246623230045d7db55b0ff1db74c582231e0210044b4f6757ce6aa31f9c6e8d4896d24a755014887391a926c5224d959a49807205ce4d355092ef5a8a18f56e8913cf4a201fbe287825b095693c21775ad3228b676f7d3cd4284a5443f17f1962b36e491b30a40b2405849e597ba5fb5","linkReferences":{}},"methodIdentifiers":{"ADMIN_ROLE()":"75b238fc","BASIS_POINTS_DENOMINATOR()":"cfa498a3","DEFAULT_ADMIN_ROLE()":"a217fddf","R0_BASIS_POINTS()":"9e1421d5","VAULT_ROLE()":"98c4f1ac","asset()":"38d52e0f","cToken()":"69e527da","cachedExchangeRate()":"4e322d6d","depositToLendingProtocol(uint256)":"d2188582","getRoleAdmin(bytes32)":"248a9ca3","getRoleMember(bytes32,uint256)":"9010d07c","getRoleMemberCount(bytes32)":"ca15c873","getRoleMembers(bytes32)":"a3246ad3","grantAdminRole(address)":"c634b78e","grantAdminRoleAsDefaultAdmin(address)":"81906166","grantRole(bytes32,address)":"2f2ff15d","grantVaultRole(address)":"60698943","hasRole(bytes32,address)":"91d14854","lastExchangeRateTimestamp()":"1714d16b","pause()":"8456cb59","paused()":"5c975abb","redeemAllCTokens(address)":"5eb8fa6f","renounceRole(bytes32,address)":"36568abe","repayBorrowBehalf(address,uint256)":"2608f818","resetTotalPrincipalDeposited()":"a3041bf4","revokeAdminRole(address)":"9a19c7b0","revokeAdminRoleAsDefaultAdmin(address)":"a683d574","revokeRole(bytes32,address)":"d547741f","revokeVaultRole(address)":"4fe3d970","supportsInterface(bytes4)":"01ffc9a7","totalAssets()":"01e1d114","totalPrincipalDeposited()":"8070bb28","unpause()":"3f4ba83a","updateExchangeRate()":"02ce728f","withdrawFromLendingProtocol(uint256)":"d0942d2e"},"id":54}