{"abi":[{"type":"constructor","inputs":[{"name":"initialAdmin","type":"address","internalType":"address"},{"name":"vaultAddress","type":"address","internalType":"address"},{"name":"_assetAddress","type":"address","internalType":"address"},{"name":"_cTokenAddress","type":"address","internalType":"address"}],"stateMutability":"nonpayable"},{"type":"function","name":"ADMIN_ROLE","inputs":[],"outputs":[{"name":"","type":"bytes32","internalType":"bytes32"}],"stateMutability":"view"},{"type":"function","name":"BASIS_POINTS_DENOMINATOR","inputs":[],"outputs":[{"name":"","type":"uint256","internalType":"uint256"}],"stateMutability":"view"},{"type":"function","name":"DEFAULT_ADMIN_ROLE","inputs":[],"outputs":[{"name":"","type":"bytes32","internalType":"bytes32"}],"stateMutability":"view"},{"type":"function","name":"R0_BASIS_POINTS","inputs":[],"outputs":[{"name":"","type":"uint256","internalType":"uint256"}],"stateMutability":"view"},{"type":"function","name":"VAULT_ROLE","inputs":[],"outputs":[{"name":"","type":"bytes32","internalType":"bytes32"}],"stateMutability":"view"},{"type":"function","name":"addSupportedMarket","inputs":[{"name":"market","type":"address","internalType":"address"}],"outputs":[],"stateMutability":"nonpayable"},{"type":"function","name":"asset","inputs":[],"outputs":[{"name":"","type":"address","internalType":"contract IERC20"}],"stateMutability":"view"},{"type":"function","name":"cToken","inputs":[],"outputs":[{"name":"","type":"address","internalType":"address"}],"stateMutability":"view"},{"type":"function","name":"cachedExchangeRate","inputs":[],"outputs":[{"name":"","type":"uint256","internalType":"uint256"}],"stateMutability":"view"},{"type":"function","name":"depositToLendingProtocol","inputs":[{"name":"amount","type":"uint256","internalType":"uint256"}],"outputs":[{"name":"success","type":"bool","internalType":"bool"}],"stateMutability":"nonpayable"},{"type":"function","name":"getGlobalCollateralFactor","inputs":[],"outputs":[{"name":"","type":"uint256","internalType":"uint256"}],"stateMutability":"view"},{"type":"function","name":"getLiquidationIncentive","inputs":[],"outputs":[{"name":"","type":"uint256","internalType":"uint256"}],"stateMutability":"view"},{"type":"function","name":"getRoleAdmin","inputs":[{"name":"role","type":"bytes32","internalType":"bytes32"}],"outputs":[{"name":"","type":"bytes32","internalType":"bytes32"}],"stateMutability":"view"},{"type":"function","name":"getRoleMember","inputs":[{"name":"role","type":"bytes32","internalType":"bytes32"},{"name":"index","type":"uint256","internalType":"uint256"}],"outputs":[{"name":"","type":"address","internalType":"address"}],"stateMutability":"view"},{"type":"function","name":"getRoleMemberCount","inputs":[{"name":"role","type":"bytes32","internalType":"bytes32"}],"outputs":[{"name":"","type":"uint256","internalType":"uint256"}],"stateMutability":"view"},{"type":"function","name":"getRoleMembers","inputs":[{"name":"role","type":"bytes32","internalType":"bytes32"}],"outputs":[{"name":"","type":"address[]","internalType":"address[]"}],"stateMutability":"view"},{"type":"function","name":"getSupportedMarkets","inputs":[],"outputs":[{"name":"markets","type":"address[]","internalType":"address[]"}],"stateMutability":"view"},{"type":"function","name":"getTotalBorrowVolume","inputs":[],"outputs":[{"name":"","type":"uint256","internalType":"uint256"}],"stateMutability":"view"},{"type":"function","name":"getTotalLiquidationVolume","inputs":[],"outputs":[{"name":"","type":"uint256","internalType":"uint256"}],"stateMutability":"view"},{"type":"function","name":"getTotalMarketParticipants","inputs":[],"outputs":[{"name":"","type":"uint256","internalType":"uint256"}],"stateMutability":"view"},{"type":"function","name":"getTotalSupplyVolume","inputs":[],"outputs":[{"name":"","type":"uint256","internalType":"uint256"}],"stateMutability":"view"},{"type":"function","name":"globalCollateralFactor","inputs":[],"outputs":[{"name":"","type":"uint256","internalType":"uint256"}],"stateMutability":"view"},{"type":"function","name":"grantAdminRole","inputs":[{"name":"newAdmin","type":"address","internalType":"address"}],"outputs":[],"stateMutability":"nonpayable"},{"type":"function","name":"grantAdminRoleAsDefaultAdmin","inputs":[{"name":"newAdmin","type":"address","internalType":"address"}],"outputs":[],"stateMutability":"nonpayable"},{"type":"function","name":"grantRole","inputs":[{"name":"role","type":"bytes32","internalType":"bytes32"},{"name":"account","type":"address","internalType":"address"}],"outputs":[],"stateMutability":"nonpayable"},{"type":"function","name":"grantVaultRole","inputs":[{"name":"newVault","type":"address","internalType":"address"}],"outputs":[],"stateMutability":"nonpayable"},{"type":"function","name":"hasRole","inputs":[{"name":"role","type":"bytes32","internalType":"bytes32"},{"name":"account","type":"address","internalType":"address"}],"outputs":[{"name":"","type":"bool","internalType":"bool"}],"stateMutability":"view"},{"type":"function","name":"lastExchangeRateTimestamp","inputs":[],"outputs":[{"name":"","type":"uint256","internalType":"uint256"}],"stateMutability":"view"},{"type":"function","name":"liquidationIncentive","inputs":[],"outputs":[{"name":"","type":"uint256","internalType":"uint256"}],"stateMutability":"view"},{"type":"function","name":"pause","inputs":[],"outputs":[],"stateMutability":"nonpayable"},{"type":"function","name":"paused","inputs":[],"outputs":[{"name":"","type":"bool","internalType":"bool"}],"stateMutability":"view"},{"type":"function","name":"recordLiquidationVolume","inputs":[{"name":"liquidationAmount","type":"uint256","internalType":"uint256"}],"outputs":[],"stateMutability":"nonpayable"},{"type":"function","name":"redeemAllCTokens","inputs":[{"name":"recipient","type":"address","internalType":"address"}],"outputs":[{"name":"amountRedeemed","type":"uint256","internalType":"uint256"}],"stateMutability":"nonpayable"},{"type":"function","name":"removeSupportedMarket","inputs":[{"name":"market","type":"address","internalType":"address"}],"outputs":[],"stateMutability":"nonpayable"},{"type":"function","name":"renounceRole","inputs":[{"name":"role","type":"bytes32","internalType":"bytes32"},{"name":"callerConfirmation","type":"address","internalType":"address"}],"outputs":[],"stateMutability":"nonpayable"},{"type":"function","name":"repayBorrowBehalf","inputs":[{"name":"borrower","type":"address","internalType":"address"},{"name":"repayAmount","type":"uint256","internalType":"uint256"}],"outputs":[{"name":"","type":"uint256","internalType":"uint256"}],"stateMutability":"nonpayable"},{"type":"function","name":"resetTotalPrincipalDeposited","inputs":[],"outputs":[],"stateMutability":"nonpayable"},{"type":"function","name":"revokeAdminRole","inputs":[{"name":"admin","type":"address","internalType":"address"}],"outputs":[],"stateMutability":"nonpayable"},{"type":"function","name":"revokeAdminRoleAsDefaultAdmin","inputs":[{"name":"admin","type":"address","internalType":"address"}],"outputs":[],"stateMutability":"nonpayable"},{"type":"function","name":"revokeRole","inputs":[{"name":"role","type":"bytes32","internalType":"bytes32"},{"name":"account","type":"address","internalType":"address"}],"outputs":[],"stateMutability":"nonpayable"},{"type":"function","name":"revokeVaultRole","inputs":[{"name":"vault","type":"address","internalType":"address"}],"outputs":[],"stateMutability":"nonpayable"},{"type":"function","name":"setGlobalCollateralFactor","inputs":[{"name":"_globalCollateralFactor","type":"uint256","internalType":"uint256"}],"outputs":[],"stateMutability":"nonpayable"},{"type":"function","name":"setLiquidationIncentive","inputs":[{"name":"_liquidationIncentive","type":"uint256","internalType":"uint256"}],"outputs":[],"stateMutability":"nonpayable"},{"type":"function","name":"supportedMarkets","inputs":[{"name":"","type":"address","internalType":"address"}],"outputs":[{"name":"","type":"bool","internalType":"bool"}],"stateMutability":"view"},{"type":"function","name":"supportsInterface","inputs":[{"name":"interfaceId","type":"bytes4","internalType":"bytes4"}],"outputs":[{"name":"","type":"bool","internalType":"bool"}],"stateMutability":"view"},{"type":"function","name":"totalAssets","inputs":[],"outputs":[{"name":"","type":"uint256","internalType":"uint256"}],"stateMutability":"view"},{"type":"function","name":"totalBorrowVolume","inputs":[],"outputs":[{"name":"","type":"uint256","internalType":"uint256"}],"stateMutability":"view"},{"type":"function","name":"totalLiquidationVolume","inputs":[],"outputs":[{"name":"","type":"uint256","internalType":"uint256"}],"stateMutability":"view"},{"type":"function","name":"totalMarketParticipants","inputs":[],"outputs":[{"name":"","type":"uint256","internalType":"uint256"}],"stateMutability":"view"},{"type":"function","name":"totalPrincipalDeposited","inputs":[],"outputs":[{"name":"","type":"uint256","internalType":"uint256"}],"stateMutability":"view"},{"type":"function","name":"totalSupplyVolume","inputs":[],"outputs":[{"name":"","type":"uint256","internalType":"uint256"}],"stateMutability":"view"},{"type":"function","name":"unpause","inputs":[],"outputs":[],"stateMutability":"nonpayable"},{"type":"function","name":"updateExchangeRate","inputs":[],"outputs":[{"name":"newRate","type":"uint256","internalType":"uint256"}],"stateMutability":"nonpayable"},{"type":"function","name":"updateMarketParticipants","inputs":[{"name":"_totalMarketParticipants","type":"uint256","internalType":"uint256"}],"outputs":[],"stateMutability":"nonpayable"},{"type":"function","name":"withdrawFromLendingProtocol","inputs":[{"name":"amount","type":"uint256","internalType":"uint256"}],"outputs":[{"name":"success","type":"bool","internalType":"bool"}],"stateMutability":"nonpayable"},{"type":"event","name":"BorrowVolumeUpdated","inputs":[{"name":"totalVolume","type":"uint256","indexed":true,"internalType":"uint256"},{"name":"incrementAmount","type":"uint256","indexed":true,"internalType":"uint256"},{"name":"timestamp","type":"uint256","indexed":true,"internalType":"uint256"}],"anonymous":false},{"type":"event","name":"DepositToProtocol","inputs":[{"name":"caller","type":"address","indexed":true,"internalType":"address"},{"name":"amount","type":"uint256","indexed":false,"internalType":"uint256"}],"anonymous":false},{"type":"event","name":"GlobalCollateralFactorUpdated","inputs":[{"name":"newFactor","type":"uint256","indexed":true,"internalType":"uint256"},{"name":"timestamp","type":"uint256","indexed":true,"internalType":"uint256"}],"anonymous":false},{"type":"event","name":"LendingManagerRoleGranted","inputs":[{"name":"role","type":"bytes32","indexed":true,"internalType":"bytes32"},{"name":"account","type":"address","indexed":true,"internalType":"address"},{"name":"sender","type":"address","indexed":false,"internalType":"address"},{"name":"timestamp","type":"uint256","indexed":false,"internalType":"uint256"}],"anonymous":false},{"type":"event","name":"LendingManagerRoleRevoked","inputs":[{"name":"role","type":"bytes32","indexed":true,"internalType":"bytes32"},{"name":"account","type":"address","indexed":true,"internalType":"address"},{"name":"sender","type":"address","indexed":false,"internalType":"address"},{"name":"timestamp","type":"uint256","indexed":false,"internalType":"uint256"}],"anonymous":false},{"type":"event","name":"LiquidationIncentiveUpdated","inputs":[{"name":"newIncentive","type":"uint256","indexed":true,"internalType":"uint256"},{"name":"timestamp","type":"uint256","indexed":true,"internalType":"uint256"}],"anonymous":false},{"type":"event","name":"LiquidationVolumeUpdated","inputs":[{"name":"totalVolume","type":"uint256","indexed":true,"internalType":"uint256"},{"name":"incrementAmount","type":"uint256","indexed":true,"internalType":"uint256"},{"name":"timestamp","type":"uint256","indexed":true,"internalType":"uint256"}],"anonymous":false},{"type":"event","name":"Paused","inputs":[{"name":"account","type":"address","indexed":false,"internalType":"address"}],"anonymous":false},{"type":"event","name":"PrincipalReset","inputs":[{"name":"oldValue","type":"uint256","indexed":false,"internalType":"uint256"},{"name":"trigger","type":"address","indexed":true,"internalType":"address"}],"anonymous":false},{"type":"event","name":"RoleAdminChanged","inputs":[{"name":"role","type":"bytes32","indexed":true,"internalType":"bytes32"},{"name":"previousAdminRole","type":"bytes32","indexed":true,"internalType":"bytes32"},{"name":"newAdminRole","type":"bytes32","indexed":true,"internalType":"bytes32"}],"anonymous":false},{"type":"event","name":"RoleGranted","inputs":[{"name":"role","type":"bytes32","indexed":true,"internalType":"bytes32"},{"name":"account","type":"address","indexed":true,"internalType":"address"},{"name":"sender","type":"address","indexed":true,"internalType":"address"}],"anonymous":false},{"type":"event","name":"RoleRevoked","inputs":[{"name":"role","type":"bytes32","indexed":true,"internalType":"bytes32"},{"name":"account","type":"address","indexed":true,"internalType":"address"},{"name":"sender","type":"address","indexed":true,"internalType":"address"}],"anonymous":false},{"type":"event","name":"SupplyVolumeUpdated","inputs":[{"name":"totalVolume","type":"uint256","indexed":true,"internalType":"uint256"},{"name":"incrementAmount","type":"uint256","indexed":true,"internalType":"uint256"},{"name":"timestamp","type":"uint256","indexed":true,"internalType":"uint256"}],"anonymous":false},{"type":"event","name":"SupportedMarketAdded","inputs":[{"name":"market","type":"address","indexed":true,"internalType":"address"},{"name":"timestamp","type":"uint256","indexed":true,"internalType":"uint256"}],"anonymous":false},{"type":"event","name":"SupportedMarketRemoved","inputs":[{"name":"market","type":"address","indexed":true,"internalType":"address"},{"name":"timestamp","type":"uint256","indexed":true,"internalType":"uint256"}],"anonymous":false},{"type":"event","name":"Unpaused","inputs":[{"name":"account","type":"address","indexed":false,"internalType":"address"}],"anonymous":false},{"type":"event","name":"WithdrawFromProtocol","inputs":[{"name":"caller","type":"address","indexed":true,"internalType":"address"},{"name":"amount","type":"uint256","indexed":false,"internalType":"uint256"}],"anonymous":false},{"type":"event","name":"YieldTransferred","inputs":[{"name":"recipient","type":"address","indexed":true,"internalType":"address"},{"name":"amount","type":"uint256","indexed":false,"internalType":"uint256"}],"anonymous":false},{"type":"event","name":"YieldTransferredBatch","inputs":[{"name":"recipient","type":"address","indexed":true,"internalType":"address"},{"name":"totalAmount","type":"uint256","indexed":false,"internalType":"uint256"},{"name":"collections","type":"address[]","indexed":false,"internalType":"address[]"},{"name":"amounts","type":"uint256[]","indexed":false,"internalType":"uint256[]"}],"anonymous":false},{"type":"error","name":"AccessControlBadConfirmation","inputs":[]},{"type":"error","name":"AccessControlUnauthorizedAccount","inputs":[{"name":"account","type":"address","internalType":"address"},{"name":"neededRole","type":"bytes32","internalType":"bytes32"}]},{"type":"error","name":"AddressZero","inputs":[]},{"type":"error","name":"CannotRemoveLastAdmin","inputs":[{"name":"role","type":"bytes32","internalType":"bytes32"}]},{"type":"error","name":"EnforcedPause","inputs":[]},{"type":"error","name":"ExpectedPause","inputs":[]},{"type":"error","name":"InsufficientBalanceInProtocol","inputs":[]},{"type":"error","name":"LM_CallerNotRewardsController","inputs":[{"name":"caller","type":"address","internalType":"address"}]},{"type":"error","name":"LM_CallerNotVault","inputs":[{"name":"caller","type":"address","internalType":"address"}]},{"type":"error","name":"LendingManagerCTokenMintFailed","inputs":[{"name":"errorCode","type":"uint256","internalType":"uint256"}]},{"type":"error","name":"LendingManagerCTokenMintFailedBytes","inputs":[{"name":"data","type":"bytes","internalType":"bytes"}]},{"type":"error","name":"LendingManagerCTokenMintFailedReason","inputs":[{"name":"reason","type":"string","internalType":"string"}]},{"type":"error","name":"LendingManagerCTokenRedeemFailed","inputs":[{"name":"errorCode","type":"uint256","internalType":"uint256"}]},{"type":"error","name":"LendingManagerCTokenRedeemFailedBytes","inputs":[{"name":"data","type":"bytes","internalType":"bytes"}]},{"type":"error","name":"LendingManagerCTokenRedeemFailedReason","inputs":[{"name":"reason","type":"string","internalType":"string"}]},{"type":"error","name":"LendingManagerCTokenRedeemUnderlyingFailed","inputs":[{"name":"errorCode","type":"uint256","internalType":"uint256"}]},{"type":"error","name":"LendingManagerCTokenRedeemUnderlyingFailedBytes","inputs":[{"name":"data","type":"bytes","internalType":"bytes"}]},{"type":"error","name":"LendingManagerCTokenRedeemUnderlyingFailedReason","inputs":[{"name":"reason","type":"string","internalType":"string"}]},{"type":"error","name":"LendingManagerCTokenRepayBorrowBehalfFailed","inputs":[{"name":"errorCode","type":"uint256","internalType":"uint256"}]},{"type":"error","name":"LendingManagerCTokenRepayBorrowBehalfFailedBytes","inputs":[{"name":"data","type":"bytes","internalType":"bytes"}]},{"type":"error","name":"LendingManagerCTokenRepayBorrowBehalfFailedReason","inputs":[{"name":"reason","type":"string","internalType":"string"}]},{"type":"error","name":"LendingManager__BalanceCheckFailed","inputs":[{"name":"reason","type":"string","internalType":"string"},{"name":"expected","type":"uint256","internalType":"uint256"},{"name":"actual","type":"uint256","internalType":"uint256"}]},{"type":"error","name":"ReentrancyGuardReentrantCall","inputs":[]},{"type":"error","name":"SafeERC20FailedOperation","inputs":[{"name":"token","type":"address","internalType":"address"}]}],"bytecode":{"object":"0x6101008060405234610284576080816136af8038038091610020828561042d565b8339810103126102845761003381610464565b9061004060208201610464565b91610059606061005260408501610464565b9301610464565b60016002556001600160a01b038216929091908315801561041c575b801561040b575b80156103fa575b6103eb576001600160a01b039081166080819052921660e081905260405163313ce56760e01b81529092602090829060049082905afa928315610290576004936020925f916103ce575b5060a05260405163313ce56760e01b815293849182905afa80156102905761010c925f9161039f575b5060c05261010381610491565b61036757610507565b610321575b5061011b81610587565b6102d2575b5060805160e05160405163095ea7b360e01b81526001600160a01b0391821660048201525f19602482015291602091839160449183915f91165af180156102905761029b575b5060e05160405163182df0f560e01b815290602090829060049082906001600160a01b03165afa908115610290575f9161025a575b506005554260065560018060a01b0360e051165f52600760205260405f20600160ff198254161790555f6008555f6009555f600a555f600b55611d4c600c556101f4600d55604051612f7790816106788239608051818181610db1015281816113d10152818161178901528181611ef401526123ab015260a05181505060c05181505060e05181818161037601528181610a7b0152818161100c0152818161120401528181611494015281816116d701528181611e8b01526124840152f35b90506020813d602011610288575b816102756020938361042d565b8101031261028457515f61019b565b5f80fd5b3d9150610268565b6040513d5f823e3d90fd5b6020813d6020116102ca575b816102b46020938361042d565b8101031261028457518015158114610166575f80fd5b3d91506102a7565b5f51602061364f5f395f51905f525f52600160205261031a906001600160a01b03167f81ca3e78767fe7984cabec333f0414457dbe87b59d50ac066de98618b846bf81610607565b505f610120565b5f51602061366f5f395f51905f525f526001602052610360907f50efbde2d46c37e9785f1791697f77e94bb7b701e19f1930a668820722d37694610607565b505f610111565b5f80526001602052610399837fa6eef7e35abe7026729641147f7915573c7e97b47efa546f5f6e3230263bcb49610607565b50610507565b6103c1915060203d6020116103c7575b6103b9818361042d565b810190610478565b5f6100f6565b503d6103af565b6103e59150833d85116103c7576103b9818361042d565b5f6100cd565b639fabe1c160e01b5f5260045ffd5b506001600160a01b03831615610083565b506001600160a01b0381161561007c565b506001600160a01b03851615610075565b601f909101601f19168101906001600160401b0382119082101761045057604052565b634e487b7160e01b5f52604160045260245ffd5b51906001600160a01b038216820361028457565b90816020910312610284575160ff811681036102845790565b6001600160a01b0381165f9081525f51602061368f5f395f51905f52602052604090205460ff16610502576001600160a01b03165f8181525f51602061368f5f395f51905f5260205260408120805460ff191660011790553391905f5160206135ef5f395f51905f528180a4600190565b505f90565b6001600160a01b0381165f9081525f51602061360f5f395f51905f52602052604090205460ff16610502576001600160a01b03165f8181525f51602061360f5f395f51905f5260205260408120805460ff191660011790553391905f51602061366f5f395f51905f52905f5160206135ef5f395f51905f529080a4600190565b6001600160a01b0381165f9081525f51602061362f5f395f51905f52602052604090205460ff16610502576001600160a01b03165f8181525f51602061362f5f395f51905f5260205260408120805460ff191660011790553391905f51602061364f5f395f51905f52905f5160206135ef5f395f51905f529080a4600190565b6001810190825f528160205260405f2054155f1461067057805468010000000000000000811015610450576001810180835581101561065c578390825f5260205f20015554915f5260205260405f2055600190565b634e487b7160e01b5f52603260045260245ffd5b5050505f9056fe60806040526004361015610011575f80fd5b5f3560e01c806301e1d1141461110457806301ffc9a71461109457806302ce728f14610fd657806316a2d41f14610f485780631714d16b14610f2b5780631aeab45b146106a45780631d6d529c1461027657806320761fc414610eee578063248a9ca314610ebc5780632608f81814610e615780632f2ff15d14610e2457806336568abe14610de057806338d52e0f14610d9c5780633f4ba83a14610d365780634cf42a7814610d0d5780634e322d6d14610cf05780634fe3d97014610c135780635c975abb14610bf15780635eb8fa6f14610b8d5780636069894314610aaa57806369e527da14610a665780637216c4511461062a57806375b238fc14610a3f5780638070bb2814610a2257806381906166146109fe5780638456cb59146109a55780638c765e94146106875780639010d07c14610960578063919a2e5d1461042657806391d1485414610918578063948a092d146108b057806398c4f1ac146108f15780639a19c7b0146108cd5780639b8d0cbf146108b05780639e1421d514610895578063a217fddf1461087b578063a3041bf414610819578063a3246ad3146107a9578063a683d57414610770578063a8431081146106c1578063bd694e74146106a4578063c29a1d5814610687578063c634b78e14610647578063c8a5c9201461062a578063ca15c87314610600578063cfa498a3146105e4578063d06523201461054b578063d0942d2e146104fa578063d218858214610487578063d547741f14610443578063d74b933014610426578063e372c8c4146103c9578063f947629014610341578063fb603d2d146102975763ff7e180414610276575f80fd5b34610293575f366003190112610293576020600a54604051908152f35b5f80fd5b34610293576020366003190112610293576004356102b36127d9565b6102bb6128a9565b61271081116102f05780600c5542907fb77c05484b9c04e966ff30f66ac7472f33a119c7534d58d5fbda2f843d7e3e9d5f80a3005b60405162461bcd60e51b8152602060048201526024808201527f436f6c6c61746572616c20666163746f722063616e6e6f7420657863656564206044820152633130302560e01b6064820152608490fd5b34610293575f3660031901126102935760405161035f60408261118c565b60018152602080820191903683378051156103b5577f00000000000000000000000000000000000000000000000000000000000000006001600160a01b03169091526040519081906103b1908261114a565b0390f35b634e487b7160e01b5f52603260045260245ffd5b34610293576020366003190112610293576004356103e56127d9565b6103ed6128a9565b6103f981600b546112a5565b9081600b5542917fb7a27718f6288cc532f0f46c7c2b44ce7a9dcec12e7a76de54ab5d2e70d63e575f80a4005b34610293575f366003190112610293576020600954604051908152f35b3461029357604036600319011261029357610485600435610462611134565b9061048061047b825f525f602052600160405f20015490565b612871565b612967565b005b3461029357602036600319011261029357335f9081525f516020612ee25f395f51905f52602052604090205460ff16156104e7576104c36128c4565b6104cb6128a9565b60206104d8600435612390565b60016002556040519015158152f35b6310e0fa1960e21b5f523360045260245ffd5b3461029357602036600319011261029357335f9081525f516020612ee25f395f51905f52602052604090205460ff16156104e7576105366128c4565b61053e6128a9565b60206104d8600435611e76565b346102935760203660031901126102935761056461111e565b61056c6127d9565b6105746128a9565b6001600160a01b031680156105d557805f52600760205260ff60405f20541661059957005b805f52600760205260405f2060ff19815416905542907fd66cf8c9ac2d3982717003b99c7722fc8dc0e5755d6ae88287c718480c8043955f80a3005b639fabe1c160e01b5f5260045ffd5b34610293575f3660031901126102935760206040516127108152f35b34610293576020366003190112610293576004355f526001602052602060405f2054604051908152f35b34610293575f366003190112610293576020600c54604051908152f35b346102935760203660031901126102935761068061066361111e565b61066b6127d9565b6106736128c4565b61067b6128a9565b611c99565b6001600255005b34610293575f366003190112610293576020600d54604051908152f35b34610293575f366003190112610293576020600b54604051908152f35b34610293576020366003190112610293576004356106dd6127d9565b6106e56128a9565b612710811161071a5780600d5542907fcae94e28f99b0002019e84c8c75b7ce6ff134eb1a376fa245781ca869fa280295f80a3005b60405162461bcd60e51b815260206004820152602860248201527f4c69717569646174696f6e20696e63656e746976652063616e6e6f7420657863604482015267656564203130302560c01b6064820152608490fd5b346102935760203660031901126102935761068061078c61111e565b610794612822565b61079c6128c4565b6107a46128a9565b611d46565b34610293576020366003190112610293576004355f52600160205260405f206040519081602082549182815201915f5260205f20905f5b818110610803576103b1856107f78187038261118c565b6040519182918261114a565b82548452602090930192600192830192016107e0565b34610293575f366003190112610293576108316127d9565b6108396128c4565b6108416128a9565b6004545f6004556040519081527f577a284c251aa48cc8c69d96d3e7e20795f6fe1c6dd1c7287136c9cc05e3459060203392a26001600255005b34610293575f3660031901126102935760206040515f8152f35b34610293575f36600319011261029357602060405160058152f35b34610293575f366003190112610293576020600854604051908152f35b34610293576020366003190112610293576106806108e961111e565b6107946127d9565b34610293575f3660031901126102935760206040515f516020612f025f395f51905f528152f35b3461029357604036600319011261029357610931611134565b6004355f525f60205260405f209060018060a01b03165f52602052602060ff60405f2054166040519015158152f35b34610293576040366003190112610293576004355f526001602052602061098c60243560405f20612d80565b905460405160039290921b1c6001600160a01b03168152f35b34610293575f366003190112610293576109bd6127d9565b6109c56128a9565b600160ff1960035416176003557f62e78cea01bee320cd4e420270b5ea74000d11b0c9f74754ebdbfc544b05a2586020604051338152a1005b3461029357602036600319011261029357610680610a1a61111e565b61066b612822565b34610293575f366003190112610293576020600454604051908152f35b34610293575f3660031901126102935760206040515f516020612f225f395f51905f528152f35b34610293575f366003190112610293576040517f00000000000000000000000000000000000000000000000000000000000000006001600160a01b03168152602090f35b3461029357602036600319011261029357610ac361111e565b610acb6127d9565b610ad36128c4565b610adb6128a9565b6001600160a01b0381169081156105d557610af590612a31565b610b48575b604080513381524260208201525f516020612f025f395f51905f52917f834dea3a6c8a31d1182df473e33de73b525a0c4510c9e55c882f6bed6ed7c7e79190819081015b0390a36001600255005b5f516020612f025f395f51905f525f526001602052610b87817f81ca3e78767fe7984cabec333f0414457dbe87b59d50ac066de98618b846bf81612d95565b50610afa565b3461029357602036600319011261029357610ba661111e565b335f9081525f516020612ee25f395f51905f52602052604090205460ff16156104e757610be4602091610bd76128c4565b610bdf6128a9565b6116b2565b6001600255604051908152f35b34610293575f36600319011261029357602060ff600354166040519015158152f35b3461029357602036600319011261029357610c2c61111e565b610c346127d9565b610c3c6128c4565b610c446128a9565b6001600160a01b0381169081156105d557610c5e90612bde565b610cab575b604080513381524260208201525f516020612f025f395f51905f52917f0c56cba25996f46cd99d79d147f53ae8a59d15e2a4f622c7e4bbe7f1202c994c919081908101610b3e565b5f516020612f025f395f51905f525f526001602052610cea817f81ca3e78767fe7984cabec333f0414457dbe87b59d50ac066de98618b846bf81612e04565b50610c63565b34610293575f366003190112610293576020600554604051908152f35b3461029357602036600319011261029357610d266127d9565b610d2e6128a9565b600435600855005b34610293575f36600319011261029357610d4e6127d9565b60035460ff811615610d8d5760ff19166003557f5db9ee0a495bf2e6ff9c91a7834c1ba4fdd244a5e8aa4e537bd38aeae4b073aa6020604051338152a1005b638dfc202b60e01b5f5260045ffd5b34610293575f366003190112610293576040517f00000000000000000000000000000000000000000000000000000000000000006001600160a01b03168152602090f35b3461029357604036600319011261029357610df9611134565b336001600160a01b03821603610e155761048590600435612967565b63334bd91960e11b5f5260045ffd5b3461029357604036600319011261029357610485600435610e43611134565b90610e5c61047b825f525f602052600160405f20015490565b61292d565b3461029357604036600319011261029357610e7a61111e565b335f9081525f516020612ee25f395f51905f52602052604090205460ff16156104e757610be4602091610eab6128c4565b610eb36128a9565b602435906113a7565b34610293576020366003190112610293576020610ee66004355f525f602052600160405f20015490565b604051908152f35b34610293576020366003190112610293576001600160a01b03610f0f61111e565b165f526007602052602060ff60405f2054166040519015158152f35b34610293575f366003190112610293576020600654604051908152f35b3461029357602036600319011261029357610f6161111e565b610f696127d9565b610f716128a9565b6001600160a01b031680156105d557805f52600760205260ff60405f20541615610f9757005b805f52600760205260405f20600160ff1982541617905542907f4805867f9b586fa8386bb309059611e2243748c08051c991f75d66a18039dcd35f80a3005b34610293575f36600319011261029357610fee6127d9565b610ff66128a9565b60405163bd6d894d60e01b81526020816004815f7f00000000000000000000000000000000000000000000000000000000000000006001600160a01b03165af18015611089575f90611056575b8060209160055542600655604051908152f35b506020813d602011611081575b816110706020938361118c565b810103126102935760209051611043565b3d9150611063565b6040513d5f823e3d90fd5b346102935760203660031901126102935760043563ffffffff60e01b811680910361029357602090635a05180f60e01b81149081156110d9575b506040519015158152f35b637965db0b60e01b8114915081156110f3575b50826110ce565b6301ffc9a760e01b149050826110ec565b34610293575f366003190112610293576020610ee66111e9565b600435906001600160a01b038216820361029357565b602435906001600160a01b038216820361029357565b60206040818301928281528451809452019201905f5b81811061116d5750505090565b82516001600160a01b0316845260209384019390920191600101611160565b90601f8019910116810190811067ffffffffffffffff8211176111ae57604052565b634e487b7160e01b5f52604160045260245ffd5b818102929181159184041417156111d557565b634e487b7160e01b5f52601160045260245ffd5b6040516370a0823160e01b81523060048201526020816024817f00000000000000000000000000000000000000000000000000000000000000006001600160a01b03165afa908115611089575f91611273575b50600554908015801561126b575b61126557670de0b6b3a764000091611261916111c2565b0490565b50505f90565b50811561124a565b90506020813d60201161129d575b8161128e6020938361118c565b8101031261029357515f61123c565b3d9150611281565b919082018092116111d557565b5f9060033d116112be57565b905060045f803e5f5160e01c90565b5f60443d10611333576040513d600319016004823e8051913d602484011167ffffffffffffffff84111761133e578282019283519167ffffffffffffffff8311611336573d8401600319018584016020011161133657506113339291016020019061118c565b90565b949350505050565b92915050565b805180835260209291819084018484015e5f828201840152601f01601f1916010190565b3d156113a2573d9067ffffffffffffffff82116111ae5760405191611397601f8201601f19166020018461118c565b82523d5f602084013e565b606090565b6001600160a01b038116156105d5578115611265576040516370a0823160e01b81523060048201527f00000000000000000000000000000000000000000000000000000000000000006001600160a01b03811691602081602481865afa9182156110895785915f9361166c575b5092611428602092602495309033906128e2565b6040516370a0823160e01b815230600482015293849182905afa918215611089575f92611638575b5061145b84826112a5565b82036115cd5750506040516304c11f0360e31b81526001600160a01b03909116600482015260248101829052602081806044810103815f7f00000000000000000000000000000000000000000000000000000000000000006001600160a01b03165af15f9181611599575b50611546576114d36112b2565b6308c379a01461150e575b61150a6114e9611368565b60405163088aa88360e41b8152602060048201529182916024830190611344565b0390fd5b6115166112cd565b8061152157506114de565b6040516322a1c94d60e11b81526020600482015290819061150a906024830190611344565b90816115865761155881600a546112a5565b9081600a5542917f690ee4de4eb69b93ebaafe80a310277266ede63b24c9b9d3411cdee5df5577de5f80a490565b5063442a3ba360e01b5f5260045260245ffd5b9091506020813d6020116115c5575b816115b56020938361118c565b810103126102935751905f6114c6565b3d91506115a8565b906115da8460c4936112a5565b9060405191633e62af1560e01b835260606004840152602660648401527f4c4d3a207265706179426568616c662061737365742072656365697074206d696084840152650e6dac2e8c6d60d31b60a484015260248301526044820152fd5b9091506020813d602011611664575b816116546020938361118c565b810103126102935751905f611450565b3d9150611647565b915091506020813d60201161169d575b816116896020938361118c565b810103126102935751908490611428611414565b3d915061167c565b919082039182116111d557565b6001600160a01b03811680156105d5576040516370a0823160e01b81523060048201527f00000000000000000000000000000000000000000000000000000000000000006001600160a01b031690602081602481855afa908115611089575f91611c67575b508015611c5f5760405163a6afed9560e01b81526020816004815f875af1801561108957611c30575b5060405163182df0f560e01b8152602081600481865afa908115611089575f91611bfe575b50801580611bf6575b611b8957611785670de0b6b3a764000091836111c2565b04937f00000000000000000000000000000000000000000000000000000000000000009160018060a01b03831693604051916370a0823160e01b8352306004840152602083602481895afa928315611089575f93611b55575b505f916024602092604051948593849263db006a7560e01b845260048401525af15f9181611b21575b50611883576118146112b2565b6308c379a01461184b575b61150a61182a611368565b604051632280bc3960e11b8152602060048201529182916024830190611344565b6118536112cd565b8061185e575061181f565b604051630dc3586760e41b81526020600482015290819061150a906024830190611344565b80611b0f57506040516370a0823160e01b815230600482015290602082602481885afa8015611089575f90611adb575b6118bd92506116a5565b9480861115611aca5760016118d282886116a5565b11611a6357508461190e575b5050507f67888544f32c15729339b4e2b7c700474afc1f9759f7dc0b4b49d1153cf147076020604051848152a290565b6040516370a0823160e01b815230600482015290602082602481875afa9283156110895786925f94611a25575b506020926024959261194c9261299d565b6040516370a0823160e01b815230600482015293849182905afa918215611089575f926119f1575b5061197f84826116a5565b820361198b57806118de565b906119988460c4936116a5565b9060405191633e62af1560e01b835260606004840152602160648401527f4c4d3a2072656465656d416c6c2061737365742073656e64206d69736d6174636084840152600d60fb1b60a484015260248301526044820152fd5b9091506020813d602011611a1d575b81611a0d6020938361118c565b810103126102935751905f611974565b3d9150611a00565b92509250926020823d602011611a5b575b81611a436020938361118c565b8101031261029357905190929091859190602061193b565b3d9150611a36565b60c4908660405191633e62af1560e01b835260606004840152602c60648401527f4c4d3a2072656465656d416c6c2063546f6b656e2e72656465656d207265636560848401526b0d2e0e840dad2e6dac2e8c6d60a31b60a484015260248301526044820152fd5b6001611ad687836116a5565b6118d2565b506020823d602011611b07575b81611af56020938361118c565b81010312610293576118bd91516118b3565b3d9150611ae8565b63515ce46360e01b5f5260045260245ffd5b9091506020813d602011611b4d575b81611b3d6020938361118c565b810103126102935751905f611807565b3d9150611b30565b9092506020813d602011611b81575b81611b716020938361118c565b810103126102935751915f6117de565b3d9150611b64565b604051633e62af1560e01b815260606004820152603160648201527f4c4d3a2072656465656d416c6c2063546f6b656e2e72656465656d2065786368608482015270616e67652072617465206973207a65726f60781b60a4820152600160248201525f604482015260c490fd5b50600161176e565b90506020813d602011611c28575b81611c196020938361118c565b8101031261029357515f611765565b3d9150611c0c565b6020813d602011611c57575b81611c496020938361118c565b810103126102935751611740565b3d9150611c3c565b505050505f90565b90506020813d602011611c91575b81611c826020938361118c565b8101031261029357515f611717565b3d9150611c75565b6001600160a01b0381169081156105d557611cb390612ac9565b611d01575b604080513381524260208201525f516020612f225f395f51905f52917f834dea3a6c8a31d1182df473e33de73b525a0c4510c9e55c882f6bed6ed7c7e79190819081015b0390a3565b5f516020612f225f395f51905f525f526001602052611d40817f50efbde2d46c37e9785f1791697f77e94bb7b701e19f1930a668820722d37694612d95565b50611cb8565b6001600160a01b0381169081156105d5575f516020612f225f395f51905f525f52600160208190527f50efbde2d46c37e9785f1791697f77e94bb7b701e19f1930a668820722d37694541115611e3157611d9f90612c6f565b611dec575b604080513381524260208201525f516020612f225f395f51905f52917f0c56cba25996f46cd99d79d147f53ae8a59d15e2a4f622c7e4bbe7f1202c994c919081908101611cfc565b5f516020612f225f395f51905f525f526001602052611e2b817f50efbde2d46c37e9785f1791697f77e94bb7b701e19f1930a668820722d37694612e04565b50611da4565b60405162461bcd60e51b815260206004820152601860248201527f43616e6e6f742072656d6f7665206c6173742061646d696e00000000000000006044820152606490fd5b801561238a5760405163a6afed9560e01b81527f00000000000000000000000000000000000000000000000000000000000000006001600160a01b0316906020816004815f865af1908115611089575f91612358575b5061231a5781611eda6111e9565b1061230b576040516370a0823160e01b81523060048201527f00000000000000000000000000000000000000000000000000000000000000006001600160a01b03811692909190602082602481875afa918215611089575f926122d6575b5060205f9160246040518094819363852a12e360e01b83528a60048401525af15f91816122a2575b50611fdc57611f6d6112b2565b6308c379a014611fa4575b61150a611f83611368565b6040516302d5607560e41b8152602060048201529182916024830190611344565b611fac6112cd565b80611fb75750611f78565b604051630794cdd160e51b81526020600482015290819061150a906024830190611344565b8061229057506040516370a0823160e01b815230600482015290602082602481875afa918215611089575f9261225c575b5061201885826112a5565b82036121e25750506040516370a0823160e01b8152306004820152602081602481865afa9182156110895784915f936121a9575b509261205e602092602495339061299d565b6040516370a0823160e01b815230600482015293849182905afa918215611089575f92612175575b5061209183826116a5565b820361211a5750506004548181106120e557506120b0816004546116a5565b6004555b6040519081527f67888544f32c15729339b4e2b7c700474afc1f9759f7dc0b4b49d1153cf1470760203392a2600190565b6040519081527f577a284c251aa48cc8c69d96d3e7e20795f6fe1c6dd1c7287136c9cc05e3459060203392a25f6004556120b4565b60a492612126916116a5565b9060405191633e62af1560e01b835260606004840152602060648401527f4c4d3a2077697468647261772061737365742073656e64206d69736d61746368608484015260248301526044820152fd5b9091506020813d6020116121a1575b816121916020938361118c565b810103126102935751905f612086565b3d9150612184565b915091506020813d6020116121da575b816121c66020938361118c565b81010312610293575190839061205e61204c565b3d91506121b9565b906121ef8560c4936112a5565b9060405191633e62af1560e01b835260606004840152603560648401527f4c4d3a2077697468647261772063546f6b656e2e72656465656d556e6465726c6084840152740f2d2dcce40e4cac6cad2e0e840dad2e6dac2e8c6d605b1b60a484015260248301526044820152fd5b9091506020813d602011612288575b816122786020938361118c565b810103126102935751905f61200d565b3d915061226b565b635db98c9760e11b5f5260045260245ffd5b9091506020813d6020116122ce575b816122be6020938361118c565b810103126102935751905f611f60565b3d91506122b1565b9091506020813d602011612303575b816122f26020938361118c565b810103126102935751906020611f38565b3d91506122e5565b631f996b4b60e21b5f5260045ffd5b60405162461bcd60e51b81526020600482015260166024820152751058d8dc9d59481a5b9d195c995cdd0819985a5b195960521b6044820152606490fd5b90506020813d602011612382575b816123736020938361118c565b8101031261029357515f611ecc565b3d9150612366565b50600190565b801561238a576040516370a0823160e01b81523060048201527f00000000000000000000000000000000000000000000000000000000000000006001600160a01b03811691602081602481865afa9081156110895784905f926127a3575b506123fd9192309033906128e2565b6040516370a0823160e01b815230600482015290602082602481865afa918215611089575f9261276f575b5061243384826112a5565b82036127085750506040516370a0823160e01b815230600482015290602082602481845afa918215611089575f926126d4575b5060405163140e25ad60e31b8152600481018490526020816024815f7f00000000000000000000000000000000000000000000000000000000000000006001600160a01b03165af15f91816126a0575b50612532576124c36112b2565b6308c379a0146124fa575b61150a6124d9611368565b6040516301da159560e41b8152602060048201529182916024830190611344565b6125026112cd565b8061250d57506124ce565b6040516302b84f2960e11b81526020600482015290819061150a906024830190611344565b8061268e5750906020602492604051938480926370a0823160e01b82523060048301525afa918215611089575f9261265a575b5061257083826116a5565b82036125ef575050612584816004546112a5565b600455612593816009546112a5565b90816009556040518181527fc6e278b89e8eca6811176d094164326e61b124e5642d6aef9cbd95440b01485460203392a242917ff1ed1869d2cb91cfba74a881a5374e90537532eac476c67de14a738e79d7aa1c5f80a4600190565b60c4926125fb916116a5565b9060405191633e62af1560e01b835260606004840152602760648401527f4c4d3a206465706f7369742063546f6b656e2e6d696e7420737570706c79206d6084840152660d2e6dac2e8c6d60cb1b60a484015260248301526044820152fd5b9091506020813d602011612686575b816126766020938361118c565b810103126102935751905f612565565b3d9150612669565b6350e3a86d60e11b5f5260045260245ffd5b9091506020813d6020116126cc575b816126bc6020938361118c565b810103126102935751905f6124b6565b3d91506126af565b9091506020813d602011612700575b816126f06020938361118c565b810103126102935751905f612466565b3d91506126e3565b906127158460c4936112a5565b9060405191633e62af1560e01b835260606004840152602260648401527f4c4d3a206465706f7369742061737365742072656365697074206d69736d61746084840152610c6d60f31b60a484015260248301526044820152fd5b9091506020813d60201161279b575b8161278b6020938361118c565b810103126102935751905f612428565b3d915061277e565b9150506020813d6020116127d1575b816127bf6020938361118c565b810103126102935751836123fd6123ee565b3d91506127b2565b335f9081525f516020612ec25f395f51905f52602052604090205460ff16156127fe57565b63e2517d3f60e01b5f52336004525f516020612f225f395f51905f5260245260445ffd5b335f9081527fad3228b676f7d3cd4284a5443f17f1962b36e491b30a40b2405849e597ba5fb5602052604090205460ff161561285a57565b63e2517d3f60e01b5f52336004525f60245260445ffd5b5f8181526020818152604080832033845290915290205460ff16156128935750565b63e2517d3f60e01b5f523360045260245260445ffd5b60ff600354166128b557565b63d93c066560e01b5f5260045ffd5b60028054146128d35760028055565b633ee5aeb560e01b5f5260045ffd5b6040516323b872dd60e01b60208201526001600160a01b03928316602482015292909116604483015260648083019390935291815261292b9161292660848361118c565b6129d9565b565b6129378282612b5c565b918261294257505090565b5f91825260016020526040909120612963916001600160a01b031690612d95565b5090565b6129718282612d00565b918261297c57505090565b5f91825260016020526040909120612963916001600160a01b031690612e04565b60405163a9059cbb60e01b60208201526001600160a01b0392909216602483015260448083019390935291815261292b9161292660648361118c565b905f602091828151910182855af115611089575f513d612a2857506001600160a01b0381163b155b612a085750565b635274afe760e01b5f9081526001600160a01b0391909116600452602490fd5b60011415612a01565b6001600160a01b0381165f9081525f516020612ee25f395f51905f52602052604090205460ff16612ac4576001600160a01b03165f8181525f516020612ee25f395f51905f5260205260408120805460ff191660011790553391905f516020612f025f395f51905f52907f2f8788117e7eff1d82e926ec794901d17c78024a50270940304540a733656f0d9080a4600190565b505f90565b6001600160a01b0381165f9081525f516020612ec25f395f51905f52602052604090205460ff16612ac4576001600160a01b03165f8181525f516020612ec25f395f51905f5260205260408120805460ff191660011790553391905f516020612f225f395f51905f52907f2f8788117e7eff1d82e926ec794901d17c78024a50270940304540a733656f0d9080a4600190565b5f818152602081815260408083206001600160a01b038616845290915290205460ff16611265575f818152602081815260408083206001600160a01b0395909516808452949091528120805460ff19166001179055339291907f2f8788117e7eff1d82e926ec794901d17c78024a50270940304540a733656f0d9080a4600190565b6001600160a01b0381165f9081525f516020612ee25f395f51905f52602052604090205460ff1615612ac4576001600160a01b03165f8181525f516020612ee25f395f51905f5260205260408120805460ff191690553391905f516020612f025f395f51905f52907ff6391f5c32d9c69d2a47ea670b442974b53935d1edc7fd64eb21e047a839171b9080a4600190565b6001600160a01b0381165f9081525f516020612ec25f395f51905f52602052604090205460ff1615612ac4576001600160a01b03165f8181525f516020612ec25f395f51905f5260205260408120805460ff191690553391905f516020612f225f395f51905f52907ff6391f5c32d9c69d2a47ea670b442974b53935d1edc7fd64eb21e047a839171b9080a4600190565b5f818152602081815260408083206001600160a01b038616845290915290205460ff1615611265575f818152602081815260408083206001600160a01b0395909516808452949091528120805460ff19169055339291907ff6391f5c32d9c69d2a47ea670b442974b53935d1edc7fd64eb21e047a839171b9080a4600190565b80548210156103b5575f5260205f2001905f90565b6001810190825f528160205260405f2054155f14612dfd578054680100000000000000008110156111ae57612dea612dd4826001879401855584612d80565b819391549060031b91821b915f19901b19161790565b905554915f5260205260405f2055600190565b5050505f90565b906001820191815f528260205260405f20548015155f14611c5f575f1981018181116111d55782545f198101919082116111d557818103612e8c575b50505080548015612e78575f190190612e598282612d80565b8154905f199060031b1b19169055555f526020525f6040812055600190565b634e487b7160e01b5f52603160045260245ffd5b612eac612e9c612dd49386612d80565b90549060031b1c92839286612d80565b90555f528360205260405f20555f8080612e4056fe7d7ffb7a348e1c6a02869081a26547b49160dd3df72d1d75a570eb9b698292ec57c45785f0bfdd0436a24ca59ce8cf4a246623230045d7db55b0ff1db74c582231e0210044b4f6757ce6aa31f9c6e8d4896d24a755014887391a926c5224d959a49807205ce4d355092ef5a8a18f56e8913cf4a201fbe287825b095693c21775a26469706673582212203b001bb3d77a6e75cdb97d28c02bcd38f0b83c22eff97dfa5bab92583169819664736f6c634300081e00332f8788117e7eff1d82e926ec794901d17c78024a50270940304540a733656f0d7d7ffb7a348e1c6a02869081a26547b49160dd3df72d1d75a570eb9b698292ec57c45785f0bfdd0436a24ca59ce8cf4a246623230045d7db55b0ff1db74c582231e0210044b4f6757ce6aa31f9c6e8d4896d24a755014887391a926c5224d959a49807205ce4d355092ef5a8a18f56e8913cf4a201fbe287825b095693c21775ad3228b676f7d3cd4284a5443f17f1962b36e491b30a40b2405849e597ba5fb5","linkReferences":{}},"methodIdentifiers":{"ADMIN_ROLE()":"75b238fc","BASIS_POINTS_DENOMINATOR()":"cfa498a3","DEFAULT_ADMIN_ROLE()":"a217fddf","R0_BASIS_POINTS()":"9e1421d5","VAULT_ROLE()":"98c4f1ac","addSupportedMarket(address)":"16a2d41f","asset()":"38d52e0f","cToken()":"69e527da","cachedExchangeRate()":"4e322d6d","depositToLendingProtocol(uint256)":"d2188582","getGlobalCollateralFactor()":"7216c451","getLiquidationIncentive()":"c29a1d58","getRoleAdmin(bytes32)":"248a9ca3","getRoleMember(bytes32,uint256)":"9010d07c","getRoleMemberCount(bytes32)":"ca15c873","getRoleMembers(bytes32)":"a3246ad3","getSupportedMarkets()":"f9476290","getTotalBorrowVolume()":"1d6d529c","getTotalLiquidationVolume()":"1aeab45b","getTotalMarketParticipants()":"948a092d","getTotalSupplyVolume()":"919a2e5d","globalCollateralFactor()":"c8a5c920","grantAdminRole(address)":"c634b78e","grantAdminRoleAsDefaultAdmin(address)":"81906166","grantRole(bytes32,address)":"2f2ff15d","grantVaultRole(address)":"60698943","hasRole(bytes32,address)":"91d14854","lastExchangeRateTimestamp()":"1714d16b","liquidationIncentive()":"8c765e94","pause()":"8456cb59","paused()":"5c975abb","recordLiquidationVolume(uint256)":"e372c8c4","redeemAllCTokens(address)":"5eb8fa6f","removeSupportedMarket(address)":"d0652320","renounceRole(bytes32,address)":"36568abe","repayBorrowBehalf(address,uint256)":"2608f818","resetTotalPrincipalDeposited()":"a3041bf4","revokeAdminRole(address)":"9a19c7b0","revokeAdminRoleAsDefaultAdmin(address)":"a683d574","revokeRole(bytes32,address)":"d547741f","revokeVaultRole(address)":"4fe3d970","setGlobalCollateralFactor(uint256)":"fb603d2d","setLiquidationIncentive(uint256)":"a8431081","supportedMarkets(address)":"20761fc4","supportsInterface(bytes4)":"01ffc9a7","totalAssets()":"01e1d114","totalBorrowVolume()":"ff7e1804","totalLiquidationVolume()":"bd694e74","totalMarketParticipants()":"9b8d0cbf","totalPrincipalDeposited()":"8070bb28","totalSupplyVolume()":"d74b9330","unpause()":"3f4ba83a","updateExchangeRate()":"02ce728f","updateMarketParticipants(uint256)":"4cf42a78","withdrawFromLendingProtocol(uint256)":"d0942d2e"},"id":86}