{"abi":[{"type":"constructor","inputs":[{"name":"initialAdmin","type":"address","internalType":"address"},{"name":"vaultAddress","type":"address","internalType":"address"},{"name":"_assetAddress","type":"address","internalType":"address"},{"name":"_cTokenAddress","type":"address","internalType":"address"}],"stateMutability":"nonpayable"},{"type":"function","name":"ADMIN_ROLE","inputs":[],"outputs":[{"name":"","type":"bytes32","internalType":"bytes32"}],"stateMutability":"view"},{"type":"function","name":"BASIS_POINTS_DENOMINATOR","inputs":[],"outputs":[{"name":"","type":"uint256","internalType":"uint256"}],"stateMutability":"view"},{"type":"function","name":"DEFAULT_ADMIN_ROLE","inputs":[],"outputs":[{"name":"","type":"bytes32","internalType":"bytes32"}],"stateMutability":"view"},{"type":"function","name":"MAX_BATCH_SIZE","inputs":[],"outputs":[{"name":"","type":"uint256","internalType":"uint256"}],"stateMutability":"view"},{"type":"function","name":"R0_BASIS_POINTS","inputs":[],"outputs":[{"name":"","type":"uint256","internalType":"uint256"}],"stateMutability":"view"},{"type":"function","name":"VAULT_ROLE","inputs":[],"outputs":[{"name":"","type":"bytes32","internalType":"bytes32"}],"stateMutability":"view"},{"type":"function","name":"asset","inputs":[],"outputs":[{"name":"","type":"address","internalType":"contract IERC20"}],"stateMutability":"view"},{"type":"function","name":"cToken","inputs":[],"outputs":[{"name":"","type":"address","internalType":"address"}],"stateMutability":"view"},{"type":"function","name":"depositIndex","inputs":[],"outputs":[{"name":"","type":"uint256","internalType":"uint256"}],"stateMutability":"view"},{"type":"function","name":"depositToLendingProtocol","inputs":[{"name":"amount","type":"uint256","internalType":"uint256"}],"outputs":[{"name":"success","type":"bool","internalType":"bool"}],"stateMutability":"nonpayable"},{"type":"function","name":"getRoleAdmin","inputs":[{"name":"role","type":"bytes32","internalType":"bytes32"}],"outputs":[{"name":"","type":"bytes32","internalType":"bytes32"}],"stateMutability":"view"},{"type":"function","name":"getRoleMember","inputs":[{"name":"role","type":"bytes32","internalType":"bytes32"},{"name":"index","type":"uint256","internalType":"uint256"}],"outputs":[{"name":"","type":"address","internalType":"address"}],"stateMutability":"view"},{"type":"function","name":"getRoleMemberCount","inputs":[{"name":"role","type":"bytes32","internalType":"bytes32"}],"outputs":[{"name":"","type":"uint256","internalType":"uint256"}],"stateMutability":"view"},{"type":"function","name":"getRoleMembers","inputs":[{"name":"role","type":"bytes32","internalType":"bytes32"}],"outputs":[{"name":"","type":"address[]","internalType":"address[]"}],"stateMutability":"view"},{"type":"function","name":"grantAdminRole","inputs":[{"name":"newAdmin","type":"address","internalType":"address"}],"outputs":[],"stateMutability":"nonpayable"},{"type":"function","name":"grantAdminRoleAsDefaultAdmin","inputs":[{"name":"newAdmin","type":"address","internalType":"address"}],"outputs":[],"stateMutability":"nonpayable"},{"type":"function","name":"grantRole","inputs":[{"name":"role","type":"bytes32","internalType":"bytes32"},{"name":"account","type":"address","internalType":"address"}],"outputs":[],"stateMutability":"nonpayable"},{"type":"function","name":"grantVaultRole","inputs":[{"name":"newVault","type":"address","internalType":"address"}],"outputs":[],"stateMutability":"nonpayable"},{"type":"function","name":"hasRole","inputs":[{"name":"role","type":"bytes32","internalType":"bytes32"},{"name":"account","type":"address","internalType":"address"}],"outputs":[{"name":"","type":"bool","internalType":"bool"}],"stateMutability":"view"},{"type":"function","name":"pause","inputs":[],"outputs":[],"stateMutability":"nonpayable"},{"type":"function","name":"paused","inputs":[],"outputs":[{"name":"","type":"bool","internalType":"bool"}],"stateMutability":"view"},{"type":"function","name":"redeemAllCTokens","inputs":[{"name":"recipient","type":"address","internalType":"address"}],"outputs":[{"name":"amountRedeemed","type":"uint256","internalType":"uint256"}],"stateMutability":"nonpayable"},{"type":"function","name":"renounceRole","inputs":[{"name":"role","type":"bytes32","internalType":"bytes32"},{"name":"callerConfirmation","type":"address","internalType":"address"}],"outputs":[],"stateMutability":"nonpayable"},{"type":"function","name":"repayBorrowBehalf","inputs":[{"name":"borrower","type":"address","internalType":"address"},{"name":"repayAmount","type":"uint256","internalType":"uint256"}],"outputs":[{"name":"","type":"uint256","internalType":"uint256"}],"stateMutability":"nonpayable"},{"type":"function","name":"resetTotalPrincipalDeposited","inputs":[],"outputs":[],"stateMutability":"nonpayable"},{"type":"function","name":"revokeAdminRole","inputs":[{"name":"admin","type":"address","internalType":"address"}],"outputs":[],"stateMutability":"nonpayable"},{"type":"function","name":"revokeAdminRoleAsDefaultAdmin","inputs":[{"name":"admin","type":"address","internalType":"address"}],"outputs":[],"stateMutability":"nonpayable"},{"type":"function","name":"revokeRole","inputs":[{"name":"role","type":"bytes32","internalType":"bytes32"},{"name":"account","type":"address","internalType":"address"}],"outputs":[],"stateMutability":"nonpayable"},{"type":"function","name":"revokeVaultRole","inputs":[{"name":"vault","type":"address","internalType":"address"}],"outputs":[],"stateMutability":"nonpayable"},{"type":"function","name":"supportsInterface","inputs":[{"name":"interfaceId","type":"bytes4","internalType":"bytes4"}],"outputs":[{"name":"","type":"bool","internalType":"bool"}],"stateMutability":"view"},{"type":"function","name":"totalAssets","inputs":[],"outputs":[{"name":"","type":"uint256","internalType":"uint256"}],"stateMutability":"view"},{"type":"function","name":"totalPrincipalDeposited","inputs":[],"outputs":[{"name":"","type":"uint256","internalType":"uint256"}],"stateMutability":"view"},{"type":"function","name":"unpause","inputs":[],"outputs":[],"stateMutability":"nonpayable"},{"type":"function","name":"withdrawFromLendingProtocol","inputs":[{"name":"amount","type":"uint256","internalType":"uint256"}],"outputs":[{"name":"success","type":"bool","internalType":"bool"}],"stateMutability":"nonpayable"},{"type":"event","name":"DepositToProtocol","inputs":[{"name":"caller","type":"address","indexed":true,"internalType":"address"},{"name":"amount","type":"uint256","indexed":false,"internalType":"uint256"}],"anonymous":false},{"type":"event","name":"Paused","inputs":[{"name":"account","type":"address","indexed":false,"internalType":"address"}],"anonymous":false},{"type":"event","name":"PrincipalReset","inputs":[{"name":"oldValue","type":"uint256","indexed":false,"internalType":"uint256"},{"name":"trigger","type":"address","indexed":true,"internalType":"address"}],"anonymous":false},{"type":"event","name":"RoleAdminChanged","inputs":[{"name":"role","type":"bytes32","indexed":true,"internalType":"bytes32"},{"name":"previousAdminRole","type":"bytes32","indexed":true,"internalType":"bytes32"},{"name":"newAdminRole","type":"bytes32","indexed":true,"internalType":"bytes32"}],"anonymous":false},{"type":"event","name":"RoleGranted","inputs":[{"name":"role","type":"bytes32","indexed":true,"internalType":"bytes32"},{"name":"account","type":"address","indexed":true,"internalType":"address"},{"name":"sender","type":"address","indexed":true,"internalType":"address"}],"anonymous":false},{"type":"event","name":"RoleRevoked","inputs":[{"name":"role","type":"bytes32","indexed":true,"internalType":"bytes32"},{"name":"account","type":"address","indexed":true,"internalType":"address"},{"name":"sender","type":"address","indexed":true,"internalType":"address"}],"anonymous":false},{"type":"event","name":"Unpaused","inputs":[{"name":"account","type":"address","indexed":false,"internalType":"address"}],"anonymous":false},{"type":"event","name":"WithdrawFromProtocol","inputs":[{"name":"caller","type":"address","indexed":true,"internalType":"address"},{"name":"amount","type":"uint256","indexed":false,"internalType":"uint256"}],"anonymous":false},{"type":"event","name":"YieldTransferred","inputs":[{"name":"recipient","type":"address","indexed":true,"internalType":"address"},{"name":"amount","type":"uint256","indexed":false,"internalType":"uint256"}],"anonymous":false},{"type":"event","name":"YieldTransferredBatch","inputs":[{"name":"recipient","type":"address","indexed":true,"internalType":"address"},{"name":"totalAmount","type":"uint256","indexed":false,"internalType":"uint256"},{"name":"collections","type":"address[]","indexed":false,"internalType":"address[]"},{"name":"amounts","type":"uint256[]","indexed":false,"internalType":"uint256[]"}],"anonymous":false},{"type":"error","name":"AccessControlBadConfirmation","inputs":[]},{"type":"error","name":"AccessControlUnauthorizedAccount","inputs":[{"name":"account","type":"address","internalType":"address"},{"name":"neededRole","type":"bytes32","internalType":"bytes32"}]},{"type":"error","name":"AddressZero","inputs":[]},{"type":"error","name":"CannotRemoveLastAdmin","inputs":[{"name":"role","type":"bytes32","internalType":"bytes32"}]},{"type":"error","name":"EnforcedPause","inputs":[]},{"type":"error","name":"ExpectedPause","inputs":[]},{"type":"error","name":"InsufficientBalanceInProtocol","inputs":[]},{"type":"error","name":"LM_CallerNotRewardsController","inputs":[{"name":"caller","type":"address","internalType":"address"}]},{"type":"error","name":"LM_CallerNotVault","inputs":[{"name":"caller","type":"address","internalType":"address"}]},{"type":"error","name":"LendingManagerCTokenMintFailed","inputs":[{"name":"errorCode","type":"uint256","internalType":"uint256"}]},{"type":"error","name":"LendingManagerCTokenMintFailedBytes","inputs":[{"name":"data","type":"bytes","internalType":"bytes"}]},{"type":"error","name":"LendingManagerCTokenMintFailedReason","inputs":[{"name":"reason","type":"string","internalType":"string"}]},{"type":"error","name":"LendingManagerCTokenRedeemFailed","inputs":[{"name":"errorCode","type":"uint256","internalType":"uint256"}]},{"type":"error","name":"LendingManagerCTokenRedeemFailedBytes","inputs":[{"name":"data","type":"bytes","internalType":"bytes"}]},{"type":"error","name":"LendingManagerCTokenRedeemFailedReason","inputs":[{"name":"reason","type":"string","internalType":"string"}]},{"type":"error","name":"LendingManagerCTokenRedeemUnderlyingFailed","inputs":[{"name":"errorCode","type":"uint256","internalType":"uint256"}]},{"type":"error","name":"LendingManagerCTokenRedeemUnderlyingFailedBytes","inputs":[{"name":"data","type":"bytes","internalType":"bytes"}]},{"type":"error","name":"LendingManagerCTokenRedeemUnderlyingFailedReason","inputs":[{"name":"reason","type":"string","internalType":"string"}]},{"type":"error","name":"LendingManagerCTokenRepayBorrowBehalfFailed","inputs":[{"name":"errorCode","type":"uint256","internalType":"uint256"}]},{"type":"error","name":"LendingManagerCTokenRepayBorrowBehalfFailedBytes","inputs":[{"name":"data","type":"bytes","internalType":"bytes"}]},{"type":"error","name":"LendingManagerCTokenRepayBorrowBehalfFailedReason","inputs":[{"name":"reason","type":"string","internalType":"string"}]},{"type":"error","name":"LendingManager__BalanceCheckFailed","inputs":[{"name":"reason","type":"string","internalType":"string"},{"name":"expected","type":"uint256","internalType":"uint256"},{"name":"actual","type":"uint256","internalType":"uint256"}]},{"type":"error","name":"ReentrancyGuardReentrantCall","inputs":[]},{"type":"error","name":"SafeERC20FailedOperation","inputs":[{"name":"token","type":"address","internalType":"address"}]}],"bytecode":{"object":"0x610100806040523461020257608081612fa080380380916100208285610374565b83398101031261020257610033816103ab565b90610040602082016103ab565b916100596060610052604085016103ab565b93016103ab565b60016002556001600160a01b0382169290919083158015610363575b8015610352575b8015610341575b610332576001600160a01b039081166080819052921660e081905260405163313ce56760e01b81529092602090829060049082905afa92831561020e576004936020925f91610315575b5060a05260405163313ce56760e01b815293849182905afa801561020e5761010c925f916102e6575b5060c052610103816103d8565b6102ae5761044e565b610268575b5061011b816104ce565b610219575b5060805160e05160405163095ea7b360e01b81526001600160a01b0391821660048201525f19602482015291602091839160449183915f91165af1801561020e576101d2575b60405161292190816105bf82396080518181816108f601528181610daf015281816111ec015281816118c10152611d78015260a05181505060c05181505060e05181818161068601528181610b5b01528181610e570152818161113a015281816118580152611e510152f35b6020813d602011610206575b816101eb60209383610374565b81010312610202575180151503610202575f610166565b5f80fd5b3d91506101de565b6040513d5f823e3d90fd5b5f516020612f405f395f51905f525f526001602052610261906001600160a01b03167f81ca3e78767fe7984cabec333f0414457dbe87b59d50ac066de98618b846bf8161054e565b505f610120565b5f516020612f605f395f51905f525f5260016020526102a7907f50efbde2d46c37e9785f1791697f77e94bb7b701e19f1930a668820722d3769461054e565b505f610111565b5f805260016020526102e0837fa6eef7e35abe7026729641147f7915573c7e97b47efa546f5f6e3230263bcb4961054e565b5061044e565b610308915060203d60201161030e575b6103008183610374565b8101906103bf565b5f6100f6565b503d6102f6565b61032c9150833d851161030e576103008183610374565b5f6100cd565b639fabe1c160e01b5f5260045ffd5b506001600160a01b03831615610083565b506001600160a01b0381161561007c565b506001600160a01b03851615610075565b601f909101601f19168101906001600160401b0382119082101761039757604052565b634e487b7160e01b5f52604160045260245ffd5b51906001600160a01b038216820361020257565b90816020910312610202575160ff811681036102025790565b6001600160a01b0381165f9081525f516020612f805f395f51905f52602052604090205460ff16610449576001600160a01b03165f8181525f516020612f805f395f51905f5260205260408120805460ff191660011790553391905f516020612ee05f395f51905f528180a4600190565b505f90565b6001600160a01b0381165f9081525f516020612f005f395f51905f52602052604090205460ff16610449576001600160a01b03165f8181525f516020612f005f395f51905f5260205260408120805460ff191660011790553391905f516020612f605f395f51905f52905f516020612ee05f395f51905f529080a4600190565b6001600160a01b0381165f9081525f516020612f205f395f51905f52602052604090205460ff16610449576001600160a01b03165f8181525f516020612f205f395f51905f5260205260408120805460ff191660011790553391905f516020612f405f395f51905f52905f516020612ee05f395f51905f529080a4600190565b6001810190825f528160205260405f2054155f146105b75780546801000000000000000081101561039757600181018083558110156105a3578390825f5260205f20015554915f5260205260405f2055600190565b634e487b7160e01b5f52603260045260245ffd5b5050505f9056fe60806040526004361015610011575f80fd5b5f3560e01c806301e1d11414610aa357806301ffc9a714610a33578063248a9ca314610a015780632608f818146109a65780632f2ff15d1461096957806336568abe1461092557806338d52e0f146108e15780633f4ba83a1461087b5780634fe3d970146107e65780635c975abb146107c45780635eb8fa6f1461076057806360698943146106b557806369e527da1461067157806375b238fc1461064a5780637b8989391461062d5780638070bb281461061057806381906166146105ec5780638456cb59146105935780639010d07c1461054e57806391d148541461050657806398c4f1ac146104df5780639a19c7b0146104bb5780639e1421d5146104a0578063a217fddf14610486578063a3041bf414610424578063a3246ad314610375578063a683d5741461033c578063c634b78e146102fc578063ca15c873146102d2578063cfa498a3146102b6578063cfdbf2541461029b578063d0942d2e1461024a578063d2188582146101d75763d547741f1461018f575f80fd5b346101d35760403660031901126101d3576101d16004356101ae610ad3565b906101cc6101c7825f525f602052600160405f20015490565b61228b565b6122fd565b005b5f80fd5b346101d35760203660031901126101d357335f9081525f51602061288c5f395f51905f52602052604090205460ff16156102375761021361216f565b61021b61218d565b6020610228600435611d5d565b60016002556040519015158152f35b6310e0fa1960e21b5f523360045260245ffd5b346101d35760203660031901126101d357335f9081525f51602061288c5f395f51905f52602052604090205460ff16156102375761028661216f565b61028e61218d565b6020610228600435611843565b346101d3575f3660031901126101d357602060405160328152f35b346101d3575f3660031901126101d35760206040516127108152f35b346101d35760203660031901126101d3576004355f526001602052602060405f2054604051908152f35b346101d35760203660031901126101d357610335610318610abd565b6103206121f3565b61032861216f565b61033061218d565b6116fc565b6001600255005b346101d35760203660031901126101d357610335610358610abd565b61036061223c565b61036861216f565b61037061218d565b61175f565b346101d35760203660031901126101d3576004355f52600160205260405f20604051806020835491828152019081935f5260205f20905f5b81811061040e57505050816103c3910382610ae9565b604051918291602083019060208452518091526040830191905f5b8181106103ec575050500390f35b82516001600160a01b03168452859450602093840193909201916001016103de565b82548452602090930192600192830192016103ad565b346101d3575f3660031901126101d35761043c6121f3565b61044461216f565b61044c61218d565b6004545f6004556040519081527f577a284c251aa48cc8c69d96d3e7e20795f6fe1c6dd1c7287136c9cc05e3459060203392a26001600255005b346101d3575f3660031901126101d35760206040515f8152f35b346101d3575f3660031901126101d357602060405160058152f35b346101d35760203660031901126101d3576103356104d7610abd565b6103606121f3565b346101d3575f3660031901126101d35760206040515f5160206128ac5f395f51905f528152f35b346101d35760403660031901126101d35761051f610ad3565b6004355f525f60205260405f209060018060a01b03165f52602052602060ff60405f2054166040519015158152f35b346101d35760403660031901126101d3576004355f526001602052602061057a60243560405f20612716565b905460405160039290921b1c6001600160a01b03168152f35b346101d3575f3660031901126101d3576105ab6121f3565b6105b361218d565b600160ff1960035416176003557f62e78cea01bee320cd4e420270b5ea74000d11b0c9f74754ebdbfc544b05a2586020604051338152a1005b346101d35760203660031901126101d357610335610608610abd565b61032061223c565b346101d3575f3660031901126101d3576020600454604051908152f35b346101d3575f3660031901126101d3576020600554604051908152f35b346101d3575f3660031901126101d35760206040515f5160206128cc5f395f51905f528152f35b346101d3575f3660031901126101d3576040517f00000000000000000000000000000000000000000000000000000000000000006001600160a01b03168152602090f35b346101d35760203660031901126101d3576106ce610abd565b6106d66121f3565b6106de61216f565b6106e661218d565b6001600160a01b03811690811561075157610700906123c7565b61070b576001600255005b5f5160206128ac5f395f51905f525f52600160205261074a907f81ca3e78767fe7984cabec333f0414457dbe87b59d50ac066de98618b846bf8161273f565b5080610335565b639fabe1c160e01b5f5260045ffd5b346101d35760203660031901126101d357610779610abd565b335f9081525f51602061288c5f395f51905f52602052604090205460ff1615610237576107b76020916107aa61216f565b6107b261218d565b611115565b6001600255604051908152f35b346101d3575f3660031901126101d357602060ff600354166040519015158152f35b346101d35760203660031901126101d3576107ff610abd565b6108076121f3565b61080f61216f565b61081761218d565b6001600160a01b0381169081156107515761083190612574565b61083c576001600255005b5f5160206128ac5f395f51905f525f52600160205261074a907f81ca3e78767fe7984cabec333f0414457dbe87b59d50ac066de98618b846bf816127ae565b346101d3575f3660031901126101d3576108936121f3565b60035460ff8116156108d25760ff19166003557f5db9ee0a495bf2e6ff9c91a7834c1ba4fdd244a5e8aa4e537bd38aeae4b073aa6020604051338152a1005b638dfc202b60e01b5f5260045ffd5b346101d3575f3660031901126101d3576040517f00000000000000000000000000000000000000000000000000000000000000006001600160a01b03168152602090f35b346101d35760403660031901126101d35761093e610ad3565b336001600160a01b0382160361095a576101d1906004356122fd565b63334bd91960e11b5f5260045ffd5b346101d35760403660031901126101d3576101d1600435610988610ad3565b906109a16101c7825f525f602052600160405f20015490565b6122c3565b346101d35760403660031901126101d3576109bf610abd565b335f9081525f51602061288c5f395f51905f52602052604090205460ff1615610237576107b76020916109f061216f565b6109f861218d565b60243590610d84565b346101d35760203660031901126101d3576020610a2b6004355f525f602052600160405f20015490565b604051908152f35b346101d35760203660031901126101d35760043563ffffffff60e01b81168091036101d357602090635a05180f60e01b8114908115610a78575b506040519015158152f35b637965db0b60e01b811491508115610a92575b5082610a6d565b6301ffc9a760e01b14905082610a8b565b346101d3575f3660031901126101d3576020610a2b610b46565b600435906001600160a01b03821682036101d357565b602435906001600160a01b03821682036101d357565b90601f8019910116810190811067ffffffffffffffff821117610b0b57604052565b634e487b7160e01b5f52604160045260245ffd5b81810292918115918404141715610b3257565b634e487b7160e01b5f52601160045260245ffd5b6040516370a0823160e01b81523060048201527f00000000000000000000000000000000000000000000000000000000000000006001600160a01b0316602082602481845afa918215610c2a575f92610c35575b5060206004916040519283809263182df0f560e01b82525afa908115610c2a575f91610bf8575b505f9180151580610bef575b610bd657505090565b670de0b6b3a7640000925090610beb91610b1f565b0490565b50811515610bcd565b90506020813d602011610c22575b81610c1360209383610ae9565b810103126101d357515f610bc1565b3d9150610c06565b6040513d5f823e3d90fd5b9091506020813d602011610c62575b81610c5160209383610ae9565b810103126101d35751906020610b9a565b3d9150610c44565b91908201809211610b3257565b908160209103126101d3575180151581036101d35790565b5f9060033d11610c9b57565b905060045f803e5f5160e01c90565b5f60443d10610d10576040513d600319016004823e8051913d602484011167ffffffffffffffff841117610d1b578282019283519167ffffffffffffffff8311610d13573d84016003190185840160200111610d135750610d1092910160200190610ae9565b90565b949350505050565b92915050565b805180835260209291819084018484015e5f828201840152601f01601f1916010190565b3d15610d7f573d9067ffffffffffffffff8211610b0b5760405191610d74601f8201601f191660200184610ae9565b82523d5f602084013e565b606090565b906001600160a01b03821615610751578015611102576040516370a0823160e01b81523060048201527f00000000000000000000000000000000000000000000000000000000000000006001600160a01b0381169291602081602481875afa908115610c2a5783905f926110cc575b50610e029192309033906121a8565b6040516370a0823160e01b815230600482015290602082602481875afa918215610c2a575f92611098575b50610e388382610c6a565b820361102e57505060405163095ea7b360e01b81526001600160a01b037f00000000000000000000000000000000000000000000000000000000000000001660048201819052602482018390529390916020836044815f885af1918215610c2a57610ed793602093611013575b506040516304c11f0360e31b81526001600160a01b039091166004820152602481019190915291829081906044820190565b03815f875af15f9181610fdf575b50610f6557610ef2610c8f565b6308c379a014610f2d575b610f29610f08610d45565b60405163088aa88360e41b8152602060048201529182916024830190610d21565b0390fd5b610f35610caa565b80610f405750610efd565b6040516322a1c94d60e11b815260206004820152908190610f29906024830190610d21565b5f91604460209294604051948593849263095ea7b360e01b845260048401528160248401525af18015610c2a57610fb2575b5080610fa05790565b63442a3ba360e01b5f5260045260245ffd5b610fd39060203d602011610fd8575b610fcb8183610ae9565b810190610c77565b610f97565b503d610fc1565b9091506020813d60201161100b575b81610ffb60209383610ae9565b810103126101d35751905f610ee5565b3d9150610fee565b61102990843d8611610fd857610fcb8183610ae9565b610ea5565b60c49261103a91610c6a565b9060405191633e62af1560e01b835260606004840152602660648401527f4c4d3a207265706179426568616c662061737365742072656365697074206d696084840152650e6dac2e8c6d60d31b60a484015260248301526044820152fd5b9091506020813d6020116110c4575b816110b460209383610ae9565b810103126101d35751905f610e2d565b3d91506110a7565b9150506020813d6020116110fa575b816110e860209383610ae9565b810103126101d3575182610e02610df3565b3d91506110db565b50505f90565b91908203918211610b3257565b6001600160a01b0381168015610751576040516370a0823160e01b81523060048201527f00000000000000000000000000000000000000000000000000000000000000006001600160a01b031690602081602481855afa908115610c2a575f916116ca575b5080156116c25760405163a6afed9560e01b81526020816004815f875af18015610c2a57611693575b5060405163182df0f560e01b8152602081600481865afa908115610c2a575f91611661575b50801580611659575b6115ec576111e8670de0b6b3a76400009183610b1f565b04937f00000000000000000000000000000000000000000000000000000000000000009160018060a01b03831693604051916370a0823160e01b8352306004840152602083602481895afa928315610c2a575f936115b8575b505f916024602092604051948593849263db006a7560e01b845260048401525af15f9181611584575b506112e657611277610c8f565b6308c379a0146112ae575b610f2961128d610d45565b604051632280bc3960e11b8152602060048201529182916024830190610d21565b6112b6610caa565b806112c15750611282565b604051630dc3586760e41b815260206004820152908190610f29906024830190610d21565b8061157257506040516370a0823160e01b815230600482015290602082602481885afa8015610c2a575f9061153e575b6113209250611108565b948086111561152d5760016113358288611108565b116114c6575084611371575b5050507f67888544f32c15729339b4e2b7c700474afc1f9759f7dc0b4b49d1153cf147076020604051848152a290565b6040516370a0823160e01b815230600482015290602082602481875afa928315610c2a5786925f94611488575b50602092602495926113af92612333565b6040516370a0823160e01b815230600482015293849182905afa918215610c2a575f92611454575b506113e28482611108565b82036113ee5780611341565b906113fb8460c493611108565b9060405191633e62af1560e01b835260606004840152602160648401527f4c4d3a2072656465656d416c6c2061737365742073656e64206d69736d6174636084840152600d60fb1b60a484015260248301526044820152fd5b9091506020813d602011611480575b8161147060209383610ae9565b810103126101d35751905f6113d7565b3d9150611463565b92509250926020823d6020116114be575b816114a660209383610ae9565b810103126101d357905190929091859190602061139e565b3d9150611499565b60c4908660405191633e62af1560e01b835260606004840152602c60648401527f4c4d3a2072656465656d416c6c2063546f6b656e2e72656465656d207265636560848401526b0d2e0e840dad2e6dac2e8c6d60a31b60a484015260248301526044820152fd5b60016115398783611108565b611335565b506020823d60201161156a575b8161155860209383610ae9565b810103126101d3576113209151611316565b3d915061154b565b63515ce46360e01b5f5260045260245ffd5b9091506020813d6020116115b0575b816115a060209383610ae9565b810103126101d35751905f61126a565b3d9150611593565b9092506020813d6020116115e4575b816115d460209383610ae9565b810103126101d35751915f611241565b3d91506115c7565b604051633e62af1560e01b815260606004820152603160648201527f4c4d3a2072656465656d416c6c2063546f6b656e2e72656465656d2065786368608482015270616e67652072617465206973207a65726f60781b60a4820152600160248201525f604482015260c490fd5b5060016111d1565b90506020813d60201161168b575b8161167c60209383610ae9565b810103126101d357515f6111c8565b3d915061166f565b6020813d6020116116ba575b816116ac60209383610ae9565b810103126101d357516111a3565b3d915061169f565b505050505f90565b90506020813d6020116116f4575b816116e560209383610ae9565b810103126101d357515f61117a565b3d91506116d8565b6001600160a01b038116908115610751576117169061245f565b61171d5750565b5f5160206128cc5f395f51905f525f52600160205261175c907f50efbde2d46c37e9785f1791697f77e94bb7b701e19f1930a668820722d3769461273f565b50565b6001600160a01b038116908115610751575f5160206128cc5f395f51905f525f52600160208190527f50efbde2d46c37e9785f1791697f77e94bb7b701e19f1930a668820722d376945411156117fe576117b890612605565b6117bf5750565b5f5160206128cc5f395f51905f525f52600160205261175c907f50efbde2d46c37e9785f1791697f77e94bb7b701e19f1930a668820722d376946127ae565b60405162461bcd60e51b815260206004820152601860248201527f43616e6e6f742072656d6f7665206c6173742061646d696e00000000000000006044820152606490fd5b8015611d575760405163a6afed9560e01b81527f00000000000000000000000000000000000000000000000000000000000000006001600160a01b0316906020816004815f865af1908115610c2a575f91611d25575b50611ce757816118a7610b46565b10611cd8576040516370a0823160e01b81523060048201527f00000000000000000000000000000000000000000000000000000000000000006001600160a01b03811692909190602082602481875afa918215610c2a575f92611ca3575b5060205f9160246040518094819363852a12e360e01b83528a60048401525af15f9181611c6f575b506119a95761193a610c8f565b6308c379a014611971575b610f29611950610d45565b6040516302d5607560e41b8152602060048201529182916024830190610d21565b611979610caa565b806119845750611945565b604051630794cdd160e51b815260206004820152908190610f29906024830190610d21565b80611c5d57506040516370a0823160e01b815230600482015290602082602481875afa918215610c2a575f92611c29575b506119e58582610c6a565b8203611baf5750506040516370a0823160e01b8152306004820152602081602481865afa918215610c2a5784915f93611b76575b5092611a2b6020926024953390612333565b6040516370a0823160e01b815230600482015293849182905afa918215610c2a575f92611b42575b50611a5e8382611108565b8203611ae7575050600454818110611ab25750611a7d81600454611108565b6004555b6040519081527f67888544f32c15729339b4e2b7c700474afc1f9759f7dc0b4b49d1153cf1470760203392a2600190565b6040519081527f577a284c251aa48cc8c69d96d3e7e20795f6fe1c6dd1c7287136c9cc05e3459060203392a25f600455611a81565b60a492611af391611108565b9060405191633e62af1560e01b835260606004840152602060648401527f4c4d3a2077697468647261772061737365742073656e64206d69736d61746368608484015260248301526044820152fd5b9091506020813d602011611b6e575b81611b5e60209383610ae9565b810103126101d35751905f611a53565b3d9150611b51565b915091506020813d602011611ba7575b81611b9360209383610ae9565b810103126101d35751908390611a2b611a19565b3d9150611b86565b90611bbc8560c493610c6a565b9060405191633e62af1560e01b835260606004840152603560648401527f4c4d3a2077697468647261772063546f6b656e2e72656465656d556e6465726c6084840152740f2d2dcce40e4cac6cad2e0e840dad2e6dac2e8c6d605b1b60a484015260248301526044820152fd5b9091506020813d602011611c55575b81611c4560209383610ae9565b810103126101d35751905f6119da565b3d9150611c38565b635db98c9760e11b5f5260045260245ffd5b9091506020813d602011611c9b575b81611c8b60209383610ae9565b810103126101d35751905f61192d565b3d9150611c7e565b9091506020813d602011611cd0575b81611cbf60209383610ae9565b810103126101d35751906020611905565b3d9150611cb2565b631f996b4b60e21b5f5260045ffd5b60405162461bcd60e51b81526020600482015260166024820152751058d8dc9d59481a5b9d195c995cdd0819985a5b195960521b6044820152606490fd5b90506020813d602011611d4f575b81611d4060209383610ae9565b810103126101d357515f611899565b3d9150611d33565b50600190565b8015611d57576040516370a0823160e01b81523060048201527f00000000000000000000000000000000000000000000000000000000000000006001600160a01b03811691602081602481865afa908115610c2a5784905f92612139575b50611dca9192309033906121a8565b6040516370a0823160e01b815230600482015290602082602481865afa918215610c2a575f92612105575b50611e008482610c6a565b820361209e5750506040516370a0823160e01b815230600482015290602082602481845afa918215610c2a575f9261206a575b5060405163140e25ad60e31b8152600481018490526020816024815f7f00000000000000000000000000000000000000000000000000000000000000006001600160a01b03165af15f9181612036575b50611eff57611e90610c8f565b6308c379a014611ec7575b610f29611ea6610d45565b6040516301da159560e41b8152602060048201529182916024830190610d21565b611ecf610caa565b80611eda5750611e9b565b6040516302b84f2960e11b815260206004820152908190610f29906024830190610d21565b806120245750906020602492604051938480926370a0823160e01b82523060048301525afa918215610c2a575f92611ff0575b50611f3d8382611108565b8203611f85575050611f5181600454610c6a565b6004556040519081527fc6e278b89e8eca6811176d094164326e61b124e5642d6aef9cbd95440b01485460203392a2600190565b60c492611f9191611108565b9060405191633e62af1560e01b835260606004840152602760648401527f4c4d3a206465706f7369742063546f6b656e2e6d696e7420737570706c79206d6084840152660d2e6dac2e8c6d60cb1b60a484015260248301526044820152fd5b9091506020813d60201161201c575b8161200c60209383610ae9565b810103126101d35751905f611f32565b3d9150611fff565b6350e3a86d60e11b5f5260045260245ffd5b9091506020813d602011612062575b8161205260209383610ae9565b810103126101d35751905f611e83565b3d9150612045565b9091506020813d602011612096575b8161208660209383610ae9565b810103126101d35751905f611e33565b3d9150612079565b906120ab8460c493610c6a565b9060405191633e62af1560e01b835260606004840152602260648401527f4c4d3a206465706f7369742061737365742072656365697074206d69736d61746084840152610c6d60f31b60a484015260248301526044820152fd5b9091506020813d602011612131575b8161212160209383610ae9565b810103126101d35751905f611df5565b3d9150612114565b9150506020813d602011612167575b8161215560209383610ae9565b810103126101d3575183611dca611dbb565b3d9150612148565b600280541461217e5760028055565b633ee5aeb560e01b5f5260045ffd5b60ff6003541661219957565b63d93c066560e01b5f5260045ffd5b6040516323b872dd60e01b60208201526001600160a01b0392831660248201529290911660448301526064808301939093529181526121f1916121ec608483610ae9565b61236f565b565b335f9081525f51602061286c5f395f51905f52602052604090205460ff161561221857565b63e2517d3f60e01b5f52336004525f5160206128cc5f395f51905f5260245260445ffd5b335f9081527fad3228b676f7d3cd4284a5443f17f1962b36e491b30a40b2405849e597ba5fb5602052604090205460ff161561227457565b63e2517d3f60e01b5f52336004525f60245260445ffd5b5f8181526020818152604080832033845290915290205460ff16156122ad5750565b63e2517d3f60e01b5f523360045260245260445ffd5b6122cd82826124f2565b91826122d857505090565b5f918252600160205260409091206122f9916001600160a01b03169061273f565b5090565b6123078282612696565b918261231257505090565b5f918252600160205260409091206122f9916001600160a01b0316906127ae565b60405163a9059cbb60e01b60208201526001600160a01b039290921660248301526044808301939093529181526121f1916121ec606483610ae9565b905f602091828151910182855af115610c2a575f513d6123be57506001600160a01b0381163b155b61239e5750565b635274afe760e01b5f9081526001600160a01b0391909116600452602490fd5b60011415612397565b6001600160a01b0381165f9081525f51602061288c5f395f51905f52602052604090205460ff1661245a576001600160a01b03165f8181525f51602061288c5f395f51905f5260205260408120805460ff191660011790553391905f5160206128ac5f395f51905f52907f2f8788117e7eff1d82e926ec794901d17c78024a50270940304540a733656f0d9080a4600190565b505f90565b6001600160a01b0381165f9081525f51602061286c5f395f51905f52602052604090205460ff1661245a576001600160a01b03165f8181525f51602061286c5f395f51905f5260205260408120805460ff191660011790553391905f5160206128cc5f395f51905f52907f2f8788117e7eff1d82e926ec794901d17c78024a50270940304540a733656f0d9080a4600190565b5f818152602081815260408083206001600160a01b038616845290915290205460ff16611102575f818152602081815260408083206001600160a01b0395909516808452949091528120805460ff19166001179055339291907f2f8788117e7eff1d82e926ec794901d17c78024a50270940304540a733656f0d9080a4600190565b6001600160a01b0381165f9081525f51602061288c5f395f51905f52602052604090205460ff161561245a576001600160a01b03165f8181525f51602061288c5f395f51905f5260205260408120805460ff191690553391905f5160206128ac5f395f51905f52907ff6391f5c32d9c69d2a47ea670b442974b53935d1edc7fd64eb21e047a839171b9080a4600190565b6001600160a01b0381165f9081525f51602061286c5f395f51905f52602052604090205460ff161561245a576001600160a01b03165f8181525f51602061286c5f395f51905f5260205260408120805460ff191690553391905f5160206128cc5f395f51905f52907ff6391f5c32d9c69d2a47ea670b442974b53935d1edc7fd64eb21e047a839171b9080a4600190565b5f818152602081815260408083206001600160a01b038616845290915290205460ff1615611102575f818152602081815260408083206001600160a01b0395909516808452949091528120805460ff19169055339291907ff6391f5c32d9c69d2a47ea670b442974b53935d1edc7fd64eb21e047a839171b9080a4600190565b805482101561272b575f5260205f2001905f90565b634e487b7160e01b5f52603260045260245ffd5b6001810190825f528160205260405f2054155f146127a757805468010000000000000000811015610b0b5761279461277e826001879401855584612716565b819391549060031b91821b915f19901b19161790565b905554915f5260205260405f2055600190565b5050505f90565b906001820191815f528260205260405f20548015155f146116c2575f198101818111610b325782545f19810191908211610b3257818103612836575b50505080548015612822575f1901906128038282612716565b8154905f199060031b1b19169055555f526020525f6040812055600190565b634e487b7160e01b5f52603160045260245ffd5b61285661284661277e9386612716565b90549060031b1c92839286612716565b90555f528360205260405f20555f80806127ea56fe7d7ffb7a348e1c6a02869081a26547b49160dd3df72d1d75a570eb9b698292ec57c45785f0bfdd0436a24ca59ce8cf4a246623230045d7db55b0ff1db74c582231e0210044b4f6757ce6aa31f9c6e8d4896d24a755014887391a926c5224d959a49807205ce4d355092ef5a8a18f56e8913cf4a201fbe287825b095693c21775a264697066735822122084011a6713c7cb148c10b42e7495059e65032c4a480092d7ec21fb679dcde1ec64736f6c634300081e00332f8788117e7eff1d82e926ec794901d17c78024a50270940304540a733656f0d7d7ffb7a348e1c6a02869081a26547b49160dd3df72d1d75a570eb9b698292ec57c45785f0bfdd0436a24ca59ce8cf4a246623230045d7db55b0ff1db74c582231e0210044b4f6757ce6aa31f9c6e8d4896d24a755014887391a926c5224d959a49807205ce4d355092ef5a8a18f56e8913cf4a201fbe287825b095693c21775ad3228b676f7d3cd4284a5443f17f1962b36e491b30a40b2405849e597ba5fb5","linkReferences":{}},"methodIdentifiers":{"ADMIN_ROLE()":"75b238fc","BASIS_POINTS_DENOMINATOR()":"cfa498a3","DEFAULT_ADMIN_ROLE()":"a217fddf","MAX_BATCH_SIZE()":"cfdbf254","R0_BASIS_POINTS()":"9e1421d5","VAULT_ROLE()":"98c4f1ac","asset()":"38d52e0f","cToken()":"69e527da","depositIndex()":"7b898939","depositToLendingProtocol(uint256)":"d2188582","getRoleAdmin(bytes32)":"248a9ca3","getRoleMember(bytes32,uint256)":"9010d07c","getRoleMemberCount(bytes32)":"ca15c873","getRoleMembers(bytes32)":"a3246ad3","grantAdminRole(address)":"c634b78e","grantAdminRoleAsDefaultAdmin(address)":"81906166","grantRole(bytes32,address)":"2f2ff15d","grantVaultRole(address)":"60698943","hasRole(bytes32,address)":"91d14854","pause()":"8456cb59","paused()":"5c975abb","redeemAllCTokens(address)":"5eb8fa6f","renounceRole(bytes32,address)":"36568abe","repayBorrowBehalf(address,uint256)":"2608f818","resetTotalPrincipalDeposited()":"a3041bf4","revokeAdminRole(address)":"9a19c7b0","revokeAdminRoleAsDefaultAdmin(address)":"a683d574","revokeRole(bytes32,address)":"d547741f","revokeVaultRole(address)":"4fe3d970","supportsInterface(bytes4)":"01ffc9a7","totalAssets()":"01e1d114","totalPrincipalDeposited()":"8070bb28","unpause()":"3f4ba83a","withdrawFromLendingProtocol(uint256)":"d0942d2e"},"id":82}